{"contracts/Orec.sol":{"Orec":{"abi":[{"inputs":[{"internalType":"contract IERC165","name":"respectContract_","type":"address"},{"internalType":"uint64","name":"voteLenSeconds_","type":"uint64"},{"internalType":"uint64","name":"vetoLenSeconds_","type":"uint64"},{"internalType":"uint256","name":"minWeight_","type":"uint256"},{"internalType":"uint8","name":"maxLiveYesVotes_","type":"uint8"}],"stateMutability":"nonpayable","type":"constructor"},{"inputs":[{"internalType":"enum Orec.VoteType","name":"prevVote","type":"uint8"},{"internalType":"enum Orec.VoteType","name":"newVote","type":"uint8"}],"name":"AlreadyVoted","type":"error"},{"inputs":[],"name":"InvalidVote","type":"error"},{"inputs":[],"name":"MaxLiveYesVotesExceeded","type":"error"},{"inputs":[{"internalType":"address","name":"owner","type":"address"}],"name":"OwnableInvalidOwner","type":"error"},{"inputs":[{"internalType":"address","name":"account","type":"address"}],"name":"OwnableUnauthorizedAccount","type":"error"},{"inputs":[],"name":"ProposalAlreadyExecuted","type":"error"},{"inputs":[],"name":"ProposalAlreadyExists","type":"error"},{"inputs":[],"name":"ProposalDoesNotExist","type":"error"},{"inputs":[],"name":"ProposalNotExpired","type":"error"},{"inputs":[],"name":"ProposalNotPassed","type":"error"},{"inputs":[],"name":"ProposalVoteInactive","type":"error"},{"inputs":[],"name":"UnsupportedRespectContract","type":"error"},{"inputs":[],"name":"VoteEnded","type":"error"},{"inputs":[],"name":"VotePeriodOver","type":"error"},{"anonymous":false,"inputs":[{"indexed":true,"internalType":"Orec.PropId","name":"propId","type":"bytes32"},{"indexed":true,"internalType":"address","name":"voter","type":"address"},{"indexed":false,"internalType":"enum Orec.VoteType","name":"vtype","type":"uint8"}],"name":"EmptyVoteIn","type":"event"},{"anonymous":false,"inputs":[{"indexed":true,"internalType":"Orec.PropId","name":"propId","type":"bytes32"},{"indexed":false,"internalType":"bytes","name":"retVal","type":"bytes"}],"name":"Executed","type":"event"},{"anonymous":false,"inputs":[{"indexed":true,"internalType":"Orec.PropId","name":"propId","type":"bytes32"},{"indexed":false,"internalType":"bytes","name":"retVal","type":"bytes"}],"name":"ExecutionFailed","type":"event"},{"anonymous":false,"inputs":[{"indexed":true,"internalType":"address","name":"previousOwner","type":"address"},{"indexed":true,"internalType":"address","name":"newOwner","type":"address"}],"name":"OwnershipTransferred","type":"event"},{"anonymous":false,"inputs":[{"indexed":true,"internalType":"Orec.PropId","name":"propId","type":"bytes32"}],"name":"ProposalCreated","type":"event"},{"anonymous":false,"inputs":[{"indexed":true,"internalType":"Orec.PropId","name":"propId","type":"bytes32"}],"name":"ProposalRemoved","type":"event"},{"anonymous":false,"inputs":[{"indexed":true,"internalType":"uint8","name":"signalType","type":"uint8"},{"indexed":false,"internalType":"bytes","name":"data","type":"bytes"}],"name":"Signal","type":"event"},{"anonymous":false,"inputs":[{"indexed":true,"internalType":"Orec.PropId","name":"propId","type":"bytes32"},{"indexed":true,"internalType":"address","name":"voter","type":"address"},{"components":[{"internalType":"enum Orec.VoteType","name":"vtype","type":"uint8"},{"internalType":"Orec.VoteWeight","name":"weight","type":"uint128"}],"indexed":false,"internalType":"struct Orec.Vote","name":"vote","type":"tuple"}],"name":"WeightedVoteIn","type":"event"},{"inputs":[{"components":[{"internalType":"address","name":"addr","type":"address"},{"internalType":"bytes","name":"cdata","type":"bytes"},{"internalType":"bytes","name":"memo","type":"bytes"}],"internalType":"struct Orec.Message","name":"message","type":"tuple"}],"name":"execute","outputs":[{"internalType":"bool","name":"","type":"bool"}],"stateMutability":"nonpayable","type":"function"},{"inputs":[{"internalType":"Orec.PropId","name":"propId","type":"bytes32"},{"internalType":"address","name":"voter","type":"address"}],"name":"getLiveVote","outputs":[{"components":[{"internalType":"enum Orec.VoteType","name":"vtype","type":"uint8"},{"internalType":"Orec.VoteWeight","name":"weight","type":"uint128"}],"internalType":"struct Orec.Vote","name":"","type":"tuple"}],"stateMutability":"view","type":"function"},{"inputs":[{"internalType":"Orec.PropId","name":"propId","type":"bytes32"}],"name":"getStage","outputs":[{"internalType":"enum Orec.Stage","name":"","type":"uint8"}],"stateMutability":"view","type":"function"},{"inputs":[{"internalType":"Orec.PropId","name":"propId","type":"bytes32"}],"name":"getVoteStatus","outputs":[{"internalType":"enum Orec.VoteStatus","name":"","type":"uint8"}],"stateMutability":"view","type":"function"},{"inputs":[{"internalType":"Orec.PropId","name":"propId","type":"bytes32"}],"name":"isExpired","outputs":[{"internalType":"bool","name":"","type":"bool"}],"stateMutability":"view","type":"function"},{"inputs":[{"internalType":"Orec.PropId","name":"propId","type":"bytes32"}],"name":"isVetoOrVotePeriod","outputs":[{"internalType":"bool","name":"","type":"bool"}],"stateMutability":"view","type":"function"},{"inputs":[{"internalType":"Orec.PropId","name":"propId","type":"bytes32"}],"name":"isVetoPeriod","outputs":[{"internalType":"bool","name":"","type":"bool"}],"stateMutability":"view","type":"function"},{"inputs":[{"internalType":"Orec.PropId","name":"propId","type":"bytes32"}],"name":"isVoteActive","outputs":[{"internalType":"bool","name":"","type":"bool"}],"stateMutability":"view","type":"function"},{"inputs":[{"internalType":"Orec.PropId","name":"propId","type":"bytes32"}],"name":"isVotePeriod","outputs":[{"internalType":"bool","name":"","type":"bool"}],"stateMutability":"view","type":"function"},{"inputs":[],"name":"maxLiveVotes","outputs":[{"internalType":"uint8","name":"","type":"uint8"}],"stateMutability":"view","type":"function"},{"inputs":[],"name":"minWeight","outputs":[{"internalType":"uint256","name":"","type":"uint256"}],"stateMutability":"view","type":"function"},{"inputs":[],"name":"owner","outputs":[{"internalType":"address","name":"","type":"address"}],"stateMutability":"view","type":"function"},{"inputs":[{"internalType":"Orec.PropId","name":"propId","type":"bytes32"}],"name":"proposalExists","outputs":[{"internalType":"bool","name":"","type":"bool"}],"stateMutability":"view","type":"function"},{"inputs":[{"components":[{"internalType":"address","name":"addr","type":"address"},{"internalType":"bytes","name":"cdata","type":"bytes"},{"internalType":"bytes","name":"memo","type":"bytes"}],"internalType":"struct Orec.Message","name":"message","type":"tuple"}],"name":"proposalId","outputs":[{"internalType":"Orec.PropId","name":"","type":"bytes32"}],"stateMutability":"pure","type":"function"},{"inputs":[{"internalType":"Orec.PropId","name":"","type":"bytes32"}],"name":"proposals","outputs":[{"internalType":"uint256","name":"createTime","type":"uint256"},{"internalType":"uint256","name":"yesWeight","type":"uint256"},{"internalType":"uint256","name":"noWeight","type":"uint256"},{"internalType":"enum Orec.ExecStatus","name":"status","type":"uint8"}],"stateMutability":"view","type":"function"},{"inputs":[{"internalType":"Orec.PropId","name":"propId","type":"bytes32"}],"name":"propose","outputs":[],"stateMutability":"nonpayable","type":"function"},{"inputs":[{"internalType":"Orec.PropId","name":"propId","type":"bytes32"}],"name":"remove","outputs":[],"stateMutability":"nonpayable","type":"function"},{"inputs":[],"name":"renounceOwnership","outputs":[],"stateMutability":"nonpayable","type":"function"},{"inputs":[],"name":"respectContract","outputs":[{"internalType":"address","name":"","type":"address"}],"stateMutability":"view","type":"function"},{"inputs":[{"internalType":"address","name":"account","type":"address"}],"name":"respectOf","outputs":[{"internalType":"uint256","name":"","type":"uint256"}],"stateMutability":"view","type":"function"},{"inputs":[{"internalType":"uint8","name":"newMaxLiveVotes","type":"uint8"}],"name":"setMaxLiveVotes","outputs":[],"stateMutability":"nonpayable","type":"function"},{"inputs":[{"internalType":"uint256","name":"newMinWeigth","type":"uint256"}],"name":"setMinWeight","outputs":[],"stateMutability":"nonpayable","type":"function"},{"inputs":[{"internalType":"contract IERC165","name":"respect","type":"address"}],"name":"setRespectContract","outputs":[],"stateMutability":"nonpayable","type":"function"},{"inputs":[{"internalType":"uint64","name":"newVetoLen","type":"uint64"}],"name":"setVetoLen","outputs":[],"stateMutability":"nonpayable","type":"function"},{"inputs":[{"internalType":"uint64","name":"newVoteLen","type":"uint64"}],"name":"setVoteLen","outputs":[],"stateMutability":"nonpayable","type":"function"},{"inputs":[{"internalType":"uint8","name":"signalType","type":"uint8"},{"internalType":"bytes","name":"data","type":"bytes"}],"name":"signal","outputs":[],"stateMutability":"nonpayable","type":"function"},{"inputs":[{"internalType":"address","name":"newOwner","type":"address"}],"name":"transferOwnership","outputs":[],"stateMutability":"nonpayable","type":"function"},{"inputs":[],"name":"vetoLen","outputs":[{"internalType":"uint64","name":"","type":"uint64"}],"stateMutability":"view","type":"function"},{"inputs":[{"internalType":"Orec.PropId","name":"propId","type":"bytes32"},{"internalType":"enum Orec.VoteType","name":"voteType","type":"uint8"},{"internalType":"bytes","name":"","type":"bytes"}],"name":"vote","outputs":[],"stateMutability":"nonpayable","type":"function"},{"inputs":[],"name":"voteLen","outputs":[{"internalType":"uint64","name":"","type":"uint64"}],"stateMutability":"view","type":"function"},{"inputs":[{"internalType":"address","name":"account","type":"address"}],"name":"voteWeightOf","outputs":[{"internalType":"Orec.VoteWeight","name":"","type":"uint128"}],"stateMutability":"view","type":"function"}],"evm":{"bytecode":{"linkReferences":{},"object":"608060405262015180600060146101000a81548167ffffffffffffffff021916908367ffffffffffffffff1602179055506207e900600160006101000a81548167ffffffffffffffff021916908367ffffffffffffffff1602179055506101006002553480156200006f57600080fd5b5060405162003b6338038062003b638339818101604052810190620000959190620005ec565b30600073ffffffffffffffffffffffffffffffffffffffff168173ffffffffffffffffffffffffffffffffffffffff16036200010b5760006040517f1e4fbdf700000000000000000000000000000000000000000000000000000000815260040162000102919062000685565b60405180910390fd5b6200011c81620001ad60201b60201c565b506200012e856200027160201b60201c565b83600060146101000a81548167ffffffffffffffff021916908367ffffffffffffffff16021790555082600160006101000a81548167ffffffffffffffff021916908367ffffffffffffffff1602179055508160028190555080600360156101000a81548160ff021916908360ff1602179055505050505050620007cc565b60008060009054906101000a900473ffffffffffffffffffffffffffffffffffffffff169050816000806101000a81548173ffffffffffffffffffffffffffffffffffffffff021916908373ffffffffffffffffffffffffffffffffffffffff1602179055508173ffffffffffffffffffffffffffffffffffffffff168173ffffffffffffffffffffffffffffffffffffffff167f8be0079c531659141344cd1fd0a4f28419497f9722a3daafe3b4186f6b6457e060405160405180910390a35050565b60008190508173ffffffffffffffffffffffffffffffffffffffff166301ffc9a77f58970ca8000000000000000000000000000000000000000000000000000000006040518263ffffffff1660e01b8152600401620002d19190620006df565b602060405180830381865afa158015620002ef573d6000803e3d6000fd5b505050506040513d601f19601f8201168201806040525081019062000315919062000739565b156200034f576000600360146101000a81548160ff021916908360018111156200034457620003436200076b565b5b02179055506200046b565b60008173ffffffffffffffffffffffffffffffffffffffff166370a08231306040518263ffffffff1660e01b81526004016200038c919062000685565b602060405180830381865afa158015620003aa573d6000803e3d6000fd5b505050506040513d601f19601f82011682018060405250810190620003d091906200079a565b9050600081101580156200040457507fffffffffffffffffffffffffffffffffffffffffffffffffffffffffffffffff8111155b6200043b576040517fadd3c86f00000000000000000000000000000000000000000000000000000000815260040160405180910390fd5b6001600360146101000a81548160ff021916908360018111156200046457620004636200076b565b5b0217905550505b80600360006101000a81548173ffffffffffffffffffffffffffffffffffffffff021916908373ffffffffffffffffffffffffffffffffffffffff1602179055505050565b600080fd5b600073ffffffffffffffffffffffffffffffffffffffff82169050919050565b6000620004e282620004b5565b9050919050565b6000620004f682620004d5565b9050919050565b6200050881620004e9565b81146200051457600080fd5b50565b6000815190506200052881620004fd565b92915050565b600067ffffffffffffffff82169050919050565b6200054d816200052e565b81146200055957600080fd5b50565b6000815190506200056d8162000542565b92915050565b6000819050919050565b620005888162000573565b81146200059457600080fd5b50565b600081519050620005a8816200057d565b92915050565b600060ff82169050919050565b620005c681620005ae565b8114620005d257600080fd5b50565b600081519050620005e681620005bb565b92915050565b600080600080600060a086880312156200060b576200060a620004b0565b5b60006200061b8882890162000517565b95505060206200062e888289016200055c565b945050604062000641888289016200055c565b9350506060620006548882890162000597565b92505060806200066788828901620005d5565b9150509295509295909350565b6200067f81620004d5565b82525050565b60006020820190506200069c600083018462000674565b92915050565b60007fffffffff0000000000000000000000000000000000000000000000000000000082169050919050565b620006d981620006a2565b82525050565b6000602082019050620006f66000830184620006ce565b92915050565b60008115159050919050565b6200071381620006fc565b81146200071f57600080fd5b50565b600081519050620007338162000708565b92915050565b600060208284031215620007525762000751620004b0565b5b6000620007628482850162000722565b91505092915050565b7f4e487b7100000000000000000000000000000000000000000000000000000000600052602160045260246000fd5b600060208284031215620007b357620007b2620004b0565b5b6000620007c38482850162000597565b91505092915050565b61338780620007dc6000396000f3fe608060405234801561001057600080fd5b50600436106101e55760003560e01c80637abd7a0a1161010f578063be142264116100a2578063d8cf352811610071578063d8cf3528146105cb578063e89075c7146105fb578063f2fde38b14610617578063fd165a7314610633576101e5565b8063be14226414610557578063cb156a4a14610575578063ce5b3b3914610593578063d50b2843146105af576101e5565b806395bc2673116100de57806395bc2673146104d357806399882cdb146104ef578063ae844f741461050b578063bd5ab94f1461053b576101e5565b80637abd7a0a1461044b5780637fb8b61e146104695780638c7ecf8d146104995780638da5cb5b146104b5576101e5565b806332ed5b121161018757806358970ca81161015657806358970ca8146103b15780635b4654a9146103e15780636db2feb214610411578063715018a614610441576101e5565b806332ed5b12146102ee57806340a27abc146103215780634410a944146103515780634cc7401114610381576101e5565b806312007fc9116101c357806312007fc914610256578063141d51cb1461028657806320cea51a146102a2578063272d16f2146102be576101e5565b80630c2ee55e146101ea5780630cfe734d146102085780630ee572fd14610238575b600080fd5b6101f2610663565b6040516101ff9190612570565b60405180910390f35b610222600480360381019061021d91906125cb565b610669565b60405161022f919061266f565b60405180910390f35b610240610688565b60405161024d91906126ad565b60405180910390f35b610270600480360381019061026b91906125cb565b6106a2565b60405161027d91906126e3565b60405180910390f35b6102a0600480360381019061029b919061279c565b6106c1565b005b6102bc60048036038101906102b79190612828565b61070b565b005b6102d860048036038101906102d391906125cb565b61071d565b6040516102e591906126e3565b60405180910390f35b610308600480360381019061030391906125cb565b61073c565b604051610318949392919061289d565b60405180910390f35b61033b600480360381019061033691906125cb565b610779565b60405161034891906126e3565b60405180910390f35b61036b600480360381019061036691906125cb565b610798565b60405161037891906126e3565b60405180910390f35b61039b60048036038101906103969190612940565b6107c1565b6040516103a89190612a4e565b60405180910390f35b6103cb60048036038101906103c69190612a69565b61081f565b6040516103d89190612570565b60405180910390f35b6103fb60048036038101906103f69190612aba565b6109a2565b6040516104089190612b24565b60405180910390f35b61042b600480360381019061042691906125cb565b610a0d565b60405161043891906126e3565b60405180910390f35b610449610a2c565b005b610453610a40565b6040516104609190612b4e565b60405180910390f35b610483600480360381019061047e9190612a69565b610a53565b6040516104909190612b78565b60405180910390f35b6104b360048036038101906104ae9190612bd1565b610aa7565b005b6104bd610abb565b6040516104ca9190612c0d565b60405180910390f35b6104ed60048036038101906104e891906125cb565b610ae4565b005b610509600480360381019061050491906125cb565b610ba3565b005b610525600480360381019061052091906125cb565b610c08565b6040516105329190612c70565b60405180910390f35b61055560048036038101906105509190612cb7565b610d53565b005b61055f610d87565b60405161056c9190612c0d565b60405180910390f35b61057d610dad565b60405161058a91906126ad565b60405180910390f35b6105ad60048036038101906105a89190612cb7565b610dc7565b005b6105c960048036038101906105c49190612d09565b610dfb565b005b6105e560048036038101906105e091906125cb565b610e3c565b6040516105f291906126e3565b60405180910390f35b61061560048036038101906106109190612d7d565b610e5b565b005b610631600480360381019061062c9190612a69565b610e81565b005b61064d60048036038101906106489190612aba565b610f07565b60405161065a91906126e3565b60405180910390f35b60025481565b6000806106758361116a565b9050610680816111ca565b915050919050565b600160009054906101000a900467ffffffffffffffff1681565b6000806106ae8361116a565b90506106b981611217565b915050919050565b6106c9611257565b8260ff167f294d62780e868235e85aee4277a92857d52a196987e2a5bbb9fffe4f08b4567a83836040516106fe929190612e08565b60405180910390a2505050565b610713611257565b8060028190555050565b6000806107298361116a565b9050610734816112de565b915050919050565b60046020528060005260406000206000915090508060000154908060010154908060020154908060030160009054906101000a900460ff16905084565b6000806107858361116a565b90506107908161136b565b915050919050565b6000806004600084815260200190815260200160002090506107b9816113d8565b915050919050565b6107c9612519565b6000600560008473ffffffffffffffffffffffffffffffffffffffff1673ffffffffffffffffffffffffffffffffffffffff168152602001908152602001600020905061081681856113e9565b91505092915050565b6000806001811115610834576108336125f8565b5b600360149054906101000a900460ff166001811115610856576108556125f8565b5b036108fe57600360009054906101000a900473ffffffffffffffffffffffffffffffffffffffff1673ffffffffffffffffffffffffffffffffffffffff166358970ca8836040518263ffffffff1660e01b81526004016108b69190612c0d565b602060405180830381865afa1580156108d3573d6000803e3d6000fd5b505050506040513d601f19601f820116820180604052508101906108f79190612e41565b905061099d565b600360009054906101000a900473ffffffffffffffffffffffffffffffffffffffff1673ffffffffffffffffffffffffffffffffffffffff166370a08231836040518263ffffffff1660e01b81526004016109599190612c0d565b602060405180830381865afa158015610976573d6000803e3d6000fd5b505050506040513d601f19601f8201168201806040525081019061099a9190612e41565b90505b919050565b6000808260000160208101906109b89190612a69565b8380602001906109c89190612e7d565b8580604001906109d89190612e7d565b6040516020016109ec959493929190612f58565b60405160208183030381529060405290508080519060200120915050919050565b600080610a198361116a565b9050610a2481611468565b915050919050565b610a34611257565b610a3e6000611483565b565b600360159054906101000a900460ff1681565b600080610a5f8361081f565b90506000610a9b8260016fffffffffffffffffffffffffffffffff610a849190612fc0565b6fffffffffffffffffffffffffffffffff16611547565b90508092505050919050565b610aaf611257565b610ab881611560565b50565b60008060009054906101000a900473ffffffffffffffffffffffffffffffffffffffff16905090565b6000610aef8261116a565b9050610afa81611468565b610b30576040517f8251df3000000000000000000000000000000000000000000000000000000000815260040160405180910390fd5b60046000838152602001908152602001600020600080820160009055600182016000905560028201600090556003820160006101000a81549060ff02191690555050817f6416014a86ec114bacabb2c8c9684a2d10450127746f184fd0da1de53e70b1ad60405160405180910390a25050565b6000600460008381526020019081526020016000209050610bc3816113d8565b15610bfa576040517fb8c39e6200000000000000000000000000000000000000000000000000000000815260040160405180910390fd5b610c04828261178b565b5050565b600080610c148361116a565b90506000610c21826111ca565b9050600380811115610c3657610c356125f8565b5b816003811115610c4957610c486125f8565b5b03610c5957600392505050610d4e565b60026003811115610c6d57610c6c6125f8565b5b816003811115610c8057610c7f6125f8565b5b03610d185760016002811115610c9957610c986125f8565b5b8260030160009054906101000a900460ff166002811115610cbd57610cbc6125f8565b5b1480610cfd5750600280811115610cd757610cd66125f8565b5b8260030160009054906101000a900460ff166002811115610cfb57610cfa6125f8565b5b145b15610d0d57600392505050610d4e565b600292505050610d4e565b610d2182611217565b15610d3157600092505050610d4e565b610d3a826112de565b610d4757610d46613004565b5b6001925050505b919050565b610d5b611257565b80600060146101000a81548167ffffffffffffffff021916908367ffffffffffffffff16021790555050565b600360009054906101000a900473ffffffffffffffffffffffffffffffffffffffff1681565b600060149054906101000a900467ffffffffffffffff1681565b610dcf611257565b80600160006101000a81548167ffffffffffffffff021916908367ffffffffffffffff16021790555050565b6000600460008681526020019081526020016000209050610e1b816113d8565b610e2a57610e29858261178b565b5b610e3581868661182b565b5050505050565b600080610e488361116a565b9050610e5381611c8a565b915050919050565b610e63611257565b80600360156101000a81548160ff021916908360ff16021790555050565b610e89611257565b600073ffffffffffffffffffffffffffffffffffffffff168173ffffffffffffffffffffffffffffffffffffffff1603610efb5760006040517f1e4fbdf7000000000000000000000000000000000000000000000000000000008152600401610ef29190612c0d565b60405180910390fd5b610f0481611483565b50565b600080610f13836109a2565b90506000610f208261116a565b905060026003811115610f3657610f356125f8565b5b610f3f826111ca565b6003811115610f5157610f506125f8565b5b14610f88576040517fc8c93ba300000000000000000000000000000000000000000000000000000000815260040160405180910390fd5b60006002811115610f9c57610f9b6125f8565b5b8160030160009054906101000a900460ff166002811115610fc057610fbf6125f8565b5b14610ff7576040517f51618d5300000000000000000000000000000000000000000000000000000000815260040160405180910390fd5b60008085600001602081019061100d9190612a69565b73ffffffffffffffffffffffffffffffffffffffff168680602001906110339190612e7d565b604051611041929190613033565b6000604051808303816000865af19150503d806000811461107e576040519150601f19603f3d011682016040523d82523d6000602084013e611083565b606091505b509150915081156110f857837fda66fcfe5711520a570ced34d4cdebbe652fe74713bf2bc9db4ba54357e5a96f826040516110be91906130ba565b60405180910390a260018360030160006101000a81548160ff021916908360028111156110ee576110ed6125f8565b5b021790555061115e565b837fd255d8a333980d77af4f9179384057def133983cb02db3e1fdb70c4dc14102e88260405161112891906130ba565b60405180910390a260028360030160006101000a81548160ff02191690836002811115611158576111576125f8565b5b02179055505b81945050505050919050565b60008060046000848152602001908152602001600020905061118b816113d8565b6111c1576040517fd9c78e0200000000000000000000000000000000000000000000000000000000815260040160405180910390fd5b80915050919050565b60006111d582611ceb565b156111f8576111e382611c8a565b6111ee5760026111f1565b60005b9050611212565b61120182611217565b61120c57600361120f565b60015b90505b919050565b60008082600001544261122a91906130dc565b9050600060149054906101000a900467ffffffffffffffff1667ffffffffffffffff168110915050919050565b61125f611d1d565b73ffffffffffffffffffffffffffffffffffffffff1661127d610abb565b73ffffffffffffffffffffffffffffffffffffffff16146112dc576112a0611d1d565b6040517f118cdaa70000000000000000000000000000000000000000000000000000000081526004016112d39190612c0d565b60405180910390fd5b565b6000808260000154426112f191906130dc565b9050600060149054906101000a900467ffffffffffffffff1667ffffffffffffffff1681101580156113635750600160009054906101000a900467ffffffffffffffff16600060149054906101000a900467ffffffffffffffff166113569190613110565b67ffffffffffffffff1681105b915050919050565b600080611377836111ca565b90506000600381111561138d5761138c6125f8565b5b8160038111156113a05761139f6125f8565b5b14806113d05750600160038111156113bb576113ba6125f8565b5b8160038111156113ce576113cd6125f8565b5b145b915050919050565b600080826000015414159050919050565b6113f1612519565b6000806114078486611d2590919063ffffffff16565b91509150816114545760405180604001604052806000600281111561142f5761142e6125f8565b5b815260200160006fffffffffffffffffffffffffffffffff1681525092505050611462565b61145d81611d74565b925050505b92915050565b600061147c82611477846111ca565b611e9b565b9050919050565b60008060009054906101000a900473ffffffffffffffffffffffffffffffffffffffff169050816000806101000a81548173ffffffffffffffffffffffffffffffffffffffff021916908373ffffffffffffffffffffffffffffffffffffffff1602179055508173ffffffffffffffffffffffffffffffffffffffff168173ffffffffffffffffffffffffffffffffffffffff167f8be0079c531659141344cd1fd0a4f28419497f9722a3daafe3b4186f6b6457e060405160405180910390a35050565b60008183106115565781611558565b825b905092915050565b60008190508173ffffffffffffffffffffffffffffffffffffffff166301ffc9a77f58970ca8000000000000000000000000000000000000000000000000000000006040518263ffffffff1660e01b81526004016115be9190613187565b602060405180830381865afa1580156115db573d6000803e3d6000fd5b505050506040513d601f19601f820116820180604052508101906115ff91906131ce565b15611634576000600360146101000a81548160ff0219169083600181111561162a576116296125f8565b5b0217905550611746565b60008173ffffffffffffffffffffffffffffffffffffffff166370a08231306040518263ffffffff1660e01b815260040161166f9190612c0d565b602060405180830381865afa15801561168c573d6000803e3d6000fd5b505050506040513d601f19601f820116820180604052508101906116b09190612e41565b9050600081101580156116e357507fffffffffffffffffffffffffffffffffffffffffffffffffffffffffffffffff8111155b611719576040517fadd3c86f00000000000000000000000000000000000000000000000000000000815260040160405180910390fd5b6001600360146101000a81548160ff0219169083600181111561173f5761173e6125f8565b5b0217905550505b80600360006101000a81548173ffffffffffffffffffffffffffffffffffffffff021916908373ffffffffffffffffffffffffffffffffffffffff1602179055505050565b600081600101541480156117a3575060008160020154145b80156117e45750600060028111156117be576117bd6125f8565b5b8160030160009054906101000a900460ff1660028111156117e2576117e16125f8565b5b145b6117f1576117f0613004565b5b428160000181905550817f288a29bca04edb18fcdb2c76d6e3b03b8a137c85c70d1a4cb8aacfa868d6051060405160405180910390a25050565b6000600560003373ffffffffffffffffffffffffffffffffffffffff1673ffffffffffffffffffffffffffffffffffffffff1681526020019081526020016000209050600061187a82856113e9565b90506000604051806040016040528085600281111561189c5761189b6125f8565b5b81526020016118aa33610a53565b6fffffffffffffffffffffffffffffffff1681525090506118cb8282611f4b565b15611913578160000151846040517f03ddd27900000000000000000000000000000000000000000000000000000000815260040161190a92919061320a565b60405180910390fd5b60016002811115611927576119266125f8565b5b8260000151600281111561193e5761193d6125f8565b5b036119795781602001516fffffffffffffffffffffffffffffffff1686600101600082825461196d91906130dc565b925050819055506119db565b60028081111561198c5761198b6125f8565b5b826000015160028111156119a3576119a26125f8565b5b036119da5781602001516fffffffffffffffffffffffffffffffff168660020160008282546119d291906130dc565b925050819055505b5b60006119e78487611fbb565b9050600160028111156119fd576119fc6125f8565b5b82600001516002811115611a1457611a136125f8565b5b03611ad957611a2287611217565b611a58576040517f6d47005400000000000000000000000000000000000000000000000000000000815260040160405180910390fd5b600360159054906101000a900460ff1660ff168110611aa3576040517f48d8fc9400000000000000000000000000000000000000000000000000000000815260040160405180910390fd5b81602001516fffffffffffffffffffffffffffffffff16876001016000828254611acd9190613233565b92505081905550611bb0565b600280811115611aec57611aeb6125f8565b5b82600001516002811115611b0357611b026125f8565b5b03611b7d57611b118761136b565b611b47576040517f0de09f8100000000000000000000000000000000000000000000000000000000815260040160405180910390fd5b81602001516fffffffffffffffffffffffffffffffff16876002016000828254611b719190613233565b92505081905550611baf565b6040517fd5dd0c6600000000000000000000000000000000000000000000000000000000815260040160405180910390fd5b5b611bbb84878461216f565b600082602001516fffffffffffffffffffffffffffffffff1603611c31573373ffffffffffffffffffffffffffffffffffffffff16867f60921de1a934e80af973d90edbca67a078f0dc03d7385b9031ff925b3a2ab8208460000151604051611c249190613267565b60405180910390a3611c81565b3373ffffffffffffffffffffffffffffffffffffffff16867fcd907020340d41d9b3fb53725f52264110fc156b0059b7817f4fe29f25a96cef84604051611c789190612a4e565b60405180910390a35b50505050505050565b600080826000015442611c9d91906130dc565b9050600160009054906101000a900467ffffffffffffffff16600060149054906101000a900467ffffffffffffffff16611cd79190613110565b67ffffffffffffffff168110915050919050565b6000816001015460028360020154611d039190613282565b108015611d165750600254826001015410155b9050919050565b600033905090565b60008060008460020160008581526020019081526020016000205490506000801b8103611d6457611d568585612192565b6000801b9250925050611d6d565b60018192509250505b9250929050565b611d7c612519565b60008260801c905060016fffffffffffffffffffffffffffffffff611da19190612fc0565b6fffffffffffffffffffffffffffffffff16816fffffffffffffffffffffffffffffffff161115611dd557611dd4613004565b5b6000608084901c60f81c60ff166002811115611df457611df36125f8565b5b905060016002811115611e0a57611e096125f8565b5b816002811115611e1d57611e1c6125f8565b5b1480611e4c5750600280811115611e3757611e366125f8565b5b816002811115611e4a57611e496125f8565b5b145b611e5957611e58613004565b5b6040518060400160405280826002811115611e7757611e766125f8565b5b8152602001836fffffffffffffffffffffffffffffffff1681525092505050919050565b6000600380811115611eb057611eaf6125f8565b5b826003811115611ec357611ec26125f8565b5b1480611f04575060016002811115611ede57611edd6125f8565b5b8360030160009054906101000a900460ff166002811115611f0257611f016125f8565b5b145b80611f435750600280811115611f1d57611f1c6125f8565b5b8360030160009054906101000a900460ff166002811115611f4157611f406125f8565b5b145b905092915050565b600081600001516002811115611f6457611f636125f8565b5b83600001516002811115611f7b57611f7a6125f8565b5b148015611fb3575081602001516fffffffffffffffffffffffffffffffff1683602001516fffffffffffffffffffffffffffffffff16145b905092915050565b600080611fc7846121b2565b905060008167ffffffffffffffff811115611fe557611fe46132c4565b5b6040519080825280602002602001820160405280156120135781602001602082028036833780820191505090505b50905060008060005b8481101561211a5760008061203a838b6121c790919063ffffffff16565b9150915060008290506000600460008381526020019081526020016000209050612063816113d8565b1580612074575061207381611468565b5b156120ad578188888151811061208d5761208c6132f3565b5b6020026020010181815250506001876120a69190613233565b9650612109565b60006120b884611d74565b9050600160028111156120ce576120cd6125f8565b5b816000015160028111156120e5576120e46125f8565b5b1480156120f257508b8314155b15612107576001876121049190613233565b96505b505b50505050808060010191505061201c565b5060005b828110156121615761215384828151811061213c5761213b6132f3565b5b60200260200101518961220790919063ffffffff16565b50808060010191505061211e565b508094505050505092915050565b61218c8261217c83612240565b8561228a9092919063ffffffff16565b50505050565b60006121aa82846000016122c590919063ffffffff16565b905092915050565b60006121c0826000016122dc565b9050919050565b60008060006121e284866000016122f190919063ffffffff16565b9050808560020160008381526020019081526020016000205492509250509250929050565b600082600201600083815260200190815260200160002060009055612238828460000161230890919063ffffffff16565b905092915050565b600080826020015190506000816fffffffffffffffffffffffffffffffff16608085600001516002811115612278576122776125f8565b5b901b1790508060001b92505050919050565b600081846002016000858152602001908152602001600020819055506122bc838560000161231f90919063ffffffff16565b90509392505050565b60006122d48360000183612336565b905092915050565b60006122ea82600001612359565b9050919050565b6000612300836000018361236a565b905092915050565b60006123178360000183612395565b905092915050565b600061232e83600001836124a9565b905092915050565b600080836001016000848152602001908152602001600020541415905092915050565b600081600001805490509050919050565b6000826000018281548110612382576123816132f3565b5b9060005260206000200154905092915050565b6000808360010160008481526020019081526020016000205490506000811461249d5760006001826123c791906130dc565b90506000600186600001805490506123df91906130dc565b905080821461244e576000866000018281548110612400576123ff6132f3565b5b9060005260206000200154905080876000018481548110612424576124236132f3565b5b90600052602060002001819055508387600101600083815260200190815260200160002081905550505b8560000180548061246257612461613322565b5b6001900381819060005260206000200160009055905585600101600086815260200190815260200160002060009055600193505050506124a3565b60009150505b92915050565b60006124b58383612336565b61250e578260000182908060018154018082558091505060019003906000526020600020016000909190919091505582600001805490508360010160008481526020019081526020016000208190555060019050612513565b600090505b92915050565b604051806040016040528060006002811115612538576125376125f8565b5b815260200160006fffffffffffffffffffffffffffffffff1681525090565b6000819050919050565b61256a81612557565b82525050565b60006020820190506125856000830184612561565b92915050565b600080fd5b600080fd5b6000819050919050565b6125a881612595565b81146125b357600080fd5b50565b6000813590506125c58161259f565b92915050565b6000602082840312156125e1576125e061258b565b5b60006125ef848285016125b6565b91505092915050565b7f4e487b7100000000000000000000000000000000000000000000000000000000600052602160045260246000fd5b60048110612638576126376125f8565b5b50565b600081905061264982612627565b919050565b60006126598261263b565b9050919050565b6126698161264e565b82525050565b60006020820190506126846000830184612660565b92915050565b600067ffffffffffffffff82169050919050565b6126a78161268a565b82525050565b60006020820190506126c2600083018461269e565b92915050565b60008115159050919050565b6126dd816126c8565b82525050565b60006020820190506126f860008301846126d4565b92915050565b600060ff82169050919050565b612714816126fe565b811461271f57600080fd5b50565b6000813590506127318161270b565b92915050565b600080fd5b600080fd5b600080fd5b60008083601f84011261275c5761275b612737565b5b8235905067ffffffffffffffff8111156127795761277861273c565b5b60208301915083600182028301111561279557612794612741565b5b9250929050565b6000806000604084860312156127b5576127b461258b565b5b60006127c386828701612722565b935050602084013567ffffffffffffffff8111156127e4576127e3612590565b5b6127f086828701612746565b92509250509250925092565b61280581612557565b811461281057600080fd5b50565b600081359050612822816127fc565b92915050565b60006020828403121561283e5761283d61258b565b5b600061284c84828501612813565b91505092915050565b60038110612866576128656125f8565b5b50565b600081905061287782612855565b919050565b600061288782612869565b9050919050565b6128978161287c565b82525050565b60006080820190506128b26000830187612561565b6128bf6020830186612561565b6128cc6040830185612561565b6128d9606083018461288e565b95945050505050565b600073ffffffffffffffffffffffffffffffffffffffff82169050919050565b600061290d826128e2565b9050919050565b61291d81612902565b811461292857600080fd5b50565b60008135905061293a81612914565b92915050565b600080604083850312156129575761295661258b565b5b6000612965858286016125b6565b92505060206129768582860161292b565b9150509250929050565b60038110612991576129906125f8565b5b50565b60008190506129a282612980565b919050565b60006129b282612994565b9050919050565b6129c2816129a7565b82525050565b60006fffffffffffffffffffffffffffffffff82169050919050565b6000819050919050565b6000612a09612a046129ff846129c8565b6129e4565b6129c8565b9050919050565b612a19816129ee565b82525050565b604082016000820151612a3560008501826129b9565b506020820151612a486020850182612a10565b50505050565b6000604082019050612a636000830184612a1f565b92915050565b600060208284031215612a7f57612a7e61258b565b5b6000612a8d8482850161292b565b91505092915050565b600080fd5b600060608284031215612ab157612ab0612a96565b5b81905092915050565b600060208284031215612ad057612acf61258b565b5b600082013567ffffffffffffffff811115612aee57612aed612590565b5b612afa84828501612a9b565b91505092915050565b6000612b0e82612595565b9050919050565b612b1e81612b03565b82525050565b6000602082019050612b396000830184612b15565b92915050565b612b48816126fe565b82525050565b6000602082019050612b636000830184612b3f565b92915050565b612b72816129ee565b82525050565b6000602082019050612b8d6000830184612b69565b92915050565b6000612b9e82612902565b9050919050565b612bae81612b93565b8114612bb957600080fd5b50565b600081359050612bcb81612ba5565b92915050565b600060208284031215612be757612be661258b565b5b6000612bf584828501612bbc565b91505092915050565b612c0781612902565b82525050565b6000602082019050612c226000830184612bfe565b92915050565b60048110612c3957612c386125f8565b5b50565b6000819050612c4a82612c28565b919050565b6000612c5a82612c3c565b9050919050565b612c6a81612c4f565b82525050565b6000602082019050612c856000830184612c61565b92915050565b612c948161268a565b8114612c9f57600080fd5b50565b600081359050612cb181612c8b565b92915050565b600060208284031215612ccd57612ccc61258b565b5b6000612cdb84828501612ca2565b91505092915050565b60038110612cf157600080fd5b50565b600081359050612d0381612ce4565b92915050565b60008060008060608587031215612d2357612d2261258b565b5b6000612d31878288016125b6565b9450506020612d4287828801612cf4565b935050604085013567ffffffffffffffff811115612d6357612d62612590565b5b612d6f87828801612746565b925092505092959194509250565b600060208284031215612d9357612d9261258b565b5b6000612da184828501612722565b91505092915050565b600082825260208201905092915050565b82818337600083830152505050565b6000601f19601f8301169050919050565b6000612de78385612daa565b9350612df4838584612dbb565b612dfd83612dca565b840190509392505050565b60006020820190508181036000830152612e23818486612ddb565b90509392505050565b600081519050612e3b816127fc565b92915050565b600060208284031215612e5757612e5661258b565b5b6000612e6584828501612e2c565b91505092915050565b600080fd5b600080fd5b600080fd5b60008083356001602003843603038112612e9a57612e99612e6e565b5b80840192508235915067ffffffffffffffff821115612ebc57612ebb612e73565b5b602083019250600182023603831315612ed857612ed7612e78565b5b509250929050565b60008160601b9050919050565b6000612ef882612ee0565b9050919050565b6000612f0a82612eed565b9050919050565b612f22612f1d82612902565b612eff565b82525050565b600081905092915050565b6000612f3f8385612f28565b9350612f4c838584612dbb565b82840190509392505050565b6000612f648288612f11565b601482019150612f75828688612f33565b9150612f82828486612f33565b91508190509695505050505050565b7f4e487b7100000000000000000000000000000000000000000000000000000000600052601160045260246000fd5b6000612fcb826129c8565b9150612fd6836129c8565b925082820390506fffffffffffffffffffffffffffffffff811115612ffe57612ffd612f91565b5b92915050565b7f4e487b7100000000000000000000000000000000000000000000000000000000600052600160045260246000fd5b6000613040828486612f33565b91508190509392505050565b600081519050919050565b60005b8381101561307557808201518184015260208101905061305a565b60008484015250505050565b600061308c8261304c565b6130968185612daa565b93506130a6818560208601613057565b6130af81612dca565b840191505092915050565b600060208201905081810360008301526130d48184613081565b905092915050565b60006130e782612557565b91506130f283612557565b925082820390508181111561310a57613109612f91565b5b92915050565b600061311b8261268a565b91506131268361268a565b9250828201905067ffffffffffffffff81111561314657613145612f91565b5b92915050565b60007fffffffff0000000000000000000000000000000000000000000000000000000082169050919050565b6131818161314c565b82525050565b600060208201905061319c6000830184613178565b92915050565b6131ab816126c8565b81146131b657600080fd5b50565b6000815190506131c8816131a2565b92915050565b6000602082840312156131e4576131e361258b565b5b60006131f2848285016131b9565b91505092915050565b613204816129a7565b82525050565b600060408201905061321f60008301856131fb565b61322c60208301846131fb565b9392505050565b600061323e82612557565b915061324983612557565b925082820190508082111561326157613260612f91565b5b92915050565b600060208201905061327c60008301846131fb565b92915050565b600061328d82612557565b915061329883612557565b92508282026132a681612557565b915082820484148315176132bd576132bc612f91565b5b5092915050565b7f4e487b7100000000000000000000000000000000000000000000000000000000600052604160045260246000fd5b7f4e487b7100000000000000000000000000000000000000000000000000000000600052603260045260246000fd5b7f4e487b7100000000000000000000000000000000000000000000000000000000600052603160045260246000fdfea26469706673582212206aebb0a7e00a341d60303f0940d3a14b0a8471311603d44aef7b66dcb3caf6ea64736f6c63430008180033","opcodes":"PUSH1 0x80 PUSH1 0x40 MSTORE PUSH3 0x15180 PUSH1 0x0 PUSH1 0x14 PUSH2 0x100 EXP DUP2 SLOAD DUP2 PUSH8 0xFFFFFFFFFFFFFFFF MUL NOT AND SWAP1 DUP4 PUSH8 0xFFFFFFFFFFFFFFFF AND MUL OR SWAP1 SSTORE POP PUSH3 0x7E900 PUSH1 0x1 PUSH1 0x0 PUSH2 0x100 EXP DUP2 SLOAD DUP2 PUSH8 0xFFFFFFFFFFFFFFFF MUL NOT AND SWAP1 DUP4 PUSH8 0xFFFFFFFFFFFFFFFF AND MUL OR SWAP1 SSTORE POP PUSH2 0x100 PUSH1 0x2 SSTORE CALLVALUE DUP1 ISZERO PUSH3 0x6F JUMPI PUSH1 0x0 DUP1 REVERT JUMPDEST POP PUSH1 0x40 MLOAD PUSH3 0x3B63 CODESIZE SUB DUP1 PUSH3 0x3B63 DUP4 CODECOPY DUP2 DUP2 ADD PUSH1 0x40 MSTORE DUP2 ADD SWAP1 PUSH3 0x95 SWAP2 SWAP1 PUSH3 0x5EC JUMP JUMPDEST ADDRESS PUSH1 0x0 PUSH20 0xFFFFFFFFFFFFFFFFFFFFFFFFFFFFFFFFFFFFFFFF AND DUP2 PUSH20 0xFFFFFFFFFFFFFFFFFFFFFFFFFFFFFFFFFFFFFFFF AND SUB PUSH3 0x10B JUMPI PUSH1 0x0 PUSH1 0x40 MLOAD PUSH32 0x1E4FBDF700000000000000000000000000000000000000000000000000000000 DUP2 MSTORE PUSH1 0x4 ADD PUSH3 0x102 SWAP2 SWAP1 PUSH3 0x685 JUMP JUMPDEST PUSH1 0x40 MLOAD DUP1 SWAP2 SUB SWAP1 REVERT JUMPDEST PUSH3 0x11C DUP2 PUSH3 0x1AD PUSH1 0x20 SHL PUSH1 0x20 SHR JUMP JUMPDEST POP PUSH3 0x12E DUP6 PUSH3 0x271 PUSH1 0x20 SHL PUSH1 0x20 SHR JUMP JUMPDEST DUP4 PUSH1 0x0 PUSH1 0x14 PUSH2 0x100 EXP DUP2 SLOAD DUP2 PUSH8 0xFFFFFFFFFFFFFFFF MUL NOT AND SWAP1 DUP4 PUSH8 0xFFFFFFFFFFFFFFFF AND MUL OR SWAP1 SSTORE POP DUP3 PUSH1 0x1 PUSH1 0x0 PUSH2 0x100 EXP DUP2 SLOAD DUP2 PUSH8 0xFFFFFFFFFFFFFFFF MUL NOT AND SWAP1 DUP4 PUSH8 0xFFFFFFFFFFFFFFFF AND MUL OR SWAP1 SSTORE POP DUP2 PUSH1 0x2 DUP2 SWAP1 SSTORE POP DUP1 PUSH1 0x3 PUSH1 0x15 PUSH2 0x100 EXP DUP2 SLOAD DUP2 PUSH1 0xFF MUL NOT AND SWAP1 DUP4 PUSH1 0xFF AND MUL OR SWAP1 SSTORE POP POP POP POP POP POP PUSH3 0x7CC JUMP JUMPDEST PUSH1 0x0 DUP1 PUSH1 0x0 SWAP1 SLOAD SWAP1 PUSH2 0x100 EXP SWAP1 DIV PUSH20 0xFFFFFFFFFFFFFFFFFFFFFFFFFFFFFFFFFFFFFFFF AND SWAP1 POP DUP2 PUSH1 0x0 DUP1 PUSH2 0x100 EXP DUP2 SLOAD DUP2 PUSH20 0xFFFFFFFFFFFFFFFFFFFFFFFFFFFFFFFFFFFFFFFF MUL NOT AND SWAP1 DUP4 PUSH20 0xFFFFFFFFFFFFFFFFFFFFFFFFFFFFFFFFFFFFFFFF AND MUL OR SWAP1 SSTORE POP DUP2 PUSH20 0xFFFFFFFFFFFFFFFFFFFFFFFFFFFFFFFFFFFFFFFF AND DUP2 PUSH20 0xFFFFFFFFFFFFFFFFFFFFFFFFFFFFFFFFFFFFFFFF AND PUSH32 0x8BE0079C531659141344CD1FD0A4F28419497F9722A3DAAFE3B4186F6B6457E0 PUSH1 0x40 MLOAD PUSH1 0x40 MLOAD DUP1 SWAP2 SUB SWAP1 LOG3 POP POP JUMP JUMPDEST PUSH1 0x0 DUP2 SWAP1 POP DUP2 PUSH20 0xFFFFFFFFFFFFFFFFFFFFFFFFFFFFFFFFFFFFFFFF AND PUSH4 0x1FFC9A7 PUSH32 0x58970CA800000000000000000000000000000000000000000000000000000000 PUSH1 0x40 MLOAD DUP3 PUSH4 0xFFFFFFFF AND PUSH1 0xE0 SHL DUP2 MSTORE PUSH1 0x4 ADD PUSH3 0x2D1 SWAP2 SWAP1 PUSH3 0x6DF JUMP JUMPDEST PUSH1 0x20 PUSH1 0x40 MLOAD DUP1 DUP4 SUB DUP2 DUP7 GAS STATICCALL ISZERO DUP1 ISZERO PUSH3 0x2EF JUMPI RETURNDATASIZE PUSH1 0x0 DUP1 RETURNDATACOPY RETURNDATASIZE PUSH1 0x0 REVERT JUMPDEST POP POP POP POP PUSH1 0x40 MLOAD RETURNDATASIZE PUSH1 0x1F NOT PUSH1 0x1F DUP3 ADD AND DUP3 ADD DUP1 PUSH1 0x40 MSTORE POP DUP2 ADD SWAP1 PUSH3 0x315 SWAP2 SWAP1 PUSH3 0x739 JUMP JUMPDEST ISZERO PUSH3 0x34F JUMPI PUSH1 0x0 PUSH1 0x3 PUSH1 0x14 PUSH2 0x100 EXP DUP2 SLOAD DUP2 PUSH1 0xFF MUL NOT AND SWAP1 DUP4 PUSH1 0x1 DUP2 GT ISZERO PUSH3 0x344 JUMPI PUSH3 0x343 PUSH3 0x76B JUMP JUMPDEST JUMPDEST MUL OR SWAP1 SSTORE POP PUSH3 0x46B JUMP JUMPDEST PUSH1 0x0 DUP2 PUSH20 0xFFFFFFFFFFFFFFFFFFFFFFFFFFFFFFFFFFFFFFFF AND PUSH4 0x70A08231 ADDRESS PUSH1 0x40 MLOAD DUP3 PUSH4 0xFFFFFFFF AND PUSH1 0xE0 SHL DUP2 MSTORE PUSH1 0x4 ADD PUSH3 0x38C SWAP2 SWAP1 PUSH3 0x685 JUMP JUMPDEST PUSH1 0x20 PUSH1 0x40 MLOAD DUP1 DUP4 SUB DUP2 DUP7 GAS STATICCALL ISZERO DUP1 ISZERO PUSH3 0x3AA JUMPI RETURNDATASIZE PUSH1 0x0 DUP1 RETURNDATACOPY RETURNDATASIZE PUSH1 0x0 REVERT JUMPDEST POP POP POP POP PUSH1 0x40 MLOAD RETURNDATASIZE PUSH1 0x1F NOT PUSH1 0x1F DUP3 ADD AND DUP3 ADD DUP1 PUSH1 0x40 MSTORE POP DUP2 ADD SWAP1 PUSH3 0x3D0 SWAP2 SWAP1 PUSH3 0x79A JUMP JUMPDEST SWAP1 POP PUSH1 0x0 DUP2 LT ISZERO DUP1 ISZERO PUSH3 0x404 JUMPI POP PUSH32 0xFFFFFFFFFFFFFFFFFFFFFFFFFFFFFFFFFFFFFFFFFFFFFFFFFFFFFFFFFFFFFFFF DUP2 GT ISZERO JUMPDEST PUSH3 0x43B JUMPI PUSH1 0x40 MLOAD PUSH32 0xADD3C86F00000000000000000000000000000000000000000000000000000000 DUP2 MSTORE PUSH1 0x4 ADD PUSH1 0x40 MLOAD DUP1 SWAP2 SUB SWAP1 REVERT JUMPDEST PUSH1 0x1 PUSH1 0x3 PUSH1 0x14 PUSH2 0x100 EXP DUP2 SLOAD DUP2 PUSH1 0xFF MUL NOT AND SWAP1 DUP4 PUSH1 0x1 DUP2 GT ISZERO PUSH3 0x464 JUMPI PUSH3 0x463 PUSH3 0x76B JUMP JUMPDEST JUMPDEST MUL OR SWAP1 SSTORE POP POP JUMPDEST DUP1 PUSH1 0x3 PUSH1 0x0 PUSH2 0x100 EXP DUP2 SLOAD DUP2 PUSH20 0xFFFFFFFFFFFFFFFFFFFFFFFFFFFFFFFFFFFFFFFF MUL NOT AND SWAP1 DUP4 PUSH20 0xFFFFFFFFFFFFFFFFFFFFFFFFFFFFFFFFFFFFFFFF AND MUL OR SWAP1 SSTORE POP POP POP JUMP JUMPDEST PUSH1 0x0 DUP1 REVERT JUMPDEST PUSH1 0x0 PUSH20 0xFFFFFFFFFFFFFFFFFFFFFFFFFFFFFFFFFFFFFFFF DUP3 AND SWAP1 POP SWAP2 SWAP1 POP JUMP JUMPDEST PUSH1 0x0 PUSH3 0x4E2 DUP3 PUSH3 0x4B5 JUMP JUMPDEST SWAP1 POP SWAP2 SWAP1 POP JUMP JUMPDEST PUSH1 0x0 PUSH3 0x4F6 DUP3 PUSH3 0x4D5 JUMP JUMPDEST SWAP1 POP SWAP2 SWAP1 POP JUMP JUMPDEST PUSH3 0x508 DUP2 PUSH3 0x4E9 JUMP JUMPDEST DUP2 EQ PUSH3 0x514 JUMPI PUSH1 0x0 DUP1 REVERT JUMPDEST POP JUMP JUMPDEST PUSH1 0x0 DUP2 MLOAD SWAP1 POP PUSH3 0x528 DUP2 PUSH3 0x4FD JUMP JUMPDEST SWAP3 SWAP2 POP POP JUMP JUMPDEST PUSH1 0x0 PUSH8 0xFFFFFFFFFFFFFFFF DUP3 AND SWAP1 POP SWAP2 SWAP1 POP JUMP JUMPDEST PUSH3 0x54D DUP2 PUSH3 0x52E JUMP JUMPDEST DUP2 EQ PUSH3 0x559 JUMPI PUSH1 0x0 DUP1 REVERT JUMPDEST POP JUMP JUMPDEST PUSH1 0x0 DUP2 MLOAD SWAP1 POP PUSH3 0x56D DUP2 PUSH3 0x542 JUMP JUMPDEST SWAP3 SWAP2 POP POP JUMP JUMPDEST PUSH1 0x0 DUP2 SWAP1 POP SWAP2 SWAP1 POP JUMP JUMPDEST PUSH3 0x588 DUP2 PUSH3 0x573 JUMP JUMPDEST DUP2 EQ PUSH3 0x594 JUMPI PUSH1 0x0 DUP1 REVERT JUMPDEST POP JUMP JUMPDEST PUSH1 0x0 DUP2 MLOAD SWAP1 POP PUSH3 0x5A8 DUP2 PUSH3 0x57D JUMP JUMPDEST SWAP3 SWAP2 POP POP JUMP JUMPDEST PUSH1 0x0 PUSH1 0xFF DUP3 AND SWAP1 POP SWAP2 SWAP1 POP JUMP JUMPDEST PUSH3 0x5C6 DUP2 PUSH3 0x5AE JUMP JUMPDEST DUP2 EQ PUSH3 0x5D2 JUMPI PUSH1 0x0 DUP1 REVERT JUMPDEST POP JUMP JUMPDEST PUSH1 0x0 DUP2 MLOAD SWAP1 POP PUSH3 0x5E6 DUP2 PUSH3 0x5BB JUMP JUMPDEST SWAP3 SWAP2 POP POP JUMP JUMPDEST PUSH1 0x0 DUP1 PUSH1 0x0 DUP1 PUSH1 0x0 PUSH1 0xA0 DUP7 DUP9 SUB SLT ISZERO PUSH3 0x60B JUMPI PUSH3 0x60A PUSH3 0x4B0 JUMP JUMPDEST JUMPDEST PUSH1 0x0 PUSH3 0x61B DUP9 DUP3 DUP10 ADD PUSH3 0x517 JUMP JUMPDEST SWAP6 POP POP PUSH1 0x20 PUSH3 0x62E DUP9 DUP3 DUP10 ADD PUSH3 0x55C JUMP JUMPDEST SWAP5 POP POP PUSH1 0x40 PUSH3 0x641 DUP9 DUP3 DUP10 ADD PUSH3 0x55C JUMP JUMPDEST SWAP4 POP POP PUSH1 0x60 PUSH3 0x654 DUP9 DUP3 DUP10 ADD PUSH3 0x597 JUMP JUMPDEST SWAP3 POP POP PUSH1 0x80 PUSH3 0x667 DUP9 DUP3 DUP10 ADD PUSH3 0x5D5 JUMP JUMPDEST SWAP2 POP POP SWAP3 SWAP6 POP SWAP3 SWAP6 SWAP1 SWAP4 POP JUMP JUMPDEST PUSH3 0x67F DUP2 PUSH3 0x4D5 JUMP JUMPDEST DUP3 MSTORE POP POP JUMP JUMPDEST PUSH1 0x0 PUSH1 0x20 DUP3 ADD SWAP1 POP PUSH3 0x69C PUSH1 0x0 DUP4 ADD DUP5 PUSH3 0x674 JUMP JUMPDEST SWAP3 SWAP2 POP POP JUMP JUMPDEST PUSH1 0x0 PUSH32 0xFFFFFFFF00000000000000000000000000000000000000000000000000000000 DUP3 AND SWAP1 POP SWAP2 SWAP1 POP JUMP JUMPDEST PUSH3 0x6D9 DUP2 PUSH3 0x6A2 JUMP JUMPDEST DUP3 MSTORE POP POP JUMP JUMPDEST PUSH1 0x0 PUSH1 0x20 DUP3 ADD SWAP1 POP PUSH3 0x6F6 PUSH1 0x0 DUP4 ADD DUP5 PUSH3 0x6CE JUMP JUMPDEST SWAP3 SWAP2 POP POP JUMP JUMPDEST PUSH1 0x0 DUP2 ISZERO ISZERO SWAP1 POP SWAP2 SWAP1 POP JUMP JUMPDEST PUSH3 0x713 DUP2 PUSH3 0x6FC JUMP JUMPDEST DUP2 EQ PUSH3 0x71F JUMPI PUSH1 0x0 DUP1 REVERT JUMPDEST POP JUMP JUMPDEST PUSH1 0x0 DUP2 MLOAD SWAP1 POP PUSH3 0x733 DUP2 PUSH3 0x708 JUMP JUMPDEST SWAP3 SWAP2 POP POP JUMP JUMPDEST PUSH1 0x0 PUSH1 0x20 DUP3 DUP5 SUB SLT ISZERO PUSH3 0x752 JUMPI PUSH3 0x751 PUSH3 0x4B0 JUMP JUMPDEST JUMPDEST PUSH1 0x0 PUSH3 0x762 DUP5 DUP3 DUP6 ADD PUSH3 0x722 JUMP JUMPDEST SWAP2 POP POP SWAP3 SWAP2 POP POP JUMP JUMPDEST PUSH32 0x4E487B7100000000000000000000000000000000000000000000000000000000 PUSH1 0x0 MSTORE PUSH1 0x21 PUSH1 0x4 MSTORE PUSH1 0x24 PUSH1 0x0 REVERT JUMPDEST PUSH1 0x0 PUSH1 0x20 DUP3 DUP5 SUB SLT ISZERO PUSH3 0x7B3 JUMPI PUSH3 0x7B2 PUSH3 0x4B0 JUMP JUMPDEST JUMPDEST PUSH1 0x0 PUSH3 0x7C3 DUP5 DUP3 DUP6 ADD PUSH3 0x597 JUMP JUMPDEST SWAP2 POP POP SWAP3 SWAP2 POP POP JUMP JUMPDEST PUSH2 0x3387 DUP1 PUSH3 0x7DC PUSH1 0x0 CODECOPY PUSH1 0x0 RETURN INVALID PUSH1 0x80 PUSH1 0x40 MSTORE CALLVALUE DUP1 ISZERO PUSH2 0x10 JUMPI PUSH1 0x0 DUP1 REVERT JUMPDEST POP PUSH1 0x4 CALLDATASIZE LT PUSH2 0x1E5 JUMPI PUSH1 0x0 CALLDATALOAD PUSH1 0xE0 SHR DUP1 PUSH4 0x7ABD7A0A GT PUSH2 0x10F JUMPI DUP1 PUSH4 0xBE142264 GT PUSH2 0xA2 JUMPI DUP1 PUSH4 0xD8CF3528 GT PUSH2 0x71 JUMPI DUP1 PUSH4 0xD8CF3528 EQ PUSH2 0x5CB JUMPI DUP1 PUSH4 0xE89075C7 EQ PUSH2 0x5FB JUMPI DUP1 PUSH4 0xF2FDE38B EQ PUSH2 0x617 JUMPI DUP1 PUSH4 0xFD165A73 EQ PUSH2 0x633 JUMPI PUSH2 0x1E5 JUMP JUMPDEST DUP1 PUSH4 0xBE142264 EQ PUSH2 0x557 JUMPI DUP1 PUSH4 0xCB156A4A EQ PUSH2 0x575 JUMPI DUP1 PUSH4 0xCE5B3B39 EQ PUSH2 0x593 JUMPI DUP1 PUSH4 0xD50B2843 EQ PUSH2 0x5AF JUMPI PUSH2 0x1E5 JUMP JUMPDEST DUP1 PUSH4 0x95BC2673 GT PUSH2 0xDE JUMPI DUP1 PUSH4 0x95BC2673 EQ PUSH2 0x4D3 JUMPI DUP1 PUSH4 0x99882CDB EQ PUSH2 0x4EF JUMPI DUP1 PUSH4 0xAE844F74 EQ PUSH2 0x50B JUMPI DUP1 PUSH4 0xBD5AB94F EQ PUSH2 0x53B JUMPI PUSH2 0x1E5 JUMP JUMPDEST DUP1 PUSH4 0x7ABD7A0A EQ PUSH2 0x44B JUMPI DUP1 PUSH4 0x7FB8B61E EQ PUSH2 0x469 JUMPI DUP1 PUSH4 0x8C7ECF8D EQ PUSH2 0x499 JUMPI DUP1 PUSH4 0x8DA5CB5B EQ PUSH2 0x4B5 JUMPI PUSH2 0x1E5 JUMP JUMPDEST DUP1 PUSH4 0x32ED5B12 GT PUSH2 0x187 JUMPI DUP1 PUSH4 0x58970CA8 GT PUSH2 0x156 JUMPI DUP1 PUSH4 0x58970CA8 EQ PUSH2 0x3B1 JUMPI DUP1 PUSH4 0x5B4654A9 EQ PUSH2 0x3E1 JUMPI DUP1 PUSH4 0x6DB2FEB2 EQ PUSH2 0x411 JUMPI DUP1 PUSH4 0x715018A6 EQ PUSH2 0x441 JUMPI PUSH2 0x1E5 JUMP JUMPDEST DUP1 PUSH4 0x32ED5B12 EQ PUSH2 0x2EE JUMPI DUP1 PUSH4 0x40A27ABC EQ PUSH2 0x321 JUMPI DUP1 PUSH4 0x4410A944 EQ PUSH2 0x351 JUMPI DUP1 PUSH4 0x4CC74011 EQ PUSH2 0x381 JUMPI PUSH2 0x1E5 JUMP JUMPDEST DUP1 PUSH4 0x12007FC9 GT PUSH2 0x1C3 JUMPI DUP1 PUSH4 0x12007FC9 EQ PUSH2 0x256 JUMPI DUP1 PUSH4 0x141D51CB EQ PUSH2 0x286 JUMPI DUP1 PUSH4 0x20CEA51A EQ PUSH2 0x2A2 JUMPI DUP1 PUSH4 0x272D16F2 EQ PUSH2 0x2BE JUMPI PUSH2 0x1E5 JUMP JUMPDEST DUP1 PUSH4 0xC2EE55E EQ PUSH2 0x1EA JUMPI DUP1 PUSH4 0xCFE734D EQ PUSH2 0x208 JUMPI DUP1 PUSH4 0xEE572FD EQ PUSH2 0x238 JUMPI JUMPDEST PUSH1 0x0 DUP1 REVERT JUMPDEST PUSH2 0x1F2 PUSH2 0x663 JUMP JUMPDEST PUSH1 0x40 MLOAD PUSH2 0x1FF SWAP2 SWAP1 PUSH2 0x2570 JUMP JUMPDEST PUSH1 0x40 MLOAD DUP1 SWAP2 SUB SWAP1 RETURN JUMPDEST PUSH2 0x222 PUSH1 0x4 DUP1 CALLDATASIZE SUB DUP2 ADD SWAP1 PUSH2 0x21D SWAP2 SWAP1 PUSH2 0x25CB JUMP JUMPDEST PUSH2 0x669 JUMP JUMPDEST PUSH1 0x40 MLOAD PUSH2 0x22F SWAP2 SWAP1 PUSH2 0x266F JUMP JUMPDEST PUSH1 0x40 MLOAD DUP1 SWAP2 SUB SWAP1 RETURN JUMPDEST PUSH2 0x240 PUSH2 0x688 JUMP JUMPDEST PUSH1 0x40 MLOAD PUSH2 0x24D SWAP2 SWAP1 PUSH2 0x26AD JUMP JUMPDEST PUSH1 0x40 MLOAD DUP1 SWAP2 SUB SWAP1 RETURN JUMPDEST PUSH2 0x270 PUSH1 0x4 DUP1 CALLDATASIZE SUB DUP2 ADD SWAP1 PUSH2 0x26B SWAP2 SWAP1 PUSH2 0x25CB JUMP JUMPDEST PUSH2 0x6A2 JUMP JUMPDEST PUSH1 0x40 MLOAD PUSH2 0x27D SWAP2 SWAP1 PUSH2 0x26E3 JUMP JUMPDEST PUSH1 0x40 MLOAD DUP1 SWAP2 SUB SWAP1 RETURN JUMPDEST PUSH2 0x2A0 PUSH1 0x4 DUP1 CALLDATASIZE SUB DUP2 ADD SWAP1 PUSH2 0x29B SWAP2 SWAP1 PUSH2 0x279C JUMP JUMPDEST PUSH2 0x6C1 JUMP JUMPDEST STOP JUMPDEST PUSH2 0x2BC PUSH1 0x4 DUP1 CALLDATASIZE SUB DUP2 ADD SWAP1 PUSH2 0x2B7 SWAP2 SWAP1 PUSH2 0x2828 JUMP JUMPDEST PUSH2 0x70B JUMP JUMPDEST STOP JUMPDEST PUSH2 0x2D8 PUSH1 0x4 DUP1 CALLDATASIZE SUB DUP2 ADD SWAP1 PUSH2 0x2D3 SWAP2 SWAP1 PUSH2 0x25CB JUMP JUMPDEST PUSH2 0x71D JUMP JUMPDEST PUSH1 0x40 MLOAD PUSH2 0x2E5 SWAP2 SWAP1 PUSH2 0x26E3 JUMP JUMPDEST PUSH1 0x40 MLOAD DUP1 SWAP2 SUB SWAP1 RETURN JUMPDEST PUSH2 0x308 PUSH1 0x4 DUP1 CALLDATASIZE SUB DUP2 ADD SWAP1 PUSH2 0x303 SWAP2 SWAP1 PUSH2 0x25CB JUMP JUMPDEST PUSH2 0x73C JUMP JUMPDEST PUSH1 0x40 MLOAD PUSH2 0x318 SWAP5 SWAP4 SWAP3 SWAP2 SWAP1 PUSH2 0x289D JUMP JUMPDEST PUSH1 0x40 MLOAD DUP1 SWAP2 SUB SWAP1 RETURN JUMPDEST PUSH2 0x33B PUSH1 0x4 DUP1 CALLDATASIZE SUB DUP2 ADD SWAP1 PUSH2 0x336 SWAP2 SWAP1 PUSH2 0x25CB JUMP JUMPDEST PUSH2 0x779 JUMP JUMPDEST PUSH1 0x40 MLOAD PUSH2 0x348 SWAP2 SWAP1 PUSH2 0x26E3 JUMP JUMPDEST PUSH1 0x40 MLOAD DUP1 SWAP2 SUB SWAP1 RETURN JUMPDEST PUSH2 0x36B PUSH1 0x4 DUP1 CALLDATASIZE SUB DUP2 ADD SWAP1 PUSH2 0x366 SWAP2 SWAP1 PUSH2 0x25CB JUMP JUMPDEST PUSH2 0x798 JUMP JUMPDEST PUSH1 0x40 MLOAD PUSH2 0x378 SWAP2 SWAP1 PUSH2 0x26E3 JUMP JUMPDEST PUSH1 0x40 MLOAD DUP1 SWAP2 SUB SWAP1 RETURN JUMPDEST PUSH2 0x39B PUSH1 0x4 DUP1 CALLDATASIZE SUB DUP2 ADD SWAP1 PUSH2 0x396 SWAP2 SWAP1 PUSH2 0x2940 JUMP JUMPDEST PUSH2 0x7C1 JUMP JUMPDEST PUSH1 0x40 MLOAD PUSH2 0x3A8 SWAP2 SWAP1 PUSH2 0x2A4E JUMP JUMPDEST PUSH1 0x40 MLOAD DUP1 SWAP2 SUB SWAP1 RETURN JUMPDEST PUSH2 0x3CB PUSH1 0x4 DUP1 CALLDATASIZE SUB DUP2 ADD SWAP1 PUSH2 0x3C6 SWAP2 SWAP1 PUSH2 0x2A69 JUMP JUMPDEST PUSH2 0x81F JUMP JUMPDEST PUSH1 0x40 MLOAD PUSH2 0x3D8 SWAP2 SWAP1 PUSH2 0x2570 JUMP JUMPDEST PUSH1 0x40 MLOAD DUP1 SWAP2 SUB SWAP1 RETURN JUMPDEST PUSH2 0x3FB PUSH1 0x4 DUP1 CALLDATASIZE SUB DUP2 ADD SWAP1 PUSH2 0x3F6 SWAP2 SWAP1 PUSH2 0x2ABA JUMP JUMPDEST PUSH2 0x9A2 JUMP JUMPDEST PUSH1 0x40 MLOAD PUSH2 0x408 SWAP2 SWAP1 PUSH2 0x2B24 JUMP JUMPDEST PUSH1 0x40 MLOAD DUP1 SWAP2 SUB SWAP1 RETURN JUMPDEST PUSH2 0x42B PUSH1 0x4 DUP1 CALLDATASIZE SUB DUP2 ADD SWAP1 PUSH2 0x426 SWAP2 SWAP1 PUSH2 0x25CB JUMP JUMPDEST PUSH2 0xA0D JUMP JUMPDEST PUSH1 0x40 MLOAD PUSH2 0x438 SWAP2 SWAP1 PUSH2 0x26E3 JUMP JUMPDEST PUSH1 0x40 MLOAD DUP1 SWAP2 SUB SWAP1 RETURN JUMPDEST PUSH2 0x449 PUSH2 0xA2C JUMP JUMPDEST STOP JUMPDEST PUSH2 0x453 PUSH2 0xA40 JUMP JUMPDEST PUSH1 0x40 MLOAD PUSH2 0x460 SWAP2 SWAP1 PUSH2 0x2B4E JUMP JUMPDEST PUSH1 0x40 MLOAD DUP1 SWAP2 SUB SWAP1 RETURN JUMPDEST PUSH2 0x483 PUSH1 0x4 DUP1 CALLDATASIZE SUB DUP2 ADD SWAP1 PUSH2 0x47E SWAP2 SWAP1 PUSH2 0x2A69 JUMP JUMPDEST PUSH2 0xA53 JUMP JUMPDEST PUSH1 0x40 MLOAD PUSH2 0x490 SWAP2 SWAP1 PUSH2 0x2B78 JUMP JUMPDEST PUSH1 0x40 MLOAD DUP1 SWAP2 SUB SWAP1 RETURN JUMPDEST PUSH2 0x4B3 PUSH1 0x4 DUP1 CALLDATASIZE SUB DUP2 ADD SWAP1 PUSH2 0x4AE SWAP2 SWAP1 PUSH2 0x2BD1 JUMP JUMPDEST PUSH2 0xAA7 JUMP JUMPDEST STOP JUMPDEST PUSH2 0x4BD PUSH2 0xABB JUMP JUMPDEST PUSH1 0x40 MLOAD PUSH2 0x4CA SWAP2 SWAP1 PUSH2 0x2C0D JUMP JUMPDEST PUSH1 0x40 MLOAD DUP1 SWAP2 SUB SWAP1 RETURN JUMPDEST PUSH2 0x4ED PUSH1 0x4 DUP1 CALLDATASIZE SUB DUP2 ADD SWAP1 PUSH2 0x4E8 SWAP2 SWAP1 PUSH2 0x25CB JUMP JUMPDEST PUSH2 0xAE4 JUMP JUMPDEST STOP JUMPDEST PUSH2 0x509 PUSH1 0x4 DUP1 CALLDATASIZE SUB DUP2 ADD SWAP1 PUSH2 0x504 SWAP2 SWAP1 PUSH2 0x25CB JUMP JUMPDEST PUSH2 0xBA3 JUMP JUMPDEST STOP JUMPDEST PUSH2 0x525 PUSH1 0x4 DUP1 CALLDATASIZE SUB DUP2 ADD SWAP1 PUSH2 0x520 SWAP2 SWAP1 PUSH2 0x25CB JUMP JUMPDEST PUSH2 0xC08 JUMP JUMPDEST PUSH1 0x40 MLOAD PUSH2 0x532 SWAP2 SWAP1 PUSH2 0x2C70 JUMP JUMPDEST PUSH1 0x40 MLOAD DUP1 SWAP2 SUB SWAP1 RETURN JUMPDEST PUSH2 0x555 PUSH1 0x4 DUP1 CALLDATASIZE SUB DUP2 ADD SWAP1 PUSH2 0x550 SWAP2 SWAP1 PUSH2 0x2CB7 JUMP JUMPDEST PUSH2 0xD53 JUMP JUMPDEST STOP JUMPDEST PUSH2 0x55F PUSH2 0xD87 JUMP JUMPDEST PUSH1 0x40 MLOAD PUSH2 0x56C SWAP2 SWAP1 PUSH2 0x2C0D JUMP JUMPDEST PUSH1 0x40 MLOAD DUP1 SWAP2 SUB SWAP1 RETURN JUMPDEST PUSH2 0x57D PUSH2 0xDAD JUMP JUMPDEST PUSH1 0x40 MLOAD PUSH2 0x58A SWAP2 SWAP1 PUSH2 0x26AD JUMP JUMPDEST PUSH1 0x40 MLOAD DUP1 SWAP2 SUB SWAP1 RETURN JUMPDEST PUSH2 0x5AD PUSH1 0x4 DUP1 CALLDATASIZE SUB DUP2 ADD SWAP1 PUSH2 0x5A8 SWAP2 SWAP1 PUSH2 0x2CB7 JUMP JUMPDEST PUSH2 0xDC7 JUMP JUMPDEST STOP JUMPDEST PUSH2 0x5C9 PUSH1 0x4 DUP1 CALLDATASIZE SUB DUP2 ADD SWAP1 PUSH2 0x5C4 SWAP2 SWAP1 PUSH2 0x2D09 JUMP JUMPDEST PUSH2 0xDFB JUMP JUMPDEST STOP JUMPDEST PUSH2 0x5E5 PUSH1 0x4 DUP1 CALLDATASIZE SUB DUP2 ADD SWAP1 PUSH2 0x5E0 SWAP2 SWAP1 PUSH2 0x25CB JUMP JUMPDEST PUSH2 0xE3C JUMP JUMPDEST PUSH1 0x40 MLOAD PUSH2 0x5F2 SWAP2 SWAP1 PUSH2 0x26E3 JUMP JUMPDEST PUSH1 0x40 MLOAD DUP1 SWAP2 SUB SWAP1 RETURN JUMPDEST PUSH2 0x615 PUSH1 0x4 DUP1 CALLDATASIZE SUB DUP2 ADD SWAP1 PUSH2 0x610 SWAP2 SWAP1 PUSH2 0x2D7D JUMP JUMPDEST PUSH2 0xE5B JUMP JUMPDEST STOP JUMPDEST PUSH2 0x631 PUSH1 0x4 DUP1 CALLDATASIZE SUB DUP2 ADD SWAP1 PUSH2 0x62C SWAP2 SWAP1 PUSH2 0x2A69 JUMP JUMPDEST PUSH2 0xE81 JUMP JUMPDEST STOP JUMPDEST PUSH2 0x64D PUSH1 0x4 DUP1 CALLDATASIZE SUB DUP2 ADD SWAP1 PUSH2 0x648 SWAP2 SWAP1 PUSH2 0x2ABA JUMP JUMPDEST PUSH2 0xF07 JUMP JUMPDEST PUSH1 0x40 MLOAD PUSH2 0x65A SWAP2 SWAP1 PUSH2 0x26E3 JUMP JUMPDEST PUSH1 0x40 MLOAD DUP1 SWAP2 SUB SWAP1 RETURN JUMPDEST PUSH1 0x2 SLOAD DUP2 JUMP JUMPDEST PUSH1 0x0 DUP1 PUSH2 0x675 DUP4 PUSH2 0x116A JUMP JUMPDEST SWAP1 POP PUSH2 0x680 DUP2 PUSH2 0x11CA JUMP JUMPDEST SWAP2 POP POP SWAP2 SWAP1 POP JUMP JUMPDEST PUSH1 0x1 PUSH1 0x0 SWAP1 SLOAD SWAP1 PUSH2 0x100 EXP SWAP1 DIV PUSH8 0xFFFFFFFFFFFFFFFF AND DUP2 JUMP JUMPDEST PUSH1 0x0 DUP1 PUSH2 0x6AE DUP4 PUSH2 0x116A JUMP JUMPDEST SWAP1 POP PUSH2 0x6B9 DUP2 PUSH2 0x1217 JUMP JUMPDEST SWAP2 POP POP SWAP2 SWAP1 POP JUMP JUMPDEST PUSH2 0x6C9 PUSH2 0x1257 JUMP JUMPDEST DUP3 PUSH1 0xFF AND PUSH32 0x294D62780E868235E85AEE4277A92857D52A196987E2A5BBB9FFFE4F08B4567A DUP4 DUP4 PUSH1 0x40 MLOAD PUSH2 0x6FE SWAP3 SWAP2 SWAP1 PUSH2 0x2E08 JUMP JUMPDEST PUSH1 0x40 MLOAD DUP1 SWAP2 SUB SWAP1 LOG2 POP POP POP JUMP JUMPDEST PUSH2 0x713 PUSH2 0x1257 JUMP JUMPDEST DUP1 PUSH1 0x2 DUP2 SWAP1 SSTORE POP POP JUMP JUMPDEST PUSH1 0x0 DUP1 PUSH2 0x729 DUP4 PUSH2 0x116A JUMP JUMPDEST SWAP1 POP PUSH2 0x734 DUP2 PUSH2 0x12DE JUMP JUMPDEST SWAP2 POP POP SWAP2 SWAP1 POP JUMP JUMPDEST PUSH1 0x4 PUSH1 0x20 MSTORE DUP1 PUSH1 0x0 MSTORE PUSH1 0x40 PUSH1 0x0 KECCAK256 PUSH1 0x0 SWAP2 POP SWAP1 POP DUP1 PUSH1 0x0 ADD SLOAD SWAP1 DUP1 PUSH1 0x1 ADD SLOAD SWAP1 DUP1 PUSH1 0x2 ADD SLOAD SWAP1 DUP1 PUSH1 0x3 ADD PUSH1 0x0 SWAP1 SLOAD SWAP1 PUSH2 0x100 EXP SWAP1 DIV PUSH1 0xFF AND SWAP1 POP DUP5 JUMP JUMPDEST PUSH1 0x0 DUP1 PUSH2 0x785 DUP4 PUSH2 0x116A JUMP JUMPDEST SWAP1 POP PUSH2 0x790 DUP2 PUSH2 0x136B JUMP JUMPDEST SWAP2 POP POP SWAP2 SWAP1 POP JUMP JUMPDEST PUSH1 0x0 DUP1 PUSH1 0x4 PUSH1 0x0 DUP5 DUP2 MSTORE PUSH1 0x20 ADD SWAP1 DUP2 MSTORE PUSH1 0x20 ADD PUSH1 0x0 KECCAK256 SWAP1 POP PUSH2 0x7B9 DUP2 PUSH2 0x13D8 JUMP JUMPDEST SWAP2 POP POP SWAP2 SWAP1 POP JUMP JUMPDEST PUSH2 0x7C9 PUSH2 0x2519 JUMP JUMPDEST PUSH1 0x0 PUSH1 0x5 PUSH1 0x0 DUP5 PUSH20 0xFFFFFFFFFFFFFFFFFFFFFFFFFFFFFFFFFFFFFFFF AND PUSH20 0xFFFFFFFFFFFFFFFFFFFFFFFFFFFFFFFFFFFFFFFF AND DUP2 MSTORE PUSH1 0x20 ADD SWAP1 DUP2 MSTORE PUSH1 0x20 ADD PUSH1 0x0 KECCAK256 SWAP1 POP PUSH2 0x816 DUP2 DUP6 PUSH2 0x13E9 JUMP JUMPDEST SWAP2 POP POP SWAP3 SWAP2 POP POP JUMP JUMPDEST PUSH1 0x0 DUP1 PUSH1 0x1 DUP2 GT ISZERO PUSH2 0x834 JUMPI PUSH2 0x833 PUSH2 0x25F8 JUMP JUMPDEST JUMPDEST PUSH1 0x3 PUSH1 0x14 SWAP1 SLOAD SWAP1 PUSH2 0x100 EXP SWAP1 DIV PUSH1 0xFF AND PUSH1 0x1 DUP2 GT ISZERO PUSH2 0x856 JUMPI PUSH2 0x855 PUSH2 0x25F8 JUMP JUMPDEST JUMPDEST SUB PUSH2 0x8FE JUMPI PUSH1 0x3 PUSH1 0x0 SWAP1 SLOAD SWAP1 PUSH2 0x100 EXP SWAP1 DIV PUSH20 0xFFFFFFFFFFFFFFFFFFFFFFFFFFFFFFFFFFFFFFFF AND PUSH20 0xFFFFFFFFFFFFFFFFFFFFFFFFFFFFFFFFFFFFFFFF AND PUSH4 0x58970CA8 DUP4 PUSH1 0x40 MLOAD DUP3 PUSH4 0xFFFFFFFF AND PUSH1 0xE0 SHL DUP2 MSTORE PUSH1 0x4 ADD PUSH2 0x8B6 SWAP2 SWAP1 PUSH2 0x2C0D JUMP JUMPDEST PUSH1 0x20 PUSH1 0x40 MLOAD DUP1 DUP4 SUB DUP2 DUP7 GAS STATICCALL ISZERO DUP1 ISZERO PUSH2 0x8D3 JUMPI RETURNDATASIZE PUSH1 0x0 DUP1 RETURNDATACOPY RETURNDATASIZE PUSH1 0x0 REVERT JUMPDEST POP POP POP POP PUSH1 0x40 MLOAD RETURNDATASIZE PUSH1 0x1F NOT PUSH1 0x1F DUP3 ADD AND DUP3 ADD DUP1 PUSH1 0x40 MSTORE POP DUP2 ADD SWAP1 PUSH2 0x8F7 SWAP2 SWAP1 PUSH2 0x2E41 JUMP JUMPDEST SWAP1 POP PUSH2 0x99D JUMP JUMPDEST PUSH1 0x3 PUSH1 0x0 SWAP1 SLOAD SWAP1 PUSH2 0x100 EXP SWAP1 DIV PUSH20 0xFFFFFFFFFFFFFFFFFFFFFFFFFFFFFFFFFFFFFFFF AND PUSH20 0xFFFFFFFFFFFFFFFFFFFFFFFFFFFFFFFFFFFFFFFF AND PUSH4 0x70A08231 DUP4 PUSH1 0x40 MLOAD DUP3 PUSH4 0xFFFFFFFF AND PUSH1 0xE0 SHL DUP2 MSTORE PUSH1 0x4 ADD PUSH2 0x959 SWAP2 SWAP1 PUSH2 0x2C0D JUMP JUMPDEST PUSH1 0x20 PUSH1 0x40 MLOAD DUP1 DUP4 SUB DUP2 DUP7 GAS STATICCALL ISZERO DUP1 ISZERO PUSH2 0x976 JUMPI RETURNDATASIZE PUSH1 0x0 DUP1 RETURNDATACOPY RETURNDATASIZE PUSH1 0x0 REVERT JUMPDEST POP POP POP POP PUSH1 0x40 MLOAD RETURNDATASIZE PUSH1 0x1F NOT PUSH1 0x1F DUP3 ADD AND DUP3 ADD DUP1 PUSH1 0x40 MSTORE POP DUP2 ADD SWAP1 PUSH2 0x99A SWAP2 SWAP1 PUSH2 0x2E41 JUMP JUMPDEST SWAP1 POP JUMPDEST SWAP2 SWAP1 POP JUMP JUMPDEST PUSH1 0x0 DUP1 DUP3 PUSH1 0x0 ADD PUSH1 0x20 DUP2 ADD SWAP1 PUSH2 0x9B8 SWAP2 SWAP1 PUSH2 0x2A69 JUMP JUMPDEST DUP4 DUP1 PUSH1 0x20 ADD SWAP1 PUSH2 0x9C8 SWAP2 SWAP1 PUSH2 0x2E7D JUMP JUMPDEST DUP6 DUP1 PUSH1 0x40 ADD SWAP1 PUSH2 0x9D8 SWAP2 SWAP1 PUSH2 0x2E7D JUMP JUMPDEST PUSH1 0x40 MLOAD PUSH1 0x20 ADD PUSH2 0x9EC SWAP6 SWAP5 SWAP4 SWAP3 SWAP2 SWAP1 PUSH2 0x2F58 JUMP JUMPDEST PUSH1 0x40 MLOAD PUSH1 0x20 DUP2 DUP4 SUB SUB DUP2 MSTORE SWAP1 PUSH1 0x40 MSTORE SWAP1 POP DUP1 DUP1 MLOAD SWAP1 PUSH1 0x20 ADD KECCAK256 SWAP2 POP POP SWAP2 SWAP1 POP JUMP JUMPDEST PUSH1 0x0 DUP1 PUSH2 0xA19 DUP4 PUSH2 0x116A JUMP JUMPDEST SWAP1 POP PUSH2 0xA24 DUP2 PUSH2 0x1468 JUMP JUMPDEST SWAP2 POP POP SWAP2 SWAP1 POP JUMP JUMPDEST PUSH2 0xA34 PUSH2 0x1257 JUMP JUMPDEST PUSH2 0xA3E PUSH1 0x0 PUSH2 0x1483 JUMP JUMPDEST JUMP JUMPDEST PUSH1 0x3 PUSH1 0x15 SWAP1 SLOAD SWAP1 PUSH2 0x100 EXP SWAP1 DIV PUSH1 0xFF AND DUP2 JUMP JUMPDEST PUSH1 0x0 DUP1 PUSH2 0xA5F DUP4 PUSH2 0x81F JUMP JUMPDEST SWAP1 POP PUSH1 0x0 PUSH2 0xA9B DUP3 PUSH1 0x1 PUSH16 0xFFFFFFFFFFFFFFFFFFFFFFFFFFFFFFFF PUSH2 0xA84 SWAP2 SWAP1 PUSH2 0x2FC0 JUMP JUMPDEST PUSH16 0xFFFFFFFFFFFFFFFFFFFFFFFFFFFFFFFF AND PUSH2 0x1547 JUMP JUMPDEST SWAP1 POP DUP1 SWAP3 POP POP POP SWAP2 SWAP1 POP JUMP JUMPDEST PUSH2 0xAAF PUSH2 0x1257 JUMP JUMPDEST PUSH2 0xAB8 DUP2 PUSH2 0x1560 JUMP JUMPDEST POP JUMP JUMPDEST PUSH1 0x0 DUP1 PUSH1 0x0 SWAP1 SLOAD SWAP1 PUSH2 0x100 EXP SWAP1 DIV PUSH20 0xFFFFFFFFFFFFFFFFFFFFFFFFFFFFFFFFFFFFFFFF AND SWAP1 POP SWAP1 JUMP JUMPDEST PUSH1 0x0 PUSH2 0xAEF DUP3 PUSH2 0x116A JUMP JUMPDEST SWAP1 POP PUSH2 0xAFA DUP2 PUSH2 0x1468 JUMP JUMPDEST PUSH2 0xB30 JUMPI PUSH1 0x40 MLOAD PUSH32 0x8251DF3000000000000000000000000000000000000000000000000000000000 DUP2 MSTORE PUSH1 0x4 ADD PUSH1 0x40 MLOAD DUP1 SWAP2 SUB SWAP1 REVERT JUMPDEST PUSH1 0x4 PUSH1 0x0 DUP4 DUP2 MSTORE PUSH1 0x20 ADD SWAP1 DUP2 MSTORE PUSH1 0x20 ADD PUSH1 0x0 KECCAK256 PUSH1 0x0 DUP1 DUP3 ADD PUSH1 0x0 SWAP1 SSTORE PUSH1 0x1 DUP3 ADD PUSH1 0x0 SWAP1 SSTORE PUSH1 0x2 DUP3 ADD PUSH1 0x0 SWAP1 SSTORE PUSH1 0x3 DUP3 ADD PUSH1 0x0 PUSH2 0x100 EXP DUP2 SLOAD SWAP1 PUSH1 0xFF MUL NOT AND SWAP1 SSTORE POP POP DUP2 PUSH32 0x6416014A86EC114BACABB2C8C9684A2D10450127746F184FD0DA1DE53E70B1AD PUSH1 0x40 MLOAD PUSH1 0x40 MLOAD DUP1 SWAP2 SUB SWAP1 LOG2 POP POP JUMP JUMPDEST PUSH1 0x0 PUSH1 0x4 PUSH1 0x0 DUP4 DUP2 MSTORE PUSH1 0x20 ADD SWAP1 DUP2 MSTORE PUSH1 0x20 ADD PUSH1 0x0 KECCAK256 SWAP1 POP PUSH2 0xBC3 DUP2 PUSH2 0x13D8 JUMP JUMPDEST ISZERO PUSH2 0xBFA JUMPI PUSH1 0x40 MLOAD PUSH32 0xB8C39E6200000000000000000000000000000000000000000000000000000000 DUP2 MSTORE PUSH1 0x4 ADD PUSH1 0x40 MLOAD DUP1 SWAP2 SUB SWAP1 REVERT JUMPDEST PUSH2 0xC04 DUP3 DUP3 PUSH2 0x178B JUMP JUMPDEST POP POP JUMP JUMPDEST PUSH1 0x0 DUP1 PUSH2 0xC14 DUP4 PUSH2 0x116A JUMP JUMPDEST SWAP1 POP PUSH1 0x0 PUSH2 0xC21 DUP3 PUSH2 0x11CA JUMP JUMPDEST SWAP1 POP PUSH1 0x3 DUP1 DUP2 GT ISZERO PUSH2 0xC36 JUMPI PUSH2 0xC35 PUSH2 0x25F8 JUMP JUMPDEST JUMPDEST DUP2 PUSH1 0x3 DUP2 GT ISZERO PUSH2 0xC49 JUMPI PUSH2 0xC48 PUSH2 0x25F8 JUMP JUMPDEST JUMPDEST SUB PUSH2 0xC59 JUMPI PUSH1 0x3 SWAP3 POP POP POP PUSH2 0xD4E JUMP JUMPDEST PUSH1 0x2 PUSH1 0x3 DUP2 GT ISZERO PUSH2 0xC6D JUMPI PUSH2 0xC6C PUSH2 0x25F8 JUMP JUMPDEST JUMPDEST DUP2 PUSH1 0x3 DUP2 GT ISZERO PUSH2 0xC80 JUMPI PUSH2 0xC7F PUSH2 0x25F8 JUMP JUMPDEST JUMPDEST SUB PUSH2 0xD18 JUMPI PUSH1 0x1 PUSH1 0x2 DUP2 GT ISZERO PUSH2 0xC99 JUMPI PUSH2 0xC98 PUSH2 0x25F8 JUMP JUMPDEST JUMPDEST DUP3 PUSH1 0x3 ADD PUSH1 0x0 SWAP1 SLOAD SWAP1 PUSH2 0x100 EXP SWAP1 DIV PUSH1 0xFF AND PUSH1 0x2 DUP2 GT ISZERO PUSH2 0xCBD JUMPI PUSH2 0xCBC PUSH2 0x25F8 JUMP JUMPDEST JUMPDEST EQ DUP1 PUSH2 0xCFD JUMPI POP PUSH1 0x2 DUP1 DUP2 GT ISZERO PUSH2 0xCD7 JUMPI PUSH2 0xCD6 PUSH2 0x25F8 JUMP JUMPDEST JUMPDEST DUP3 PUSH1 0x3 ADD PUSH1 0x0 SWAP1 SLOAD SWAP1 PUSH2 0x100 EXP SWAP1 DIV PUSH1 0xFF AND PUSH1 0x2 DUP2 GT ISZERO PUSH2 0xCFB JUMPI PUSH2 0xCFA PUSH2 0x25F8 JUMP JUMPDEST JUMPDEST EQ JUMPDEST ISZERO PUSH2 0xD0D JUMPI PUSH1 0x3 SWAP3 POP POP POP PUSH2 0xD4E JUMP JUMPDEST PUSH1 0x2 SWAP3 POP POP POP PUSH2 0xD4E JUMP JUMPDEST PUSH2 0xD21 DUP3 PUSH2 0x1217 JUMP JUMPDEST ISZERO PUSH2 0xD31 JUMPI PUSH1 0x0 SWAP3 POP POP POP PUSH2 0xD4E JUMP JUMPDEST PUSH2 0xD3A DUP3 PUSH2 0x12DE JUMP JUMPDEST PUSH2 0xD47 JUMPI PUSH2 0xD46 PUSH2 0x3004 JUMP JUMPDEST JUMPDEST PUSH1 0x1 SWAP3 POP POP POP JUMPDEST SWAP2 SWAP1 POP JUMP JUMPDEST PUSH2 0xD5B PUSH2 0x1257 JUMP JUMPDEST DUP1 PUSH1 0x0 PUSH1 0x14 PUSH2 0x100 EXP DUP2 SLOAD DUP2 PUSH8 0xFFFFFFFFFFFFFFFF MUL NOT AND SWAP1 DUP4 PUSH8 0xFFFFFFFFFFFFFFFF AND MUL OR SWAP1 SSTORE POP POP JUMP JUMPDEST PUSH1 0x3 PUSH1 0x0 SWAP1 SLOAD SWAP1 PUSH2 0x100 EXP SWAP1 DIV PUSH20 0xFFFFFFFFFFFFFFFFFFFFFFFFFFFFFFFFFFFFFFFF AND DUP2 JUMP JUMPDEST PUSH1 0x0 PUSH1 0x14 SWAP1 SLOAD SWAP1 PUSH2 0x100 EXP SWAP1 DIV PUSH8 0xFFFFFFFFFFFFFFFF AND DUP2 JUMP JUMPDEST PUSH2 0xDCF PUSH2 0x1257 JUMP JUMPDEST DUP1 PUSH1 0x1 PUSH1 0x0 PUSH2 0x100 EXP DUP2 SLOAD DUP2 PUSH8 0xFFFFFFFFFFFFFFFF MUL NOT AND SWAP1 DUP4 PUSH8 0xFFFFFFFFFFFFFFFF AND MUL OR SWAP1 SSTORE POP POP JUMP JUMPDEST PUSH1 0x0 PUSH1 0x4 PUSH1 0x0 DUP7 DUP2 MSTORE PUSH1 0x20 ADD SWAP1 DUP2 MSTORE PUSH1 0x20 ADD PUSH1 0x0 KECCAK256 SWAP1 POP PUSH2 0xE1B DUP2 PUSH2 0x13D8 JUMP JUMPDEST PUSH2 0xE2A JUMPI PUSH2 0xE29 DUP6 DUP3 PUSH2 0x178B JUMP JUMPDEST JUMPDEST PUSH2 0xE35 DUP2 DUP7 DUP7 PUSH2 0x182B JUMP JUMPDEST POP POP POP POP POP JUMP JUMPDEST PUSH1 0x0 DUP1 PUSH2 0xE48 DUP4 PUSH2 0x116A JUMP JUMPDEST SWAP1 POP PUSH2 0xE53 DUP2 PUSH2 0x1C8A JUMP JUMPDEST SWAP2 POP POP SWAP2 SWAP1 POP JUMP JUMPDEST PUSH2 0xE63 PUSH2 0x1257 JUMP JUMPDEST DUP1 PUSH1 0x3 PUSH1 0x15 PUSH2 0x100 EXP DUP2 SLOAD DUP2 PUSH1 0xFF MUL NOT AND SWAP1 DUP4 PUSH1 0xFF AND MUL OR SWAP1 SSTORE POP POP JUMP JUMPDEST PUSH2 0xE89 PUSH2 0x1257 JUMP JUMPDEST PUSH1 0x0 PUSH20 0xFFFFFFFFFFFFFFFFFFFFFFFFFFFFFFFFFFFFFFFF AND DUP2 PUSH20 0xFFFFFFFFFFFFFFFFFFFFFFFFFFFFFFFFFFFFFFFF AND SUB PUSH2 0xEFB JUMPI PUSH1 0x0 PUSH1 0x40 MLOAD PUSH32 0x1E4FBDF700000000000000000000000000000000000000000000000000000000 DUP2 MSTORE PUSH1 0x4 ADD PUSH2 0xEF2 SWAP2 SWAP1 PUSH2 0x2C0D JUMP JUMPDEST PUSH1 0x40 MLOAD DUP1 SWAP2 SUB SWAP1 REVERT JUMPDEST PUSH2 0xF04 DUP2 PUSH2 0x1483 JUMP JUMPDEST POP JUMP JUMPDEST PUSH1 0x0 DUP1 PUSH2 0xF13 DUP4 PUSH2 0x9A2 JUMP JUMPDEST SWAP1 POP PUSH1 0x0 PUSH2 0xF20 DUP3 PUSH2 0x116A JUMP JUMPDEST SWAP1 POP PUSH1 0x2 PUSH1 0x3 DUP2 GT ISZERO PUSH2 0xF36 JUMPI PUSH2 0xF35 PUSH2 0x25F8 JUMP JUMPDEST JUMPDEST PUSH2 0xF3F DUP3 PUSH2 0x11CA JUMP JUMPDEST PUSH1 0x3 DUP2 GT ISZERO PUSH2 0xF51 JUMPI PUSH2 0xF50 PUSH2 0x25F8 JUMP JUMPDEST JUMPDEST EQ PUSH2 0xF88 JUMPI PUSH1 0x40 MLOAD PUSH32 0xC8C93BA300000000000000000000000000000000000000000000000000000000 DUP2 MSTORE PUSH1 0x4 ADD PUSH1 0x40 MLOAD DUP1 SWAP2 SUB SWAP1 REVERT JUMPDEST PUSH1 0x0 PUSH1 0x2 DUP2 GT ISZERO PUSH2 0xF9C JUMPI PUSH2 0xF9B PUSH2 0x25F8 JUMP JUMPDEST JUMPDEST DUP2 PUSH1 0x3 ADD PUSH1 0x0 SWAP1 SLOAD SWAP1 PUSH2 0x100 EXP SWAP1 DIV PUSH1 0xFF AND PUSH1 0x2 DUP2 GT ISZERO PUSH2 0xFC0 JUMPI PUSH2 0xFBF PUSH2 0x25F8 JUMP JUMPDEST JUMPDEST EQ PUSH2 0xFF7 JUMPI PUSH1 0x40 MLOAD PUSH32 0x51618D5300000000000000000000000000000000000000000000000000000000 DUP2 MSTORE PUSH1 0x4 ADD PUSH1 0x40 MLOAD DUP1 SWAP2 SUB SWAP1 REVERT JUMPDEST PUSH1 0x0 DUP1 DUP6 PUSH1 0x0 ADD PUSH1 0x20 DUP2 ADD SWAP1 PUSH2 0x100D SWAP2 SWAP1 PUSH2 0x2A69 JUMP JUMPDEST PUSH20 0xFFFFFFFFFFFFFFFFFFFFFFFFFFFFFFFFFFFFFFFF AND DUP7 DUP1 PUSH1 0x20 ADD SWAP1 PUSH2 0x1033 SWAP2 SWAP1 PUSH2 0x2E7D JUMP JUMPDEST PUSH1 0x40 MLOAD PUSH2 0x1041 SWAP3 SWAP2 SWAP1 PUSH2 0x3033 JUMP JUMPDEST PUSH1 0x0 PUSH1 0x40 MLOAD DUP1 DUP4 SUB DUP2 PUSH1 0x0 DUP7 GAS CALL SWAP2 POP POP RETURNDATASIZE DUP1 PUSH1 0x0 DUP2 EQ PUSH2 0x107E JUMPI PUSH1 0x40 MLOAD SWAP2 POP PUSH1 0x1F NOT PUSH1 0x3F RETURNDATASIZE ADD AND DUP3 ADD PUSH1 0x40 MSTORE RETURNDATASIZE DUP3 MSTORE RETURNDATASIZE PUSH1 0x0 PUSH1 0x20 DUP5 ADD RETURNDATACOPY PUSH2 0x1083 JUMP JUMPDEST PUSH1 0x60 SWAP2 POP JUMPDEST POP SWAP2 POP SWAP2 POP DUP2 ISZERO PUSH2 0x10F8 JUMPI DUP4 PUSH32 0xDA66FCFE5711520A570CED34D4CDEBBE652FE74713BF2BC9DB4BA54357E5A96F DUP3 PUSH1 0x40 MLOAD PUSH2 0x10BE SWAP2 SWAP1 PUSH2 0x30BA JUMP JUMPDEST PUSH1 0x40 MLOAD DUP1 SWAP2 SUB SWAP1 LOG2 PUSH1 0x1 DUP4 PUSH1 0x3 ADD PUSH1 0x0 PUSH2 0x100 EXP DUP2 SLOAD DUP2 PUSH1 0xFF MUL NOT AND SWAP1 DUP4 PUSH1 0x2 DUP2 GT ISZERO PUSH2 0x10EE JUMPI PUSH2 0x10ED PUSH2 0x25F8 JUMP JUMPDEST JUMPDEST MUL OR SWAP1 SSTORE POP PUSH2 0x115E JUMP JUMPDEST DUP4 PUSH32 0xD255D8A333980D77AF4F9179384057DEF133983CB02DB3E1FDB70C4DC14102E8 DUP3 PUSH1 0x40 MLOAD PUSH2 0x1128 SWAP2 SWAP1 PUSH2 0x30BA JUMP JUMPDEST PUSH1 0x40 MLOAD DUP1 SWAP2 SUB SWAP1 LOG2 PUSH1 0x2 DUP4 PUSH1 0x3 ADD PUSH1 0x0 PUSH2 0x100 EXP DUP2 SLOAD DUP2 PUSH1 0xFF MUL NOT AND SWAP1 DUP4 PUSH1 0x2 DUP2 GT ISZERO PUSH2 0x1158 JUMPI PUSH2 0x1157 PUSH2 0x25F8 JUMP JUMPDEST JUMPDEST MUL OR SWAP1 SSTORE POP JUMPDEST DUP2 SWAP5 POP POP POP POP POP SWAP2 SWAP1 POP JUMP JUMPDEST PUSH1 0x0 DUP1 PUSH1 0x4 PUSH1 0x0 DUP5 DUP2 MSTORE PUSH1 0x20 ADD SWAP1 DUP2 MSTORE PUSH1 0x20 ADD PUSH1 0x0 KECCAK256 SWAP1 POP PUSH2 0x118B DUP2 PUSH2 0x13D8 JUMP JUMPDEST PUSH2 0x11C1 JUMPI PUSH1 0x40 MLOAD PUSH32 0xD9C78E0200000000000000000000000000000000000000000000000000000000 DUP2 MSTORE PUSH1 0x4 ADD PUSH1 0x40 MLOAD DUP1 SWAP2 SUB SWAP1 REVERT JUMPDEST DUP1 SWAP2 POP POP SWAP2 SWAP1 POP JUMP JUMPDEST PUSH1 0x0 PUSH2 0x11D5 DUP3 PUSH2 0x1CEB JUMP JUMPDEST ISZERO PUSH2 0x11F8 JUMPI PUSH2 0x11E3 DUP3 PUSH2 0x1C8A JUMP JUMPDEST PUSH2 0x11EE JUMPI PUSH1 0x2 PUSH2 0x11F1 JUMP JUMPDEST PUSH1 0x0 JUMPDEST SWAP1 POP PUSH2 0x1212 JUMP JUMPDEST PUSH2 0x1201 DUP3 PUSH2 0x1217 JUMP JUMPDEST PUSH2 0x120C JUMPI PUSH1 0x3 PUSH2 0x120F JUMP JUMPDEST PUSH1 0x1 JUMPDEST SWAP1 POP JUMPDEST SWAP2 SWAP1 POP JUMP JUMPDEST PUSH1 0x0 DUP1 DUP3 PUSH1 0x0 ADD SLOAD TIMESTAMP PUSH2 0x122A SWAP2 SWAP1 PUSH2 0x30DC JUMP JUMPDEST SWAP1 POP PUSH1 0x0 PUSH1 0x14 SWAP1 SLOAD SWAP1 PUSH2 0x100 EXP SWAP1 DIV PUSH8 0xFFFFFFFFFFFFFFFF AND PUSH8 0xFFFFFFFFFFFFFFFF AND DUP2 LT SWAP2 POP POP SWAP2 SWAP1 POP JUMP JUMPDEST PUSH2 0x125F PUSH2 0x1D1D JUMP JUMPDEST PUSH20 0xFFFFFFFFFFFFFFFFFFFFFFFFFFFFFFFFFFFFFFFF AND PUSH2 0x127D PUSH2 0xABB JUMP JUMPDEST PUSH20 0xFFFFFFFFFFFFFFFFFFFFFFFFFFFFFFFFFFFFFFFF AND EQ PUSH2 0x12DC JUMPI PUSH2 0x12A0 PUSH2 0x1D1D JUMP JUMPDEST PUSH1 0x40 MLOAD PUSH32 0x118CDAA700000000000000000000000000000000000000000000000000000000 DUP2 MSTORE PUSH1 0x4 ADD PUSH2 0x12D3 SWAP2 SWAP1 PUSH2 0x2C0D JUMP JUMPDEST PUSH1 0x40 MLOAD DUP1 SWAP2 SUB SWAP1 REVERT JUMPDEST JUMP JUMPDEST PUSH1 0x0 DUP1 DUP3 PUSH1 0x0 ADD SLOAD TIMESTAMP PUSH2 0x12F1 SWAP2 SWAP1 PUSH2 0x30DC JUMP JUMPDEST SWAP1 POP PUSH1 0x0 PUSH1 0x14 SWAP1 SLOAD SWAP1 PUSH2 0x100 EXP SWAP1 DIV PUSH8 0xFFFFFFFFFFFFFFFF AND PUSH8 0xFFFFFFFFFFFFFFFF AND DUP2 LT ISZERO DUP1 ISZERO PUSH2 0x1363 JUMPI POP PUSH1 0x1 PUSH1 0x0 SWAP1 SLOAD SWAP1 PUSH2 0x100 EXP SWAP1 DIV PUSH8 0xFFFFFFFFFFFFFFFF AND PUSH1 0x0 PUSH1 0x14 SWAP1 SLOAD SWAP1 PUSH2 0x100 EXP SWAP1 DIV PUSH8 0xFFFFFFFFFFFFFFFF AND PUSH2 0x1356 SWAP2 SWAP1 PUSH2 0x3110 JUMP JUMPDEST PUSH8 0xFFFFFFFFFFFFFFFF AND DUP2 LT JUMPDEST SWAP2 POP POP SWAP2 SWAP1 POP JUMP JUMPDEST PUSH1 0x0 DUP1 PUSH2 0x1377 DUP4 PUSH2 0x11CA JUMP JUMPDEST SWAP1 POP PUSH1 0x0 PUSH1 0x3 DUP2 GT ISZERO PUSH2 0x138D JUMPI PUSH2 0x138C PUSH2 0x25F8 JUMP JUMPDEST JUMPDEST DUP2 PUSH1 0x3 DUP2 GT ISZERO PUSH2 0x13A0 JUMPI PUSH2 0x139F PUSH2 0x25F8 JUMP JUMPDEST JUMPDEST EQ DUP1 PUSH2 0x13D0 JUMPI POP PUSH1 0x1 PUSH1 0x3 DUP2 GT ISZERO PUSH2 0x13BB JUMPI PUSH2 0x13BA PUSH2 0x25F8 JUMP JUMPDEST JUMPDEST DUP2 PUSH1 0x3 DUP2 GT ISZERO PUSH2 0x13CE JUMPI PUSH2 0x13CD PUSH2 0x25F8 JUMP JUMPDEST JUMPDEST EQ JUMPDEST SWAP2 POP POP SWAP2 SWAP1 POP JUMP JUMPDEST PUSH1 0x0 DUP1 DUP3 PUSH1 0x0 ADD SLOAD EQ ISZERO SWAP1 POP SWAP2 SWAP1 POP JUMP JUMPDEST PUSH2 0x13F1 PUSH2 0x2519 JUMP JUMPDEST PUSH1 0x0 DUP1 PUSH2 0x1407 DUP5 DUP7 PUSH2 0x1D25 SWAP1 SWAP2 SWAP1 PUSH4 0xFFFFFFFF AND JUMP JUMPDEST SWAP2 POP SWAP2 POP DUP2 PUSH2 0x1454 JUMPI PUSH1 0x40 MLOAD DUP1 PUSH1 0x40 ADD PUSH1 0x40 MSTORE DUP1 PUSH1 0x0 PUSH1 0x2 DUP2 GT ISZERO PUSH2 0x142F JUMPI PUSH2 0x142E PUSH2 0x25F8 JUMP JUMPDEST JUMPDEST DUP2 MSTORE PUSH1 0x20 ADD PUSH1 0x0 PUSH16 0xFFFFFFFFFFFFFFFFFFFFFFFFFFFFFFFF AND DUP2 MSTORE POP SWAP3 POP POP POP PUSH2 0x1462 JUMP JUMPDEST PUSH2 0x145D DUP2 PUSH2 0x1D74 JUMP JUMPDEST SWAP3 POP POP POP JUMPDEST SWAP3 SWAP2 POP POP JUMP JUMPDEST PUSH1 0x0 PUSH2 0x147C DUP3 PUSH2 0x1477 DUP5 PUSH2 0x11CA JUMP JUMPDEST PUSH2 0x1E9B JUMP JUMPDEST SWAP1 POP SWAP2 SWAP1 POP JUMP JUMPDEST PUSH1 0x0 DUP1 PUSH1 0x0 SWAP1 SLOAD SWAP1 PUSH2 0x100 EXP SWAP1 DIV PUSH20 0xFFFFFFFFFFFFFFFFFFFFFFFFFFFFFFFFFFFFFFFF AND SWAP1 POP DUP2 PUSH1 0x0 DUP1 PUSH2 0x100 EXP DUP2 SLOAD DUP2 PUSH20 0xFFFFFFFFFFFFFFFFFFFFFFFFFFFFFFFFFFFFFFFF MUL NOT AND SWAP1 DUP4 PUSH20 0xFFFFFFFFFFFFFFFFFFFFFFFFFFFFFFFFFFFFFFFF AND MUL OR SWAP1 SSTORE POP DUP2 PUSH20 0xFFFFFFFFFFFFFFFFFFFFFFFFFFFFFFFFFFFFFFFF AND DUP2 PUSH20 0xFFFFFFFFFFFFFFFFFFFFFFFFFFFFFFFFFFFFFFFF AND PUSH32 0x8BE0079C531659141344CD1FD0A4F28419497F9722A3DAAFE3B4186F6B6457E0 PUSH1 0x40 MLOAD PUSH1 0x40 MLOAD DUP1 SWAP2 SUB SWAP1 LOG3 POP POP JUMP JUMPDEST PUSH1 0x0 DUP2 DUP4 LT PUSH2 0x1556 JUMPI DUP2 PUSH2 0x1558 JUMP JUMPDEST DUP3 JUMPDEST SWAP1 POP SWAP3 SWAP2 POP POP JUMP JUMPDEST PUSH1 0x0 DUP2 SWAP1 POP DUP2 PUSH20 0xFFFFFFFFFFFFFFFFFFFFFFFFFFFFFFFFFFFFFFFF AND PUSH4 0x1FFC9A7 PUSH32 0x58970CA800000000000000000000000000000000000000000000000000000000 PUSH1 0x40 MLOAD DUP3 PUSH4 0xFFFFFFFF AND PUSH1 0xE0 SHL DUP2 MSTORE PUSH1 0x4 ADD PUSH2 0x15BE SWAP2 SWAP1 PUSH2 0x3187 JUMP JUMPDEST PUSH1 0x20 PUSH1 0x40 MLOAD DUP1 DUP4 SUB DUP2 DUP7 GAS STATICCALL ISZERO DUP1 ISZERO PUSH2 0x15DB JUMPI RETURNDATASIZE PUSH1 0x0 DUP1 RETURNDATACOPY RETURNDATASIZE PUSH1 0x0 REVERT JUMPDEST POP POP POP POP PUSH1 0x40 MLOAD RETURNDATASIZE PUSH1 0x1F NOT PUSH1 0x1F DUP3 ADD AND DUP3 ADD DUP1 PUSH1 0x40 MSTORE POP DUP2 ADD SWAP1 PUSH2 0x15FF SWAP2 SWAP1 PUSH2 0x31CE JUMP JUMPDEST ISZERO PUSH2 0x1634 JUMPI PUSH1 0x0 PUSH1 0x3 PUSH1 0x14 PUSH2 0x100 EXP DUP2 SLOAD DUP2 PUSH1 0xFF MUL NOT AND SWAP1 DUP4 PUSH1 0x1 DUP2 GT ISZERO PUSH2 0x162A JUMPI PUSH2 0x1629 PUSH2 0x25F8 JUMP JUMPDEST JUMPDEST MUL OR SWAP1 SSTORE POP PUSH2 0x1746 JUMP JUMPDEST PUSH1 0x0 DUP2 PUSH20 0xFFFFFFFFFFFFFFFFFFFFFFFFFFFFFFFFFFFFFFFF AND PUSH4 0x70A08231 ADDRESS PUSH1 0x40 MLOAD DUP3 PUSH4 0xFFFFFFFF AND PUSH1 0xE0 SHL DUP2 MSTORE PUSH1 0x4 ADD PUSH2 0x166F SWAP2 SWAP1 PUSH2 0x2C0D JUMP JUMPDEST PUSH1 0x20 PUSH1 0x40 MLOAD DUP1 DUP4 SUB DUP2 DUP7 GAS STATICCALL ISZERO DUP1 ISZERO PUSH2 0x168C JUMPI RETURNDATASIZE PUSH1 0x0 DUP1 RETURNDATACOPY RETURNDATASIZE PUSH1 0x0 REVERT JUMPDEST POP POP POP POP PUSH1 0x40 MLOAD RETURNDATASIZE PUSH1 0x1F NOT PUSH1 0x1F DUP3 ADD AND DUP3 ADD DUP1 PUSH1 0x40 MSTORE POP DUP2 ADD SWAP1 PUSH2 0x16B0 SWAP2 SWAP1 PUSH2 0x2E41 JUMP JUMPDEST SWAP1 POP PUSH1 0x0 DUP2 LT ISZERO DUP1 ISZERO PUSH2 0x16E3 JUMPI POP PUSH32 0xFFFFFFFFFFFFFFFFFFFFFFFFFFFFFFFFFFFFFFFFFFFFFFFFFFFFFFFFFFFFFFFF DUP2 GT ISZERO JUMPDEST PUSH2 0x1719 JUMPI PUSH1 0x40 MLOAD PUSH32 0xADD3C86F00000000000000000000000000000000000000000000000000000000 DUP2 MSTORE PUSH1 0x4 ADD PUSH1 0x40 MLOAD DUP1 SWAP2 SUB SWAP1 REVERT JUMPDEST PUSH1 0x1 PUSH1 0x3 PUSH1 0x14 PUSH2 0x100 EXP DUP2 SLOAD DUP2 PUSH1 0xFF MUL NOT AND SWAP1 DUP4 PUSH1 0x1 DUP2 GT ISZERO PUSH2 0x173F JUMPI PUSH2 0x173E PUSH2 0x25F8 JUMP JUMPDEST JUMPDEST MUL OR SWAP1 SSTORE POP POP JUMPDEST DUP1 PUSH1 0x3 PUSH1 0x0 PUSH2 0x100 EXP DUP2 SLOAD DUP2 PUSH20 0xFFFFFFFFFFFFFFFFFFFFFFFFFFFFFFFFFFFFFFFF MUL NOT AND SWAP1 DUP4 PUSH20 0xFFFFFFFFFFFFFFFFFFFFFFFFFFFFFFFFFFFFFFFF AND MUL OR SWAP1 SSTORE POP POP POP JUMP JUMPDEST PUSH1 0x0 DUP2 PUSH1 0x1 ADD SLOAD EQ DUP1 ISZERO PUSH2 0x17A3 JUMPI POP PUSH1 0x0 DUP2 PUSH1 0x2 ADD SLOAD EQ JUMPDEST DUP1 ISZERO PUSH2 0x17E4 JUMPI POP PUSH1 0x0 PUSH1 0x2 DUP2 GT ISZERO PUSH2 0x17BE JUMPI PUSH2 0x17BD PUSH2 0x25F8 JUMP JUMPDEST JUMPDEST DUP2 PUSH1 0x3 ADD PUSH1 0x0 SWAP1 SLOAD SWAP1 PUSH2 0x100 EXP SWAP1 DIV PUSH1 0xFF AND PUSH1 0x2 DUP2 GT ISZERO PUSH2 0x17E2 JUMPI PUSH2 0x17E1 PUSH2 0x25F8 JUMP JUMPDEST JUMPDEST EQ JUMPDEST PUSH2 0x17F1 JUMPI PUSH2 0x17F0 PUSH2 0x3004 JUMP JUMPDEST JUMPDEST TIMESTAMP DUP2 PUSH1 0x0 ADD DUP2 SWAP1 SSTORE POP DUP2 PUSH32 0x288A29BCA04EDB18FCDB2C76D6E3B03B8A137C85C70D1A4CB8AACFA868D60510 PUSH1 0x40 MLOAD PUSH1 0x40 MLOAD DUP1 SWAP2 SUB SWAP1 LOG2 POP POP JUMP JUMPDEST PUSH1 0x0 PUSH1 0x5 PUSH1 0x0 CALLER PUSH20 0xFFFFFFFFFFFFFFFFFFFFFFFFFFFFFFFFFFFFFFFF AND PUSH20 0xFFFFFFFFFFFFFFFFFFFFFFFFFFFFFFFFFFFFFFFF AND DUP2 MSTORE PUSH1 0x20 ADD SWAP1 DUP2 MSTORE PUSH1 0x20 ADD PUSH1 0x0 KECCAK256 SWAP1 POP PUSH1 0x0 PUSH2 0x187A DUP3 DUP6 PUSH2 0x13E9 JUMP JUMPDEST SWAP1 POP PUSH1 0x0 PUSH1 0x40 MLOAD DUP1 PUSH1 0x40 ADD PUSH1 0x40 MSTORE DUP1 DUP6 PUSH1 0x2 DUP2 GT ISZERO PUSH2 0x189C JUMPI PUSH2 0x189B PUSH2 0x25F8 JUMP JUMPDEST JUMPDEST DUP2 MSTORE PUSH1 0x20 ADD PUSH2 0x18AA CALLER PUSH2 0xA53 JUMP JUMPDEST PUSH16 0xFFFFFFFFFFFFFFFFFFFFFFFFFFFFFFFF AND DUP2 MSTORE POP SWAP1 POP PUSH2 0x18CB DUP3 DUP3 PUSH2 0x1F4B JUMP JUMPDEST ISZERO PUSH2 0x1913 JUMPI DUP2 PUSH1 0x0 ADD MLOAD DUP5 PUSH1 0x40 MLOAD PUSH32 0x3DDD27900000000000000000000000000000000000000000000000000000000 DUP2 MSTORE PUSH1 0x4 ADD PUSH2 0x190A SWAP3 SWAP2 SWAP1 PUSH2 0x320A JUMP JUMPDEST PUSH1 0x40 MLOAD DUP1 SWAP2 SUB SWAP1 REVERT JUMPDEST PUSH1 0x1 PUSH1 0x2 DUP2 GT ISZERO PUSH2 0x1927 JUMPI PUSH2 0x1926 PUSH2 0x25F8 JUMP JUMPDEST JUMPDEST DUP3 PUSH1 0x0 ADD MLOAD PUSH1 0x2 DUP2 GT ISZERO PUSH2 0x193E JUMPI PUSH2 0x193D PUSH2 0x25F8 JUMP JUMPDEST JUMPDEST SUB PUSH2 0x1979 JUMPI DUP2 PUSH1 0x20 ADD MLOAD PUSH16 0xFFFFFFFFFFFFFFFFFFFFFFFFFFFFFFFF AND DUP7 PUSH1 0x1 ADD PUSH1 0x0 DUP3 DUP3 SLOAD PUSH2 0x196D SWAP2 SWAP1 PUSH2 0x30DC JUMP JUMPDEST SWAP3 POP POP DUP2 SWAP1 SSTORE POP PUSH2 0x19DB JUMP JUMPDEST PUSH1 0x2 DUP1 DUP2 GT ISZERO PUSH2 0x198C JUMPI PUSH2 0x198B PUSH2 0x25F8 JUMP JUMPDEST JUMPDEST DUP3 PUSH1 0x0 ADD MLOAD PUSH1 0x2 DUP2 GT ISZERO PUSH2 0x19A3 JUMPI PUSH2 0x19A2 PUSH2 0x25F8 JUMP JUMPDEST JUMPDEST SUB PUSH2 0x19DA JUMPI DUP2 PUSH1 0x20 ADD MLOAD PUSH16 0xFFFFFFFFFFFFFFFFFFFFFFFFFFFFFFFF AND DUP7 PUSH1 0x2 ADD PUSH1 0x0 DUP3 DUP3 SLOAD PUSH2 0x19D2 SWAP2 SWAP1 PUSH2 0x30DC JUMP JUMPDEST SWAP3 POP POP DUP2 SWAP1 SSTORE POP JUMPDEST JUMPDEST PUSH1 0x0 PUSH2 0x19E7 DUP5 DUP8 PUSH2 0x1FBB JUMP JUMPDEST SWAP1 POP PUSH1 0x1 PUSH1 0x2 DUP2 GT ISZERO PUSH2 0x19FD JUMPI PUSH2 0x19FC PUSH2 0x25F8 JUMP JUMPDEST JUMPDEST DUP3 PUSH1 0x0 ADD MLOAD PUSH1 0x2 DUP2 GT ISZERO PUSH2 0x1A14 JUMPI PUSH2 0x1A13 PUSH2 0x25F8 JUMP JUMPDEST JUMPDEST SUB PUSH2 0x1AD9 JUMPI PUSH2 0x1A22 DUP8 PUSH2 0x1217 JUMP JUMPDEST PUSH2 0x1A58 JUMPI PUSH1 0x40 MLOAD PUSH32 0x6D47005400000000000000000000000000000000000000000000000000000000 DUP2 MSTORE PUSH1 0x4 ADD PUSH1 0x40 MLOAD DUP1 SWAP2 SUB SWAP1 REVERT JUMPDEST PUSH1 0x3 PUSH1 0x15 SWAP1 SLOAD SWAP1 PUSH2 0x100 EXP SWAP1 DIV PUSH1 0xFF AND PUSH1 0xFF AND DUP2 LT PUSH2 0x1AA3 JUMPI PUSH1 0x40 MLOAD PUSH32 0x48D8FC9400000000000000000000000000000000000000000000000000000000 DUP2 MSTORE PUSH1 0x4 ADD PUSH1 0x40 MLOAD DUP1 SWAP2 SUB SWAP1 REVERT JUMPDEST DUP2 PUSH1 0x20 ADD MLOAD PUSH16 0xFFFFFFFFFFFFFFFFFFFFFFFFFFFFFFFF AND DUP8 PUSH1 0x1 ADD PUSH1 0x0 DUP3 DUP3 SLOAD PUSH2 0x1ACD SWAP2 SWAP1 PUSH2 0x3233 JUMP JUMPDEST SWAP3 POP POP DUP2 SWAP1 SSTORE POP PUSH2 0x1BB0 JUMP JUMPDEST PUSH1 0x2 DUP1 DUP2 GT ISZERO PUSH2 0x1AEC JUMPI PUSH2 0x1AEB PUSH2 0x25F8 JUMP JUMPDEST JUMPDEST DUP3 PUSH1 0x0 ADD MLOAD PUSH1 0x2 DUP2 GT ISZERO PUSH2 0x1B03 JUMPI PUSH2 0x1B02 PUSH2 0x25F8 JUMP JUMPDEST JUMPDEST SUB PUSH2 0x1B7D JUMPI PUSH2 0x1B11 DUP8 PUSH2 0x136B JUMP JUMPDEST PUSH2 0x1B47 JUMPI PUSH1 0x40 MLOAD PUSH32 0xDE09F8100000000000000000000000000000000000000000000000000000000 DUP2 MSTORE PUSH1 0x4 ADD PUSH1 0x40 MLOAD DUP1 SWAP2 SUB SWAP1 REVERT JUMPDEST DUP2 PUSH1 0x20 ADD MLOAD PUSH16 0xFFFFFFFFFFFFFFFFFFFFFFFFFFFFFFFF AND DUP8 PUSH1 0x2 ADD PUSH1 0x0 DUP3 DUP3 SLOAD PUSH2 0x1B71 SWAP2 SWAP1 PUSH2 0x3233 JUMP JUMPDEST SWAP3 POP POP DUP2 SWAP1 SSTORE POP PUSH2 0x1BAF JUMP JUMPDEST PUSH1 0x40 MLOAD PUSH32 0xD5DD0C6600000000000000000000000000000000000000000000000000000000 DUP2 MSTORE PUSH1 0x4 ADD PUSH1 0x40 MLOAD DUP1 SWAP2 SUB SWAP1 REVERT JUMPDEST JUMPDEST PUSH2 0x1BBB DUP5 DUP8 DUP5 PUSH2 0x216F JUMP JUMPDEST PUSH1 0x0 DUP3 PUSH1 0x20 ADD MLOAD PUSH16 0xFFFFFFFFFFFFFFFFFFFFFFFFFFFFFFFF AND SUB PUSH2 0x1C31 JUMPI CALLER PUSH20 0xFFFFFFFFFFFFFFFFFFFFFFFFFFFFFFFFFFFFFFFF AND DUP7 PUSH32 0x60921DE1A934E80AF973D90EDBCA67A078F0DC03D7385B9031FF925B3A2AB820 DUP5 PUSH1 0x0 ADD MLOAD PUSH1 0x40 MLOAD PUSH2 0x1C24 SWAP2 SWAP1 PUSH2 0x3267 JUMP JUMPDEST PUSH1 0x40 MLOAD DUP1 SWAP2 SUB SWAP1 LOG3 PUSH2 0x1C81 JUMP JUMPDEST CALLER PUSH20 0xFFFFFFFFFFFFFFFFFFFFFFFFFFFFFFFFFFFFFFFF AND DUP7 PUSH32 0xCD907020340D41D9B3FB53725F52264110FC156B0059B7817F4FE29F25A96CEF DUP5 PUSH1 0x40 MLOAD PUSH2 0x1C78 SWAP2 SWAP1 PUSH2 0x2A4E JUMP JUMPDEST PUSH1 0x40 MLOAD DUP1 SWAP2 SUB SWAP1 LOG3 JUMPDEST POP POP POP POP POP POP POP JUMP JUMPDEST PUSH1 0x0 DUP1 DUP3 PUSH1 0x0 ADD SLOAD TIMESTAMP PUSH2 0x1C9D SWAP2 SWAP1 PUSH2 0x30DC JUMP JUMPDEST SWAP1 POP PUSH1 0x1 PUSH1 0x0 SWAP1 SLOAD SWAP1 PUSH2 0x100 EXP SWAP1 DIV PUSH8 0xFFFFFFFFFFFFFFFF AND PUSH1 0x0 PUSH1 0x14 SWAP1 SLOAD SWAP1 PUSH2 0x100 EXP SWAP1 DIV PUSH8 0xFFFFFFFFFFFFFFFF AND PUSH2 0x1CD7 SWAP2 SWAP1 PUSH2 0x3110 JUMP JUMPDEST PUSH8 0xFFFFFFFFFFFFFFFF AND DUP2 LT SWAP2 POP POP SWAP2 SWAP1 POP JUMP JUMPDEST PUSH1 0x0 DUP2 PUSH1 0x1 ADD SLOAD PUSH1 0x2 DUP4 PUSH1 0x2 ADD SLOAD PUSH2 0x1D03 SWAP2 SWAP1 PUSH2 0x3282 JUMP JUMPDEST LT DUP1 ISZERO PUSH2 0x1D16 JUMPI POP PUSH1 0x2 SLOAD DUP3 PUSH1 0x1 ADD SLOAD LT ISZERO JUMPDEST SWAP1 POP SWAP2 SWAP1 POP JUMP JUMPDEST PUSH1 0x0 CALLER SWAP1 POP SWAP1 JUMP JUMPDEST PUSH1 0x0 DUP1 PUSH1 0x0 DUP5 PUSH1 0x2 ADD PUSH1 0x0 DUP6 DUP2 MSTORE PUSH1 0x20 ADD SWAP1 DUP2 MSTORE PUSH1 0x20 ADD PUSH1 0x0 KECCAK256 SLOAD SWAP1 POP PUSH1 0x0 DUP1 SHL DUP2 SUB PUSH2 0x1D64 JUMPI PUSH2 0x1D56 DUP6 DUP6 PUSH2 0x2192 JUMP JUMPDEST PUSH1 0x0 DUP1 SHL SWAP3 POP SWAP3 POP POP PUSH2 0x1D6D JUMP JUMPDEST PUSH1 0x1 DUP2 SWAP3 POP SWAP3 POP POP JUMPDEST SWAP3 POP SWAP3 SWAP1 POP JUMP JUMPDEST PUSH2 0x1D7C PUSH2 0x2519 JUMP JUMPDEST PUSH1 0x0 DUP3 PUSH1 0x80 SHR SWAP1 POP PUSH1 0x1 PUSH16 0xFFFFFFFFFFFFFFFFFFFFFFFFFFFFFFFF PUSH2 0x1DA1 SWAP2 SWAP1 PUSH2 0x2FC0 JUMP JUMPDEST PUSH16 0xFFFFFFFFFFFFFFFFFFFFFFFFFFFFFFFF AND DUP2 PUSH16 0xFFFFFFFFFFFFFFFFFFFFFFFFFFFFFFFF AND GT ISZERO PUSH2 0x1DD5 JUMPI PUSH2 0x1DD4 PUSH2 0x3004 JUMP JUMPDEST JUMPDEST PUSH1 0x0 PUSH1 0x80 DUP5 SWAP1 SHR PUSH1 0xF8 SHR PUSH1 0xFF AND PUSH1 0x2 DUP2 GT ISZERO PUSH2 0x1DF4 JUMPI PUSH2 0x1DF3 PUSH2 0x25F8 JUMP JUMPDEST JUMPDEST SWAP1 POP PUSH1 0x1 PUSH1 0x2 DUP2 GT ISZERO PUSH2 0x1E0A JUMPI PUSH2 0x1E09 PUSH2 0x25F8 JUMP JUMPDEST JUMPDEST DUP2 PUSH1 0x2 DUP2 GT ISZERO PUSH2 0x1E1D JUMPI PUSH2 0x1E1C PUSH2 0x25F8 JUMP JUMPDEST JUMPDEST EQ DUP1 PUSH2 0x1E4C JUMPI POP PUSH1 0x2 DUP1 DUP2 GT ISZERO PUSH2 0x1E37 JUMPI PUSH2 0x1E36 PUSH2 0x25F8 JUMP JUMPDEST JUMPDEST DUP2 PUSH1 0x2 DUP2 GT ISZERO PUSH2 0x1E4A JUMPI PUSH2 0x1E49 PUSH2 0x25F8 JUMP JUMPDEST JUMPDEST EQ JUMPDEST PUSH2 0x1E59 JUMPI PUSH2 0x1E58 PUSH2 0x3004 JUMP JUMPDEST JUMPDEST PUSH1 0x40 MLOAD DUP1 PUSH1 0x40 ADD PUSH1 0x40 MSTORE DUP1 DUP3 PUSH1 0x2 DUP2 GT ISZERO PUSH2 0x1E77 JUMPI PUSH2 0x1E76 PUSH2 0x25F8 JUMP JUMPDEST JUMPDEST DUP2 MSTORE PUSH1 0x20 ADD DUP4 PUSH16 0xFFFFFFFFFFFFFFFFFFFFFFFFFFFFFFFF AND DUP2 MSTORE POP SWAP3 POP POP POP SWAP2 SWAP1 POP JUMP JUMPDEST PUSH1 0x0 PUSH1 0x3 DUP1 DUP2 GT ISZERO PUSH2 0x1EB0 JUMPI PUSH2 0x1EAF PUSH2 0x25F8 JUMP JUMPDEST JUMPDEST DUP3 PUSH1 0x3 DUP2 GT ISZERO PUSH2 0x1EC3 JUMPI PUSH2 0x1EC2 PUSH2 0x25F8 JUMP JUMPDEST JUMPDEST EQ DUP1 PUSH2 0x1F04 JUMPI POP PUSH1 0x1 PUSH1 0x2 DUP2 GT ISZERO PUSH2 0x1EDE JUMPI PUSH2 0x1EDD PUSH2 0x25F8 JUMP JUMPDEST JUMPDEST DUP4 PUSH1 0x3 ADD PUSH1 0x0 SWAP1 SLOAD SWAP1 PUSH2 0x100 EXP SWAP1 DIV PUSH1 0xFF AND PUSH1 0x2 DUP2 GT ISZERO PUSH2 0x1F02 JUMPI PUSH2 0x1F01 PUSH2 0x25F8 JUMP JUMPDEST JUMPDEST EQ JUMPDEST DUP1 PUSH2 0x1F43 JUMPI POP PUSH1 0x2 DUP1 DUP2 GT ISZERO PUSH2 0x1F1D JUMPI PUSH2 0x1F1C PUSH2 0x25F8 JUMP JUMPDEST JUMPDEST DUP4 PUSH1 0x3 ADD PUSH1 0x0 SWAP1 SLOAD SWAP1 PUSH2 0x100 EXP SWAP1 DIV PUSH1 0xFF AND PUSH1 0x2 DUP2 GT ISZERO PUSH2 0x1F41 JUMPI PUSH2 0x1F40 PUSH2 0x25F8 JUMP JUMPDEST JUMPDEST EQ JUMPDEST SWAP1 POP SWAP3 SWAP2 POP POP JUMP JUMPDEST PUSH1 0x0 DUP2 PUSH1 0x0 ADD MLOAD PUSH1 0x2 DUP2 GT ISZERO PUSH2 0x1F64 JUMPI PUSH2 0x1F63 PUSH2 0x25F8 JUMP JUMPDEST JUMPDEST DUP4 PUSH1 0x0 ADD MLOAD PUSH1 0x2 DUP2 GT ISZERO PUSH2 0x1F7B JUMPI PUSH2 0x1F7A PUSH2 0x25F8 JUMP JUMPDEST JUMPDEST EQ DUP1 ISZERO PUSH2 0x1FB3 JUMPI POP DUP2 PUSH1 0x20 ADD MLOAD PUSH16 0xFFFFFFFFFFFFFFFFFFFFFFFFFFFFFFFF AND DUP4 PUSH1 0x20 ADD MLOAD PUSH16 0xFFFFFFFFFFFFFFFFFFFFFFFFFFFFFFFF AND EQ JUMPDEST SWAP1 POP SWAP3 SWAP2 POP POP JUMP JUMPDEST PUSH1 0x0 DUP1 PUSH2 0x1FC7 DUP5 PUSH2 0x21B2 JUMP JUMPDEST SWAP1 POP PUSH1 0x0 DUP2 PUSH8 0xFFFFFFFFFFFFFFFF DUP2 GT ISZERO PUSH2 0x1FE5 JUMPI PUSH2 0x1FE4 PUSH2 0x32C4 JUMP JUMPDEST JUMPDEST PUSH1 0x40 MLOAD SWAP1 DUP1 DUP3 MSTORE DUP1 PUSH1 0x20 MUL PUSH1 0x20 ADD DUP3 ADD PUSH1 0x40 MSTORE DUP1 ISZERO PUSH2 0x2013 JUMPI DUP2 PUSH1 0x20 ADD PUSH1 0x20 DUP3 MUL DUP1 CALLDATASIZE DUP4 CALLDATACOPY DUP1 DUP3 ADD SWAP2 POP POP SWAP1 POP JUMPDEST POP SWAP1 POP PUSH1 0x0 DUP1 PUSH1 0x0 JUMPDEST DUP5 DUP2 LT ISZERO PUSH2 0x211A JUMPI PUSH1 0x0 DUP1 PUSH2 0x203A DUP4 DUP12 PUSH2 0x21C7 SWAP1 SWAP2 SWAP1 PUSH4 0xFFFFFFFF AND JUMP JUMPDEST SWAP2 POP SWAP2 POP PUSH1 0x0 DUP3 SWAP1 POP PUSH1 0x0 PUSH1 0x4 PUSH1 0x0 DUP4 DUP2 MSTORE PUSH1 0x20 ADD SWAP1 DUP2 MSTORE PUSH1 0x20 ADD PUSH1 0x0 KECCAK256 SWAP1 POP PUSH2 0x2063 DUP2 PUSH2 0x13D8 JUMP JUMPDEST ISZERO DUP1 PUSH2 0x2074 JUMPI POP PUSH2 0x2073 DUP2 PUSH2 0x1468 JUMP JUMPDEST JUMPDEST ISZERO PUSH2 0x20AD JUMPI DUP2 DUP9 DUP9 DUP2 MLOAD DUP2 LT PUSH2 0x208D JUMPI PUSH2 0x208C PUSH2 0x32F3 JUMP JUMPDEST JUMPDEST PUSH1 0x20 MUL PUSH1 0x20 ADD ADD DUP2 DUP2 MSTORE POP POP PUSH1 0x1 DUP8 PUSH2 0x20A6 SWAP2 SWAP1 PUSH2 0x3233 JUMP JUMPDEST SWAP7 POP PUSH2 0x2109 JUMP JUMPDEST PUSH1 0x0 PUSH2 0x20B8 DUP5 PUSH2 0x1D74 JUMP JUMPDEST SWAP1 POP PUSH1 0x1 PUSH1 0x2 DUP2 GT ISZERO PUSH2 0x20CE JUMPI PUSH2 0x20CD PUSH2 0x25F8 JUMP JUMPDEST JUMPDEST DUP2 PUSH1 0x0 ADD MLOAD PUSH1 0x2 DUP2 GT ISZERO PUSH2 0x20E5 JUMPI PUSH2 0x20E4 PUSH2 0x25F8 JUMP JUMPDEST JUMPDEST EQ DUP1 ISZERO PUSH2 0x20F2 JUMPI POP DUP12 DUP4 EQ ISZERO JUMPDEST ISZERO PUSH2 0x2107 JUMPI PUSH1 0x1 DUP8 PUSH2 0x2104 SWAP2 SWAP1 PUSH2 0x3233 JUMP JUMPDEST SWAP7 POP JUMPDEST POP JUMPDEST POP POP POP POP DUP1 DUP1 PUSH1 0x1 ADD SWAP2 POP POP PUSH2 0x201C JUMP JUMPDEST POP PUSH1 0x0 JUMPDEST DUP3 DUP2 LT ISZERO PUSH2 0x2161 JUMPI PUSH2 0x2153 DUP5 DUP3 DUP2 MLOAD DUP2 LT PUSH2 0x213C JUMPI PUSH2 0x213B PUSH2 0x32F3 JUMP JUMPDEST JUMPDEST PUSH1 0x20 MUL PUSH1 0x20 ADD ADD MLOAD DUP10 PUSH2 0x2207 SWAP1 SWAP2 SWAP1 PUSH4 0xFFFFFFFF AND JUMP JUMPDEST POP DUP1 DUP1 PUSH1 0x1 ADD SWAP2 POP POP PUSH2 0x211E JUMP JUMPDEST POP DUP1 SWAP5 POP POP POP POP POP SWAP3 SWAP2 POP POP JUMP JUMPDEST PUSH2 0x218C DUP3 PUSH2 0x217C DUP4 PUSH2 0x2240 JUMP JUMPDEST DUP6 PUSH2 0x228A SWAP1 SWAP3 SWAP2 SWAP1 PUSH4 0xFFFFFFFF AND JUMP JUMPDEST POP POP POP POP JUMP JUMPDEST PUSH1 0x0 PUSH2 0x21AA DUP3 DUP5 PUSH1 0x0 ADD PUSH2 0x22C5 SWAP1 SWAP2 SWAP1 PUSH4 0xFFFFFFFF AND JUMP JUMPDEST SWAP1 POP SWAP3 SWAP2 POP POP JUMP JUMPDEST PUSH1 0x0 PUSH2 0x21C0 DUP3 PUSH1 0x0 ADD PUSH2 0x22DC JUMP JUMPDEST SWAP1 POP SWAP2 SWAP1 POP JUMP JUMPDEST PUSH1 0x0 DUP1 PUSH1 0x0 PUSH2 0x21E2 DUP5 DUP7 PUSH1 0x0 ADD PUSH2 0x22F1 SWAP1 SWAP2 SWAP1 PUSH4 0xFFFFFFFF AND JUMP JUMPDEST SWAP1 POP DUP1 DUP6 PUSH1 0x2 ADD PUSH1 0x0 DUP4 DUP2 MSTORE PUSH1 0x20 ADD SWAP1 DUP2 MSTORE PUSH1 0x20 ADD PUSH1 0x0 KECCAK256 SLOAD SWAP3 POP SWAP3 POP POP SWAP3 POP SWAP3 SWAP1 POP JUMP JUMPDEST PUSH1 0x0 DUP3 PUSH1 0x2 ADD PUSH1 0x0 DUP4 DUP2 MSTORE PUSH1 0x20 ADD SWAP1 DUP2 MSTORE PUSH1 0x20 ADD PUSH1 0x0 KECCAK256 PUSH1 0x0 SWAP1 SSTORE PUSH2 0x2238 DUP3 DUP5 PUSH1 0x0 ADD PUSH2 0x2308 SWAP1 SWAP2 SWAP1 PUSH4 0xFFFFFFFF AND JUMP JUMPDEST SWAP1 POP SWAP3 SWAP2 POP POP JUMP JUMPDEST PUSH1 0x0 DUP1 DUP3 PUSH1 0x20 ADD MLOAD SWAP1 POP PUSH1 0x0 DUP2 PUSH16 0xFFFFFFFFFFFFFFFFFFFFFFFFFFFFFFFF AND PUSH1 0x80 DUP6 PUSH1 0x0 ADD MLOAD PUSH1 0x2 DUP2 GT ISZERO PUSH2 0x2278 JUMPI PUSH2 0x2277 PUSH2 0x25F8 JUMP JUMPDEST JUMPDEST SWAP1 SHL OR SWAP1 POP DUP1 PUSH1 0x0 SHL SWAP3 POP POP POP SWAP2 SWAP1 POP JUMP JUMPDEST PUSH1 0x0 DUP2 DUP5 PUSH1 0x2 ADD PUSH1 0x0 DUP6 DUP2 MSTORE PUSH1 0x20 ADD SWAP1 DUP2 MSTORE PUSH1 0x20 ADD PUSH1 0x0 KECCAK256 DUP2 SWAP1 SSTORE POP PUSH2 0x22BC DUP4 DUP6 PUSH1 0x0 ADD PUSH2 0x231F SWAP1 SWAP2 SWAP1 PUSH4 0xFFFFFFFF AND JUMP JUMPDEST SWAP1 POP SWAP4 SWAP3 POP POP POP JUMP JUMPDEST PUSH1 0x0 PUSH2 0x22D4 DUP4 PUSH1 0x0 ADD DUP4 PUSH2 0x2336 JUMP JUMPDEST SWAP1 POP SWAP3 SWAP2 POP POP JUMP JUMPDEST PUSH1 0x0 PUSH2 0x22EA DUP3 PUSH1 0x0 ADD PUSH2 0x2359 JUMP JUMPDEST SWAP1 POP SWAP2 SWAP1 POP JUMP JUMPDEST PUSH1 0x0 PUSH2 0x2300 DUP4 PUSH1 0x0 ADD DUP4 PUSH2 0x236A JUMP JUMPDEST SWAP1 POP SWAP3 SWAP2 POP POP JUMP JUMPDEST PUSH1 0x0 PUSH2 0x2317 DUP4 PUSH1 0x0 ADD DUP4 PUSH2 0x2395 JUMP JUMPDEST SWAP1 POP SWAP3 SWAP2 POP POP JUMP JUMPDEST PUSH1 0x0 PUSH2 0x232E DUP4 PUSH1 0x0 ADD DUP4 PUSH2 0x24A9 JUMP JUMPDEST SWAP1 POP SWAP3 SWAP2 POP POP JUMP JUMPDEST PUSH1 0x0 DUP1 DUP4 PUSH1 0x1 ADD PUSH1 0x0 DUP5 DUP2 MSTORE PUSH1 0x20 ADD SWAP1 DUP2 MSTORE PUSH1 0x20 ADD PUSH1 0x0 KECCAK256 SLOAD EQ ISZERO SWAP1 POP SWAP3 SWAP2 POP POP JUMP JUMPDEST PUSH1 0x0 DUP2 PUSH1 0x0 ADD DUP1 SLOAD SWAP1 POP SWAP1 POP SWAP2 SWAP1 POP JUMP JUMPDEST PUSH1 0x0 DUP3 PUSH1 0x0 ADD DUP3 DUP2 SLOAD DUP2 LT PUSH2 0x2382 JUMPI PUSH2 0x2381 PUSH2 0x32F3 JUMP JUMPDEST JUMPDEST SWAP1 PUSH1 0x0 MSTORE PUSH1 0x20 PUSH1 0x0 KECCAK256 ADD SLOAD SWAP1 POP SWAP3 SWAP2 POP POP JUMP JUMPDEST PUSH1 0x0 DUP1 DUP4 PUSH1 0x1 ADD PUSH1 0x0 DUP5 DUP2 MSTORE PUSH1 0x20 ADD SWAP1 DUP2 MSTORE PUSH1 0x20 ADD PUSH1 0x0 KECCAK256 SLOAD SWAP1 POP PUSH1 0x0 DUP2 EQ PUSH2 0x249D JUMPI PUSH1 0x0 PUSH1 0x1 DUP3 PUSH2 0x23C7 SWAP2 SWAP1 PUSH2 0x30DC JUMP JUMPDEST SWAP1 POP PUSH1 0x0 PUSH1 0x1 DUP7 PUSH1 0x0 ADD DUP1 SLOAD SWAP1 POP PUSH2 0x23DF SWAP2 SWAP1 PUSH2 0x30DC JUMP JUMPDEST SWAP1 POP DUP1 DUP3 EQ PUSH2 0x244E JUMPI PUSH1 0x0 DUP7 PUSH1 0x0 ADD DUP3 DUP2 SLOAD DUP2 LT PUSH2 0x2400 JUMPI PUSH2 0x23FF PUSH2 0x32F3 JUMP JUMPDEST JUMPDEST SWAP1 PUSH1 0x0 MSTORE PUSH1 0x20 PUSH1 0x0 KECCAK256 ADD SLOAD SWAP1 POP DUP1 DUP8 PUSH1 0x0 ADD DUP5 DUP2 SLOAD DUP2 LT PUSH2 0x2424 JUMPI PUSH2 0x2423 PUSH2 0x32F3 JUMP JUMPDEST JUMPDEST SWAP1 PUSH1 0x0 MSTORE PUSH1 0x20 PUSH1 0x0 KECCAK256 ADD DUP2 SWAP1 SSTORE POP DUP4 DUP8 PUSH1 0x1 ADD PUSH1 0x0 DUP4 DUP2 MSTORE PUSH1 0x20 ADD SWAP1 DUP2 MSTORE PUSH1 0x20 ADD PUSH1 0x0 KECCAK256 DUP2 SWAP1 SSTORE POP POP JUMPDEST DUP6 PUSH1 0x0 ADD DUP1 SLOAD DUP1 PUSH2 0x2462 JUMPI PUSH2 0x2461 PUSH2 0x3322 JUMP JUMPDEST JUMPDEST PUSH1 0x1 SWAP1 SUB DUP2 DUP2 SWAP1 PUSH1 0x0 MSTORE PUSH1 0x20 PUSH1 0x0 KECCAK256 ADD PUSH1 0x0 SWAP1 SSTORE SWAP1 SSTORE DUP6 PUSH1 0x1 ADD PUSH1 0x0 DUP7 DUP2 MSTORE PUSH1 0x20 ADD SWAP1 DUP2 MSTORE PUSH1 0x20 ADD PUSH1 0x0 KECCAK256 PUSH1 0x0 SWAP1 SSTORE PUSH1 0x1 SWAP4 POP POP POP POP PUSH2 0x24A3 JUMP JUMPDEST PUSH1 0x0 SWAP2 POP POP JUMPDEST SWAP3 SWAP2 POP POP JUMP JUMPDEST PUSH1 0x0 PUSH2 0x24B5 DUP4 DUP4 PUSH2 0x2336 JUMP JUMPDEST PUSH2 0x250E JUMPI DUP3 PUSH1 0x0 ADD DUP3 SWAP1 DUP1 PUSH1 0x1 DUP2 SLOAD ADD DUP1 DUP3 SSTORE DUP1 SWAP2 POP POP PUSH1 0x1 SWAP1 SUB SWAP1 PUSH1 0x0 MSTORE PUSH1 0x20 PUSH1 0x0 KECCAK256 ADD PUSH1 0x0 SWAP1 SWAP2 SWAP1 SWAP2 SWAP1 SWAP2 POP SSTORE DUP3 PUSH1 0x0 ADD DUP1 SLOAD SWAP1 POP DUP4 PUSH1 0x1 ADD PUSH1 0x0 DUP5 DUP2 MSTORE PUSH1 0x20 ADD SWAP1 DUP2 MSTORE PUSH1 0x20 ADD PUSH1 0x0 KECCAK256 DUP2 SWAP1 SSTORE POP PUSH1 0x1 SWAP1 POP PUSH2 0x2513 JUMP JUMPDEST PUSH1 0x0 SWAP1 POP JUMPDEST SWAP3 SWAP2 POP POP JUMP JUMPDEST PUSH1 0x40 MLOAD DUP1 PUSH1 0x40 ADD PUSH1 0x40 MSTORE DUP1 PUSH1 0x0 PUSH1 0x2 DUP2 GT ISZERO PUSH2 0x2538 JUMPI PUSH2 0x2537 PUSH2 0x25F8 JUMP JUMPDEST JUMPDEST DUP2 MSTORE PUSH1 0x20 ADD PUSH1 0x0 PUSH16 0xFFFFFFFFFFFFFFFFFFFFFFFFFFFFFFFF AND DUP2 MSTORE POP SWAP1 JUMP JUMPDEST PUSH1 0x0 DUP2 SWAP1 POP SWAP2 SWAP1 POP JUMP JUMPDEST PUSH2 0x256A DUP2 PUSH2 0x2557 JUMP JUMPDEST DUP3 MSTORE POP POP JUMP JUMPDEST PUSH1 0x0 PUSH1 0x20 DUP3 ADD SWAP1 POP PUSH2 0x2585 PUSH1 0x0 DUP4 ADD DUP5 PUSH2 0x2561 JUMP JUMPDEST SWAP3 SWAP2 POP POP JUMP JUMPDEST PUSH1 0x0 DUP1 REVERT JUMPDEST PUSH1 0x0 DUP1 REVERT JUMPDEST PUSH1 0x0 DUP2 SWAP1 POP SWAP2 SWAP1 POP JUMP JUMPDEST PUSH2 0x25A8 DUP2 PUSH2 0x2595 JUMP JUMPDEST DUP2 EQ PUSH2 0x25B3 JUMPI PUSH1 0x0 DUP1 REVERT JUMPDEST POP JUMP JUMPDEST PUSH1 0x0 DUP2 CALLDATALOAD SWAP1 POP PUSH2 0x25C5 DUP2 PUSH2 0x259F JUMP JUMPDEST SWAP3 SWAP2 POP POP JUMP JUMPDEST PUSH1 0x0 PUSH1 0x20 DUP3 DUP5 SUB SLT ISZERO PUSH2 0x25E1 JUMPI PUSH2 0x25E0 PUSH2 0x258B JUMP JUMPDEST JUMPDEST PUSH1 0x0 PUSH2 0x25EF DUP5 DUP3 DUP6 ADD PUSH2 0x25B6 JUMP JUMPDEST SWAP2 POP POP SWAP3 SWAP2 POP POP JUMP JUMPDEST PUSH32 0x4E487B7100000000000000000000000000000000000000000000000000000000 PUSH1 0x0 MSTORE PUSH1 0x21 PUSH1 0x4 MSTORE PUSH1 0x24 PUSH1 0x0 REVERT JUMPDEST PUSH1 0x4 DUP2 LT PUSH2 0x2638 JUMPI PUSH2 0x2637 PUSH2 0x25F8 JUMP JUMPDEST JUMPDEST POP JUMP JUMPDEST PUSH1 0x0 DUP2 SWAP1 POP PUSH2 0x2649 DUP3 PUSH2 0x2627 JUMP JUMPDEST SWAP2 SWAP1 POP JUMP JUMPDEST PUSH1 0x0 PUSH2 0x2659 DUP3 PUSH2 0x263B JUMP JUMPDEST SWAP1 POP SWAP2 SWAP1 POP JUMP JUMPDEST PUSH2 0x2669 DUP2 PUSH2 0x264E JUMP JUMPDEST DUP3 MSTORE POP POP JUMP JUMPDEST PUSH1 0x0 PUSH1 0x20 DUP3 ADD SWAP1 POP PUSH2 0x2684 PUSH1 0x0 DUP4 ADD DUP5 PUSH2 0x2660 JUMP JUMPDEST SWAP3 SWAP2 POP POP JUMP JUMPDEST PUSH1 0x0 PUSH8 0xFFFFFFFFFFFFFFFF DUP3 AND SWAP1 POP SWAP2 SWAP1 POP JUMP JUMPDEST PUSH2 0x26A7 DUP2 PUSH2 0x268A JUMP JUMPDEST DUP3 MSTORE POP POP JUMP JUMPDEST PUSH1 0x0 PUSH1 0x20 DUP3 ADD SWAP1 POP PUSH2 0x26C2 PUSH1 0x0 DUP4 ADD DUP5 PUSH2 0x269E JUMP JUMPDEST SWAP3 SWAP2 POP POP JUMP JUMPDEST PUSH1 0x0 DUP2 ISZERO ISZERO SWAP1 POP SWAP2 SWAP1 POP JUMP JUMPDEST PUSH2 0x26DD DUP2 PUSH2 0x26C8 JUMP JUMPDEST DUP3 MSTORE POP POP JUMP JUMPDEST PUSH1 0x0 PUSH1 0x20 DUP3 ADD SWAP1 POP PUSH2 0x26F8 PUSH1 0x0 DUP4 ADD DUP5 PUSH2 0x26D4 JUMP JUMPDEST SWAP3 SWAP2 POP POP JUMP JUMPDEST PUSH1 0x0 PUSH1 0xFF DUP3 AND SWAP1 POP SWAP2 SWAP1 POP JUMP JUMPDEST PUSH2 0x2714 DUP2 PUSH2 0x26FE JUMP JUMPDEST DUP2 EQ PUSH2 0x271F JUMPI PUSH1 0x0 DUP1 REVERT JUMPDEST POP JUMP JUMPDEST PUSH1 0x0 DUP2 CALLDATALOAD SWAP1 POP PUSH2 0x2731 DUP2 PUSH2 0x270B JUMP JUMPDEST SWAP3 SWAP2 POP POP JUMP JUMPDEST PUSH1 0x0 DUP1 REVERT JUMPDEST PUSH1 0x0 DUP1 REVERT JUMPDEST PUSH1 0x0 DUP1 REVERT JUMPDEST PUSH1 0x0 DUP1 DUP4 PUSH1 0x1F DUP5 ADD SLT PUSH2 0x275C JUMPI PUSH2 0x275B PUSH2 0x2737 JUMP JUMPDEST JUMPDEST DUP3 CALLDATALOAD SWAP1 POP PUSH8 0xFFFFFFFFFFFFFFFF DUP2 GT ISZERO PUSH2 0x2779 JUMPI PUSH2 0x2778 PUSH2 0x273C JUMP JUMPDEST JUMPDEST PUSH1 0x20 DUP4 ADD SWAP2 POP DUP4 PUSH1 0x1 DUP3 MUL DUP4 ADD GT ISZERO PUSH2 0x2795 JUMPI PUSH2 0x2794 PUSH2 0x2741 JUMP JUMPDEST JUMPDEST SWAP3 POP SWAP3 SWAP1 POP JUMP JUMPDEST PUSH1 0x0 DUP1 PUSH1 0x0 PUSH1 0x40 DUP5 DUP7 SUB SLT ISZERO PUSH2 0x27B5 JUMPI PUSH2 0x27B4 PUSH2 0x258B JUMP JUMPDEST JUMPDEST PUSH1 0x0 PUSH2 0x27C3 DUP7 DUP3 DUP8 ADD PUSH2 0x2722 JUMP JUMPDEST SWAP4 POP POP PUSH1 0x20 DUP5 ADD CALLDATALOAD PUSH8 0xFFFFFFFFFFFFFFFF DUP2 GT ISZERO PUSH2 0x27E4 JUMPI PUSH2 0x27E3 PUSH2 0x2590 JUMP JUMPDEST JUMPDEST PUSH2 0x27F0 DUP7 DUP3 DUP8 ADD PUSH2 0x2746 JUMP JUMPDEST SWAP3 POP SWAP3 POP POP SWAP3 POP SWAP3 POP SWAP3 JUMP JUMPDEST PUSH2 0x2805 DUP2 PUSH2 0x2557 JUMP JUMPDEST DUP2 EQ PUSH2 0x2810 JUMPI PUSH1 0x0 DUP1 REVERT JUMPDEST POP JUMP JUMPDEST PUSH1 0x0 DUP2 CALLDATALOAD SWAP1 POP PUSH2 0x2822 DUP2 PUSH2 0x27FC JUMP JUMPDEST SWAP3 SWAP2 POP POP JUMP JUMPDEST PUSH1 0x0 PUSH1 0x20 DUP3 DUP5 SUB SLT ISZERO PUSH2 0x283E JUMPI PUSH2 0x283D PUSH2 0x258B JUMP JUMPDEST JUMPDEST PUSH1 0x0 PUSH2 0x284C DUP5 DUP3 DUP6 ADD PUSH2 0x2813 JUMP JUMPDEST SWAP2 POP POP SWAP3 SWAP2 POP POP JUMP JUMPDEST PUSH1 0x3 DUP2 LT PUSH2 0x2866 JUMPI PUSH2 0x2865 PUSH2 0x25F8 JUMP JUMPDEST JUMPDEST POP JUMP JUMPDEST PUSH1 0x0 DUP2 SWAP1 POP PUSH2 0x2877 DUP3 PUSH2 0x2855 JUMP JUMPDEST SWAP2 SWAP1 POP JUMP JUMPDEST PUSH1 0x0 PUSH2 0x2887 DUP3 PUSH2 0x2869 JUMP JUMPDEST SWAP1 POP SWAP2 SWAP1 POP JUMP JUMPDEST PUSH2 0x2897 DUP2 PUSH2 0x287C JUMP JUMPDEST DUP3 MSTORE POP POP JUMP JUMPDEST PUSH1 0x0 PUSH1 0x80 DUP3 ADD SWAP1 POP PUSH2 0x28B2 PUSH1 0x0 DUP4 ADD DUP8 PUSH2 0x2561 JUMP JUMPDEST PUSH2 0x28BF PUSH1 0x20 DUP4 ADD DUP7 PUSH2 0x2561 JUMP JUMPDEST PUSH2 0x28CC PUSH1 0x40 DUP4 ADD DUP6 PUSH2 0x2561 JUMP JUMPDEST PUSH2 0x28D9 PUSH1 0x60 DUP4 ADD DUP5 PUSH2 0x288E JUMP JUMPDEST SWAP6 SWAP5 POP POP POP POP POP JUMP JUMPDEST PUSH1 0x0 PUSH20 0xFFFFFFFFFFFFFFFFFFFFFFFFFFFFFFFFFFFFFFFF DUP3 AND SWAP1 POP SWAP2 SWAP1 POP JUMP JUMPDEST PUSH1 0x0 PUSH2 0x290D DUP3 PUSH2 0x28E2 JUMP JUMPDEST SWAP1 POP SWAP2 SWAP1 POP JUMP JUMPDEST PUSH2 0x291D DUP2 PUSH2 0x2902 JUMP JUMPDEST DUP2 EQ PUSH2 0x2928 JUMPI PUSH1 0x0 DUP1 REVERT JUMPDEST POP JUMP JUMPDEST PUSH1 0x0 DUP2 CALLDATALOAD SWAP1 POP PUSH2 0x293A DUP2 PUSH2 0x2914 JUMP JUMPDEST SWAP3 SWAP2 POP POP JUMP JUMPDEST PUSH1 0x0 DUP1 PUSH1 0x40 DUP4 DUP6 SUB SLT ISZERO PUSH2 0x2957 JUMPI PUSH2 0x2956 PUSH2 0x258B JUMP JUMPDEST JUMPDEST PUSH1 0x0 PUSH2 0x2965 DUP6 DUP3 DUP7 ADD PUSH2 0x25B6 JUMP JUMPDEST SWAP3 POP POP PUSH1 0x20 PUSH2 0x2976 DUP6 DUP3 DUP7 ADD PUSH2 0x292B JUMP JUMPDEST SWAP2 POP POP SWAP3 POP SWAP3 SWAP1 POP JUMP JUMPDEST PUSH1 0x3 DUP2 LT PUSH2 0x2991 JUMPI PUSH2 0x2990 PUSH2 0x25F8 JUMP JUMPDEST JUMPDEST POP JUMP JUMPDEST PUSH1 0x0 DUP2 SWAP1 POP PUSH2 0x29A2 DUP3 PUSH2 0x2980 JUMP JUMPDEST SWAP2 SWAP1 POP JUMP JUMPDEST PUSH1 0x0 PUSH2 0x29B2 DUP3 PUSH2 0x2994 JUMP JUMPDEST SWAP1 POP SWAP2 SWAP1 POP JUMP JUMPDEST PUSH2 0x29C2 DUP2 PUSH2 0x29A7 JUMP JUMPDEST DUP3 MSTORE POP POP JUMP JUMPDEST PUSH1 0x0 PUSH16 0xFFFFFFFFFFFFFFFFFFFFFFFFFFFFFFFF DUP3 AND SWAP1 POP SWAP2 SWAP1 POP JUMP JUMPDEST PUSH1 0x0 DUP2 SWAP1 POP SWAP2 SWAP1 POP JUMP JUMPDEST PUSH1 0x0 PUSH2 0x2A09 PUSH2 0x2A04 PUSH2 0x29FF DUP5 PUSH2 0x29C8 JUMP JUMPDEST PUSH2 0x29E4 JUMP JUMPDEST PUSH2 0x29C8 JUMP JUMPDEST SWAP1 POP SWAP2 SWAP1 POP JUMP JUMPDEST PUSH2 0x2A19 DUP2 PUSH2 0x29EE JUMP JUMPDEST DUP3 MSTORE POP POP JUMP JUMPDEST PUSH1 0x40 DUP3 ADD PUSH1 0x0 DUP3 ADD MLOAD PUSH2 0x2A35 PUSH1 0x0 DUP6 ADD DUP3 PUSH2 0x29B9 JUMP JUMPDEST POP PUSH1 0x20 DUP3 ADD MLOAD PUSH2 0x2A48 PUSH1 0x20 DUP6 ADD DUP3 PUSH2 0x2A10 JUMP JUMPDEST POP POP POP POP JUMP JUMPDEST PUSH1 0x0 PUSH1 0x40 DUP3 ADD SWAP1 POP PUSH2 0x2A63 PUSH1 0x0 DUP4 ADD DUP5 PUSH2 0x2A1F JUMP JUMPDEST SWAP3 SWAP2 POP POP JUMP JUMPDEST PUSH1 0x0 PUSH1 0x20 DUP3 DUP5 SUB SLT ISZERO PUSH2 0x2A7F JUMPI PUSH2 0x2A7E PUSH2 0x258B JUMP JUMPDEST JUMPDEST PUSH1 0x0 PUSH2 0x2A8D DUP5 DUP3 DUP6 ADD PUSH2 0x292B JUMP JUMPDEST SWAP2 POP POP SWAP3 SWAP2 POP POP JUMP JUMPDEST PUSH1 0x0 DUP1 REVERT JUMPDEST PUSH1 0x0 PUSH1 0x60 DUP3 DUP5 SUB SLT ISZERO PUSH2 0x2AB1 JUMPI PUSH2 0x2AB0 PUSH2 0x2A96 JUMP JUMPDEST JUMPDEST DUP2 SWAP1 POP SWAP3 SWAP2 POP POP JUMP JUMPDEST PUSH1 0x0 PUSH1 0x20 DUP3 DUP5 SUB SLT ISZERO PUSH2 0x2AD0 JUMPI PUSH2 0x2ACF PUSH2 0x258B JUMP JUMPDEST JUMPDEST PUSH1 0x0 DUP3 ADD CALLDATALOAD PUSH8 0xFFFFFFFFFFFFFFFF DUP2 GT ISZERO PUSH2 0x2AEE JUMPI PUSH2 0x2AED PUSH2 0x2590 JUMP JUMPDEST JUMPDEST PUSH2 0x2AFA DUP5 DUP3 DUP6 ADD PUSH2 0x2A9B JUMP JUMPDEST SWAP2 POP POP SWAP3 SWAP2 POP POP JUMP JUMPDEST PUSH1 0x0 PUSH2 0x2B0E DUP3 PUSH2 0x2595 JUMP JUMPDEST SWAP1 POP SWAP2 SWAP1 POP JUMP JUMPDEST PUSH2 0x2B1E DUP2 PUSH2 0x2B03 JUMP JUMPDEST DUP3 MSTORE POP POP JUMP JUMPDEST PUSH1 0x0 PUSH1 0x20 DUP3 ADD SWAP1 POP PUSH2 0x2B39 PUSH1 0x0 DUP4 ADD DUP5 PUSH2 0x2B15 JUMP JUMPDEST SWAP3 SWAP2 POP POP JUMP JUMPDEST PUSH2 0x2B48 DUP2 PUSH2 0x26FE JUMP JUMPDEST DUP3 MSTORE POP POP JUMP JUMPDEST PUSH1 0x0 PUSH1 0x20 DUP3 ADD SWAP1 POP PUSH2 0x2B63 PUSH1 0x0 DUP4 ADD DUP5 PUSH2 0x2B3F JUMP JUMPDEST SWAP3 SWAP2 POP POP JUMP JUMPDEST PUSH2 0x2B72 DUP2 PUSH2 0x29EE JUMP JUMPDEST DUP3 MSTORE POP POP JUMP JUMPDEST PUSH1 0x0 PUSH1 0x20 DUP3 ADD SWAP1 POP PUSH2 0x2B8D PUSH1 0x0 DUP4 ADD DUP5 PUSH2 0x2B69 JUMP JUMPDEST SWAP3 SWAP2 POP POP JUMP JUMPDEST PUSH1 0x0 PUSH2 0x2B9E DUP3 PUSH2 0x2902 JUMP JUMPDEST SWAP1 POP SWAP2 SWAP1 POP JUMP JUMPDEST PUSH2 0x2BAE DUP2 PUSH2 0x2B93 JUMP JUMPDEST DUP2 EQ PUSH2 0x2BB9 JUMPI PUSH1 0x0 DUP1 REVERT JUMPDEST POP JUMP JUMPDEST PUSH1 0x0 DUP2 CALLDATALOAD SWAP1 POP PUSH2 0x2BCB DUP2 PUSH2 0x2BA5 JUMP JUMPDEST SWAP3 SWAP2 POP POP JUMP JUMPDEST PUSH1 0x0 PUSH1 0x20 DUP3 DUP5 SUB SLT ISZERO PUSH2 0x2BE7 JUMPI PUSH2 0x2BE6 PUSH2 0x258B JUMP JUMPDEST JUMPDEST PUSH1 0x0 PUSH2 0x2BF5 DUP5 DUP3 DUP6 ADD PUSH2 0x2BBC JUMP JUMPDEST SWAP2 POP POP SWAP3 SWAP2 POP POP JUMP JUMPDEST PUSH2 0x2C07 DUP2 PUSH2 0x2902 JUMP JUMPDEST DUP3 MSTORE POP POP JUMP JUMPDEST PUSH1 0x0 PUSH1 0x20 DUP3 ADD SWAP1 POP PUSH2 0x2C22 PUSH1 0x0 DUP4 ADD DUP5 PUSH2 0x2BFE JUMP JUMPDEST SWAP3 SWAP2 POP POP JUMP JUMPDEST PUSH1 0x4 DUP2 LT PUSH2 0x2C39 JUMPI PUSH2 0x2C38 PUSH2 0x25F8 JUMP JUMPDEST JUMPDEST POP JUMP JUMPDEST PUSH1 0x0 DUP2 SWAP1 POP PUSH2 0x2C4A DUP3 PUSH2 0x2C28 JUMP JUMPDEST SWAP2 SWAP1 POP JUMP JUMPDEST PUSH1 0x0 PUSH2 0x2C5A DUP3 PUSH2 0x2C3C JUMP JUMPDEST SWAP1 POP SWAP2 SWAP1 POP JUMP JUMPDEST PUSH2 0x2C6A DUP2 PUSH2 0x2C4F JUMP JUMPDEST DUP3 MSTORE POP POP JUMP JUMPDEST PUSH1 0x0 PUSH1 0x20 DUP3 ADD SWAP1 POP PUSH2 0x2C85 PUSH1 0x0 DUP4 ADD DUP5 PUSH2 0x2C61 JUMP JUMPDEST SWAP3 SWAP2 POP POP JUMP JUMPDEST PUSH2 0x2C94 DUP2 PUSH2 0x268A JUMP JUMPDEST DUP2 EQ PUSH2 0x2C9F JUMPI PUSH1 0x0 DUP1 REVERT JUMPDEST POP JUMP JUMPDEST PUSH1 0x0 DUP2 CALLDATALOAD SWAP1 POP PUSH2 0x2CB1 DUP2 PUSH2 0x2C8B JUMP JUMPDEST SWAP3 SWAP2 POP POP JUMP JUMPDEST PUSH1 0x0 PUSH1 0x20 DUP3 DUP5 SUB SLT ISZERO PUSH2 0x2CCD JUMPI PUSH2 0x2CCC PUSH2 0x258B JUMP JUMPDEST JUMPDEST PUSH1 0x0 PUSH2 0x2CDB DUP5 DUP3 DUP6 ADD PUSH2 0x2CA2 JUMP JUMPDEST SWAP2 POP POP SWAP3 SWAP2 POP POP JUMP JUMPDEST PUSH1 0x3 DUP2 LT PUSH2 0x2CF1 JUMPI PUSH1 0x0 DUP1 REVERT JUMPDEST POP JUMP JUMPDEST PUSH1 0x0 DUP2 CALLDATALOAD SWAP1 POP PUSH2 0x2D03 DUP2 PUSH2 0x2CE4 JUMP JUMPDEST SWAP3 SWAP2 POP POP JUMP JUMPDEST PUSH1 0x0 DUP1 PUSH1 0x0 DUP1 PUSH1 0x60 DUP6 DUP8 SUB SLT ISZERO PUSH2 0x2D23 JUMPI PUSH2 0x2D22 PUSH2 0x258B JUMP JUMPDEST JUMPDEST PUSH1 0x0 PUSH2 0x2D31 DUP8 DUP3 DUP9 ADD PUSH2 0x25B6 JUMP JUMPDEST SWAP5 POP POP PUSH1 0x20 PUSH2 0x2D42 DUP8 DUP3 DUP9 ADD PUSH2 0x2CF4 JUMP JUMPDEST SWAP4 POP POP PUSH1 0x40 DUP6 ADD CALLDATALOAD PUSH8 0xFFFFFFFFFFFFFFFF DUP2 GT ISZERO PUSH2 0x2D63 JUMPI PUSH2 0x2D62 PUSH2 0x2590 JUMP JUMPDEST JUMPDEST PUSH2 0x2D6F DUP8 DUP3 DUP9 ADD PUSH2 0x2746 JUMP JUMPDEST SWAP3 POP SWAP3 POP POP SWAP3 SWAP6 SWAP2 SWAP5 POP SWAP3 POP JUMP JUMPDEST PUSH1 0x0 PUSH1 0x20 DUP3 DUP5 SUB SLT ISZERO PUSH2 0x2D93 JUMPI PUSH2 0x2D92 PUSH2 0x258B JUMP JUMPDEST JUMPDEST PUSH1 0x0 PUSH2 0x2DA1 DUP5 DUP3 DUP6 ADD PUSH2 0x2722 JUMP JUMPDEST SWAP2 POP POP SWAP3 SWAP2 POP POP JUMP JUMPDEST PUSH1 0x0 DUP3 DUP3 MSTORE PUSH1 0x20 DUP3 ADD SWAP1 POP SWAP3 SWAP2 POP POP JUMP JUMPDEST DUP3 DUP2 DUP4 CALLDATACOPY PUSH1 0x0 DUP4 DUP4 ADD MSTORE POP POP POP JUMP JUMPDEST PUSH1 0x0 PUSH1 0x1F NOT PUSH1 0x1F DUP4 ADD AND SWAP1 POP SWAP2 SWAP1 POP JUMP JUMPDEST PUSH1 0x0 PUSH2 0x2DE7 DUP4 DUP6 PUSH2 0x2DAA JUMP JUMPDEST SWAP4 POP PUSH2 0x2DF4 DUP4 DUP6 DUP5 PUSH2 0x2DBB JUMP JUMPDEST PUSH2 0x2DFD DUP4 PUSH2 0x2DCA JUMP JUMPDEST DUP5 ADD SWAP1 POP SWAP4 SWAP3 POP POP POP JUMP JUMPDEST PUSH1 0x0 PUSH1 0x20 DUP3 ADD SWAP1 POP DUP2 DUP2 SUB PUSH1 0x0 DUP4 ADD MSTORE PUSH2 0x2E23 DUP2 DUP5 DUP7 PUSH2 0x2DDB JUMP JUMPDEST SWAP1 POP SWAP4 SWAP3 POP POP POP JUMP JUMPDEST PUSH1 0x0 DUP2 MLOAD SWAP1 POP PUSH2 0x2E3B DUP2 PUSH2 0x27FC JUMP JUMPDEST SWAP3 SWAP2 POP POP JUMP JUMPDEST PUSH1 0x0 PUSH1 0x20 DUP3 DUP5 SUB SLT ISZERO PUSH2 0x2E57 JUMPI PUSH2 0x2E56 PUSH2 0x258B JUMP JUMPDEST JUMPDEST PUSH1 0x0 PUSH2 0x2E65 DUP5 DUP3 DUP6 ADD PUSH2 0x2E2C JUMP JUMPDEST SWAP2 POP POP SWAP3 SWAP2 POP POP JUMP JUMPDEST PUSH1 0x0 DUP1 REVERT JUMPDEST PUSH1 0x0 DUP1 REVERT JUMPDEST PUSH1 0x0 DUP1 REVERT JUMPDEST PUSH1 0x0 DUP1 DUP4 CALLDATALOAD PUSH1 0x1 PUSH1 0x20 SUB DUP5 CALLDATASIZE SUB SUB DUP2 SLT PUSH2 0x2E9A JUMPI PUSH2 0x2E99 PUSH2 0x2E6E JUMP JUMPDEST JUMPDEST DUP1 DUP5 ADD SWAP3 POP DUP3 CALLDATALOAD SWAP2 POP PUSH8 0xFFFFFFFFFFFFFFFF DUP3 GT ISZERO PUSH2 0x2EBC JUMPI PUSH2 0x2EBB PUSH2 0x2E73 JUMP JUMPDEST JUMPDEST PUSH1 0x20 DUP4 ADD SWAP3 POP PUSH1 0x1 DUP3 MUL CALLDATASIZE SUB DUP4 SGT ISZERO PUSH2 0x2ED8 JUMPI PUSH2 0x2ED7 PUSH2 0x2E78 JUMP JUMPDEST JUMPDEST POP SWAP3 POP SWAP3 SWAP1 POP JUMP JUMPDEST PUSH1 0x0 DUP2 PUSH1 0x60 SHL SWAP1 POP SWAP2 SWAP1 POP JUMP JUMPDEST PUSH1 0x0 PUSH2 0x2EF8 DUP3 PUSH2 0x2EE0 JUMP JUMPDEST SWAP1 POP SWAP2 SWAP1 POP JUMP JUMPDEST PUSH1 0x0 PUSH2 0x2F0A DUP3 PUSH2 0x2EED JUMP JUMPDEST SWAP1 POP SWAP2 SWAP1 POP JUMP JUMPDEST PUSH2 0x2F22 PUSH2 0x2F1D DUP3 PUSH2 0x2902 JUMP JUMPDEST PUSH2 0x2EFF JUMP JUMPDEST DUP3 MSTORE POP POP JUMP JUMPDEST PUSH1 0x0 DUP2 SWAP1 POP SWAP3 SWAP2 POP POP JUMP JUMPDEST PUSH1 0x0 PUSH2 0x2F3F DUP4 DUP6 PUSH2 0x2F28 JUMP JUMPDEST SWAP4 POP PUSH2 0x2F4C DUP4 DUP6 DUP5 PUSH2 0x2DBB JUMP JUMPDEST DUP3 DUP5 ADD SWAP1 POP SWAP4 SWAP3 POP POP POP JUMP JUMPDEST PUSH1 0x0 PUSH2 0x2F64 DUP3 DUP9 PUSH2 0x2F11 JUMP JUMPDEST PUSH1 0x14 DUP3 ADD SWAP2 POP PUSH2 0x2F75 DUP3 DUP7 DUP9 PUSH2 0x2F33 JUMP JUMPDEST SWAP2 POP PUSH2 0x2F82 DUP3 DUP5 DUP7 PUSH2 0x2F33 JUMP JUMPDEST SWAP2 POP DUP2 SWAP1 POP SWAP7 SWAP6 POP POP POP POP POP POP JUMP JUMPDEST PUSH32 0x4E487B7100000000000000000000000000000000000000000000000000000000 PUSH1 0x0 MSTORE PUSH1 0x11 PUSH1 0x4 MSTORE PUSH1 0x24 PUSH1 0x0 REVERT JUMPDEST PUSH1 0x0 PUSH2 0x2FCB DUP3 PUSH2 0x29C8 JUMP JUMPDEST SWAP2 POP PUSH2 0x2FD6 DUP4 PUSH2 0x29C8 JUMP JUMPDEST SWAP3 POP DUP3 DUP3 SUB SWAP1 POP PUSH16 0xFFFFFFFFFFFFFFFFFFFFFFFFFFFFFFFF DUP2 GT ISZERO PUSH2 0x2FFE JUMPI PUSH2 0x2FFD PUSH2 0x2F91 JUMP JUMPDEST JUMPDEST SWAP3 SWAP2 POP POP JUMP JUMPDEST PUSH32 0x4E487B7100000000000000000000000000000000000000000000000000000000 PUSH1 0x0 MSTORE PUSH1 0x1 PUSH1 0x4 MSTORE PUSH1 0x24 PUSH1 0x0 REVERT JUMPDEST PUSH1 0x0 PUSH2 0x3040 DUP3 DUP5 DUP7 PUSH2 0x2F33 JUMP JUMPDEST SWAP2 POP DUP2 SWAP1 POP SWAP4 SWAP3 POP POP POP JUMP JUMPDEST PUSH1 0x0 DUP2 MLOAD SWAP1 POP SWAP2 SWAP1 POP JUMP JUMPDEST PUSH1 0x0 JUMPDEST DUP4 DUP2 LT ISZERO PUSH2 0x3075 JUMPI DUP1 DUP3 ADD MLOAD DUP2 DUP5 ADD MSTORE PUSH1 0x20 DUP2 ADD SWAP1 POP PUSH2 0x305A JUMP JUMPDEST PUSH1 0x0 DUP5 DUP5 ADD MSTORE POP POP POP POP JUMP JUMPDEST PUSH1 0x0 PUSH2 0x308C DUP3 PUSH2 0x304C JUMP JUMPDEST PUSH2 0x3096 DUP2 DUP6 PUSH2 0x2DAA JUMP JUMPDEST SWAP4 POP PUSH2 0x30A6 DUP2 DUP6 PUSH1 0x20 DUP7 ADD PUSH2 0x3057 JUMP JUMPDEST PUSH2 0x30AF DUP2 PUSH2 0x2DCA JUMP JUMPDEST DUP5 ADD SWAP2 POP POP SWAP3 SWAP2 POP POP JUMP JUMPDEST PUSH1 0x0 PUSH1 0x20 DUP3 ADD SWAP1 POP DUP2 DUP2 SUB PUSH1 0x0 DUP4 ADD MSTORE PUSH2 0x30D4 DUP2 DUP5 PUSH2 0x3081 JUMP JUMPDEST SWAP1 POP SWAP3 SWAP2 POP POP JUMP JUMPDEST PUSH1 0x0 PUSH2 0x30E7 DUP3 PUSH2 0x2557 JUMP JUMPDEST SWAP2 POP PUSH2 0x30F2 DUP4 PUSH2 0x2557 JUMP JUMPDEST SWAP3 POP DUP3 DUP3 SUB SWAP1 POP DUP2 DUP2 GT ISZERO PUSH2 0x310A JUMPI PUSH2 0x3109 PUSH2 0x2F91 JUMP JUMPDEST JUMPDEST SWAP3 SWAP2 POP POP JUMP JUMPDEST PUSH1 0x0 PUSH2 0x311B DUP3 PUSH2 0x268A JUMP JUMPDEST SWAP2 POP PUSH2 0x3126 DUP4 PUSH2 0x268A JUMP JUMPDEST SWAP3 POP DUP3 DUP3 ADD SWAP1 POP PUSH8 0xFFFFFFFFFFFFFFFF DUP2 GT ISZERO PUSH2 0x3146 JUMPI PUSH2 0x3145 PUSH2 0x2F91 JUMP JUMPDEST JUMPDEST SWAP3 SWAP2 POP POP JUMP JUMPDEST PUSH1 0x0 PUSH32 0xFFFFFFFF00000000000000000000000000000000000000000000000000000000 DUP3 AND SWAP1 POP SWAP2 SWAP1 POP JUMP JUMPDEST PUSH2 0x3181 DUP2 PUSH2 0x314C JUMP JUMPDEST DUP3 MSTORE POP POP JUMP JUMPDEST PUSH1 0x0 PUSH1 0x20 DUP3 ADD SWAP1 POP PUSH2 0x319C PUSH1 0x0 DUP4 ADD DUP5 PUSH2 0x3178 JUMP JUMPDEST SWAP3 SWAP2 POP POP JUMP JUMPDEST PUSH2 0x31AB DUP2 PUSH2 0x26C8 JUMP JUMPDEST DUP2 EQ PUSH2 0x31B6 JUMPI PUSH1 0x0 DUP1 REVERT JUMPDEST POP JUMP JUMPDEST PUSH1 0x0 DUP2 MLOAD SWAP1 POP PUSH2 0x31C8 DUP2 PUSH2 0x31A2 JUMP JUMPDEST SWAP3 SWAP2 POP POP JUMP JUMPDEST PUSH1 0x0 PUSH1 0x20 DUP3 DUP5 SUB SLT ISZERO PUSH2 0x31E4 JUMPI PUSH2 0x31E3 PUSH2 0x258B JUMP JUMPDEST JUMPDEST PUSH1 0x0 PUSH2 0x31F2 DUP5 DUP3 DUP6 ADD PUSH2 0x31B9 JUMP JUMPDEST SWAP2 POP POP SWAP3 SWAP2 POP POP JUMP JUMPDEST PUSH2 0x3204 DUP2 PUSH2 0x29A7 JUMP JUMPDEST DUP3 MSTORE POP POP JUMP JUMPDEST PUSH1 0x0 PUSH1 0x40 DUP3 ADD SWAP1 POP PUSH2 0x321F PUSH1 0x0 DUP4 ADD DUP6 PUSH2 0x31FB JUMP JUMPDEST PUSH2 0x322C PUSH1 0x20 DUP4 ADD DUP5 PUSH2 0x31FB JUMP JUMPDEST SWAP4 SWAP3 POP POP POP JUMP JUMPDEST PUSH1 0x0 PUSH2 0x323E DUP3 PUSH2 0x2557 JUMP JUMPDEST SWAP2 POP PUSH2 0x3249 DUP4 PUSH2 0x2557 JUMP JUMPDEST SWAP3 POP DUP3 DUP3 ADD SWAP1 POP DUP1 DUP3 GT ISZERO PUSH2 0x3261 JUMPI PUSH2 0x3260 PUSH2 0x2F91 JUMP JUMPDEST JUMPDEST SWAP3 SWAP2 POP POP JUMP JUMPDEST PUSH1 0x0 PUSH1 0x20 DUP3 ADD SWAP1 POP PUSH2 0x327C PUSH1 0x0 DUP4 ADD DUP5 PUSH2 0x31FB JUMP JUMPDEST SWAP3 SWAP2 POP POP JUMP JUMPDEST PUSH1 0x0 PUSH2 0x328D DUP3 PUSH2 0x2557 JUMP JUMPDEST SWAP2 POP PUSH2 0x3298 DUP4 PUSH2 0x2557 JUMP JUMPDEST SWAP3 POP DUP3 DUP3 MUL PUSH2 0x32A6 DUP2 PUSH2 0x2557 JUMP JUMPDEST SWAP2 POP DUP3 DUP3 DIV DUP5 EQ DUP4 ISZERO OR PUSH2 0x32BD JUMPI PUSH2 0x32BC PUSH2 0x2F91 JUMP JUMPDEST JUMPDEST POP SWAP3 SWAP2 POP POP JUMP JUMPDEST PUSH32 0x4E487B7100000000000000000000000000000000000000000000000000000000 PUSH1 0x0 MSTORE PUSH1 0x41 PUSH1 0x4 MSTORE PUSH1 0x24 PUSH1 0x0 REVERT JUMPDEST PUSH32 0x4E487B7100000000000000000000000000000000000000000000000000000000 PUSH1 0x0 MSTORE PUSH1 0x32 PUSH1 0x4 MSTORE PUSH1 0x24 PUSH1 0x0 REVERT JUMPDEST PUSH32 0x4E487B7100000000000000000000000000000000000000000000000000000000 PUSH1 0x0 MSTORE PUSH1 0x31 PUSH1 0x4 MSTORE PUSH1 0x24 PUSH1 0x0 REVERT INVALID LOG2 PUSH5 0x6970667358 0x22 SLT KECCAK256 PUSH11 0xEBB0A7E00A341D60303F09 BLOCKHASH 0xD3 LOG1 0x4B EXP DUP5 PUSH18 0x311603D44AEF7B66DCB3CAF6EA64736F6C63 NUMBER STOP ADDMOD XOR STOP CALLER "},"methodIdentifiers":{"execute((address,bytes,bytes))":"fd165a73","getLiveVote(bytes32,address)":"4cc74011","getStage(bytes32)":"ae844f74","getVoteStatus(bytes32)":"0cfe734d","isExpired(bytes32)":"6db2feb2","isVetoOrVotePeriod(bytes32)":"d8cf3528","isVetoPeriod(bytes32)":"272d16f2","isVoteActive(bytes32)":"40a27abc","isVotePeriod(bytes32)":"12007fc9","maxLiveVotes()":"7abd7a0a","minWeight()":"0c2ee55e","owner()":"8da5cb5b","proposalExists(bytes32)":"4410a944","proposalId((address,bytes,bytes))":"5b4654a9","proposals(bytes32)":"32ed5b12","propose(bytes32)":"99882cdb","remove(bytes32)":"95bc2673","renounceOwnership()":"715018a6","respectContract()":"be142264","respectOf(address)":"58970ca8","setMaxLiveVotes(uint8)":"e89075c7","setMinWeight(uint256)":"20cea51a","setRespectContract(address)":"8c7ecf8d","setVetoLen(uint64)":"ce5b3b39","setVoteLen(uint64)":"bd5ab94f","signal(uint8,bytes)":"141d51cb","transferOwnership(address)":"f2fde38b","vetoLen()":"0ee572fd","vote(bytes32,uint8,bytes)":"d50b2843","voteLen()":"cb156a4a","voteWeightOf(address)":"7fb8b61e"}}}}}