{"contracts/Respect1155.sol":{"Respect1155":{"abi":[{"inputs":[{"internalType":"address","name":"owner","type":"address"},{"internalType":"string","name":"uri_","type":"string"},{"internalType":"string","name":"contractURI_","type":"string"}],"stateMutability":"nonpayable","type":"constructor"},{"inputs":[{"internalType":"address","name":"sender","type":"address"},{"internalType":"uint256","name":"balance","type":"uint256"},{"internalType":"uint256","name":"needed","type":"uint256"},{"internalType":"uint256","name":"tokenId","type":"uint256"}],"name":"ERC1155InsufficientBalance","type":"error"},{"inputs":[{"internalType":"address","name":"approver","type":"address"}],"name":"ERC1155InvalidApprover","type":"error"},{"inputs":[{"internalType":"uint256","name":"idsLength","type":"uint256"},{"internalType":"uint256","name":"valuesLength","type":"uint256"}],"name":"ERC1155InvalidArrayLength","type":"error"},{"inputs":[{"internalType":"address","name":"operator","type":"address"}],"name":"ERC1155InvalidOperator","type":"error"},{"inputs":[{"internalType":"address","name":"receiver","type":"address"}],"name":"ERC1155InvalidReceiver","type":"error"},{"inputs":[{"internalType":"address","name":"receiver","type":"address"},{"internalType":"bytes4","name":"response","type":"bytes4"}],"name":"ERC1155InvalidReceiverResponse","type":"error"},{"inputs":[{"internalType":"address","name":"sender","type":"address"}],"name":"ERC1155InvalidSender","type":"error"},{"inputs":[{"internalType":"address","name":"operator","type":"address"},{"internalType":"address","name":"owner","type":"address"}],"name":"ERC1155MissingApprovalForAll","type":"error"},{"inputs":[{"internalType":"address","name":"receiver","type":"address"},{"internalType":"bytes","name":"reason","type":"bytes"}],"name":"ERC1155TransferRejected","type":"error"},{"inputs":[{"internalType":"uint256","name":"tokenId","type":"uint256"}],"name":"InvalidTokenId","type":"error"},{"inputs":[{"internalType":"uint256","name":"tokenId","type":"uint256"}],"name":"NoValueField","type":"error"},{"inputs":[],"name":"OpNotSupported","type":"error"},{"inputs":[{"internalType":"address","name":"owner","type":"address"}],"name":"OwnableInvalidOwner","type":"error"},{"inputs":[{"internalType":"address","name":"account","type":"address"}],"name":"OwnableUnauthorizedAccount","type":"error"},{"inputs":[{"internalType":"uint256","name":"tokenId","type":"uint256"}],"name":"TokenAlreadyExists","type":"error"},{"inputs":[{"internalType":"uint256","name":"tokenId","type":"uint256"}],"name":"TokenDoesNotExist","type":"error"},{"anonymous":false,"inputs":[{"indexed":true,"internalType":"address","name":"account","type":"address"},{"indexed":true,"internalType":"address","name":"operator","type":"address"},{"indexed":false,"internalType":"bool","name":"approved","type":"bool"}],"name":"ApprovalForAll","type":"event"},{"anonymous":false,"inputs":[],"name":"ContractURIUpdated","type":"event"},{"anonymous":false,"inputs":[{"indexed":true,"internalType":"address","name":"previousOwner","type":"address"},{"indexed":true,"internalType":"address","name":"newOwner","type":"address"}],"name":"OwnershipTransferred","type":"event"},{"anonymous":false,"inputs":[{"indexed":true,"internalType":"address","name":"operator","type":"address"},{"indexed":true,"internalType":"address","name":"from","type":"address"},{"indexed":true,"internalType":"address","name":"to","type":"address"},{"indexed":false,"internalType":"uint256[]","name":"ids","type":"uint256[]"},{"indexed":false,"internalType":"uint256[]","name":"values","type":"uint256[]"}],"name":"TransferBatch","type":"event"},{"anonymous":false,"inputs":[{"indexed":true,"internalType":"address","name":"operator","type":"address"},{"indexed":true,"internalType":"address","name":"from","type":"address"},{"indexed":true,"internalType":"address","name":"to","type":"address"},{"indexed":false,"internalType":"uint256","name":"id","type":"uint256"},{"indexed":false,"internalType":"uint256","name":"value","type":"uint256"}],"name":"TransferSingle","type":"event"},{"anonymous":false,"inputs":[{"indexed":false,"internalType":"string","name":"value","type":"string"},{"indexed":true,"internalType":"uint256","name":"id","type":"uint256"}],"name":"URI","type":"event"},{"inputs":[{"internalType":"address","name":"account","type":"address"},{"internalType":"uint256","name":"tokenId","type":"uint256"}],"name":"balanceOf","outputs":[{"internalType":"uint256","name":"","type":"uint256"}],"stateMutability":"view","type":"function"},{"inputs":[{"internalType":"address[]","name":"accounts","type":"address[]"},{"internalType":"uint256[]","name":"ids","type":"uint256[]"}],"name":"balanceOfBatch","outputs":[{"internalType":"uint256[]","name":"","type":"uint256[]"}],"stateMutability":"view","type":"function"},{"inputs":[{"internalType":"uint256","name":"tokenId","type":"uint256"},{"internalType":"bytes","name":"","type":"bytes"}],"name":"burnRespect","outputs":[],"stateMutability":"nonpayable","type":"function"},{"inputs":[{"internalType":"uint256[]","name":"ids","type":"uint256[]"},{"internalType":"bytes","name":"","type":"bytes"}],"name":"burnRespectGroup","outputs":[],"stateMutability":"nonpayable","type":"function"},{"inputs":[],"name":"contractURI","outputs":[{"internalType":"string","name":"","type":"string"}],"stateMutability":"view","type":"function"},{"inputs":[],"name":"fungibleId","outputs":[{"internalType":"uint256","name":"","type":"uint256"}],"stateMutability":"view","type":"function"},{"inputs":[{"internalType":"address","name":"","type":"address"},{"internalType":"address","name":"","type":"address"}],"name":"isApprovedForAll","outputs":[{"internalType":"bool","name":"","type":"bool"}],"stateMutability":"pure","type":"function"},{"inputs":[{"components":[{"internalType":"uint256","name":"id","type":"uint256"},{"internalType":"uint64","name":"value","type":"uint64"}],"internalType":"struct Respect1155.MintRequest","name":"request","type":"tuple"},{"internalType":"bytes","name":"data","type":"bytes"}],"name":"mintRespect","outputs":[],"stateMutability":"nonpayable","type":"function"},{"inputs":[{"components":[{"internalType":"uint256","name":"id","type":"uint256"},{"internalType":"uint64","name":"value","type":"uint64"}],"internalType":"struct Respect1155.MintRequest[]","name":"requests","type":"tuple[]"},{"internalType":"bytes","name":"data","type":"bytes"}],"name":"mintRespectGroup","outputs":[],"stateMutability":"nonpayable","type":"function"},{"inputs":[],"name":"owner","outputs":[{"internalType":"address","name":"","type":"address"}],"stateMutability":"view","type":"function"},{"inputs":[{"internalType":"uint256","name":"tokenId","type":"uint256"}],"name":"ownerOf","outputs":[{"internalType":"address","name":"","type":"address"}],"stateMutability":"pure","type":"function"},{"inputs":[],"name":"renounceOwnership","outputs":[],"stateMutability":"nonpayable","type":"function"},{"inputs":[{"internalType":"address","name":"account","type":"address"}],"name":"respectOf","outputs":[{"internalType":"uint256","name":"","type":"uint256"}],"stateMutability":"view","type":"function"},{"inputs":[{"internalType":"address[]","name":"accounts","type":"address[]"}],"name":"respectOfBatch","outputs":[{"internalType":"uint256[]","name":"","type":"uint256[]"}],"stateMutability":"view","type":"function"},{"inputs":[{"internalType":"address","name":"","type":"address"},{"internalType":"address","name":"","type":"address"},{"internalType":"uint256[]","name":"","type":"uint256[]"},{"internalType":"uint256[]","name":"","type":"uint256[]"},{"internalType":"bytes","name":"","type":"bytes"}],"name":"safeBatchTransferFrom","outputs":[],"stateMutability":"pure","type":"function"},{"inputs":[{"internalType":"address","name":"","type":"address"},{"internalType":"address","name":"","type":"address"},{"internalType":"uint256","name":"","type":"uint256"},{"internalType":"uint256","name":"","type":"uint256"},{"internalType":"bytes","name":"","type":"bytes"}],"name":"safeTransferFrom","outputs":[],"stateMutability":"pure","type":"function"},{"inputs":[{"internalType":"address","name":"","type":"address"},{"internalType":"bool","name":"","type":"bool"}],"name":"setApprovalForAll","outputs":[],"stateMutability":"pure","type":"function"},{"inputs":[{"internalType":"string","name":"uri","type":"string"}],"name":"setContractURI","outputs":[],"stateMutability":"nonpayable","type":"function"},{"inputs":[{"internalType":"string","name":"uri","type":"string"}],"name":"setURI","outputs":[],"stateMutability":"nonpayable","type":"function"},{"inputs":[{"internalType":"address[]","name":"accounts","type":"address[]"}],"name":"sumRespectOf","outputs":[{"internalType":"uint256","name":"","type":"uint256"}],"stateMutability":"view","type":"function"},{"inputs":[{"internalType":"bytes4","name":"interfaceId","type":"bytes4"}],"name":"supportsInterface","outputs":[{"internalType":"bool","name":"","type":"bool"}],"stateMutability":"view","type":"function"},{"inputs":[{"internalType":"uint256","name":"tokenId","type":"uint256"}],"name":"tokenExists","outputs":[{"internalType":"bool","name":"","type":"bool"}],"stateMutability":"view","type":"function"},{"inputs":[],"name":"totalRespect","outputs":[{"internalType":"uint256","name":"","type":"uint256"}],"stateMutability":"view","type":"function"},{"inputs":[{"internalType":"address","name":"newOwner","type":"address"}],"name":"transferOwnership","outputs":[],"stateMutability":"nonpayable","type":"function"},{"inputs":[{"internalType":"uint256","name":"","type":"uint256"}],"name":"uri","outputs":[{"internalType":"string","name":"","type":"string"}],"stateMutability":"view","type":"function"},{"inputs":[{"internalType":"uint256","name":"tokenId","type":"uint256"}],"name":"valueOfToken","outputs":[{"internalType":"uint64","name":"","type":"uint64"}],"stateMutability":"view","type":"function"}],"evm":{"bytecode":{"linkReferences":{},"object":"60806040523480156200001157600080fd5b506040516200355238038062003552833981810160405281019062000037919062000402565b8282826200004b82620000ee60201b60201c565b6200005c816200010360201b60201c565b5050600073ffffffffffffffffffffffffffffffffffffffff168173ffffffffffffffffffffffffffffffffffffffff1603620000d35760006040517f1e4fbdf7000000000000000000000000000000000000000000000000000000008152600401620000ca9190620004ad565b60405180910390fd5b620000e4816200014460201b60201c565b50505050620007fc565b8060039081620000ff919062000715565b5050565b806004908162000114919062000715565b507fa5d4097edda6d87cb9329af83fb3712ef77eeb13738ffe43cc35a4ce305ad96260405160405180910390a150565b6000600560009054906101000a900473ffffffffffffffffffffffffffffffffffffffff16905081600560006101000a81548173ffffffffffffffffffffffffffffffffffffffff021916908373ffffffffffffffffffffffffffffffffffffffff1602179055508173ffffffffffffffffffffffffffffffffffffffff168173ffffffffffffffffffffffffffffffffffffffff167f8be0079c531659141344cd1fd0a4f28419497f9722a3daafe3b4186f6b6457e060405160405180910390a35050565b6000604051905090565b600080fd5b600080fd5b600073ffffffffffffffffffffffffffffffffffffffff82169050919050565b60006200024b826200021e565b9050919050565b6200025d816200023e565b81146200026957600080fd5b50565b6000815190506200027d8162000252565b92915050565b600080fd5b600080fd5b6000601f19601f8301169050919050565b7f4e487b7100000000000000000000000000000000000000000000000000000000600052604160045260246000fd5b620002d8826200028d565b810181811067ffffffffffffffff82111715620002fa57620002f96200029e565b5b80604052505050565b60006200030f6200020a565b90506200031d8282620002cd565b919050565b600067ffffffffffffffff82111562000340576200033f6200029e565b5b6200034b826200028d565b9050602081019050919050565b60005b83811015620003785780820151818401526020810190506200035b565b60008484015250505050565b60006200039b620003958462000322565b62000303565b905082815260208101848484011115620003ba57620003b962000288565b5b620003c784828562000358565b509392505050565b600082601f830112620003e757620003e662000283565b5b8151620003f984826020860162000384565b91505092915050565b6000806000606084860312156200041e576200041d62000214565b5b60006200042e868287016200026c565b935050602084015167ffffffffffffffff81111562000452576200045162000219565b5b6200046086828701620003cf565b925050604084015167ffffffffffffffff81111562000484576200048362000219565b5b6200049286828701620003cf565b9150509250925092565b620004a7816200023e565b82525050565b6000602082019050620004c460008301846200049c565b92915050565b600081519050919050565b7f4e487b7100000000000000000000000000000000000000000000000000000000600052602260045260246000fd5b600060028204905060018216806200051d57607f821691505b602082108103620005335762000532620004d5565b5b50919050565b60008190508160005260206000209050919050565b60006020601f8301049050919050565b600082821b905092915050565b6000600883026200059d7fffffffffffffffffffffffffffffffffffffffffffffffffffffffffffffffff826200055e565b620005a986836200055e565b95508019841693508086168417925050509392505050565b6000819050919050565b6000819050919050565b6000620005f6620005f0620005ea84620005c1565b620005cb565b620005c1565b9050919050565b6000819050919050565b6200061283620005d5565b6200062a6200062182620005fd565b8484546200056b565b825550505050565b600090565b6200064162000632565b6200064e81848462000607565b505050565b5b8181101562000676576200066a60008262000637565b60018101905062000654565b5050565b601f821115620006c5576200068f8162000539565b6200069a846200054e565b81016020851015620006aa578190505b620006c2620006b9856200054e565b83018262000653565b50505b505050565b600082821c905092915050565b6000620006ea60001984600802620006ca565b1980831691505092915050565b6000620007058383620006d7565b9150826002028217905092915050565b6200072082620004ca565b67ffffffffffffffff8111156200073c576200073b6200029e565b5b62000748825462000504565b620007558282856200067a565b600060209050601f8311600181146200078d576000841562000778578287015190505b620007848582620006f7565b865550620007f4565b601f1984166200079d8662000539565b60005b82811015620007c757848901518255600182019150602085019450602081019050620007a0565b86831015620007e75784890151620007e3601f891682620006d7565b8355505b6001600288020188555050505b505050505050565b612d46806200080c6000396000f3fe608060405234801561001057600080fd5b506004361061018c5760003560e01c80636352211e116100de578063b4de12ce11610097578063e8a3d48511610071578063e8a3d485146104b5578063e985e9c5146104d3578063f242432a14610503578063f2fde38b1461051f5761018c565b8063b4de12ce14610461578063d8b947d01461047d578063dfd469ed146104995761018c565b80636352211e146103b3578063715018a6146103e3578063854a6dbb146103ed5780638da5cb5b1461040b578063938e3d7b14610429578063a22cb465146104455761018c565b80631fb221be1161014b5780632eb2c2d6116101255780632eb2c2d61461031b5780634e1273f41461033757806358970ca8146103675780635da7e1d4146103975761018c565b80631fb221be1461029d5780632363b4aa146102cd57806325a11bab146102fd5761018c565b8062923f9e14610191578062fdd58e146101c157806301ffc9a7146101f157806302fe5305146102215780630e89341c1461023d57806314e51b5d1461026d575b600080fd5b6101ab60048036038101906101a69190611ab2565b61053b565b6040516101b89190611afa565b60405180910390f35b6101db60048036038101906101d69190611b73565b610560565b6040516101e89190611bc2565b60405180910390f35b61020b60048036038101906102069190611c35565b6105ee565b6040516102189190611afa565b60405180910390f35b61023b60048036038101906102369190611cc7565b6107a0565b005b61025760048036038101906102529190611ab2565b6107f9565b6040516102649190611da4565b60405180910390f35b61028760048036038101906102829190611e1c565b61088d565b6040516102949190611f27565b60405180910390f35b6102b760048036038101906102b29190611e1c565b61097e565b6040516102c49190611bc2565b60405180910390f35b6102e760048036038101906102e29190611ab2565b610a14565b6040516102f49190611f6c565b60405180910390f35b610305610a6a565b6040516103129190611bc2565b60405180910390f35b6103356004803603810190610330919061217a565b610a6f565b005b610351600480360381019061034c919061229f565b610aa1565b60405161035e9190611f27565b60405180910390f35b610381600480360381019061037c9190612320565b610c3a565b60405161038e9190611bc2565b60405180910390f35b6103b160048036038101906103ac91906123f9565b610c4c565b005b6103cd60048036038101906103c89190611ab2565b610cf8565b6040516103da9190612489565b60405180910390f35b6103eb610d80565b005b6103f5610d94565b6040516104029190611bc2565b60405180910390f35b610413610d9e565b6040516104209190612489565b60405180910390f35b610443600480360381019061043e9190611cc7565b610dc8565b005b61045f600480360381019061045a91906124d0565b610e21565b005b61047b60048036038101906104769190612510565b610e53565b005b61049760048036038101906104929190612591565b610e9f565b005b6104b360048036038101906104ae9190612615565b610eb5565b005b6104bd610f27565b6040516104ca9190611da4565b60405180910390f35b6104ed60048036038101906104e89190612675565b610fb9565b6040516104fa9190611afa565b60405180910390f35b61051d600480360381019061051891906126b5565b610fed565b005b61053960048036038101906105349190612320565b61101f565b005b600080610547836110a5565b905060008167ffffffffffffffff161415915050919050565b600080820361057957610572836110d6565b90506105e8565b600061058483610cf8565b90508373ffffffffffffffffffffffffffffffffffffffff168173ffffffffffffffffffffffffffffffffffffffff161415806105d3575060006105c7846110a5565b67ffffffffffffffff16145b156105e25760009150506105e8565b60019150505b92915050565b60007f58970ca8000000000000000000000000000000000000000000000000000000007bffffffffffffffffffffffffffffffffffffffffffffffffffffffff1916827bffffffffffffffffffffffffffffffffffffffffffffffffffffffff191614806106b957507f624de688000000000000000000000000000000000000000000000000000000007bffffffffffffffffffffffffffffffffffffffffffffffffffffffff1916827bffffffffffffffffffffffffffffffffffffffffffffffffffffffff1916145b8061072157507fd9b67a26000000000000000000000000000000000000000000000000000000007bffffffffffffffffffffffffffffffffffffffffffffffffffffffff1916827bffffffffffffffffffffffffffffffffffffffffffffffffffffffff1916145b8061078957507f0e89341c000000000000000000000000000000000000000000000000000000007bffffffffffffffffffffffffffffffffffffffffffffffffffffffff1916827bffffffffffffffffffffffffffffffffffffffffffffffffffffffff1916145b8061079957506107988261111e565b5b9050919050565b6107a8611188565b6107f582828080601f016020809104026020016040519081016040528093929190818152602001838380828437600081840152601f19601f8201169050808301925050505050505061120f565b5050565b6060600380546108089061277b565b80601f01602080910402602001604051908101604052809291908181526020018280546108349061277b565b80156108815780601f1061085657610100808354040283529160200191610881565b820191906000526020600020905b81548152906001019060200180831161086457829003601f168201915b50505050509050919050565b606060008383905067ffffffffffffffff8111156108ae576108ad611f87565b5b6040519080825280602002602001820160405280156108dc5781602001602082028036833780820191505090505b50905060005b848490508110156109735761094961094482878780806020026020016040519081016040528093929190818152602001838360200280828437600081840152601f19601f8201169050808301925050505050505061122290919063ffffffff16565b610c3a565b82828151811061095c5761095b6127ac565b5b6020026020010181815250508060010190506108e2565b508091505092915050565b6000806000905060005b84849050811015610a09576109ef6109ea82878780806020026020016040519081016040528093929190818152602001838360200280828437600081840152601f19601f8201169050808301925050505050505061122290919063ffffffff16565b610c3a565b826109fa919061280a565b91508080600101915050610988565b508091505092915050565b6000808203610a5a57816040517f71174861000000000000000000000000000000000000000000000000000000008152600401610a519190611bc2565b60405180910390fd5b610a63826110a5565b9050919050565b600081565b6040517f5f0ac46800000000000000000000000000000000000000000000000000000000815260040160405180910390fd5b6060828290508585905014610af55782829050858590506040517f5b059991000000000000000000000000000000000000000000000000000000008152600401610aec92919061283e565b60405180910390fd5b60008585905067ffffffffffffffff811115610b1457610b13611f87565b5b604051908082528060200260200182016040528015610b425781602001602082028036833780820191505090505b50905060005b86869050811015610c2d57610c03610baa82898980806020026020016040519081016040528093929190818152602001838360200280828437600081840152601f19601f8201169050808301925050505050505061122290919063ffffffff16565b610bfe83888880806020026020016040519081016040528093929190818152602001838360200280828437600081840152601f19601f8201169050808301925050505050505061123690919063ffffffff16565b610560565b828281518110610c1657610c156127ac565b5b602002602001018181525050806001019050610b48565b5080915050949350505050565b6000610c45826110d6565b9050919050565b610c54611188565b60005b84849050811015610cf15736858583818110610c7657610c756127ac565b5b9050604002019050610ce38160000135826020016020810190610c999190612893565b86868080601f016020809104026020016040519081016040528093929190818152602001838380828437600081840152601f19601f8201169050808301925050505050505061124a565b508080600101915050610c57565b5050505050565b600080610d0483611472565b9050600073ffffffffffffffffffffffffffffffffffffffff168173ffffffffffffffffffffffffffffffffffffffff1603610d7757826040517fed15e6cf000000000000000000000000000000000000000000000000000000008152600401610d6e9190611bc2565b60405180910390fd5b80915050919050565b610d88611188565b610d926000611484565b565b6000600254905090565b6000600560009054906101000a900473ffffffffffffffffffffffffffffffffffffffff16905090565b610dd0611188565b610e1d82828080601f016020809104026020016040519081016040528093929190818152602001838380828437600081840152601f19601f8201169050808301925050505050505061154a565b5050565b6040517f5f0ac46800000000000000000000000000000000000000000000000000000000815260040160405180910390fd5b610e5b611188565b60005b84849050811015610e9857610e8b858583818110610e7f57610e7e6127ac565b5b90506020020135611589565b8080600101915050610e5e565b5050505050565b610ea7611188565b610eb083611589565b505050565b610ebd611188565b610f228360000135846020016020810190610ed89190612893565b84848080601f016020809104026020016040519081016040528093929190818152602001838380828437600081840152601f19601f8201169050808301925050505050505061124a565b505050565b606060048054610f369061277b565b80601f0160208091040260200160405190810160405280929190818152602001828054610f629061277b565b8015610faf5780601f10610f8457610100808354040283529160200191610faf565b820191906000526020600020905b815481529060010190602001808311610f9257829003601f168201915b5050505050905090565b60006040517f5f0ac46800000000000000000000000000000000000000000000000000000000815260040160405180910390fd5b6040517f5f0ac46800000000000000000000000000000000000000000000000000000000815260040160405180910390fd5b611027611188565b600073ffffffffffffffffffffffffffffffffffffffff168173ffffffffffffffffffffffffffffffffffffffff16036110995760006040517f1e4fbdf70000000000000000000000000000000000000000000000000000000081526004016110909190612489565b60405180910390fd5b6110a281611484565b50565b60006001600083815260200190815260200160002060009054906101000a900467ffffffffffffffff169050919050565b60008060008373ffffffffffffffffffffffffffffffffffffffff1673ffffffffffffffffffffffffffffffffffffffff168152602001908152602001600020549050919050565b60007f01ffc9a7000000000000000000000000000000000000000000000000000000007bffffffffffffffffffffffffffffffffffffffffffffffffffffffff1916827bffffffffffffffffffffffffffffffffffffffffffffffffffffffff1916149050919050565b611190611778565b73ffffffffffffffffffffffffffffffffffffffff166111ae610d9e565b73ffffffffffffffffffffffffffffffffffffffff161461120d576111d1611778565b6040517f118cdaa70000000000000000000000000000000000000000000000000000000081526004016112049190612489565b60405180910390fd5b565b806003908161121e9190612a6c565b5050565b600060208202602084010151905092915050565b600060208202602084010151905092915050565b600061125584611472565b90506000339050600073ffffffffffffffffffffffffffffffffffffffff168273ffffffffffffffffffffffffffffffffffffffff16036112ce5760006040517f57f447ce0000000000000000000000000000000000000000000000000000000081526004016112c59190612489565b60405180910390fd5b6112d78561053b565b1561131957846040517f6025413b0000000000000000000000000000000000000000000000000000000081526004016113109190611bc2565b60405180910390fd5b836001600087815260200190815260200160002060006101000a81548167ffffffffffffffff021916908367ffffffffffffffff1602179055508367ffffffffffffffff166002600082825461136f919061280a565b925050819055508367ffffffffffffffff166000808473ffffffffffffffffffffffffffffffffffffffff1673ffffffffffffffffffffffffffffffffffffffff168152602001908152602001600020600082825401925050819055506000806113d98787611780565b915091508373ffffffffffffffffffffffffffffffffffffffff16600073ffffffffffffffffffffffffffffffffffffffff168473ffffffffffffffffffffffffffffffffffffffff167f4a39dc06d4c0dbc64b70af90fd698a233a518aa5d07e595d983b8c0526c8f7fb8585604051611454929190612b3e565b60405180910390a461146983858484896118b2565b50505050505050565b600061147d82611a59565b9050919050565b6000600560009054906101000a900473ffffffffffffffffffffffffffffffffffffffff16905081600560006101000a81548173ffffffffffffffffffffffffffffffffffffffff021916908373ffffffffffffffffffffffffffffffffffffffff1602179055508173ffffffffffffffffffffffffffffffffffffffff168173ffffffffffffffffffffffffffffffffffffffff167f8be0079c531659141344cd1fd0a4f28419497f9722a3daafe3b4186f6b6457e060405160405180910390a35050565b80600490816115599190612a6c565b507fa5d4097edda6d87cb9329af83fb3712ef77eeb13738ffe43cc35a4ce305ad96260405160405180910390a150565b600061159482610cf8565b905060006115a1836110a5565b905060008167ffffffffffffffff16036115f257826040517fc927e5bf0000000000000000000000000000000000000000000000000000000081526004016115e99190611bc2565b60405180910390fd5b6001600084815260200190815260200160002060006101000a81549067ffffffffffffffff021916905560008060008473ffffffffffffffffffffffffffffffffffffffff1673ffffffffffffffffffffffffffffffffffffffff1681526020019081526020016000205490508167ffffffffffffffff16816116759190612b75565b6000808573ffffffffffffffffffffffffffffffffffffffff1673ffffffffffffffffffffffffffffffffffffffff168152602001908152602001600020819055508167ffffffffffffffff16600260008282546116d39190612b75565b925050819055506000806116e78685611780565b915091506000339050600073ffffffffffffffffffffffffffffffffffffffff168673ffffffffffffffffffffffffffffffffffffffff168273ffffffffffffffffffffffffffffffffffffffff167f4a39dc06d4c0dbc64b70af90fd698a233a518aa5d07e595d983b8c0526c8f7fb8686604051611767929190612b3e565b60405180910390a450505050505050565b600033905090565b606080600267ffffffffffffffff81111561179e5761179d611f87565b5b6040519080825280602002602001820160405280156117cc5781602001602082028036833780820191505090505b5091506000826000815181106117e5576117e46127ac565b5b6020026020010181815250508382600181518110611806576118056127ac565b5b602002602001018181525050600267ffffffffffffffff81111561182d5761182c611f87565b5b60405190808252806020026020018201604052801561185b5781602001602082028036833780820191505090505b5090508267ffffffffffffffff168160008151811061187d5761187c6127ac565b5b60200260200101818152505060018160018151811061189f5761189e6127ac565b5b6020026020010181815250509250929050565b60008473ffffffffffffffffffffffffffffffffffffffff163b1115611a52578373ffffffffffffffffffffffffffffffffffffffff1663bc197c818660008686866040518663ffffffff1660e01b8152600401611914959493929190612bfe565b6020604051808303816000875af192505050801561195057506040513d601f19601f8201168201806040525081019061194d9190612c7b565b60015b6119c5573d8060008114611980576040519150601f19603f3d011682016040523d82523d6000602084013e611985565b606091505b5084816040517f6cb329180000000000000000000000000000000000000000000000000000000081526004016119bc929190612ca8565b60405180910390fd5b63bc197c8160e01b7bffffffffffffffffffffffffffffffffffffffffffffffffffffffff1916817bffffffffffffffffffffffffffffffffffffffffffffffffffffffff191614611a505784816040517f07e34740000000000000000000000000000000000000000000000000000000008152600401611a47929190612ce7565b60405180910390fd5b505b5050505050565b60008082905080915050919050565b6000604051905090565b600080fd5b600080fd5b6000819050919050565b611a8f81611a7c565b8114611a9a57600080fd5b50565b600081359050611aac81611a86565b92915050565b600060208284031215611ac857611ac7611a72565b5b6000611ad684828501611a9d565b91505092915050565b60008115159050919050565b611af481611adf565b82525050565b6000602082019050611b0f6000830184611aeb565b92915050565b600073ffffffffffffffffffffffffffffffffffffffff82169050919050565b6000611b4082611b15565b9050919050565b611b5081611b35565b8114611b5b57600080fd5b50565b600081359050611b6d81611b47565b92915050565b60008060408385031215611b8a57611b89611a72565b5b6000611b9885828601611b5e565b9250506020611ba985828601611a9d565b9150509250929050565b611bbc81611a7c565b82525050565b6000602082019050611bd76000830184611bb3565b92915050565b60007fffffffff0000000000000000000000000000000000000000000000000000000082169050919050565b611c1281611bdd565b8114611c1d57600080fd5b50565b600081359050611c2f81611c09565b92915050565b600060208284031215611c4b57611c4a611a72565b5b6000611c5984828501611c20565b91505092915050565b600080fd5b600080fd5b600080fd5b60008083601f840112611c8757611c86611c62565b5b8235905067ffffffffffffffff811115611ca457611ca3611c67565b5b602083019150836001820283011115611cc057611cbf611c6c565b5b9250929050565b60008060208385031215611cde57611cdd611a72565b5b600083013567ffffffffffffffff811115611cfc57611cfb611a77565b5b611d0885828601611c71565b92509250509250929050565b600081519050919050565b600082825260208201905092915050565b60005b83811015611d4e578082015181840152602081019050611d33565b60008484015250505050565b6000601f19601f8301169050919050565b6000611d7682611d14565b611d808185611d1f565b9350611d90818560208601611d30565b611d9981611d5a565b840191505092915050565b60006020820190508181036000830152611dbe8184611d6b565b905092915050565b60008083601f840112611ddc57611ddb611c62565b5b8235905067ffffffffffffffff811115611df957611df8611c67565b5b602083019150836020820283011115611e1557611e14611c6c565b5b9250929050565b60008060208385031215611e3357611e32611a72565b5b600083013567ffffffffffffffff811115611e5157611e50611a77565b5b611e5d85828601611dc6565b92509250509250929050565b600081519050919050565b600082825260208201905092915050565b6000819050602082019050919050565b611e9e81611a7c565b82525050565b6000611eb08383611e95565b60208301905092915050565b6000602082019050919050565b6000611ed482611e69565b611ede8185611e74565b9350611ee983611e85565b8060005b83811015611f1a578151611f018882611ea4565b9750611f0c83611ebc565b925050600181019050611eed565b5085935050505092915050565b60006020820190508181036000830152611f418184611ec9565b905092915050565b600067ffffffffffffffff82169050919050565b611f6681611f49565b82525050565b6000602082019050611f816000830184611f5d565b92915050565b7f4e487b7100000000000000000000000000000000000000000000000000000000600052604160045260246000fd5b611fbf82611d5a565b810181811067ffffffffffffffff82111715611fde57611fdd611f87565b5b80604052505050565b6000611ff1611a68565b9050611ffd8282611fb6565b919050565b600067ffffffffffffffff82111561201d5761201c611f87565b5b602082029050602081019050919050565b600061204161203c84612002565b611fe7565b9050808382526020820190506020840283018581111561206457612063611c6c565b5b835b8181101561208d57806120798882611a9d565b845260208401935050602081019050612066565b5050509392505050565b600082601f8301126120ac576120ab611c62565b5b81356120bc84826020860161202e565b91505092915050565b600080fd5b600067ffffffffffffffff8211156120e5576120e4611f87565b5b6120ee82611d5a565b9050602081019050919050565b82818337600083830152505050565b600061211d612118846120ca565b611fe7565b905082815260208101848484011115612139576121386120c5565b5b6121448482856120fb565b509392505050565b600082601f83011261216157612160611c62565b5b813561217184826020860161210a565b91505092915050565b600080600080600060a0868803121561219657612195611a72565b5b60006121a488828901611b5e565b95505060206121b588828901611b5e565b945050604086013567ffffffffffffffff8111156121d6576121d5611a77565b5b6121e288828901612097565b935050606086013567ffffffffffffffff81111561220357612202611a77565b5b61220f88828901612097565b925050608086013567ffffffffffffffff8111156122305761222f611a77565b5b61223c8882890161214c565b9150509295509295909350565b60008083601f84011261225f5761225e611c62565b5b8235905067ffffffffffffffff81111561227c5761227b611c67565b5b60208301915083602082028301111561229857612297611c6c565b5b9250929050565b600080600080604085870312156122b9576122b8611a72565b5b600085013567ffffffffffffffff8111156122d7576122d6611a77565b5b6122e387828801611dc6565b9450945050602085013567ffffffffffffffff81111561230657612305611a77565b5b61231287828801612249565b925092505092959194509250565b60006020828403121561233657612335611a72565b5b600061234484828501611b5e565b91505092915050565b60008083601f84011261236357612362611c62565b5b8235905067ffffffffffffffff8111156123805761237f611c67565b5b60208301915083604082028301111561239c5761239b611c6c565b5b9250929050565b60008083601f8401126123b9576123b8611c62565b5b8235905067ffffffffffffffff8111156123d6576123d5611c67565b5b6020830191508360018202830111156123f2576123f1611c6c565b5b9250929050565b6000806000806040858703121561241357612412611a72565b5b600085013567ffffffffffffffff81111561243157612430611a77565b5b61243d8782880161234d565b9450945050602085013567ffffffffffffffff8111156124605761245f611a77565b5b61246c878288016123a3565b925092505092959194509250565b61248381611b35565b82525050565b600060208201905061249e600083018461247a565b92915050565b6124ad81611adf565b81146124b857600080fd5b50565b6000813590506124ca816124a4565b92915050565b600080604083850312156124e7576124e6611a72565b5b60006124f585828601611b5e565b9250506020612506858286016124bb565b9150509250929050565b6000806000806040858703121561252a57612529611a72565b5b600085013567ffffffffffffffff81111561254857612547611a77565b5b61255487828801612249565b9450945050602085013567ffffffffffffffff81111561257757612576611a77565b5b612583878288016123a3565b925092505092959194509250565b6000806000604084860312156125aa576125a9611a72565b5b60006125b886828701611a9d565b935050602084013567ffffffffffffffff8111156125d9576125d8611a77565b5b6125e5868287016123a3565b92509250509250925092565b600080fd5b60006040828403121561260c5761260b6125f1565b5b81905092915050565b60008060006060848603121561262e5761262d611a72565b5b600061263c868287016125f6565b935050604084013567ffffffffffffffff81111561265d5761265c611a77565b5b612669868287016123a3565b92509250509250925092565b6000806040838503121561268c5761268b611a72565b5b600061269a85828601611b5e565b92505060206126ab85828601611b5e565b9150509250929050565b600080600080600060a086880312156126d1576126d0611a72565b5b60006126df88828901611b5e565b95505060206126f088828901611b5e565b945050604061270188828901611a9d565b935050606061271288828901611a9d565b925050608086013567ffffffffffffffff81111561273357612732611a77565b5b61273f8882890161214c565b9150509295509295909350565b7f4e487b7100000000000000000000000000000000000000000000000000000000600052602260045260246000fd5b6000600282049050600182168061279357607f821691505b6020821081036127a6576127a561274c565b5b50919050565b7f4e487b7100000000000000000000000000000000000000000000000000000000600052603260045260246000fd5b7f4e487b7100000000000000000000000000000000000000000000000000000000600052601160045260246000fd5b600061281582611a7c565b915061282083611a7c565b9250828201905080821115612838576128376127db565b5b92915050565b60006040820190506128536000830185611bb3565b6128606020830184611bb3565b9392505050565b61287081611f49565b811461287b57600080fd5b50565b60008135905061288d81612867565b92915050565b6000602082840312156128a9576128a8611a72565b5b60006128b78482850161287e565b91505092915050565b60008190508160005260206000209050919050565b60006020601f8301049050919050565b600082821b905092915050565b6000600883026129227fffffffffffffffffffffffffffffffffffffffffffffffffffffffffffffffff826128e5565b61292c86836128e5565b95508019841693508086168417925050509392505050565b6000819050919050565b600061296961296461295f84611a7c565b612944565b611a7c565b9050919050565b6000819050919050565b6129838361294e565b61299761298f82612970565b8484546128f2565b825550505050565b600090565b6129ac61299f565b6129b781848461297a565b505050565b5b818110156129db576129d06000826129a4565b6001810190506129bd565b5050565b601f821115612a20576129f1816128c0565b6129fa846128d5565b81016020851015612a09578190505b612a1d612a15856128d5565b8301826129bc565b50505b505050565b600082821c905092915050565b6000612a4360001984600802612a25565b1980831691505092915050565b6000612a5c8383612a32565b9150826002028217905092915050565b612a7582611d14565b67ffffffffffffffff811115612a8e57612a8d611f87565b5b612a98825461277b565b612aa38282856129df565b600060209050601f831160018114612ad65760008415612ac4578287015190505b612ace8582612a50565b865550612b36565b601f198416612ae4866128c0565b60005b82811015612b0c57848901518255600182019150602085019450602081019050612ae7565b86831015612b295784890151612b25601f891682612a32565b8355505b6001600288020188555050505b505050505050565b60006040820190508181036000830152612b588185611ec9565b90508181036020830152612b6c8184611ec9565b90509392505050565b6000612b8082611a7c565b9150612b8b83611a7c565b9250828203905081811115612ba357612ba26127db565b5b92915050565b600081519050919050565b600082825260208201905092915050565b6000612bd082612ba9565b612bda8185612bb4565b9350612bea818560208601611d30565b612bf381611d5a565b840191505092915050565b600060a082019050612c13600083018861247a565b612c20602083018761247a565b8181036040830152612c328186611ec9565b90508181036060830152612c468185611ec9565b90508181036080830152612c5a8184612bc5565b90509695505050505050565b600081519050612c7581611c09565b92915050565b600060208284031215612c9157612c90611a72565b5b6000612c9f84828501612c66565b91505092915050565b6000604082019050612cbd600083018561247a565b8181036020830152612ccf8184612bc5565b90509392505050565b612ce181611bdd565b82525050565b6000604082019050612cfc600083018561247a565b612d096020830184612cd8565b939250505056fea2646970667358221220c6fac91d9d13cab4e62730f45e2267dc70c6b10a3b3123c408bf32cccfbc295864736f6c63430008180033","opcodes":"PUSH1 0x80 PUSH1 0x40 MSTORE CALLVALUE DUP1 ISZERO PUSH3 0x11 JUMPI PUSH1 0x0 DUP1 REVERT JUMPDEST POP PUSH1 0x40 MLOAD PUSH3 0x3552 CODESIZE SUB DUP1 PUSH3 0x3552 DUP4 CODECOPY DUP2 DUP2 ADD PUSH1 0x40 MSTORE DUP2 ADD SWAP1 PUSH3 0x37 SWAP2 SWAP1 PUSH3 0x402 JUMP JUMPDEST DUP3 DUP3 DUP3 PUSH3 0x4B DUP3 PUSH3 0xEE PUSH1 0x20 SHL PUSH1 0x20 SHR JUMP JUMPDEST PUSH3 0x5C DUP2 PUSH3 0x103 PUSH1 0x20 SHL PUSH1 0x20 SHR JUMP JUMPDEST POP POP PUSH1 0x0 PUSH20 0xFFFFFFFFFFFFFFFFFFFFFFFFFFFFFFFFFFFFFFFF AND DUP2 PUSH20 0xFFFFFFFFFFFFFFFFFFFFFFFFFFFFFFFFFFFFFFFF AND SUB PUSH3 0xD3 JUMPI PUSH1 0x0 PUSH1 0x40 MLOAD PUSH32 0x1E4FBDF700000000000000000000000000000000000000000000000000000000 DUP2 MSTORE PUSH1 0x4 ADD PUSH3 0xCA SWAP2 SWAP1 PUSH3 0x4AD JUMP JUMPDEST PUSH1 0x40 MLOAD DUP1 SWAP2 SUB SWAP1 REVERT JUMPDEST PUSH3 0xE4 DUP2 PUSH3 0x144 PUSH1 0x20 SHL PUSH1 0x20 SHR JUMP JUMPDEST POP POP POP POP PUSH3 0x7FC JUMP JUMPDEST DUP1 PUSH1 0x3 SWAP1 DUP2 PUSH3 0xFF SWAP2 SWAP1 PUSH3 0x715 JUMP JUMPDEST POP POP JUMP JUMPDEST DUP1 PUSH1 0x4 SWAP1 DUP2 PUSH3 0x114 SWAP2 SWAP1 PUSH3 0x715 JUMP JUMPDEST POP PUSH32 0xA5D4097EDDA6D87CB9329AF83FB3712EF77EEB13738FFE43CC35A4CE305AD962 PUSH1 0x40 MLOAD PUSH1 0x40 MLOAD DUP1 SWAP2 SUB SWAP1 LOG1 POP JUMP JUMPDEST PUSH1 0x0 PUSH1 0x5 PUSH1 0x0 SWAP1 SLOAD SWAP1 PUSH2 0x100 EXP SWAP1 DIV PUSH20 0xFFFFFFFFFFFFFFFFFFFFFFFFFFFFFFFFFFFFFFFF AND SWAP1 POP DUP2 PUSH1 0x5 PUSH1 0x0 PUSH2 0x100 EXP DUP2 SLOAD DUP2 PUSH20 0xFFFFFFFFFFFFFFFFFFFFFFFFFFFFFFFFFFFFFFFF MUL NOT AND SWAP1 DUP4 PUSH20 0xFFFFFFFFFFFFFFFFFFFFFFFFFFFFFFFFFFFFFFFF AND MUL OR SWAP1 SSTORE POP DUP2 PUSH20 0xFFFFFFFFFFFFFFFFFFFFFFFFFFFFFFFFFFFFFFFF AND DUP2 PUSH20 0xFFFFFFFFFFFFFFFFFFFFFFFFFFFFFFFFFFFFFFFF AND PUSH32 0x8BE0079C531659141344CD1FD0A4F28419497F9722A3DAAFE3B4186F6B6457E0 PUSH1 0x40 MLOAD PUSH1 0x40 MLOAD DUP1 SWAP2 SUB SWAP1 LOG3 POP POP JUMP JUMPDEST PUSH1 0x0 PUSH1 0x40 MLOAD SWAP1 POP SWAP1 JUMP JUMPDEST PUSH1 0x0 DUP1 REVERT JUMPDEST PUSH1 0x0 DUP1 REVERT JUMPDEST PUSH1 0x0 PUSH20 0xFFFFFFFFFFFFFFFFFFFFFFFFFFFFFFFFFFFFFFFF DUP3 AND SWAP1 POP SWAP2 SWAP1 POP JUMP JUMPDEST PUSH1 0x0 PUSH3 0x24B DUP3 PUSH3 0x21E JUMP JUMPDEST SWAP1 POP SWAP2 SWAP1 POP JUMP JUMPDEST PUSH3 0x25D DUP2 PUSH3 0x23E JUMP JUMPDEST DUP2 EQ PUSH3 0x269 JUMPI PUSH1 0x0 DUP1 REVERT JUMPDEST POP JUMP JUMPDEST PUSH1 0x0 DUP2 MLOAD SWAP1 POP PUSH3 0x27D DUP2 PUSH3 0x252 JUMP JUMPDEST SWAP3 SWAP2 POP POP JUMP JUMPDEST PUSH1 0x0 DUP1 REVERT JUMPDEST PUSH1 0x0 DUP1 REVERT JUMPDEST PUSH1 0x0 PUSH1 0x1F NOT PUSH1 0x1F DUP4 ADD AND SWAP1 POP SWAP2 SWAP1 POP JUMP JUMPDEST PUSH32 0x4E487B7100000000000000000000000000000000000000000000000000000000 PUSH1 0x0 MSTORE PUSH1 0x41 PUSH1 0x4 MSTORE PUSH1 0x24 PUSH1 0x0 REVERT JUMPDEST PUSH3 0x2D8 DUP3 PUSH3 0x28D JUMP JUMPDEST DUP2 ADD DUP2 DUP2 LT PUSH8 0xFFFFFFFFFFFFFFFF DUP3 GT OR ISZERO PUSH3 0x2FA JUMPI PUSH3 0x2F9 PUSH3 0x29E JUMP JUMPDEST JUMPDEST DUP1 PUSH1 0x40 MSTORE POP POP POP JUMP JUMPDEST PUSH1 0x0 PUSH3 0x30F PUSH3 0x20A JUMP JUMPDEST SWAP1 POP PUSH3 0x31D DUP3 DUP3 PUSH3 0x2CD JUMP JUMPDEST SWAP2 SWAP1 POP JUMP JUMPDEST PUSH1 0x0 PUSH8 0xFFFFFFFFFFFFFFFF DUP3 GT ISZERO PUSH3 0x340 JUMPI PUSH3 0x33F PUSH3 0x29E JUMP JUMPDEST JUMPDEST PUSH3 0x34B DUP3 PUSH3 0x28D JUMP JUMPDEST SWAP1 POP PUSH1 0x20 DUP2 ADD SWAP1 POP SWAP2 SWAP1 POP JUMP JUMPDEST PUSH1 0x0 JUMPDEST DUP4 DUP2 LT ISZERO PUSH3 0x378 JUMPI DUP1 DUP3 ADD MLOAD DUP2 DUP5 ADD MSTORE PUSH1 0x20 DUP2 ADD SWAP1 POP PUSH3 0x35B JUMP JUMPDEST PUSH1 0x0 DUP5 DUP5 ADD MSTORE POP POP POP POP JUMP JUMPDEST PUSH1 0x0 PUSH3 0x39B PUSH3 0x395 DUP5 PUSH3 0x322 JUMP JUMPDEST PUSH3 0x303 JUMP JUMPDEST SWAP1 POP DUP3 DUP2 MSTORE PUSH1 0x20 DUP2 ADD DUP5 DUP5 DUP5 ADD GT ISZERO PUSH3 0x3BA JUMPI PUSH3 0x3B9 PUSH3 0x288 JUMP JUMPDEST JUMPDEST PUSH3 0x3C7 DUP5 DUP3 DUP6 PUSH3 0x358 JUMP JUMPDEST POP SWAP4 SWAP3 POP POP POP JUMP JUMPDEST PUSH1 0x0 DUP3 PUSH1 0x1F DUP4 ADD SLT PUSH3 0x3E7 JUMPI PUSH3 0x3E6 PUSH3 0x283 JUMP JUMPDEST JUMPDEST DUP2 MLOAD PUSH3 0x3F9 DUP5 DUP3 PUSH1 0x20 DUP7 ADD PUSH3 0x384 JUMP JUMPDEST SWAP2 POP POP SWAP3 SWAP2 POP POP JUMP JUMPDEST PUSH1 0x0 DUP1 PUSH1 0x0 PUSH1 0x60 DUP5 DUP7 SUB SLT ISZERO PUSH3 0x41E JUMPI PUSH3 0x41D PUSH3 0x214 JUMP JUMPDEST JUMPDEST PUSH1 0x0 PUSH3 0x42E DUP7 DUP3 DUP8 ADD PUSH3 0x26C JUMP JUMPDEST SWAP4 POP POP PUSH1 0x20 DUP5 ADD MLOAD PUSH8 0xFFFFFFFFFFFFFFFF DUP2 GT ISZERO PUSH3 0x452 JUMPI PUSH3 0x451 PUSH3 0x219 JUMP JUMPDEST JUMPDEST PUSH3 0x460 DUP7 DUP3 DUP8 ADD PUSH3 0x3CF JUMP JUMPDEST SWAP3 POP POP PUSH1 0x40 DUP5 ADD MLOAD PUSH8 0xFFFFFFFFFFFFFFFF DUP2 GT ISZERO PUSH3 0x484 JUMPI PUSH3 0x483 PUSH3 0x219 JUMP JUMPDEST JUMPDEST PUSH3 0x492 DUP7 DUP3 DUP8 ADD PUSH3 0x3CF JUMP JUMPDEST SWAP2 POP POP SWAP3 POP SWAP3 POP SWAP3 JUMP JUMPDEST PUSH3 0x4A7 DUP2 PUSH3 0x23E JUMP JUMPDEST DUP3 MSTORE POP POP JUMP JUMPDEST PUSH1 0x0 PUSH1 0x20 DUP3 ADD SWAP1 POP PUSH3 0x4C4 PUSH1 0x0 DUP4 ADD DUP5 PUSH3 0x49C JUMP JUMPDEST SWAP3 SWAP2 POP POP JUMP JUMPDEST PUSH1 0x0 DUP2 MLOAD SWAP1 POP SWAP2 SWAP1 POP JUMP JUMPDEST PUSH32 0x4E487B7100000000000000000000000000000000000000000000000000000000 PUSH1 0x0 MSTORE PUSH1 0x22 PUSH1 0x4 MSTORE PUSH1 0x24 PUSH1 0x0 REVERT JUMPDEST PUSH1 0x0 PUSH1 0x2 DUP3 DIV SWAP1 POP PUSH1 0x1 DUP3 AND DUP1 PUSH3 0x51D JUMPI PUSH1 0x7F DUP3 AND SWAP2 POP JUMPDEST PUSH1 0x20 DUP3 LT DUP2 SUB PUSH3 0x533 JUMPI PUSH3 0x532 PUSH3 0x4D5 JUMP JUMPDEST JUMPDEST POP SWAP2 SWAP1 POP JUMP JUMPDEST PUSH1 0x0 DUP2 SWAP1 POP DUP2 PUSH1 0x0 MSTORE PUSH1 0x20 PUSH1 0x0 KECCAK256 SWAP1 POP SWAP2 SWAP1 POP JUMP JUMPDEST PUSH1 0x0 PUSH1 0x20 PUSH1 0x1F DUP4 ADD DIV SWAP1 POP SWAP2 SWAP1 POP JUMP JUMPDEST PUSH1 0x0 DUP3 DUP3 SHL SWAP1 POP SWAP3 SWAP2 POP POP JUMP JUMPDEST PUSH1 0x0 PUSH1 0x8 DUP4 MUL PUSH3 0x59D PUSH32 0xFFFFFFFFFFFFFFFFFFFFFFFFFFFFFFFFFFFFFFFFFFFFFFFFFFFFFFFFFFFFFFFF DUP3 PUSH3 0x55E JUMP JUMPDEST PUSH3 0x5A9 DUP7 DUP4 PUSH3 0x55E JUMP JUMPDEST SWAP6 POP DUP1 NOT DUP5 AND SWAP4 POP DUP1 DUP7 AND DUP5 OR SWAP3 POP POP POP SWAP4 SWAP3 POP POP POP JUMP JUMPDEST PUSH1 0x0 DUP2 SWAP1 POP SWAP2 SWAP1 POP JUMP JUMPDEST PUSH1 0x0 DUP2 SWAP1 POP SWAP2 SWAP1 POP JUMP JUMPDEST PUSH1 0x0 PUSH3 0x5F6 PUSH3 0x5F0 PUSH3 0x5EA DUP5 PUSH3 0x5C1 JUMP JUMPDEST PUSH3 0x5CB JUMP JUMPDEST PUSH3 0x5C1 JUMP JUMPDEST SWAP1 POP SWAP2 SWAP1 POP JUMP JUMPDEST PUSH1 0x0 DUP2 SWAP1 POP SWAP2 SWAP1 POP JUMP JUMPDEST PUSH3 0x612 DUP4 PUSH3 0x5D5 JUMP JUMPDEST PUSH3 0x62A PUSH3 0x621 DUP3 PUSH3 0x5FD JUMP JUMPDEST DUP5 DUP5 SLOAD PUSH3 0x56B JUMP JUMPDEST DUP3 SSTORE POP POP POP POP JUMP JUMPDEST PUSH1 0x0 SWAP1 JUMP JUMPDEST PUSH3 0x641 PUSH3 0x632 JUMP JUMPDEST PUSH3 0x64E DUP2 DUP5 DUP5 PUSH3 0x607 JUMP JUMPDEST POP POP POP JUMP JUMPDEST JUMPDEST DUP2 DUP2 LT ISZERO PUSH3 0x676 JUMPI PUSH3 0x66A PUSH1 0x0 DUP3 PUSH3 0x637 JUMP JUMPDEST PUSH1 0x1 DUP2 ADD SWAP1 POP PUSH3 0x654 JUMP JUMPDEST POP POP JUMP JUMPDEST PUSH1 0x1F DUP3 GT ISZERO PUSH3 0x6C5 JUMPI PUSH3 0x68F DUP2 PUSH3 0x539 JUMP JUMPDEST PUSH3 0x69A DUP5 PUSH3 0x54E JUMP JUMPDEST DUP2 ADD PUSH1 0x20 DUP6 LT ISZERO PUSH3 0x6AA JUMPI DUP2 SWAP1 POP JUMPDEST PUSH3 0x6C2 PUSH3 0x6B9 DUP6 PUSH3 0x54E JUMP JUMPDEST DUP4 ADD DUP3 PUSH3 0x653 JUMP JUMPDEST POP POP JUMPDEST POP POP POP JUMP JUMPDEST PUSH1 0x0 DUP3 DUP3 SHR SWAP1 POP SWAP3 SWAP2 POP POP JUMP JUMPDEST PUSH1 0x0 PUSH3 0x6EA PUSH1 0x0 NOT DUP5 PUSH1 0x8 MUL PUSH3 0x6CA JUMP JUMPDEST NOT DUP1 DUP4 AND SWAP2 POP POP SWAP3 SWAP2 POP POP JUMP JUMPDEST PUSH1 0x0 PUSH3 0x705 DUP4 DUP4 PUSH3 0x6D7 JUMP JUMPDEST SWAP2 POP DUP3 PUSH1 0x2 MUL DUP3 OR SWAP1 POP SWAP3 SWAP2 POP POP JUMP JUMPDEST PUSH3 0x720 DUP3 PUSH3 0x4CA JUMP JUMPDEST PUSH8 0xFFFFFFFFFFFFFFFF DUP2 GT ISZERO PUSH3 0x73C JUMPI PUSH3 0x73B PUSH3 0x29E JUMP JUMPDEST JUMPDEST PUSH3 0x748 DUP3 SLOAD PUSH3 0x504 JUMP JUMPDEST PUSH3 0x755 DUP3 DUP3 DUP6 PUSH3 0x67A JUMP JUMPDEST PUSH1 0x0 PUSH1 0x20 SWAP1 POP PUSH1 0x1F DUP4 GT PUSH1 0x1 DUP2 EQ PUSH3 0x78D JUMPI PUSH1 0x0 DUP5 ISZERO PUSH3 0x778 JUMPI DUP3 DUP8 ADD MLOAD SWAP1 POP JUMPDEST PUSH3 0x784 DUP6 DUP3 PUSH3 0x6F7 JUMP JUMPDEST DUP7 SSTORE POP PUSH3 0x7F4 JUMP JUMPDEST PUSH1 0x1F NOT DUP5 AND PUSH3 0x79D DUP7 PUSH3 0x539 JUMP JUMPDEST PUSH1 0x0 JUMPDEST DUP3 DUP2 LT ISZERO PUSH3 0x7C7 JUMPI DUP5 DUP10 ADD MLOAD DUP3 SSTORE PUSH1 0x1 DUP3 ADD SWAP2 POP PUSH1 0x20 DUP6 ADD SWAP5 POP PUSH1 0x20 DUP2 ADD SWAP1 POP PUSH3 0x7A0 JUMP JUMPDEST DUP7 DUP4 LT ISZERO PUSH3 0x7E7 JUMPI DUP5 DUP10 ADD MLOAD PUSH3 0x7E3 PUSH1 0x1F DUP10 AND DUP3 PUSH3 0x6D7 JUMP JUMPDEST DUP4 SSTORE POP JUMPDEST PUSH1 0x1 PUSH1 0x2 DUP9 MUL ADD DUP9 SSTORE POP POP POP JUMPDEST POP POP POP POP POP POP JUMP JUMPDEST PUSH2 0x2D46 DUP1 PUSH3 0x80C PUSH1 0x0 CODECOPY PUSH1 0x0 RETURN INVALID PUSH1 0x80 PUSH1 0x40 MSTORE CALLVALUE DUP1 ISZERO PUSH2 0x10 JUMPI PUSH1 0x0 DUP1 REVERT JUMPDEST POP PUSH1 0x4 CALLDATASIZE LT PUSH2 0x18C JUMPI PUSH1 0x0 CALLDATALOAD PUSH1 0xE0 SHR DUP1 PUSH4 0x6352211E GT PUSH2 0xDE JUMPI DUP1 PUSH4 0xB4DE12CE GT PUSH2 0x97 JUMPI DUP1 PUSH4 0xE8A3D485 GT PUSH2 0x71 JUMPI DUP1 PUSH4 0xE8A3D485 EQ PUSH2 0x4B5 JUMPI DUP1 PUSH4 0xE985E9C5 EQ PUSH2 0x4D3 JUMPI DUP1 PUSH4 0xF242432A EQ PUSH2 0x503 JUMPI DUP1 PUSH4 0xF2FDE38B EQ PUSH2 0x51F JUMPI PUSH2 0x18C JUMP JUMPDEST DUP1 PUSH4 0xB4DE12CE EQ PUSH2 0x461 JUMPI DUP1 PUSH4 0xD8B947D0 EQ PUSH2 0x47D JUMPI DUP1 PUSH4 0xDFD469ED EQ PUSH2 0x499 JUMPI PUSH2 0x18C JUMP JUMPDEST DUP1 PUSH4 0x6352211E EQ PUSH2 0x3B3 JUMPI DUP1 PUSH4 0x715018A6 EQ PUSH2 0x3E3 JUMPI DUP1 PUSH4 0x854A6DBB EQ PUSH2 0x3ED JUMPI DUP1 PUSH4 0x8DA5CB5B EQ PUSH2 0x40B JUMPI DUP1 PUSH4 0x938E3D7B EQ PUSH2 0x429 JUMPI DUP1 PUSH4 0xA22CB465 EQ PUSH2 0x445 JUMPI PUSH2 0x18C JUMP JUMPDEST DUP1 PUSH4 0x1FB221BE GT PUSH2 0x14B JUMPI DUP1 PUSH4 0x2EB2C2D6 GT PUSH2 0x125 JUMPI DUP1 PUSH4 0x2EB2C2D6 EQ PUSH2 0x31B JUMPI DUP1 PUSH4 0x4E1273F4 EQ PUSH2 0x337 JUMPI DUP1 PUSH4 0x58970CA8 EQ PUSH2 0x367 JUMPI DUP1 PUSH4 0x5DA7E1D4 EQ PUSH2 0x397 JUMPI PUSH2 0x18C JUMP JUMPDEST DUP1 PUSH4 0x1FB221BE EQ PUSH2 0x29D JUMPI DUP1 PUSH4 0x2363B4AA EQ PUSH2 0x2CD JUMPI DUP1 PUSH4 0x25A11BAB EQ PUSH2 0x2FD JUMPI PUSH2 0x18C JUMP JUMPDEST DUP1 PUSH3 0x923F9E EQ PUSH2 0x191 JUMPI DUP1 PUSH3 0xFDD58E EQ PUSH2 0x1C1 JUMPI DUP1 PUSH4 0x1FFC9A7 EQ PUSH2 0x1F1 JUMPI DUP1 PUSH4 0x2FE5305 EQ PUSH2 0x221 JUMPI DUP1 PUSH4 0xE89341C EQ PUSH2 0x23D JUMPI DUP1 PUSH4 0x14E51B5D EQ PUSH2 0x26D JUMPI JUMPDEST PUSH1 0x0 DUP1 REVERT JUMPDEST PUSH2 0x1AB PUSH1 0x4 DUP1 CALLDATASIZE SUB DUP2 ADD SWAP1 PUSH2 0x1A6 SWAP2 SWAP1 PUSH2 0x1AB2 JUMP JUMPDEST PUSH2 0x53B JUMP JUMPDEST PUSH1 0x40 MLOAD PUSH2 0x1B8 SWAP2 SWAP1 PUSH2 0x1AFA JUMP JUMPDEST PUSH1 0x40 MLOAD DUP1 SWAP2 SUB SWAP1 RETURN JUMPDEST PUSH2 0x1DB PUSH1 0x4 DUP1 CALLDATASIZE SUB DUP2 ADD SWAP1 PUSH2 0x1D6 SWAP2 SWAP1 PUSH2 0x1B73 JUMP JUMPDEST PUSH2 0x560 JUMP JUMPDEST PUSH1 0x40 MLOAD PUSH2 0x1E8 SWAP2 SWAP1 PUSH2 0x1BC2 JUMP JUMPDEST PUSH1 0x40 MLOAD DUP1 SWAP2 SUB SWAP1 RETURN JUMPDEST PUSH2 0x20B PUSH1 0x4 DUP1 CALLDATASIZE SUB DUP2 ADD SWAP1 PUSH2 0x206 SWAP2 SWAP1 PUSH2 0x1C35 JUMP JUMPDEST PUSH2 0x5EE JUMP JUMPDEST PUSH1 0x40 MLOAD PUSH2 0x218 SWAP2 SWAP1 PUSH2 0x1AFA JUMP JUMPDEST PUSH1 0x40 MLOAD DUP1 SWAP2 SUB SWAP1 RETURN JUMPDEST PUSH2 0x23B PUSH1 0x4 DUP1 CALLDATASIZE SUB DUP2 ADD SWAP1 PUSH2 0x236 SWAP2 SWAP1 PUSH2 0x1CC7 JUMP JUMPDEST PUSH2 0x7A0 JUMP JUMPDEST STOP JUMPDEST PUSH2 0x257 PUSH1 0x4 DUP1 CALLDATASIZE SUB DUP2 ADD SWAP1 PUSH2 0x252 SWAP2 SWAP1 PUSH2 0x1AB2 JUMP JUMPDEST PUSH2 0x7F9 JUMP JUMPDEST PUSH1 0x40 MLOAD PUSH2 0x264 SWAP2 SWAP1 PUSH2 0x1DA4 JUMP JUMPDEST PUSH1 0x40 MLOAD DUP1 SWAP2 SUB SWAP1 RETURN JUMPDEST PUSH2 0x287 PUSH1 0x4 DUP1 CALLDATASIZE SUB DUP2 ADD SWAP1 PUSH2 0x282 SWAP2 SWAP1 PUSH2 0x1E1C JUMP JUMPDEST PUSH2 0x88D JUMP JUMPDEST PUSH1 0x40 MLOAD PUSH2 0x294 SWAP2 SWAP1 PUSH2 0x1F27 JUMP JUMPDEST PUSH1 0x40 MLOAD DUP1 SWAP2 SUB SWAP1 RETURN JUMPDEST PUSH2 0x2B7 PUSH1 0x4 DUP1 CALLDATASIZE SUB DUP2 ADD SWAP1 PUSH2 0x2B2 SWAP2 SWAP1 PUSH2 0x1E1C JUMP JUMPDEST PUSH2 0x97E JUMP JUMPDEST PUSH1 0x40 MLOAD PUSH2 0x2C4 SWAP2 SWAP1 PUSH2 0x1BC2 JUMP JUMPDEST PUSH1 0x40 MLOAD DUP1 SWAP2 SUB SWAP1 RETURN JUMPDEST PUSH2 0x2E7 PUSH1 0x4 DUP1 CALLDATASIZE SUB DUP2 ADD SWAP1 PUSH2 0x2E2 SWAP2 SWAP1 PUSH2 0x1AB2 JUMP JUMPDEST PUSH2 0xA14 JUMP JUMPDEST PUSH1 0x40 MLOAD PUSH2 0x2F4 SWAP2 SWAP1 PUSH2 0x1F6C JUMP JUMPDEST PUSH1 0x40 MLOAD DUP1 SWAP2 SUB SWAP1 RETURN JUMPDEST PUSH2 0x305 PUSH2 0xA6A JUMP JUMPDEST PUSH1 0x40 MLOAD PUSH2 0x312 SWAP2 SWAP1 PUSH2 0x1BC2 JUMP JUMPDEST PUSH1 0x40 MLOAD DUP1 SWAP2 SUB SWAP1 RETURN JUMPDEST PUSH2 0x335 PUSH1 0x4 DUP1 CALLDATASIZE SUB DUP2 ADD SWAP1 PUSH2 0x330 SWAP2 SWAP1 PUSH2 0x217A JUMP JUMPDEST PUSH2 0xA6F JUMP JUMPDEST STOP JUMPDEST PUSH2 0x351 PUSH1 0x4 DUP1 CALLDATASIZE SUB DUP2 ADD SWAP1 PUSH2 0x34C SWAP2 SWAP1 PUSH2 0x229F JUMP JUMPDEST PUSH2 0xAA1 JUMP JUMPDEST PUSH1 0x40 MLOAD PUSH2 0x35E SWAP2 SWAP1 PUSH2 0x1F27 JUMP JUMPDEST PUSH1 0x40 MLOAD DUP1 SWAP2 SUB SWAP1 RETURN JUMPDEST PUSH2 0x381 PUSH1 0x4 DUP1 CALLDATASIZE SUB DUP2 ADD SWAP1 PUSH2 0x37C SWAP2 SWAP1 PUSH2 0x2320 JUMP JUMPDEST PUSH2 0xC3A JUMP JUMPDEST PUSH1 0x40 MLOAD PUSH2 0x38E SWAP2 SWAP1 PUSH2 0x1BC2 JUMP JUMPDEST PUSH1 0x40 MLOAD DUP1 SWAP2 SUB SWAP1 RETURN JUMPDEST PUSH2 0x3B1 PUSH1 0x4 DUP1 CALLDATASIZE SUB DUP2 ADD SWAP1 PUSH2 0x3AC SWAP2 SWAP1 PUSH2 0x23F9 JUMP JUMPDEST PUSH2 0xC4C JUMP JUMPDEST STOP JUMPDEST PUSH2 0x3CD PUSH1 0x4 DUP1 CALLDATASIZE SUB DUP2 ADD SWAP1 PUSH2 0x3C8 SWAP2 SWAP1 PUSH2 0x1AB2 JUMP JUMPDEST PUSH2 0xCF8 JUMP JUMPDEST PUSH1 0x40 MLOAD PUSH2 0x3DA SWAP2 SWAP1 PUSH2 0x2489 JUMP JUMPDEST PUSH1 0x40 MLOAD DUP1 SWAP2 SUB SWAP1 RETURN JUMPDEST PUSH2 0x3EB PUSH2 0xD80 JUMP JUMPDEST STOP JUMPDEST PUSH2 0x3F5 PUSH2 0xD94 JUMP JUMPDEST PUSH1 0x40 MLOAD PUSH2 0x402 SWAP2 SWAP1 PUSH2 0x1BC2 JUMP JUMPDEST PUSH1 0x40 MLOAD DUP1 SWAP2 SUB SWAP1 RETURN JUMPDEST PUSH2 0x413 PUSH2 0xD9E JUMP JUMPDEST PUSH1 0x40 MLOAD PUSH2 0x420 SWAP2 SWAP1 PUSH2 0x2489 JUMP JUMPDEST PUSH1 0x40 MLOAD DUP1 SWAP2 SUB SWAP1 RETURN JUMPDEST PUSH2 0x443 PUSH1 0x4 DUP1 CALLDATASIZE SUB DUP2 ADD SWAP1 PUSH2 0x43E SWAP2 SWAP1 PUSH2 0x1CC7 JUMP JUMPDEST PUSH2 0xDC8 JUMP JUMPDEST STOP JUMPDEST PUSH2 0x45F PUSH1 0x4 DUP1 CALLDATASIZE SUB DUP2 ADD SWAP1 PUSH2 0x45A SWAP2 SWAP1 PUSH2 0x24D0 JUMP JUMPDEST PUSH2 0xE21 JUMP JUMPDEST STOP JUMPDEST PUSH2 0x47B PUSH1 0x4 DUP1 CALLDATASIZE SUB DUP2 ADD SWAP1 PUSH2 0x476 SWAP2 SWAP1 PUSH2 0x2510 JUMP JUMPDEST PUSH2 0xE53 JUMP JUMPDEST STOP JUMPDEST PUSH2 0x497 PUSH1 0x4 DUP1 CALLDATASIZE SUB DUP2 ADD SWAP1 PUSH2 0x492 SWAP2 SWAP1 PUSH2 0x2591 JUMP JUMPDEST PUSH2 0xE9F JUMP JUMPDEST STOP JUMPDEST PUSH2 0x4B3 PUSH1 0x4 DUP1 CALLDATASIZE SUB DUP2 ADD SWAP1 PUSH2 0x4AE SWAP2 SWAP1 PUSH2 0x2615 JUMP JUMPDEST PUSH2 0xEB5 JUMP JUMPDEST STOP JUMPDEST PUSH2 0x4BD PUSH2 0xF27 JUMP JUMPDEST PUSH1 0x40 MLOAD PUSH2 0x4CA SWAP2 SWAP1 PUSH2 0x1DA4 JUMP JUMPDEST PUSH1 0x40 MLOAD DUP1 SWAP2 SUB SWAP1 RETURN JUMPDEST PUSH2 0x4ED PUSH1 0x4 DUP1 CALLDATASIZE SUB DUP2 ADD SWAP1 PUSH2 0x4E8 SWAP2 SWAP1 PUSH2 0x2675 JUMP JUMPDEST PUSH2 0xFB9 JUMP JUMPDEST PUSH1 0x40 MLOAD PUSH2 0x4FA SWAP2 SWAP1 PUSH2 0x1AFA JUMP JUMPDEST PUSH1 0x40 MLOAD DUP1 SWAP2 SUB SWAP1 RETURN JUMPDEST PUSH2 0x51D PUSH1 0x4 DUP1 CALLDATASIZE SUB DUP2 ADD SWAP1 PUSH2 0x518 SWAP2 SWAP1 PUSH2 0x26B5 JUMP JUMPDEST PUSH2 0xFED JUMP JUMPDEST STOP JUMPDEST PUSH2 0x539 PUSH1 0x4 DUP1 CALLDATASIZE SUB DUP2 ADD SWAP1 PUSH2 0x534 SWAP2 SWAP1 PUSH2 0x2320 JUMP JUMPDEST PUSH2 0x101F JUMP JUMPDEST STOP JUMPDEST PUSH1 0x0 DUP1 PUSH2 0x547 DUP4 PUSH2 0x10A5 JUMP JUMPDEST SWAP1 POP PUSH1 0x0 DUP2 PUSH8 0xFFFFFFFFFFFFFFFF AND EQ ISZERO SWAP2 POP POP SWAP2 SWAP1 POP JUMP JUMPDEST PUSH1 0x0 DUP1 DUP3 SUB PUSH2 0x579 JUMPI PUSH2 0x572 DUP4 PUSH2 0x10D6 JUMP JUMPDEST SWAP1 POP PUSH2 0x5E8 JUMP JUMPDEST PUSH1 0x0 PUSH2 0x584 DUP4 PUSH2 0xCF8 JUMP JUMPDEST SWAP1 POP DUP4 PUSH20 0xFFFFFFFFFFFFFFFFFFFFFFFFFFFFFFFFFFFFFFFF AND DUP2 PUSH20 0xFFFFFFFFFFFFFFFFFFFFFFFFFFFFFFFFFFFFFFFF AND EQ ISZERO DUP1 PUSH2 0x5D3 JUMPI POP PUSH1 0x0 PUSH2 0x5C7 DUP5 PUSH2 0x10A5 JUMP JUMPDEST PUSH8 0xFFFFFFFFFFFFFFFF AND EQ JUMPDEST ISZERO PUSH2 0x5E2 JUMPI PUSH1 0x0 SWAP2 POP POP PUSH2 0x5E8 JUMP JUMPDEST PUSH1 0x1 SWAP2 POP POP JUMPDEST SWAP3 SWAP2 POP POP JUMP JUMPDEST PUSH1 0x0 PUSH32 0x58970CA800000000000000000000000000000000000000000000000000000000 PUSH28 0xFFFFFFFFFFFFFFFFFFFFFFFFFFFFFFFFFFFFFFFFFFFFFFFFFFFFFFFF NOT AND DUP3 PUSH28 0xFFFFFFFFFFFFFFFFFFFFFFFFFFFFFFFFFFFFFFFFFFFFFFFFFFFFFFFF NOT AND EQ DUP1 PUSH2 0x6B9 JUMPI POP PUSH32 0x624DE68800000000000000000000000000000000000000000000000000000000 PUSH28 0xFFFFFFFFFFFFFFFFFFFFFFFFFFFFFFFFFFFFFFFFFFFFFFFFFFFFFFFF NOT AND DUP3 PUSH28 0xFFFFFFFFFFFFFFFFFFFFFFFFFFFFFFFFFFFFFFFFFFFFFFFFFFFFFFFF NOT AND EQ JUMPDEST DUP1 PUSH2 0x721 JUMPI POP PUSH32 0xD9B67A2600000000000000000000000000000000000000000000000000000000 PUSH28 0xFFFFFFFFFFFFFFFFFFFFFFFFFFFFFFFFFFFFFFFFFFFFFFFFFFFFFFFF NOT AND DUP3 PUSH28 0xFFFFFFFFFFFFFFFFFFFFFFFFFFFFFFFFFFFFFFFFFFFFFFFFFFFFFFFF NOT AND EQ JUMPDEST DUP1 PUSH2 0x789 JUMPI POP PUSH32 0xE89341C00000000000000000000000000000000000000000000000000000000 PUSH28 0xFFFFFFFFFFFFFFFFFFFFFFFFFFFFFFFFFFFFFFFFFFFFFFFFFFFFFFFF NOT AND DUP3 PUSH28 0xFFFFFFFFFFFFFFFFFFFFFFFFFFFFFFFFFFFFFFFFFFFFFFFFFFFFFFFF NOT AND EQ JUMPDEST DUP1 PUSH2 0x799 JUMPI POP PUSH2 0x798 DUP3 PUSH2 0x111E JUMP JUMPDEST JUMPDEST SWAP1 POP SWAP2 SWAP1 POP JUMP JUMPDEST PUSH2 0x7A8 PUSH2 0x1188 JUMP JUMPDEST PUSH2 0x7F5 DUP3 DUP3 DUP1 DUP1 PUSH1 0x1F ADD PUSH1 0x20 DUP1 SWAP2 DIV MUL PUSH1 0x20 ADD PUSH1 0x40 MLOAD SWAP1 DUP2 ADD PUSH1 0x40 MSTORE DUP1 SWAP4 SWAP3 SWAP2 SWAP1 DUP2 DUP2 MSTORE PUSH1 0x20 ADD DUP4 DUP4 DUP1 DUP3 DUP5 CALLDATACOPY PUSH1 0x0 DUP2 DUP5 ADD MSTORE PUSH1 0x1F NOT PUSH1 0x1F DUP3 ADD AND SWAP1 POP DUP1 DUP4 ADD SWAP3 POP POP POP POP POP POP POP PUSH2 0x120F JUMP JUMPDEST POP POP JUMP JUMPDEST PUSH1 0x60 PUSH1 0x3 DUP1 SLOAD PUSH2 0x808 SWAP1 PUSH2 0x277B JUMP JUMPDEST DUP1 PUSH1 0x1F ADD PUSH1 0x20 DUP1 SWAP2 DIV MUL PUSH1 0x20 ADD PUSH1 0x40 MLOAD SWAP1 DUP2 ADD PUSH1 0x40 MSTORE DUP1 SWAP3 SWAP2 SWAP1 DUP2 DUP2 MSTORE PUSH1 0x20 ADD DUP3 DUP1 SLOAD PUSH2 0x834 SWAP1 PUSH2 0x277B JUMP JUMPDEST DUP1 ISZERO PUSH2 0x881 JUMPI DUP1 PUSH1 0x1F LT PUSH2 0x856 JUMPI PUSH2 0x100 DUP1 DUP4 SLOAD DIV MUL DUP4 MSTORE SWAP2 PUSH1 0x20 ADD SWAP2 PUSH2 0x881 JUMP JUMPDEST DUP3 ADD SWAP2 SWAP1 PUSH1 0x0 MSTORE PUSH1 0x20 PUSH1 0x0 KECCAK256 SWAP1 JUMPDEST DUP2 SLOAD DUP2 MSTORE SWAP1 PUSH1 0x1 ADD SWAP1 PUSH1 0x20 ADD DUP1 DUP4 GT PUSH2 0x864 JUMPI DUP3 SWAP1 SUB PUSH1 0x1F AND DUP3 ADD SWAP2 JUMPDEST POP POP POP POP POP SWAP1 POP SWAP2 SWAP1 POP JUMP JUMPDEST PUSH1 0x60 PUSH1 0x0 DUP4 DUP4 SWAP1 POP PUSH8 0xFFFFFFFFFFFFFFFF DUP2 GT ISZERO PUSH2 0x8AE JUMPI PUSH2 0x8AD PUSH2 0x1F87 JUMP JUMPDEST JUMPDEST PUSH1 0x40 MLOAD SWAP1 DUP1 DUP3 MSTORE DUP1 PUSH1 0x20 MUL PUSH1 0x20 ADD DUP3 ADD PUSH1 0x40 MSTORE DUP1 ISZERO PUSH2 0x8DC JUMPI DUP2 PUSH1 0x20 ADD PUSH1 0x20 DUP3 MUL DUP1 CALLDATASIZE DUP4 CALLDATACOPY DUP1 DUP3 ADD SWAP2 POP POP SWAP1 POP JUMPDEST POP SWAP1 POP PUSH1 0x0 JUMPDEST DUP5 DUP5 SWAP1 POP DUP2 LT ISZERO PUSH2 0x973 JUMPI PUSH2 0x949 PUSH2 0x944 DUP3 DUP8 DUP8 DUP1 DUP1 PUSH1 0x20 MUL PUSH1 0x20 ADD PUSH1 0x40 MLOAD SWAP1 DUP2 ADD PUSH1 0x40 MSTORE DUP1 SWAP4 SWAP3 SWAP2 SWAP1 DUP2 DUP2 MSTORE PUSH1 0x20 ADD DUP4 DUP4 PUSH1 0x20 MUL DUP1 DUP3 DUP5 CALLDATACOPY PUSH1 0x0 DUP2 DUP5 ADD MSTORE PUSH1 0x1F NOT PUSH1 0x1F DUP3 ADD AND SWAP1 POP DUP1 DUP4 ADD SWAP3 POP POP POP POP POP POP POP PUSH2 0x1222 SWAP1 SWAP2 SWAP1 PUSH4 0xFFFFFFFF AND JUMP JUMPDEST PUSH2 0xC3A JUMP JUMPDEST DUP3 DUP3 DUP2 MLOAD DUP2 LT PUSH2 0x95C JUMPI PUSH2 0x95B PUSH2 0x27AC JUMP JUMPDEST JUMPDEST PUSH1 0x20 MUL PUSH1 0x20 ADD ADD DUP2 DUP2 MSTORE POP POP DUP1 PUSH1 0x1 ADD SWAP1 POP PUSH2 0x8E2 JUMP JUMPDEST POP DUP1 SWAP2 POP POP SWAP3 SWAP2 POP POP JUMP JUMPDEST PUSH1 0x0 DUP1 PUSH1 0x0 SWAP1 POP PUSH1 0x0 JUMPDEST DUP5 DUP5 SWAP1 POP DUP2 LT ISZERO PUSH2 0xA09 JUMPI PUSH2 0x9EF PUSH2 0x9EA DUP3 DUP8 DUP8 DUP1 DUP1 PUSH1 0x20 MUL PUSH1 0x20 ADD PUSH1 0x40 MLOAD SWAP1 DUP2 ADD PUSH1 0x40 MSTORE DUP1 SWAP4 SWAP3 SWAP2 SWAP1 DUP2 DUP2 MSTORE PUSH1 0x20 ADD DUP4 DUP4 PUSH1 0x20 MUL DUP1 DUP3 DUP5 CALLDATACOPY PUSH1 0x0 DUP2 DUP5 ADD MSTORE PUSH1 0x1F NOT PUSH1 0x1F DUP3 ADD AND SWAP1 POP DUP1 DUP4 ADD SWAP3 POP POP POP POP POP POP POP PUSH2 0x1222 SWAP1 SWAP2 SWAP1 PUSH4 0xFFFFFFFF AND JUMP JUMPDEST PUSH2 0xC3A JUMP JUMPDEST DUP3 PUSH2 0x9FA SWAP2 SWAP1 PUSH2 0x280A JUMP JUMPDEST SWAP2 POP DUP1 DUP1 PUSH1 0x1 ADD SWAP2 POP POP PUSH2 0x988 JUMP JUMPDEST POP DUP1 SWAP2 POP POP SWAP3 SWAP2 POP POP JUMP JUMPDEST PUSH1 0x0 DUP1 DUP3 SUB PUSH2 0xA5A JUMPI DUP2 PUSH1 0x40 MLOAD PUSH32 0x7117486100000000000000000000000000000000000000000000000000000000 DUP2 MSTORE PUSH1 0x4 ADD PUSH2 0xA51 SWAP2 SWAP1 PUSH2 0x1BC2 JUMP JUMPDEST PUSH1 0x40 MLOAD DUP1 SWAP2 SUB SWAP1 REVERT JUMPDEST PUSH2 0xA63 DUP3 PUSH2 0x10A5 JUMP JUMPDEST SWAP1 POP SWAP2 SWAP1 POP JUMP JUMPDEST PUSH1 0x0 DUP2 JUMP JUMPDEST PUSH1 0x40 MLOAD PUSH32 0x5F0AC46800000000000000000000000000000000000000000000000000000000 DUP2 MSTORE PUSH1 0x4 ADD PUSH1 0x40 MLOAD DUP1 SWAP2 SUB SWAP1 REVERT JUMPDEST PUSH1 0x60 DUP3 DUP3 SWAP1 POP DUP6 DUP6 SWAP1 POP EQ PUSH2 0xAF5 JUMPI DUP3 DUP3 SWAP1 POP DUP6 DUP6 SWAP1 POP PUSH1 0x40 MLOAD PUSH32 0x5B05999100000000000000000000000000000000000000000000000000000000 DUP2 MSTORE PUSH1 0x4 ADD PUSH2 0xAEC SWAP3 SWAP2 SWAP1 PUSH2 0x283E JUMP JUMPDEST PUSH1 0x40 MLOAD DUP1 SWAP2 SUB SWAP1 REVERT JUMPDEST PUSH1 0x0 DUP6 DUP6 SWAP1 POP PUSH8 0xFFFFFFFFFFFFFFFF DUP2 GT ISZERO PUSH2 0xB14 JUMPI PUSH2 0xB13 PUSH2 0x1F87 JUMP JUMPDEST JUMPDEST PUSH1 0x40 MLOAD SWAP1 DUP1 DUP3 MSTORE DUP1 PUSH1 0x20 MUL PUSH1 0x20 ADD DUP3 ADD PUSH1 0x40 MSTORE DUP1 ISZERO PUSH2 0xB42 JUMPI DUP2 PUSH1 0x20 ADD PUSH1 0x20 DUP3 MUL DUP1 CALLDATASIZE DUP4 CALLDATACOPY DUP1 DUP3 ADD SWAP2 POP POP SWAP1 POP JUMPDEST POP SWAP1 POP PUSH1 0x0 JUMPDEST DUP7 DUP7 SWAP1 POP DUP2 LT ISZERO PUSH2 0xC2D JUMPI PUSH2 0xC03 PUSH2 0xBAA DUP3 DUP10 DUP10 DUP1 DUP1 PUSH1 0x20 MUL PUSH1 0x20 ADD PUSH1 0x40 MLOAD SWAP1 DUP2 ADD PUSH1 0x40 MSTORE DUP1 SWAP4 SWAP3 SWAP2 SWAP1 DUP2 DUP2 MSTORE PUSH1 0x20 ADD DUP4 DUP4 PUSH1 0x20 MUL DUP1 DUP3 DUP5 CALLDATACOPY PUSH1 0x0 DUP2 DUP5 ADD MSTORE PUSH1 0x1F NOT PUSH1 0x1F DUP3 ADD AND SWAP1 POP DUP1 DUP4 ADD SWAP3 POP POP POP POP POP POP POP PUSH2 0x1222 SWAP1 SWAP2 SWAP1 PUSH4 0xFFFFFFFF AND JUMP JUMPDEST PUSH2 0xBFE DUP4 DUP9 DUP9 DUP1 DUP1 PUSH1 0x20 MUL PUSH1 0x20 ADD PUSH1 0x40 MLOAD SWAP1 DUP2 ADD PUSH1 0x40 MSTORE DUP1 SWAP4 SWAP3 SWAP2 SWAP1 DUP2 DUP2 MSTORE PUSH1 0x20 ADD DUP4 DUP4 PUSH1 0x20 MUL DUP1 DUP3 DUP5 CALLDATACOPY PUSH1 0x0 DUP2 DUP5 ADD MSTORE PUSH1 0x1F NOT PUSH1 0x1F DUP3 ADD AND SWAP1 POP DUP1 DUP4 ADD SWAP3 POP POP POP POP POP POP POP PUSH2 0x1236 SWAP1 SWAP2 SWAP1 PUSH4 0xFFFFFFFF AND JUMP JUMPDEST PUSH2 0x560 JUMP JUMPDEST DUP3 DUP3 DUP2 MLOAD DUP2 LT PUSH2 0xC16 JUMPI PUSH2 0xC15 PUSH2 0x27AC JUMP JUMPDEST JUMPDEST PUSH1 0x20 MUL PUSH1 0x20 ADD ADD DUP2 DUP2 MSTORE POP POP DUP1 PUSH1 0x1 ADD SWAP1 POP PUSH2 0xB48 JUMP JUMPDEST POP DUP1 SWAP2 POP POP SWAP5 SWAP4 POP POP POP POP JUMP JUMPDEST PUSH1 0x0 PUSH2 0xC45 DUP3 PUSH2 0x10D6 JUMP JUMPDEST SWAP1 POP SWAP2 SWAP1 POP JUMP JUMPDEST PUSH2 0xC54 PUSH2 0x1188 JUMP JUMPDEST PUSH1 0x0 JUMPDEST DUP5 DUP5 SWAP1 POP DUP2 LT ISZERO PUSH2 0xCF1 JUMPI CALLDATASIZE DUP6 DUP6 DUP4 DUP2 DUP2 LT PUSH2 0xC76 JUMPI PUSH2 0xC75 PUSH2 0x27AC JUMP JUMPDEST JUMPDEST SWAP1 POP PUSH1 0x40 MUL ADD SWAP1 POP PUSH2 0xCE3 DUP2 PUSH1 0x0 ADD CALLDATALOAD DUP3 PUSH1 0x20 ADD PUSH1 0x20 DUP2 ADD SWAP1 PUSH2 0xC99 SWAP2 SWAP1 PUSH2 0x2893 JUMP JUMPDEST DUP7 DUP7 DUP1 DUP1 PUSH1 0x1F ADD PUSH1 0x20 DUP1 SWAP2 DIV MUL PUSH1 0x20 ADD PUSH1 0x40 MLOAD SWAP1 DUP2 ADD PUSH1 0x40 MSTORE DUP1 SWAP4 SWAP3 SWAP2 SWAP1 DUP2 DUP2 MSTORE PUSH1 0x20 ADD DUP4 DUP4 DUP1 DUP3 DUP5 CALLDATACOPY PUSH1 0x0 DUP2 DUP5 ADD MSTORE PUSH1 0x1F NOT PUSH1 0x1F DUP3 ADD AND SWAP1 POP DUP1 DUP4 ADD SWAP3 POP POP POP POP POP POP POP PUSH2 0x124A JUMP JUMPDEST POP DUP1 DUP1 PUSH1 0x1 ADD SWAP2 POP POP PUSH2 0xC57 JUMP JUMPDEST POP POP POP POP POP JUMP JUMPDEST PUSH1 0x0 DUP1 PUSH2 0xD04 DUP4 PUSH2 0x1472 JUMP JUMPDEST SWAP1 POP PUSH1 0x0 PUSH20 0xFFFFFFFFFFFFFFFFFFFFFFFFFFFFFFFFFFFFFFFF AND DUP2 PUSH20 0xFFFFFFFFFFFFFFFFFFFFFFFFFFFFFFFFFFFFFFFF AND SUB PUSH2 0xD77 JUMPI DUP3 PUSH1 0x40 MLOAD PUSH32 0xED15E6CF00000000000000000000000000000000000000000000000000000000 DUP2 MSTORE PUSH1 0x4 ADD PUSH2 0xD6E SWAP2 SWAP1 PUSH2 0x1BC2 JUMP JUMPDEST PUSH1 0x40 MLOAD DUP1 SWAP2 SUB SWAP1 REVERT JUMPDEST DUP1 SWAP2 POP POP SWAP2 SWAP1 POP JUMP JUMPDEST PUSH2 0xD88 PUSH2 0x1188 JUMP JUMPDEST PUSH2 0xD92 PUSH1 0x0 PUSH2 0x1484 JUMP JUMPDEST JUMP JUMPDEST PUSH1 0x0 PUSH1 0x2 SLOAD SWAP1 POP SWAP1 JUMP JUMPDEST PUSH1 0x0 PUSH1 0x5 PUSH1 0x0 SWAP1 SLOAD SWAP1 PUSH2 0x100 EXP SWAP1 DIV PUSH20 0xFFFFFFFFFFFFFFFFFFFFFFFFFFFFFFFFFFFFFFFF AND SWAP1 POP SWAP1 JUMP JUMPDEST PUSH2 0xDD0 PUSH2 0x1188 JUMP JUMPDEST PUSH2 0xE1D DUP3 DUP3 DUP1 DUP1 PUSH1 0x1F ADD PUSH1 0x20 DUP1 SWAP2 DIV MUL PUSH1 0x20 ADD PUSH1 0x40 MLOAD SWAP1 DUP2 ADD PUSH1 0x40 MSTORE DUP1 SWAP4 SWAP3 SWAP2 SWAP1 DUP2 DUP2 MSTORE PUSH1 0x20 ADD DUP4 DUP4 DUP1 DUP3 DUP5 CALLDATACOPY PUSH1 0x0 DUP2 DUP5 ADD MSTORE PUSH1 0x1F NOT PUSH1 0x1F DUP3 ADD AND SWAP1 POP DUP1 DUP4 ADD SWAP3 POP POP POP POP POP POP POP PUSH2 0x154A JUMP JUMPDEST POP POP JUMP JUMPDEST PUSH1 0x40 MLOAD PUSH32 0x5F0AC46800000000000000000000000000000000000000000000000000000000 DUP2 MSTORE PUSH1 0x4 ADD PUSH1 0x40 MLOAD DUP1 SWAP2 SUB SWAP1 REVERT JUMPDEST PUSH2 0xE5B PUSH2 0x1188 JUMP JUMPDEST PUSH1 0x0 JUMPDEST DUP5 DUP5 SWAP1 POP DUP2 LT ISZERO PUSH2 0xE98 JUMPI PUSH2 0xE8B DUP6 DUP6 DUP4 DUP2 DUP2 LT PUSH2 0xE7F JUMPI PUSH2 0xE7E PUSH2 0x27AC JUMP JUMPDEST JUMPDEST SWAP1 POP PUSH1 0x20 MUL ADD CALLDATALOAD PUSH2 0x1589 JUMP JUMPDEST DUP1 DUP1 PUSH1 0x1 ADD SWAP2 POP POP PUSH2 0xE5E JUMP JUMPDEST POP POP POP POP POP JUMP JUMPDEST PUSH2 0xEA7 PUSH2 0x1188 JUMP JUMPDEST PUSH2 0xEB0 DUP4 PUSH2 0x1589 JUMP JUMPDEST POP POP POP JUMP JUMPDEST PUSH2 0xEBD PUSH2 0x1188 JUMP JUMPDEST PUSH2 0xF22 DUP4 PUSH1 0x0 ADD CALLDATALOAD DUP5 PUSH1 0x20 ADD PUSH1 0x20 DUP2 ADD SWAP1 PUSH2 0xED8 SWAP2 SWAP1 PUSH2 0x2893 JUMP JUMPDEST DUP5 DUP5 DUP1 DUP1 PUSH1 0x1F ADD PUSH1 0x20 DUP1 SWAP2 DIV MUL PUSH1 0x20 ADD PUSH1 0x40 MLOAD SWAP1 DUP2 ADD PUSH1 0x40 MSTORE DUP1 SWAP4 SWAP3 SWAP2 SWAP1 DUP2 DUP2 MSTORE PUSH1 0x20 ADD DUP4 DUP4 DUP1 DUP3 DUP5 CALLDATACOPY PUSH1 0x0 DUP2 DUP5 ADD MSTORE PUSH1 0x1F NOT PUSH1 0x1F DUP3 ADD AND SWAP1 POP DUP1 DUP4 ADD SWAP3 POP POP POP POP POP POP POP PUSH2 0x124A JUMP JUMPDEST POP POP POP JUMP JUMPDEST PUSH1 0x60 PUSH1 0x4 DUP1 SLOAD PUSH2 0xF36 SWAP1 PUSH2 0x277B JUMP JUMPDEST DUP1 PUSH1 0x1F ADD PUSH1 0x20 DUP1 SWAP2 DIV MUL PUSH1 0x20 ADD PUSH1 0x40 MLOAD SWAP1 DUP2 ADD PUSH1 0x40 MSTORE DUP1 SWAP3 SWAP2 SWAP1 DUP2 DUP2 MSTORE PUSH1 0x20 ADD DUP3 DUP1 SLOAD PUSH2 0xF62 SWAP1 PUSH2 0x277B JUMP JUMPDEST DUP1 ISZERO PUSH2 0xFAF JUMPI DUP1 PUSH1 0x1F LT PUSH2 0xF84 JUMPI PUSH2 0x100 DUP1 DUP4 SLOAD DIV MUL DUP4 MSTORE SWAP2 PUSH1 0x20 ADD SWAP2 PUSH2 0xFAF JUMP JUMPDEST DUP3 ADD SWAP2 SWAP1 PUSH1 0x0 MSTORE PUSH1 0x20 PUSH1 0x0 KECCAK256 SWAP1 JUMPDEST DUP2 SLOAD DUP2 MSTORE SWAP1 PUSH1 0x1 ADD SWAP1 PUSH1 0x20 ADD DUP1 DUP4 GT PUSH2 0xF92 JUMPI DUP3 SWAP1 SUB PUSH1 0x1F AND DUP3 ADD SWAP2 JUMPDEST POP POP POP POP POP SWAP1 POP SWAP1 JUMP JUMPDEST PUSH1 0x0 PUSH1 0x40 MLOAD PUSH32 0x5F0AC46800000000000000000000000000000000000000000000000000000000 DUP2 MSTORE PUSH1 0x4 ADD PUSH1 0x40 MLOAD DUP1 SWAP2 SUB SWAP1 REVERT JUMPDEST PUSH1 0x40 MLOAD PUSH32 0x5F0AC46800000000000000000000000000000000000000000000000000000000 DUP2 MSTORE PUSH1 0x4 ADD PUSH1 0x40 MLOAD DUP1 SWAP2 SUB SWAP1 REVERT JUMPDEST PUSH2 0x1027 PUSH2 0x1188 JUMP JUMPDEST PUSH1 0x0 PUSH20 0xFFFFFFFFFFFFFFFFFFFFFFFFFFFFFFFFFFFFFFFF AND DUP2 PUSH20 0xFFFFFFFFFFFFFFFFFFFFFFFFFFFFFFFFFFFFFFFF AND SUB PUSH2 0x1099 JUMPI PUSH1 0x0 PUSH1 0x40 MLOAD PUSH32 0x1E4FBDF700000000000000000000000000000000000000000000000000000000 DUP2 MSTORE PUSH1 0x4 ADD PUSH2 0x1090 SWAP2 SWAP1 PUSH2 0x2489 JUMP JUMPDEST PUSH1 0x40 MLOAD DUP1 SWAP2 SUB SWAP1 REVERT JUMPDEST PUSH2 0x10A2 DUP2 PUSH2 0x1484 JUMP JUMPDEST POP JUMP JUMPDEST PUSH1 0x0 PUSH1 0x1 PUSH1 0x0 DUP4 DUP2 MSTORE PUSH1 0x20 ADD SWAP1 DUP2 MSTORE PUSH1 0x20 ADD PUSH1 0x0 KECCAK256 PUSH1 0x0 SWAP1 SLOAD SWAP1 PUSH2 0x100 EXP SWAP1 DIV PUSH8 0xFFFFFFFFFFFFFFFF AND SWAP1 POP SWAP2 SWAP1 POP JUMP JUMPDEST PUSH1 0x0 DUP1 PUSH1 0x0 DUP4 PUSH20 0xFFFFFFFFFFFFFFFFFFFFFFFFFFFFFFFFFFFFFFFF AND PUSH20 0xFFFFFFFFFFFFFFFFFFFFFFFFFFFFFFFFFFFFFFFF AND DUP2 MSTORE PUSH1 0x20 ADD SWAP1 DUP2 MSTORE PUSH1 0x20 ADD PUSH1 0x0 KECCAK256 SLOAD SWAP1 POP SWAP2 SWAP1 POP JUMP JUMPDEST PUSH1 0x0 PUSH32 0x1FFC9A700000000000000000000000000000000000000000000000000000000 PUSH28 0xFFFFFFFFFFFFFFFFFFFFFFFFFFFFFFFFFFFFFFFFFFFFFFFFFFFFFFFF NOT AND DUP3 PUSH28 0xFFFFFFFFFFFFFFFFFFFFFFFFFFFFFFFFFFFFFFFFFFFFFFFFFFFFFFFF NOT AND EQ SWAP1 POP SWAP2 SWAP1 POP JUMP JUMPDEST PUSH2 0x1190 PUSH2 0x1778 JUMP JUMPDEST PUSH20 0xFFFFFFFFFFFFFFFFFFFFFFFFFFFFFFFFFFFFFFFF AND PUSH2 0x11AE PUSH2 0xD9E JUMP JUMPDEST PUSH20 0xFFFFFFFFFFFFFFFFFFFFFFFFFFFFFFFFFFFFFFFF AND EQ PUSH2 0x120D JUMPI PUSH2 0x11D1 PUSH2 0x1778 JUMP JUMPDEST PUSH1 0x40 MLOAD PUSH32 0x118CDAA700000000000000000000000000000000000000000000000000000000 DUP2 MSTORE PUSH1 0x4 ADD PUSH2 0x1204 SWAP2 SWAP1 PUSH2 0x2489 JUMP JUMPDEST PUSH1 0x40 MLOAD DUP1 SWAP2 SUB SWAP1 REVERT JUMPDEST JUMP JUMPDEST DUP1 PUSH1 0x3 SWAP1 DUP2 PUSH2 0x121E SWAP2 SWAP1 PUSH2 0x2A6C JUMP JUMPDEST POP POP JUMP JUMPDEST PUSH1 0x0 PUSH1 0x20 DUP3 MUL PUSH1 0x20 DUP5 ADD ADD MLOAD SWAP1 POP SWAP3 SWAP2 POP POP JUMP JUMPDEST PUSH1 0x0 PUSH1 0x20 DUP3 MUL PUSH1 0x20 DUP5 ADD ADD MLOAD SWAP1 POP SWAP3 SWAP2 POP POP JUMP JUMPDEST PUSH1 0x0 PUSH2 0x1255 DUP5 PUSH2 0x1472 JUMP JUMPDEST SWAP1 POP PUSH1 0x0 CALLER SWAP1 POP PUSH1 0x0 PUSH20 0xFFFFFFFFFFFFFFFFFFFFFFFFFFFFFFFFFFFFFFFF AND DUP3 PUSH20 0xFFFFFFFFFFFFFFFFFFFFFFFFFFFFFFFFFFFFFFFF AND SUB PUSH2 0x12CE JUMPI PUSH1 0x0 PUSH1 0x40 MLOAD PUSH32 0x57F447CE00000000000000000000000000000000000000000000000000000000 DUP2 MSTORE PUSH1 0x4 ADD PUSH2 0x12C5 SWAP2 SWAP1 PUSH2 0x2489 JUMP JUMPDEST PUSH1 0x40 MLOAD DUP1 SWAP2 SUB SWAP1 REVERT JUMPDEST PUSH2 0x12D7 DUP6 PUSH2 0x53B JUMP JUMPDEST ISZERO PUSH2 0x1319 JUMPI DUP5 PUSH1 0x40 MLOAD PUSH32 0x6025413B00000000000000000000000000000000000000000000000000000000 DUP2 MSTORE PUSH1 0x4 ADD PUSH2 0x1310 SWAP2 SWAP1 PUSH2 0x1BC2 JUMP JUMPDEST PUSH1 0x40 MLOAD DUP1 SWAP2 SUB SWAP1 REVERT JUMPDEST DUP4 PUSH1 0x1 PUSH1 0x0 DUP8 DUP2 MSTORE PUSH1 0x20 ADD SWAP1 DUP2 MSTORE PUSH1 0x20 ADD PUSH1 0x0 KECCAK256 PUSH1 0x0 PUSH2 0x100 EXP DUP2 SLOAD DUP2 PUSH8 0xFFFFFFFFFFFFFFFF MUL NOT AND SWAP1 DUP4 PUSH8 0xFFFFFFFFFFFFFFFF AND MUL OR SWAP1 SSTORE POP DUP4 PUSH8 0xFFFFFFFFFFFFFFFF AND PUSH1 0x2 PUSH1 0x0 DUP3 DUP3 SLOAD PUSH2 0x136F SWAP2 SWAP1 PUSH2 0x280A JUMP JUMPDEST SWAP3 POP POP DUP2 SWAP1 SSTORE POP DUP4 PUSH8 0xFFFFFFFFFFFFFFFF AND PUSH1 0x0 DUP1 DUP5 PUSH20 0xFFFFFFFFFFFFFFFFFFFFFFFFFFFFFFFFFFFFFFFF AND PUSH20 0xFFFFFFFFFFFFFFFFFFFFFFFFFFFFFFFFFFFFFFFF AND DUP2 MSTORE PUSH1 0x20 ADD SWAP1 DUP2 MSTORE PUSH1 0x20 ADD PUSH1 0x0 KECCAK256 PUSH1 0x0 DUP3 DUP3 SLOAD ADD SWAP3 POP POP DUP2 SWAP1 SSTORE POP PUSH1 0x0 DUP1 PUSH2 0x13D9 DUP8 DUP8 PUSH2 0x1780 JUMP JUMPDEST SWAP2 POP SWAP2 POP DUP4 PUSH20 0xFFFFFFFFFFFFFFFFFFFFFFFFFFFFFFFFFFFFFFFF AND PUSH1 0x0 PUSH20 0xFFFFFFFFFFFFFFFFFFFFFFFFFFFFFFFFFFFFFFFF AND DUP5 PUSH20 0xFFFFFFFFFFFFFFFFFFFFFFFFFFFFFFFFFFFFFFFF AND PUSH32 0x4A39DC06D4C0DBC64B70AF90FD698A233A518AA5D07E595D983B8C0526C8F7FB DUP6 DUP6 PUSH1 0x40 MLOAD PUSH2 0x1454 SWAP3 SWAP2 SWAP1 PUSH2 0x2B3E JUMP JUMPDEST PUSH1 0x40 MLOAD DUP1 SWAP2 SUB SWAP1 LOG4 PUSH2 0x1469 DUP4 DUP6 DUP5 DUP5 DUP10 PUSH2 0x18B2 JUMP JUMPDEST POP POP POP POP POP POP POP JUMP JUMPDEST PUSH1 0x0 PUSH2 0x147D DUP3 PUSH2 0x1A59 JUMP JUMPDEST SWAP1 POP SWAP2 SWAP1 POP JUMP JUMPDEST PUSH1 0x0 PUSH1 0x5 PUSH1 0x0 SWAP1 SLOAD SWAP1 PUSH2 0x100 EXP SWAP1 DIV PUSH20 0xFFFFFFFFFFFFFFFFFFFFFFFFFFFFFFFFFFFFFFFF AND SWAP1 POP DUP2 PUSH1 0x5 PUSH1 0x0 PUSH2 0x100 EXP DUP2 SLOAD DUP2 PUSH20 0xFFFFFFFFFFFFFFFFFFFFFFFFFFFFFFFFFFFFFFFF MUL NOT AND SWAP1 DUP4 PUSH20 0xFFFFFFFFFFFFFFFFFFFFFFFFFFFFFFFFFFFFFFFF AND MUL OR SWAP1 SSTORE POP DUP2 PUSH20 0xFFFFFFFFFFFFFFFFFFFFFFFFFFFFFFFFFFFFFFFF AND DUP2 PUSH20 0xFFFFFFFFFFFFFFFFFFFFFFFFFFFFFFFFFFFFFFFF AND PUSH32 0x8BE0079C531659141344CD1FD0A4F28419497F9722A3DAAFE3B4186F6B6457E0 PUSH1 0x40 MLOAD PUSH1 0x40 MLOAD DUP1 SWAP2 SUB SWAP1 LOG3 POP POP JUMP JUMPDEST DUP1 PUSH1 0x4 SWAP1 DUP2 PUSH2 0x1559 SWAP2 SWAP1 PUSH2 0x2A6C JUMP JUMPDEST POP PUSH32 0xA5D4097EDDA6D87CB9329AF83FB3712EF77EEB13738FFE43CC35A4CE305AD962 PUSH1 0x40 MLOAD PUSH1 0x40 MLOAD DUP1 SWAP2 SUB SWAP1 LOG1 POP JUMP JUMPDEST PUSH1 0x0 PUSH2 0x1594 DUP3 PUSH2 0xCF8 JUMP JUMPDEST SWAP1 POP PUSH1 0x0 PUSH2 0x15A1 DUP4 PUSH2 0x10A5 JUMP JUMPDEST SWAP1 POP PUSH1 0x0 DUP2 PUSH8 0xFFFFFFFFFFFFFFFF AND SUB PUSH2 0x15F2 JUMPI DUP3 PUSH1 0x40 MLOAD PUSH32 0xC927E5BF00000000000000000000000000000000000000000000000000000000 DUP2 MSTORE PUSH1 0x4 ADD PUSH2 0x15E9 SWAP2 SWAP1 PUSH2 0x1BC2 JUMP JUMPDEST PUSH1 0x40 MLOAD DUP1 SWAP2 SUB SWAP1 REVERT JUMPDEST PUSH1 0x1 PUSH1 0x0 DUP5 DUP2 MSTORE PUSH1 0x20 ADD SWAP1 DUP2 MSTORE PUSH1 0x20 ADD PUSH1 0x0 KECCAK256 PUSH1 0x0 PUSH2 0x100 EXP DUP2 SLOAD SWAP1 PUSH8 0xFFFFFFFFFFFFFFFF MUL NOT AND SWAP1 SSTORE PUSH1 0x0 DUP1 PUSH1 0x0 DUP5 PUSH20 0xFFFFFFFFFFFFFFFFFFFFFFFFFFFFFFFFFFFFFFFF AND PUSH20 0xFFFFFFFFFFFFFFFFFFFFFFFFFFFFFFFFFFFFFFFF AND DUP2 MSTORE PUSH1 0x20 ADD SWAP1 DUP2 MSTORE PUSH1 0x20 ADD PUSH1 0x0 KECCAK256 SLOAD SWAP1 POP DUP2 PUSH8 0xFFFFFFFFFFFFFFFF AND DUP2 PUSH2 0x1675 SWAP2 SWAP1 PUSH2 0x2B75 JUMP JUMPDEST PUSH1 0x0 DUP1 DUP6 PUSH20 0xFFFFFFFFFFFFFFFFFFFFFFFFFFFFFFFFFFFFFFFF AND PUSH20 0xFFFFFFFFFFFFFFFFFFFFFFFFFFFFFFFFFFFFFFFF AND DUP2 MSTORE PUSH1 0x20 ADD SWAP1 DUP2 MSTORE PUSH1 0x20 ADD PUSH1 0x0 KECCAK256 DUP2 SWAP1 SSTORE POP DUP2 PUSH8 0xFFFFFFFFFFFFFFFF AND PUSH1 0x2 PUSH1 0x0 DUP3 DUP3 SLOAD PUSH2 0x16D3 SWAP2 SWAP1 PUSH2 0x2B75 JUMP JUMPDEST SWAP3 POP POP DUP2 SWAP1 SSTORE POP PUSH1 0x0 DUP1 PUSH2 0x16E7 DUP7 DUP6 PUSH2 0x1780 JUMP JUMPDEST SWAP2 POP SWAP2 POP PUSH1 0x0 CALLER SWAP1 POP PUSH1 0x0 PUSH20 0xFFFFFFFFFFFFFFFFFFFFFFFFFFFFFFFFFFFFFFFF AND DUP7 PUSH20 0xFFFFFFFFFFFFFFFFFFFFFFFFFFFFFFFFFFFFFFFF AND DUP3 PUSH20 0xFFFFFFFFFFFFFFFFFFFFFFFFFFFFFFFFFFFFFFFF AND PUSH32 0x4A39DC06D4C0DBC64B70AF90FD698A233A518AA5D07E595D983B8C0526C8F7FB DUP7 DUP7 PUSH1 0x40 MLOAD PUSH2 0x1767 SWAP3 SWAP2 SWAP1 PUSH2 0x2B3E JUMP JUMPDEST PUSH1 0x40 MLOAD DUP1 SWAP2 SUB SWAP1 LOG4 POP POP POP POP POP POP POP JUMP JUMPDEST PUSH1 0x0 CALLER SWAP1 POP SWAP1 JUMP JUMPDEST PUSH1 0x60 DUP1 PUSH1 0x2 PUSH8 0xFFFFFFFFFFFFFFFF DUP2 GT ISZERO PUSH2 0x179E JUMPI PUSH2 0x179D PUSH2 0x1F87 JUMP JUMPDEST JUMPDEST PUSH1 0x40 MLOAD SWAP1 DUP1 DUP3 MSTORE DUP1 PUSH1 0x20 MUL PUSH1 0x20 ADD DUP3 ADD PUSH1 0x40 MSTORE DUP1 ISZERO PUSH2 0x17CC JUMPI DUP2 PUSH1 0x20 ADD PUSH1 0x20 DUP3 MUL DUP1 CALLDATASIZE DUP4 CALLDATACOPY DUP1 DUP3 ADD SWAP2 POP POP SWAP1 POP JUMPDEST POP SWAP2 POP PUSH1 0x0 DUP3 PUSH1 0x0 DUP2 MLOAD DUP2 LT PUSH2 0x17E5 JUMPI PUSH2 0x17E4 PUSH2 0x27AC JUMP JUMPDEST JUMPDEST PUSH1 0x20 MUL PUSH1 0x20 ADD ADD DUP2 DUP2 MSTORE POP POP DUP4 DUP3 PUSH1 0x1 DUP2 MLOAD DUP2 LT PUSH2 0x1806 JUMPI PUSH2 0x1805 PUSH2 0x27AC JUMP JUMPDEST JUMPDEST PUSH1 0x20 MUL PUSH1 0x20 ADD ADD DUP2 DUP2 MSTORE POP POP PUSH1 0x2 PUSH8 0xFFFFFFFFFFFFFFFF DUP2 GT ISZERO PUSH2 0x182D JUMPI PUSH2 0x182C PUSH2 0x1F87 JUMP JUMPDEST JUMPDEST PUSH1 0x40 MLOAD SWAP1 DUP1 DUP3 MSTORE DUP1 PUSH1 0x20 MUL PUSH1 0x20 ADD DUP3 ADD PUSH1 0x40 MSTORE DUP1 ISZERO PUSH2 0x185B JUMPI DUP2 PUSH1 0x20 ADD PUSH1 0x20 DUP3 MUL DUP1 CALLDATASIZE DUP4 CALLDATACOPY DUP1 DUP3 ADD SWAP2 POP POP SWAP1 POP JUMPDEST POP SWAP1 POP DUP3 PUSH8 0xFFFFFFFFFFFFFFFF AND DUP2 PUSH1 0x0 DUP2 MLOAD DUP2 LT PUSH2 0x187D JUMPI PUSH2 0x187C PUSH2 0x27AC JUMP JUMPDEST JUMPDEST PUSH1 0x20 MUL PUSH1 0x20 ADD ADD DUP2 DUP2 MSTORE POP POP PUSH1 0x1 DUP2 PUSH1 0x1 DUP2 MLOAD DUP2 LT PUSH2 0x189F JUMPI PUSH2 0x189E PUSH2 0x27AC JUMP JUMPDEST JUMPDEST PUSH1 0x20 MUL PUSH1 0x20 ADD ADD DUP2 DUP2 MSTORE POP POP SWAP3 POP SWAP3 SWAP1 POP JUMP JUMPDEST PUSH1 0x0 DUP5 PUSH20 0xFFFFFFFFFFFFFFFFFFFFFFFFFFFFFFFFFFFFFFFF AND EXTCODESIZE GT ISZERO PUSH2 0x1A52 JUMPI DUP4 PUSH20 0xFFFFFFFFFFFFFFFFFFFFFFFFFFFFFFFFFFFFFFFF AND PUSH4 0xBC197C81 DUP7 PUSH1 0x0 DUP7 DUP7 DUP7 PUSH1 0x40 MLOAD DUP7 PUSH4 0xFFFFFFFF AND PUSH1 0xE0 SHL DUP2 MSTORE PUSH1 0x4 ADD PUSH2 0x1914 SWAP6 SWAP5 SWAP4 SWAP3 SWAP2 SWAP1 PUSH2 0x2BFE JUMP JUMPDEST PUSH1 0x20 PUSH1 0x40 MLOAD DUP1 DUP4 SUB DUP2 PUSH1 0x0 DUP8 GAS CALL SWAP3 POP POP POP DUP1 ISZERO PUSH2 0x1950 JUMPI POP PUSH1 0x40 MLOAD RETURNDATASIZE PUSH1 0x1F NOT PUSH1 0x1F DUP3 ADD AND DUP3 ADD DUP1 PUSH1 0x40 MSTORE POP DUP2 ADD SWAP1 PUSH2 0x194D SWAP2 SWAP1 PUSH2 0x2C7B JUMP JUMPDEST PUSH1 0x1 JUMPDEST PUSH2 0x19C5 JUMPI RETURNDATASIZE DUP1 PUSH1 0x0 DUP2 EQ PUSH2 0x1980 JUMPI PUSH1 0x40 MLOAD SWAP2 POP PUSH1 0x1F NOT PUSH1 0x3F RETURNDATASIZE ADD AND DUP3 ADD PUSH1 0x40 MSTORE RETURNDATASIZE DUP3 MSTORE RETURNDATASIZE PUSH1 0x0 PUSH1 0x20 DUP5 ADD RETURNDATACOPY PUSH2 0x1985 JUMP JUMPDEST PUSH1 0x60 SWAP2 POP JUMPDEST POP DUP5 DUP2 PUSH1 0x40 MLOAD PUSH32 0x6CB3291800000000000000000000000000000000000000000000000000000000 DUP2 MSTORE PUSH1 0x4 ADD PUSH2 0x19BC SWAP3 SWAP2 SWAP1 PUSH2 0x2CA8 JUMP JUMPDEST PUSH1 0x40 MLOAD DUP1 SWAP2 SUB SWAP1 REVERT JUMPDEST PUSH4 0xBC197C81 PUSH1 0xE0 SHL PUSH28 0xFFFFFFFFFFFFFFFFFFFFFFFFFFFFFFFFFFFFFFFFFFFFFFFFFFFFFFFF NOT AND DUP2 PUSH28 0xFFFFFFFFFFFFFFFFFFFFFFFFFFFFFFFFFFFFFFFFFFFFFFFFFFFFFFFF NOT AND EQ PUSH2 0x1A50 JUMPI DUP5 DUP2 PUSH1 0x40 MLOAD PUSH32 0x7E3474000000000000000000000000000000000000000000000000000000000 DUP2 MSTORE PUSH1 0x4 ADD PUSH2 0x1A47 SWAP3 SWAP2 SWAP1 PUSH2 0x2CE7 JUMP JUMPDEST PUSH1 0x40 MLOAD DUP1 SWAP2 SUB SWAP1 REVERT JUMPDEST POP JUMPDEST POP POP POP POP POP JUMP JUMPDEST PUSH1 0x0 DUP1 DUP3 SWAP1 POP DUP1 SWAP2 POP POP SWAP2 SWAP1 POP JUMP JUMPDEST PUSH1 0x0 PUSH1 0x40 MLOAD SWAP1 POP SWAP1 JUMP JUMPDEST PUSH1 0x0 DUP1 REVERT JUMPDEST PUSH1 0x0 DUP1 REVERT JUMPDEST PUSH1 0x0 DUP2 SWAP1 POP SWAP2 SWAP1 POP JUMP JUMPDEST PUSH2 0x1A8F DUP2 PUSH2 0x1A7C JUMP JUMPDEST DUP2 EQ PUSH2 0x1A9A JUMPI PUSH1 0x0 DUP1 REVERT JUMPDEST POP JUMP JUMPDEST PUSH1 0x0 DUP2 CALLDATALOAD SWAP1 POP PUSH2 0x1AAC DUP2 PUSH2 0x1A86 JUMP JUMPDEST SWAP3 SWAP2 POP POP JUMP JUMPDEST PUSH1 0x0 PUSH1 0x20 DUP3 DUP5 SUB SLT ISZERO PUSH2 0x1AC8 JUMPI PUSH2 0x1AC7 PUSH2 0x1A72 JUMP JUMPDEST JUMPDEST PUSH1 0x0 PUSH2 0x1AD6 DUP5 DUP3 DUP6 ADD PUSH2 0x1A9D JUMP JUMPDEST SWAP2 POP POP SWAP3 SWAP2 POP POP JUMP JUMPDEST PUSH1 0x0 DUP2 ISZERO ISZERO SWAP1 POP SWAP2 SWAP1 POP JUMP JUMPDEST PUSH2 0x1AF4 DUP2 PUSH2 0x1ADF JUMP JUMPDEST DUP3 MSTORE POP POP JUMP JUMPDEST PUSH1 0x0 PUSH1 0x20 DUP3 ADD SWAP1 POP PUSH2 0x1B0F PUSH1 0x0 DUP4 ADD DUP5 PUSH2 0x1AEB JUMP JUMPDEST SWAP3 SWAP2 POP POP JUMP JUMPDEST PUSH1 0x0 PUSH20 0xFFFFFFFFFFFFFFFFFFFFFFFFFFFFFFFFFFFFFFFF DUP3 AND SWAP1 POP SWAP2 SWAP1 POP JUMP JUMPDEST PUSH1 0x0 PUSH2 0x1B40 DUP3 PUSH2 0x1B15 JUMP JUMPDEST SWAP1 POP SWAP2 SWAP1 POP JUMP JUMPDEST PUSH2 0x1B50 DUP2 PUSH2 0x1B35 JUMP JUMPDEST DUP2 EQ PUSH2 0x1B5B JUMPI PUSH1 0x0 DUP1 REVERT JUMPDEST POP JUMP JUMPDEST PUSH1 0x0 DUP2 CALLDATALOAD SWAP1 POP PUSH2 0x1B6D DUP2 PUSH2 0x1B47 JUMP JUMPDEST SWAP3 SWAP2 POP POP JUMP JUMPDEST PUSH1 0x0 DUP1 PUSH1 0x40 DUP4 DUP6 SUB SLT ISZERO PUSH2 0x1B8A JUMPI PUSH2 0x1B89 PUSH2 0x1A72 JUMP JUMPDEST JUMPDEST PUSH1 0x0 PUSH2 0x1B98 DUP6 DUP3 DUP7 ADD PUSH2 0x1B5E JUMP JUMPDEST SWAP3 POP POP PUSH1 0x20 PUSH2 0x1BA9 DUP6 DUP3 DUP7 ADD PUSH2 0x1A9D JUMP JUMPDEST SWAP2 POP POP SWAP3 POP SWAP3 SWAP1 POP JUMP JUMPDEST PUSH2 0x1BBC DUP2 PUSH2 0x1A7C JUMP JUMPDEST DUP3 MSTORE POP POP JUMP JUMPDEST PUSH1 0x0 PUSH1 0x20 DUP3 ADD SWAP1 POP PUSH2 0x1BD7 PUSH1 0x0 DUP4 ADD DUP5 PUSH2 0x1BB3 JUMP JUMPDEST SWAP3 SWAP2 POP POP JUMP JUMPDEST PUSH1 0x0 PUSH32 0xFFFFFFFF00000000000000000000000000000000000000000000000000000000 DUP3 AND SWAP1 POP SWAP2 SWAP1 POP JUMP JUMPDEST PUSH2 0x1C12 DUP2 PUSH2 0x1BDD JUMP JUMPDEST DUP2 EQ PUSH2 0x1C1D JUMPI PUSH1 0x0 DUP1 REVERT JUMPDEST POP JUMP JUMPDEST PUSH1 0x0 DUP2 CALLDATALOAD SWAP1 POP PUSH2 0x1C2F DUP2 PUSH2 0x1C09 JUMP JUMPDEST SWAP3 SWAP2 POP POP JUMP JUMPDEST PUSH1 0x0 PUSH1 0x20 DUP3 DUP5 SUB SLT ISZERO PUSH2 0x1C4B JUMPI PUSH2 0x1C4A PUSH2 0x1A72 JUMP JUMPDEST JUMPDEST PUSH1 0x0 PUSH2 0x1C59 DUP5 DUP3 DUP6 ADD PUSH2 0x1C20 JUMP JUMPDEST SWAP2 POP POP SWAP3 SWAP2 POP POP JUMP JUMPDEST PUSH1 0x0 DUP1 REVERT JUMPDEST PUSH1 0x0 DUP1 REVERT JUMPDEST PUSH1 0x0 DUP1 REVERT JUMPDEST PUSH1 0x0 DUP1 DUP4 PUSH1 0x1F DUP5 ADD SLT PUSH2 0x1C87 JUMPI PUSH2 0x1C86 PUSH2 0x1C62 JUMP JUMPDEST JUMPDEST DUP3 CALLDATALOAD SWAP1 POP PUSH8 0xFFFFFFFFFFFFFFFF DUP2 GT ISZERO PUSH2 0x1CA4 JUMPI PUSH2 0x1CA3 PUSH2 0x1C67 JUMP JUMPDEST JUMPDEST PUSH1 0x20 DUP4 ADD SWAP2 POP DUP4 PUSH1 0x1 DUP3 MUL DUP4 ADD GT ISZERO PUSH2 0x1CC0 JUMPI PUSH2 0x1CBF PUSH2 0x1C6C JUMP JUMPDEST JUMPDEST SWAP3 POP SWAP3 SWAP1 POP JUMP JUMPDEST PUSH1 0x0 DUP1 PUSH1 0x20 DUP4 DUP6 SUB SLT ISZERO PUSH2 0x1CDE JUMPI PUSH2 0x1CDD PUSH2 0x1A72 JUMP JUMPDEST JUMPDEST PUSH1 0x0 DUP4 ADD CALLDATALOAD PUSH8 0xFFFFFFFFFFFFFFFF DUP2 GT ISZERO PUSH2 0x1CFC JUMPI PUSH2 0x1CFB PUSH2 0x1A77 JUMP JUMPDEST JUMPDEST PUSH2 0x1D08 DUP6 DUP3 DUP7 ADD PUSH2 0x1C71 JUMP JUMPDEST SWAP3 POP SWAP3 POP POP SWAP3 POP SWAP3 SWAP1 POP JUMP JUMPDEST PUSH1 0x0 DUP2 MLOAD SWAP1 POP SWAP2 SWAP1 POP JUMP JUMPDEST PUSH1 0x0 DUP3 DUP3 MSTORE PUSH1 0x20 DUP3 ADD SWAP1 POP SWAP3 SWAP2 POP POP JUMP JUMPDEST PUSH1 0x0 JUMPDEST DUP4 DUP2 LT ISZERO PUSH2 0x1D4E JUMPI DUP1 DUP3 ADD MLOAD DUP2 DUP5 ADD MSTORE PUSH1 0x20 DUP2 ADD SWAP1 POP PUSH2 0x1D33 JUMP JUMPDEST PUSH1 0x0 DUP5 DUP5 ADD MSTORE POP POP POP POP JUMP JUMPDEST PUSH1 0x0 PUSH1 0x1F NOT PUSH1 0x1F DUP4 ADD AND SWAP1 POP SWAP2 SWAP1 POP JUMP JUMPDEST PUSH1 0x0 PUSH2 0x1D76 DUP3 PUSH2 0x1D14 JUMP JUMPDEST PUSH2 0x1D80 DUP2 DUP6 PUSH2 0x1D1F JUMP JUMPDEST SWAP4 POP PUSH2 0x1D90 DUP2 DUP6 PUSH1 0x20 DUP7 ADD PUSH2 0x1D30 JUMP JUMPDEST PUSH2 0x1D99 DUP2 PUSH2 0x1D5A JUMP JUMPDEST DUP5 ADD SWAP2 POP POP SWAP3 SWAP2 POP POP JUMP JUMPDEST PUSH1 0x0 PUSH1 0x20 DUP3 ADD SWAP1 POP DUP2 DUP2 SUB PUSH1 0x0 DUP4 ADD MSTORE PUSH2 0x1DBE DUP2 DUP5 PUSH2 0x1D6B JUMP JUMPDEST SWAP1 POP SWAP3 SWAP2 POP POP JUMP JUMPDEST PUSH1 0x0 DUP1 DUP4 PUSH1 0x1F DUP5 ADD SLT PUSH2 0x1DDC JUMPI PUSH2 0x1DDB PUSH2 0x1C62 JUMP JUMPDEST JUMPDEST DUP3 CALLDATALOAD SWAP1 POP PUSH8 0xFFFFFFFFFFFFFFFF DUP2 GT ISZERO PUSH2 0x1DF9 JUMPI PUSH2 0x1DF8 PUSH2 0x1C67 JUMP JUMPDEST JUMPDEST PUSH1 0x20 DUP4 ADD SWAP2 POP DUP4 PUSH1 0x20 DUP3 MUL DUP4 ADD GT ISZERO PUSH2 0x1E15 JUMPI PUSH2 0x1E14 PUSH2 0x1C6C JUMP JUMPDEST JUMPDEST SWAP3 POP SWAP3 SWAP1 POP JUMP JUMPDEST PUSH1 0x0 DUP1 PUSH1 0x20 DUP4 DUP6 SUB SLT ISZERO PUSH2 0x1E33 JUMPI PUSH2 0x1E32 PUSH2 0x1A72 JUMP JUMPDEST JUMPDEST PUSH1 0x0 DUP4 ADD CALLDATALOAD PUSH8 0xFFFFFFFFFFFFFFFF DUP2 GT ISZERO PUSH2 0x1E51 JUMPI PUSH2 0x1E50 PUSH2 0x1A77 JUMP JUMPDEST JUMPDEST PUSH2 0x1E5D DUP6 DUP3 DUP7 ADD PUSH2 0x1DC6 JUMP JUMPDEST SWAP3 POP SWAP3 POP POP SWAP3 POP SWAP3 SWAP1 POP JUMP JUMPDEST PUSH1 0x0 DUP2 MLOAD SWAP1 POP SWAP2 SWAP1 POP JUMP JUMPDEST PUSH1 0x0 DUP3 DUP3 MSTORE PUSH1 0x20 DUP3 ADD SWAP1 POP SWAP3 SWAP2 POP POP JUMP JUMPDEST PUSH1 0x0 DUP2 SWAP1 POP PUSH1 0x20 DUP3 ADD SWAP1 POP SWAP2 SWAP1 POP JUMP JUMPDEST PUSH2 0x1E9E DUP2 PUSH2 0x1A7C JUMP JUMPDEST DUP3 MSTORE POP POP JUMP JUMPDEST PUSH1 0x0 PUSH2 0x1EB0 DUP4 DUP4 PUSH2 0x1E95 JUMP JUMPDEST PUSH1 0x20 DUP4 ADD SWAP1 POP SWAP3 SWAP2 POP POP JUMP JUMPDEST PUSH1 0x0 PUSH1 0x20 DUP3 ADD SWAP1 POP SWAP2 SWAP1 POP JUMP JUMPDEST PUSH1 0x0 PUSH2 0x1ED4 DUP3 PUSH2 0x1E69 JUMP JUMPDEST PUSH2 0x1EDE DUP2 DUP6 PUSH2 0x1E74 JUMP JUMPDEST SWAP4 POP PUSH2 0x1EE9 DUP4 PUSH2 0x1E85 JUMP JUMPDEST DUP1 PUSH1 0x0 JUMPDEST DUP4 DUP2 LT ISZERO PUSH2 0x1F1A JUMPI DUP2 MLOAD PUSH2 0x1F01 DUP9 DUP3 PUSH2 0x1EA4 JUMP JUMPDEST SWAP8 POP PUSH2 0x1F0C DUP4 PUSH2 0x1EBC JUMP JUMPDEST SWAP3 POP POP PUSH1 0x1 DUP2 ADD SWAP1 POP PUSH2 0x1EED JUMP JUMPDEST POP DUP6 SWAP4 POP POP POP POP SWAP3 SWAP2 POP POP JUMP JUMPDEST PUSH1 0x0 PUSH1 0x20 DUP3 ADD SWAP1 POP DUP2 DUP2 SUB PUSH1 0x0 DUP4 ADD MSTORE PUSH2 0x1F41 DUP2 DUP5 PUSH2 0x1EC9 JUMP JUMPDEST SWAP1 POP SWAP3 SWAP2 POP POP JUMP JUMPDEST PUSH1 0x0 PUSH8 0xFFFFFFFFFFFFFFFF DUP3 AND SWAP1 POP SWAP2 SWAP1 POP JUMP JUMPDEST PUSH2 0x1F66 DUP2 PUSH2 0x1F49 JUMP JUMPDEST DUP3 MSTORE POP POP JUMP JUMPDEST PUSH1 0x0 PUSH1 0x20 DUP3 ADD SWAP1 POP PUSH2 0x1F81 PUSH1 0x0 DUP4 ADD DUP5 PUSH2 0x1F5D JUMP JUMPDEST SWAP3 SWAP2 POP POP JUMP JUMPDEST PUSH32 0x4E487B7100000000000000000000000000000000000000000000000000000000 PUSH1 0x0 MSTORE PUSH1 0x41 PUSH1 0x4 MSTORE PUSH1 0x24 PUSH1 0x0 REVERT JUMPDEST PUSH2 0x1FBF DUP3 PUSH2 0x1D5A JUMP JUMPDEST DUP2 ADD DUP2 DUP2 LT PUSH8 0xFFFFFFFFFFFFFFFF DUP3 GT OR ISZERO PUSH2 0x1FDE JUMPI PUSH2 0x1FDD PUSH2 0x1F87 JUMP JUMPDEST JUMPDEST DUP1 PUSH1 0x40 MSTORE POP POP POP JUMP JUMPDEST PUSH1 0x0 PUSH2 0x1FF1 PUSH2 0x1A68 JUMP JUMPDEST SWAP1 POP PUSH2 0x1FFD DUP3 DUP3 PUSH2 0x1FB6 JUMP JUMPDEST SWAP2 SWAP1 POP JUMP JUMPDEST PUSH1 0x0 PUSH8 0xFFFFFFFFFFFFFFFF DUP3 GT ISZERO PUSH2 0x201D JUMPI PUSH2 0x201C PUSH2 0x1F87 JUMP JUMPDEST JUMPDEST PUSH1 0x20 DUP3 MUL SWAP1 POP PUSH1 0x20 DUP2 ADD SWAP1 POP SWAP2 SWAP1 POP JUMP JUMPDEST PUSH1 0x0 PUSH2 0x2041 PUSH2 0x203C DUP5 PUSH2 0x2002 JUMP JUMPDEST PUSH2 0x1FE7 JUMP JUMPDEST SWAP1 POP DUP1 DUP4 DUP3 MSTORE PUSH1 0x20 DUP3 ADD SWAP1 POP PUSH1 0x20 DUP5 MUL DUP4 ADD DUP6 DUP2 GT ISZERO PUSH2 0x2064 JUMPI PUSH2 0x2063 PUSH2 0x1C6C JUMP JUMPDEST JUMPDEST DUP4 JUMPDEST DUP2 DUP2 LT ISZERO PUSH2 0x208D JUMPI DUP1 PUSH2 0x2079 DUP9 DUP3 PUSH2 0x1A9D JUMP JUMPDEST DUP5 MSTORE PUSH1 0x20 DUP5 ADD SWAP4 POP POP PUSH1 0x20 DUP2 ADD SWAP1 POP PUSH2 0x2066 JUMP JUMPDEST POP POP POP SWAP4 SWAP3 POP POP POP JUMP JUMPDEST PUSH1 0x0 DUP3 PUSH1 0x1F DUP4 ADD SLT PUSH2 0x20AC JUMPI PUSH2 0x20AB PUSH2 0x1C62 JUMP JUMPDEST JUMPDEST DUP2 CALLDATALOAD PUSH2 0x20BC DUP5 DUP3 PUSH1 0x20 DUP7 ADD PUSH2 0x202E JUMP JUMPDEST SWAP2 POP POP SWAP3 SWAP2 POP POP JUMP JUMPDEST PUSH1 0x0 DUP1 REVERT JUMPDEST PUSH1 0x0 PUSH8 0xFFFFFFFFFFFFFFFF DUP3 GT ISZERO PUSH2 0x20E5 JUMPI PUSH2 0x20E4 PUSH2 0x1F87 JUMP JUMPDEST JUMPDEST PUSH2 0x20EE DUP3 PUSH2 0x1D5A JUMP JUMPDEST SWAP1 POP PUSH1 0x20 DUP2 ADD SWAP1 POP SWAP2 SWAP1 POP JUMP JUMPDEST DUP3 DUP2 DUP4 CALLDATACOPY PUSH1 0x0 DUP4 DUP4 ADD MSTORE POP POP POP JUMP JUMPDEST PUSH1 0x0 PUSH2 0x211D PUSH2 0x2118 DUP5 PUSH2 0x20CA JUMP JUMPDEST PUSH2 0x1FE7 JUMP JUMPDEST SWAP1 POP DUP3 DUP2 MSTORE PUSH1 0x20 DUP2 ADD DUP5 DUP5 DUP5 ADD GT ISZERO PUSH2 0x2139 JUMPI PUSH2 0x2138 PUSH2 0x20C5 JUMP JUMPDEST JUMPDEST PUSH2 0x2144 DUP5 DUP3 DUP6 PUSH2 0x20FB JUMP JUMPDEST POP SWAP4 SWAP3 POP POP POP JUMP JUMPDEST PUSH1 0x0 DUP3 PUSH1 0x1F DUP4 ADD SLT PUSH2 0x2161 JUMPI PUSH2 0x2160 PUSH2 0x1C62 JUMP JUMPDEST JUMPDEST DUP2 CALLDATALOAD PUSH2 0x2171 DUP5 DUP3 PUSH1 0x20 DUP7 ADD PUSH2 0x210A JUMP JUMPDEST SWAP2 POP POP SWAP3 SWAP2 POP POP JUMP JUMPDEST PUSH1 0x0 DUP1 PUSH1 0x0 DUP1 PUSH1 0x0 PUSH1 0xA0 DUP7 DUP9 SUB SLT ISZERO PUSH2 0x2196 JUMPI PUSH2 0x2195 PUSH2 0x1A72 JUMP JUMPDEST JUMPDEST PUSH1 0x0 PUSH2 0x21A4 DUP9 DUP3 DUP10 ADD PUSH2 0x1B5E JUMP JUMPDEST SWAP6 POP POP PUSH1 0x20 PUSH2 0x21B5 DUP9 DUP3 DUP10 ADD PUSH2 0x1B5E JUMP JUMPDEST SWAP5 POP POP PUSH1 0x40 DUP7 ADD CALLDATALOAD PUSH8 0xFFFFFFFFFFFFFFFF DUP2 GT ISZERO PUSH2 0x21D6 JUMPI PUSH2 0x21D5 PUSH2 0x1A77 JUMP JUMPDEST JUMPDEST PUSH2 0x21E2 DUP9 DUP3 DUP10 ADD PUSH2 0x2097 JUMP JUMPDEST SWAP4 POP POP PUSH1 0x60 DUP7 ADD CALLDATALOAD PUSH8 0xFFFFFFFFFFFFFFFF DUP2 GT ISZERO PUSH2 0x2203 JUMPI PUSH2 0x2202 PUSH2 0x1A77 JUMP JUMPDEST JUMPDEST PUSH2 0x220F DUP9 DUP3 DUP10 ADD PUSH2 0x2097 JUMP JUMPDEST SWAP3 POP POP PUSH1 0x80 DUP7 ADD CALLDATALOAD PUSH8 0xFFFFFFFFFFFFFFFF DUP2 GT ISZERO PUSH2 0x2230 JUMPI PUSH2 0x222F PUSH2 0x1A77 JUMP JUMPDEST JUMPDEST PUSH2 0x223C DUP9 DUP3 DUP10 ADD PUSH2 0x214C JUMP JUMPDEST SWAP2 POP POP SWAP3 SWAP6 POP SWAP3 SWAP6 SWAP1 SWAP4 POP JUMP JUMPDEST PUSH1 0x0 DUP1 DUP4 PUSH1 0x1F DUP5 ADD SLT PUSH2 0x225F JUMPI PUSH2 0x225E PUSH2 0x1C62 JUMP JUMPDEST JUMPDEST DUP3 CALLDATALOAD SWAP1 POP PUSH8 0xFFFFFFFFFFFFFFFF DUP2 GT ISZERO PUSH2 0x227C JUMPI PUSH2 0x227B PUSH2 0x1C67 JUMP JUMPDEST JUMPDEST PUSH1 0x20 DUP4 ADD SWAP2 POP DUP4 PUSH1 0x20 DUP3 MUL DUP4 ADD GT ISZERO PUSH2 0x2298 JUMPI PUSH2 0x2297 PUSH2 0x1C6C JUMP JUMPDEST JUMPDEST SWAP3 POP SWAP3 SWAP1 POP JUMP JUMPDEST PUSH1 0x0 DUP1 PUSH1 0x0 DUP1 PUSH1 0x40 DUP6 DUP8 SUB SLT ISZERO PUSH2 0x22B9 JUMPI PUSH2 0x22B8 PUSH2 0x1A72 JUMP JUMPDEST JUMPDEST PUSH1 0x0 DUP6 ADD CALLDATALOAD PUSH8 0xFFFFFFFFFFFFFFFF DUP2 GT ISZERO PUSH2 0x22D7 JUMPI PUSH2 0x22D6 PUSH2 0x1A77 JUMP JUMPDEST JUMPDEST PUSH2 0x22E3 DUP8 DUP3 DUP9 ADD PUSH2 0x1DC6 JUMP JUMPDEST SWAP5 POP SWAP5 POP POP PUSH1 0x20 DUP6 ADD CALLDATALOAD PUSH8 0xFFFFFFFFFFFFFFFF DUP2 GT ISZERO PUSH2 0x2306 JUMPI PUSH2 0x2305 PUSH2 0x1A77 JUMP JUMPDEST JUMPDEST PUSH2 0x2312 DUP8 DUP3 DUP9 ADD PUSH2 0x2249 JUMP JUMPDEST SWAP3 POP SWAP3 POP POP SWAP3 SWAP6 SWAP2 SWAP5 POP SWAP3 POP JUMP JUMPDEST PUSH1 0x0 PUSH1 0x20 DUP3 DUP5 SUB SLT ISZERO PUSH2 0x2336 JUMPI PUSH2 0x2335 PUSH2 0x1A72 JUMP JUMPDEST JUMPDEST PUSH1 0x0 PUSH2 0x2344 DUP5 DUP3 DUP6 ADD PUSH2 0x1B5E JUMP JUMPDEST SWAP2 POP POP SWAP3 SWAP2 POP POP JUMP JUMPDEST PUSH1 0x0 DUP1 DUP4 PUSH1 0x1F DUP5 ADD SLT PUSH2 0x2363 JUMPI PUSH2 0x2362 PUSH2 0x1C62 JUMP JUMPDEST JUMPDEST DUP3 CALLDATALOAD SWAP1 POP PUSH8 0xFFFFFFFFFFFFFFFF DUP2 GT ISZERO PUSH2 0x2380 JUMPI PUSH2 0x237F PUSH2 0x1C67 JUMP JUMPDEST JUMPDEST PUSH1 0x20 DUP4 ADD SWAP2 POP DUP4 PUSH1 0x40 DUP3 MUL DUP4 ADD GT ISZERO PUSH2 0x239C JUMPI PUSH2 0x239B PUSH2 0x1C6C JUMP JUMPDEST JUMPDEST SWAP3 POP SWAP3 SWAP1 POP JUMP JUMPDEST PUSH1 0x0 DUP1 DUP4 PUSH1 0x1F DUP5 ADD SLT PUSH2 0x23B9 JUMPI PUSH2 0x23B8 PUSH2 0x1C62 JUMP JUMPDEST JUMPDEST DUP3 CALLDATALOAD SWAP1 POP PUSH8 0xFFFFFFFFFFFFFFFF DUP2 GT ISZERO PUSH2 0x23D6 JUMPI PUSH2 0x23D5 PUSH2 0x1C67 JUMP JUMPDEST JUMPDEST PUSH1 0x20 DUP4 ADD SWAP2 POP DUP4 PUSH1 0x1 DUP3 MUL DUP4 ADD GT ISZERO PUSH2 0x23F2 JUMPI PUSH2 0x23F1 PUSH2 0x1C6C JUMP JUMPDEST JUMPDEST SWAP3 POP SWAP3 SWAP1 POP JUMP JUMPDEST PUSH1 0x0 DUP1 PUSH1 0x0 DUP1 PUSH1 0x40 DUP6 DUP8 SUB SLT ISZERO PUSH2 0x2413 JUMPI PUSH2 0x2412 PUSH2 0x1A72 JUMP JUMPDEST JUMPDEST PUSH1 0x0 DUP6 ADD CALLDATALOAD PUSH8 0xFFFFFFFFFFFFFFFF DUP2 GT ISZERO PUSH2 0x2431 JUMPI PUSH2 0x2430 PUSH2 0x1A77 JUMP JUMPDEST JUMPDEST PUSH2 0x243D DUP8 DUP3 DUP9 ADD PUSH2 0x234D JUMP JUMPDEST SWAP5 POP SWAP5 POP POP PUSH1 0x20 DUP6 ADD CALLDATALOAD PUSH8 0xFFFFFFFFFFFFFFFF DUP2 GT ISZERO PUSH2 0x2460 JUMPI PUSH2 0x245F PUSH2 0x1A77 JUMP JUMPDEST JUMPDEST PUSH2 0x246C DUP8 DUP3 DUP9 ADD PUSH2 0x23A3 JUMP JUMPDEST SWAP3 POP SWAP3 POP POP SWAP3 SWAP6 SWAP2 SWAP5 POP SWAP3 POP JUMP JUMPDEST PUSH2 0x2483 DUP2 PUSH2 0x1B35 JUMP JUMPDEST DUP3 MSTORE POP POP JUMP JUMPDEST PUSH1 0x0 PUSH1 0x20 DUP3 ADD SWAP1 POP PUSH2 0x249E PUSH1 0x0 DUP4 ADD DUP5 PUSH2 0x247A JUMP JUMPDEST SWAP3 SWAP2 POP POP JUMP JUMPDEST PUSH2 0x24AD DUP2 PUSH2 0x1ADF JUMP JUMPDEST DUP2 EQ PUSH2 0x24B8 JUMPI PUSH1 0x0 DUP1 REVERT JUMPDEST POP JUMP JUMPDEST PUSH1 0x0 DUP2 CALLDATALOAD SWAP1 POP PUSH2 0x24CA DUP2 PUSH2 0x24A4 JUMP JUMPDEST SWAP3 SWAP2 POP POP JUMP JUMPDEST PUSH1 0x0 DUP1 PUSH1 0x40 DUP4 DUP6 SUB SLT ISZERO PUSH2 0x24E7 JUMPI PUSH2 0x24E6 PUSH2 0x1A72 JUMP JUMPDEST JUMPDEST PUSH1 0x0 PUSH2 0x24F5 DUP6 DUP3 DUP7 ADD PUSH2 0x1B5E JUMP JUMPDEST SWAP3 POP POP PUSH1 0x20 PUSH2 0x2506 DUP6 DUP3 DUP7 ADD PUSH2 0x24BB JUMP JUMPDEST SWAP2 POP POP SWAP3 POP SWAP3 SWAP1 POP JUMP JUMPDEST PUSH1 0x0 DUP1 PUSH1 0x0 DUP1 PUSH1 0x40 DUP6 DUP8 SUB SLT ISZERO PUSH2 0x252A JUMPI PUSH2 0x2529 PUSH2 0x1A72 JUMP JUMPDEST JUMPDEST PUSH1 0x0 DUP6 ADD CALLDATALOAD PUSH8 0xFFFFFFFFFFFFFFFF DUP2 GT ISZERO PUSH2 0x2548 JUMPI PUSH2 0x2547 PUSH2 0x1A77 JUMP JUMPDEST JUMPDEST PUSH2 0x2554 DUP8 DUP3 DUP9 ADD PUSH2 0x2249 JUMP JUMPDEST SWAP5 POP SWAP5 POP POP PUSH1 0x20 DUP6 ADD CALLDATALOAD PUSH8 0xFFFFFFFFFFFFFFFF DUP2 GT ISZERO PUSH2 0x2577 JUMPI PUSH2 0x2576 PUSH2 0x1A77 JUMP JUMPDEST JUMPDEST PUSH2 0x2583 DUP8 DUP3 DUP9 ADD PUSH2 0x23A3 JUMP JUMPDEST SWAP3 POP SWAP3 POP POP SWAP3 SWAP6 SWAP2 SWAP5 POP SWAP3 POP JUMP JUMPDEST PUSH1 0x0 DUP1 PUSH1 0x0 PUSH1 0x40 DUP5 DUP7 SUB SLT ISZERO PUSH2 0x25AA JUMPI PUSH2 0x25A9 PUSH2 0x1A72 JUMP JUMPDEST JUMPDEST PUSH1 0x0 PUSH2 0x25B8 DUP7 DUP3 DUP8 ADD PUSH2 0x1A9D JUMP JUMPDEST SWAP4 POP POP PUSH1 0x20 DUP5 ADD CALLDATALOAD PUSH8 0xFFFFFFFFFFFFFFFF DUP2 GT ISZERO PUSH2 0x25D9 JUMPI PUSH2 0x25D8 PUSH2 0x1A77 JUMP JUMPDEST JUMPDEST PUSH2 0x25E5 DUP7 DUP3 DUP8 ADD PUSH2 0x23A3 JUMP JUMPDEST SWAP3 POP SWAP3 POP POP SWAP3 POP SWAP3 POP SWAP3 JUMP JUMPDEST PUSH1 0x0 DUP1 REVERT JUMPDEST PUSH1 0x0 PUSH1 0x40 DUP3 DUP5 SUB SLT ISZERO PUSH2 0x260C JUMPI PUSH2 0x260B PUSH2 0x25F1 JUMP JUMPDEST JUMPDEST DUP2 SWAP1 POP SWAP3 SWAP2 POP POP JUMP JUMPDEST PUSH1 0x0 DUP1 PUSH1 0x0 PUSH1 0x60 DUP5 DUP7 SUB SLT ISZERO PUSH2 0x262E JUMPI PUSH2 0x262D PUSH2 0x1A72 JUMP JUMPDEST JUMPDEST PUSH1 0x0 PUSH2 0x263C DUP7 DUP3 DUP8 ADD PUSH2 0x25F6 JUMP JUMPDEST SWAP4 POP POP PUSH1 0x40 DUP5 ADD CALLDATALOAD PUSH8 0xFFFFFFFFFFFFFFFF DUP2 GT ISZERO PUSH2 0x265D JUMPI PUSH2 0x265C PUSH2 0x1A77 JUMP JUMPDEST JUMPDEST PUSH2 0x2669 DUP7 DUP3 DUP8 ADD PUSH2 0x23A3 JUMP JUMPDEST SWAP3 POP SWAP3 POP POP SWAP3 POP SWAP3 POP SWAP3 JUMP JUMPDEST PUSH1 0x0 DUP1 PUSH1 0x40 DUP4 DUP6 SUB SLT ISZERO PUSH2 0x268C JUMPI PUSH2 0x268B PUSH2 0x1A72 JUMP JUMPDEST JUMPDEST PUSH1 0x0 PUSH2 0x269A DUP6 DUP3 DUP7 ADD PUSH2 0x1B5E JUMP JUMPDEST SWAP3 POP POP PUSH1 0x20 PUSH2 0x26AB DUP6 DUP3 DUP7 ADD PUSH2 0x1B5E JUMP JUMPDEST SWAP2 POP POP SWAP3 POP SWAP3 SWAP1 POP JUMP JUMPDEST PUSH1 0x0 DUP1 PUSH1 0x0 DUP1 PUSH1 0x0 PUSH1 0xA0 DUP7 DUP9 SUB SLT ISZERO PUSH2 0x26D1 JUMPI PUSH2 0x26D0 PUSH2 0x1A72 JUMP JUMPDEST JUMPDEST PUSH1 0x0 PUSH2 0x26DF DUP9 DUP3 DUP10 ADD PUSH2 0x1B5E JUMP JUMPDEST SWAP6 POP POP PUSH1 0x20 PUSH2 0x26F0 DUP9 DUP3 DUP10 ADD PUSH2 0x1B5E JUMP JUMPDEST SWAP5 POP POP PUSH1 0x40 PUSH2 0x2701 DUP9 DUP3 DUP10 ADD PUSH2 0x1A9D JUMP JUMPDEST SWAP4 POP POP PUSH1 0x60 PUSH2 0x2712 DUP9 DUP3 DUP10 ADD PUSH2 0x1A9D JUMP JUMPDEST SWAP3 POP POP PUSH1 0x80 DUP7 ADD CALLDATALOAD PUSH8 0xFFFFFFFFFFFFFFFF DUP2 GT ISZERO PUSH2 0x2733 JUMPI PUSH2 0x2732 PUSH2 0x1A77 JUMP JUMPDEST JUMPDEST PUSH2 0x273F DUP9 DUP3 DUP10 ADD PUSH2 0x214C JUMP JUMPDEST SWAP2 POP POP SWAP3 SWAP6 POP SWAP3 SWAP6 SWAP1 SWAP4 POP JUMP JUMPDEST PUSH32 0x4E487B7100000000000000000000000000000000000000000000000000000000 PUSH1 0x0 MSTORE PUSH1 0x22 PUSH1 0x4 MSTORE PUSH1 0x24 PUSH1 0x0 REVERT JUMPDEST PUSH1 0x0 PUSH1 0x2 DUP3 DIV SWAP1 POP PUSH1 0x1 DUP3 AND DUP1 PUSH2 0x2793 JUMPI PUSH1 0x7F DUP3 AND SWAP2 POP JUMPDEST PUSH1 0x20 DUP3 LT DUP2 SUB PUSH2 0x27A6 JUMPI PUSH2 0x27A5 PUSH2 0x274C JUMP JUMPDEST JUMPDEST POP SWAP2 SWAP1 POP JUMP JUMPDEST PUSH32 0x4E487B7100000000000000000000000000000000000000000000000000000000 PUSH1 0x0 MSTORE PUSH1 0x32 PUSH1 0x4 MSTORE PUSH1 0x24 PUSH1 0x0 REVERT JUMPDEST PUSH32 0x4E487B7100000000000000000000000000000000000000000000000000000000 PUSH1 0x0 MSTORE PUSH1 0x11 PUSH1 0x4 MSTORE PUSH1 0x24 PUSH1 0x0 REVERT JUMPDEST PUSH1 0x0 PUSH2 0x2815 DUP3 PUSH2 0x1A7C JUMP JUMPDEST SWAP2 POP PUSH2 0x2820 DUP4 PUSH2 0x1A7C JUMP JUMPDEST SWAP3 POP DUP3 DUP3 ADD SWAP1 POP DUP1 DUP3 GT ISZERO PUSH2 0x2838 JUMPI PUSH2 0x2837 PUSH2 0x27DB JUMP JUMPDEST JUMPDEST SWAP3 SWAP2 POP POP JUMP JUMPDEST PUSH1 0x0 PUSH1 0x40 DUP3 ADD SWAP1 POP PUSH2 0x2853 PUSH1 0x0 DUP4 ADD DUP6 PUSH2 0x1BB3 JUMP JUMPDEST PUSH2 0x2860 PUSH1 0x20 DUP4 ADD DUP5 PUSH2 0x1BB3 JUMP JUMPDEST SWAP4 SWAP3 POP POP POP JUMP JUMPDEST PUSH2 0x2870 DUP2 PUSH2 0x1F49 JUMP JUMPDEST DUP2 EQ PUSH2 0x287B JUMPI PUSH1 0x0 DUP1 REVERT JUMPDEST POP JUMP JUMPDEST PUSH1 0x0 DUP2 CALLDATALOAD SWAP1 POP PUSH2 0x288D DUP2 PUSH2 0x2867 JUMP JUMPDEST SWAP3 SWAP2 POP POP JUMP JUMPDEST PUSH1 0x0 PUSH1 0x20 DUP3 DUP5 SUB SLT ISZERO PUSH2 0x28A9 JUMPI PUSH2 0x28A8 PUSH2 0x1A72 JUMP JUMPDEST JUMPDEST PUSH1 0x0 PUSH2 0x28B7 DUP5 DUP3 DUP6 ADD PUSH2 0x287E JUMP JUMPDEST SWAP2 POP POP SWAP3 SWAP2 POP POP JUMP JUMPDEST PUSH1 0x0 DUP2 SWAP1 POP DUP2 PUSH1 0x0 MSTORE PUSH1 0x20 PUSH1 0x0 KECCAK256 SWAP1 POP SWAP2 SWAP1 POP JUMP JUMPDEST PUSH1 0x0 PUSH1 0x20 PUSH1 0x1F DUP4 ADD DIV SWAP1 POP SWAP2 SWAP1 POP JUMP JUMPDEST PUSH1 0x0 DUP3 DUP3 SHL SWAP1 POP SWAP3 SWAP2 POP POP JUMP JUMPDEST PUSH1 0x0 PUSH1 0x8 DUP4 MUL PUSH2 0x2922 PUSH32 0xFFFFFFFFFFFFFFFFFFFFFFFFFFFFFFFFFFFFFFFFFFFFFFFFFFFFFFFFFFFFFFFF DUP3 PUSH2 0x28E5 JUMP JUMPDEST PUSH2 0x292C DUP7 DUP4 PUSH2 0x28E5 JUMP JUMPDEST SWAP6 POP DUP1 NOT DUP5 AND SWAP4 POP DUP1 DUP7 AND DUP5 OR SWAP3 POP POP POP SWAP4 SWAP3 POP POP POP JUMP JUMPDEST PUSH1 0x0 DUP2 SWAP1 POP SWAP2 SWAP1 POP JUMP JUMPDEST PUSH1 0x0 PUSH2 0x2969 PUSH2 0x2964 PUSH2 0x295F DUP5 PUSH2 0x1A7C JUMP JUMPDEST PUSH2 0x2944 JUMP JUMPDEST PUSH2 0x1A7C JUMP JUMPDEST SWAP1 POP SWAP2 SWAP1 POP JUMP JUMPDEST PUSH1 0x0 DUP2 SWAP1 POP SWAP2 SWAP1 POP JUMP JUMPDEST PUSH2 0x2983 DUP4 PUSH2 0x294E JUMP JUMPDEST PUSH2 0x2997 PUSH2 0x298F DUP3 PUSH2 0x2970 JUMP JUMPDEST DUP5 DUP5 SLOAD PUSH2 0x28F2 JUMP JUMPDEST DUP3 SSTORE POP POP POP POP JUMP JUMPDEST PUSH1 0x0 SWAP1 JUMP JUMPDEST PUSH2 0x29AC PUSH2 0x299F JUMP JUMPDEST PUSH2 0x29B7 DUP2 DUP5 DUP5 PUSH2 0x297A JUMP JUMPDEST POP POP POP JUMP JUMPDEST JUMPDEST DUP2 DUP2 LT ISZERO PUSH2 0x29DB JUMPI PUSH2 0x29D0 PUSH1 0x0 DUP3 PUSH2 0x29A4 JUMP JUMPDEST PUSH1 0x1 DUP2 ADD SWAP1 POP PUSH2 0x29BD JUMP JUMPDEST POP POP JUMP JUMPDEST PUSH1 0x1F DUP3 GT ISZERO PUSH2 0x2A20 JUMPI PUSH2 0x29F1 DUP2 PUSH2 0x28C0 JUMP JUMPDEST PUSH2 0x29FA DUP5 PUSH2 0x28D5 JUMP JUMPDEST DUP2 ADD PUSH1 0x20 DUP6 LT ISZERO PUSH2 0x2A09 JUMPI DUP2 SWAP1 POP JUMPDEST PUSH2 0x2A1D PUSH2 0x2A15 DUP6 PUSH2 0x28D5 JUMP JUMPDEST DUP4 ADD DUP3 PUSH2 0x29BC JUMP JUMPDEST POP POP JUMPDEST POP POP POP JUMP JUMPDEST PUSH1 0x0 DUP3 DUP3 SHR SWAP1 POP SWAP3 SWAP2 POP POP JUMP JUMPDEST PUSH1 0x0 PUSH2 0x2A43 PUSH1 0x0 NOT DUP5 PUSH1 0x8 MUL PUSH2 0x2A25 JUMP JUMPDEST NOT DUP1 DUP4 AND SWAP2 POP POP SWAP3 SWAP2 POP POP JUMP JUMPDEST PUSH1 0x0 PUSH2 0x2A5C DUP4 DUP4 PUSH2 0x2A32 JUMP JUMPDEST SWAP2 POP DUP3 PUSH1 0x2 MUL DUP3 OR SWAP1 POP SWAP3 SWAP2 POP POP JUMP JUMPDEST PUSH2 0x2A75 DUP3 PUSH2 0x1D14 JUMP JUMPDEST PUSH8 0xFFFFFFFFFFFFFFFF DUP2 GT ISZERO PUSH2 0x2A8E JUMPI PUSH2 0x2A8D PUSH2 0x1F87 JUMP JUMPDEST JUMPDEST PUSH2 0x2A98 DUP3 SLOAD PUSH2 0x277B JUMP JUMPDEST PUSH2 0x2AA3 DUP3 DUP3 DUP6 PUSH2 0x29DF JUMP JUMPDEST PUSH1 0x0 PUSH1 0x20 SWAP1 POP PUSH1 0x1F DUP4 GT PUSH1 0x1 DUP2 EQ PUSH2 0x2AD6 JUMPI PUSH1 0x0 DUP5 ISZERO PUSH2 0x2AC4 JUMPI DUP3 DUP8 ADD MLOAD SWAP1 POP JUMPDEST PUSH2 0x2ACE DUP6 DUP3 PUSH2 0x2A50 JUMP JUMPDEST DUP7 SSTORE POP PUSH2 0x2B36 JUMP JUMPDEST PUSH1 0x1F NOT DUP5 AND PUSH2 0x2AE4 DUP7 PUSH2 0x28C0 JUMP JUMPDEST PUSH1 0x0 JUMPDEST DUP3 DUP2 LT ISZERO PUSH2 0x2B0C JUMPI DUP5 DUP10 ADD MLOAD DUP3 SSTORE PUSH1 0x1 DUP3 ADD SWAP2 POP PUSH1 0x20 DUP6 ADD SWAP5 POP PUSH1 0x20 DUP2 ADD SWAP1 POP PUSH2 0x2AE7 JUMP JUMPDEST DUP7 DUP4 LT ISZERO PUSH2 0x2B29 JUMPI DUP5 DUP10 ADD MLOAD PUSH2 0x2B25 PUSH1 0x1F DUP10 AND DUP3 PUSH2 0x2A32 JUMP JUMPDEST DUP4 SSTORE POP JUMPDEST PUSH1 0x1 PUSH1 0x2 DUP9 MUL ADD DUP9 SSTORE POP POP POP JUMPDEST POP POP POP POP POP POP JUMP JUMPDEST PUSH1 0x0 PUSH1 0x40 DUP3 ADD SWAP1 POP DUP2 DUP2 SUB PUSH1 0x0 DUP4 ADD MSTORE PUSH2 0x2B58 DUP2 DUP6 PUSH2 0x1EC9 JUMP JUMPDEST SWAP1 POP DUP2 DUP2 SUB PUSH1 0x20 DUP4 ADD MSTORE PUSH2 0x2B6C DUP2 DUP5 PUSH2 0x1EC9 JUMP JUMPDEST SWAP1 POP SWAP4 SWAP3 POP POP POP JUMP JUMPDEST PUSH1 0x0 PUSH2 0x2B80 DUP3 PUSH2 0x1A7C JUMP JUMPDEST SWAP2 POP PUSH2 0x2B8B DUP4 PUSH2 0x1A7C JUMP JUMPDEST SWAP3 POP DUP3 DUP3 SUB SWAP1 POP DUP2 DUP2 GT ISZERO PUSH2 0x2BA3 JUMPI PUSH2 0x2BA2 PUSH2 0x27DB JUMP JUMPDEST JUMPDEST SWAP3 SWAP2 POP POP JUMP JUMPDEST PUSH1 0x0 DUP2 MLOAD SWAP1 POP SWAP2 SWAP1 POP JUMP JUMPDEST PUSH1 0x0 DUP3 DUP3 MSTORE PUSH1 0x20 DUP3 ADD SWAP1 POP SWAP3 SWAP2 POP POP JUMP JUMPDEST PUSH1 0x0 PUSH2 0x2BD0 DUP3 PUSH2 0x2BA9 JUMP JUMPDEST PUSH2 0x2BDA DUP2 DUP6 PUSH2 0x2BB4 JUMP JUMPDEST SWAP4 POP PUSH2 0x2BEA DUP2 DUP6 PUSH1 0x20 DUP7 ADD PUSH2 0x1D30 JUMP JUMPDEST PUSH2 0x2BF3 DUP2 PUSH2 0x1D5A JUMP JUMPDEST DUP5 ADD SWAP2 POP POP SWAP3 SWAP2 POP POP JUMP JUMPDEST PUSH1 0x0 PUSH1 0xA0 DUP3 ADD SWAP1 POP PUSH2 0x2C13 PUSH1 0x0 DUP4 ADD DUP9 PUSH2 0x247A JUMP JUMPDEST PUSH2 0x2C20 PUSH1 0x20 DUP4 ADD DUP8 PUSH2 0x247A JUMP JUMPDEST DUP2 DUP2 SUB PUSH1 0x40 DUP4 ADD MSTORE PUSH2 0x2C32 DUP2 DUP7 PUSH2 0x1EC9 JUMP JUMPDEST SWAP1 POP DUP2 DUP2 SUB PUSH1 0x60 DUP4 ADD MSTORE PUSH2 0x2C46 DUP2 DUP6 PUSH2 0x1EC9 JUMP JUMPDEST SWAP1 POP DUP2 DUP2 SUB PUSH1 0x80 DUP4 ADD MSTORE PUSH2 0x2C5A DUP2 DUP5 PUSH2 0x2BC5 JUMP JUMPDEST SWAP1 POP SWAP7 SWAP6 POP POP POP POP POP POP JUMP JUMPDEST PUSH1 0x0 DUP2 MLOAD SWAP1 POP PUSH2 0x2C75 DUP2 PUSH2 0x1C09 JUMP JUMPDEST SWAP3 SWAP2 POP POP JUMP JUMPDEST PUSH1 0x0 PUSH1 0x20 DUP3 DUP5 SUB SLT ISZERO PUSH2 0x2C91 JUMPI PUSH2 0x2C90 PUSH2 0x1A72 JUMP JUMPDEST JUMPDEST PUSH1 0x0 PUSH2 0x2C9F DUP5 DUP3 DUP6 ADD PUSH2 0x2C66 JUMP JUMPDEST SWAP2 POP POP SWAP3 SWAP2 POP POP JUMP JUMPDEST PUSH1 0x0 PUSH1 0x40 DUP3 ADD SWAP1 POP PUSH2 0x2CBD PUSH1 0x0 DUP4 ADD DUP6 PUSH2 0x247A JUMP JUMPDEST DUP2 DUP2 SUB PUSH1 0x20 DUP4 ADD MSTORE PUSH2 0x2CCF DUP2 DUP5 PUSH2 0x2BC5 JUMP JUMPDEST SWAP1 POP SWAP4 SWAP3 POP POP POP JUMP JUMPDEST PUSH2 0x2CE1 DUP2 PUSH2 0x1BDD JUMP JUMPDEST DUP3 MSTORE POP POP JUMP JUMPDEST PUSH1 0x0 PUSH1 0x40 DUP3 ADD SWAP1 POP PUSH2 0x2CFC PUSH1 0x0 DUP4 ADD DUP6 PUSH2 0x247A JUMP JUMPDEST PUSH2 0x2D09 PUSH1 0x20 DUP4 ADD DUP5 PUSH2 0x2CD8 JUMP JUMPDEST SWAP4 SWAP3 POP POP POP JUMP INVALID LOG2 PUSH5 0x6970667358 0x22 SLT KECCAK256 0xC6 STATICCALL 0xC9 SAR SWAP14 SGT 0xCA 0xB4 0xE6 0x27 ADDRESS DELEGATECALL MCOPY 0x22 PUSH8 0xDC70C6B10A3B3123 0xC4 ADDMOD 0xBF ORIGIN 0xCC 0xCF 0xBC 0x29 PC PUSH5 0x736F6C6343 STOP ADDMOD XOR STOP CALLER "},"methodIdentifiers":{"balanceOf(address,uint256)":"00fdd58e","balanceOfBatch(address[],uint256[])":"4e1273f4","burnRespect(uint256,bytes)":"d8b947d0","burnRespectGroup(uint256[],bytes)":"b4de12ce","contractURI()":"e8a3d485","fungibleId()":"25a11bab","isApprovedForAll(address,address)":"e985e9c5","mintRespect((uint256,uint64),bytes)":"dfd469ed","mintRespectGroup((uint256,uint64)[],bytes)":"5da7e1d4","owner()":"8da5cb5b","ownerOf(uint256)":"6352211e","renounceOwnership()":"715018a6","respectOf(address)":"58970ca8","respectOfBatch(address[])":"14e51b5d","safeBatchTransferFrom(address,address,uint256[],uint256[],bytes)":"2eb2c2d6","safeTransferFrom(address,address,uint256,uint256,bytes)":"f242432a","setApprovalForAll(address,bool)":"a22cb465","setContractURI(string)":"938e3d7b","setURI(string)":"02fe5305","sumRespectOf(address[])":"1fb221be","supportsInterface(bytes4)":"01ffc9a7","tokenExists(uint256)":"00923f9e","totalRespect()":"854a6dbb","transferOwnership(address)":"f2fde38b","uri(uint256)":"0e89341c","valueOfToken(uint256)":"2363b4aa"}}}}}