{"contracts/Orec.sol":{"Orec":{"abi":[{"inputs":[{"internalType":"contract IERC165","name":"respectContract_","type":"address"},{"internalType":"uint64","name":"voteLenSeconds_","type":"uint64"},{"internalType":"uint64","name":"vetoLenSeconds_","type":"uint64"},{"internalType":"uint256","name":"minWeight_","type":"uint256"},{"internalType":"uint8","name":"maxLiveYesVotes_","type":"uint8"}],"stateMutability":"nonpayable","type":"constructor"},{"inputs":[{"internalType":"enum Orec.VoteType","name":"prevVote","type":"uint8"},{"internalType":"enum Orec.VoteType","name":"newVote","type":"uint8"}],"name":"AlreadyVoted","type":"error"},{"inputs":[],"name":"InvalidVote","type":"error"},{"inputs":[],"name":"MaxLiveYesVotesExceeded","type":"error"},{"inputs":[],"name":"OutOfGas","type":"error"},{"inputs":[{"internalType":"address","name":"owner","type":"address"}],"name":"OwnableInvalidOwner","type":"error"},{"inputs":[{"internalType":"address","name":"account","type":"address"}],"name":"OwnableUnauthorizedAccount","type":"error"},{"inputs":[],"name":"ProposalAlreadyExecuted","type":"error"},{"inputs":[],"name":"ProposalAlreadyExists","type":"error"},{"inputs":[],"name":"ProposalDoesNotExist","type":"error"},{"inputs":[],"name":"ProposalNotExpired","type":"error"},{"inputs":[],"name":"ProposalNotPassed","type":"error"},{"inputs":[],"name":"ProposalVoteInactive","type":"error"},{"inputs":[],"name":"UnsupportedRespectContract","type":"error"},{"inputs":[],"name":"VotePeriodOver","type":"error"},{"anonymous":false,"inputs":[{"indexed":true,"internalType":"Orec.PropId","name":"propId","type":"bytes32"},{"indexed":true,"internalType":"address","name":"voter","type":"address"},{"indexed":false,"internalType":"enum Orec.VoteType","name":"vtype","type":"uint8"}],"name":"EmptyVoteIn","type":"event"},{"anonymous":false,"inputs":[{"indexed":true,"internalType":"Orec.PropId","name":"propId","type":"bytes32"},{"indexed":false,"internalType":"bytes","name":"retVal","type":"bytes"}],"name":"Executed","type":"event"},{"anonymous":false,"inputs":[{"indexed":true,"internalType":"Orec.PropId","name":"propId","type":"bytes32"},{"indexed":false,"internalType":"bytes","name":"retVal","type":"bytes"}],"name":"ExecutionFailed","type":"event"},{"anonymous":false,"inputs":[{"indexed":true,"internalType":"address","name":"previousOwner","type":"address"},{"indexed":true,"internalType":"address","name":"newOwner","type":"address"}],"name":"OwnershipTransferred","type":"event"},{"anonymous":false,"inputs":[{"indexed":true,"internalType":"Orec.PropId","name":"propId","type":"bytes32"}],"name":"ProposalCanceled","type":"event"},{"anonymous":false,"inputs":[{"indexed":true,"internalType":"Orec.PropId","name":"propId","type":"bytes32"}],"name":"ProposalCreated","type":"event"},{"anonymous":false,"inputs":[{"indexed":true,"internalType":"uint8","name":"signalType","type":"uint8"},{"indexed":false,"internalType":"bytes","name":"data","type":"bytes"}],"name":"Signal","type":"event"},{"anonymous":false,"inputs":[{"indexed":true,"internalType":"Orec.PropId","name":"propId","type":"bytes32"},{"indexed":true,"internalType":"address","name":"voter","type":"address"},{"components":[{"internalType":"enum Orec.VoteType","name":"vtype","type":"uint8"},{"internalType":"Orec.VoteWeight","name":"weight","type":"uint128"}],"indexed":false,"internalType":"struct Orec.Vote","name":"vote","type":"tuple"}],"name":"WeightedVoteIn","type":"event"},{"inputs":[{"internalType":"Orec.PropId","name":"propId","type":"bytes32"}],"name":"cancelProposal","outputs":[],"stateMutability":"nonpayable","type":"function"},{"inputs":[{"components":[{"internalType":"address","name":"addr","type":"address"},{"internalType":"bytes","name":"cdata","type":"bytes"},{"internalType":"bytes","name":"memo","type":"bytes"}],"internalType":"struct Orec.Message","name":"message","type":"tuple"}],"name":"execute","outputs":[{"internalType":"bool","name":"","type":"bool"}],"stateMutability":"nonpayable","type":"function"},{"inputs":[{"internalType":"Orec.PropId","name":"propId","type":"bytes32"},{"internalType":"address","name":"voter","type":"address"}],"name":"getLiveVote","outputs":[{"components":[{"internalType":"enum Orec.VoteType","name":"vtype","type":"uint8"},{"internalType":"Orec.VoteWeight","name":"weight","type":"uint128"}],"internalType":"struct Orec.Vote","name":"","type":"tuple"}],"stateMutability":"view","type":"function"},{"inputs":[{"internalType":"Orec.PropId","name":"propId","type":"bytes32"}],"name":"getStage","outputs":[{"internalType":"enum Orec.Stage","name":"","type":"uint8"}],"stateMutability":"view","type":"function"},{"inputs":[{"internalType":"Orec.PropId","name":"propId","type":"bytes32"}],"name":"getVoteStatus","outputs":[{"internalType":"enum Orec.VoteStatus","name":"","type":"uint8"}],"stateMutability":"view","type":"function"},{"inputs":[{"internalType":"Orec.PropId","name":"propId","type":"bytes32"}],"name":"isLive","outputs":[{"internalType":"bool","name":"","type":"bool"}],"stateMutability":"view","type":"function"},{"inputs":[{"internalType":"Orec.PropId","name":"propId","type":"bytes32"}],"name":"isVetoOrVotePeriod","outputs":[{"internalType":"bool","name":"","type":"bool"}],"stateMutability":"view","type":"function"},{"inputs":[{"internalType":"Orec.PropId","name":"propId","type":"bytes32"}],"name":"isVetoPeriod","outputs":[{"internalType":"bool","name":"","type":"bool"}],"stateMutability":"view","type":"function"},{"inputs":[{"internalType":"Orec.PropId","name":"propId","type":"bytes32"}],"name":"isVoteActive","outputs":[{"internalType":"bool","name":"","type":"bool"}],"stateMutability":"view","type":"function"},{"inputs":[{"internalType":"Orec.PropId","name":"propId","type":"bytes32"}],"name":"isVotePeriod","outputs":[{"internalType":"bool","name":"","type":"bool"}],"stateMutability":"view","type":"function"},{"inputs":[],"name":"maxLiveYesVotes","outputs":[{"internalType":"uint8","name":"","type":"uint8"}],"stateMutability":"view","type":"function"},{"inputs":[],"name":"minWeight","outputs":[{"internalType":"uint256","name":"","type":"uint256"}],"stateMutability":"view","type":"function"},{"inputs":[],"name":"owner","outputs":[{"internalType":"address","name":"","type":"address"}],"stateMutability":"view","type":"function"},{"inputs":[{"internalType":"Orec.PropId","name":"propId","type":"bytes32"}],"name":"proposalExists","outputs":[{"internalType":"bool","name":"","type":"bool"}],"stateMutability":"view","type":"function"},{"inputs":[{"components":[{"internalType":"address","name":"addr","type":"address"},{"internalType":"bytes","name":"cdata","type":"bytes"},{"internalType":"bytes","name":"memo","type":"bytes"}],"internalType":"struct Orec.Message","name":"message","type":"tuple"}],"name":"proposalId","outputs":[{"internalType":"Orec.PropId","name":"","type":"bytes32"}],"stateMutability":"pure","type":"function"},{"inputs":[{"internalType":"Orec.PropId","name":"","type":"bytes32"}],"name":"proposals","outputs":[{"internalType":"uint256","name":"createTime","type":"uint256"},{"internalType":"uint256","name":"yesWeight","type":"uint256"},{"internalType":"uint256","name":"noWeight","type":"uint256"}],"stateMutability":"view","type":"function"},{"inputs":[{"internalType":"Orec.PropId","name":"propId","type":"bytes32"}],"name":"propose","outputs":[],"stateMutability":"nonpayable","type":"function"},{"inputs":[],"name":"renounceOwnership","outputs":[],"stateMutability":"nonpayable","type":"function"},{"inputs":[],"name":"respectContract","outputs":[{"internalType":"address","name":"","type":"address"}],"stateMutability":"view","type":"function"},{"inputs":[{"internalType":"address","name":"account","type":"address"}],"name":"respectOf","outputs":[{"internalType":"uint256","name":"","type":"uint256"}],"stateMutability":"view","type":"function"},{"inputs":[{"internalType":"uint8","name":"newMaxLiveVotes","type":"uint8"}],"name":"setMaxLiveVotes","outputs":[],"stateMutability":"nonpayable","type":"function"},{"inputs":[{"internalType":"uint256","name":"newMinWeigth","type":"uint256"}],"name":"setMinWeight","outputs":[],"stateMutability":"nonpayable","type":"function"},{"inputs":[{"internalType":"uint64","name":"newVoteLen","type":"uint64"},{"internalType":"uint64","name":"newVetoLen","type":"uint64"}],"name":"setPeriodLengths","outputs":[],"stateMutability":"nonpayable","type":"function"},{"inputs":[{"internalType":"contract IERC165","name":"respect","type":"address"}],"name":"setRespectContract","outputs":[],"stateMutability":"nonpayable","type":"function"},{"inputs":[{"internalType":"uint8","name":"signalType","type":"uint8"},{"internalType":"bytes","name":"data","type":"bytes"}],"name":"signal","outputs":[],"stateMutability":"nonpayable","type":"function"},{"inputs":[{"internalType":"address","name":"newOwner","type":"address"}],"name":"transferOwnership","outputs":[],"stateMutability":"nonpayable","type":"function"},{"inputs":[],"name":"vetoLen","outputs":[{"internalType":"uint64","name":"","type":"uint64"}],"stateMutability":"view","type":"function"},{"inputs":[{"internalType":"Orec.PropId","name":"propId","type":"bytes32"},{"internalType":"enum Orec.VoteType","name":"voteType","type":"uint8"},{"internalType":"bytes","name":"","type":"bytes"}],"name":"vote","outputs":[],"stateMutability":"nonpayable","type":"function"},{"inputs":[],"name":"voteLen","outputs":[{"internalType":"uint64","name":"","type":"uint64"}],"stateMutability":"view","type":"function"},{"inputs":[{"internalType":"address","name":"account","type":"address"}],"name":"voteWeightOf","outputs":[{"internalType":"Orec.VoteWeight","name":"","type":"uint128"}],"stateMutability":"view","type":"function"}],"evm":{"bytecode":{"linkReferences":{},"object":"60806040523480156200001157600080fd5b50604051620039f3380380620039f383398181016040528101906200003791906200058e565b30600073ffffffffffffffffffffffffffffffffffffffff168173ffffffffffffffffffffffffffffffffffffffff1603620000ad5760006040517f1e4fbdf7000000000000000000000000000000000000000000000000000000008152600401620000a4919062000627565b60405180910390fd5b620000be816200014f60201b60201c565b50620000d0856200021360201b60201c565b83600060146101000a81548167ffffffffffffffff021916908367ffffffffffffffff16021790555082600160006101000a81548167ffffffffffffffff021916908367ffffffffffffffff1602179055508160028190555080600360156101000a81548160ff021916908360ff16021790555050505050506200076e565b60008060009054906101000a900473ffffffffffffffffffffffffffffffffffffffff169050816000806101000a81548173ffffffffffffffffffffffffffffffffffffffff021916908373ffffffffffffffffffffffffffffffffffffffff1602179055508173ffffffffffffffffffffffffffffffffffffffff168173ffffffffffffffffffffffffffffffffffffffff167f8be0079c531659141344cd1fd0a4f28419497f9722a3daafe3b4186f6b6457e060405160405180910390a35050565b60008190508173ffffffffffffffffffffffffffffffffffffffff166301ffc9a77f58970ca8000000000000000000000000000000000000000000000000000000006040518263ffffffff1660e01b815260040162000273919062000681565b602060405180830381865afa15801562000291573d6000803e3d6000fd5b505050506040513d601f19601f82011682018060405250810190620002b79190620006db565b15620002f1576000600360146101000a81548160ff02191690836001811115620002e657620002e56200070d565b5b02179055506200040d565b60008173ffffffffffffffffffffffffffffffffffffffff166370a08231306040518263ffffffff1660e01b81526004016200032e919062000627565b602060405180830381865afa1580156200034c573d6000803e3d6000fd5b505050506040513d601f19601f820116820180604052508101906200037291906200073c565b905060008110158015620003a657507fffffffffffffffffffffffffffffffffffffffffffffffffffffffffffffffff8111155b620003dd576040517fadd3c86f00000000000000000000000000000000000000000000000000000000815260040160405180910390fd5b6001600360146101000a81548160ff021916908360018111156200040657620004056200070d565b5b0217905550505b80600360006101000a81548173ffffffffffffffffffffffffffffffffffffffff021916908373ffffffffffffffffffffffffffffffffffffffff1602179055505050565b600080fd5b600073ffffffffffffffffffffffffffffffffffffffff82169050919050565b6000620004848262000457565b9050919050565b6000620004988262000477565b9050919050565b620004aa816200048b565b8114620004b657600080fd5b50565b600081519050620004ca816200049f565b92915050565b600067ffffffffffffffff82169050919050565b620004ef81620004d0565b8114620004fb57600080fd5b50565b6000815190506200050f81620004e4565b92915050565b6000819050919050565b6200052a8162000515565b81146200053657600080fd5b50565b6000815190506200054a816200051f565b92915050565b600060ff82169050919050565b620005688162000550565b81146200057457600080fd5b50565b60008151905062000588816200055d565b92915050565b600080600080600060a08688031215620005ad57620005ac62000452565b5b6000620005bd88828901620004b9565b9550506020620005d088828901620004fe565b9450506040620005e388828901620004fe565b9350506060620005f68882890162000539565b9250506080620006098882890162000577565b9150509295509295909350565b620006218162000477565b82525050565b60006020820190506200063e600083018462000616565b92915050565b60007fffffffff0000000000000000000000000000000000000000000000000000000082169050919050565b6200067b8162000644565b82525050565b600060208201905062000698600083018462000670565b92915050565b60008115159050919050565b620006b5816200069e565b8114620006c157600080fd5b50565b600081519050620006d581620006aa565b92915050565b600060208284031215620006f457620006f362000452565b5b60006200070484828501620006c4565b91505092915050565b7f4e487b7100000000000000000000000000000000000000000000000000000000600052602160045260246000fd5b60006020828403121562000755576200075462000452565b5b6000620007658482850162000539565b91505092915050565b613275806200077e6000396000f3fe608060405234801561001057600080fd5b50600436106101da5760003560e01c80637fb8b61e11610104578063cb156a4a116100a2578063dfb40ded11610071578063dfb40ded146105b7578063e89075c7146105d3578063f2fde38b146105ef578063fd165a731461060b576101da565b8063cb156a4a1461051d578063cedd3a0e1461053b578063d50b28431461056b578063d8cf352814610587576101da565b80638da5cb5b116100de5780638da5cb5b1461049557806399882cdb146104b3578063ae844f74146104cf578063be142264146104ff576101da565b80637fb8b61e1461042b57806387c5cbbb1461045b5780638c7ecf8d14610479576101da565b806332ed5b121161017c5780634cc740111161014b5780634cc740111461039157806358970ca8146103c15780635b4654a9146103f1578063715018a614610421576101da565b806332ed5b12146102e357806337376ca81461031557806340a27abc146103315780634410a94414610361576101da565b806312007fc9116101b857806312007fc91461024b578063141d51cb1461027b57806320cea51a14610297578063272d16f2146102b3576101da565b80630c2ee55e146101df5780630cfe734d146101fd5780630ee572fd1461022d575b600080fd5b6101e761063b565b6040516101f49190612441565b60405180910390f35b6102176004803603810190610212919061249c565b610641565b6040516102249190612540565b60405180910390f35b610235610660565b604051610242919061257e565b60405180910390f35b6102656004803603810190610260919061249c565b61067a565b60405161027291906125b4565b60405180910390f35b6102956004803603810190610290919061266d565b610699565b005b6102b160048036038101906102ac91906126f9565b6106e3565b005b6102cd60048036038101906102c8919061249c565b6106f5565b6040516102da91906125b4565b60405180910390f35b6102fd60048036038101906102f8919061249c565b610714565b60405161030c93929190612726565b60405180910390f35b61032f600480360381019061032a919061249c565b61073e565b005b61034b6004803603810190610346919061249c565b6107e9565b60405161035891906125b4565b60405180910390f35b61037b6004803603810190610376919061249c565b610808565b60405161038891906125b4565b60405180910390f35b6103ab60048036038101906103a691906127bb565b610831565b6040516103b891906128c9565b60405180910390f35b6103db60048036038101906103d691906128e4565b61088f565b6040516103e89190612441565b60405180910390f35b61040b60048036038101906104069190612935565b610a12565b604051610418919061299f565b60405180910390f35b610429610a7d565b005b610445600480360381019061044091906128e4565b610a91565b60405161045291906129c9565b60405180910390f35b610463610ae5565b60405161047091906129f3565b60405180910390f35b610493600480360381019061048e9190612a4c565b610af8565b005b61049d610b0c565b6040516104aa9190612a88565b60405180910390f35b6104cd60048036038101906104c8919061249c565b610b35565b005b6104e960048036038101906104e4919061249c565b610b9a565b6040516104f69190612aeb565b60405180910390f35b610507610c5d565b6040516105149190612a88565b60405180910390f35b610525610c83565b604051610532919061257e565b60405180910390f35b6105556004803603810190610550919061249c565b610c9d565b60405161056291906125b4565b60405180910390f35b61058560048036038101906105809190612b2b565b610cc6565b005b6105a1600480360381019061059c919061249c565b610d07565b6040516105ae91906125b4565b60405180910390f35b6105d160048036038101906105cc9190612bcb565b610d26565b005b6105ed60048036038101906105e89190612c0b565b610d84565b005b610609600480360381019061060491906128e4565b610daa565b005b61062560048036038101906106209190612935565b610e30565b60405161063291906125b4565b60405180910390f35b60025481565b60008061064d8361104a565b9050610658816110aa565b915050919050565b600160009054906101000a900467ffffffffffffffff1681565b6000806106868361104a565b9050610691816110f7565b915050919050565b6106a1611137565b8260ff167f294d62780e868235e85aee4277a92857d52a196987e2a5bbb9fffe4f08b4567a83836040516106d6929190612c96565b60405180910390a2505050565b6106eb611137565b8060028190555050565b6000806107018361104a565b905061070c816111be565b915050919050565b60046020528060005260406000206000915090508060000154908060010154908060020154905083565b610746611137565b61074f81610808565b156107b45760046000828152602001908152602001600020600080820160009055600182016000905560028201600090555050807f88ae8321c96cee88d802409f3677f889d8a6743c4631b069fe600a3a9b07e02060405160405180910390a26107e6565b6040517fd9c78e0200000000000000000000000000000000000000000000000000000000815260040160405180910390fd5b50565b6000806107f58361104a565b90506108008161124b565b915050919050565b600080600460008481526020019081526020016000209050610829816112b8565b915050919050565b6108396123ea565b6000600560008473ffffffffffffffffffffffffffffffffffffffff1673ffffffffffffffffffffffffffffffffffffffff168152602001908152602001600020905061088681856112c9565b91505092915050565b60008060018111156108a4576108a36124c9565b5b600360149054906101000a900460ff1660018111156108c6576108c56124c9565b5b0361096e57600360009054906101000a900473ffffffffffffffffffffffffffffffffffffffff1673ffffffffffffffffffffffffffffffffffffffff166358970ca8836040518263ffffffff1660e01b81526004016109269190612a88565b602060405180830381865afa158015610943573d6000803e3d6000fd5b505050506040513d601f19601f820116820180604052508101906109679190612ccf565b9050610a0d565b600360009054906101000a900473ffffffffffffffffffffffffffffffffffffffff1673ffffffffffffffffffffffffffffffffffffffff166370a08231836040518263ffffffff1660e01b81526004016109c99190612a88565b602060405180830381865afa1580156109e6573d6000803e3d6000fd5b505050506040513d601f19601f82011682018060405250810190610a0a9190612ccf565b90505b919050565b600080826000016020810190610a2891906128e4565b838060200190610a389190612d0b565b858060400190610a489190612d0b565b604051602001610a5c959493929190612de6565b60405160208183030381529060405290508080519060200120915050919050565b610a85611137565b610a8f6000611348565b565b600080610a9d8361088f565b90506000610ad98260016fffffffffffffffffffffffffffffffff610ac29190612e4e565b6fffffffffffffffffffffffffffffffff1661140c565b90508092505050919050565b600360159054906101000a900460ff1681565b610b00611137565b610b0981611425565b50565b60008060009054906101000a900473ffffffffffffffffffffffffffffffffffffffff16905090565b6000600460008381526020019081526020016000209050610b55816112b8565b15610b8c576040517fb8c39e6200000000000000000000000000000000000000000000000000000000815260040160405180910390fd5b610b968282611650565b5050565b600080610ba68361104a565b90506000610bb3826110aa565b9050600380811115610bc857610bc76124c9565b5b816003811115610bdb57610bda6124c9565b5b03610beb57600392505050610c58565b60026003811115610bff57610bfe6124c9565b5b816003811115610c1257610c116124c9565b5b03610c2257600292505050610c58565b610c2b826110f7565b15610c3b57600092505050610c58565b610c44826111be565b610c5157610c50612e92565b5b6001925050505b919050565b600360009054906101000a900473ffffffffffffffffffffffffffffffffffffffff1681565b600060149054906101000a900467ffffffffffffffff1681565b600080600460008481526020019081526020016000209050610cbe816116af565b915050919050565b6000600460008681526020019081526020016000209050610ce6816112b8565b610cf557610cf48582611650565b5b610d008186866116fe565b5050505050565b600080610d138361104a565b9050610d1e81611a35565b915050919050565b610d2e611137565b81600060146101000a81548167ffffffffffffffff021916908367ffffffffffffffff16021790555080600160006101000a81548167ffffffffffffffff021916908367ffffffffffffffff1602179055505050565b610d8c611137565b80600360156101000a81548160ff021916908360ff16021790555050565b610db2611137565b600073ffffffffffffffffffffffffffffffffffffffff168173ffffffffffffffffffffffffffffffffffffffff1603610e245760006040517f1e4fbdf7000000000000000000000000000000000000000000000000000000008152600401610e1b9190612a88565b60405180910390fd5b610e2d81611348565b50565b600080610e3c83610a12565b90506000610e498261104a565b905060026003811115610e5f57610e5e6124c9565b5b610e68826110aa565b6003811115610e7a57610e796124c9565b5b14610eb1576040517fc8c93ba300000000000000000000000000000000000000000000000000000000815260040160405180910390fd5b6004600083815260200190815260200160002060008082016000905560018201600090556002820160009055505060005a9050600080866000016020810190610efa91906128e4565b73ffffffffffffffffffffffffffffffffffffffff16878060200190610f209190612d0b565b604051610f2e929190612ec1565b6000604051808303816000865af19150503d8060008114610f6b576040519150601f19603f3d011682016040523d82523d6000602084013e610f70565b606091505b50915091508115610fb857847fda66fcfe5711520a570ced34d4cdebbe652fe74713bf2bc9db4ba54357e5a96f82604051610fab9190612f48565b60405180910390a261103d565b60005a9050604084610fca9190612f99565b811015611003576040517f77ebef4d00000000000000000000000000000000000000000000000000000000815260040160405180910390fd5b857fd255d8a333980d77af4f9179384057def133983cb02db3e1fdb70c4dc14102e8836040516110339190612f48565b60405180910390a2505b8195505050505050919050565b60008060046000848152602001908152602001600020905061106b816112b8565b6110a1576040517fd9c78e0200000000000000000000000000000000000000000000000000000000815260040160405180910390fd5b80915050919050565b60006110b582611a96565b156110d8576110c382611a35565b6110ce5760026110d1565b60005b90506110f2565b6110e1826110f7565b6110ec5760036110ef565b60015b90505b919050565b60008082600001544261110a9190612fca565b9050600060149054906101000a900467ffffffffffffffff1667ffffffffffffffff168110915050919050565b61113f611ac8565b73ffffffffffffffffffffffffffffffffffffffff1661115d610b0c565b73ffffffffffffffffffffffffffffffffffffffff16146111bc57611180611ac8565b6040517f118cdaa70000000000000000000000000000000000000000000000000000000081526004016111b39190612a88565b60405180910390fd5b565b6000808260000154426111d19190612fca565b9050600060149054906101000a900467ffffffffffffffff1667ffffffffffffffff1681101580156112435750600160009054906101000a900467ffffffffffffffff16600060149054906101000a900467ffffffffffffffff166112369190612ffe565b67ffffffffffffffff1681105b915050919050565b600080611257836110aa565b90506000600381111561126d5761126c6124c9565b5b8160038111156112805761127f6124c9565b5b14806112b057506001600381111561129b5761129a6124c9565b5b8160038111156112ae576112ad6124c9565b5b145b915050919050565b600080826000015414159050919050565b6112d16123ea565b6000806112e78486611ad090919063ffffffff16565b91509150816113345760405180604001604052806000600281111561130f5761130e6124c9565b5b815260200160006fffffffffffffffffffffffffffffffff1681525092505050611342565b61133d81611b1f565b925050505b92915050565b60008060009054906101000a900473ffffffffffffffffffffffffffffffffffffffff169050816000806101000a81548173ffffffffffffffffffffffffffffffffffffffff021916908373ffffffffffffffffffffffffffffffffffffffff1602179055508173ffffffffffffffffffffffffffffffffffffffff168173ffffffffffffffffffffffffffffffffffffffff167f8be0079c531659141344cd1fd0a4f28419497f9722a3daafe3b4186f6b6457e060405160405180910390a35050565b600081831061141b578161141d565b825b905092915050565b60008190508173ffffffffffffffffffffffffffffffffffffffff166301ffc9a77f58970ca8000000000000000000000000000000000000000000000000000000006040518263ffffffff1660e01b81526004016114839190613075565b602060405180830381865afa1580156114a0573d6000803e3d6000fd5b505050506040513d601f19601f820116820180604052508101906114c491906130bc565b156114f9576000600360146101000a81548160ff021916908360018111156114ef576114ee6124c9565b5b021790555061160b565b60008173ffffffffffffffffffffffffffffffffffffffff166370a08231306040518263ffffffff1660e01b81526004016115349190612a88565b602060405180830381865afa158015611551573d6000803e3d6000fd5b505050506040513d601f19601f820116820180604052508101906115759190612ccf565b9050600081101580156115a857507fffffffffffffffffffffffffffffffffffffffffffffffffffffffffffffffff8111155b6115de576040517fadd3c86f00000000000000000000000000000000000000000000000000000000815260040160405180910390fd5b6001600360146101000a81548160ff02191690836001811115611604576116036124c9565b5b0217905550505b80600360006101000a81548173ffffffffffffffffffffffffffffffffffffffff021916908373ffffffffffffffffffffffffffffffffffffffff1602179055505050565b60008160010154148015611668575060008160020154145b61167557611674612e92565b5b428160000181905550817f288a29bca04edb18fcdb2c76d6e3b03b8a137c85c70d1a4cb8aacfa868d6051060405160405180910390a25050565b6000806116bb836112b8565b90508080156116f657506003808111156116d8576116d76124c9565b5b6116e1846110aa565b60038111156116f3576116f26124c9565b5b14155b915050919050565b6000600560003373ffffffffffffffffffffffffffffffffffffffff1673ffffffffffffffffffffffffffffffffffffffff1681526020019081526020016000209050600061174d82856112c9565b90506000604051806040016040528085600281111561176f5761176e6124c9565b5b815260200161177d33610a91565b6fffffffffffffffffffffffffffffffff16815250905061179e8282611c46565b156117e6578160000151846040517f03ddd2790000000000000000000000000000000000000000000000000000000081526004016117dd9291906130f8565b60405180910390fd5b60006117f28487611cb6565b905060016002811115611808576118076124c9565b5b8260000151600281111561181f5761181e6124c9565b5b036118b35761182d876110f7565b611863576040517f6d47005400000000000000000000000000000000000000000000000000000000815260040160405180910390fd5b600360159054906101000a900460ff1660ff1681106118ae576040517f48d8fc9400000000000000000000000000000000000000000000000000000000815260040160405180910390fd5b611959565b6002808111156118c6576118c56124c9565b5b826000015160028111156118dd576118dc6124c9565b5b03611926576118eb8761124b565b611921576040517f0de09f8100000000000000000000000000000000000000000000000000000000815260040160405180910390fd5b611958565b6040517fd5dd0c6600000000000000000000000000000000000000000000000000000000815260040160405180910390fd5b5b6119668487898686611e58565b600082602001516fffffffffffffffffffffffffffffffff16036119dc573373ffffffffffffffffffffffffffffffffffffffff16867f60921de1a934e80af973d90edbca67a078f0dc03d7385b9031ff925b3a2ab82084600001516040516119cf9190613121565b60405180910390a3611a2c565b3373ffffffffffffffffffffffffffffffffffffffff16867fcd907020340d41d9b3fb53725f52264110fc156b0059b7817f4fe29f25a96cef84604051611a2391906128c9565b60405180910390a35b50505050505050565b600080826000015442611a489190612fca565b9050600160009054906101000a900467ffffffffffffffff16600060149054906101000a900467ffffffffffffffff16611a829190612ffe565b67ffffffffffffffff168110915050919050565b6000816001015460028360020154611aae919061313c565b108015611ac15750600254826001015410155b9050919050565b600033905090565b60008060008460020160008581526020019081526020016000205490506000801b8103611b0f57611b018585612063565b6000801b9250925050611b18565b60018192509250505b9250929050565b611b276123ea565b60008260001c905060016fffffffffffffffffffffffffffffffff611b4c9190612e4e565b6fffffffffffffffffffffffffffffffff16816fffffffffffffffffffffffffffffffff161115611b8057611b7f612e92565b5b600060808460001c901c60ff166002811115611b9f57611b9e6124c9565b5b905060016002811115611bb557611bb46124c9565b5b816002811115611bc857611bc76124c9565b5b1480611bf75750600280811115611be257611be16124c9565b5b816002811115611bf557611bf46124c9565b5b145b611c0457611c03612e92565b5b6040518060400160405280826002811115611c2257611c216124c9565b5b8152602001836fffffffffffffffffffffffffffffffff1681525092505050919050565b600081600001516002811115611c5f57611c5e6124c9565b5b83600001516002811115611c7657611c756124c9565b5b148015611cae575081602001516fffffffffffffffffffffffffffffffff1683602001516fffffffffffffffffffffffffffffffff16145b905092915050565b600080611cc284612083565b905060008167ffffffffffffffff811115611ce057611cdf61317e565b5b604051908082528060200260200182016040528015611d0e5781602001602082028036833780820191505090505b50905060008060005b84811015611e0357600080611d35838b61209890919063ffffffff16565b9150915060008290506000600460008381526020019081526020016000209050611d5e816116af565b611d965781888881518110611d7657611d756131ad565b5b602002602001018181525050600187611d8f91906131dc565b9650611df2565b6000611da184611b1f565b905060016002811115611db757611db66124c9565b5b81600001516002811115611dce57611dcd6124c9565b5b148015611ddb57508b8314155b15611df057600187611ded91906131dc565b96505b505b505050508080600101915050611d17565b5060005b82811015611e4a57611e3c848281518110611e2557611e246131ad565b5b6020026020010151896120d890919063ffffffff16565b508080600101915050611e07565b508094505050505092915050565b600082602001516fffffffffffffffffffffffffffffffff161115611f405760016002811115611e8b57611e8a6124c9565b5b82600001516002811115611ea257611ea16124c9565b5b03611edd5781602001516fffffffffffffffffffffffffffffffff16836001016000828254611ed19190612fca565b92505081905550611f3f565b600280811115611ef057611eef6124c9565b5b82600001516002811115611f0757611f066124c9565b5b03611f3e5781602001516fffffffffffffffffffffffffffffffff16836002016000828254611f369190612fca565b925050819055505b5b5b60016002811115611f5457611f536124c9565b5b81600001516002811115611f6b57611f6a6124c9565b5b03611fa65780602001516fffffffffffffffffffffffffffffffff16836001016000828254611f9a91906131dc565b9250508190555061203e565b600280811115611fb957611fb86124c9565b5b81600001516002811115611fd057611fcf6124c9565b5b0361200b5780602001516fffffffffffffffffffffffffffffffff16836002016000828254611fff91906131dc565b9250508190555061203d565b6040517fd5dd0c6600000000000000000000000000000000000000000000000000000000815260040160405180910390fd5b5b61205b8461204b83612111565b8761215b9092919063ffffffff16565b505050505050565b600061207b828460000161219690919063ffffffff16565b905092915050565b6000612091826000016121ad565b9050919050565b60008060006120b384866000016121c290919063ffffffff16565b9050808560020160008381526020019081526020016000205492509250509250929050565b60008260020160008381526020019081526020016000206000905561210982846000016121d990919063ffffffff16565b905092915050565b600080826020015190506000816fffffffffffffffffffffffffffffffff16608085600001516002811115612149576121486124c9565b5b901b1790508060001b92505050919050565b6000818460020160008581526020019081526020016000208190555061218d83856000016121f090919063ffffffff16565b90509392505050565b60006121a58360000183612207565b905092915050565b60006121bb8260000161222a565b9050919050565b60006121d1836000018361223b565b905092915050565b60006121e88360000183612266565b905092915050565b60006121ff836000018361237a565b905092915050565b600080836001016000848152602001908152602001600020541415905092915050565b600081600001805490509050919050565b6000826000018281548110612253576122526131ad565b5b9060005260206000200154905092915050565b6000808360010160008481526020019081526020016000205490506000811461236e5760006001826122989190612fca565b90506000600186600001805490506122b09190612fca565b905080821461231f5760008660000182815481106122d1576122d06131ad565b5b90600052602060002001549050808760000184815481106122f5576122f46131ad565b5b90600052602060002001819055508387600101600083815260200190815260200160002081905550505b8560000180548061233357612332613210565b5b600190038181906000526020600020016000905590558560010160008681526020019081526020016000206000905560019350505050612374565b60009150505b92915050565b60006123868383612207565b6123df5782600001829080600181540180825580915050600190039060005260206000200160009091909190915055826000018054905083600101600084815260200190815260200160002081905550600190506123e4565b600090505b92915050565b604051806040016040528060006002811115612409576124086124c9565b5b815260200160006fffffffffffffffffffffffffffffffff1681525090565b6000819050919050565b61243b81612428565b82525050565b60006020820190506124566000830184612432565b92915050565b600080fd5b600080fd5b6000819050919050565b61247981612466565b811461248457600080fd5b50565b60008135905061249681612470565b92915050565b6000602082840312156124b2576124b161245c565b5b60006124c084828501612487565b91505092915050565b7f4e487b7100000000000000000000000000000000000000000000000000000000600052602160045260246000fd5b60048110612509576125086124c9565b5b50565b600081905061251a826124f8565b919050565b600061252a8261250c565b9050919050565b61253a8161251f565b82525050565b60006020820190506125556000830184612531565b92915050565b600067ffffffffffffffff82169050919050565b6125788161255b565b82525050565b6000602082019050612593600083018461256f565b92915050565b60008115159050919050565b6125ae81612599565b82525050565b60006020820190506125c960008301846125a5565b92915050565b600060ff82169050919050565b6125e5816125cf565b81146125f057600080fd5b50565b600081359050612602816125dc565b92915050565b600080fd5b600080fd5b600080fd5b60008083601f84011261262d5761262c612608565b5b8235905067ffffffffffffffff81111561264a5761264961260d565b5b60208301915083600182028301111561266657612665612612565b5b9250929050565b6000806000604084860312156126865761268561245c565b5b6000612694868287016125f3565b935050602084013567ffffffffffffffff8111156126b5576126b4612461565b5b6126c186828701612617565b92509250509250925092565b6126d681612428565b81146126e157600080fd5b50565b6000813590506126f3816126cd565b92915050565b60006020828403121561270f5761270e61245c565b5b600061271d848285016126e4565b91505092915050565b600060608201905061273b6000830186612432565b6127486020830185612432565b6127556040830184612432565b949350505050565b600073ffffffffffffffffffffffffffffffffffffffff82169050919050565b60006127888261275d565b9050919050565b6127988161277d565b81146127a357600080fd5b50565b6000813590506127b58161278f565b92915050565b600080604083850312156127d2576127d161245c565b5b60006127e085828601612487565b92505060206127f1858286016127a6565b9150509250929050565b6003811061280c5761280b6124c9565b5b50565b600081905061281d826127fb565b919050565b600061282d8261280f565b9050919050565b61283d81612822565b82525050565b60006fffffffffffffffffffffffffffffffff82169050919050565b6000819050919050565b600061288461287f61287a84612843565b61285f565b612843565b9050919050565b61289481612869565b82525050565b6040820160008201516128b06000850182612834565b5060208201516128c3602085018261288b565b50505050565b60006040820190506128de600083018461289a565b92915050565b6000602082840312156128fa576128f961245c565b5b6000612908848285016127a6565b91505092915050565b600080fd5b60006060828403121561292c5761292b612911565b5b81905092915050565b60006020828403121561294b5761294a61245c565b5b600082013567ffffffffffffffff81111561296957612968612461565b5b61297584828501612916565b91505092915050565b600061298982612466565b9050919050565b6129998161297e565b82525050565b60006020820190506129b46000830184612990565b92915050565b6129c381612869565b82525050565b60006020820190506129de60008301846129ba565b92915050565b6129ed816125cf565b82525050565b6000602082019050612a0860008301846129e4565b92915050565b6000612a198261277d565b9050919050565b612a2981612a0e565b8114612a3457600080fd5b50565b600081359050612a4681612a20565b92915050565b600060208284031215612a6257612a6161245c565b5b6000612a7084828501612a37565b91505092915050565b612a828161277d565b82525050565b6000602082019050612a9d6000830184612a79565b92915050565b60048110612ab457612ab36124c9565b5b50565b6000819050612ac582612aa3565b919050565b6000612ad582612ab7565b9050919050565b612ae581612aca565b82525050565b6000602082019050612b006000830184612adc565b92915050565b60038110612b1357600080fd5b50565b600081359050612b2581612b06565b92915050565b60008060008060608587031215612b4557612b4461245c565b5b6000612b5387828801612487565b9450506020612b6487828801612b16565b935050604085013567ffffffffffffffff811115612b8557612b84612461565b5b612b9187828801612617565b925092505092959194509250565b612ba88161255b565b8114612bb357600080fd5b50565b600081359050612bc581612b9f565b92915050565b60008060408385031215612be257612be161245c565b5b6000612bf085828601612bb6565b9250506020612c0185828601612bb6565b9150509250929050565b600060208284031215612c2157612c2061245c565b5b6000612c2f848285016125f3565b91505092915050565b600082825260208201905092915050565b82818337600083830152505050565b6000601f19601f8301169050919050565b6000612c758385612c38565b9350612c82838584612c49565b612c8b83612c58565b840190509392505050565b60006020820190508181036000830152612cb1818486612c69565b90509392505050565b600081519050612cc9816126cd565b92915050565b600060208284031215612ce557612ce461245c565b5b6000612cf384828501612cba565b91505092915050565b600080fd5b600080fd5b600080fd5b60008083356001602003843603038112612d2857612d27612cfc565b5b80840192508235915067ffffffffffffffff821115612d4a57612d49612d01565b5b602083019250600182023603831315612d6657612d65612d06565b5b509250929050565b60008160601b9050919050565b6000612d8682612d6e565b9050919050565b6000612d9882612d7b565b9050919050565b612db0612dab8261277d565b612d8d565b82525050565b600081905092915050565b6000612dcd8385612db6565b9350612dda838584612c49565b82840190509392505050565b6000612df28288612d9f565b601482019150612e03828688612dc1565b9150612e10828486612dc1565b91508190509695505050505050565b7f4e487b7100000000000000000000000000000000000000000000000000000000600052601160045260246000fd5b6000612e5982612843565b9150612e6483612843565b925082820390506fffffffffffffffffffffffffffffffff811115612e8c57612e8b612e1f565b5b92915050565b7f4e487b7100000000000000000000000000000000000000000000000000000000600052600160045260246000fd5b6000612ece828486612dc1565b91508190509392505050565b600081519050919050565b60005b83811015612f03578082015181840152602081019050612ee8565b60008484015250505050565b6000612f1a82612eda565b612f248185612c38565b9350612f34818560208601612ee5565b612f3d81612c58565b840191505092915050565b60006020820190508181036000830152612f628184612f0f565b905092915050565b7f4e487b7100000000000000000000000000000000000000000000000000000000600052601260045260246000fd5b6000612fa482612428565b9150612faf83612428565b925082612fbf57612fbe612f6a565b5b828204905092915050565b6000612fd582612428565b9150612fe083612428565b9250828203905081811115612ff857612ff7612e1f565b5b92915050565b60006130098261255b565b91506130148361255b565b9250828201905067ffffffffffffffff81111561303457613033612e1f565b5b92915050565b60007fffffffff0000000000000000000000000000000000000000000000000000000082169050919050565b61306f8161303a565b82525050565b600060208201905061308a6000830184613066565b92915050565b61309981612599565b81146130a457600080fd5b50565b6000815190506130b681613090565b92915050565b6000602082840312156130d2576130d161245c565b5b60006130e0848285016130a7565b91505092915050565b6130f281612822565b82525050565b600060408201905061310d60008301856130e9565b61311a60208301846130e9565b9392505050565b600060208201905061313660008301846130e9565b92915050565b600061314782612428565b915061315283612428565b925082820261316081612428565b9150828204841483151761317757613176612e1f565b5b5092915050565b7f4e487b7100000000000000000000000000000000000000000000000000000000600052604160045260246000fd5b7f4e487b7100000000000000000000000000000000000000000000000000000000600052603260045260246000fd5b60006131e782612428565b91506131f283612428565b925082820190508082111561320a57613209612e1f565b5b92915050565b7f4e487b7100000000000000000000000000000000000000000000000000000000600052603160045260246000fdfea2646970667358221220270b8827ba261d7330a4903e2afdaa9b125fd849836844bf7eee11c97e11a27a64736f6c63430008180033","opcodes":"PUSH1 0x80 PUSH1 0x40 MSTORE CALLVALUE DUP1 ISZERO PUSH3 0x11 JUMPI PUSH1 0x0 DUP1 REVERT JUMPDEST POP PUSH1 0x40 MLOAD PUSH3 0x39F3 CODESIZE SUB DUP1 PUSH3 0x39F3 DUP4 CODECOPY DUP2 DUP2 ADD PUSH1 0x40 MSTORE DUP2 ADD SWAP1 PUSH3 0x37 SWAP2 SWAP1 PUSH3 0x58E JUMP JUMPDEST ADDRESS PUSH1 0x0 PUSH20 0xFFFFFFFFFFFFFFFFFFFFFFFFFFFFFFFFFFFFFFFF AND DUP2 PUSH20 0xFFFFFFFFFFFFFFFFFFFFFFFFFFFFFFFFFFFFFFFF AND SUB PUSH3 0xAD JUMPI PUSH1 0x0 PUSH1 0x40 MLOAD PUSH32 0x1E4FBDF700000000000000000000000000000000000000000000000000000000 DUP2 MSTORE PUSH1 0x4 ADD PUSH3 0xA4 SWAP2 SWAP1 PUSH3 0x627 JUMP JUMPDEST PUSH1 0x40 MLOAD DUP1 SWAP2 SUB SWAP1 REVERT JUMPDEST PUSH3 0xBE DUP2 PUSH3 0x14F PUSH1 0x20 SHL PUSH1 0x20 SHR JUMP JUMPDEST POP PUSH3 0xD0 DUP6 PUSH3 0x213 PUSH1 0x20 SHL PUSH1 0x20 SHR JUMP JUMPDEST DUP4 PUSH1 0x0 PUSH1 0x14 PUSH2 0x100 EXP DUP2 SLOAD DUP2 PUSH8 0xFFFFFFFFFFFFFFFF MUL NOT AND SWAP1 DUP4 PUSH8 0xFFFFFFFFFFFFFFFF AND MUL OR SWAP1 SSTORE POP DUP3 PUSH1 0x1 PUSH1 0x0 PUSH2 0x100 EXP DUP2 SLOAD DUP2 PUSH8 0xFFFFFFFFFFFFFFFF MUL NOT AND SWAP1 DUP4 PUSH8 0xFFFFFFFFFFFFFFFF AND MUL OR SWAP1 SSTORE POP DUP2 PUSH1 0x2 DUP2 SWAP1 SSTORE POP DUP1 PUSH1 0x3 PUSH1 0x15 PUSH2 0x100 EXP DUP2 SLOAD DUP2 PUSH1 0xFF MUL NOT AND SWAP1 DUP4 PUSH1 0xFF AND MUL OR SWAP1 SSTORE POP POP POP POP POP POP PUSH3 0x76E JUMP JUMPDEST PUSH1 0x0 DUP1 PUSH1 0x0 SWAP1 SLOAD SWAP1 PUSH2 0x100 EXP SWAP1 DIV PUSH20 0xFFFFFFFFFFFFFFFFFFFFFFFFFFFFFFFFFFFFFFFF AND SWAP1 POP DUP2 PUSH1 0x0 DUP1 PUSH2 0x100 EXP DUP2 SLOAD DUP2 PUSH20 0xFFFFFFFFFFFFFFFFFFFFFFFFFFFFFFFFFFFFFFFF MUL NOT AND SWAP1 DUP4 PUSH20 0xFFFFFFFFFFFFFFFFFFFFFFFFFFFFFFFFFFFFFFFF AND MUL OR SWAP1 SSTORE POP DUP2 PUSH20 0xFFFFFFFFFFFFFFFFFFFFFFFFFFFFFFFFFFFFFFFF AND DUP2 PUSH20 0xFFFFFFFFFFFFFFFFFFFFFFFFFFFFFFFFFFFFFFFF AND PUSH32 0x8BE0079C531659141344CD1FD0A4F28419497F9722A3DAAFE3B4186F6B6457E0 PUSH1 0x40 MLOAD PUSH1 0x40 MLOAD DUP1 SWAP2 SUB SWAP1 LOG3 POP POP JUMP JUMPDEST PUSH1 0x0 DUP2 SWAP1 POP DUP2 PUSH20 0xFFFFFFFFFFFFFFFFFFFFFFFFFFFFFFFFFFFFFFFF AND PUSH4 0x1FFC9A7 PUSH32 0x58970CA800000000000000000000000000000000000000000000000000000000 PUSH1 0x40 MLOAD DUP3 PUSH4 0xFFFFFFFF AND PUSH1 0xE0 SHL DUP2 MSTORE PUSH1 0x4 ADD PUSH3 0x273 SWAP2 SWAP1 PUSH3 0x681 JUMP JUMPDEST PUSH1 0x20 PUSH1 0x40 MLOAD DUP1 DUP4 SUB DUP2 DUP7 GAS STATICCALL ISZERO DUP1 ISZERO PUSH3 0x291 JUMPI RETURNDATASIZE PUSH1 0x0 DUP1 RETURNDATACOPY RETURNDATASIZE PUSH1 0x0 REVERT JUMPDEST POP POP POP POP PUSH1 0x40 MLOAD RETURNDATASIZE PUSH1 0x1F NOT PUSH1 0x1F DUP3 ADD AND DUP3 ADD DUP1 PUSH1 0x40 MSTORE POP DUP2 ADD SWAP1 PUSH3 0x2B7 SWAP2 SWAP1 PUSH3 0x6DB JUMP JUMPDEST ISZERO PUSH3 0x2F1 JUMPI PUSH1 0x0 PUSH1 0x3 PUSH1 0x14 PUSH2 0x100 EXP DUP2 SLOAD DUP2 PUSH1 0xFF MUL NOT AND SWAP1 DUP4 PUSH1 0x1 DUP2 GT ISZERO PUSH3 0x2E6 JUMPI PUSH3 0x2E5 PUSH3 0x70D JUMP JUMPDEST JUMPDEST MUL OR SWAP1 SSTORE POP PUSH3 0x40D JUMP JUMPDEST PUSH1 0x0 DUP2 PUSH20 0xFFFFFFFFFFFFFFFFFFFFFFFFFFFFFFFFFFFFFFFF AND PUSH4 0x70A08231 ADDRESS PUSH1 0x40 MLOAD DUP3 PUSH4 0xFFFFFFFF AND PUSH1 0xE0 SHL DUP2 MSTORE PUSH1 0x4 ADD PUSH3 0x32E SWAP2 SWAP1 PUSH3 0x627 JUMP JUMPDEST PUSH1 0x20 PUSH1 0x40 MLOAD DUP1 DUP4 SUB DUP2 DUP7 GAS STATICCALL ISZERO DUP1 ISZERO PUSH3 0x34C JUMPI RETURNDATASIZE PUSH1 0x0 DUP1 RETURNDATACOPY RETURNDATASIZE PUSH1 0x0 REVERT JUMPDEST POP POP POP POP PUSH1 0x40 MLOAD RETURNDATASIZE PUSH1 0x1F NOT PUSH1 0x1F DUP3 ADD AND DUP3 ADD DUP1 PUSH1 0x40 MSTORE POP DUP2 ADD SWAP1 PUSH3 0x372 SWAP2 SWAP1 PUSH3 0x73C JUMP JUMPDEST SWAP1 POP PUSH1 0x0 DUP2 LT ISZERO DUP1 ISZERO PUSH3 0x3A6 JUMPI POP PUSH32 0xFFFFFFFFFFFFFFFFFFFFFFFFFFFFFFFFFFFFFFFFFFFFFFFFFFFFFFFFFFFFFFFF DUP2 GT ISZERO JUMPDEST PUSH3 0x3DD JUMPI PUSH1 0x40 MLOAD PUSH32 0xADD3C86F00000000000000000000000000000000000000000000000000000000 DUP2 MSTORE PUSH1 0x4 ADD PUSH1 0x40 MLOAD DUP1 SWAP2 SUB SWAP1 REVERT JUMPDEST PUSH1 0x1 PUSH1 0x3 PUSH1 0x14 PUSH2 0x100 EXP DUP2 SLOAD DUP2 PUSH1 0xFF MUL NOT AND SWAP1 DUP4 PUSH1 0x1 DUP2 GT ISZERO PUSH3 0x406 JUMPI PUSH3 0x405 PUSH3 0x70D JUMP JUMPDEST JUMPDEST MUL OR SWAP1 SSTORE POP POP JUMPDEST DUP1 PUSH1 0x3 PUSH1 0x0 PUSH2 0x100 EXP DUP2 SLOAD DUP2 PUSH20 0xFFFFFFFFFFFFFFFFFFFFFFFFFFFFFFFFFFFFFFFF MUL NOT AND SWAP1 DUP4 PUSH20 0xFFFFFFFFFFFFFFFFFFFFFFFFFFFFFFFFFFFFFFFF AND MUL OR SWAP1 SSTORE POP POP POP JUMP JUMPDEST PUSH1 0x0 DUP1 REVERT JUMPDEST PUSH1 0x0 PUSH20 0xFFFFFFFFFFFFFFFFFFFFFFFFFFFFFFFFFFFFFFFF DUP3 AND SWAP1 POP SWAP2 SWAP1 POP JUMP JUMPDEST PUSH1 0x0 PUSH3 0x484 DUP3 PUSH3 0x457 JUMP JUMPDEST SWAP1 POP SWAP2 SWAP1 POP JUMP JUMPDEST PUSH1 0x0 PUSH3 0x498 DUP3 PUSH3 0x477 JUMP JUMPDEST SWAP1 POP SWAP2 SWAP1 POP JUMP JUMPDEST PUSH3 0x4AA DUP2 PUSH3 0x48B JUMP JUMPDEST DUP2 EQ PUSH3 0x4B6 JUMPI PUSH1 0x0 DUP1 REVERT JUMPDEST POP JUMP JUMPDEST PUSH1 0x0 DUP2 MLOAD SWAP1 POP PUSH3 0x4CA DUP2 PUSH3 0x49F JUMP JUMPDEST SWAP3 SWAP2 POP POP JUMP JUMPDEST PUSH1 0x0 PUSH8 0xFFFFFFFFFFFFFFFF DUP3 AND SWAP1 POP SWAP2 SWAP1 POP JUMP JUMPDEST PUSH3 0x4EF DUP2 PUSH3 0x4D0 JUMP JUMPDEST DUP2 EQ PUSH3 0x4FB JUMPI PUSH1 0x0 DUP1 REVERT JUMPDEST POP JUMP JUMPDEST PUSH1 0x0 DUP2 MLOAD SWAP1 POP PUSH3 0x50F DUP2 PUSH3 0x4E4 JUMP JUMPDEST SWAP3 SWAP2 POP POP JUMP JUMPDEST PUSH1 0x0 DUP2 SWAP1 POP SWAP2 SWAP1 POP JUMP JUMPDEST PUSH3 0x52A DUP2 PUSH3 0x515 JUMP JUMPDEST DUP2 EQ PUSH3 0x536 JUMPI PUSH1 0x0 DUP1 REVERT JUMPDEST POP JUMP JUMPDEST PUSH1 0x0 DUP2 MLOAD SWAP1 POP PUSH3 0x54A DUP2 PUSH3 0x51F JUMP JUMPDEST SWAP3 SWAP2 POP POP JUMP JUMPDEST PUSH1 0x0 PUSH1 0xFF DUP3 AND SWAP1 POP SWAP2 SWAP1 POP JUMP JUMPDEST PUSH3 0x568 DUP2 PUSH3 0x550 JUMP JUMPDEST DUP2 EQ PUSH3 0x574 JUMPI PUSH1 0x0 DUP1 REVERT JUMPDEST POP JUMP JUMPDEST PUSH1 0x0 DUP2 MLOAD SWAP1 POP PUSH3 0x588 DUP2 PUSH3 0x55D JUMP JUMPDEST SWAP3 SWAP2 POP POP JUMP JUMPDEST PUSH1 0x0 DUP1 PUSH1 0x0 DUP1 PUSH1 0x0 PUSH1 0xA0 DUP7 DUP9 SUB SLT ISZERO PUSH3 0x5AD JUMPI PUSH3 0x5AC PUSH3 0x452 JUMP JUMPDEST JUMPDEST PUSH1 0x0 PUSH3 0x5BD DUP9 DUP3 DUP10 ADD PUSH3 0x4B9 JUMP JUMPDEST SWAP6 POP POP PUSH1 0x20 PUSH3 0x5D0 DUP9 DUP3 DUP10 ADD PUSH3 0x4FE JUMP JUMPDEST SWAP5 POP POP PUSH1 0x40 PUSH3 0x5E3 DUP9 DUP3 DUP10 ADD PUSH3 0x4FE JUMP JUMPDEST SWAP4 POP POP PUSH1 0x60 PUSH3 0x5F6 DUP9 DUP3 DUP10 ADD PUSH3 0x539 JUMP JUMPDEST SWAP3 POP POP PUSH1 0x80 PUSH3 0x609 DUP9 DUP3 DUP10 ADD PUSH3 0x577 JUMP JUMPDEST SWAP2 POP POP SWAP3 SWAP6 POP SWAP3 SWAP6 SWAP1 SWAP4 POP JUMP JUMPDEST PUSH3 0x621 DUP2 PUSH3 0x477 JUMP JUMPDEST DUP3 MSTORE POP POP JUMP JUMPDEST PUSH1 0x0 PUSH1 0x20 DUP3 ADD SWAP1 POP PUSH3 0x63E PUSH1 0x0 DUP4 ADD DUP5 PUSH3 0x616 JUMP JUMPDEST SWAP3 SWAP2 POP POP JUMP JUMPDEST PUSH1 0x0 PUSH32 0xFFFFFFFF00000000000000000000000000000000000000000000000000000000 DUP3 AND SWAP1 POP SWAP2 SWAP1 POP JUMP JUMPDEST PUSH3 0x67B DUP2 PUSH3 0x644 JUMP JUMPDEST DUP3 MSTORE POP POP JUMP JUMPDEST PUSH1 0x0 PUSH1 0x20 DUP3 ADD SWAP1 POP PUSH3 0x698 PUSH1 0x0 DUP4 ADD DUP5 PUSH3 0x670 JUMP JUMPDEST SWAP3 SWAP2 POP POP JUMP JUMPDEST PUSH1 0x0 DUP2 ISZERO ISZERO SWAP1 POP SWAP2 SWAP1 POP JUMP JUMPDEST PUSH3 0x6B5 DUP2 PUSH3 0x69E JUMP JUMPDEST DUP2 EQ PUSH3 0x6C1 JUMPI PUSH1 0x0 DUP1 REVERT JUMPDEST POP JUMP JUMPDEST PUSH1 0x0 DUP2 MLOAD SWAP1 POP PUSH3 0x6D5 DUP2 PUSH3 0x6AA JUMP JUMPDEST SWAP3 SWAP2 POP POP JUMP JUMPDEST PUSH1 0x0 PUSH1 0x20 DUP3 DUP5 SUB SLT ISZERO PUSH3 0x6F4 JUMPI PUSH3 0x6F3 PUSH3 0x452 JUMP JUMPDEST JUMPDEST PUSH1 0x0 PUSH3 0x704 DUP5 DUP3 DUP6 ADD PUSH3 0x6C4 JUMP JUMPDEST SWAP2 POP POP SWAP3 SWAP2 POP POP JUMP JUMPDEST PUSH32 0x4E487B7100000000000000000000000000000000000000000000000000000000 PUSH1 0x0 MSTORE PUSH1 0x21 PUSH1 0x4 MSTORE PUSH1 0x24 PUSH1 0x0 REVERT JUMPDEST PUSH1 0x0 PUSH1 0x20 DUP3 DUP5 SUB SLT ISZERO PUSH3 0x755 JUMPI PUSH3 0x754 PUSH3 0x452 JUMP JUMPDEST JUMPDEST PUSH1 0x0 PUSH3 0x765 DUP5 DUP3 DUP6 ADD PUSH3 0x539 JUMP JUMPDEST SWAP2 POP POP SWAP3 SWAP2 POP POP JUMP JUMPDEST PUSH2 0x3275 DUP1 PUSH3 0x77E PUSH1 0x0 CODECOPY PUSH1 0x0 RETURN INVALID PUSH1 0x80 PUSH1 0x40 MSTORE CALLVALUE DUP1 ISZERO PUSH2 0x10 JUMPI PUSH1 0x0 DUP1 REVERT JUMPDEST POP PUSH1 0x4 CALLDATASIZE LT PUSH2 0x1DA JUMPI PUSH1 0x0 CALLDATALOAD PUSH1 0xE0 SHR DUP1 PUSH4 0x7FB8B61E GT PUSH2 0x104 JUMPI DUP1 PUSH4 0xCB156A4A GT PUSH2 0xA2 JUMPI DUP1 PUSH4 0xDFB40DED GT PUSH2 0x71 JUMPI DUP1 PUSH4 0xDFB40DED EQ PUSH2 0x5B7 JUMPI DUP1 PUSH4 0xE89075C7 EQ PUSH2 0x5D3 JUMPI DUP1 PUSH4 0xF2FDE38B EQ PUSH2 0x5EF JUMPI DUP1 PUSH4 0xFD165A73 EQ PUSH2 0x60B JUMPI PUSH2 0x1DA JUMP JUMPDEST DUP1 PUSH4 0xCB156A4A EQ PUSH2 0x51D JUMPI DUP1 PUSH4 0xCEDD3A0E EQ PUSH2 0x53B JUMPI DUP1 PUSH4 0xD50B2843 EQ PUSH2 0x56B JUMPI DUP1 PUSH4 0xD8CF3528 EQ PUSH2 0x587 JUMPI PUSH2 0x1DA JUMP JUMPDEST DUP1 PUSH4 0x8DA5CB5B GT PUSH2 0xDE JUMPI DUP1 PUSH4 0x8DA5CB5B EQ PUSH2 0x495 JUMPI DUP1 PUSH4 0x99882CDB EQ PUSH2 0x4B3 JUMPI DUP1 PUSH4 0xAE844F74 EQ PUSH2 0x4CF JUMPI DUP1 PUSH4 0xBE142264 EQ PUSH2 0x4FF JUMPI PUSH2 0x1DA JUMP JUMPDEST DUP1 PUSH4 0x7FB8B61E EQ PUSH2 0x42B JUMPI DUP1 PUSH4 0x87C5CBBB EQ PUSH2 0x45B JUMPI DUP1 PUSH4 0x8C7ECF8D EQ PUSH2 0x479 JUMPI PUSH2 0x1DA JUMP JUMPDEST DUP1 PUSH4 0x32ED5B12 GT PUSH2 0x17C JUMPI DUP1 PUSH4 0x4CC74011 GT PUSH2 0x14B JUMPI DUP1 PUSH4 0x4CC74011 EQ PUSH2 0x391 JUMPI DUP1 PUSH4 0x58970CA8 EQ PUSH2 0x3C1 JUMPI DUP1 PUSH4 0x5B4654A9 EQ PUSH2 0x3F1 JUMPI DUP1 PUSH4 0x715018A6 EQ PUSH2 0x421 JUMPI PUSH2 0x1DA JUMP JUMPDEST DUP1 PUSH4 0x32ED5B12 EQ PUSH2 0x2E3 JUMPI DUP1 PUSH4 0x37376CA8 EQ PUSH2 0x315 JUMPI DUP1 PUSH4 0x40A27ABC EQ PUSH2 0x331 JUMPI DUP1 PUSH4 0x4410A944 EQ PUSH2 0x361 JUMPI PUSH2 0x1DA JUMP JUMPDEST DUP1 PUSH4 0x12007FC9 GT PUSH2 0x1B8 JUMPI DUP1 PUSH4 0x12007FC9 EQ PUSH2 0x24B JUMPI DUP1 PUSH4 0x141D51CB EQ PUSH2 0x27B JUMPI DUP1 PUSH4 0x20CEA51A EQ PUSH2 0x297 JUMPI DUP1 PUSH4 0x272D16F2 EQ PUSH2 0x2B3 JUMPI PUSH2 0x1DA JUMP JUMPDEST DUP1 PUSH4 0xC2EE55E EQ PUSH2 0x1DF JUMPI DUP1 PUSH4 0xCFE734D EQ PUSH2 0x1FD JUMPI DUP1 PUSH4 0xEE572FD EQ PUSH2 0x22D JUMPI JUMPDEST PUSH1 0x0 DUP1 REVERT JUMPDEST PUSH2 0x1E7 PUSH2 0x63B JUMP JUMPDEST PUSH1 0x40 MLOAD PUSH2 0x1F4 SWAP2 SWAP1 PUSH2 0x2441 JUMP JUMPDEST PUSH1 0x40 MLOAD DUP1 SWAP2 SUB SWAP1 RETURN JUMPDEST PUSH2 0x217 PUSH1 0x4 DUP1 CALLDATASIZE SUB DUP2 ADD SWAP1 PUSH2 0x212 SWAP2 SWAP1 PUSH2 0x249C JUMP JUMPDEST PUSH2 0x641 JUMP JUMPDEST PUSH1 0x40 MLOAD PUSH2 0x224 SWAP2 SWAP1 PUSH2 0x2540 JUMP JUMPDEST PUSH1 0x40 MLOAD DUP1 SWAP2 SUB SWAP1 RETURN JUMPDEST PUSH2 0x235 PUSH2 0x660 JUMP JUMPDEST PUSH1 0x40 MLOAD PUSH2 0x242 SWAP2 SWAP1 PUSH2 0x257E JUMP JUMPDEST PUSH1 0x40 MLOAD DUP1 SWAP2 SUB SWAP1 RETURN JUMPDEST PUSH2 0x265 PUSH1 0x4 DUP1 CALLDATASIZE SUB DUP2 ADD SWAP1 PUSH2 0x260 SWAP2 SWAP1 PUSH2 0x249C JUMP JUMPDEST PUSH2 0x67A JUMP JUMPDEST PUSH1 0x40 MLOAD PUSH2 0x272 SWAP2 SWAP1 PUSH2 0x25B4 JUMP JUMPDEST PUSH1 0x40 MLOAD DUP1 SWAP2 SUB SWAP1 RETURN JUMPDEST PUSH2 0x295 PUSH1 0x4 DUP1 CALLDATASIZE SUB DUP2 ADD SWAP1 PUSH2 0x290 SWAP2 SWAP1 PUSH2 0x266D JUMP JUMPDEST PUSH2 0x699 JUMP JUMPDEST STOP JUMPDEST PUSH2 0x2B1 PUSH1 0x4 DUP1 CALLDATASIZE SUB DUP2 ADD SWAP1 PUSH2 0x2AC SWAP2 SWAP1 PUSH2 0x26F9 JUMP JUMPDEST PUSH2 0x6E3 JUMP JUMPDEST STOP JUMPDEST PUSH2 0x2CD PUSH1 0x4 DUP1 CALLDATASIZE SUB DUP2 ADD SWAP1 PUSH2 0x2C8 SWAP2 SWAP1 PUSH2 0x249C JUMP JUMPDEST PUSH2 0x6F5 JUMP JUMPDEST PUSH1 0x40 MLOAD PUSH2 0x2DA SWAP2 SWAP1 PUSH2 0x25B4 JUMP JUMPDEST PUSH1 0x40 MLOAD DUP1 SWAP2 SUB SWAP1 RETURN JUMPDEST PUSH2 0x2FD PUSH1 0x4 DUP1 CALLDATASIZE SUB DUP2 ADD SWAP1 PUSH2 0x2F8 SWAP2 SWAP1 PUSH2 0x249C JUMP JUMPDEST PUSH2 0x714 JUMP JUMPDEST PUSH1 0x40 MLOAD PUSH2 0x30C SWAP4 SWAP3 SWAP2 SWAP1 PUSH2 0x2726 JUMP JUMPDEST PUSH1 0x40 MLOAD DUP1 SWAP2 SUB SWAP1 RETURN JUMPDEST PUSH2 0x32F PUSH1 0x4 DUP1 CALLDATASIZE SUB DUP2 ADD SWAP1 PUSH2 0x32A SWAP2 SWAP1 PUSH2 0x249C JUMP JUMPDEST PUSH2 0x73E JUMP JUMPDEST STOP JUMPDEST PUSH2 0x34B PUSH1 0x4 DUP1 CALLDATASIZE SUB DUP2 ADD SWAP1 PUSH2 0x346 SWAP2 SWAP1 PUSH2 0x249C JUMP JUMPDEST PUSH2 0x7E9 JUMP JUMPDEST PUSH1 0x40 MLOAD PUSH2 0x358 SWAP2 SWAP1 PUSH2 0x25B4 JUMP JUMPDEST PUSH1 0x40 MLOAD DUP1 SWAP2 SUB SWAP1 RETURN JUMPDEST PUSH2 0x37B PUSH1 0x4 DUP1 CALLDATASIZE SUB DUP2 ADD SWAP1 PUSH2 0x376 SWAP2 SWAP1 PUSH2 0x249C JUMP JUMPDEST PUSH2 0x808 JUMP JUMPDEST PUSH1 0x40 MLOAD PUSH2 0x388 SWAP2 SWAP1 PUSH2 0x25B4 JUMP JUMPDEST PUSH1 0x40 MLOAD DUP1 SWAP2 SUB SWAP1 RETURN JUMPDEST PUSH2 0x3AB PUSH1 0x4 DUP1 CALLDATASIZE SUB DUP2 ADD SWAP1 PUSH2 0x3A6 SWAP2 SWAP1 PUSH2 0x27BB JUMP JUMPDEST PUSH2 0x831 JUMP JUMPDEST PUSH1 0x40 MLOAD PUSH2 0x3B8 SWAP2 SWAP1 PUSH2 0x28C9 JUMP JUMPDEST PUSH1 0x40 MLOAD DUP1 SWAP2 SUB SWAP1 RETURN JUMPDEST PUSH2 0x3DB PUSH1 0x4 DUP1 CALLDATASIZE SUB DUP2 ADD SWAP1 PUSH2 0x3D6 SWAP2 SWAP1 PUSH2 0x28E4 JUMP JUMPDEST PUSH2 0x88F JUMP JUMPDEST PUSH1 0x40 MLOAD PUSH2 0x3E8 SWAP2 SWAP1 PUSH2 0x2441 JUMP JUMPDEST PUSH1 0x40 MLOAD DUP1 SWAP2 SUB SWAP1 RETURN JUMPDEST PUSH2 0x40B PUSH1 0x4 DUP1 CALLDATASIZE SUB DUP2 ADD SWAP1 PUSH2 0x406 SWAP2 SWAP1 PUSH2 0x2935 JUMP JUMPDEST PUSH2 0xA12 JUMP JUMPDEST PUSH1 0x40 MLOAD PUSH2 0x418 SWAP2 SWAP1 PUSH2 0x299F JUMP JUMPDEST PUSH1 0x40 MLOAD DUP1 SWAP2 SUB SWAP1 RETURN JUMPDEST PUSH2 0x429 PUSH2 0xA7D JUMP JUMPDEST STOP JUMPDEST PUSH2 0x445 PUSH1 0x4 DUP1 CALLDATASIZE SUB DUP2 ADD SWAP1 PUSH2 0x440 SWAP2 SWAP1 PUSH2 0x28E4 JUMP JUMPDEST PUSH2 0xA91 JUMP JUMPDEST PUSH1 0x40 MLOAD PUSH2 0x452 SWAP2 SWAP1 PUSH2 0x29C9 JUMP JUMPDEST PUSH1 0x40 MLOAD DUP1 SWAP2 SUB SWAP1 RETURN JUMPDEST PUSH2 0x463 PUSH2 0xAE5 JUMP JUMPDEST PUSH1 0x40 MLOAD PUSH2 0x470 SWAP2 SWAP1 PUSH2 0x29F3 JUMP JUMPDEST PUSH1 0x40 MLOAD DUP1 SWAP2 SUB SWAP1 RETURN JUMPDEST PUSH2 0x493 PUSH1 0x4 DUP1 CALLDATASIZE SUB DUP2 ADD SWAP1 PUSH2 0x48E SWAP2 SWAP1 PUSH2 0x2A4C JUMP JUMPDEST PUSH2 0xAF8 JUMP JUMPDEST STOP JUMPDEST PUSH2 0x49D PUSH2 0xB0C JUMP JUMPDEST PUSH1 0x40 MLOAD PUSH2 0x4AA SWAP2 SWAP1 PUSH2 0x2A88 JUMP JUMPDEST PUSH1 0x40 MLOAD DUP1 SWAP2 SUB SWAP1 RETURN JUMPDEST PUSH2 0x4CD PUSH1 0x4 DUP1 CALLDATASIZE SUB DUP2 ADD SWAP1 PUSH2 0x4C8 SWAP2 SWAP1 PUSH2 0x249C JUMP JUMPDEST PUSH2 0xB35 JUMP JUMPDEST STOP JUMPDEST PUSH2 0x4E9 PUSH1 0x4 DUP1 CALLDATASIZE SUB DUP2 ADD SWAP1 PUSH2 0x4E4 SWAP2 SWAP1 PUSH2 0x249C JUMP JUMPDEST PUSH2 0xB9A JUMP JUMPDEST PUSH1 0x40 MLOAD PUSH2 0x4F6 SWAP2 SWAP1 PUSH2 0x2AEB JUMP JUMPDEST PUSH1 0x40 MLOAD DUP1 SWAP2 SUB SWAP1 RETURN JUMPDEST PUSH2 0x507 PUSH2 0xC5D JUMP JUMPDEST PUSH1 0x40 MLOAD PUSH2 0x514 SWAP2 SWAP1 PUSH2 0x2A88 JUMP JUMPDEST PUSH1 0x40 MLOAD DUP1 SWAP2 SUB SWAP1 RETURN JUMPDEST PUSH2 0x525 PUSH2 0xC83 JUMP JUMPDEST PUSH1 0x40 MLOAD PUSH2 0x532 SWAP2 SWAP1 PUSH2 0x257E JUMP JUMPDEST PUSH1 0x40 MLOAD DUP1 SWAP2 SUB SWAP1 RETURN JUMPDEST PUSH2 0x555 PUSH1 0x4 DUP1 CALLDATASIZE SUB DUP2 ADD SWAP1 PUSH2 0x550 SWAP2 SWAP1 PUSH2 0x249C JUMP JUMPDEST PUSH2 0xC9D JUMP JUMPDEST PUSH1 0x40 MLOAD PUSH2 0x562 SWAP2 SWAP1 PUSH2 0x25B4 JUMP JUMPDEST PUSH1 0x40 MLOAD DUP1 SWAP2 SUB SWAP1 RETURN JUMPDEST PUSH2 0x585 PUSH1 0x4 DUP1 CALLDATASIZE SUB DUP2 ADD SWAP1 PUSH2 0x580 SWAP2 SWAP1 PUSH2 0x2B2B JUMP JUMPDEST PUSH2 0xCC6 JUMP JUMPDEST STOP JUMPDEST PUSH2 0x5A1 PUSH1 0x4 DUP1 CALLDATASIZE SUB DUP2 ADD SWAP1 PUSH2 0x59C SWAP2 SWAP1 PUSH2 0x249C JUMP JUMPDEST PUSH2 0xD07 JUMP JUMPDEST PUSH1 0x40 MLOAD PUSH2 0x5AE SWAP2 SWAP1 PUSH2 0x25B4 JUMP JUMPDEST PUSH1 0x40 MLOAD DUP1 SWAP2 SUB SWAP1 RETURN JUMPDEST PUSH2 0x5D1 PUSH1 0x4 DUP1 CALLDATASIZE SUB DUP2 ADD SWAP1 PUSH2 0x5CC SWAP2 SWAP1 PUSH2 0x2BCB JUMP JUMPDEST PUSH2 0xD26 JUMP JUMPDEST STOP JUMPDEST PUSH2 0x5ED PUSH1 0x4 DUP1 CALLDATASIZE SUB DUP2 ADD SWAP1 PUSH2 0x5E8 SWAP2 SWAP1 PUSH2 0x2C0B JUMP JUMPDEST PUSH2 0xD84 JUMP JUMPDEST STOP JUMPDEST PUSH2 0x609 PUSH1 0x4 DUP1 CALLDATASIZE SUB DUP2 ADD SWAP1 PUSH2 0x604 SWAP2 SWAP1 PUSH2 0x28E4 JUMP JUMPDEST PUSH2 0xDAA JUMP JUMPDEST STOP JUMPDEST PUSH2 0x625 PUSH1 0x4 DUP1 CALLDATASIZE SUB DUP2 ADD SWAP1 PUSH2 0x620 SWAP2 SWAP1 PUSH2 0x2935 JUMP JUMPDEST PUSH2 0xE30 JUMP JUMPDEST PUSH1 0x40 MLOAD PUSH2 0x632 SWAP2 SWAP1 PUSH2 0x25B4 JUMP JUMPDEST PUSH1 0x40 MLOAD DUP1 SWAP2 SUB SWAP1 RETURN JUMPDEST PUSH1 0x2 SLOAD DUP2 JUMP JUMPDEST PUSH1 0x0 DUP1 PUSH2 0x64D DUP4 PUSH2 0x104A JUMP JUMPDEST SWAP1 POP PUSH2 0x658 DUP2 PUSH2 0x10AA JUMP JUMPDEST SWAP2 POP POP SWAP2 SWAP1 POP JUMP JUMPDEST PUSH1 0x1 PUSH1 0x0 SWAP1 SLOAD SWAP1 PUSH2 0x100 EXP SWAP1 DIV PUSH8 0xFFFFFFFFFFFFFFFF AND DUP2 JUMP JUMPDEST PUSH1 0x0 DUP1 PUSH2 0x686 DUP4 PUSH2 0x104A JUMP JUMPDEST SWAP1 POP PUSH2 0x691 DUP2 PUSH2 0x10F7 JUMP JUMPDEST SWAP2 POP POP SWAP2 SWAP1 POP JUMP JUMPDEST PUSH2 0x6A1 PUSH2 0x1137 JUMP JUMPDEST DUP3 PUSH1 0xFF AND PUSH32 0x294D62780E868235E85AEE4277A92857D52A196987E2A5BBB9FFFE4F08B4567A DUP4 DUP4 PUSH1 0x40 MLOAD PUSH2 0x6D6 SWAP3 SWAP2 SWAP1 PUSH2 0x2C96 JUMP JUMPDEST PUSH1 0x40 MLOAD DUP1 SWAP2 SUB SWAP1 LOG2 POP POP POP JUMP JUMPDEST PUSH2 0x6EB PUSH2 0x1137 JUMP JUMPDEST DUP1 PUSH1 0x2 DUP2 SWAP1 SSTORE POP POP JUMP JUMPDEST PUSH1 0x0 DUP1 PUSH2 0x701 DUP4 PUSH2 0x104A JUMP JUMPDEST SWAP1 POP PUSH2 0x70C DUP2 PUSH2 0x11BE JUMP JUMPDEST SWAP2 POP POP SWAP2 SWAP1 POP JUMP JUMPDEST PUSH1 0x4 PUSH1 0x20 MSTORE DUP1 PUSH1 0x0 MSTORE PUSH1 0x40 PUSH1 0x0 KECCAK256 PUSH1 0x0 SWAP2 POP SWAP1 POP DUP1 PUSH1 0x0 ADD SLOAD SWAP1 DUP1 PUSH1 0x1 ADD SLOAD SWAP1 DUP1 PUSH1 0x2 ADD SLOAD SWAP1 POP DUP4 JUMP JUMPDEST PUSH2 0x746 PUSH2 0x1137 JUMP JUMPDEST PUSH2 0x74F DUP2 PUSH2 0x808 JUMP JUMPDEST ISZERO PUSH2 0x7B4 JUMPI PUSH1 0x4 PUSH1 0x0 DUP3 DUP2 MSTORE PUSH1 0x20 ADD SWAP1 DUP2 MSTORE PUSH1 0x20 ADD PUSH1 0x0 KECCAK256 PUSH1 0x0 DUP1 DUP3 ADD PUSH1 0x0 SWAP1 SSTORE PUSH1 0x1 DUP3 ADD PUSH1 0x0 SWAP1 SSTORE PUSH1 0x2 DUP3 ADD PUSH1 0x0 SWAP1 SSTORE POP POP DUP1 PUSH32 0x88AE8321C96CEE88D802409F3677F889D8A6743C4631B069FE600A3A9B07E020 PUSH1 0x40 MLOAD PUSH1 0x40 MLOAD DUP1 SWAP2 SUB SWAP1 LOG2 PUSH2 0x7E6 JUMP JUMPDEST PUSH1 0x40 MLOAD PUSH32 0xD9C78E0200000000000000000000000000000000000000000000000000000000 DUP2 MSTORE PUSH1 0x4 ADD PUSH1 0x40 MLOAD DUP1 SWAP2 SUB SWAP1 REVERT JUMPDEST POP JUMP JUMPDEST PUSH1 0x0 DUP1 PUSH2 0x7F5 DUP4 PUSH2 0x104A JUMP JUMPDEST SWAP1 POP PUSH2 0x800 DUP2 PUSH2 0x124B JUMP JUMPDEST SWAP2 POP POP SWAP2 SWAP1 POP JUMP JUMPDEST PUSH1 0x0 DUP1 PUSH1 0x4 PUSH1 0x0 DUP5 DUP2 MSTORE PUSH1 0x20 ADD SWAP1 DUP2 MSTORE PUSH1 0x20 ADD PUSH1 0x0 KECCAK256 SWAP1 POP PUSH2 0x829 DUP2 PUSH2 0x12B8 JUMP JUMPDEST SWAP2 POP POP SWAP2 SWAP1 POP JUMP JUMPDEST PUSH2 0x839 PUSH2 0x23EA JUMP JUMPDEST PUSH1 0x0 PUSH1 0x5 PUSH1 0x0 DUP5 PUSH20 0xFFFFFFFFFFFFFFFFFFFFFFFFFFFFFFFFFFFFFFFF AND PUSH20 0xFFFFFFFFFFFFFFFFFFFFFFFFFFFFFFFFFFFFFFFF AND DUP2 MSTORE PUSH1 0x20 ADD SWAP1 DUP2 MSTORE PUSH1 0x20 ADD PUSH1 0x0 KECCAK256 SWAP1 POP PUSH2 0x886 DUP2 DUP6 PUSH2 0x12C9 JUMP JUMPDEST SWAP2 POP POP SWAP3 SWAP2 POP POP JUMP JUMPDEST PUSH1 0x0 DUP1 PUSH1 0x1 DUP2 GT ISZERO PUSH2 0x8A4 JUMPI PUSH2 0x8A3 PUSH2 0x24C9 JUMP JUMPDEST JUMPDEST PUSH1 0x3 PUSH1 0x14 SWAP1 SLOAD SWAP1 PUSH2 0x100 EXP SWAP1 DIV PUSH1 0xFF AND PUSH1 0x1 DUP2 GT ISZERO PUSH2 0x8C6 JUMPI PUSH2 0x8C5 PUSH2 0x24C9 JUMP JUMPDEST JUMPDEST SUB PUSH2 0x96E JUMPI PUSH1 0x3 PUSH1 0x0 SWAP1 SLOAD SWAP1 PUSH2 0x100 EXP SWAP1 DIV PUSH20 0xFFFFFFFFFFFFFFFFFFFFFFFFFFFFFFFFFFFFFFFF AND PUSH20 0xFFFFFFFFFFFFFFFFFFFFFFFFFFFFFFFFFFFFFFFF AND PUSH4 0x58970CA8 DUP4 PUSH1 0x40 MLOAD DUP3 PUSH4 0xFFFFFFFF AND PUSH1 0xE0 SHL DUP2 MSTORE PUSH1 0x4 ADD PUSH2 0x926 SWAP2 SWAP1 PUSH2 0x2A88 JUMP JUMPDEST PUSH1 0x20 PUSH1 0x40 MLOAD DUP1 DUP4 SUB DUP2 DUP7 GAS STATICCALL ISZERO DUP1 ISZERO PUSH2 0x943 JUMPI RETURNDATASIZE PUSH1 0x0 DUP1 RETURNDATACOPY RETURNDATASIZE PUSH1 0x0 REVERT JUMPDEST POP POP POP POP PUSH1 0x40 MLOAD RETURNDATASIZE PUSH1 0x1F NOT PUSH1 0x1F DUP3 ADD AND DUP3 ADD DUP1 PUSH1 0x40 MSTORE POP DUP2 ADD SWAP1 PUSH2 0x967 SWAP2 SWAP1 PUSH2 0x2CCF JUMP JUMPDEST SWAP1 POP PUSH2 0xA0D JUMP JUMPDEST PUSH1 0x3 PUSH1 0x0 SWAP1 SLOAD SWAP1 PUSH2 0x100 EXP SWAP1 DIV PUSH20 0xFFFFFFFFFFFFFFFFFFFFFFFFFFFFFFFFFFFFFFFF AND PUSH20 0xFFFFFFFFFFFFFFFFFFFFFFFFFFFFFFFFFFFFFFFF AND PUSH4 0x70A08231 DUP4 PUSH1 0x40 MLOAD DUP3 PUSH4 0xFFFFFFFF AND PUSH1 0xE0 SHL DUP2 MSTORE PUSH1 0x4 ADD PUSH2 0x9C9 SWAP2 SWAP1 PUSH2 0x2A88 JUMP JUMPDEST PUSH1 0x20 PUSH1 0x40 MLOAD DUP1 DUP4 SUB DUP2 DUP7 GAS STATICCALL ISZERO DUP1 ISZERO PUSH2 0x9E6 JUMPI RETURNDATASIZE PUSH1 0x0 DUP1 RETURNDATACOPY RETURNDATASIZE PUSH1 0x0 REVERT JUMPDEST POP POP POP POP PUSH1 0x40 MLOAD RETURNDATASIZE PUSH1 0x1F NOT PUSH1 0x1F DUP3 ADD AND DUP3 ADD DUP1 PUSH1 0x40 MSTORE POP DUP2 ADD SWAP1 PUSH2 0xA0A SWAP2 SWAP1 PUSH2 0x2CCF JUMP JUMPDEST SWAP1 POP JUMPDEST SWAP2 SWAP1 POP JUMP JUMPDEST PUSH1 0x0 DUP1 DUP3 PUSH1 0x0 ADD PUSH1 0x20 DUP2 ADD SWAP1 PUSH2 0xA28 SWAP2 SWAP1 PUSH2 0x28E4 JUMP JUMPDEST DUP4 DUP1 PUSH1 0x20 ADD SWAP1 PUSH2 0xA38 SWAP2 SWAP1 PUSH2 0x2D0B JUMP JUMPDEST DUP6 DUP1 PUSH1 0x40 ADD SWAP1 PUSH2 0xA48 SWAP2 SWAP1 PUSH2 0x2D0B JUMP JUMPDEST PUSH1 0x40 MLOAD PUSH1 0x20 ADD PUSH2 0xA5C SWAP6 SWAP5 SWAP4 SWAP3 SWAP2 SWAP1 PUSH2 0x2DE6 JUMP JUMPDEST PUSH1 0x40 MLOAD PUSH1 0x20 DUP2 DUP4 SUB SUB DUP2 MSTORE SWAP1 PUSH1 0x40 MSTORE SWAP1 POP DUP1 DUP1 MLOAD SWAP1 PUSH1 0x20 ADD KECCAK256 SWAP2 POP POP SWAP2 SWAP1 POP JUMP JUMPDEST PUSH2 0xA85 PUSH2 0x1137 JUMP JUMPDEST PUSH2 0xA8F PUSH1 0x0 PUSH2 0x1348 JUMP JUMPDEST JUMP JUMPDEST PUSH1 0x0 DUP1 PUSH2 0xA9D DUP4 PUSH2 0x88F JUMP JUMPDEST SWAP1 POP PUSH1 0x0 PUSH2 0xAD9 DUP3 PUSH1 0x1 PUSH16 0xFFFFFFFFFFFFFFFFFFFFFFFFFFFFFFFF PUSH2 0xAC2 SWAP2 SWAP1 PUSH2 0x2E4E JUMP JUMPDEST PUSH16 0xFFFFFFFFFFFFFFFFFFFFFFFFFFFFFFFF AND PUSH2 0x140C JUMP JUMPDEST SWAP1 POP DUP1 SWAP3 POP POP POP SWAP2 SWAP1 POP JUMP JUMPDEST PUSH1 0x3 PUSH1 0x15 SWAP1 SLOAD SWAP1 PUSH2 0x100 EXP SWAP1 DIV PUSH1 0xFF AND DUP2 JUMP JUMPDEST PUSH2 0xB00 PUSH2 0x1137 JUMP JUMPDEST PUSH2 0xB09 DUP2 PUSH2 0x1425 JUMP JUMPDEST POP JUMP JUMPDEST PUSH1 0x0 DUP1 PUSH1 0x0 SWAP1 SLOAD SWAP1 PUSH2 0x100 EXP SWAP1 DIV PUSH20 0xFFFFFFFFFFFFFFFFFFFFFFFFFFFFFFFFFFFFFFFF AND SWAP1 POP SWAP1 JUMP JUMPDEST PUSH1 0x0 PUSH1 0x4 PUSH1 0x0 DUP4 DUP2 MSTORE PUSH1 0x20 ADD SWAP1 DUP2 MSTORE PUSH1 0x20 ADD PUSH1 0x0 KECCAK256 SWAP1 POP PUSH2 0xB55 DUP2 PUSH2 0x12B8 JUMP JUMPDEST ISZERO PUSH2 0xB8C JUMPI PUSH1 0x40 MLOAD PUSH32 0xB8C39E6200000000000000000000000000000000000000000000000000000000 DUP2 MSTORE PUSH1 0x4 ADD PUSH1 0x40 MLOAD DUP1 SWAP2 SUB SWAP1 REVERT JUMPDEST PUSH2 0xB96 DUP3 DUP3 PUSH2 0x1650 JUMP JUMPDEST POP POP JUMP JUMPDEST PUSH1 0x0 DUP1 PUSH2 0xBA6 DUP4 PUSH2 0x104A JUMP JUMPDEST SWAP1 POP PUSH1 0x0 PUSH2 0xBB3 DUP3 PUSH2 0x10AA JUMP JUMPDEST SWAP1 POP PUSH1 0x3 DUP1 DUP2 GT ISZERO PUSH2 0xBC8 JUMPI PUSH2 0xBC7 PUSH2 0x24C9 JUMP JUMPDEST JUMPDEST DUP2 PUSH1 0x3 DUP2 GT ISZERO PUSH2 0xBDB JUMPI PUSH2 0xBDA PUSH2 0x24C9 JUMP JUMPDEST JUMPDEST SUB PUSH2 0xBEB JUMPI PUSH1 0x3 SWAP3 POP POP POP PUSH2 0xC58 JUMP JUMPDEST PUSH1 0x2 PUSH1 0x3 DUP2 GT ISZERO PUSH2 0xBFF JUMPI PUSH2 0xBFE PUSH2 0x24C9 JUMP JUMPDEST JUMPDEST DUP2 PUSH1 0x3 DUP2 GT ISZERO PUSH2 0xC12 JUMPI PUSH2 0xC11 PUSH2 0x24C9 JUMP JUMPDEST JUMPDEST SUB PUSH2 0xC22 JUMPI PUSH1 0x2 SWAP3 POP POP POP PUSH2 0xC58 JUMP JUMPDEST PUSH2 0xC2B DUP3 PUSH2 0x10F7 JUMP JUMPDEST ISZERO PUSH2 0xC3B JUMPI PUSH1 0x0 SWAP3 POP POP POP PUSH2 0xC58 JUMP JUMPDEST PUSH2 0xC44 DUP3 PUSH2 0x11BE JUMP JUMPDEST PUSH2 0xC51 JUMPI PUSH2 0xC50 PUSH2 0x2E92 JUMP JUMPDEST JUMPDEST PUSH1 0x1 SWAP3 POP POP POP JUMPDEST SWAP2 SWAP1 POP JUMP JUMPDEST PUSH1 0x3 PUSH1 0x0 SWAP1 SLOAD SWAP1 PUSH2 0x100 EXP SWAP1 DIV PUSH20 0xFFFFFFFFFFFFFFFFFFFFFFFFFFFFFFFFFFFFFFFF AND DUP2 JUMP JUMPDEST PUSH1 0x0 PUSH1 0x14 SWAP1 SLOAD SWAP1 PUSH2 0x100 EXP SWAP1 DIV PUSH8 0xFFFFFFFFFFFFFFFF AND DUP2 JUMP JUMPDEST PUSH1 0x0 DUP1 PUSH1 0x4 PUSH1 0x0 DUP5 DUP2 MSTORE PUSH1 0x20 ADD SWAP1 DUP2 MSTORE PUSH1 0x20 ADD PUSH1 0x0 KECCAK256 SWAP1 POP PUSH2 0xCBE DUP2 PUSH2 0x16AF JUMP JUMPDEST SWAP2 POP POP SWAP2 SWAP1 POP JUMP JUMPDEST PUSH1 0x0 PUSH1 0x4 PUSH1 0x0 DUP7 DUP2 MSTORE PUSH1 0x20 ADD SWAP1 DUP2 MSTORE PUSH1 0x20 ADD PUSH1 0x0 KECCAK256 SWAP1 POP PUSH2 0xCE6 DUP2 PUSH2 0x12B8 JUMP JUMPDEST PUSH2 0xCF5 JUMPI PUSH2 0xCF4 DUP6 DUP3 PUSH2 0x1650 JUMP JUMPDEST JUMPDEST PUSH2 0xD00 DUP2 DUP7 DUP7 PUSH2 0x16FE JUMP JUMPDEST POP POP POP POP POP JUMP JUMPDEST PUSH1 0x0 DUP1 PUSH2 0xD13 DUP4 PUSH2 0x104A JUMP JUMPDEST SWAP1 POP PUSH2 0xD1E DUP2 PUSH2 0x1A35 JUMP JUMPDEST SWAP2 POP POP SWAP2 SWAP1 POP JUMP JUMPDEST PUSH2 0xD2E PUSH2 0x1137 JUMP JUMPDEST DUP2 PUSH1 0x0 PUSH1 0x14 PUSH2 0x100 EXP DUP2 SLOAD DUP2 PUSH8 0xFFFFFFFFFFFFFFFF MUL NOT AND SWAP1 DUP4 PUSH8 0xFFFFFFFFFFFFFFFF AND MUL OR SWAP1 SSTORE POP DUP1 PUSH1 0x1 PUSH1 0x0 PUSH2 0x100 EXP DUP2 SLOAD DUP2 PUSH8 0xFFFFFFFFFFFFFFFF MUL NOT AND SWAP1 DUP4 PUSH8 0xFFFFFFFFFFFFFFFF AND MUL OR SWAP1 SSTORE POP POP POP JUMP JUMPDEST PUSH2 0xD8C PUSH2 0x1137 JUMP JUMPDEST DUP1 PUSH1 0x3 PUSH1 0x15 PUSH2 0x100 EXP DUP2 SLOAD DUP2 PUSH1 0xFF MUL NOT AND SWAP1 DUP4 PUSH1 0xFF AND MUL OR SWAP1 SSTORE POP POP JUMP JUMPDEST PUSH2 0xDB2 PUSH2 0x1137 JUMP JUMPDEST PUSH1 0x0 PUSH20 0xFFFFFFFFFFFFFFFFFFFFFFFFFFFFFFFFFFFFFFFF AND DUP2 PUSH20 0xFFFFFFFFFFFFFFFFFFFFFFFFFFFFFFFFFFFFFFFF AND SUB PUSH2 0xE24 JUMPI PUSH1 0x0 PUSH1 0x40 MLOAD PUSH32 0x1E4FBDF700000000000000000000000000000000000000000000000000000000 DUP2 MSTORE PUSH1 0x4 ADD PUSH2 0xE1B SWAP2 SWAP1 PUSH2 0x2A88 JUMP JUMPDEST PUSH1 0x40 MLOAD DUP1 SWAP2 SUB SWAP1 REVERT JUMPDEST PUSH2 0xE2D DUP2 PUSH2 0x1348 JUMP JUMPDEST POP JUMP JUMPDEST PUSH1 0x0 DUP1 PUSH2 0xE3C DUP4 PUSH2 0xA12 JUMP JUMPDEST SWAP1 POP PUSH1 0x0 PUSH2 0xE49 DUP3 PUSH2 0x104A JUMP JUMPDEST SWAP1 POP PUSH1 0x2 PUSH1 0x3 DUP2 GT ISZERO PUSH2 0xE5F JUMPI PUSH2 0xE5E PUSH2 0x24C9 JUMP JUMPDEST JUMPDEST PUSH2 0xE68 DUP3 PUSH2 0x10AA JUMP JUMPDEST PUSH1 0x3 DUP2 GT ISZERO PUSH2 0xE7A JUMPI PUSH2 0xE79 PUSH2 0x24C9 JUMP JUMPDEST JUMPDEST EQ PUSH2 0xEB1 JUMPI PUSH1 0x40 MLOAD PUSH32 0xC8C93BA300000000000000000000000000000000000000000000000000000000 DUP2 MSTORE PUSH1 0x4 ADD PUSH1 0x40 MLOAD DUP1 SWAP2 SUB SWAP1 REVERT JUMPDEST PUSH1 0x4 PUSH1 0x0 DUP4 DUP2 MSTORE PUSH1 0x20 ADD SWAP1 DUP2 MSTORE PUSH1 0x20 ADD PUSH1 0x0 KECCAK256 PUSH1 0x0 DUP1 DUP3 ADD PUSH1 0x0 SWAP1 SSTORE PUSH1 0x1 DUP3 ADD PUSH1 0x0 SWAP1 SSTORE PUSH1 0x2 DUP3 ADD PUSH1 0x0 SWAP1 SSTORE POP POP PUSH1 0x0 GAS SWAP1 POP PUSH1 0x0 DUP1 DUP7 PUSH1 0x0 ADD PUSH1 0x20 DUP2 ADD SWAP1 PUSH2 0xEFA SWAP2 SWAP1 PUSH2 0x28E4 JUMP JUMPDEST PUSH20 0xFFFFFFFFFFFFFFFFFFFFFFFFFFFFFFFFFFFFFFFF AND DUP8 DUP1 PUSH1 0x20 ADD SWAP1 PUSH2 0xF20 SWAP2 SWAP1 PUSH2 0x2D0B JUMP JUMPDEST PUSH1 0x40 MLOAD PUSH2 0xF2E SWAP3 SWAP2 SWAP1 PUSH2 0x2EC1 JUMP JUMPDEST PUSH1 0x0 PUSH1 0x40 MLOAD DUP1 DUP4 SUB DUP2 PUSH1 0x0 DUP7 GAS CALL SWAP2 POP POP RETURNDATASIZE DUP1 PUSH1 0x0 DUP2 EQ PUSH2 0xF6B JUMPI PUSH1 0x40 MLOAD SWAP2 POP PUSH1 0x1F NOT PUSH1 0x3F RETURNDATASIZE ADD AND DUP3 ADD PUSH1 0x40 MSTORE RETURNDATASIZE DUP3 MSTORE RETURNDATASIZE PUSH1 0x0 PUSH1 0x20 DUP5 ADD RETURNDATACOPY PUSH2 0xF70 JUMP JUMPDEST PUSH1 0x60 SWAP2 POP JUMPDEST POP SWAP2 POP SWAP2 POP DUP2 ISZERO PUSH2 0xFB8 JUMPI DUP5 PUSH32 0xDA66FCFE5711520A570CED34D4CDEBBE652FE74713BF2BC9DB4BA54357E5A96F DUP3 PUSH1 0x40 MLOAD PUSH2 0xFAB SWAP2 SWAP1 PUSH2 0x2F48 JUMP JUMPDEST PUSH1 0x40 MLOAD DUP1 SWAP2 SUB SWAP1 LOG2 PUSH2 0x103D JUMP JUMPDEST PUSH1 0x0 GAS SWAP1 POP PUSH1 0x40 DUP5 PUSH2 0xFCA SWAP2 SWAP1 PUSH2 0x2F99 JUMP JUMPDEST DUP2 LT ISZERO PUSH2 0x1003 JUMPI PUSH1 0x40 MLOAD PUSH32 0x77EBEF4D00000000000000000000000000000000000000000000000000000000 DUP2 MSTORE PUSH1 0x4 ADD PUSH1 0x40 MLOAD DUP1 SWAP2 SUB SWAP1 REVERT JUMPDEST DUP6 PUSH32 0xD255D8A333980D77AF4F9179384057DEF133983CB02DB3E1FDB70C4DC14102E8 DUP4 PUSH1 0x40 MLOAD PUSH2 0x1033 SWAP2 SWAP1 PUSH2 0x2F48 JUMP JUMPDEST PUSH1 0x40 MLOAD DUP1 SWAP2 SUB SWAP1 LOG2 POP JUMPDEST DUP2 SWAP6 POP POP POP POP POP POP SWAP2 SWAP1 POP JUMP JUMPDEST PUSH1 0x0 DUP1 PUSH1 0x4 PUSH1 0x0 DUP5 DUP2 MSTORE PUSH1 0x20 ADD SWAP1 DUP2 MSTORE PUSH1 0x20 ADD PUSH1 0x0 KECCAK256 SWAP1 POP PUSH2 0x106B DUP2 PUSH2 0x12B8 JUMP JUMPDEST PUSH2 0x10A1 JUMPI PUSH1 0x40 MLOAD PUSH32 0xD9C78E0200000000000000000000000000000000000000000000000000000000 DUP2 MSTORE PUSH1 0x4 ADD PUSH1 0x40 MLOAD DUP1 SWAP2 SUB SWAP1 REVERT JUMPDEST DUP1 SWAP2 POP POP SWAP2 SWAP1 POP JUMP JUMPDEST PUSH1 0x0 PUSH2 0x10B5 DUP3 PUSH2 0x1A96 JUMP JUMPDEST ISZERO PUSH2 0x10D8 JUMPI PUSH2 0x10C3 DUP3 PUSH2 0x1A35 JUMP JUMPDEST PUSH2 0x10CE JUMPI PUSH1 0x2 PUSH2 0x10D1 JUMP JUMPDEST PUSH1 0x0 JUMPDEST SWAP1 POP PUSH2 0x10F2 JUMP JUMPDEST PUSH2 0x10E1 DUP3 PUSH2 0x10F7 JUMP JUMPDEST PUSH2 0x10EC JUMPI PUSH1 0x3 PUSH2 0x10EF JUMP JUMPDEST PUSH1 0x1 JUMPDEST SWAP1 POP JUMPDEST SWAP2 SWAP1 POP JUMP JUMPDEST PUSH1 0x0 DUP1 DUP3 PUSH1 0x0 ADD SLOAD TIMESTAMP PUSH2 0x110A SWAP2 SWAP1 PUSH2 0x2FCA JUMP JUMPDEST SWAP1 POP PUSH1 0x0 PUSH1 0x14 SWAP1 SLOAD SWAP1 PUSH2 0x100 EXP SWAP1 DIV PUSH8 0xFFFFFFFFFFFFFFFF AND PUSH8 0xFFFFFFFFFFFFFFFF AND DUP2 LT SWAP2 POP POP SWAP2 SWAP1 POP JUMP JUMPDEST PUSH2 0x113F PUSH2 0x1AC8 JUMP JUMPDEST PUSH20 0xFFFFFFFFFFFFFFFFFFFFFFFFFFFFFFFFFFFFFFFF AND PUSH2 0x115D PUSH2 0xB0C JUMP JUMPDEST PUSH20 0xFFFFFFFFFFFFFFFFFFFFFFFFFFFFFFFFFFFFFFFF AND EQ PUSH2 0x11BC JUMPI PUSH2 0x1180 PUSH2 0x1AC8 JUMP JUMPDEST PUSH1 0x40 MLOAD PUSH32 0x118CDAA700000000000000000000000000000000000000000000000000000000 DUP2 MSTORE PUSH1 0x4 ADD PUSH2 0x11B3 SWAP2 SWAP1 PUSH2 0x2A88 JUMP JUMPDEST PUSH1 0x40 MLOAD DUP1 SWAP2 SUB SWAP1 REVERT JUMPDEST JUMP JUMPDEST PUSH1 0x0 DUP1 DUP3 PUSH1 0x0 ADD SLOAD TIMESTAMP PUSH2 0x11D1 SWAP2 SWAP1 PUSH2 0x2FCA JUMP JUMPDEST SWAP1 POP PUSH1 0x0 PUSH1 0x14 SWAP1 SLOAD SWAP1 PUSH2 0x100 EXP SWAP1 DIV PUSH8 0xFFFFFFFFFFFFFFFF AND PUSH8 0xFFFFFFFFFFFFFFFF AND DUP2 LT ISZERO DUP1 ISZERO PUSH2 0x1243 JUMPI POP PUSH1 0x1 PUSH1 0x0 SWAP1 SLOAD SWAP1 PUSH2 0x100 EXP SWAP1 DIV PUSH8 0xFFFFFFFFFFFFFFFF AND PUSH1 0x0 PUSH1 0x14 SWAP1 SLOAD SWAP1 PUSH2 0x100 EXP SWAP1 DIV PUSH8 0xFFFFFFFFFFFFFFFF AND PUSH2 0x1236 SWAP2 SWAP1 PUSH2 0x2FFE JUMP JUMPDEST PUSH8 0xFFFFFFFFFFFFFFFF AND DUP2 LT JUMPDEST SWAP2 POP POP SWAP2 SWAP1 POP JUMP JUMPDEST PUSH1 0x0 DUP1 PUSH2 0x1257 DUP4 PUSH2 0x10AA JUMP JUMPDEST SWAP1 POP PUSH1 0x0 PUSH1 0x3 DUP2 GT ISZERO PUSH2 0x126D JUMPI PUSH2 0x126C PUSH2 0x24C9 JUMP JUMPDEST JUMPDEST DUP2 PUSH1 0x3 DUP2 GT ISZERO PUSH2 0x1280 JUMPI PUSH2 0x127F PUSH2 0x24C9 JUMP JUMPDEST JUMPDEST EQ DUP1 PUSH2 0x12B0 JUMPI POP PUSH1 0x1 PUSH1 0x3 DUP2 GT ISZERO PUSH2 0x129B JUMPI PUSH2 0x129A PUSH2 0x24C9 JUMP JUMPDEST JUMPDEST DUP2 PUSH1 0x3 DUP2 GT ISZERO PUSH2 0x12AE JUMPI PUSH2 0x12AD PUSH2 0x24C9 JUMP JUMPDEST JUMPDEST EQ JUMPDEST SWAP2 POP POP SWAP2 SWAP1 POP JUMP JUMPDEST PUSH1 0x0 DUP1 DUP3 PUSH1 0x0 ADD SLOAD EQ ISZERO SWAP1 POP SWAP2 SWAP1 POP JUMP JUMPDEST PUSH2 0x12D1 PUSH2 0x23EA JUMP JUMPDEST PUSH1 0x0 DUP1 PUSH2 0x12E7 DUP5 DUP7 PUSH2 0x1AD0 SWAP1 SWAP2 SWAP1 PUSH4 0xFFFFFFFF AND JUMP JUMPDEST SWAP2 POP SWAP2 POP DUP2 PUSH2 0x1334 JUMPI PUSH1 0x40 MLOAD DUP1 PUSH1 0x40 ADD PUSH1 0x40 MSTORE DUP1 PUSH1 0x0 PUSH1 0x2 DUP2 GT ISZERO PUSH2 0x130F JUMPI PUSH2 0x130E PUSH2 0x24C9 JUMP JUMPDEST JUMPDEST DUP2 MSTORE PUSH1 0x20 ADD PUSH1 0x0 PUSH16 0xFFFFFFFFFFFFFFFFFFFFFFFFFFFFFFFF AND DUP2 MSTORE POP SWAP3 POP POP POP PUSH2 0x1342 JUMP JUMPDEST PUSH2 0x133D DUP2 PUSH2 0x1B1F JUMP JUMPDEST SWAP3 POP POP POP JUMPDEST SWAP3 SWAP2 POP POP JUMP JUMPDEST PUSH1 0x0 DUP1 PUSH1 0x0 SWAP1 SLOAD SWAP1 PUSH2 0x100 EXP SWAP1 DIV PUSH20 0xFFFFFFFFFFFFFFFFFFFFFFFFFFFFFFFFFFFFFFFF AND SWAP1 POP DUP2 PUSH1 0x0 DUP1 PUSH2 0x100 EXP DUP2 SLOAD DUP2 PUSH20 0xFFFFFFFFFFFFFFFFFFFFFFFFFFFFFFFFFFFFFFFF MUL NOT AND SWAP1 DUP4 PUSH20 0xFFFFFFFFFFFFFFFFFFFFFFFFFFFFFFFFFFFFFFFF AND MUL OR SWAP1 SSTORE POP DUP2 PUSH20 0xFFFFFFFFFFFFFFFFFFFFFFFFFFFFFFFFFFFFFFFF AND DUP2 PUSH20 0xFFFFFFFFFFFFFFFFFFFFFFFFFFFFFFFFFFFFFFFF AND PUSH32 0x8BE0079C531659141344CD1FD0A4F28419497F9722A3DAAFE3B4186F6B6457E0 PUSH1 0x40 MLOAD PUSH1 0x40 MLOAD DUP1 SWAP2 SUB SWAP1 LOG3 POP POP JUMP JUMPDEST PUSH1 0x0 DUP2 DUP4 LT PUSH2 0x141B JUMPI DUP2 PUSH2 0x141D JUMP JUMPDEST DUP3 JUMPDEST SWAP1 POP SWAP3 SWAP2 POP POP JUMP JUMPDEST PUSH1 0x0 DUP2 SWAP1 POP DUP2 PUSH20 0xFFFFFFFFFFFFFFFFFFFFFFFFFFFFFFFFFFFFFFFF AND PUSH4 0x1FFC9A7 PUSH32 0x58970CA800000000000000000000000000000000000000000000000000000000 PUSH1 0x40 MLOAD DUP3 PUSH4 0xFFFFFFFF AND PUSH1 0xE0 SHL DUP2 MSTORE PUSH1 0x4 ADD PUSH2 0x1483 SWAP2 SWAP1 PUSH2 0x3075 JUMP JUMPDEST PUSH1 0x20 PUSH1 0x40 MLOAD DUP1 DUP4 SUB DUP2 DUP7 GAS STATICCALL ISZERO DUP1 ISZERO PUSH2 0x14A0 JUMPI RETURNDATASIZE PUSH1 0x0 DUP1 RETURNDATACOPY RETURNDATASIZE PUSH1 0x0 REVERT JUMPDEST POP POP POP POP PUSH1 0x40 MLOAD RETURNDATASIZE PUSH1 0x1F NOT PUSH1 0x1F DUP3 ADD AND DUP3 ADD DUP1 PUSH1 0x40 MSTORE POP DUP2 ADD SWAP1 PUSH2 0x14C4 SWAP2 SWAP1 PUSH2 0x30BC JUMP JUMPDEST ISZERO PUSH2 0x14F9 JUMPI PUSH1 0x0 PUSH1 0x3 PUSH1 0x14 PUSH2 0x100 EXP DUP2 SLOAD DUP2 PUSH1 0xFF MUL NOT AND SWAP1 DUP4 PUSH1 0x1 DUP2 GT ISZERO PUSH2 0x14EF JUMPI PUSH2 0x14EE PUSH2 0x24C9 JUMP JUMPDEST JUMPDEST MUL OR SWAP1 SSTORE POP PUSH2 0x160B JUMP JUMPDEST PUSH1 0x0 DUP2 PUSH20 0xFFFFFFFFFFFFFFFFFFFFFFFFFFFFFFFFFFFFFFFF AND PUSH4 0x70A08231 ADDRESS PUSH1 0x40 MLOAD DUP3 PUSH4 0xFFFFFFFF AND PUSH1 0xE0 SHL DUP2 MSTORE PUSH1 0x4 ADD PUSH2 0x1534 SWAP2 SWAP1 PUSH2 0x2A88 JUMP JUMPDEST PUSH1 0x20 PUSH1 0x40 MLOAD DUP1 DUP4 SUB DUP2 DUP7 GAS STATICCALL ISZERO DUP1 ISZERO PUSH2 0x1551 JUMPI RETURNDATASIZE PUSH1 0x0 DUP1 RETURNDATACOPY RETURNDATASIZE PUSH1 0x0 REVERT JUMPDEST POP POP POP POP PUSH1 0x40 MLOAD RETURNDATASIZE PUSH1 0x1F NOT PUSH1 0x1F DUP3 ADD AND DUP3 ADD DUP1 PUSH1 0x40 MSTORE POP DUP2 ADD SWAP1 PUSH2 0x1575 SWAP2 SWAP1 PUSH2 0x2CCF JUMP JUMPDEST SWAP1 POP PUSH1 0x0 DUP2 LT ISZERO DUP1 ISZERO PUSH2 0x15A8 JUMPI POP PUSH32 0xFFFFFFFFFFFFFFFFFFFFFFFFFFFFFFFFFFFFFFFFFFFFFFFFFFFFFFFFFFFFFFFF DUP2 GT ISZERO JUMPDEST PUSH2 0x15DE JUMPI PUSH1 0x40 MLOAD PUSH32 0xADD3C86F00000000000000000000000000000000000000000000000000000000 DUP2 MSTORE PUSH1 0x4 ADD PUSH1 0x40 MLOAD DUP1 SWAP2 SUB SWAP1 REVERT JUMPDEST PUSH1 0x1 PUSH1 0x3 PUSH1 0x14 PUSH2 0x100 EXP DUP2 SLOAD DUP2 PUSH1 0xFF MUL NOT AND SWAP1 DUP4 PUSH1 0x1 DUP2 GT ISZERO PUSH2 0x1604 JUMPI PUSH2 0x1603 PUSH2 0x24C9 JUMP JUMPDEST JUMPDEST MUL OR SWAP1 SSTORE POP POP JUMPDEST DUP1 PUSH1 0x3 PUSH1 0x0 PUSH2 0x100 EXP DUP2 SLOAD DUP2 PUSH20 0xFFFFFFFFFFFFFFFFFFFFFFFFFFFFFFFFFFFFFFFF MUL NOT AND SWAP1 DUP4 PUSH20 0xFFFFFFFFFFFFFFFFFFFFFFFFFFFFFFFFFFFFFFFF AND MUL OR SWAP1 SSTORE POP POP POP JUMP JUMPDEST PUSH1 0x0 DUP2 PUSH1 0x1 ADD SLOAD EQ DUP1 ISZERO PUSH2 0x1668 JUMPI POP PUSH1 0x0 DUP2 PUSH1 0x2 ADD SLOAD EQ JUMPDEST PUSH2 0x1675 JUMPI PUSH2 0x1674 PUSH2 0x2E92 JUMP JUMPDEST JUMPDEST TIMESTAMP DUP2 PUSH1 0x0 ADD DUP2 SWAP1 SSTORE POP DUP2 PUSH32 0x288A29BCA04EDB18FCDB2C76D6E3B03B8A137C85C70D1A4CB8AACFA868D60510 PUSH1 0x40 MLOAD PUSH1 0x40 MLOAD DUP1 SWAP2 SUB SWAP1 LOG2 POP POP JUMP JUMPDEST PUSH1 0x0 DUP1 PUSH2 0x16BB DUP4 PUSH2 0x12B8 JUMP JUMPDEST SWAP1 POP DUP1 DUP1 ISZERO PUSH2 0x16F6 JUMPI POP PUSH1 0x3 DUP1 DUP2 GT ISZERO PUSH2 0x16D8 JUMPI PUSH2 0x16D7 PUSH2 0x24C9 JUMP JUMPDEST JUMPDEST PUSH2 0x16E1 DUP5 PUSH2 0x10AA JUMP JUMPDEST PUSH1 0x3 DUP2 GT ISZERO PUSH2 0x16F3 JUMPI PUSH2 0x16F2 PUSH2 0x24C9 JUMP JUMPDEST JUMPDEST EQ ISZERO JUMPDEST SWAP2 POP POP SWAP2 SWAP1 POP JUMP JUMPDEST PUSH1 0x0 PUSH1 0x5 PUSH1 0x0 CALLER PUSH20 0xFFFFFFFFFFFFFFFFFFFFFFFFFFFFFFFFFFFFFFFF AND PUSH20 0xFFFFFFFFFFFFFFFFFFFFFFFFFFFFFFFFFFFFFFFF AND DUP2 MSTORE PUSH1 0x20 ADD SWAP1 DUP2 MSTORE PUSH1 0x20 ADD PUSH1 0x0 KECCAK256 SWAP1 POP PUSH1 0x0 PUSH2 0x174D DUP3 DUP6 PUSH2 0x12C9 JUMP JUMPDEST SWAP1 POP PUSH1 0x0 PUSH1 0x40 MLOAD DUP1 PUSH1 0x40 ADD PUSH1 0x40 MSTORE DUP1 DUP6 PUSH1 0x2 DUP2 GT ISZERO PUSH2 0x176F JUMPI PUSH2 0x176E PUSH2 0x24C9 JUMP JUMPDEST JUMPDEST DUP2 MSTORE PUSH1 0x20 ADD PUSH2 0x177D CALLER PUSH2 0xA91 JUMP JUMPDEST PUSH16 0xFFFFFFFFFFFFFFFFFFFFFFFFFFFFFFFF AND DUP2 MSTORE POP SWAP1 POP PUSH2 0x179E DUP3 DUP3 PUSH2 0x1C46 JUMP JUMPDEST ISZERO PUSH2 0x17E6 JUMPI DUP2 PUSH1 0x0 ADD MLOAD DUP5 PUSH1 0x40 MLOAD PUSH32 0x3DDD27900000000000000000000000000000000000000000000000000000000 DUP2 MSTORE PUSH1 0x4 ADD PUSH2 0x17DD SWAP3 SWAP2 SWAP1 PUSH2 0x30F8 JUMP JUMPDEST PUSH1 0x40 MLOAD DUP1 SWAP2 SUB SWAP1 REVERT JUMPDEST PUSH1 0x0 PUSH2 0x17F2 DUP5 DUP8 PUSH2 0x1CB6 JUMP JUMPDEST SWAP1 POP PUSH1 0x1 PUSH1 0x2 DUP2 GT ISZERO PUSH2 0x1808 JUMPI PUSH2 0x1807 PUSH2 0x24C9 JUMP JUMPDEST JUMPDEST DUP3 PUSH1 0x0 ADD MLOAD PUSH1 0x2 DUP2 GT ISZERO PUSH2 0x181F JUMPI PUSH2 0x181E PUSH2 0x24C9 JUMP JUMPDEST JUMPDEST SUB PUSH2 0x18B3 JUMPI PUSH2 0x182D DUP8 PUSH2 0x10F7 JUMP JUMPDEST PUSH2 0x1863 JUMPI PUSH1 0x40 MLOAD PUSH32 0x6D47005400000000000000000000000000000000000000000000000000000000 DUP2 MSTORE PUSH1 0x4 ADD PUSH1 0x40 MLOAD DUP1 SWAP2 SUB SWAP1 REVERT JUMPDEST PUSH1 0x3 PUSH1 0x15 SWAP1 SLOAD SWAP1 PUSH2 0x100 EXP SWAP1 DIV PUSH1 0xFF AND PUSH1 0xFF AND DUP2 LT PUSH2 0x18AE JUMPI PUSH1 0x40 MLOAD PUSH32 0x48D8FC9400000000000000000000000000000000000000000000000000000000 DUP2 MSTORE PUSH1 0x4 ADD PUSH1 0x40 MLOAD DUP1 SWAP2 SUB SWAP1 REVERT JUMPDEST PUSH2 0x1959 JUMP JUMPDEST PUSH1 0x2 DUP1 DUP2 GT ISZERO PUSH2 0x18C6 JUMPI PUSH2 0x18C5 PUSH2 0x24C9 JUMP JUMPDEST JUMPDEST DUP3 PUSH1 0x0 ADD MLOAD PUSH1 0x2 DUP2 GT ISZERO PUSH2 0x18DD JUMPI PUSH2 0x18DC PUSH2 0x24C9 JUMP JUMPDEST JUMPDEST SUB PUSH2 0x1926 JUMPI PUSH2 0x18EB DUP8 PUSH2 0x124B JUMP JUMPDEST PUSH2 0x1921 JUMPI PUSH1 0x40 MLOAD PUSH32 0xDE09F8100000000000000000000000000000000000000000000000000000000 DUP2 MSTORE PUSH1 0x4 ADD PUSH1 0x40 MLOAD DUP1 SWAP2 SUB SWAP1 REVERT JUMPDEST PUSH2 0x1958 JUMP JUMPDEST PUSH1 0x40 MLOAD PUSH32 0xD5DD0C6600000000000000000000000000000000000000000000000000000000 DUP2 MSTORE PUSH1 0x4 ADD PUSH1 0x40 MLOAD DUP1 SWAP2 SUB SWAP1 REVERT JUMPDEST JUMPDEST PUSH2 0x1966 DUP5 DUP8 DUP10 DUP7 DUP7 PUSH2 0x1E58 JUMP JUMPDEST PUSH1 0x0 DUP3 PUSH1 0x20 ADD MLOAD PUSH16 0xFFFFFFFFFFFFFFFFFFFFFFFFFFFFFFFF AND SUB PUSH2 0x19DC JUMPI CALLER PUSH20 0xFFFFFFFFFFFFFFFFFFFFFFFFFFFFFFFFFFFFFFFF AND DUP7 PUSH32 0x60921DE1A934E80AF973D90EDBCA67A078F0DC03D7385B9031FF925B3A2AB820 DUP5 PUSH1 0x0 ADD MLOAD PUSH1 0x40 MLOAD PUSH2 0x19CF SWAP2 SWAP1 PUSH2 0x3121 JUMP JUMPDEST PUSH1 0x40 MLOAD DUP1 SWAP2 SUB SWAP1 LOG3 PUSH2 0x1A2C JUMP JUMPDEST CALLER PUSH20 0xFFFFFFFFFFFFFFFFFFFFFFFFFFFFFFFFFFFFFFFF AND DUP7 PUSH32 0xCD907020340D41D9B3FB53725F52264110FC156B0059B7817F4FE29F25A96CEF DUP5 PUSH1 0x40 MLOAD PUSH2 0x1A23 SWAP2 SWAP1 PUSH2 0x28C9 JUMP JUMPDEST PUSH1 0x40 MLOAD DUP1 SWAP2 SUB SWAP1 LOG3 JUMPDEST POP POP POP POP POP POP POP JUMP JUMPDEST PUSH1 0x0 DUP1 DUP3 PUSH1 0x0 ADD SLOAD TIMESTAMP PUSH2 0x1A48 SWAP2 SWAP1 PUSH2 0x2FCA JUMP JUMPDEST SWAP1 POP PUSH1 0x1 PUSH1 0x0 SWAP1 SLOAD SWAP1 PUSH2 0x100 EXP SWAP1 DIV PUSH8 0xFFFFFFFFFFFFFFFF AND PUSH1 0x0 PUSH1 0x14 SWAP1 SLOAD SWAP1 PUSH2 0x100 EXP SWAP1 DIV PUSH8 0xFFFFFFFFFFFFFFFF AND PUSH2 0x1A82 SWAP2 SWAP1 PUSH2 0x2FFE JUMP JUMPDEST PUSH8 0xFFFFFFFFFFFFFFFF AND DUP2 LT SWAP2 POP POP SWAP2 SWAP1 POP JUMP JUMPDEST PUSH1 0x0 DUP2 PUSH1 0x1 ADD SLOAD PUSH1 0x2 DUP4 PUSH1 0x2 ADD SLOAD PUSH2 0x1AAE SWAP2 SWAP1 PUSH2 0x313C JUMP JUMPDEST LT DUP1 ISZERO PUSH2 0x1AC1 JUMPI POP PUSH1 0x2 SLOAD DUP3 PUSH1 0x1 ADD SLOAD LT ISZERO JUMPDEST SWAP1 POP SWAP2 SWAP1 POP JUMP JUMPDEST PUSH1 0x0 CALLER SWAP1 POP SWAP1 JUMP JUMPDEST PUSH1 0x0 DUP1 PUSH1 0x0 DUP5 PUSH1 0x2 ADD PUSH1 0x0 DUP6 DUP2 MSTORE PUSH1 0x20 ADD SWAP1 DUP2 MSTORE PUSH1 0x20 ADD PUSH1 0x0 KECCAK256 SLOAD SWAP1 POP PUSH1 0x0 DUP1 SHL DUP2 SUB PUSH2 0x1B0F JUMPI PUSH2 0x1B01 DUP6 DUP6 PUSH2 0x2063 JUMP JUMPDEST PUSH1 0x0 DUP1 SHL SWAP3 POP SWAP3 POP POP PUSH2 0x1B18 JUMP JUMPDEST PUSH1 0x1 DUP2 SWAP3 POP SWAP3 POP POP JUMPDEST SWAP3 POP SWAP3 SWAP1 POP JUMP JUMPDEST PUSH2 0x1B27 PUSH2 0x23EA JUMP JUMPDEST PUSH1 0x0 DUP3 PUSH1 0x0 SHR SWAP1 POP PUSH1 0x1 PUSH16 0xFFFFFFFFFFFFFFFFFFFFFFFFFFFFFFFF PUSH2 0x1B4C SWAP2 SWAP1 PUSH2 0x2E4E JUMP JUMPDEST PUSH16 0xFFFFFFFFFFFFFFFFFFFFFFFFFFFFFFFF AND DUP2 PUSH16 0xFFFFFFFFFFFFFFFFFFFFFFFFFFFFFFFF AND GT ISZERO PUSH2 0x1B80 JUMPI PUSH2 0x1B7F PUSH2 0x2E92 JUMP JUMPDEST JUMPDEST PUSH1 0x0 PUSH1 0x80 DUP5 PUSH1 0x0 SHR SWAP1 SHR PUSH1 0xFF AND PUSH1 0x2 DUP2 GT ISZERO PUSH2 0x1B9F JUMPI PUSH2 0x1B9E PUSH2 0x24C9 JUMP JUMPDEST JUMPDEST SWAP1 POP PUSH1 0x1 PUSH1 0x2 DUP2 GT ISZERO PUSH2 0x1BB5 JUMPI PUSH2 0x1BB4 PUSH2 0x24C9 JUMP JUMPDEST JUMPDEST DUP2 PUSH1 0x2 DUP2 GT ISZERO PUSH2 0x1BC8 JUMPI PUSH2 0x1BC7 PUSH2 0x24C9 JUMP JUMPDEST JUMPDEST EQ DUP1 PUSH2 0x1BF7 JUMPI POP PUSH1 0x2 DUP1 DUP2 GT ISZERO PUSH2 0x1BE2 JUMPI PUSH2 0x1BE1 PUSH2 0x24C9 JUMP JUMPDEST JUMPDEST DUP2 PUSH1 0x2 DUP2 GT ISZERO PUSH2 0x1BF5 JUMPI PUSH2 0x1BF4 PUSH2 0x24C9 JUMP JUMPDEST JUMPDEST EQ JUMPDEST PUSH2 0x1C04 JUMPI PUSH2 0x1C03 PUSH2 0x2E92 JUMP JUMPDEST JUMPDEST PUSH1 0x40 MLOAD DUP1 PUSH1 0x40 ADD PUSH1 0x40 MSTORE DUP1 DUP3 PUSH1 0x2 DUP2 GT ISZERO PUSH2 0x1C22 JUMPI PUSH2 0x1C21 PUSH2 0x24C9 JUMP JUMPDEST JUMPDEST DUP2 MSTORE PUSH1 0x20 ADD DUP4 PUSH16 0xFFFFFFFFFFFFFFFFFFFFFFFFFFFFFFFF AND DUP2 MSTORE POP SWAP3 POP POP POP SWAP2 SWAP1 POP JUMP JUMPDEST PUSH1 0x0 DUP2 PUSH1 0x0 ADD MLOAD PUSH1 0x2 DUP2 GT ISZERO PUSH2 0x1C5F JUMPI PUSH2 0x1C5E PUSH2 0x24C9 JUMP JUMPDEST JUMPDEST DUP4 PUSH1 0x0 ADD MLOAD PUSH1 0x2 DUP2 GT ISZERO PUSH2 0x1C76 JUMPI PUSH2 0x1C75 PUSH2 0x24C9 JUMP JUMPDEST JUMPDEST EQ DUP1 ISZERO PUSH2 0x1CAE JUMPI POP DUP2 PUSH1 0x20 ADD MLOAD PUSH16 0xFFFFFFFFFFFFFFFFFFFFFFFFFFFFFFFF AND DUP4 PUSH1 0x20 ADD MLOAD PUSH16 0xFFFFFFFFFFFFFFFFFFFFFFFFFFFFFFFF AND EQ JUMPDEST SWAP1 POP SWAP3 SWAP2 POP POP JUMP JUMPDEST PUSH1 0x0 DUP1 PUSH2 0x1CC2 DUP5 PUSH2 0x2083 JUMP JUMPDEST SWAP1 POP PUSH1 0x0 DUP2 PUSH8 0xFFFFFFFFFFFFFFFF DUP2 GT ISZERO PUSH2 0x1CE0 JUMPI PUSH2 0x1CDF PUSH2 0x317E JUMP JUMPDEST JUMPDEST PUSH1 0x40 MLOAD SWAP1 DUP1 DUP3 MSTORE DUP1 PUSH1 0x20 MUL PUSH1 0x20 ADD DUP3 ADD PUSH1 0x40 MSTORE DUP1 ISZERO PUSH2 0x1D0E JUMPI DUP2 PUSH1 0x20 ADD PUSH1 0x20 DUP3 MUL DUP1 CALLDATASIZE DUP4 CALLDATACOPY DUP1 DUP3 ADD SWAP2 POP POP SWAP1 POP JUMPDEST POP SWAP1 POP PUSH1 0x0 DUP1 PUSH1 0x0 JUMPDEST DUP5 DUP2 LT ISZERO PUSH2 0x1E03 JUMPI PUSH1 0x0 DUP1 PUSH2 0x1D35 DUP4 DUP12 PUSH2 0x2098 SWAP1 SWAP2 SWAP1 PUSH4 0xFFFFFFFF AND JUMP JUMPDEST SWAP2 POP SWAP2 POP PUSH1 0x0 DUP3 SWAP1 POP PUSH1 0x0 PUSH1 0x4 PUSH1 0x0 DUP4 DUP2 MSTORE PUSH1 0x20 ADD SWAP1 DUP2 MSTORE PUSH1 0x20 ADD PUSH1 0x0 KECCAK256 SWAP1 POP PUSH2 0x1D5E DUP2 PUSH2 0x16AF JUMP JUMPDEST PUSH2 0x1D96 JUMPI DUP2 DUP9 DUP9 DUP2 MLOAD DUP2 LT PUSH2 0x1D76 JUMPI PUSH2 0x1D75 PUSH2 0x31AD JUMP JUMPDEST JUMPDEST PUSH1 0x20 MUL PUSH1 0x20 ADD ADD DUP2 DUP2 MSTORE POP POP PUSH1 0x1 DUP8 PUSH2 0x1D8F SWAP2 SWAP1 PUSH2 0x31DC JUMP JUMPDEST SWAP7 POP PUSH2 0x1DF2 JUMP JUMPDEST PUSH1 0x0 PUSH2 0x1DA1 DUP5 PUSH2 0x1B1F JUMP JUMPDEST SWAP1 POP PUSH1 0x1 PUSH1 0x2 DUP2 GT ISZERO PUSH2 0x1DB7 JUMPI PUSH2 0x1DB6 PUSH2 0x24C9 JUMP JUMPDEST JUMPDEST DUP2 PUSH1 0x0 ADD MLOAD PUSH1 0x2 DUP2 GT ISZERO PUSH2 0x1DCE JUMPI PUSH2 0x1DCD PUSH2 0x24C9 JUMP JUMPDEST JUMPDEST EQ DUP1 ISZERO PUSH2 0x1DDB JUMPI POP DUP12 DUP4 EQ ISZERO JUMPDEST ISZERO PUSH2 0x1DF0 JUMPI PUSH1 0x1 DUP8 PUSH2 0x1DED SWAP2 SWAP1 PUSH2 0x31DC JUMP JUMPDEST SWAP7 POP JUMPDEST POP JUMPDEST POP POP POP POP DUP1 DUP1 PUSH1 0x1 ADD SWAP2 POP POP PUSH2 0x1D17 JUMP JUMPDEST POP PUSH1 0x0 JUMPDEST DUP3 DUP2 LT ISZERO PUSH2 0x1E4A JUMPI PUSH2 0x1E3C DUP5 DUP3 DUP2 MLOAD DUP2 LT PUSH2 0x1E25 JUMPI PUSH2 0x1E24 PUSH2 0x31AD JUMP JUMPDEST JUMPDEST PUSH1 0x20 MUL PUSH1 0x20 ADD ADD MLOAD DUP10 PUSH2 0x20D8 SWAP1 SWAP2 SWAP1 PUSH4 0xFFFFFFFF AND JUMP JUMPDEST POP DUP1 DUP1 PUSH1 0x1 ADD SWAP2 POP POP PUSH2 0x1E07 JUMP JUMPDEST POP DUP1 SWAP5 POP POP POP POP POP SWAP3 SWAP2 POP POP JUMP JUMPDEST PUSH1 0x0 DUP3 PUSH1 0x20 ADD MLOAD PUSH16 0xFFFFFFFFFFFFFFFFFFFFFFFFFFFFFFFF AND GT ISZERO PUSH2 0x1F40 JUMPI PUSH1 0x1 PUSH1 0x2 DUP2 GT ISZERO PUSH2 0x1E8B JUMPI PUSH2 0x1E8A PUSH2 0x24C9 JUMP JUMPDEST JUMPDEST DUP3 PUSH1 0x0 ADD MLOAD PUSH1 0x2 DUP2 GT ISZERO PUSH2 0x1EA2 JUMPI PUSH2 0x1EA1 PUSH2 0x24C9 JUMP JUMPDEST JUMPDEST SUB PUSH2 0x1EDD JUMPI DUP2 PUSH1 0x20 ADD MLOAD PUSH16 0xFFFFFFFFFFFFFFFFFFFFFFFFFFFFFFFF AND DUP4 PUSH1 0x1 ADD PUSH1 0x0 DUP3 DUP3 SLOAD PUSH2 0x1ED1 SWAP2 SWAP1 PUSH2 0x2FCA JUMP JUMPDEST SWAP3 POP POP DUP2 SWAP1 SSTORE POP PUSH2 0x1F3F JUMP JUMPDEST PUSH1 0x2 DUP1 DUP2 GT ISZERO PUSH2 0x1EF0 JUMPI PUSH2 0x1EEF PUSH2 0x24C9 JUMP JUMPDEST JUMPDEST DUP3 PUSH1 0x0 ADD MLOAD PUSH1 0x2 DUP2 GT ISZERO PUSH2 0x1F07 JUMPI PUSH2 0x1F06 PUSH2 0x24C9 JUMP JUMPDEST JUMPDEST SUB PUSH2 0x1F3E JUMPI DUP2 PUSH1 0x20 ADD MLOAD PUSH16 0xFFFFFFFFFFFFFFFFFFFFFFFFFFFFFFFF AND DUP4 PUSH1 0x2 ADD PUSH1 0x0 DUP3 DUP3 SLOAD PUSH2 0x1F36 SWAP2 SWAP1 PUSH2 0x2FCA JUMP JUMPDEST SWAP3 POP POP DUP2 SWAP1 SSTORE POP JUMPDEST JUMPDEST JUMPDEST PUSH1 0x1 PUSH1 0x2 DUP2 GT ISZERO PUSH2 0x1F54 JUMPI PUSH2 0x1F53 PUSH2 0x24C9 JUMP JUMPDEST JUMPDEST DUP2 PUSH1 0x0 ADD MLOAD PUSH1 0x2 DUP2 GT ISZERO PUSH2 0x1F6B JUMPI PUSH2 0x1F6A PUSH2 0x24C9 JUMP JUMPDEST JUMPDEST SUB PUSH2 0x1FA6 JUMPI DUP1 PUSH1 0x20 ADD MLOAD PUSH16 0xFFFFFFFFFFFFFFFFFFFFFFFFFFFFFFFF AND DUP4 PUSH1 0x1 ADD PUSH1 0x0 DUP3 DUP3 SLOAD PUSH2 0x1F9A SWAP2 SWAP1 PUSH2 0x31DC JUMP JUMPDEST SWAP3 POP POP DUP2 SWAP1 SSTORE POP PUSH2 0x203E JUMP JUMPDEST PUSH1 0x2 DUP1 DUP2 GT ISZERO PUSH2 0x1FB9 JUMPI PUSH2 0x1FB8 PUSH2 0x24C9 JUMP JUMPDEST JUMPDEST DUP2 PUSH1 0x0 ADD MLOAD PUSH1 0x2 DUP2 GT ISZERO PUSH2 0x1FD0 JUMPI PUSH2 0x1FCF PUSH2 0x24C9 JUMP JUMPDEST JUMPDEST SUB PUSH2 0x200B JUMPI DUP1 PUSH1 0x20 ADD MLOAD PUSH16 0xFFFFFFFFFFFFFFFFFFFFFFFFFFFFFFFF AND DUP4 PUSH1 0x2 ADD PUSH1 0x0 DUP3 DUP3 SLOAD PUSH2 0x1FFF SWAP2 SWAP1 PUSH2 0x31DC JUMP JUMPDEST SWAP3 POP POP DUP2 SWAP1 SSTORE POP PUSH2 0x203D JUMP JUMPDEST PUSH1 0x40 MLOAD PUSH32 0xD5DD0C6600000000000000000000000000000000000000000000000000000000 DUP2 MSTORE PUSH1 0x4 ADD PUSH1 0x40 MLOAD DUP1 SWAP2 SUB SWAP1 REVERT JUMPDEST JUMPDEST PUSH2 0x205B DUP5 PUSH2 0x204B DUP4 PUSH2 0x2111 JUMP JUMPDEST DUP8 PUSH2 0x215B SWAP1 SWAP3 SWAP2 SWAP1 PUSH4 0xFFFFFFFF AND JUMP JUMPDEST POP POP POP POP POP POP JUMP JUMPDEST PUSH1 0x0 PUSH2 0x207B DUP3 DUP5 PUSH1 0x0 ADD PUSH2 0x2196 SWAP1 SWAP2 SWAP1 PUSH4 0xFFFFFFFF AND JUMP JUMPDEST SWAP1 POP SWAP3 SWAP2 POP POP JUMP JUMPDEST PUSH1 0x0 PUSH2 0x2091 DUP3 PUSH1 0x0 ADD PUSH2 0x21AD JUMP JUMPDEST SWAP1 POP SWAP2 SWAP1 POP JUMP JUMPDEST PUSH1 0x0 DUP1 PUSH1 0x0 PUSH2 0x20B3 DUP5 DUP7 PUSH1 0x0 ADD PUSH2 0x21C2 SWAP1 SWAP2 SWAP1 PUSH4 0xFFFFFFFF AND JUMP JUMPDEST SWAP1 POP DUP1 DUP6 PUSH1 0x2 ADD PUSH1 0x0 DUP4 DUP2 MSTORE PUSH1 0x20 ADD SWAP1 DUP2 MSTORE PUSH1 0x20 ADD PUSH1 0x0 KECCAK256 SLOAD SWAP3 POP SWAP3 POP POP SWAP3 POP SWAP3 SWAP1 POP JUMP JUMPDEST PUSH1 0x0 DUP3 PUSH1 0x2 ADD PUSH1 0x0 DUP4 DUP2 MSTORE PUSH1 0x20 ADD SWAP1 DUP2 MSTORE PUSH1 0x20 ADD PUSH1 0x0 KECCAK256 PUSH1 0x0 SWAP1 SSTORE PUSH2 0x2109 DUP3 DUP5 PUSH1 0x0 ADD PUSH2 0x21D9 SWAP1 SWAP2 SWAP1 PUSH4 0xFFFFFFFF AND JUMP JUMPDEST SWAP1 POP SWAP3 SWAP2 POP POP JUMP JUMPDEST PUSH1 0x0 DUP1 DUP3 PUSH1 0x20 ADD MLOAD SWAP1 POP PUSH1 0x0 DUP2 PUSH16 0xFFFFFFFFFFFFFFFFFFFFFFFFFFFFFFFF AND PUSH1 0x80 DUP6 PUSH1 0x0 ADD MLOAD PUSH1 0x2 DUP2 GT ISZERO PUSH2 0x2149 JUMPI PUSH2 0x2148 PUSH2 0x24C9 JUMP JUMPDEST JUMPDEST SWAP1 SHL OR SWAP1 POP DUP1 PUSH1 0x0 SHL SWAP3 POP POP POP SWAP2 SWAP1 POP JUMP JUMPDEST PUSH1 0x0 DUP2 DUP5 PUSH1 0x2 ADD PUSH1 0x0 DUP6 DUP2 MSTORE PUSH1 0x20 ADD SWAP1 DUP2 MSTORE PUSH1 0x20 ADD PUSH1 0x0 KECCAK256 DUP2 SWAP1 SSTORE POP PUSH2 0x218D DUP4 DUP6 PUSH1 0x0 ADD PUSH2 0x21F0 SWAP1 SWAP2 SWAP1 PUSH4 0xFFFFFFFF AND JUMP JUMPDEST SWAP1 POP SWAP4 SWAP3 POP POP POP JUMP JUMPDEST PUSH1 0x0 PUSH2 0x21A5 DUP4 PUSH1 0x0 ADD DUP4 PUSH2 0x2207 JUMP JUMPDEST SWAP1 POP SWAP3 SWAP2 POP POP JUMP JUMPDEST PUSH1 0x0 PUSH2 0x21BB DUP3 PUSH1 0x0 ADD PUSH2 0x222A JUMP JUMPDEST SWAP1 POP SWAP2 SWAP1 POP JUMP JUMPDEST PUSH1 0x0 PUSH2 0x21D1 DUP4 PUSH1 0x0 ADD DUP4 PUSH2 0x223B JUMP JUMPDEST SWAP1 POP SWAP3 SWAP2 POP POP JUMP JUMPDEST PUSH1 0x0 PUSH2 0x21E8 DUP4 PUSH1 0x0 ADD DUP4 PUSH2 0x2266 JUMP JUMPDEST SWAP1 POP SWAP3 SWAP2 POP POP JUMP JUMPDEST PUSH1 0x0 PUSH2 0x21FF DUP4 PUSH1 0x0 ADD DUP4 PUSH2 0x237A JUMP JUMPDEST SWAP1 POP SWAP3 SWAP2 POP POP JUMP JUMPDEST PUSH1 0x0 DUP1 DUP4 PUSH1 0x1 ADD PUSH1 0x0 DUP5 DUP2 MSTORE PUSH1 0x20 ADD SWAP1 DUP2 MSTORE PUSH1 0x20 ADD PUSH1 0x0 KECCAK256 SLOAD EQ ISZERO SWAP1 POP SWAP3 SWAP2 POP POP JUMP JUMPDEST PUSH1 0x0 DUP2 PUSH1 0x0 ADD DUP1 SLOAD SWAP1 POP SWAP1 POP SWAP2 SWAP1 POP JUMP JUMPDEST PUSH1 0x0 DUP3 PUSH1 0x0 ADD DUP3 DUP2 SLOAD DUP2 LT PUSH2 0x2253 JUMPI PUSH2 0x2252 PUSH2 0x31AD JUMP JUMPDEST JUMPDEST SWAP1 PUSH1 0x0 MSTORE PUSH1 0x20 PUSH1 0x0 KECCAK256 ADD SLOAD SWAP1 POP SWAP3 SWAP2 POP POP JUMP JUMPDEST PUSH1 0x0 DUP1 DUP4 PUSH1 0x1 ADD PUSH1 0x0 DUP5 DUP2 MSTORE PUSH1 0x20 ADD SWAP1 DUP2 MSTORE PUSH1 0x20 ADD PUSH1 0x0 KECCAK256 SLOAD SWAP1 POP PUSH1 0x0 DUP2 EQ PUSH2 0x236E JUMPI PUSH1 0x0 PUSH1 0x1 DUP3 PUSH2 0x2298 SWAP2 SWAP1 PUSH2 0x2FCA JUMP JUMPDEST SWAP1 POP PUSH1 0x0 PUSH1 0x1 DUP7 PUSH1 0x0 ADD DUP1 SLOAD SWAP1 POP PUSH2 0x22B0 SWAP2 SWAP1 PUSH2 0x2FCA JUMP JUMPDEST SWAP1 POP DUP1 DUP3 EQ PUSH2 0x231F JUMPI PUSH1 0x0 DUP7 PUSH1 0x0 ADD DUP3 DUP2 SLOAD DUP2 LT PUSH2 0x22D1 JUMPI PUSH2 0x22D0 PUSH2 0x31AD JUMP JUMPDEST JUMPDEST SWAP1 PUSH1 0x0 MSTORE PUSH1 0x20 PUSH1 0x0 KECCAK256 ADD SLOAD SWAP1 POP DUP1 DUP8 PUSH1 0x0 ADD DUP5 DUP2 SLOAD DUP2 LT PUSH2 0x22F5 JUMPI PUSH2 0x22F4 PUSH2 0x31AD JUMP JUMPDEST JUMPDEST SWAP1 PUSH1 0x0 MSTORE PUSH1 0x20 PUSH1 0x0 KECCAK256 ADD DUP2 SWAP1 SSTORE POP DUP4 DUP8 PUSH1 0x1 ADD PUSH1 0x0 DUP4 DUP2 MSTORE PUSH1 0x20 ADD SWAP1 DUP2 MSTORE PUSH1 0x20 ADD PUSH1 0x0 KECCAK256 DUP2 SWAP1 SSTORE POP POP JUMPDEST DUP6 PUSH1 0x0 ADD DUP1 SLOAD DUP1 PUSH2 0x2333 JUMPI PUSH2 0x2332 PUSH2 0x3210 JUMP JUMPDEST JUMPDEST PUSH1 0x1 SWAP1 SUB DUP2 DUP2 SWAP1 PUSH1 0x0 MSTORE PUSH1 0x20 PUSH1 0x0 KECCAK256 ADD PUSH1 0x0 SWAP1 SSTORE SWAP1 SSTORE DUP6 PUSH1 0x1 ADD PUSH1 0x0 DUP7 DUP2 MSTORE PUSH1 0x20 ADD SWAP1 DUP2 MSTORE PUSH1 0x20 ADD PUSH1 0x0 KECCAK256 PUSH1 0x0 SWAP1 SSTORE PUSH1 0x1 SWAP4 POP POP POP POP PUSH2 0x2374 JUMP JUMPDEST PUSH1 0x0 SWAP2 POP POP JUMPDEST SWAP3 SWAP2 POP POP JUMP JUMPDEST PUSH1 0x0 PUSH2 0x2386 DUP4 DUP4 PUSH2 0x2207 JUMP JUMPDEST PUSH2 0x23DF JUMPI DUP3 PUSH1 0x0 ADD DUP3 SWAP1 DUP1 PUSH1 0x1 DUP2 SLOAD ADD DUP1 DUP3 SSTORE DUP1 SWAP2 POP POP PUSH1 0x1 SWAP1 SUB SWAP1 PUSH1 0x0 MSTORE PUSH1 0x20 PUSH1 0x0 KECCAK256 ADD PUSH1 0x0 SWAP1 SWAP2 SWAP1 SWAP2 SWAP1 SWAP2 POP SSTORE DUP3 PUSH1 0x0 ADD DUP1 SLOAD SWAP1 POP DUP4 PUSH1 0x1 ADD PUSH1 0x0 DUP5 DUP2 MSTORE PUSH1 0x20 ADD SWAP1 DUP2 MSTORE PUSH1 0x20 ADD PUSH1 0x0 KECCAK256 DUP2 SWAP1 SSTORE POP PUSH1 0x1 SWAP1 POP PUSH2 0x23E4 JUMP JUMPDEST PUSH1 0x0 SWAP1 POP JUMPDEST SWAP3 SWAP2 POP POP JUMP JUMPDEST PUSH1 0x40 MLOAD DUP1 PUSH1 0x40 ADD PUSH1 0x40 MSTORE DUP1 PUSH1 0x0 PUSH1 0x2 DUP2 GT ISZERO PUSH2 0x2409 JUMPI PUSH2 0x2408 PUSH2 0x24C9 JUMP JUMPDEST JUMPDEST DUP2 MSTORE PUSH1 0x20 ADD PUSH1 0x0 PUSH16 0xFFFFFFFFFFFFFFFFFFFFFFFFFFFFFFFF AND DUP2 MSTORE POP SWAP1 JUMP JUMPDEST PUSH1 0x0 DUP2 SWAP1 POP SWAP2 SWAP1 POP JUMP JUMPDEST PUSH2 0x243B DUP2 PUSH2 0x2428 JUMP JUMPDEST DUP3 MSTORE POP POP JUMP JUMPDEST PUSH1 0x0 PUSH1 0x20 DUP3 ADD SWAP1 POP PUSH2 0x2456 PUSH1 0x0 DUP4 ADD DUP5 PUSH2 0x2432 JUMP JUMPDEST SWAP3 SWAP2 POP POP JUMP JUMPDEST PUSH1 0x0 DUP1 REVERT JUMPDEST PUSH1 0x0 DUP1 REVERT JUMPDEST PUSH1 0x0 DUP2 SWAP1 POP SWAP2 SWAP1 POP JUMP JUMPDEST PUSH2 0x2479 DUP2 PUSH2 0x2466 JUMP JUMPDEST DUP2 EQ PUSH2 0x2484 JUMPI PUSH1 0x0 DUP1 REVERT JUMPDEST POP JUMP JUMPDEST PUSH1 0x0 DUP2 CALLDATALOAD SWAP1 POP PUSH2 0x2496 DUP2 PUSH2 0x2470 JUMP JUMPDEST SWAP3 SWAP2 POP POP JUMP JUMPDEST PUSH1 0x0 PUSH1 0x20 DUP3 DUP5 SUB SLT ISZERO PUSH2 0x24B2 JUMPI PUSH2 0x24B1 PUSH2 0x245C JUMP JUMPDEST JUMPDEST PUSH1 0x0 PUSH2 0x24C0 DUP5 DUP3 DUP6 ADD PUSH2 0x2487 JUMP JUMPDEST SWAP2 POP POP SWAP3 SWAP2 POP POP JUMP JUMPDEST PUSH32 0x4E487B7100000000000000000000000000000000000000000000000000000000 PUSH1 0x0 MSTORE PUSH1 0x21 PUSH1 0x4 MSTORE PUSH1 0x24 PUSH1 0x0 REVERT JUMPDEST PUSH1 0x4 DUP2 LT PUSH2 0x2509 JUMPI PUSH2 0x2508 PUSH2 0x24C9 JUMP JUMPDEST JUMPDEST POP JUMP JUMPDEST PUSH1 0x0 DUP2 SWAP1 POP PUSH2 0x251A DUP3 PUSH2 0x24F8 JUMP JUMPDEST SWAP2 SWAP1 POP JUMP JUMPDEST PUSH1 0x0 PUSH2 0x252A DUP3 PUSH2 0x250C JUMP JUMPDEST SWAP1 POP SWAP2 SWAP1 POP JUMP JUMPDEST PUSH2 0x253A DUP2 PUSH2 0x251F JUMP JUMPDEST DUP3 MSTORE POP POP JUMP JUMPDEST PUSH1 0x0 PUSH1 0x20 DUP3 ADD SWAP1 POP PUSH2 0x2555 PUSH1 0x0 DUP4 ADD DUP5 PUSH2 0x2531 JUMP JUMPDEST SWAP3 SWAP2 POP POP JUMP JUMPDEST PUSH1 0x0 PUSH8 0xFFFFFFFFFFFFFFFF DUP3 AND SWAP1 POP SWAP2 SWAP1 POP JUMP JUMPDEST PUSH2 0x2578 DUP2 PUSH2 0x255B JUMP JUMPDEST DUP3 MSTORE POP POP JUMP JUMPDEST PUSH1 0x0 PUSH1 0x20 DUP3 ADD SWAP1 POP PUSH2 0x2593 PUSH1 0x0 DUP4 ADD DUP5 PUSH2 0x256F JUMP JUMPDEST SWAP3 SWAP2 POP POP JUMP JUMPDEST PUSH1 0x0 DUP2 ISZERO ISZERO SWAP1 POP SWAP2 SWAP1 POP JUMP JUMPDEST PUSH2 0x25AE DUP2 PUSH2 0x2599 JUMP JUMPDEST DUP3 MSTORE POP POP JUMP JUMPDEST PUSH1 0x0 PUSH1 0x20 DUP3 ADD SWAP1 POP PUSH2 0x25C9 PUSH1 0x0 DUP4 ADD DUP5 PUSH2 0x25A5 JUMP JUMPDEST SWAP3 SWAP2 POP POP JUMP JUMPDEST PUSH1 0x0 PUSH1 0xFF DUP3 AND SWAP1 POP SWAP2 SWAP1 POP JUMP JUMPDEST PUSH2 0x25E5 DUP2 PUSH2 0x25CF JUMP JUMPDEST DUP2 EQ PUSH2 0x25F0 JUMPI PUSH1 0x0 DUP1 REVERT JUMPDEST POP JUMP JUMPDEST PUSH1 0x0 DUP2 CALLDATALOAD SWAP1 POP PUSH2 0x2602 DUP2 PUSH2 0x25DC JUMP JUMPDEST SWAP3 SWAP2 POP POP JUMP JUMPDEST PUSH1 0x0 DUP1 REVERT JUMPDEST PUSH1 0x0 DUP1 REVERT JUMPDEST PUSH1 0x0 DUP1 REVERT JUMPDEST PUSH1 0x0 DUP1 DUP4 PUSH1 0x1F DUP5 ADD SLT PUSH2 0x262D JUMPI PUSH2 0x262C PUSH2 0x2608 JUMP JUMPDEST JUMPDEST DUP3 CALLDATALOAD SWAP1 POP PUSH8 0xFFFFFFFFFFFFFFFF DUP2 GT ISZERO PUSH2 0x264A JUMPI PUSH2 0x2649 PUSH2 0x260D JUMP JUMPDEST JUMPDEST PUSH1 0x20 DUP4 ADD SWAP2 POP DUP4 PUSH1 0x1 DUP3 MUL DUP4 ADD GT ISZERO PUSH2 0x2666 JUMPI PUSH2 0x2665 PUSH2 0x2612 JUMP JUMPDEST JUMPDEST SWAP3 POP SWAP3 SWAP1 POP JUMP JUMPDEST PUSH1 0x0 DUP1 PUSH1 0x0 PUSH1 0x40 DUP5 DUP7 SUB SLT ISZERO PUSH2 0x2686 JUMPI PUSH2 0x2685 PUSH2 0x245C JUMP JUMPDEST JUMPDEST PUSH1 0x0 PUSH2 0x2694 DUP7 DUP3 DUP8 ADD PUSH2 0x25F3 JUMP JUMPDEST SWAP4 POP POP PUSH1 0x20 DUP5 ADD CALLDATALOAD PUSH8 0xFFFFFFFFFFFFFFFF DUP2 GT ISZERO PUSH2 0x26B5 JUMPI PUSH2 0x26B4 PUSH2 0x2461 JUMP JUMPDEST JUMPDEST PUSH2 0x26C1 DUP7 DUP3 DUP8 ADD PUSH2 0x2617 JUMP JUMPDEST SWAP3 POP SWAP3 POP POP SWAP3 POP SWAP3 POP SWAP3 JUMP JUMPDEST PUSH2 0x26D6 DUP2 PUSH2 0x2428 JUMP JUMPDEST DUP2 EQ PUSH2 0x26E1 JUMPI PUSH1 0x0 DUP1 REVERT JUMPDEST POP JUMP JUMPDEST PUSH1 0x0 DUP2 CALLDATALOAD SWAP1 POP PUSH2 0x26F3 DUP2 PUSH2 0x26CD JUMP JUMPDEST SWAP3 SWAP2 POP POP JUMP JUMPDEST PUSH1 0x0 PUSH1 0x20 DUP3 DUP5 SUB SLT ISZERO PUSH2 0x270F JUMPI PUSH2 0x270E PUSH2 0x245C JUMP JUMPDEST JUMPDEST PUSH1 0x0 PUSH2 0x271D DUP5 DUP3 DUP6 ADD PUSH2 0x26E4 JUMP JUMPDEST SWAP2 POP POP SWAP3 SWAP2 POP POP JUMP JUMPDEST PUSH1 0x0 PUSH1 0x60 DUP3 ADD SWAP1 POP PUSH2 0x273B PUSH1 0x0 DUP4 ADD DUP7 PUSH2 0x2432 JUMP JUMPDEST PUSH2 0x2748 PUSH1 0x20 DUP4 ADD DUP6 PUSH2 0x2432 JUMP JUMPDEST PUSH2 0x2755 PUSH1 0x40 DUP4 ADD DUP5 PUSH2 0x2432 JUMP JUMPDEST SWAP5 SWAP4 POP POP POP POP JUMP JUMPDEST PUSH1 0x0 PUSH20 0xFFFFFFFFFFFFFFFFFFFFFFFFFFFFFFFFFFFFFFFF DUP3 AND SWAP1 POP SWAP2 SWAP1 POP JUMP JUMPDEST PUSH1 0x0 PUSH2 0x2788 DUP3 PUSH2 0x275D JUMP JUMPDEST SWAP1 POP SWAP2 SWAP1 POP JUMP JUMPDEST PUSH2 0x2798 DUP2 PUSH2 0x277D JUMP JUMPDEST DUP2 EQ PUSH2 0x27A3 JUMPI PUSH1 0x0 DUP1 REVERT JUMPDEST POP JUMP JUMPDEST PUSH1 0x0 DUP2 CALLDATALOAD SWAP1 POP PUSH2 0x27B5 DUP2 PUSH2 0x278F JUMP JUMPDEST SWAP3 SWAP2 POP POP JUMP JUMPDEST PUSH1 0x0 DUP1 PUSH1 0x40 DUP4 DUP6 SUB SLT ISZERO PUSH2 0x27D2 JUMPI PUSH2 0x27D1 PUSH2 0x245C JUMP JUMPDEST JUMPDEST PUSH1 0x0 PUSH2 0x27E0 DUP6 DUP3 DUP7 ADD PUSH2 0x2487 JUMP JUMPDEST SWAP3 POP POP PUSH1 0x20 PUSH2 0x27F1 DUP6 DUP3 DUP7 ADD PUSH2 0x27A6 JUMP JUMPDEST SWAP2 POP POP SWAP3 POP SWAP3 SWAP1 POP JUMP JUMPDEST PUSH1 0x3 DUP2 LT PUSH2 0x280C JUMPI PUSH2 0x280B PUSH2 0x24C9 JUMP JUMPDEST JUMPDEST POP JUMP JUMPDEST PUSH1 0x0 DUP2 SWAP1 POP PUSH2 0x281D DUP3 PUSH2 0x27FB JUMP JUMPDEST SWAP2 SWAP1 POP JUMP JUMPDEST PUSH1 0x0 PUSH2 0x282D DUP3 PUSH2 0x280F JUMP JUMPDEST SWAP1 POP SWAP2 SWAP1 POP JUMP JUMPDEST PUSH2 0x283D DUP2 PUSH2 0x2822 JUMP JUMPDEST DUP3 MSTORE POP POP JUMP JUMPDEST PUSH1 0x0 PUSH16 0xFFFFFFFFFFFFFFFFFFFFFFFFFFFFFFFF DUP3 AND SWAP1 POP SWAP2 SWAP1 POP JUMP JUMPDEST PUSH1 0x0 DUP2 SWAP1 POP SWAP2 SWAP1 POP JUMP JUMPDEST PUSH1 0x0 PUSH2 0x2884 PUSH2 0x287F PUSH2 0x287A DUP5 PUSH2 0x2843 JUMP JUMPDEST PUSH2 0x285F JUMP JUMPDEST PUSH2 0x2843 JUMP JUMPDEST SWAP1 POP SWAP2 SWAP1 POP JUMP JUMPDEST PUSH2 0x2894 DUP2 PUSH2 0x2869 JUMP JUMPDEST DUP3 MSTORE POP POP JUMP JUMPDEST PUSH1 0x40 DUP3 ADD PUSH1 0x0 DUP3 ADD MLOAD PUSH2 0x28B0 PUSH1 0x0 DUP6 ADD DUP3 PUSH2 0x2834 JUMP JUMPDEST POP PUSH1 0x20 DUP3 ADD MLOAD PUSH2 0x28C3 PUSH1 0x20 DUP6 ADD DUP3 PUSH2 0x288B JUMP JUMPDEST POP POP POP POP JUMP JUMPDEST PUSH1 0x0 PUSH1 0x40 DUP3 ADD SWAP1 POP PUSH2 0x28DE PUSH1 0x0 DUP4 ADD DUP5 PUSH2 0x289A JUMP JUMPDEST SWAP3 SWAP2 POP POP JUMP JUMPDEST PUSH1 0x0 PUSH1 0x20 DUP3 DUP5 SUB SLT ISZERO PUSH2 0x28FA JUMPI PUSH2 0x28F9 PUSH2 0x245C JUMP JUMPDEST JUMPDEST PUSH1 0x0 PUSH2 0x2908 DUP5 DUP3 DUP6 ADD PUSH2 0x27A6 JUMP JUMPDEST SWAP2 POP POP SWAP3 SWAP2 POP POP JUMP JUMPDEST PUSH1 0x0 DUP1 REVERT JUMPDEST PUSH1 0x0 PUSH1 0x60 DUP3 DUP5 SUB SLT ISZERO PUSH2 0x292C JUMPI PUSH2 0x292B PUSH2 0x2911 JUMP JUMPDEST JUMPDEST DUP2 SWAP1 POP SWAP3 SWAP2 POP POP JUMP JUMPDEST PUSH1 0x0 PUSH1 0x20 DUP3 DUP5 SUB SLT ISZERO PUSH2 0x294B JUMPI PUSH2 0x294A PUSH2 0x245C JUMP JUMPDEST JUMPDEST PUSH1 0x0 DUP3 ADD CALLDATALOAD PUSH8 0xFFFFFFFFFFFFFFFF DUP2 GT ISZERO PUSH2 0x2969 JUMPI PUSH2 0x2968 PUSH2 0x2461 JUMP JUMPDEST JUMPDEST PUSH2 0x2975 DUP5 DUP3 DUP6 ADD PUSH2 0x2916 JUMP JUMPDEST SWAP2 POP POP SWAP3 SWAP2 POP POP JUMP JUMPDEST PUSH1 0x0 PUSH2 0x2989 DUP3 PUSH2 0x2466 JUMP JUMPDEST SWAP1 POP SWAP2 SWAP1 POP JUMP JUMPDEST PUSH2 0x2999 DUP2 PUSH2 0x297E JUMP JUMPDEST DUP3 MSTORE POP POP JUMP JUMPDEST PUSH1 0x0 PUSH1 0x20 DUP3 ADD SWAP1 POP PUSH2 0x29B4 PUSH1 0x0 DUP4 ADD DUP5 PUSH2 0x2990 JUMP JUMPDEST SWAP3 SWAP2 POP POP JUMP JUMPDEST PUSH2 0x29C3 DUP2 PUSH2 0x2869 JUMP JUMPDEST DUP3 MSTORE POP POP JUMP JUMPDEST PUSH1 0x0 PUSH1 0x20 DUP3 ADD SWAP1 POP PUSH2 0x29DE PUSH1 0x0 DUP4 ADD DUP5 PUSH2 0x29BA JUMP JUMPDEST SWAP3 SWAP2 POP POP JUMP JUMPDEST PUSH2 0x29ED DUP2 PUSH2 0x25CF JUMP JUMPDEST DUP3 MSTORE POP POP JUMP JUMPDEST PUSH1 0x0 PUSH1 0x20 DUP3 ADD SWAP1 POP PUSH2 0x2A08 PUSH1 0x0 DUP4 ADD DUP5 PUSH2 0x29E4 JUMP JUMPDEST SWAP3 SWAP2 POP POP JUMP JUMPDEST PUSH1 0x0 PUSH2 0x2A19 DUP3 PUSH2 0x277D JUMP JUMPDEST SWAP1 POP SWAP2 SWAP1 POP JUMP JUMPDEST PUSH2 0x2A29 DUP2 PUSH2 0x2A0E JUMP JUMPDEST DUP2 EQ PUSH2 0x2A34 JUMPI PUSH1 0x0 DUP1 REVERT JUMPDEST POP JUMP JUMPDEST PUSH1 0x0 DUP2 CALLDATALOAD SWAP1 POP PUSH2 0x2A46 DUP2 PUSH2 0x2A20 JUMP JUMPDEST SWAP3 SWAP2 POP POP JUMP JUMPDEST PUSH1 0x0 PUSH1 0x20 DUP3 DUP5 SUB SLT ISZERO PUSH2 0x2A62 JUMPI PUSH2 0x2A61 PUSH2 0x245C JUMP JUMPDEST JUMPDEST PUSH1 0x0 PUSH2 0x2A70 DUP5 DUP3 DUP6 ADD PUSH2 0x2A37 JUMP JUMPDEST SWAP2 POP POP SWAP3 SWAP2 POP POP JUMP JUMPDEST PUSH2 0x2A82 DUP2 PUSH2 0x277D JUMP JUMPDEST DUP3 MSTORE POP POP JUMP JUMPDEST PUSH1 0x0 PUSH1 0x20 DUP3 ADD SWAP1 POP PUSH2 0x2A9D PUSH1 0x0 DUP4 ADD DUP5 PUSH2 0x2A79 JUMP JUMPDEST SWAP3 SWAP2 POP POP JUMP JUMPDEST PUSH1 0x4 DUP2 LT PUSH2 0x2AB4 JUMPI PUSH2 0x2AB3 PUSH2 0x24C9 JUMP JUMPDEST JUMPDEST POP JUMP JUMPDEST PUSH1 0x0 DUP2 SWAP1 POP PUSH2 0x2AC5 DUP3 PUSH2 0x2AA3 JUMP JUMPDEST SWAP2 SWAP1 POP JUMP JUMPDEST PUSH1 0x0 PUSH2 0x2AD5 DUP3 PUSH2 0x2AB7 JUMP JUMPDEST SWAP1 POP SWAP2 SWAP1 POP JUMP JUMPDEST PUSH2 0x2AE5 DUP2 PUSH2 0x2ACA JUMP JUMPDEST DUP3 MSTORE POP POP JUMP JUMPDEST PUSH1 0x0 PUSH1 0x20 DUP3 ADD SWAP1 POP PUSH2 0x2B00 PUSH1 0x0 DUP4 ADD DUP5 PUSH2 0x2ADC JUMP JUMPDEST SWAP3 SWAP2 POP POP JUMP JUMPDEST PUSH1 0x3 DUP2 LT PUSH2 0x2B13 JUMPI PUSH1 0x0 DUP1 REVERT JUMPDEST POP JUMP JUMPDEST PUSH1 0x0 DUP2 CALLDATALOAD SWAP1 POP PUSH2 0x2B25 DUP2 PUSH2 0x2B06 JUMP JUMPDEST SWAP3 SWAP2 POP POP JUMP JUMPDEST PUSH1 0x0 DUP1 PUSH1 0x0 DUP1 PUSH1 0x60 DUP6 DUP8 SUB SLT ISZERO PUSH2 0x2B45 JUMPI PUSH2 0x2B44 PUSH2 0x245C JUMP JUMPDEST JUMPDEST PUSH1 0x0 PUSH2 0x2B53 DUP8 DUP3 DUP9 ADD PUSH2 0x2487 JUMP JUMPDEST SWAP5 POP POP PUSH1 0x20 PUSH2 0x2B64 DUP8 DUP3 DUP9 ADD PUSH2 0x2B16 JUMP JUMPDEST SWAP4 POP POP PUSH1 0x40 DUP6 ADD CALLDATALOAD PUSH8 0xFFFFFFFFFFFFFFFF DUP2 GT ISZERO PUSH2 0x2B85 JUMPI PUSH2 0x2B84 PUSH2 0x2461 JUMP JUMPDEST JUMPDEST PUSH2 0x2B91 DUP8 DUP3 DUP9 ADD PUSH2 0x2617 JUMP JUMPDEST SWAP3 POP SWAP3 POP POP SWAP3 SWAP6 SWAP2 SWAP5 POP SWAP3 POP JUMP JUMPDEST PUSH2 0x2BA8 DUP2 PUSH2 0x255B JUMP JUMPDEST DUP2 EQ PUSH2 0x2BB3 JUMPI PUSH1 0x0 DUP1 REVERT JUMPDEST POP JUMP JUMPDEST PUSH1 0x0 DUP2 CALLDATALOAD SWAP1 POP PUSH2 0x2BC5 DUP2 PUSH2 0x2B9F JUMP JUMPDEST SWAP3 SWAP2 POP POP JUMP JUMPDEST PUSH1 0x0 DUP1 PUSH1 0x40 DUP4 DUP6 SUB SLT ISZERO PUSH2 0x2BE2 JUMPI PUSH2 0x2BE1 PUSH2 0x245C JUMP JUMPDEST JUMPDEST PUSH1 0x0 PUSH2 0x2BF0 DUP6 DUP3 DUP7 ADD PUSH2 0x2BB6 JUMP JUMPDEST SWAP3 POP POP PUSH1 0x20 PUSH2 0x2C01 DUP6 DUP3 DUP7 ADD PUSH2 0x2BB6 JUMP JUMPDEST SWAP2 POP POP SWAP3 POP SWAP3 SWAP1 POP JUMP JUMPDEST PUSH1 0x0 PUSH1 0x20 DUP3 DUP5 SUB SLT ISZERO PUSH2 0x2C21 JUMPI PUSH2 0x2C20 PUSH2 0x245C JUMP JUMPDEST JUMPDEST PUSH1 0x0 PUSH2 0x2C2F DUP5 DUP3 DUP6 ADD PUSH2 0x25F3 JUMP JUMPDEST SWAP2 POP POP SWAP3 SWAP2 POP POP JUMP JUMPDEST PUSH1 0x0 DUP3 DUP3 MSTORE PUSH1 0x20 DUP3 ADD SWAP1 POP SWAP3 SWAP2 POP POP JUMP JUMPDEST DUP3 DUP2 DUP4 CALLDATACOPY PUSH1 0x0 DUP4 DUP4 ADD MSTORE POP POP POP JUMP JUMPDEST PUSH1 0x0 PUSH1 0x1F NOT PUSH1 0x1F DUP4 ADD AND SWAP1 POP SWAP2 SWAP1 POP JUMP JUMPDEST PUSH1 0x0 PUSH2 0x2C75 DUP4 DUP6 PUSH2 0x2C38 JUMP JUMPDEST SWAP4 POP PUSH2 0x2C82 DUP4 DUP6 DUP5 PUSH2 0x2C49 JUMP JUMPDEST PUSH2 0x2C8B DUP4 PUSH2 0x2C58 JUMP JUMPDEST DUP5 ADD SWAP1 POP SWAP4 SWAP3 POP POP POP JUMP JUMPDEST PUSH1 0x0 PUSH1 0x20 DUP3 ADD SWAP1 POP DUP2 DUP2 SUB PUSH1 0x0 DUP4 ADD MSTORE PUSH2 0x2CB1 DUP2 DUP5 DUP7 PUSH2 0x2C69 JUMP JUMPDEST SWAP1 POP SWAP4 SWAP3 POP POP POP JUMP JUMPDEST PUSH1 0x0 DUP2 MLOAD SWAP1 POP PUSH2 0x2CC9 DUP2 PUSH2 0x26CD JUMP JUMPDEST SWAP3 SWAP2 POP POP JUMP JUMPDEST PUSH1 0x0 PUSH1 0x20 DUP3 DUP5 SUB SLT ISZERO PUSH2 0x2CE5 JUMPI PUSH2 0x2CE4 PUSH2 0x245C JUMP JUMPDEST JUMPDEST PUSH1 0x0 PUSH2 0x2CF3 DUP5 DUP3 DUP6 ADD PUSH2 0x2CBA JUMP JUMPDEST SWAP2 POP POP SWAP3 SWAP2 POP POP JUMP JUMPDEST PUSH1 0x0 DUP1 REVERT JUMPDEST PUSH1 0x0 DUP1 REVERT JUMPDEST PUSH1 0x0 DUP1 REVERT JUMPDEST PUSH1 0x0 DUP1 DUP4 CALLDATALOAD PUSH1 0x1 PUSH1 0x20 SUB DUP5 CALLDATASIZE SUB SUB DUP2 SLT PUSH2 0x2D28 JUMPI PUSH2 0x2D27 PUSH2 0x2CFC JUMP JUMPDEST JUMPDEST DUP1 DUP5 ADD SWAP3 POP DUP3 CALLDATALOAD SWAP2 POP PUSH8 0xFFFFFFFFFFFFFFFF DUP3 GT ISZERO PUSH2 0x2D4A JUMPI PUSH2 0x2D49 PUSH2 0x2D01 JUMP JUMPDEST JUMPDEST PUSH1 0x20 DUP4 ADD SWAP3 POP PUSH1 0x1 DUP3 MUL CALLDATASIZE SUB DUP4 SGT ISZERO PUSH2 0x2D66 JUMPI PUSH2 0x2D65 PUSH2 0x2D06 JUMP JUMPDEST JUMPDEST POP SWAP3 POP SWAP3 SWAP1 POP JUMP JUMPDEST PUSH1 0x0 DUP2 PUSH1 0x60 SHL SWAP1 POP SWAP2 SWAP1 POP JUMP JUMPDEST PUSH1 0x0 PUSH2 0x2D86 DUP3 PUSH2 0x2D6E JUMP JUMPDEST SWAP1 POP SWAP2 SWAP1 POP JUMP JUMPDEST PUSH1 0x0 PUSH2 0x2D98 DUP3 PUSH2 0x2D7B JUMP JUMPDEST SWAP1 POP SWAP2 SWAP1 POP JUMP JUMPDEST PUSH2 0x2DB0 PUSH2 0x2DAB DUP3 PUSH2 0x277D JUMP JUMPDEST PUSH2 0x2D8D JUMP JUMPDEST DUP3 MSTORE POP POP JUMP JUMPDEST PUSH1 0x0 DUP2 SWAP1 POP SWAP3 SWAP2 POP POP JUMP JUMPDEST PUSH1 0x0 PUSH2 0x2DCD DUP4 DUP6 PUSH2 0x2DB6 JUMP JUMPDEST SWAP4 POP PUSH2 0x2DDA DUP4 DUP6 DUP5 PUSH2 0x2C49 JUMP JUMPDEST DUP3 DUP5 ADD SWAP1 POP SWAP4 SWAP3 POP POP POP JUMP JUMPDEST PUSH1 0x0 PUSH2 0x2DF2 DUP3 DUP9 PUSH2 0x2D9F JUMP JUMPDEST PUSH1 0x14 DUP3 ADD SWAP2 POP PUSH2 0x2E03 DUP3 DUP7 DUP9 PUSH2 0x2DC1 JUMP JUMPDEST SWAP2 POP PUSH2 0x2E10 DUP3 DUP5 DUP7 PUSH2 0x2DC1 JUMP JUMPDEST SWAP2 POP DUP2 SWAP1 POP SWAP7 SWAP6 POP POP POP POP POP POP JUMP JUMPDEST PUSH32 0x4E487B7100000000000000000000000000000000000000000000000000000000 PUSH1 0x0 MSTORE PUSH1 0x11 PUSH1 0x4 MSTORE PUSH1 0x24 PUSH1 0x0 REVERT JUMPDEST PUSH1 0x0 PUSH2 0x2E59 DUP3 PUSH2 0x2843 JUMP JUMPDEST SWAP2 POP PUSH2 0x2E64 DUP4 PUSH2 0x2843 JUMP JUMPDEST SWAP3 POP DUP3 DUP3 SUB SWAP1 POP PUSH16 0xFFFFFFFFFFFFFFFFFFFFFFFFFFFFFFFF DUP2 GT ISZERO PUSH2 0x2E8C JUMPI PUSH2 0x2E8B PUSH2 0x2E1F JUMP JUMPDEST JUMPDEST SWAP3 SWAP2 POP POP JUMP JUMPDEST PUSH32 0x4E487B7100000000000000000000000000000000000000000000000000000000 PUSH1 0x0 MSTORE PUSH1 0x1 PUSH1 0x4 MSTORE PUSH1 0x24 PUSH1 0x0 REVERT JUMPDEST PUSH1 0x0 PUSH2 0x2ECE DUP3 DUP5 DUP7 PUSH2 0x2DC1 JUMP JUMPDEST SWAP2 POP DUP2 SWAP1 POP SWAP4 SWAP3 POP POP POP JUMP JUMPDEST PUSH1 0x0 DUP2 MLOAD SWAP1 POP SWAP2 SWAP1 POP JUMP JUMPDEST PUSH1 0x0 JUMPDEST DUP4 DUP2 LT ISZERO PUSH2 0x2F03 JUMPI DUP1 DUP3 ADD MLOAD DUP2 DUP5 ADD MSTORE PUSH1 0x20 DUP2 ADD SWAP1 POP PUSH2 0x2EE8 JUMP JUMPDEST PUSH1 0x0 DUP5 DUP5 ADD MSTORE POP POP POP POP JUMP JUMPDEST PUSH1 0x0 PUSH2 0x2F1A DUP3 PUSH2 0x2EDA JUMP JUMPDEST PUSH2 0x2F24 DUP2 DUP6 PUSH2 0x2C38 JUMP JUMPDEST SWAP4 POP PUSH2 0x2F34 DUP2 DUP6 PUSH1 0x20 DUP7 ADD PUSH2 0x2EE5 JUMP JUMPDEST PUSH2 0x2F3D DUP2 PUSH2 0x2C58 JUMP JUMPDEST DUP5 ADD SWAP2 POP POP SWAP3 SWAP2 POP POP JUMP JUMPDEST PUSH1 0x0 PUSH1 0x20 DUP3 ADD SWAP1 POP DUP2 DUP2 SUB PUSH1 0x0 DUP4 ADD MSTORE PUSH2 0x2F62 DUP2 DUP5 PUSH2 0x2F0F JUMP JUMPDEST SWAP1 POP SWAP3 SWAP2 POP POP JUMP JUMPDEST PUSH32 0x4E487B7100000000000000000000000000000000000000000000000000000000 PUSH1 0x0 MSTORE PUSH1 0x12 PUSH1 0x4 MSTORE PUSH1 0x24 PUSH1 0x0 REVERT JUMPDEST PUSH1 0x0 PUSH2 0x2FA4 DUP3 PUSH2 0x2428 JUMP JUMPDEST SWAP2 POP PUSH2 0x2FAF DUP4 PUSH2 0x2428 JUMP JUMPDEST SWAP3 POP DUP3 PUSH2 0x2FBF JUMPI PUSH2 0x2FBE PUSH2 0x2F6A JUMP JUMPDEST JUMPDEST DUP3 DUP3 DIV SWAP1 POP SWAP3 SWAP2 POP POP JUMP JUMPDEST PUSH1 0x0 PUSH2 0x2FD5 DUP3 PUSH2 0x2428 JUMP JUMPDEST SWAP2 POP PUSH2 0x2FE0 DUP4 PUSH2 0x2428 JUMP JUMPDEST SWAP3 POP DUP3 DUP3 SUB SWAP1 POP DUP2 DUP2 GT ISZERO PUSH2 0x2FF8 JUMPI PUSH2 0x2FF7 PUSH2 0x2E1F JUMP JUMPDEST JUMPDEST SWAP3 SWAP2 POP POP JUMP JUMPDEST PUSH1 0x0 PUSH2 0x3009 DUP3 PUSH2 0x255B JUMP JUMPDEST SWAP2 POP PUSH2 0x3014 DUP4 PUSH2 0x255B JUMP JUMPDEST SWAP3 POP DUP3 DUP3 ADD SWAP1 POP PUSH8 0xFFFFFFFFFFFFFFFF DUP2 GT ISZERO PUSH2 0x3034 JUMPI PUSH2 0x3033 PUSH2 0x2E1F JUMP JUMPDEST JUMPDEST SWAP3 SWAP2 POP POP JUMP JUMPDEST PUSH1 0x0 PUSH32 0xFFFFFFFF00000000000000000000000000000000000000000000000000000000 DUP3 AND SWAP1 POP SWAP2 SWAP1 POP JUMP JUMPDEST PUSH2 0x306F DUP2 PUSH2 0x303A JUMP JUMPDEST DUP3 MSTORE POP POP JUMP JUMPDEST PUSH1 0x0 PUSH1 0x20 DUP3 ADD SWAP1 POP PUSH2 0x308A PUSH1 0x0 DUP4 ADD DUP5 PUSH2 0x3066 JUMP JUMPDEST SWAP3 SWAP2 POP POP JUMP JUMPDEST PUSH2 0x3099 DUP2 PUSH2 0x2599 JUMP JUMPDEST DUP2 EQ PUSH2 0x30A4 JUMPI PUSH1 0x0 DUP1 REVERT JUMPDEST POP JUMP JUMPDEST PUSH1 0x0 DUP2 MLOAD SWAP1 POP PUSH2 0x30B6 DUP2 PUSH2 0x3090 JUMP JUMPDEST SWAP3 SWAP2 POP POP JUMP JUMPDEST PUSH1 0x0 PUSH1 0x20 DUP3 DUP5 SUB SLT ISZERO PUSH2 0x30D2 JUMPI PUSH2 0x30D1 PUSH2 0x245C JUMP JUMPDEST JUMPDEST PUSH1 0x0 PUSH2 0x30E0 DUP5 DUP3 DUP6 ADD PUSH2 0x30A7 JUMP JUMPDEST SWAP2 POP POP SWAP3 SWAP2 POP POP JUMP JUMPDEST PUSH2 0x30F2 DUP2 PUSH2 0x2822 JUMP JUMPDEST DUP3 MSTORE POP POP JUMP JUMPDEST PUSH1 0x0 PUSH1 0x40 DUP3 ADD SWAP1 POP PUSH2 0x310D PUSH1 0x0 DUP4 ADD DUP6 PUSH2 0x30E9 JUMP JUMPDEST PUSH2 0x311A PUSH1 0x20 DUP4 ADD DUP5 PUSH2 0x30E9 JUMP JUMPDEST SWAP4 SWAP3 POP POP POP JUMP JUMPDEST PUSH1 0x0 PUSH1 0x20 DUP3 ADD SWAP1 POP PUSH2 0x3136 PUSH1 0x0 DUP4 ADD DUP5 PUSH2 0x30E9 JUMP JUMPDEST SWAP3 SWAP2 POP POP JUMP JUMPDEST PUSH1 0x0 PUSH2 0x3147 DUP3 PUSH2 0x2428 JUMP JUMPDEST SWAP2 POP PUSH2 0x3152 DUP4 PUSH2 0x2428 JUMP JUMPDEST SWAP3 POP DUP3 DUP3 MUL PUSH2 0x3160 DUP2 PUSH2 0x2428 JUMP JUMPDEST SWAP2 POP DUP3 DUP3 DIV DUP5 EQ DUP4 ISZERO OR PUSH2 0x3177 JUMPI PUSH2 0x3176 PUSH2 0x2E1F JUMP JUMPDEST JUMPDEST POP SWAP3 SWAP2 POP POP JUMP JUMPDEST PUSH32 0x4E487B7100000000000000000000000000000000000000000000000000000000 PUSH1 0x0 MSTORE PUSH1 0x41 PUSH1 0x4 MSTORE PUSH1 0x24 PUSH1 0x0 REVERT JUMPDEST PUSH32 0x4E487B7100000000000000000000000000000000000000000000000000000000 PUSH1 0x0 MSTORE PUSH1 0x32 PUSH1 0x4 MSTORE PUSH1 0x24 PUSH1 0x0 REVERT JUMPDEST PUSH1 0x0 PUSH2 0x31E7 DUP3 PUSH2 0x2428 JUMP JUMPDEST SWAP2 POP PUSH2 0x31F2 DUP4 PUSH2 0x2428 JUMP JUMPDEST SWAP3 POP DUP3 DUP3 ADD SWAP1 POP DUP1 DUP3 GT ISZERO PUSH2 0x320A JUMPI PUSH2 0x3209 PUSH2 0x2E1F JUMP JUMPDEST JUMPDEST SWAP3 SWAP2 POP POP JUMP JUMPDEST PUSH32 0x4E487B7100000000000000000000000000000000000000000000000000000000 PUSH1 0x0 MSTORE PUSH1 0x31 PUSH1 0x4 MSTORE PUSH1 0x24 PUSH1 0x0 REVERT INVALID LOG2 PUSH5 0x6970667358 0x22 SLT KECCAK256 0x27 SIGNEXTEND DUP9 0x27 0xBA 0x26 SAR PUSH20 0x30A4903E2AFDAA9B125FD849836844BF7EEE11C9 PUSH31 0x11A27A64736F6C634300081800330000000000000000000000000000000000 "},"methodIdentifiers":{"cancelProposal(bytes32)":"37376ca8","execute((address,bytes,bytes))":"fd165a73","getLiveVote(bytes32,address)":"4cc74011","getStage(bytes32)":"ae844f74","getVoteStatus(bytes32)":"0cfe734d","isLive(bytes32)":"cedd3a0e","isVetoOrVotePeriod(bytes32)":"d8cf3528","isVetoPeriod(bytes32)":"272d16f2","isVoteActive(bytes32)":"40a27abc","isVotePeriod(bytes32)":"12007fc9","maxLiveYesVotes()":"87c5cbbb","minWeight()":"0c2ee55e","owner()":"8da5cb5b","proposalExists(bytes32)":"4410a944","proposalId((address,bytes,bytes))":"5b4654a9","proposals(bytes32)":"32ed5b12","propose(bytes32)":"99882cdb","renounceOwnership()":"715018a6","respectContract()":"be142264","respectOf(address)":"58970ca8","setMaxLiveVotes(uint8)":"e89075c7","setMinWeight(uint256)":"20cea51a","setPeriodLengths(uint64,uint64)":"dfb40ded","setRespectContract(address)":"8c7ecf8d","signal(uint8,bytes)":"141d51cb","transferOwnership(address)":"f2fde38b","vetoLen()":"0ee572fd","vote(bytes32,uint8,bytes)":"d50b2843","voteLen()":"cb156a4a","voteWeightOf(address)":"7fb8b61e"}}}}}