{"contracts/Orec.sol":{"Orec":{"abi":[{"inputs":[{"internalType":"contract IERC165","name":"respectContract_","type":"address"},{"internalType":"uint64","name":"voteLenSeconds_","type":"uint64"},{"internalType":"uint64","name":"vetoLenSeconds_","type":"uint64"},{"internalType":"uint256","name":"minWeight_","type":"uint256"},{"internalType":"uint8","name":"maxLiveYesVotes_","type":"uint8"}],"stateMutability":"nonpayable","type":"constructor"},{"inputs":[{"internalType":"enum Orec.VoteType","name":"prevVote","type":"uint8"},{"internalType":"enum Orec.VoteType","name":"newVote","type":"uint8"}],"name":"AlreadyVoted","type":"error"},{"inputs":[],"name":"InvalidVote","type":"error"},{"inputs":[],"name":"MaxLiveYesVotesExceeded","type":"error"},{"inputs":[],"name":"OutOfGas","type":"error"},{"inputs":[{"internalType":"address","name":"owner","type":"address"}],"name":"OwnableInvalidOwner","type":"error"},{"inputs":[{"internalType":"address","name":"account","type":"address"}],"name":"OwnableUnauthorizedAccount","type":"error"},{"inputs":[],"name":"ProposalAlreadyExecuted","type":"error"},{"inputs":[],"name":"ProposalAlreadyExists","type":"error"},{"inputs":[],"name":"ProposalDoesNotExist","type":"error"},{"inputs":[],"name":"ProposalNotExpired","type":"error"},{"inputs":[],"name":"ProposalNotPassed","type":"error"},{"inputs":[],"name":"ProposalVoteInactive","type":"error"},{"inputs":[],"name":"UnsupportedRespectContract","type":"error"},{"inputs":[],"name":"VoteEnded","type":"error"},{"inputs":[],"name":"VotePeriodOver","type":"error"},{"anonymous":false,"inputs":[{"indexed":true,"internalType":"Orec.PropId","name":"propId","type":"bytes32"},{"indexed":true,"internalType":"address","name":"voter","type":"address"},{"indexed":false,"internalType":"enum Orec.VoteType","name":"vtype","type":"uint8"}],"name":"EmptyVoteIn","type":"event"},{"anonymous":false,"inputs":[{"indexed":true,"internalType":"Orec.PropId","name":"propId","type":"bytes32"},{"indexed":false,"internalType":"bytes","name":"retVal","type":"bytes"}],"name":"Executed","type":"event"},{"anonymous":false,"inputs":[{"indexed":true,"internalType":"Orec.PropId","name":"propId","type":"bytes32"},{"indexed":false,"internalType":"bytes","name":"retVal","type":"bytes"}],"name":"ExecutionFailed","type":"event"},{"anonymous":false,"inputs":[{"indexed":true,"internalType":"address","name":"previousOwner","type":"address"},{"indexed":true,"internalType":"address","name":"newOwner","type":"address"}],"name":"OwnershipTransferred","type":"event"},{"anonymous":false,"inputs":[{"indexed":true,"internalType":"Orec.PropId","name":"propId","type":"bytes32"}],"name":"ProposalCanceled","type":"event"},{"anonymous":false,"inputs":[{"indexed":true,"internalType":"Orec.PropId","name":"propId","type":"bytes32"}],"name":"ProposalCreated","type":"event"},{"anonymous":false,"inputs":[{"indexed":true,"internalType":"uint8","name":"signalType","type":"uint8"},{"indexed":false,"internalType":"bytes","name":"data","type":"bytes"}],"name":"Signal","type":"event"},{"anonymous":false,"inputs":[{"indexed":true,"internalType":"Orec.PropId","name":"propId","type":"bytes32"},{"indexed":true,"internalType":"address","name":"voter","type":"address"},{"components":[{"internalType":"enum Orec.VoteType","name":"vtype","type":"uint8"},{"internalType":"Orec.VoteWeight","name":"weight","type":"uint128"}],"indexed":false,"internalType":"struct Orec.Vote","name":"vote","type":"tuple"}],"name":"WeightedVoteIn","type":"event"},{"inputs":[{"internalType":"Orec.PropId","name":"propId","type":"bytes32"}],"name":"cancelProposal","outputs":[],"stateMutability":"nonpayable","type":"function"},{"inputs":[{"components":[{"internalType":"address","name":"addr","type":"address"},{"internalType":"bytes","name":"cdata","type":"bytes"},{"internalType":"bytes","name":"memo","type":"bytes"}],"internalType":"struct Orec.Message","name":"message","type":"tuple"}],"name":"execute","outputs":[{"internalType":"bool","name":"","type":"bool"}],"stateMutability":"nonpayable","type":"function"},{"inputs":[{"internalType":"Orec.PropId","name":"propId","type":"bytes32"},{"internalType":"address","name":"voter","type":"address"}],"name":"getLiveVote","outputs":[{"components":[{"internalType":"enum Orec.VoteType","name":"vtype","type":"uint8"},{"internalType":"Orec.VoteWeight","name":"weight","type":"uint128"}],"internalType":"struct Orec.Vote","name":"","type":"tuple"}],"stateMutability":"view","type":"function"},{"inputs":[{"internalType":"Orec.PropId","name":"propId","type":"bytes32"}],"name":"getStage","outputs":[{"internalType":"enum Orec.Stage","name":"","type":"uint8"}],"stateMutability":"view","type":"function"},{"inputs":[{"internalType":"Orec.PropId","name":"propId","type":"bytes32"}],"name":"getVoteStatus","outputs":[{"internalType":"enum Orec.VoteStatus","name":"","type":"uint8"}],"stateMutability":"view","type":"function"},{"inputs":[{"internalType":"Orec.PropId","name":"propId","type":"bytes32"}],"name":"isLive","outputs":[{"internalType":"bool","name":"","type":"bool"}],"stateMutability":"view","type":"function"},{"inputs":[{"internalType":"Orec.PropId","name":"propId","type":"bytes32"}],"name":"isVetoOrVotePeriod","outputs":[{"internalType":"bool","name":"","type":"bool"}],"stateMutability":"view","type":"function"},{"inputs":[{"internalType":"Orec.PropId","name":"propId","type":"bytes32"}],"name":"isVetoPeriod","outputs":[{"internalType":"bool","name":"","type":"bool"}],"stateMutability":"view","type":"function"},{"inputs":[{"internalType":"Orec.PropId","name":"propId","type":"bytes32"}],"name":"isVoteActive","outputs":[{"internalType":"bool","name":"","type":"bool"}],"stateMutability":"view","type":"function"},{"inputs":[{"internalType":"Orec.PropId","name":"propId","type":"bytes32"}],"name":"isVotePeriod","outputs":[{"internalType":"bool","name":"","type":"bool"}],"stateMutability":"view","type":"function"},{"inputs":[],"name":"maxLiveYesVotes","outputs":[{"internalType":"uint8","name":"","type":"uint8"}],"stateMutability":"view","type":"function"},{"inputs":[],"name":"minWeight","outputs":[{"internalType":"uint256","name":"","type":"uint256"}],"stateMutability":"view","type":"function"},{"inputs":[],"name":"owner","outputs":[{"internalType":"address","name":"","type":"address"}],"stateMutability":"view","type":"function"},{"inputs":[{"internalType":"Orec.PropId","name":"propId","type":"bytes32"}],"name":"proposalExists","outputs":[{"internalType":"bool","name":"","type":"bool"}],"stateMutability":"view","type":"function"},{"inputs":[{"components":[{"internalType":"address","name":"addr","type":"address"},{"internalType":"bytes","name":"cdata","type":"bytes"},{"internalType":"bytes","name":"memo","type":"bytes"}],"internalType":"struct Orec.Message","name":"message","type":"tuple"}],"name":"proposalId","outputs":[{"internalType":"Orec.PropId","name":"","type":"bytes32"}],"stateMutability":"pure","type":"function"},{"inputs":[{"internalType":"Orec.PropId","name":"","type":"bytes32"}],"name":"proposals","outputs":[{"internalType":"uint256","name":"createTime","type":"uint256"},{"internalType":"uint256","name":"yesWeight","type":"uint256"},{"internalType":"uint256","name":"noWeight","type":"uint256"}],"stateMutability":"view","type":"function"},{"inputs":[{"internalType":"Orec.PropId","name":"propId","type":"bytes32"}],"name":"propose","outputs":[],"stateMutability":"nonpayable","type":"function"},{"inputs":[],"name":"renounceOwnership","outputs":[],"stateMutability":"nonpayable","type":"function"},{"inputs":[],"name":"respectContract","outputs":[{"internalType":"address","name":"","type":"address"}],"stateMutability":"view","type":"function"},{"inputs":[{"internalType":"address","name":"account","type":"address"}],"name":"respectOf","outputs":[{"internalType":"uint256","name":"","type":"uint256"}],"stateMutability":"view","type":"function"},{"inputs":[{"internalType":"uint8","name":"newMaxLiveVotes","type":"uint8"}],"name":"setMaxLiveVotes","outputs":[],"stateMutability":"nonpayable","type":"function"},{"inputs":[{"internalType":"uint256","name":"newMinWeigth","type":"uint256"}],"name":"setMinWeight","outputs":[],"stateMutability":"nonpayable","type":"function"},{"inputs":[{"internalType":"contract IERC165","name":"respect","type":"address"}],"name":"setRespectContract","outputs":[],"stateMutability":"nonpayable","type":"function"},{"inputs":[{"internalType":"uint64","name":"newVetoLen","type":"uint64"}],"name":"setVetoLen","outputs":[],"stateMutability":"nonpayable","type":"function"},{"inputs":[{"internalType":"uint64","name":"newVoteLen","type":"uint64"}],"name":"setVoteLen","outputs":[],"stateMutability":"nonpayable","type":"function"},{"inputs":[{"internalType":"uint8","name":"signalType","type":"uint8"},{"internalType":"bytes","name":"data","type":"bytes"}],"name":"signal","outputs":[],"stateMutability":"nonpayable","type":"function"},{"inputs":[{"internalType":"address","name":"newOwner","type":"address"}],"name":"transferOwnership","outputs":[],"stateMutability":"nonpayable","type":"function"},{"inputs":[],"name":"vetoLen","outputs":[{"internalType":"uint64","name":"","type":"uint64"}],"stateMutability":"view","type":"function"},{"inputs":[{"internalType":"Orec.PropId","name":"propId","type":"bytes32"},{"internalType":"enum Orec.VoteType","name":"voteType","type":"uint8"},{"internalType":"bytes","name":"","type":"bytes"}],"name":"vote","outputs":[],"stateMutability":"nonpayable","type":"function"},{"inputs":[],"name":"voteLen","outputs":[{"internalType":"uint64","name":"","type":"uint64"}],"stateMutability":"view","type":"function"},{"inputs":[{"internalType":"address","name":"account","type":"address"}],"name":"voteWeightOf","outputs":[{"internalType":"Orec.VoteWeight","name":"","type":"uint128"}],"stateMutability":"view","type":"function"}],"evm":{"bytecode":{"linkReferences":{},"object":"60806040523480156200001157600080fd5b5060405162003a1138038062003a1183398181016040528101906200003791906200058e565b30600073ffffffffffffffffffffffffffffffffffffffff168173ffffffffffffffffffffffffffffffffffffffff1603620000ad5760006040517f1e4fbdf7000000000000000000000000000000000000000000000000000000008152600401620000a4919062000627565b60405180910390fd5b620000be816200014f60201b60201c565b50620000d0856200021360201b60201c565b83600060146101000a81548167ffffffffffffffff021916908367ffffffffffffffff16021790555082600160006101000a81548167ffffffffffffffff021916908367ffffffffffffffff1602179055508160028190555080600360156101000a81548160ff021916908360ff16021790555050505050506200076e565b60008060009054906101000a900473ffffffffffffffffffffffffffffffffffffffff169050816000806101000a81548173ffffffffffffffffffffffffffffffffffffffff021916908373ffffffffffffffffffffffffffffffffffffffff1602179055508173ffffffffffffffffffffffffffffffffffffffff168173ffffffffffffffffffffffffffffffffffffffff167f8be0079c531659141344cd1fd0a4f28419497f9722a3daafe3b4186f6b6457e060405160405180910390a35050565b60008190508173ffffffffffffffffffffffffffffffffffffffff166301ffc9a77f58970ca8000000000000000000000000000000000000000000000000000000006040518263ffffffff1660e01b815260040162000273919062000681565b602060405180830381865afa15801562000291573d6000803e3d6000fd5b505050506040513d601f19601f82011682018060405250810190620002b79190620006db565b15620002f1576000600360146101000a81548160ff02191690836001811115620002e657620002e56200070d565b5b02179055506200040d565b60008173ffffffffffffffffffffffffffffffffffffffff166370a08231306040518263ffffffff1660e01b81526004016200032e919062000627565b602060405180830381865afa1580156200034c573d6000803e3d6000fd5b505050506040513d601f19601f820116820180604052508101906200037291906200073c565b905060008110158015620003a657507fffffffffffffffffffffffffffffffffffffffffffffffffffffffffffffffff8111155b620003dd576040517fadd3c86f00000000000000000000000000000000000000000000000000000000815260040160405180910390fd5b6001600360146101000a81548160ff021916908360018111156200040657620004056200070d565b5b0217905550505b80600360006101000a81548173ffffffffffffffffffffffffffffffffffffffff021916908373ffffffffffffffffffffffffffffffffffffffff1602179055505050565b600080fd5b600073ffffffffffffffffffffffffffffffffffffffff82169050919050565b6000620004848262000457565b9050919050565b6000620004988262000477565b9050919050565b620004aa816200048b565b8114620004b657600080fd5b50565b600081519050620004ca816200049f565b92915050565b600067ffffffffffffffff82169050919050565b620004ef81620004d0565b8114620004fb57600080fd5b50565b6000815190506200050f81620004e4565b92915050565b6000819050919050565b6200052a8162000515565b81146200053657600080fd5b50565b6000815190506200054a816200051f565b92915050565b600060ff82169050919050565b620005688162000550565b81146200057457600080fd5b50565b60008151905062000588816200055d565b92915050565b600080600080600060a08688031215620005ad57620005ac62000452565b5b6000620005bd88828901620004b9565b9550506020620005d088828901620004fe565b9450506040620005e388828901620004fe565b9350506060620005f68882890162000539565b9250506080620006098882890162000577565b9150509295509295909350565b620006218162000477565b82525050565b60006020820190506200063e600083018462000616565b92915050565b60007fffffffff0000000000000000000000000000000000000000000000000000000082169050919050565b6200067b8162000644565b82525050565b600060208201905062000698600083018462000670565b92915050565b60008115159050919050565b620006b5816200069e565b8114620006c157600080fd5b50565b600081519050620006d581620006aa565b92915050565b600060208284031215620006f457620006f362000452565b5b60006200070484828501620006c4565b91505092915050565b7f4e487b7100000000000000000000000000000000000000000000000000000000600052602160045260246000fd5b60006020828403121562000755576200075462000452565b5b6000620007658482850162000539565b91505092915050565b613293806200077e6000396000f3fe608060405234801561001057600080fd5b50600436106101e55760003560e01c80637fb8b61e1161010f578063cb156a4a116100a2578063d8cf352811610071578063d8cf3528146105ca578063e89075c7146105fa578063f2fde38b14610616578063fd165a7314610632576101e5565b8063cb156a4a14610544578063ce5b3b3914610562578063cedd3a0e1461057e578063d50b2843146105ae576101e5565b806399882cdb116100de57806399882cdb146104be578063ae844f74146104da578063bd5ab94f1461050a578063be14226414610526576101e5565b80637fb8b61e1461043657806387c5cbbb146104665780638c7ecf8d146104845780638da5cb5b146104a0576101e5565b806332ed5b12116101875780634cc74011116101565780634cc740111461039c57806358970ca8146103cc5780635b4654a9146103fc578063715018a61461042c576101e5565b806332ed5b12146102ee57806337376ca81461032057806340a27abc1461033c5780634410a9441461036c576101e5565b806312007fc9116101c357806312007fc914610256578063141d51cb1461028657806320cea51a146102a2578063272d16f2146102be576101e5565b80630c2ee55e146101ea5780630cfe734d146102085780630ee572fd14610238575b600080fd5b6101f2610662565b6040516101ff9190612472565b60405180910390f35b610222600480360381019061021d91906124cd565b610668565b60405161022f9190612571565b60405180910390f35b610240610687565b60405161024d91906125af565b60405180910390f35b610270600480360381019061026b91906124cd565b6106a1565b60405161027d91906125e5565b60405180910390f35b6102a0600480360381019061029b919061269e565b6106c0565b005b6102bc60048036038101906102b7919061272a565b61070a565b005b6102d860048036038101906102d391906124cd565b61071c565b6040516102e591906125e5565b60405180910390f35b610308600480360381019061030391906124cd565b61073b565b60405161031793929190612757565b60405180910390f35b61033a600480360381019061033591906124cd565b610765565b005b610356600480360381019061035191906124cd565b610810565b60405161036391906125e5565b60405180910390f35b610386600480360381019061038191906124cd565b61082f565b60405161039391906125e5565b60405180910390f35b6103b660048036038101906103b191906127ec565b610858565b6040516103c391906128fa565b60405180910390f35b6103e660048036038101906103e19190612915565b6108b6565b6040516103f39190612472565b60405180910390f35b61041660048036038101906104119190612966565b610a39565b60405161042391906129d0565b60405180910390f35b610434610aa4565b005b610450600480360381019061044b9190612915565b610ab8565b60405161045d91906129fa565b60405180910390f35b61046e610b0c565b60405161047b9190612a24565b60405180910390f35b61049e60048036038101906104999190612a7d565b610b1f565b005b6104a8610b33565b6040516104b59190612ab9565b60405180910390f35b6104d860048036038101906104d391906124cd565b610b5c565b005b6104f460048036038101906104ef91906124cd565b610bc1565b6040516105019190612b1c565b60405180910390f35b610524600480360381019061051f9190612b63565b610c84565b005b61052e610cb8565b60405161053b9190612ab9565b60405180910390f35b61054c610cde565b60405161055991906125af565b60405180910390f35b61057c60048036038101906105779190612b63565b610cf8565b005b610598600480360381019061059391906124cd565b610d2c565b6040516105a591906125e5565b60405180910390f35b6105c860048036038101906105c39190612bb5565b610d55565b005b6105e460048036038101906105df91906124cd565b610d96565b6040516105f191906125e5565b60405180910390f35b610614600480360381019061060f9190612c29565b610db5565b005b610630600480360381019061062b9190612915565b610ddb565b005b61064c60048036038101906106479190612966565b610e61565b60405161065991906125e5565b60405180910390f35b60025481565b6000806106748361107b565b905061067f816110db565b915050919050565b600160009054906101000a900467ffffffffffffffff1681565b6000806106ad8361107b565b90506106b881611128565b915050919050565b6106c8611168565b8260ff167f294d62780e868235e85aee4277a92857d52a196987e2a5bbb9fffe4f08b4567a83836040516106fd929190612cb4565b60405180910390a2505050565b610712611168565b8060028190555050565b6000806107288361107b565b9050610733816111ef565b915050919050565b60046020528060005260406000206000915090508060000154908060010154908060020154905083565b61076d611168565b6107768161082f565b156107db5760046000828152602001908152602001600020600080820160009055600182016000905560028201600090555050807f88ae8321c96cee88d802409f3677f889d8a6743c4631b069fe600a3a9b07e02060405160405180910390a261080d565b6040517fd9c78e0200000000000000000000000000000000000000000000000000000000815260040160405180910390fd5b50565b60008061081c8361107b565b90506108278161127c565b915050919050565b600080600460008481526020019081526020016000209050610850816112e9565b915050919050565b61086061241b565b6000600560008473ffffffffffffffffffffffffffffffffffffffff1673ffffffffffffffffffffffffffffffffffffffff16815260200190815260200160002090506108ad81856112fa565b91505092915050565b60008060018111156108cb576108ca6124fa565b5b600360149054906101000a900460ff1660018111156108ed576108ec6124fa565b5b0361099557600360009054906101000a900473ffffffffffffffffffffffffffffffffffffffff1673ffffffffffffffffffffffffffffffffffffffff166358970ca8836040518263ffffffff1660e01b815260040161094d9190612ab9565b602060405180830381865afa15801561096a573d6000803e3d6000fd5b505050506040513d601f19601f8201168201806040525081019061098e9190612ced565b9050610a34565b600360009054906101000a900473ffffffffffffffffffffffffffffffffffffffff1673ffffffffffffffffffffffffffffffffffffffff166370a08231836040518263ffffffff1660e01b81526004016109f09190612ab9565b602060405180830381865afa158015610a0d573d6000803e3d6000fd5b505050506040513d601f19601f82011682018060405250810190610a319190612ced565b90505b919050565b600080826000016020810190610a4f9190612915565b838060200190610a5f9190612d29565b858060400190610a6f9190612d29565b604051602001610a83959493929190612e04565b60405160208183030381529060405290508080519060200120915050919050565b610aac611168565b610ab66000611379565b565b600080610ac4836108b6565b90506000610b008260016fffffffffffffffffffffffffffffffff610ae99190612e6c565b6fffffffffffffffffffffffffffffffff1661143d565b90508092505050919050565b600360159054906101000a900460ff1681565b610b27611168565b610b3081611456565b50565b60008060009054906101000a900473ffffffffffffffffffffffffffffffffffffffff16905090565b6000600460008381526020019081526020016000209050610b7c816112e9565b15610bb3576040517fb8c39e6200000000000000000000000000000000000000000000000000000000815260040160405180910390fd5b610bbd8282611681565b5050565b600080610bcd8361107b565b90506000610bda826110db565b9050600380811115610bef57610bee6124fa565b5b816003811115610c0257610c016124fa565b5b03610c1257600392505050610c7f565b60026003811115610c2657610c256124fa565b5b816003811115610c3957610c386124fa565b5b03610c4957600292505050610c7f565b610c5282611128565b15610c6257600092505050610c7f565b610c6b826111ef565b610c7857610c77612eb0565b5b6001925050505b919050565b610c8c611168565b80600060146101000a81548167ffffffffffffffff021916908367ffffffffffffffff16021790555050565b600360009054906101000a900473ffffffffffffffffffffffffffffffffffffffff1681565b600060149054906101000a900467ffffffffffffffff1681565b610d00611168565b80600160006101000a81548167ffffffffffffffff021916908367ffffffffffffffff16021790555050565b600080600460008481526020019081526020016000209050610d4d816116e0565b915050919050565b6000600460008681526020019081526020016000209050610d75816112e9565b610d8457610d838582611681565b5b610d8f81868661172f565b5050505050565b600080610da28361107b565b9050610dad81611a66565b915050919050565b610dbd611168565b80600360156101000a81548160ff021916908360ff16021790555050565b610de3611168565b600073ffffffffffffffffffffffffffffffffffffffff168173ffffffffffffffffffffffffffffffffffffffff1603610e555760006040517f1e4fbdf7000000000000000000000000000000000000000000000000000000008152600401610e4c9190612ab9565b60405180910390fd5b610e5e81611379565b50565b600080610e6d83610a39565b90506000610e7a8261107b565b905060026003811115610e9057610e8f6124fa565b5b610e99826110db565b6003811115610eab57610eaa6124fa565b5b14610ee2576040517fc8c93ba300000000000000000000000000000000000000000000000000000000815260040160405180910390fd5b6004600083815260200190815260200160002060008082016000905560018201600090556002820160009055505060005a9050600080866000016020810190610f2b9190612915565b73ffffffffffffffffffffffffffffffffffffffff16878060200190610f519190612d29565b604051610f5f929190612edf565b6000604051808303816000865af19150503d8060008114610f9c576040519150601f19603f3d011682016040523d82523d6000602084013e610fa1565b606091505b50915091508115610fe957847fda66fcfe5711520a570ced34d4cdebbe652fe74713bf2bc9db4ba54357e5a96f82604051610fdc9190612f66565b60405180910390a261106e565b60005a9050604084610ffb9190612fb7565b811015611034576040517f77ebef4d00000000000000000000000000000000000000000000000000000000815260040160405180910390fd5b857fd255d8a333980d77af4f9179384057def133983cb02db3e1fdb70c4dc14102e8836040516110649190612f66565b60405180910390a2505b8195505050505050919050565b60008060046000848152602001908152602001600020905061109c816112e9565b6110d2576040517fd9c78e0200000000000000000000000000000000000000000000000000000000815260040160405180910390fd5b80915050919050565b60006110e682611ac7565b15611109576110f482611a66565b6110ff576002611102565b60005b9050611123565b61111282611128565b61111d576003611120565b60015b90505b919050565b60008082600001544261113b9190612fe8565b9050600060149054906101000a900467ffffffffffffffff1667ffffffffffffffff168110915050919050565b611170611af9565b73ffffffffffffffffffffffffffffffffffffffff1661118e610b33565b73ffffffffffffffffffffffffffffffffffffffff16146111ed576111b1611af9565b6040517f118cdaa70000000000000000000000000000000000000000000000000000000081526004016111e49190612ab9565b60405180910390fd5b565b6000808260000154426112029190612fe8565b9050600060149054906101000a900467ffffffffffffffff1667ffffffffffffffff1681101580156112745750600160009054906101000a900467ffffffffffffffff16600060149054906101000a900467ffffffffffffffff16611267919061301c565b67ffffffffffffffff1681105b915050919050565b600080611288836110db565b90506000600381111561129e5761129d6124fa565b5b8160038111156112b1576112b06124fa565b5b14806112e15750600160038111156112cc576112cb6124fa565b5b8160038111156112df576112de6124fa565b5b145b915050919050565b600080826000015414159050919050565b61130261241b565b6000806113188486611b0190919063ffffffff16565b9150915081611365576040518060400160405280600060028111156113405761133f6124fa565b5b815260200160006fffffffffffffffffffffffffffffffff1681525092505050611373565b61136e81611b50565b925050505b92915050565b60008060009054906101000a900473ffffffffffffffffffffffffffffffffffffffff169050816000806101000a81548173ffffffffffffffffffffffffffffffffffffffff021916908373ffffffffffffffffffffffffffffffffffffffff1602179055508173ffffffffffffffffffffffffffffffffffffffff168173ffffffffffffffffffffffffffffffffffffffff167f8be0079c531659141344cd1fd0a4f28419497f9722a3daafe3b4186f6b6457e060405160405180910390a35050565b600081831061144c578161144e565b825b905092915050565b60008190508173ffffffffffffffffffffffffffffffffffffffff166301ffc9a77f58970ca8000000000000000000000000000000000000000000000000000000006040518263ffffffff1660e01b81526004016114b49190613093565b602060405180830381865afa1580156114d1573d6000803e3d6000fd5b505050506040513d601f19601f820116820180604052508101906114f591906130da565b1561152a576000600360146101000a81548160ff021916908360018111156115205761151f6124fa565b5b021790555061163c565b60008173ffffffffffffffffffffffffffffffffffffffff166370a08231306040518263ffffffff1660e01b81526004016115659190612ab9565b602060405180830381865afa158015611582573d6000803e3d6000fd5b505050506040513d601f19601f820116820180604052508101906115a69190612ced565b9050600081101580156115d957507fffffffffffffffffffffffffffffffffffffffffffffffffffffffffffffffff8111155b61160f576040517fadd3c86f00000000000000000000000000000000000000000000000000000000815260040160405180910390fd5b6001600360146101000a81548160ff02191690836001811115611635576116346124fa565b5b0217905550505b80600360006101000a81548173ffffffffffffffffffffffffffffffffffffffff021916908373ffffffffffffffffffffffffffffffffffffffff1602179055505050565b60008160010154148015611699575060008160020154145b6116a6576116a5612eb0565b5b428160000181905550817f288a29bca04edb18fcdb2c76d6e3b03b8a137c85c70d1a4cb8aacfa868d6051060405160405180910390a25050565b6000806116ec836112e9565b90508080156117275750600380811115611709576117086124fa565b5b611712846110db565b6003811115611724576117236124fa565b5b14155b915050919050565b6000600560003373ffffffffffffffffffffffffffffffffffffffff1673ffffffffffffffffffffffffffffffffffffffff1681526020019081526020016000209050600061177e82856112fa565b9050600060405180604001604052808560028111156117a05761179f6124fa565b5b81526020016117ae33610ab8565b6fffffffffffffffffffffffffffffffff1681525090506117cf8282611c77565b15611817578160000151846040517f03ddd27900000000000000000000000000000000000000000000000000000000815260040161180e929190613116565b60405180910390fd5b60006118238487611ce7565b905060016002811115611839576118386124fa565b5b826000015160028111156118505761184f6124fa565b5b036118e45761185e87611128565b611894576040517f6d47005400000000000000000000000000000000000000000000000000000000815260040160405180910390fd5b600360159054906101000a900460ff1660ff1681106118df576040517f48d8fc9400000000000000000000000000000000000000000000000000000000815260040160405180910390fd5b61198a565b6002808111156118f7576118f66124fa565b5b8260000151600281111561190e5761190d6124fa565b5b036119575761191c8761127c565b611952576040517f0de09f8100000000000000000000000000000000000000000000000000000000815260040160405180910390fd5b611989565b6040517fd5dd0c6600000000000000000000000000000000000000000000000000000000815260040160405180910390fd5b5b6119978487898686611e89565b600082602001516fffffffffffffffffffffffffffffffff1603611a0d573373ffffffffffffffffffffffffffffffffffffffff16867f60921de1a934e80af973d90edbca67a078f0dc03d7385b9031ff925b3a2ab8208460000151604051611a00919061313f565b60405180910390a3611a5d565b3373ffffffffffffffffffffffffffffffffffffffff16867fcd907020340d41d9b3fb53725f52264110fc156b0059b7817f4fe29f25a96cef84604051611a5491906128fa565b60405180910390a35b50505050505050565b600080826000015442611a799190612fe8565b9050600160009054906101000a900467ffffffffffffffff16600060149054906101000a900467ffffffffffffffff16611ab3919061301c565b67ffffffffffffffff168110915050919050565b6000816001015460028360020154611adf919061315a565b108015611af25750600254826001015410155b9050919050565b600033905090565b60008060008460020160008581526020019081526020016000205490506000801b8103611b4057611b328585612094565b6000801b9250925050611b49565b60018192509250505b9250929050565b611b5861241b565b60008260001c905060016fffffffffffffffffffffffffffffffff611b7d9190612e6c565b6fffffffffffffffffffffffffffffffff16816fffffffffffffffffffffffffffffffff161115611bb157611bb0612eb0565b5b600060808460001c901c60ff166002811115611bd057611bcf6124fa565b5b905060016002811115611be657611be56124fa565b5b816002811115611bf957611bf86124fa565b5b1480611c285750600280811115611c1357611c126124fa565b5b816002811115611c2657611c256124fa565b5b145b611c3557611c34612eb0565b5b6040518060400160405280826002811115611c5357611c526124fa565b5b8152602001836fffffffffffffffffffffffffffffffff1681525092505050919050565b600081600001516002811115611c9057611c8f6124fa565b5b83600001516002811115611ca757611ca66124fa565b5b148015611cdf575081602001516fffffffffffffffffffffffffffffffff1683602001516fffffffffffffffffffffffffffffffff16145b905092915050565b600080611cf3846120b4565b905060008167ffffffffffffffff811115611d1157611d1061319c565b5b604051908082528060200260200182016040528015611d3f5781602001602082028036833780820191505090505b50905060008060005b84811015611e3457600080611d66838b6120c990919063ffffffff16565b9150915060008290506000600460008381526020019081526020016000209050611d8f816116e0565b611dc75781888881518110611da757611da66131cb565b5b602002602001018181525050600187611dc091906131fa565b9650611e23565b6000611dd284611b50565b905060016002811115611de857611de76124fa565b5b81600001516002811115611dff57611dfe6124fa565b5b148015611e0c57508b8314155b15611e2157600187611e1e91906131fa565b96505b505b505050508080600101915050611d48565b5060005b82811015611e7b57611e6d848281518110611e5657611e556131cb565b5b60200260200101518961210990919063ffffffff16565b508080600101915050611e38565b508094505050505092915050565b600082602001516fffffffffffffffffffffffffffffffff161115611f715760016002811115611ebc57611ebb6124fa565b5b82600001516002811115611ed357611ed26124fa565b5b03611f0e5781602001516fffffffffffffffffffffffffffffffff16836001016000828254611f029190612fe8565b92505081905550611f70565b600280811115611f2157611f206124fa565b5b82600001516002811115611f3857611f376124fa565b5b03611f6f5781602001516fffffffffffffffffffffffffffffffff16836002016000828254611f679190612fe8565b925050819055505b5b5b60016002811115611f8557611f846124fa565b5b81600001516002811115611f9c57611f9b6124fa565b5b03611fd75780602001516fffffffffffffffffffffffffffffffff16836001016000828254611fcb91906131fa565b9250508190555061206f565b600280811115611fea57611fe96124fa565b5b81600001516002811115612001576120006124fa565b5b0361203c5780602001516fffffffffffffffffffffffffffffffff1683600201600082825461203091906131fa565b9250508190555061206e565b6040517fd5dd0c6600000000000000000000000000000000000000000000000000000000815260040160405180910390fd5b5b61208c8461207c83612142565b8761218c9092919063ffffffff16565b505050505050565b60006120ac82846000016121c790919063ffffffff16565b905092915050565b60006120c2826000016121de565b9050919050565b60008060006120e484866000016121f390919063ffffffff16565b9050808560020160008381526020019081526020016000205492509250509250929050565b60008260020160008381526020019081526020016000206000905561213a828460000161220a90919063ffffffff16565b905092915050565b600080826020015190506000816fffffffffffffffffffffffffffffffff1660808560000151600281111561217a576121796124fa565b5b901b1790508060001b92505050919050565b600081846002016000858152602001908152602001600020819055506121be838560000161222190919063ffffffff16565b90509392505050565b60006121d68360000183612238565b905092915050565b60006121ec8260000161225b565b9050919050565b6000612202836000018361226c565b905092915050565b60006122198360000183612297565b905092915050565b600061223083600001836123ab565b905092915050565b600080836001016000848152602001908152602001600020541415905092915050565b600081600001805490509050919050565b6000826000018281548110612284576122836131cb565b5b9060005260206000200154905092915050565b6000808360010160008481526020019081526020016000205490506000811461239f5760006001826122c99190612fe8565b90506000600186600001805490506122e19190612fe8565b9050808214612350576000866000018281548110612302576123016131cb565b5b9060005260206000200154905080876000018481548110612326576123256131cb565b5b90600052602060002001819055508387600101600083815260200190815260200160002081905550505b856000018054806123645761236361322e565b5b6001900381819060005260206000200160009055905585600101600086815260200190815260200160002060009055600193505050506123a5565b60009150505b92915050565b60006123b78383612238565b612410578260000182908060018154018082558091505060019003906000526020600020016000909190919091505582600001805490508360010160008481526020019081526020016000208190555060019050612415565b600090505b92915050565b60405180604001604052806000600281111561243a576124396124fa565b5b815260200160006fffffffffffffffffffffffffffffffff1681525090565b6000819050919050565b61246c81612459565b82525050565b60006020820190506124876000830184612463565b92915050565b600080fd5b600080fd5b6000819050919050565b6124aa81612497565b81146124b557600080fd5b50565b6000813590506124c7816124a1565b92915050565b6000602082840312156124e3576124e261248d565b5b60006124f1848285016124b8565b91505092915050565b7f4e487b7100000000000000000000000000000000000000000000000000000000600052602160045260246000fd5b6004811061253a576125396124fa565b5b50565b600081905061254b82612529565b919050565b600061255b8261253d565b9050919050565b61256b81612550565b82525050565b60006020820190506125866000830184612562565b92915050565b600067ffffffffffffffff82169050919050565b6125a98161258c565b82525050565b60006020820190506125c460008301846125a0565b92915050565b60008115159050919050565b6125df816125ca565b82525050565b60006020820190506125fa60008301846125d6565b92915050565b600060ff82169050919050565b61261681612600565b811461262157600080fd5b50565b6000813590506126338161260d565b92915050565b600080fd5b600080fd5b600080fd5b60008083601f84011261265e5761265d612639565b5b8235905067ffffffffffffffff81111561267b5761267a61263e565b5b60208301915083600182028301111561269757612696612643565b5b9250929050565b6000806000604084860312156126b7576126b661248d565b5b60006126c586828701612624565b935050602084013567ffffffffffffffff8111156126e6576126e5612492565b5b6126f286828701612648565b92509250509250925092565b61270781612459565b811461271257600080fd5b50565b600081359050612724816126fe565b92915050565b6000602082840312156127405761273f61248d565b5b600061274e84828501612715565b91505092915050565b600060608201905061276c6000830186612463565b6127796020830185612463565b6127866040830184612463565b949350505050565b600073ffffffffffffffffffffffffffffffffffffffff82169050919050565b60006127b98261278e565b9050919050565b6127c9816127ae565b81146127d457600080fd5b50565b6000813590506127e6816127c0565b92915050565b600080604083850312156128035761280261248d565b5b6000612811858286016124b8565b9250506020612822858286016127d7565b9150509250929050565b6003811061283d5761283c6124fa565b5b50565b600081905061284e8261282c565b919050565b600061285e82612840565b9050919050565b61286e81612853565b82525050565b60006fffffffffffffffffffffffffffffffff82169050919050565b6000819050919050565b60006128b56128b06128ab84612874565b612890565b612874565b9050919050565b6128c58161289a565b82525050565b6040820160008201516128e16000850182612865565b5060208201516128f460208501826128bc565b50505050565b600060408201905061290f60008301846128cb565b92915050565b60006020828403121561292b5761292a61248d565b5b6000612939848285016127d7565b91505092915050565b600080fd5b60006060828403121561295d5761295c612942565b5b81905092915050565b60006020828403121561297c5761297b61248d565b5b600082013567ffffffffffffffff81111561299a57612999612492565b5b6129a684828501612947565b91505092915050565b60006129ba82612497565b9050919050565b6129ca816129af565b82525050565b60006020820190506129e560008301846129c1565b92915050565b6129f48161289a565b82525050565b6000602082019050612a0f60008301846129eb565b92915050565b612a1e81612600565b82525050565b6000602082019050612a396000830184612a15565b92915050565b6000612a4a826127ae565b9050919050565b612a5a81612a3f565b8114612a6557600080fd5b50565b600081359050612a7781612a51565b92915050565b600060208284031215612a9357612a9261248d565b5b6000612aa184828501612a68565b91505092915050565b612ab3816127ae565b82525050565b6000602082019050612ace6000830184612aaa565b92915050565b60048110612ae557612ae46124fa565b5b50565b6000819050612af682612ad4565b919050565b6000612b0682612ae8565b9050919050565b612b1681612afb565b82525050565b6000602082019050612b316000830184612b0d565b92915050565b612b408161258c565b8114612b4b57600080fd5b50565b600081359050612b5d81612b37565b92915050565b600060208284031215612b7957612b7861248d565b5b6000612b8784828501612b4e565b91505092915050565b60038110612b9d57600080fd5b50565b600081359050612baf81612b90565b92915050565b60008060008060608587031215612bcf57612bce61248d565b5b6000612bdd878288016124b8565b9450506020612bee87828801612ba0565b935050604085013567ffffffffffffffff811115612c0f57612c0e612492565b5b612c1b87828801612648565b925092505092959194509250565b600060208284031215612c3f57612c3e61248d565b5b6000612c4d84828501612624565b91505092915050565b600082825260208201905092915050565b82818337600083830152505050565b6000601f19601f8301169050919050565b6000612c938385612c56565b9350612ca0838584612c67565b612ca983612c76565b840190509392505050565b60006020820190508181036000830152612ccf818486612c87565b90509392505050565b600081519050612ce7816126fe565b92915050565b600060208284031215612d0357612d0261248d565b5b6000612d1184828501612cd8565b91505092915050565b600080fd5b600080fd5b600080fd5b60008083356001602003843603038112612d4657612d45612d1a565b5b80840192508235915067ffffffffffffffff821115612d6857612d67612d1f565b5b602083019250600182023603831315612d8457612d83612d24565b5b509250929050565b60008160601b9050919050565b6000612da482612d8c565b9050919050565b6000612db682612d99565b9050919050565b612dce612dc9826127ae565b612dab565b82525050565b600081905092915050565b6000612deb8385612dd4565b9350612df8838584612c67565b82840190509392505050565b6000612e108288612dbd565b601482019150612e21828688612ddf565b9150612e2e828486612ddf565b91508190509695505050505050565b7f4e487b7100000000000000000000000000000000000000000000000000000000600052601160045260246000fd5b6000612e7782612874565b9150612e8283612874565b925082820390506fffffffffffffffffffffffffffffffff811115612eaa57612ea9612e3d565b5b92915050565b7f4e487b7100000000000000000000000000000000000000000000000000000000600052600160045260246000fd5b6000612eec828486612ddf565b91508190509392505050565b600081519050919050565b60005b83811015612f21578082015181840152602081019050612f06565b60008484015250505050565b6000612f3882612ef8565b612f428185612c56565b9350612f52818560208601612f03565b612f5b81612c76565b840191505092915050565b60006020820190508181036000830152612f808184612f2d565b905092915050565b7f4e487b7100000000000000000000000000000000000000000000000000000000600052601260045260246000fd5b6000612fc282612459565b9150612fcd83612459565b925082612fdd57612fdc612f88565b5b828204905092915050565b6000612ff382612459565b9150612ffe83612459565b925082820390508181111561301657613015612e3d565b5b92915050565b60006130278261258c565b91506130328361258c565b9250828201905067ffffffffffffffff81111561305257613051612e3d565b5b92915050565b60007fffffffff0000000000000000000000000000000000000000000000000000000082169050919050565b61308d81613058565b82525050565b60006020820190506130a86000830184613084565b92915050565b6130b7816125ca565b81146130c257600080fd5b50565b6000815190506130d4816130ae565b92915050565b6000602082840312156130f0576130ef61248d565b5b60006130fe848285016130c5565b91505092915050565b61311081612853565b82525050565b600060408201905061312b6000830185613107565b6131386020830184613107565b9392505050565b60006020820190506131546000830184613107565b92915050565b600061316582612459565b915061317083612459565b925082820261317e81612459565b9150828204841483151761319557613194612e3d565b5b5092915050565b7f4e487b7100000000000000000000000000000000000000000000000000000000600052604160045260246000fd5b7f4e487b7100000000000000000000000000000000000000000000000000000000600052603260045260246000fd5b600061320582612459565b915061321083612459565b925082820190508082111561322857613227612e3d565b5b92915050565b7f4e487b7100000000000000000000000000000000000000000000000000000000600052603160045260246000fdfea2646970667358221220daf13fafe88f14dcd723ef286352ed9ff79c576899af80714f4aee617694739664736f6c63430008180033","opcodes":"PUSH1 0x80 PUSH1 0x40 MSTORE CALLVALUE DUP1 ISZERO PUSH3 0x11 JUMPI PUSH1 0x0 DUP1 REVERT JUMPDEST POP PUSH1 0x40 MLOAD PUSH3 0x3A11 CODESIZE SUB DUP1 PUSH3 0x3A11 DUP4 CODECOPY DUP2 DUP2 ADD PUSH1 0x40 MSTORE DUP2 ADD SWAP1 PUSH3 0x37 SWAP2 SWAP1 PUSH3 0x58E JUMP JUMPDEST ADDRESS PUSH1 0x0 PUSH20 0xFFFFFFFFFFFFFFFFFFFFFFFFFFFFFFFFFFFFFFFF AND DUP2 PUSH20 0xFFFFFFFFFFFFFFFFFFFFFFFFFFFFFFFFFFFFFFFF AND SUB PUSH3 0xAD JUMPI PUSH1 0x0 PUSH1 0x40 MLOAD PUSH32 0x1E4FBDF700000000000000000000000000000000000000000000000000000000 DUP2 MSTORE PUSH1 0x4 ADD PUSH3 0xA4 SWAP2 SWAP1 PUSH3 0x627 JUMP JUMPDEST PUSH1 0x40 MLOAD DUP1 SWAP2 SUB SWAP1 REVERT JUMPDEST PUSH3 0xBE DUP2 PUSH3 0x14F PUSH1 0x20 SHL PUSH1 0x20 SHR JUMP JUMPDEST POP PUSH3 0xD0 DUP6 PUSH3 0x213 PUSH1 0x20 SHL PUSH1 0x20 SHR JUMP JUMPDEST DUP4 PUSH1 0x0 PUSH1 0x14 PUSH2 0x100 EXP DUP2 SLOAD DUP2 PUSH8 0xFFFFFFFFFFFFFFFF MUL NOT AND SWAP1 DUP4 PUSH8 0xFFFFFFFFFFFFFFFF AND MUL OR SWAP1 SSTORE POP DUP3 PUSH1 0x1 PUSH1 0x0 PUSH2 0x100 EXP DUP2 SLOAD DUP2 PUSH8 0xFFFFFFFFFFFFFFFF MUL NOT AND SWAP1 DUP4 PUSH8 0xFFFFFFFFFFFFFFFF AND MUL OR SWAP1 SSTORE POP DUP2 PUSH1 0x2 DUP2 SWAP1 SSTORE POP DUP1 PUSH1 0x3 PUSH1 0x15 PUSH2 0x100 EXP DUP2 SLOAD DUP2 PUSH1 0xFF MUL NOT AND SWAP1 DUP4 PUSH1 0xFF AND MUL OR SWAP1 SSTORE POP POP POP POP POP POP PUSH3 0x76E JUMP JUMPDEST PUSH1 0x0 DUP1 PUSH1 0x0 SWAP1 SLOAD SWAP1 PUSH2 0x100 EXP SWAP1 DIV PUSH20 0xFFFFFFFFFFFFFFFFFFFFFFFFFFFFFFFFFFFFFFFF AND SWAP1 POP DUP2 PUSH1 0x0 DUP1 PUSH2 0x100 EXP DUP2 SLOAD DUP2 PUSH20 0xFFFFFFFFFFFFFFFFFFFFFFFFFFFFFFFFFFFFFFFF MUL NOT AND SWAP1 DUP4 PUSH20 0xFFFFFFFFFFFFFFFFFFFFFFFFFFFFFFFFFFFFFFFF AND MUL OR SWAP1 SSTORE POP DUP2 PUSH20 0xFFFFFFFFFFFFFFFFFFFFFFFFFFFFFFFFFFFFFFFF AND DUP2 PUSH20 0xFFFFFFFFFFFFFFFFFFFFFFFFFFFFFFFFFFFFFFFF AND PUSH32 0x8BE0079C531659141344CD1FD0A4F28419497F9722A3DAAFE3B4186F6B6457E0 PUSH1 0x40 MLOAD PUSH1 0x40 MLOAD DUP1 SWAP2 SUB SWAP1 LOG3 POP POP JUMP JUMPDEST PUSH1 0x0 DUP2 SWAP1 POP DUP2 PUSH20 0xFFFFFFFFFFFFFFFFFFFFFFFFFFFFFFFFFFFFFFFF AND PUSH4 0x1FFC9A7 PUSH32 0x58970CA800000000000000000000000000000000000000000000000000000000 PUSH1 0x40 MLOAD DUP3 PUSH4 0xFFFFFFFF AND PUSH1 0xE0 SHL DUP2 MSTORE PUSH1 0x4 ADD PUSH3 0x273 SWAP2 SWAP1 PUSH3 0x681 JUMP JUMPDEST PUSH1 0x20 PUSH1 0x40 MLOAD DUP1 DUP4 SUB DUP2 DUP7 GAS STATICCALL ISZERO DUP1 ISZERO PUSH3 0x291 JUMPI RETURNDATASIZE PUSH1 0x0 DUP1 RETURNDATACOPY RETURNDATASIZE PUSH1 0x0 REVERT JUMPDEST POP POP POP POP PUSH1 0x40 MLOAD RETURNDATASIZE PUSH1 0x1F NOT PUSH1 0x1F DUP3 ADD AND DUP3 ADD DUP1 PUSH1 0x40 MSTORE POP DUP2 ADD SWAP1 PUSH3 0x2B7 SWAP2 SWAP1 PUSH3 0x6DB JUMP JUMPDEST ISZERO PUSH3 0x2F1 JUMPI PUSH1 0x0 PUSH1 0x3 PUSH1 0x14 PUSH2 0x100 EXP DUP2 SLOAD DUP2 PUSH1 0xFF MUL NOT AND SWAP1 DUP4 PUSH1 0x1 DUP2 GT ISZERO PUSH3 0x2E6 JUMPI PUSH3 0x2E5 PUSH3 0x70D JUMP JUMPDEST JUMPDEST MUL OR SWAP1 SSTORE POP PUSH3 0x40D JUMP JUMPDEST PUSH1 0x0 DUP2 PUSH20 0xFFFFFFFFFFFFFFFFFFFFFFFFFFFFFFFFFFFFFFFF AND PUSH4 0x70A08231 ADDRESS PUSH1 0x40 MLOAD DUP3 PUSH4 0xFFFFFFFF AND PUSH1 0xE0 SHL DUP2 MSTORE PUSH1 0x4 ADD PUSH3 0x32E SWAP2 SWAP1 PUSH3 0x627 JUMP JUMPDEST PUSH1 0x20 PUSH1 0x40 MLOAD DUP1 DUP4 SUB DUP2 DUP7 GAS STATICCALL ISZERO DUP1 ISZERO PUSH3 0x34C JUMPI RETURNDATASIZE PUSH1 0x0 DUP1 RETURNDATACOPY RETURNDATASIZE PUSH1 0x0 REVERT JUMPDEST POP POP POP POP PUSH1 0x40 MLOAD RETURNDATASIZE PUSH1 0x1F NOT PUSH1 0x1F DUP3 ADD AND DUP3 ADD DUP1 PUSH1 0x40 MSTORE POP DUP2 ADD SWAP1 PUSH3 0x372 SWAP2 SWAP1 PUSH3 0x73C JUMP JUMPDEST SWAP1 POP PUSH1 0x0 DUP2 LT ISZERO DUP1 ISZERO PUSH3 0x3A6 JUMPI POP PUSH32 0xFFFFFFFFFFFFFFFFFFFFFFFFFFFFFFFFFFFFFFFFFFFFFFFFFFFFFFFFFFFFFFFF DUP2 GT ISZERO JUMPDEST PUSH3 0x3DD JUMPI PUSH1 0x40 MLOAD PUSH32 0xADD3C86F00000000000000000000000000000000000000000000000000000000 DUP2 MSTORE PUSH1 0x4 ADD PUSH1 0x40 MLOAD DUP1 SWAP2 SUB SWAP1 REVERT JUMPDEST PUSH1 0x1 PUSH1 0x3 PUSH1 0x14 PUSH2 0x100 EXP DUP2 SLOAD DUP2 PUSH1 0xFF MUL NOT AND SWAP1 DUP4 PUSH1 0x1 DUP2 GT ISZERO PUSH3 0x406 JUMPI PUSH3 0x405 PUSH3 0x70D JUMP JUMPDEST JUMPDEST MUL OR SWAP1 SSTORE POP POP JUMPDEST DUP1 PUSH1 0x3 PUSH1 0x0 PUSH2 0x100 EXP DUP2 SLOAD DUP2 PUSH20 0xFFFFFFFFFFFFFFFFFFFFFFFFFFFFFFFFFFFFFFFF MUL NOT AND SWAP1 DUP4 PUSH20 0xFFFFFFFFFFFFFFFFFFFFFFFFFFFFFFFFFFFFFFFF AND MUL OR SWAP1 SSTORE POP POP POP JUMP JUMPDEST PUSH1 0x0 DUP1 REVERT JUMPDEST PUSH1 0x0 PUSH20 0xFFFFFFFFFFFFFFFFFFFFFFFFFFFFFFFFFFFFFFFF DUP3 AND SWAP1 POP SWAP2 SWAP1 POP JUMP JUMPDEST PUSH1 0x0 PUSH3 0x484 DUP3 PUSH3 0x457 JUMP JUMPDEST SWAP1 POP SWAP2 SWAP1 POP JUMP JUMPDEST PUSH1 0x0 PUSH3 0x498 DUP3 PUSH3 0x477 JUMP JUMPDEST SWAP1 POP SWAP2 SWAP1 POP JUMP JUMPDEST PUSH3 0x4AA DUP2 PUSH3 0x48B JUMP JUMPDEST DUP2 EQ PUSH3 0x4B6 JUMPI PUSH1 0x0 DUP1 REVERT JUMPDEST POP JUMP JUMPDEST PUSH1 0x0 DUP2 MLOAD SWAP1 POP PUSH3 0x4CA DUP2 PUSH3 0x49F JUMP JUMPDEST SWAP3 SWAP2 POP POP JUMP JUMPDEST PUSH1 0x0 PUSH8 0xFFFFFFFFFFFFFFFF DUP3 AND SWAP1 POP SWAP2 SWAP1 POP JUMP JUMPDEST PUSH3 0x4EF DUP2 PUSH3 0x4D0 JUMP JUMPDEST DUP2 EQ PUSH3 0x4FB JUMPI PUSH1 0x0 DUP1 REVERT JUMPDEST POP JUMP JUMPDEST PUSH1 0x0 DUP2 MLOAD SWAP1 POP PUSH3 0x50F DUP2 PUSH3 0x4E4 JUMP JUMPDEST SWAP3 SWAP2 POP POP JUMP JUMPDEST PUSH1 0x0 DUP2 SWAP1 POP SWAP2 SWAP1 POP JUMP JUMPDEST PUSH3 0x52A DUP2 PUSH3 0x515 JUMP JUMPDEST DUP2 EQ PUSH3 0x536 JUMPI PUSH1 0x0 DUP1 REVERT JUMPDEST POP JUMP JUMPDEST PUSH1 0x0 DUP2 MLOAD SWAP1 POP PUSH3 0x54A DUP2 PUSH3 0x51F JUMP JUMPDEST SWAP3 SWAP2 POP POP JUMP JUMPDEST PUSH1 0x0 PUSH1 0xFF DUP3 AND SWAP1 POP SWAP2 SWAP1 POP JUMP JUMPDEST PUSH3 0x568 DUP2 PUSH3 0x550 JUMP JUMPDEST DUP2 EQ PUSH3 0x574 JUMPI PUSH1 0x0 DUP1 REVERT JUMPDEST POP JUMP JUMPDEST PUSH1 0x0 DUP2 MLOAD SWAP1 POP PUSH3 0x588 DUP2 PUSH3 0x55D JUMP JUMPDEST SWAP3 SWAP2 POP POP JUMP JUMPDEST PUSH1 0x0 DUP1 PUSH1 0x0 DUP1 PUSH1 0x0 PUSH1 0xA0 DUP7 DUP9 SUB SLT ISZERO PUSH3 0x5AD JUMPI PUSH3 0x5AC PUSH3 0x452 JUMP JUMPDEST JUMPDEST PUSH1 0x0 PUSH3 0x5BD DUP9 DUP3 DUP10 ADD PUSH3 0x4B9 JUMP JUMPDEST SWAP6 POP POP PUSH1 0x20 PUSH3 0x5D0 DUP9 DUP3 DUP10 ADD PUSH3 0x4FE JUMP JUMPDEST SWAP5 POP POP PUSH1 0x40 PUSH3 0x5E3 DUP9 DUP3 DUP10 ADD PUSH3 0x4FE JUMP JUMPDEST SWAP4 POP POP PUSH1 0x60 PUSH3 0x5F6 DUP9 DUP3 DUP10 ADD PUSH3 0x539 JUMP JUMPDEST SWAP3 POP POP PUSH1 0x80 PUSH3 0x609 DUP9 DUP3 DUP10 ADD PUSH3 0x577 JUMP JUMPDEST SWAP2 POP POP SWAP3 SWAP6 POP SWAP3 SWAP6 SWAP1 SWAP4 POP JUMP JUMPDEST PUSH3 0x621 DUP2 PUSH3 0x477 JUMP JUMPDEST DUP3 MSTORE POP POP JUMP JUMPDEST PUSH1 0x0 PUSH1 0x20 DUP3 ADD SWAP1 POP PUSH3 0x63E PUSH1 0x0 DUP4 ADD DUP5 PUSH3 0x616 JUMP JUMPDEST SWAP3 SWAP2 POP POP JUMP JUMPDEST PUSH1 0x0 PUSH32 0xFFFFFFFF00000000000000000000000000000000000000000000000000000000 DUP3 AND SWAP1 POP SWAP2 SWAP1 POP JUMP JUMPDEST PUSH3 0x67B DUP2 PUSH3 0x644 JUMP JUMPDEST DUP3 MSTORE POP POP JUMP JUMPDEST PUSH1 0x0 PUSH1 0x20 DUP3 ADD SWAP1 POP PUSH3 0x698 PUSH1 0x0 DUP4 ADD DUP5 PUSH3 0x670 JUMP JUMPDEST SWAP3 SWAP2 POP POP JUMP JUMPDEST PUSH1 0x0 DUP2 ISZERO ISZERO SWAP1 POP SWAP2 SWAP1 POP JUMP JUMPDEST PUSH3 0x6B5 DUP2 PUSH3 0x69E JUMP JUMPDEST DUP2 EQ PUSH3 0x6C1 JUMPI PUSH1 0x0 DUP1 REVERT JUMPDEST POP JUMP JUMPDEST PUSH1 0x0 DUP2 MLOAD SWAP1 POP PUSH3 0x6D5 DUP2 PUSH3 0x6AA JUMP JUMPDEST SWAP3 SWAP2 POP POP JUMP JUMPDEST PUSH1 0x0 PUSH1 0x20 DUP3 DUP5 SUB SLT ISZERO PUSH3 0x6F4 JUMPI PUSH3 0x6F3 PUSH3 0x452 JUMP JUMPDEST JUMPDEST PUSH1 0x0 PUSH3 0x704 DUP5 DUP3 DUP6 ADD PUSH3 0x6C4 JUMP JUMPDEST SWAP2 POP POP SWAP3 SWAP2 POP POP JUMP JUMPDEST PUSH32 0x4E487B7100000000000000000000000000000000000000000000000000000000 PUSH1 0x0 MSTORE PUSH1 0x21 PUSH1 0x4 MSTORE PUSH1 0x24 PUSH1 0x0 REVERT JUMPDEST PUSH1 0x0 PUSH1 0x20 DUP3 DUP5 SUB SLT ISZERO PUSH3 0x755 JUMPI PUSH3 0x754 PUSH3 0x452 JUMP JUMPDEST JUMPDEST PUSH1 0x0 PUSH3 0x765 DUP5 DUP3 DUP6 ADD PUSH3 0x539 JUMP JUMPDEST SWAP2 POP POP SWAP3 SWAP2 POP POP JUMP JUMPDEST PUSH2 0x3293 DUP1 PUSH3 0x77E PUSH1 0x0 CODECOPY PUSH1 0x0 RETURN INVALID PUSH1 0x80 PUSH1 0x40 MSTORE CALLVALUE DUP1 ISZERO PUSH2 0x10 JUMPI PUSH1 0x0 DUP1 REVERT JUMPDEST POP PUSH1 0x4 CALLDATASIZE LT PUSH2 0x1E5 JUMPI PUSH1 0x0 CALLDATALOAD PUSH1 0xE0 SHR DUP1 PUSH4 0x7FB8B61E GT PUSH2 0x10F JUMPI DUP1 PUSH4 0xCB156A4A GT PUSH2 0xA2 JUMPI DUP1 PUSH4 0xD8CF3528 GT PUSH2 0x71 JUMPI DUP1 PUSH4 0xD8CF3528 EQ PUSH2 0x5CA JUMPI DUP1 PUSH4 0xE89075C7 EQ PUSH2 0x5FA JUMPI DUP1 PUSH4 0xF2FDE38B EQ PUSH2 0x616 JUMPI DUP1 PUSH4 0xFD165A73 EQ PUSH2 0x632 JUMPI PUSH2 0x1E5 JUMP JUMPDEST DUP1 PUSH4 0xCB156A4A EQ PUSH2 0x544 JUMPI DUP1 PUSH4 0xCE5B3B39 EQ PUSH2 0x562 JUMPI DUP1 PUSH4 0xCEDD3A0E EQ PUSH2 0x57E JUMPI DUP1 PUSH4 0xD50B2843 EQ PUSH2 0x5AE JUMPI PUSH2 0x1E5 JUMP JUMPDEST DUP1 PUSH4 0x99882CDB GT PUSH2 0xDE JUMPI DUP1 PUSH4 0x99882CDB EQ PUSH2 0x4BE JUMPI DUP1 PUSH4 0xAE844F74 EQ PUSH2 0x4DA JUMPI DUP1 PUSH4 0xBD5AB94F EQ PUSH2 0x50A JUMPI DUP1 PUSH4 0xBE142264 EQ PUSH2 0x526 JUMPI PUSH2 0x1E5 JUMP JUMPDEST DUP1 PUSH4 0x7FB8B61E EQ PUSH2 0x436 JUMPI DUP1 PUSH4 0x87C5CBBB EQ PUSH2 0x466 JUMPI DUP1 PUSH4 0x8C7ECF8D EQ PUSH2 0x484 JUMPI DUP1 PUSH4 0x8DA5CB5B EQ PUSH2 0x4A0 JUMPI PUSH2 0x1E5 JUMP JUMPDEST DUP1 PUSH4 0x32ED5B12 GT PUSH2 0x187 JUMPI DUP1 PUSH4 0x4CC74011 GT PUSH2 0x156 JUMPI DUP1 PUSH4 0x4CC74011 EQ PUSH2 0x39C JUMPI DUP1 PUSH4 0x58970CA8 EQ PUSH2 0x3CC JUMPI DUP1 PUSH4 0x5B4654A9 EQ PUSH2 0x3FC JUMPI DUP1 PUSH4 0x715018A6 EQ PUSH2 0x42C JUMPI PUSH2 0x1E5 JUMP JUMPDEST DUP1 PUSH4 0x32ED5B12 EQ PUSH2 0x2EE JUMPI DUP1 PUSH4 0x37376CA8 EQ PUSH2 0x320 JUMPI DUP1 PUSH4 0x40A27ABC EQ PUSH2 0x33C JUMPI DUP1 PUSH4 0x4410A944 EQ PUSH2 0x36C JUMPI PUSH2 0x1E5 JUMP JUMPDEST DUP1 PUSH4 0x12007FC9 GT PUSH2 0x1C3 JUMPI DUP1 PUSH4 0x12007FC9 EQ PUSH2 0x256 JUMPI DUP1 PUSH4 0x141D51CB EQ PUSH2 0x286 JUMPI DUP1 PUSH4 0x20CEA51A EQ PUSH2 0x2A2 JUMPI DUP1 PUSH4 0x272D16F2 EQ PUSH2 0x2BE JUMPI PUSH2 0x1E5 JUMP JUMPDEST DUP1 PUSH4 0xC2EE55E EQ PUSH2 0x1EA JUMPI DUP1 PUSH4 0xCFE734D EQ PUSH2 0x208 JUMPI DUP1 PUSH4 0xEE572FD EQ PUSH2 0x238 JUMPI JUMPDEST PUSH1 0x0 DUP1 REVERT JUMPDEST PUSH2 0x1F2 PUSH2 0x662 JUMP JUMPDEST PUSH1 0x40 MLOAD PUSH2 0x1FF SWAP2 SWAP1 PUSH2 0x2472 JUMP JUMPDEST PUSH1 0x40 MLOAD DUP1 SWAP2 SUB SWAP1 RETURN JUMPDEST PUSH2 0x222 PUSH1 0x4 DUP1 CALLDATASIZE SUB DUP2 ADD SWAP1 PUSH2 0x21D SWAP2 SWAP1 PUSH2 0x24CD JUMP JUMPDEST PUSH2 0x668 JUMP JUMPDEST PUSH1 0x40 MLOAD PUSH2 0x22F SWAP2 SWAP1 PUSH2 0x2571 JUMP JUMPDEST PUSH1 0x40 MLOAD DUP1 SWAP2 SUB SWAP1 RETURN JUMPDEST PUSH2 0x240 PUSH2 0x687 JUMP JUMPDEST PUSH1 0x40 MLOAD PUSH2 0x24D SWAP2 SWAP1 PUSH2 0x25AF JUMP JUMPDEST PUSH1 0x40 MLOAD DUP1 SWAP2 SUB SWAP1 RETURN JUMPDEST PUSH2 0x270 PUSH1 0x4 DUP1 CALLDATASIZE SUB DUP2 ADD SWAP1 PUSH2 0x26B SWAP2 SWAP1 PUSH2 0x24CD JUMP JUMPDEST PUSH2 0x6A1 JUMP JUMPDEST PUSH1 0x40 MLOAD PUSH2 0x27D SWAP2 SWAP1 PUSH2 0x25E5 JUMP JUMPDEST PUSH1 0x40 MLOAD DUP1 SWAP2 SUB SWAP1 RETURN JUMPDEST PUSH2 0x2A0 PUSH1 0x4 DUP1 CALLDATASIZE SUB DUP2 ADD SWAP1 PUSH2 0x29B SWAP2 SWAP1 PUSH2 0x269E JUMP JUMPDEST PUSH2 0x6C0 JUMP JUMPDEST STOP JUMPDEST PUSH2 0x2BC PUSH1 0x4 DUP1 CALLDATASIZE SUB DUP2 ADD SWAP1 PUSH2 0x2B7 SWAP2 SWAP1 PUSH2 0x272A JUMP JUMPDEST PUSH2 0x70A JUMP JUMPDEST STOP JUMPDEST PUSH2 0x2D8 PUSH1 0x4 DUP1 CALLDATASIZE SUB DUP2 ADD SWAP1 PUSH2 0x2D3 SWAP2 SWAP1 PUSH2 0x24CD JUMP JUMPDEST PUSH2 0x71C JUMP JUMPDEST PUSH1 0x40 MLOAD PUSH2 0x2E5 SWAP2 SWAP1 PUSH2 0x25E5 JUMP JUMPDEST PUSH1 0x40 MLOAD DUP1 SWAP2 SUB SWAP1 RETURN JUMPDEST PUSH2 0x308 PUSH1 0x4 DUP1 CALLDATASIZE SUB DUP2 ADD SWAP1 PUSH2 0x303 SWAP2 SWAP1 PUSH2 0x24CD JUMP JUMPDEST PUSH2 0x73B JUMP JUMPDEST PUSH1 0x40 MLOAD PUSH2 0x317 SWAP4 SWAP3 SWAP2 SWAP1 PUSH2 0x2757 JUMP JUMPDEST PUSH1 0x40 MLOAD DUP1 SWAP2 SUB SWAP1 RETURN JUMPDEST PUSH2 0x33A PUSH1 0x4 DUP1 CALLDATASIZE SUB DUP2 ADD SWAP1 PUSH2 0x335 SWAP2 SWAP1 PUSH2 0x24CD JUMP JUMPDEST PUSH2 0x765 JUMP JUMPDEST STOP JUMPDEST PUSH2 0x356 PUSH1 0x4 DUP1 CALLDATASIZE SUB DUP2 ADD SWAP1 PUSH2 0x351 SWAP2 SWAP1 PUSH2 0x24CD JUMP JUMPDEST PUSH2 0x810 JUMP JUMPDEST PUSH1 0x40 MLOAD PUSH2 0x363 SWAP2 SWAP1 PUSH2 0x25E5 JUMP JUMPDEST PUSH1 0x40 MLOAD DUP1 SWAP2 SUB SWAP1 RETURN JUMPDEST PUSH2 0x386 PUSH1 0x4 DUP1 CALLDATASIZE SUB DUP2 ADD SWAP1 PUSH2 0x381 SWAP2 SWAP1 PUSH2 0x24CD JUMP JUMPDEST PUSH2 0x82F JUMP JUMPDEST PUSH1 0x40 MLOAD PUSH2 0x393 SWAP2 SWAP1 PUSH2 0x25E5 JUMP JUMPDEST PUSH1 0x40 MLOAD DUP1 SWAP2 SUB SWAP1 RETURN JUMPDEST PUSH2 0x3B6 PUSH1 0x4 DUP1 CALLDATASIZE SUB DUP2 ADD SWAP1 PUSH2 0x3B1 SWAP2 SWAP1 PUSH2 0x27EC JUMP JUMPDEST PUSH2 0x858 JUMP JUMPDEST PUSH1 0x40 MLOAD PUSH2 0x3C3 SWAP2 SWAP1 PUSH2 0x28FA JUMP JUMPDEST PUSH1 0x40 MLOAD DUP1 SWAP2 SUB SWAP1 RETURN JUMPDEST PUSH2 0x3E6 PUSH1 0x4 DUP1 CALLDATASIZE SUB DUP2 ADD SWAP1 PUSH2 0x3E1 SWAP2 SWAP1 PUSH2 0x2915 JUMP JUMPDEST PUSH2 0x8B6 JUMP JUMPDEST PUSH1 0x40 MLOAD PUSH2 0x3F3 SWAP2 SWAP1 PUSH2 0x2472 JUMP JUMPDEST PUSH1 0x40 MLOAD DUP1 SWAP2 SUB SWAP1 RETURN JUMPDEST PUSH2 0x416 PUSH1 0x4 DUP1 CALLDATASIZE SUB DUP2 ADD SWAP1 PUSH2 0x411 SWAP2 SWAP1 PUSH2 0x2966 JUMP JUMPDEST PUSH2 0xA39 JUMP JUMPDEST PUSH1 0x40 MLOAD PUSH2 0x423 SWAP2 SWAP1 PUSH2 0x29D0 JUMP JUMPDEST PUSH1 0x40 MLOAD DUP1 SWAP2 SUB SWAP1 RETURN JUMPDEST PUSH2 0x434 PUSH2 0xAA4 JUMP JUMPDEST STOP JUMPDEST PUSH2 0x450 PUSH1 0x4 DUP1 CALLDATASIZE SUB DUP2 ADD SWAP1 PUSH2 0x44B SWAP2 SWAP1 PUSH2 0x2915 JUMP JUMPDEST PUSH2 0xAB8 JUMP JUMPDEST PUSH1 0x40 MLOAD PUSH2 0x45D SWAP2 SWAP1 PUSH2 0x29FA JUMP JUMPDEST PUSH1 0x40 MLOAD DUP1 SWAP2 SUB SWAP1 RETURN JUMPDEST PUSH2 0x46E PUSH2 0xB0C JUMP JUMPDEST PUSH1 0x40 MLOAD PUSH2 0x47B SWAP2 SWAP1 PUSH2 0x2A24 JUMP JUMPDEST PUSH1 0x40 MLOAD DUP1 SWAP2 SUB SWAP1 RETURN JUMPDEST PUSH2 0x49E PUSH1 0x4 DUP1 CALLDATASIZE SUB DUP2 ADD SWAP1 PUSH2 0x499 SWAP2 SWAP1 PUSH2 0x2A7D JUMP JUMPDEST PUSH2 0xB1F JUMP JUMPDEST STOP JUMPDEST PUSH2 0x4A8 PUSH2 0xB33 JUMP JUMPDEST PUSH1 0x40 MLOAD PUSH2 0x4B5 SWAP2 SWAP1 PUSH2 0x2AB9 JUMP JUMPDEST PUSH1 0x40 MLOAD DUP1 SWAP2 SUB SWAP1 RETURN JUMPDEST PUSH2 0x4D8 PUSH1 0x4 DUP1 CALLDATASIZE SUB DUP2 ADD SWAP1 PUSH2 0x4D3 SWAP2 SWAP1 PUSH2 0x24CD JUMP JUMPDEST PUSH2 0xB5C JUMP JUMPDEST STOP JUMPDEST PUSH2 0x4F4 PUSH1 0x4 DUP1 CALLDATASIZE SUB DUP2 ADD SWAP1 PUSH2 0x4EF SWAP2 SWAP1 PUSH2 0x24CD JUMP JUMPDEST PUSH2 0xBC1 JUMP JUMPDEST PUSH1 0x40 MLOAD PUSH2 0x501 SWAP2 SWAP1 PUSH2 0x2B1C JUMP JUMPDEST PUSH1 0x40 MLOAD DUP1 SWAP2 SUB SWAP1 RETURN JUMPDEST PUSH2 0x524 PUSH1 0x4 DUP1 CALLDATASIZE SUB DUP2 ADD SWAP1 PUSH2 0x51F SWAP2 SWAP1 PUSH2 0x2B63 JUMP JUMPDEST PUSH2 0xC84 JUMP JUMPDEST STOP JUMPDEST PUSH2 0x52E PUSH2 0xCB8 JUMP JUMPDEST PUSH1 0x40 MLOAD PUSH2 0x53B SWAP2 SWAP1 PUSH2 0x2AB9 JUMP JUMPDEST PUSH1 0x40 MLOAD DUP1 SWAP2 SUB SWAP1 RETURN JUMPDEST PUSH2 0x54C PUSH2 0xCDE JUMP JUMPDEST PUSH1 0x40 MLOAD PUSH2 0x559 SWAP2 SWAP1 PUSH2 0x25AF JUMP JUMPDEST PUSH1 0x40 MLOAD DUP1 SWAP2 SUB SWAP1 RETURN JUMPDEST PUSH2 0x57C PUSH1 0x4 DUP1 CALLDATASIZE SUB DUP2 ADD SWAP1 PUSH2 0x577 SWAP2 SWAP1 PUSH2 0x2B63 JUMP JUMPDEST PUSH2 0xCF8 JUMP JUMPDEST STOP JUMPDEST PUSH2 0x598 PUSH1 0x4 DUP1 CALLDATASIZE SUB DUP2 ADD SWAP1 PUSH2 0x593 SWAP2 SWAP1 PUSH2 0x24CD JUMP JUMPDEST PUSH2 0xD2C JUMP JUMPDEST PUSH1 0x40 MLOAD PUSH2 0x5A5 SWAP2 SWAP1 PUSH2 0x25E5 JUMP JUMPDEST PUSH1 0x40 MLOAD DUP1 SWAP2 SUB SWAP1 RETURN JUMPDEST PUSH2 0x5C8 PUSH1 0x4 DUP1 CALLDATASIZE SUB DUP2 ADD SWAP1 PUSH2 0x5C3 SWAP2 SWAP1 PUSH2 0x2BB5 JUMP JUMPDEST PUSH2 0xD55 JUMP JUMPDEST STOP JUMPDEST PUSH2 0x5E4 PUSH1 0x4 DUP1 CALLDATASIZE SUB DUP2 ADD SWAP1 PUSH2 0x5DF SWAP2 SWAP1 PUSH2 0x24CD JUMP JUMPDEST PUSH2 0xD96 JUMP JUMPDEST PUSH1 0x40 MLOAD PUSH2 0x5F1 SWAP2 SWAP1 PUSH2 0x25E5 JUMP JUMPDEST PUSH1 0x40 MLOAD DUP1 SWAP2 SUB SWAP1 RETURN JUMPDEST PUSH2 0x614 PUSH1 0x4 DUP1 CALLDATASIZE SUB DUP2 ADD SWAP1 PUSH2 0x60F SWAP2 SWAP1 PUSH2 0x2C29 JUMP JUMPDEST PUSH2 0xDB5 JUMP JUMPDEST STOP JUMPDEST PUSH2 0x630 PUSH1 0x4 DUP1 CALLDATASIZE SUB DUP2 ADD SWAP1 PUSH2 0x62B SWAP2 SWAP1 PUSH2 0x2915 JUMP JUMPDEST PUSH2 0xDDB JUMP JUMPDEST STOP JUMPDEST PUSH2 0x64C PUSH1 0x4 DUP1 CALLDATASIZE SUB DUP2 ADD SWAP1 PUSH2 0x647 SWAP2 SWAP1 PUSH2 0x2966 JUMP JUMPDEST PUSH2 0xE61 JUMP JUMPDEST PUSH1 0x40 MLOAD PUSH2 0x659 SWAP2 SWAP1 PUSH2 0x25E5 JUMP JUMPDEST PUSH1 0x40 MLOAD DUP1 SWAP2 SUB SWAP1 RETURN JUMPDEST PUSH1 0x2 SLOAD DUP2 JUMP JUMPDEST PUSH1 0x0 DUP1 PUSH2 0x674 DUP4 PUSH2 0x107B JUMP JUMPDEST SWAP1 POP PUSH2 0x67F DUP2 PUSH2 0x10DB JUMP JUMPDEST SWAP2 POP POP SWAP2 SWAP1 POP JUMP JUMPDEST PUSH1 0x1 PUSH1 0x0 SWAP1 SLOAD SWAP1 PUSH2 0x100 EXP SWAP1 DIV PUSH8 0xFFFFFFFFFFFFFFFF AND DUP2 JUMP JUMPDEST PUSH1 0x0 DUP1 PUSH2 0x6AD DUP4 PUSH2 0x107B JUMP JUMPDEST SWAP1 POP PUSH2 0x6B8 DUP2 PUSH2 0x1128 JUMP JUMPDEST SWAP2 POP POP SWAP2 SWAP1 POP JUMP JUMPDEST PUSH2 0x6C8 PUSH2 0x1168 JUMP JUMPDEST DUP3 PUSH1 0xFF AND PUSH32 0x294D62780E868235E85AEE4277A92857D52A196987E2A5BBB9FFFE4F08B4567A DUP4 DUP4 PUSH1 0x40 MLOAD PUSH2 0x6FD SWAP3 SWAP2 SWAP1 PUSH2 0x2CB4 JUMP JUMPDEST PUSH1 0x40 MLOAD DUP1 SWAP2 SUB SWAP1 LOG2 POP POP POP JUMP JUMPDEST PUSH2 0x712 PUSH2 0x1168 JUMP JUMPDEST DUP1 PUSH1 0x2 DUP2 SWAP1 SSTORE POP POP JUMP JUMPDEST PUSH1 0x0 DUP1 PUSH2 0x728 DUP4 PUSH2 0x107B JUMP JUMPDEST SWAP1 POP PUSH2 0x733 DUP2 PUSH2 0x11EF JUMP JUMPDEST SWAP2 POP POP SWAP2 SWAP1 POP JUMP JUMPDEST PUSH1 0x4 PUSH1 0x20 MSTORE DUP1 PUSH1 0x0 MSTORE PUSH1 0x40 PUSH1 0x0 KECCAK256 PUSH1 0x0 SWAP2 POP SWAP1 POP DUP1 PUSH1 0x0 ADD SLOAD SWAP1 DUP1 PUSH1 0x1 ADD SLOAD SWAP1 DUP1 PUSH1 0x2 ADD SLOAD SWAP1 POP DUP4 JUMP JUMPDEST PUSH2 0x76D PUSH2 0x1168 JUMP JUMPDEST PUSH2 0x776 DUP2 PUSH2 0x82F JUMP JUMPDEST ISZERO PUSH2 0x7DB JUMPI PUSH1 0x4 PUSH1 0x0 DUP3 DUP2 MSTORE PUSH1 0x20 ADD SWAP1 DUP2 MSTORE PUSH1 0x20 ADD PUSH1 0x0 KECCAK256 PUSH1 0x0 DUP1 DUP3 ADD PUSH1 0x0 SWAP1 SSTORE PUSH1 0x1 DUP3 ADD PUSH1 0x0 SWAP1 SSTORE PUSH1 0x2 DUP3 ADD PUSH1 0x0 SWAP1 SSTORE POP POP DUP1 PUSH32 0x88AE8321C96CEE88D802409F3677F889D8A6743C4631B069FE600A3A9B07E020 PUSH1 0x40 MLOAD PUSH1 0x40 MLOAD DUP1 SWAP2 SUB SWAP1 LOG2 PUSH2 0x80D JUMP JUMPDEST PUSH1 0x40 MLOAD PUSH32 0xD9C78E0200000000000000000000000000000000000000000000000000000000 DUP2 MSTORE PUSH1 0x4 ADD PUSH1 0x40 MLOAD DUP1 SWAP2 SUB SWAP1 REVERT JUMPDEST POP JUMP JUMPDEST PUSH1 0x0 DUP1 PUSH2 0x81C DUP4 PUSH2 0x107B JUMP JUMPDEST SWAP1 POP PUSH2 0x827 DUP2 PUSH2 0x127C JUMP JUMPDEST SWAP2 POP POP SWAP2 SWAP1 POP JUMP JUMPDEST PUSH1 0x0 DUP1 PUSH1 0x4 PUSH1 0x0 DUP5 DUP2 MSTORE PUSH1 0x20 ADD SWAP1 DUP2 MSTORE PUSH1 0x20 ADD PUSH1 0x0 KECCAK256 SWAP1 POP PUSH2 0x850 DUP2 PUSH2 0x12E9 JUMP JUMPDEST SWAP2 POP POP SWAP2 SWAP1 POP JUMP JUMPDEST PUSH2 0x860 PUSH2 0x241B JUMP JUMPDEST PUSH1 0x0 PUSH1 0x5 PUSH1 0x0 DUP5 PUSH20 0xFFFFFFFFFFFFFFFFFFFFFFFFFFFFFFFFFFFFFFFF AND PUSH20 0xFFFFFFFFFFFFFFFFFFFFFFFFFFFFFFFFFFFFFFFF AND DUP2 MSTORE PUSH1 0x20 ADD SWAP1 DUP2 MSTORE PUSH1 0x20 ADD PUSH1 0x0 KECCAK256 SWAP1 POP PUSH2 0x8AD DUP2 DUP6 PUSH2 0x12FA JUMP JUMPDEST SWAP2 POP POP SWAP3 SWAP2 POP POP JUMP JUMPDEST PUSH1 0x0 DUP1 PUSH1 0x1 DUP2 GT ISZERO PUSH2 0x8CB JUMPI PUSH2 0x8CA PUSH2 0x24FA JUMP JUMPDEST JUMPDEST PUSH1 0x3 PUSH1 0x14 SWAP1 SLOAD SWAP1 PUSH2 0x100 EXP SWAP1 DIV PUSH1 0xFF AND PUSH1 0x1 DUP2 GT ISZERO PUSH2 0x8ED JUMPI PUSH2 0x8EC PUSH2 0x24FA JUMP JUMPDEST JUMPDEST SUB PUSH2 0x995 JUMPI PUSH1 0x3 PUSH1 0x0 SWAP1 SLOAD SWAP1 PUSH2 0x100 EXP SWAP1 DIV PUSH20 0xFFFFFFFFFFFFFFFFFFFFFFFFFFFFFFFFFFFFFFFF AND PUSH20 0xFFFFFFFFFFFFFFFFFFFFFFFFFFFFFFFFFFFFFFFF AND PUSH4 0x58970CA8 DUP4 PUSH1 0x40 MLOAD DUP3 PUSH4 0xFFFFFFFF AND PUSH1 0xE0 SHL DUP2 MSTORE PUSH1 0x4 ADD PUSH2 0x94D SWAP2 SWAP1 PUSH2 0x2AB9 JUMP JUMPDEST PUSH1 0x20 PUSH1 0x40 MLOAD DUP1 DUP4 SUB DUP2 DUP7 GAS STATICCALL ISZERO DUP1 ISZERO PUSH2 0x96A JUMPI RETURNDATASIZE PUSH1 0x0 DUP1 RETURNDATACOPY RETURNDATASIZE PUSH1 0x0 REVERT JUMPDEST POP POP POP POP PUSH1 0x40 MLOAD RETURNDATASIZE PUSH1 0x1F NOT PUSH1 0x1F DUP3 ADD AND DUP3 ADD DUP1 PUSH1 0x40 MSTORE POP DUP2 ADD SWAP1 PUSH2 0x98E SWAP2 SWAP1 PUSH2 0x2CED JUMP JUMPDEST SWAP1 POP PUSH2 0xA34 JUMP JUMPDEST PUSH1 0x3 PUSH1 0x0 SWAP1 SLOAD SWAP1 PUSH2 0x100 EXP SWAP1 DIV PUSH20 0xFFFFFFFFFFFFFFFFFFFFFFFFFFFFFFFFFFFFFFFF AND PUSH20 0xFFFFFFFFFFFFFFFFFFFFFFFFFFFFFFFFFFFFFFFF AND PUSH4 0x70A08231 DUP4 PUSH1 0x40 MLOAD DUP3 PUSH4 0xFFFFFFFF AND PUSH1 0xE0 SHL DUP2 MSTORE PUSH1 0x4 ADD PUSH2 0x9F0 SWAP2 SWAP1 PUSH2 0x2AB9 JUMP JUMPDEST PUSH1 0x20 PUSH1 0x40 MLOAD DUP1 DUP4 SUB DUP2 DUP7 GAS STATICCALL ISZERO DUP1 ISZERO PUSH2 0xA0D JUMPI RETURNDATASIZE PUSH1 0x0 DUP1 RETURNDATACOPY RETURNDATASIZE PUSH1 0x0 REVERT JUMPDEST POP POP POP POP PUSH1 0x40 MLOAD RETURNDATASIZE PUSH1 0x1F NOT PUSH1 0x1F DUP3 ADD AND DUP3 ADD DUP1 PUSH1 0x40 MSTORE POP DUP2 ADD SWAP1 PUSH2 0xA31 SWAP2 SWAP1 PUSH2 0x2CED JUMP JUMPDEST SWAP1 POP JUMPDEST SWAP2 SWAP1 POP JUMP JUMPDEST PUSH1 0x0 DUP1 DUP3 PUSH1 0x0 ADD PUSH1 0x20 DUP2 ADD SWAP1 PUSH2 0xA4F SWAP2 SWAP1 PUSH2 0x2915 JUMP JUMPDEST DUP4 DUP1 PUSH1 0x20 ADD SWAP1 PUSH2 0xA5F SWAP2 SWAP1 PUSH2 0x2D29 JUMP JUMPDEST DUP6 DUP1 PUSH1 0x40 ADD SWAP1 PUSH2 0xA6F SWAP2 SWAP1 PUSH2 0x2D29 JUMP JUMPDEST PUSH1 0x40 MLOAD PUSH1 0x20 ADD PUSH2 0xA83 SWAP6 SWAP5 SWAP4 SWAP3 SWAP2 SWAP1 PUSH2 0x2E04 JUMP JUMPDEST PUSH1 0x40 MLOAD PUSH1 0x20 DUP2 DUP4 SUB SUB DUP2 MSTORE SWAP1 PUSH1 0x40 MSTORE SWAP1 POP DUP1 DUP1 MLOAD SWAP1 PUSH1 0x20 ADD KECCAK256 SWAP2 POP POP SWAP2 SWAP1 POP JUMP JUMPDEST PUSH2 0xAAC PUSH2 0x1168 JUMP JUMPDEST PUSH2 0xAB6 PUSH1 0x0 PUSH2 0x1379 JUMP JUMPDEST JUMP JUMPDEST PUSH1 0x0 DUP1 PUSH2 0xAC4 DUP4 PUSH2 0x8B6 JUMP JUMPDEST SWAP1 POP PUSH1 0x0 PUSH2 0xB00 DUP3 PUSH1 0x1 PUSH16 0xFFFFFFFFFFFFFFFFFFFFFFFFFFFFFFFF PUSH2 0xAE9 SWAP2 SWAP1 PUSH2 0x2E6C JUMP JUMPDEST PUSH16 0xFFFFFFFFFFFFFFFFFFFFFFFFFFFFFFFF AND PUSH2 0x143D JUMP JUMPDEST SWAP1 POP DUP1 SWAP3 POP POP POP SWAP2 SWAP1 POP JUMP JUMPDEST PUSH1 0x3 PUSH1 0x15 SWAP1 SLOAD SWAP1 PUSH2 0x100 EXP SWAP1 DIV PUSH1 0xFF AND DUP2 JUMP JUMPDEST PUSH2 0xB27 PUSH2 0x1168 JUMP JUMPDEST PUSH2 0xB30 DUP2 PUSH2 0x1456 JUMP JUMPDEST POP JUMP JUMPDEST PUSH1 0x0 DUP1 PUSH1 0x0 SWAP1 SLOAD SWAP1 PUSH2 0x100 EXP SWAP1 DIV PUSH20 0xFFFFFFFFFFFFFFFFFFFFFFFFFFFFFFFFFFFFFFFF AND SWAP1 POP SWAP1 JUMP JUMPDEST PUSH1 0x0 PUSH1 0x4 PUSH1 0x0 DUP4 DUP2 MSTORE PUSH1 0x20 ADD SWAP1 DUP2 MSTORE PUSH1 0x20 ADD PUSH1 0x0 KECCAK256 SWAP1 POP PUSH2 0xB7C DUP2 PUSH2 0x12E9 JUMP JUMPDEST ISZERO PUSH2 0xBB3 JUMPI PUSH1 0x40 MLOAD PUSH32 0xB8C39E6200000000000000000000000000000000000000000000000000000000 DUP2 MSTORE PUSH1 0x4 ADD PUSH1 0x40 MLOAD DUP1 SWAP2 SUB SWAP1 REVERT JUMPDEST PUSH2 0xBBD DUP3 DUP3 PUSH2 0x1681 JUMP JUMPDEST POP POP JUMP JUMPDEST PUSH1 0x0 DUP1 PUSH2 0xBCD DUP4 PUSH2 0x107B JUMP JUMPDEST SWAP1 POP PUSH1 0x0 PUSH2 0xBDA DUP3 PUSH2 0x10DB JUMP JUMPDEST SWAP1 POP PUSH1 0x3 DUP1 DUP2 GT ISZERO PUSH2 0xBEF JUMPI PUSH2 0xBEE PUSH2 0x24FA JUMP JUMPDEST JUMPDEST DUP2 PUSH1 0x3 DUP2 GT ISZERO PUSH2 0xC02 JUMPI PUSH2 0xC01 PUSH2 0x24FA JUMP JUMPDEST JUMPDEST SUB PUSH2 0xC12 JUMPI PUSH1 0x3 SWAP3 POP POP POP PUSH2 0xC7F JUMP JUMPDEST PUSH1 0x2 PUSH1 0x3 DUP2 GT ISZERO PUSH2 0xC26 JUMPI PUSH2 0xC25 PUSH2 0x24FA JUMP JUMPDEST JUMPDEST DUP2 PUSH1 0x3 DUP2 GT ISZERO PUSH2 0xC39 JUMPI PUSH2 0xC38 PUSH2 0x24FA JUMP JUMPDEST JUMPDEST SUB PUSH2 0xC49 JUMPI PUSH1 0x2 SWAP3 POP POP POP PUSH2 0xC7F JUMP JUMPDEST PUSH2 0xC52 DUP3 PUSH2 0x1128 JUMP JUMPDEST ISZERO PUSH2 0xC62 JUMPI PUSH1 0x0 SWAP3 POP POP POP PUSH2 0xC7F JUMP JUMPDEST PUSH2 0xC6B DUP3 PUSH2 0x11EF JUMP JUMPDEST PUSH2 0xC78 JUMPI PUSH2 0xC77 PUSH2 0x2EB0 JUMP JUMPDEST JUMPDEST PUSH1 0x1 SWAP3 POP POP POP JUMPDEST SWAP2 SWAP1 POP JUMP JUMPDEST PUSH2 0xC8C PUSH2 0x1168 JUMP JUMPDEST DUP1 PUSH1 0x0 PUSH1 0x14 PUSH2 0x100 EXP DUP2 SLOAD DUP2 PUSH8 0xFFFFFFFFFFFFFFFF MUL NOT AND SWAP1 DUP4 PUSH8 0xFFFFFFFFFFFFFFFF AND MUL OR SWAP1 SSTORE POP POP JUMP JUMPDEST PUSH1 0x3 PUSH1 0x0 SWAP1 SLOAD SWAP1 PUSH2 0x100 EXP SWAP1 DIV PUSH20 0xFFFFFFFFFFFFFFFFFFFFFFFFFFFFFFFFFFFFFFFF AND DUP2 JUMP JUMPDEST PUSH1 0x0 PUSH1 0x14 SWAP1 SLOAD SWAP1 PUSH2 0x100 EXP SWAP1 DIV PUSH8 0xFFFFFFFFFFFFFFFF AND DUP2 JUMP JUMPDEST PUSH2 0xD00 PUSH2 0x1168 JUMP JUMPDEST DUP1 PUSH1 0x1 PUSH1 0x0 PUSH2 0x100 EXP DUP2 SLOAD DUP2 PUSH8 0xFFFFFFFFFFFFFFFF MUL NOT AND SWAP1 DUP4 PUSH8 0xFFFFFFFFFFFFFFFF AND MUL OR SWAP1 SSTORE POP POP JUMP JUMPDEST PUSH1 0x0 DUP1 PUSH1 0x4 PUSH1 0x0 DUP5 DUP2 MSTORE PUSH1 0x20 ADD SWAP1 DUP2 MSTORE PUSH1 0x20 ADD PUSH1 0x0 KECCAK256 SWAP1 POP PUSH2 0xD4D DUP2 PUSH2 0x16E0 JUMP JUMPDEST SWAP2 POP POP SWAP2 SWAP1 POP JUMP JUMPDEST PUSH1 0x0 PUSH1 0x4 PUSH1 0x0 DUP7 DUP2 MSTORE PUSH1 0x20 ADD SWAP1 DUP2 MSTORE PUSH1 0x20 ADD PUSH1 0x0 KECCAK256 SWAP1 POP PUSH2 0xD75 DUP2 PUSH2 0x12E9 JUMP JUMPDEST PUSH2 0xD84 JUMPI PUSH2 0xD83 DUP6 DUP3 PUSH2 0x1681 JUMP JUMPDEST JUMPDEST PUSH2 0xD8F DUP2 DUP7 DUP7 PUSH2 0x172F JUMP JUMPDEST POP POP POP POP POP JUMP JUMPDEST PUSH1 0x0 DUP1 PUSH2 0xDA2 DUP4 PUSH2 0x107B JUMP JUMPDEST SWAP1 POP PUSH2 0xDAD DUP2 PUSH2 0x1A66 JUMP JUMPDEST SWAP2 POP POP SWAP2 SWAP1 POP JUMP JUMPDEST PUSH2 0xDBD PUSH2 0x1168 JUMP JUMPDEST DUP1 PUSH1 0x3 PUSH1 0x15 PUSH2 0x100 EXP DUP2 SLOAD DUP2 PUSH1 0xFF MUL NOT AND SWAP1 DUP4 PUSH1 0xFF AND MUL OR SWAP1 SSTORE POP POP JUMP JUMPDEST PUSH2 0xDE3 PUSH2 0x1168 JUMP JUMPDEST PUSH1 0x0 PUSH20 0xFFFFFFFFFFFFFFFFFFFFFFFFFFFFFFFFFFFFFFFF AND DUP2 PUSH20 0xFFFFFFFFFFFFFFFFFFFFFFFFFFFFFFFFFFFFFFFF AND SUB PUSH2 0xE55 JUMPI PUSH1 0x0 PUSH1 0x40 MLOAD PUSH32 0x1E4FBDF700000000000000000000000000000000000000000000000000000000 DUP2 MSTORE PUSH1 0x4 ADD PUSH2 0xE4C SWAP2 SWAP1 PUSH2 0x2AB9 JUMP JUMPDEST PUSH1 0x40 MLOAD DUP1 SWAP2 SUB SWAP1 REVERT JUMPDEST PUSH2 0xE5E DUP2 PUSH2 0x1379 JUMP JUMPDEST POP JUMP JUMPDEST PUSH1 0x0 DUP1 PUSH2 0xE6D DUP4 PUSH2 0xA39 JUMP JUMPDEST SWAP1 POP PUSH1 0x0 PUSH2 0xE7A DUP3 PUSH2 0x107B JUMP JUMPDEST SWAP1 POP PUSH1 0x2 PUSH1 0x3 DUP2 GT ISZERO PUSH2 0xE90 JUMPI PUSH2 0xE8F PUSH2 0x24FA JUMP JUMPDEST JUMPDEST PUSH2 0xE99 DUP3 PUSH2 0x10DB JUMP JUMPDEST PUSH1 0x3 DUP2 GT ISZERO PUSH2 0xEAB JUMPI PUSH2 0xEAA PUSH2 0x24FA JUMP JUMPDEST JUMPDEST EQ PUSH2 0xEE2 JUMPI PUSH1 0x40 MLOAD PUSH32 0xC8C93BA300000000000000000000000000000000000000000000000000000000 DUP2 MSTORE PUSH1 0x4 ADD PUSH1 0x40 MLOAD DUP1 SWAP2 SUB SWAP1 REVERT JUMPDEST PUSH1 0x4 PUSH1 0x0 DUP4 DUP2 MSTORE PUSH1 0x20 ADD SWAP1 DUP2 MSTORE PUSH1 0x20 ADD PUSH1 0x0 KECCAK256 PUSH1 0x0 DUP1 DUP3 ADD PUSH1 0x0 SWAP1 SSTORE PUSH1 0x1 DUP3 ADD PUSH1 0x0 SWAP1 SSTORE PUSH1 0x2 DUP3 ADD PUSH1 0x0 SWAP1 SSTORE POP POP PUSH1 0x0 GAS SWAP1 POP PUSH1 0x0 DUP1 DUP7 PUSH1 0x0 ADD PUSH1 0x20 DUP2 ADD SWAP1 PUSH2 0xF2B SWAP2 SWAP1 PUSH2 0x2915 JUMP JUMPDEST PUSH20 0xFFFFFFFFFFFFFFFFFFFFFFFFFFFFFFFFFFFFFFFF AND DUP8 DUP1 PUSH1 0x20 ADD SWAP1 PUSH2 0xF51 SWAP2 SWAP1 PUSH2 0x2D29 JUMP JUMPDEST PUSH1 0x40 MLOAD PUSH2 0xF5F SWAP3 SWAP2 SWAP1 PUSH2 0x2EDF JUMP JUMPDEST PUSH1 0x0 PUSH1 0x40 MLOAD DUP1 DUP4 SUB DUP2 PUSH1 0x0 DUP7 GAS CALL SWAP2 POP POP RETURNDATASIZE DUP1 PUSH1 0x0 DUP2 EQ PUSH2 0xF9C JUMPI PUSH1 0x40 MLOAD SWAP2 POP PUSH1 0x1F NOT PUSH1 0x3F RETURNDATASIZE ADD AND DUP3 ADD PUSH1 0x40 MSTORE RETURNDATASIZE DUP3 MSTORE RETURNDATASIZE PUSH1 0x0 PUSH1 0x20 DUP5 ADD RETURNDATACOPY PUSH2 0xFA1 JUMP JUMPDEST PUSH1 0x60 SWAP2 POP JUMPDEST POP SWAP2 POP SWAP2 POP DUP2 ISZERO PUSH2 0xFE9 JUMPI DUP5 PUSH32 0xDA66FCFE5711520A570CED34D4CDEBBE652FE74713BF2BC9DB4BA54357E5A96F DUP3 PUSH1 0x40 MLOAD PUSH2 0xFDC SWAP2 SWAP1 PUSH2 0x2F66 JUMP JUMPDEST PUSH1 0x40 MLOAD DUP1 SWAP2 SUB SWAP1 LOG2 PUSH2 0x106E JUMP JUMPDEST PUSH1 0x0 GAS SWAP1 POP PUSH1 0x40 DUP5 PUSH2 0xFFB SWAP2 SWAP1 PUSH2 0x2FB7 JUMP JUMPDEST DUP2 LT ISZERO PUSH2 0x1034 JUMPI PUSH1 0x40 MLOAD PUSH32 0x77EBEF4D00000000000000000000000000000000000000000000000000000000 DUP2 MSTORE PUSH1 0x4 ADD PUSH1 0x40 MLOAD DUP1 SWAP2 SUB SWAP1 REVERT JUMPDEST DUP6 PUSH32 0xD255D8A333980D77AF4F9179384057DEF133983CB02DB3E1FDB70C4DC14102E8 DUP4 PUSH1 0x40 MLOAD PUSH2 0x1064 SWAP2 SWAP1 PUSH2 0x2F66 JUMP JUMPDEST PUSH1 0x40 MLOAD DUP1 SWAP2 SUB SWAP1 LOG2 POP JUMPDEST DUP2 SWAP6 POP POP POP POP POP POP SWAP2 SWAP1 POP JUMP JUMPDEST PUSH1 0x0 DUP1 PUSH1 0x4 PUSH1 0x0 DUP5 DUP2 MSTORE PUSH1 0x20 ADD SWAP1 DUP2 MSTORE PUSH1 0x20 ADD PUSH1 0x0 KECCAK256 SWAP1 POP PUSH2 0x109C DUP2 PUSH2 0x12E9 JUMP JUMPDEST PUSH2 0x10D2 JUMPI PUSH1 0x40 MLOAD PUSH32 0xD9C78E0200000000000000000000000000000000000000000000000000000000 DUP2 MSTORE PUSH1 0x4 ADD PUSH1 0x40 MLOAD DUP1 SWAP2 SUB SWAP1 REVERT JUMPDEST DUP1 SWAP2 POP POP SWAP2 SWAP1 POP JUMP JUMPDEST PUSH1 0x0 PUSH2 0x10E6 DUP3 PUSH2 0x1AC7 JUMP JUMPDEST ISZERO PUSH2 0x1109 JUMPI PUSH2 0x10F4 DUP3 PUSH2 0x1A66 JUMP JUMPDEST PUSH2 0x10FF JUMPI PUSH1 0x2 PUSH2 0x1102 JUMP JUMPDEST PUSH1 0x0 JUMPDEST SWAP1 POP PUSH2 0x1123 JUMP JUMPDEST PUSH2 0x1112 DUP3 PUSH2 0x1128 JUMP JUMPDEST PUSH2 0x111D JUMPI PUSH1 0x3 PUSH2 0x1120 JUMP JUMPDEST PUSH1 0x1 JUMPDEST SWAP1 POP JUMPDEST SWAP2 SWAP1 POP JUMP JUMPDEST PUSH1 0x0 DUP1 DUP3 PUSH1 0x0 ADD SLOAD TIMESTAMP PUSH2 0x113B SWAP2 SWAP1 PUSH2 0x2FE8 JUMP JUMPDEST SWAP1 POP PUSH1 0x0 PUSH1 0x14 SWAP1 SLOAD SWAP1 PUSH2 0x100 EXP SWAP1 DIV PUSH8 0xFFFFFFFFFFFFFFFF AND PUSH8 0xFFFFFFFFFFFFFFFF AND DUP2 LT SWAP2 POP POP SWAP2 SWAP1 POP JUMP JUMPDEST PUSH2 0x1170 PUSH2 0x1AF9 JUMP JUMPDEST PUSH20 0xFFFFFFFFFFFFFFFFFFFFFFFFFFFFFFFFFFFFFFFF AND PUSH2 0x118E PUSH2 0xB33 JUMP JUMPDEST PUSH20 0xFFFFFFFFFFFFFFFFFFFFFFFFFFFFFFFFFFFFFFFF AND EQ PUSH2 0x11ED JUMPI PUSH2 0x11B1 PUSH2 0x1AF9 JUMP JUMPDEST PUSH1 0x40 MLOAD PUSH32 0x118CDAA700000000000000000000000000000000000000000000000000000000 DUP2 MSTORE PUSH1 0x4 ADD PUSH2 0x11E4 SWAP2 SWAP1 PUSH2 0x2AB9 JUMP JUMPDEST PUSH1 0x40 MLOAD DUP1 SWAP2 SUB SWAP1 REVERT JUMPDEST JUMP JUMPDEST PUSH1 0x0 DUP1 DUP3 PUSH1 0x0 ADD SLOAD TIMESTAMP PUSH2 0x1202 SWAP2 SWAP1 PUSH2 0x2FE8 JUMP JUMPDEST SWAP1 POP PUSH1 0x0 PUSH1 0x14 SWAP1 SLOAD SWAP1 PUSH2 0x100 EXP SWAP1 DIV PUSH8 0xFFFFFFFFFFFFFFFF AND PUSH8 0xFFFFFFFFFFFFFFFF AND DUP2 LT ISZERO DUP1 ISZERO PUSH2 0x1274 JUMPI POP PUSH1 0x1 PUSH1 0x0 SWAP1 SLOAD SWAP1 PUSH2 0x100 EXP SWAP1 DIV PUSH8 0xFFFFFFFFFFFFFFFF AND PUSH1 0x0 PUSH1 0x14 SWAP1 SLOAD SWAP1 PUSH2 0x100 EXP SWAP1 DIV PUSH8 0xFFFFFFFFFFFFFFFF AND PUSH2 0x1267 SWAP2 SWAP1 PUSH2 0x301C JUMP JUMPDEST PUSH8 0xFFFFFFFFFFFFFFFF AND DUP2 LT JUMPDEST SWAP2 POP POP SWAP2 SWAP1 POP JUMP JUMPDEST PUSH1 0x0 DUP1 PUSH2 0x1288 DUP4 PUSH2 0x10DB JUMP JUMPDEST SWAP1 POP PUSH1 0x0 PUSH1 0x3 DUP2 GT ISZERO PUSH2 0x129E JUMPI PUSH2 0x129D PUSH2 0x24FA JUMP JUMPDEST JUMPDEST DUP2 PUSH1 0x3 DUP2 GT ISZERO PUSH2 0x12B1 JUMPI PUSH2 0x12B0 PUSH2 0x24FA JUMP JUMPDEST JUMPDEST EQ DUP1 PUSH2 0x12E1 JUMPI POP PUSH1 0x1 PUSH1 0x3 DUP2 GT ISZERO PUSH2 0x12CC JUMPI PUSH2 0x12CB PUSH2 0x24FA JUMP JUMPDEST JUMPDEST DUP2 PUSH1 0x3 DUP2 GT ISZERO PUSH2 0x12DF JUMPI PUSH2 0x12DE PUSH2 0x24FA JUMP JUMPDEST JUMPDEST EQ JUMPDEST SWAP2 POP POP SWAP2 SWAP1 POP JUMP JUMPDEST PUSH1 0x0 DUP1 DUP3 PUSH1 0x0 ADD SLOAD EQ ISZERO SWAP1 POP SWAP2 SWAP1 POP JUMP JUMPDEST PUSH2 0x1302 PUSH2 0x241B JUMP JUMPDEST PUSH1 0x0 DUP1 PUSH2 0x1318 DUP5 DUP7 PUSH2 0x1B01 SWAP1 SWAP2 SWAP1 PUSH4 0xFFFFFFFF AND JUMP JUMPDEST SWAP2 POP SWAP2 POP DUP2 PUSH2 0x1365 JUMPI PUSH1 0x40 MLOAD DUP1 PUSH1 0x40 ADD PUSH1 0x40 MSTORE DUP1 PUSH1 0x0 PUSH1 0x2 DUP2 GT ISZERO PUSH2 0x1340 JUMPI PUSH2 0x133F PUSH2 0x24FA JUMP JUMPDEST JUMPDEST DUP2 MSTORE PUSH1 0x20 ADD PUSH1 0x0 PUSH16 0xFFFFFFFFFFFFFFFFFFFFFFFFFFFFFFFF AND DUP2 MSTORE POP SWAP3 POP POP POP PUSH2 0x1373 JUMP JUMPDEST PUSH2 0x136E DUP2 PUSH2 0x1B50 JUMP JUMPDEST SWAP3 POP POP POP JUMPDEST SWAP3 SWAP2 POP POP JUMP JUMPDEST PUSH1 0x0 DUP1 PUSH1 0x0 SWAP1 SLOAD SWAP1 PUSH2 0x100 EXP SWAP1 DIV PUSH20 0xFFFFFFFFFFFFFFFFFFFFFFFFFFFFFFFFFFFFFFFF AND SWAP1 POP DUP2 PUSH1 0x0 DUP1 PUSH2 0x100 EXP DUP2 SLOAD DUP2 PUSH20 0xFFFFFFFFFFFFFFFFFFFFFFFFFFFFFFFFFFFFFFFF MUL NOT AND SWAP1 DUP4 PUSH20 0xFFFFFFFFFFFFFFFFFFFFFFFFFFFFFFFFFFFFFFFF AND MUL OR SWAP1 SSTORE POP DUP2 PUSH20 0xFFFFFFFFFFFFFFFFFFFFFFFFFFFFFFFFFFFFFFFF AND DUP2 PUSH20 0xFFFFFFFFFFFFFFFFFFFFFFFFFFFFFFFFFFFFFFFF AND PUSH32 0x8BE0079C531659141344CD1FD0A4F28419497F9722A3DAAFE3B4186F6B6457E0 PUSH1 0x40 MLOAD PUSH1 0x40 MLOAD DUP1 SWAP2 SUB SWAP1 LOG3 POP POP JUMP JUMPDEST PUSH1 0x0 DUP2 DUP4 LT PUSH2 0x144C JUMPI DUP2 PUSH2 0x144E JUMP JUMPDEST DUP3 JUMPDEST SWAP1 POP SWAP3 SWAP2 POP POP JUMP JUMPDEST PUSH1 0x0 DUP2 SWAP1 POP DUP2 PUSH20 0xFFFFFFFFFFFFFFFFFFFFFFFFFFFFFFFFFFFFFFFF AND PUSH4 0x1FFC9A7 PUSH32 0x58970CA800000000000000000000000000000000000000000000000000000000 PUSH1 0x40 MLOAD DUP3 PUSH4 0xFFFFFFFF AND PUSH1 0xE0 SHL DUP2 MSTORE PUSH1 0x4 ADD PUSH2 0x14B4 SWAP2 SWAP1 PUSH2 0x3093 JUMP JUMPDEST PUSH1 0x20 PUSH1 0x40 MLOAD DUP1 DUP4 SUB DUP2 DUP7 GAS STATICCALL ISZERO DUP1 ISZERO PUSH2 0x14D1 JUMPI RETURNDATASIZE PUSH1 0x0 DUP1 RETURNDATACOPY RETURNDATASIZE PUSH1 0x0 REVERT JUMPDEST POP POP POP POP PUSH1 0x40 MLOAD RETURNDATASIZE PUSH1 0x1F NOT PUSH1 0x1F DUP3 ADD AND DUP3 ADD DUP1 PUSH1 0x40 MSTORE POP DUP2 ADD SWAP1 PUSH2 0x14F5 SWAP2 SWAP1 PUSH2 0x30DA JUMP JUMPDEST ISZERO PUSH2 0x152A JUMPI PUSH1 0x0 PUSH1 0x3 PUSH1 0x14 PUSH2 0x100 EXP DUP2 SLOAD DUP2 PUSH1 0xFF MUL NOT AND SWAP1 DUP4 PUSH1 0x1 DUP2 GT ISZERO PUSH2 0x1520 JUMPI PUSH2 0x151F PUSH2 0x24FA JUMP JUMPDEST JUMPDEST MUL OR SWAP1 SSTORE POP PUSH2 0x163C JUMP JUMPDEST PUSH1 0x0 DUP2 PUSH20 0xFFFFFFFFFFFFFFFFFFFFFFFFFFFFFFFFFFFFFFFF AND PUSH4 0x70A08231 ADDRESS PUSH1 0x40 MLOAD DUP3 PUSH4 0xFFFFFFFF AND PUSH1 0xE0 SHL DUP2 MSTORE PUSH1 0x4 ADD PUSH2 0x1565 SWAP2 SWAP1 PUSH2 0x2AB9 JUMP JUMPDEST PUSH1 0x20 PUSH1 0x40 MLOAD DUP1 DUP4 SUB DUP2 DUP7 GAS STATICCALL ISZERO DUP1 ISZERO PUSH2 0x1582 JUMPI RETURNDATASIZE PUSH1 0x0 DUP1 RETURNDATACOPY RETURNDATASIZE PUSH1 0x0 REVERT JUMPDEST POP POP POP POP PUSH1 0x40 MLOAD RETURNDATASIZE PUSH1 0x1F NOT PUSH1 0x1F DUP3 ADD AND DUP3 ADD DUP1 PUSH1 0x40 MSTORE POP DUP2 ADD SWAP1 PUSH2 0x15A6 SWAP2 SWAP1 PUSH2 0x2CED JUMP JUMPDEST SWAP1 POP PUSH1 0x0 DUP2 LT ISZERO DUP1 ISZERO PUSH2 0x15D9 JUMPI POP PUSH32 0xFFFFFFFFFFFFFFFFFFFFFFFFFFFFFFFFFFFFFFFFFFFFFFFFFFFFFFFFFFFFFFFF DUP2 GT ISZERO JUMPDEST PUSH2 0x160F JUMPI PUSH1 0x40 MLOAD PUSH32 0xADD3C86F00000000000000000000000000000000000000000000000000000000 DUP2 MSTORE PUSH1 0x4 ADD PUSH1 0x40 MLOAD DUP1 SWAP2 SUB SWAP1 REVERT JUMPDEST PUSH1 0x1 PUSH1 0x3 PUSH1 0x14 PUSH2 0x100 EXP DUP2 SLOAD DUP2 PUSH1 0xFF MUL NOT AND SWAP1 DUP4 PUSH1 0x1 DUP2 GT ISZERO PUSH2 0x1635 JUMPI PUSH2 0x1634 PUSH2 0x24FA JUMP JUMPDEST JUMPDEST MUL OR SWAP1 SSTORE POP POP JUMPDEST DUP1 PUSH1 0x3 PUSH1 0x0 PUSH2 0x100 EXP DUP2 SLOAD DUP2 PUSH20 0xFFFFFFFFFFFFFFFFFFFFFFFFFFFFFFFFFFFFFFFF MUL NOT AND SWAP1 DUP4 PUSH20 0xFFFFFFFFFFFFFFFFFFFFFFFFFFFFFFFFFFFFFFFF AND MUL OR SWAP1 SSTORE POP POP POP JUMP JUMPDEST PUSH1 0x0 DUP2 PUSH1 0x1 ADD SLOAD EQ DUP1 ISZERO PUSH2 0x1699 JUMPI POP PUSH1 0x0 DUP2 PUSH1 0x2 ADD SLOAD EQ JUMPDEST PUSH2 0x16A6 JUMPI PUSH2 0x16A5 PUSH2 0x2EB0 JUMP JUMPDEST JUMPDEST TIMESTAMP DUP2 PUSH1 0x0 ADD DUP2 SWAP1 SSTORE POP DUP2 PUSH32 0x288A29BCA04EDB18FCDB2C76D6E3B03B8A137C85C70D1A4CB8AACFA868D60510 PUSH1 0x40 MLOAD PUSH1 0x40 MLOAD DUP1 SWAP2 SUB SWAP1 LOG2 POP POP JUMP JUMPDEST PUSH1 0x0 DUP1 PUSH2 0x16EC DUP4 PUSH2 0x12E9 JUMP JUMPDEST SWAP1 POP DUP1 DUP1 ISZERO PUSH2 0x1727 JUMPI POP PUSH1 0x3 DUP1 DUP2 GT ISZERO PUSH2 0x1709 JUMPI PUSH2 0x1708 PUSH2 0x24FA JUMP JUMPDEST JUMPDEST PUSH2 0x1712 DUP5 PUSH2 0x10DB JUMP JUMPDEST PUSH1 0x3 DUP2 GT ISZERO PUSH2 0x1724 JUMPI PUSH2 0x1723 PUSH2 0x24FA JUMP JUMPDEST JUMPDEST EQ ISZERO JUMPDEST SWAP2 POP POP SWAP2 SWAP1 POP JUMP JUMPDEST PUSH1 0x0 PUSH1 0x5 PUSH1 0x0 CALLER PUSH20 0xFFFFFFFFFFFFFFFFFFFFFFFFFFFFFFFFFFFFFFFF AND PUSH20 0xFFFFFFFFFFFFFFFFFFFFFFFFFFFFFFFFFFFFFFFF AND DUP2 MSTORE PUSH1 0x20 ADD SWAP1 DUP2 MSTORE PUSH1 0x20 ADD PUSH1 0x0 KECCAK256 SWAP1 POP PUSH1 0x0 PUSH2 0x177E DUP3 DUP6 PUSH2 0x12FA JUMP JUMPDEST SWAP1 POP PUSH1 0x0 PUSH1 0x40 MLOAD DUP1 PUSH1 0x40 ADD PUSH1 0x40 MSTORE DUP1 DUP6 PUSH1 0x2 DUP2 GT ISZERO PUSH2 0x17A0 JUMPI PUSH2 0x179F PUSH2 0x24FA JUMP JUMPDEST JUMPDEST DUP2 MSTORE PUSH1 0x20 ADD PUSH2 0x17AE CALLER PUSH2 0xAB8 JUMP JUMPDEST PUSH16 0xFFFFFFFFFFFFFFFFFFFFFFFFFFFFFFFF AND DUP2 MSTORE POP SWAP1 POP PUSH2 0x17CF DUP3 DUP3 PUSH2 0x1C77 JUMP JUMPDEST ISZERO PUSH2 0x1817 JUMPI DUP2 PUSH1 0x0 ADD MLOAD DUP5 PUSH1 0x40 MLOAD PUSH32 0x3DDD27900000000000000000000000000000000000000000000000000000000 DUP2 MSTORE PUSH1 0x4 ADD PUSH2 0x180E SWAP3 SWAP2 SWAP1 PUSH2 0x3116 JUMP JUMPDEST PUSH1 0x40 MLOAD DUP1 SWAP2 SUB SWAP1 REVERT JUMPDEST PUSH1 0x0 PUSH2 0x1823 DUP5 DUP8 PUSH2 0x1CE7 JUMP JUMPDEST SWAP1 POP PUSH1 0x1 PUSH1 0x2 DUP2 GT ISZERO PUSH2 0x1839 JUMPI PUSH2 0x1838 PUSH2 0x24FA JUMP JUMPDEST JUMPDEST DUP3 PUSH1 0x0 ADD MLOAD PUSH1 0x2 DUP2 GT ISZERO PUSH2 0x1850 JUMPI PUSH2 0x184F PUSH2 0x24FA JUMP JUMPDEST JUMPDEST SUB PUSH2 0x18E4 JUMPI PUSH2 0x185E DUP8 PUSH2 0x1128 JUMP JUMPDEST PUSH2 0x1894 JUMPI PUSH1 0x40 MLOAD PUSH32 0x6D47005400000000000000000000000000000000000000000000000000000000 DUP2 MSTORE PUSH1 0x4 ADD PUSH1 0x40 MLOAD DUP1 SWAP2 SUB SWAP1 REVERT JUMPDEST PUSH1 0x3 PUSH1 0x15 SWAP1 SLOAD SWAP1 PUSH2 0x100 EXP SWAP1 DIV PUSH1 0xFF AND PUSH1 0xFF AND DUP2 LT PUSH2 0x18DF JUMPI PUSH1 0x40 MLOAD PUSH32 0x48D8FC9400000000000000000000000000000000000000000000000000000000 DUP2 MSTORE PUSH1 0x4 ADD PUSH1 0x40 MLOAD DUP1 SWAP2 SUB SWAP1 REVERT JUMPDEST PUSH2 0x198A JUMP JUMPDEST PUSH1 0x2 DUP1 DUP2 GT ISZERO PUSH2 0x18F7 JUMPI PUSH2 0x18F6 PUSH2 0x24FA JUMP JUMPDEST JUMPDEST DUP3 PUSH1 0x0 ADD MLOAD PUSH1 0x2 DUP2 GT ISZERO PUSH2 0x190E JUMPI PUSH2 0x190D PUSH2 0x24FA JUMP JUMPDEST JUMPDEST SUB PUSH2 0x1957 JUMPI PUSH2 0x191C DUP8 PUSH2 0x127C JUMP JUMPDEST PUSH2 0x1952 JUMPI PUSH1 0x40 MLOAD PUSH32 0xDE09F8100000000000000000000000000000000000000000000000000000000 DUP2 MSTORE PUSH1 0x4 ADD PUSH1 0x40 MLOAD DUP1 SWAP2 SUB SWAP1 REVERT JUMPDEST PUSH2 0x1989 JUMP JUMPDEST PUSH1 0x40 MLOAD PUSH32 0xD5DD0C6600000000000000000000000000000000000000000000000000000000 DUP2 MSTORE PUSH1 0x4 ADD PUSH1 0x40 MLOAD DUP1 SWAP2 SUB SWAP1 REVERT JUMPDEST JUMPDEST PUSH2 0x1997 DUP5 DUP8 DUP10 DUP7 DUP7 PUSH2 0x1E89 JUMP JUMPDEST PUSH1 0x0 DUP3 PUSH1 0x20 ADD MLOAD PUSH16 0xFFFFFFFFFFFFFFFFFFFFFFFFFFFFFFFF AND SUB PUSH2 0x1A0D JUMPI CALLER PUSH20 0xFFFFFFFFFFFFFFFFFFFFFFFFFFFFFFFFFFFFFFFF AND DUP7 PUSH32 0x60921DE1A934E80AF973D90EDBCA67A078F0DC03D7385B9031FF925B3A2AB820 DUP5 PUSH1 0x0 ADD MLOAD PUSH1 0x40 MLOAD PUSH2 0x1A00 SWAP2 SWAP1 PUSH2 0x313F JUMP JUMPDEST PUSH1 0x40 MLOAD DUP1 SWAP2 SUB SWAP1 LOG3 PUSH2 0x1A5D JUMP JUMPDEST CALLER PUSH20 0xFFFFFFFFFFFFFFFFFFFFFFFFFFFFFFFFFFFFFFFF AND DUP7 PUSH32 0xCD907020340D41D9B3FB53725F52264110FC156B0059B7817F4FE29F25A96CEF DUP5 PUSH1 0x40 MLOAD PUSH2 0x1A54 SWAP2 SWAP1 PUSH2 0x28FA JUMP JUMPDEST PUSH1 0x40 MLOAD DUP1 SWAP2 SUB SWAP1 LOG3 JUMPDEST POP POP POP POP POP POP POP JUMP JUMPDEST PUSH1 0x0 DUP1 DUP3 PUSH1 0x0 ADD SLOAD TIMESTAMP PUSH2 0x1A79 SWAP2 SWAP1 PUSH2 0x2FE8 JUMP JUMPDEST SWAP1 POP PUSH1 0x1 PUSH1 0x0 SWAP1 SLOAD SWAP1 PUSH2 0x100 EXP SWAP1 DIV PUSH8 0xFFFFFFFFFFFFFFFF AND PUSH1 0x0 PUSH1 0x14 SWAP1 SLOAD SWAP1 PUSH2 0x100 EXP SWAP1 DIV PUSH8 0xFFFFFFFFFFFFFFFF AND PUSH2 0x1AB3 SWAP2 SWAP1 PUSH2 0x301C JUMP JUMPDEST PUSH8 0xFFFFFFFFFFFFFFFF AND DUP2 LT SWAP2 POP POP SWAP2 SWAP1 POP JUMP JUMPDEST PUSH1 0x0 DUP2 PUSH1 0x1 ADD SLOAD PUSH1 0x2 DUP4 PUSH1 0x2 ADD SLOAD PUSH2 0x1ADF SWAP2 SWAP1 PUSH2 0x315A JUMP JUMPDEST LT DUP1 ISZERO PUSH2 0x1AF2 JUMPI POP PUSH1 0x2 SLOAD DUP3 PUSH1 0x1 ADD SLOAD LT ISZERO JUMPDEST SWAP1 POP SWAP2 SWAP1 POP JUMP JUMPDEST PUSH1 0x0 CALLER SWAP1 POP SWAP1 JUMP JUMPDEST PUSH1 0x0 DUP1 PUSH1 0x0 DUP5 PUSH1 0x2 ADD PUSH1 0x0 DUP6 DUP2 MSTORE PUSH1 0x20 ADD SWAP1 DUP2 MSTORE PUSH1 0x20 ADD PUSH1 0x0 KECCAK256 SLOAD SWAP1 POP PUSH1 0x0 DUP1 SHL DUP2 SUB PUSH2 0x1B40 JUMPI PUSH2 0x1B32 DUP6 DUP6 PUSH2 0x2094 JUMP JUMPDEST PUSH1 0x0 DUP1 SHL SWAP3 POP SWAP3 POP POP PUSH2 0x1B49 JUMP JUMPDEST PUSH1 0x1 DUP2 SWAP3 POP SWAP3 POP POP JUMPDEST SWAP3 POP SWAP3 SWAP1 POP JUMP JUMPDEST PUSH2 0x1B58 PUSH2 0x241B JUMP JUMPDEST PUSH1 0x0 DUP3 PUSH1 0x0 SHR SWAP1 POP PUSH1 0x1 PUSH16 0xFFFFFFFFFFFFFFFFFFFFFFFFFFFFFFFF PUSH2 0x1B7D SWAP2 SWAP1 PUSH2 0x2E6C JUMP JUMPDEST PUSH16 0xFFFFFFFFFFFFFFFFFFFFFFFFFFFFFFFF AND DUP2 PUSH16 0xFFFFFFFFFFFFFFFFFFFFFFFFFFFFFFFF AND GT ISZERO PUSH2 0x1BB1 JUMPI PUSH2 0x1BB0 PUSH2 0x2EB0 JUMP JUMPDEST JUMPDEST PUSH1 0x0 PUSH1 0x80 DUP5 PUSH1 0x0 SHR SWAP1 SHR PUSH1 0xFF AND PUSH1 0x2 DUP2 GT ISZERO PUSH2 0x1BD0 JUMPI PUSH2 0x1BCF PUSH2 0x24FA JUMP JUMPDEST JUMPDEST SWAP1 POP PUSH1 0x1 PUSH1 0x2 DUP2 GT ISZERO PUSH2 0x1BE6 JUMPI PUSH2 0x1BE5 PUSH2 0x24FA JUMP JUMPDEST JUMPDEST DUP2 PUSH1 0x2 DUP2 GT ISZERO PUSH2 0x1BF9 JUMPI PUSH2 0x1BF8 PUSH2 0x24FA JUMP JUMPDEST JUMPDEST EQ DUP1 PUSH2 0x1C28 JUMPI POP PUSH1 0x2 DUP1 DUP2 GT ISZERO PUSH2 0x1C13 JUMPI PUSH2 0x1C12 PUSH2 0x24FA JUMP JUMPDEST JUMPDEST DUP2 PUSH1 0x2 DUP2 GT ISZERO PUSH2 0x1C26 JUMPI PUSH2 0x1C25 PUSH2 0x24FA JUMP JUMPDEST JUMPDEST EQ JUMPDEST PUSH2 0x1C35 JUMPI PUSH2 0x1C34 PUSH2 0x2EB0 JUMP JUMPDEST JUMPDEST PUSH1 0x40 MLOAD DUP1 PUSH1 0x40 ADD PUSH1 0x40 MSTORE DUP1 DUP3 PUSH1 0x2 DUP2 GT ISZERO PUSH2 0x1C53 JUMPI PUSH2 0x1C52 PUSH2 0x24FA JUMP JUMPDEST JUMPDEST DUP2 MSTORE PUSH1 0x20 ADD DUP4 PUSH16 0xFFFFFFFFFFFFFFFFFFFFFFFFFFFFFFFF AND DUP2 MSTORE POP SWAP3 POP POP POP SWAP2 SWAP1 POP JUMP JUMPDEST PUSH1 0x0 DUP2 PUSH1 0x0 ADD MLOAD PUSH1 0x2 DUP2 GT ISZERO PUSH2 0x1C90 JUMPI PUSH2 0x1C8F PUSH2 0x24FA JUMP JUMPDEST JUMPDEST DUP4 PUSH1 0x0 ADD MLOAD PUSH1 0x2 DUP2 GT ISZERO PUSH2 0x1CA7 JUMPI PUSH2 0x1CA6 PUSH2 0x24FA JUMP JUMPDEST JUMPDEST EQ DUP1 ISZERO PUSH2 0x1CDF JUMPI POP DUP2 PUSH1 0x20 ADD MLOAD PUSH16 0xFFFFFFFFFFFFFFFFFFFFFFFFFFFFFFFF AND DUP4 PUSH1 0x20 ADD MLOAD PUSH16 0xFFFFFFFFFFFFFFFFFFFFFFFFFFFFFFFF AND EQ JUMPDEST SWAP1 POP SWAP3 SWAP2 POP POP JUMP JUMPDEST PUSH1 0x0 DUP1 PUSH2 0x1CF3 DUP5 PUSH2 0x20B4 JUMP JUMPDEST SWAP1 POP PUSH1 0x0 DUP2 PUSH8 0xFFFFFFFFFFFFFFFF DUP2 GT ISZERO PUSH2 0x1D11 JUMPI PUSH2 0x1D10 PUSH2 0x319C JUMP JUMPDEST JUMPDEST PUSH1 0x40 MLOAD SWAP1 DUP1 DUP3 MSTORE DUP1 PUSH1 0x20 MUL PUSH1 0x20 ADD DUP3 ADD PUSH1 0x40 MSTORE DUP1 ISZERO PUSH2 0x1D3F JUMPI DUP2 PUSH1 0x20 ADD PUSH1 0x20 DUP3 MUL DUP1 CALLDATASIZE DUP4 CALLDATACOPY DUP1 DUP3 ADD SWAP2 POP POP SWAP1 POP JUMPDEST POP SWAP1 POP PUSH1 0x0 DUP1 PUSH1 0x0 JUMPDEST DUP5 DUP2 LT ISZERO PUSH2 0x1E34 JUMPI PUSH1 0x0 DUP1 PUSH2 0x1D66 DUP4 DUP12 PUSH2 0x20C9 SWAP1 SWAP2 SWAP1 PUSH4 0xFFFFFFFF AND JUMP JUMPDEST SWAP2 POP SWAP2 POP PUSH1 0x0 DUP3 SWAP1 POP PUSH1 0x0 PUSH1 0x4 PUSH1 0x0 DUP4 DUP2 MSTORE PUSH1 0x20 ADD SWAP1 DUP2 MSTORE PUSH1 0x20 ADD PUSH1 0x0 KECCAK256 SWAP1 POP PUSH2 0x1D8F DUP2 PUSH2 0x16E0 JUMP JUMPDEST PUSH2 0x1DC7 JUMPI DUP2 DUP9 DUP9 DUP2 MLOAD DUP2 LT PUSH2 0x1DA7 JUMPI PUSH2 0x1DA6 PUSH2 0x31CB JUMP JUMPDEST JUMPDEST PUSH1 0x20 MUL PUSH1 0x20 ADD ADD DUP2 DUP2 MSTORE POP POP PUSH1 0x1 DUP8 PUSH2 0x1DC0 SWAP2 SWAP1 PUSH2 0x31FA JUMP JUMPDEST SWAP7 POP PUSH2 0x1E23 JUMP JUMPDEST PUSH1 0x0 PUSH2 0x1DD2 DUP5 PUSH2 0x1B50 JUMP JUMPDEST SWAP1 POP PUSH1 0x1 PUSH1 0x2 DUP2 GT ISZERO PUSH2 0x1DE8 JUMPI PUSH2 0x1DE7 PUSH2 0x24FA JUMP JUMPDEST JUMPDEST DUP2 PUSH1 0x0 ADD MLOAD PUSH1 0x2 DUP2 GT ISZERO PUSH2 0x1DFF JUMPI PUSH2 0x1DFE PUSH2 0x24FA JUMP JUMPDEST JUMPDEST EQ DUP1 ISZERO PUSH2 0x1E0C JUMPI POP DUP12 DUP4 EQ ISZERO JUMPDEST ISZERO PUSH2 0x1E21 JUMPI PUSH1 0x1 DUP8 PUSH2 0x1E1E SWAP2 SWAP1 PUSH2 0x31FA JUMP JUMPDEST SWAP7 POP JUMPDEST POP JUMPDEST POP POP POP POP DUP1 DUP1 PUSH1 0x1 ADD SWAP2 POP POP PUSH2 0x1D48 JUMP JUMPDEST POP PUSH1 0x0 JUMPDEST DUP3 DUP2 LT ISZERO PUSH2 0x1E7B JUMPI PUSH2 0x1E6D DUP5 DUP3 DUP2 MLOAD DUP2 LT PUSH2 0x1E56 JUMPI PUSH2 0x1E55 PUSH2 0x31CB JUMP JUMPDEST JUMPDEST PUSH1 0x20 MUL PUSH1 0x20 ADD ADD MLOAD DUP10 PUSH2 0x2109 SWAP1 SWAP2 SWAP1 PUSH4 0xFFFFFFFF AND JUMP JUMPDEST POP DUP1 DUP1 PUSH1 0x1 ADD SWAP2 POP POP PUSH2 0x1E38 JUMP JUMPDEST POP DUP1 SWAP5 POP POP POP POP POP SWAP3 SWAP2 POP POP JUMP JUMPDEST PUSH1 0x0 DUP3 PUSH1 0x20 ADD MLOAD PUSH16 0xFFFFFFFFFFFFFFFFFFFFFFFFFFFFFFFF AND GT ISZERO PUSH2 0x1F71 JUMPI PUSH1 0x1 PUSH1 0x2 DUP2 GT ISZERO PUSH2 0x1EBC JUMPI PUSH2 0x1EBB PUSH2 0x24FA JUMP JUMPDEST JUMPDEST DUP3 PUSH1 0x0 ADD MLOAD PUSH1 0x2 DUP2 GT ISZERO PUSH2 0x1ED3 JUMPI PUSH2 0x1ED2 PUSH2 0x24FA JUMP JUMPDEST JUMPDEST SUB PUSH2 0x1F0E JUMPI DUP2 PUSH1 0x20 ADD MLOAD PUSH16 0xFFFFFFFFFFFFFFFFFFFFFFFFFFFFFFFF AND DUP4 PUSH1 0x1 ADD PUSH1 0x0 DUP3 DUP3 SLOAD PUSH2 0x1F02 SWAP2 SWAP1 PUSH2 0x2FE8 JUMP JUMPDEST SWAP3 POP POP DUP2 SWAP1 SSTORE POP PUSH2 0x1F70 JUMP JUMPDEST PUSH1 0x2 DUP1 DUP2 GT ISZERO PUSH2 0x1F21 JUMPI PUSH2 0x1F20 PUSH2 0x24FA JUMP JUMPDEST JUMPDEST DUP3 PUSH1 0x0 ADD MLOAD PUSH1 0x2 DUP2 GT ISZERO PUSH2 0x1F38 JUMPI PUSH2 0x1F37 PUSH2 0x24FA JUMP JUMPDEST JUMPDEST SUB PUSH2 0x1F6F JUMPI DUP2 PUSH1 0x20 ADD MLOAD PUSH16 0xFFFFFFFFFFFFFFFFFFFFFFFFFFFFFFFF AND DUP4 PUSH1 0x2 ADD PUSH1 0x0 DUP3 DUP3 SLOAD PUSH2 0x1F67 SWAP2 SWAP1 PUSH2 0x2FE8 JUMP JUMPDEST SWAP3 POP POP DUP2 SWAP1 SSTORE POP JUMPDEST JUMPDEST JUMPDEST PUSH1 0x1 PUSH1 0x2 DUP2 GT ISZERO PUSH2 0x1F85 JUMPI PUSH2 0x1F84 PUSH2 0x24FA JUMP JUMPDEST JUMPDEST DUP2 PUSH1 0x0 ADD MLOAD PUSH1 0x2 DUP2 GT ISZERO PUSH2 0x1F9C JUMPI PUSH2 0x1F9B PUSH2 0x24FA JUMP JUMPDEST JUMPDEST SUB PUSH2 0x1FD7 JUMPI DUP1 PUSH1 0x20 ADD MLOAD PUSH16 0xFFFFFFFFFFFFFFFFFFFFFFFFFFFFFFFF AND DUP4 PUSH1 0x1 ADD PUSH1 0x0 DUP3 DUP3 SLOAD PUSH2 0x1FCB SWAP2 SWAP1 PUSH2 0x31FA JUMP JUMPDEST SWAP3 POP POP DUP2 SWAP1 SSTORE POP PUSH2 0x206F JUMP JUMPDEST PUSH1 0x2 DUP1 DUP2 GT ISZERO PUSH2 0x1FEA JUMPI PUSH2 0x1FE9 PUSH2 0x24FA JUMP JUMPDEST JUMPDEST DUP2 PUSH1 0x0 ADD MLOAD PUSH1 0x2 DUP2 GT ISZERO PUSH2 0x2001 JUMPI PUSH2 0x2000 PUSH2 0x24FA JUMP JUMPDEST JUMPDEST SUB PUSH2 0x203C JUMPI DUP1 PUSH1 0x20 ADD MLOAD PUSH16 0xFFFFFFFFFFFFFFFFFFFFFFFFFFFFFFFF AND DUP4 PUSH1 0x2 ADD PUSH1 0x0 DUP3 DUP3 SLOAD PUSH2 0x2030 SWAP2 SWAP1 PUSH2 0x31FA JUMP JUMPDEST SWAP3 POP POP DUP2 SWAP1 SSTORE POP PUSH2 0x206E JUMP JUMPDEST PUSH1 0x40 MLOAD PUSH32 0xD5DD0C6600000000000000000000000000000000000000000000000000000000 DUP2 MSTORE PUSH1 0x4 ADD PUSH1 0x40 MLOAD DUP1 SWAP2 SUB SWAP1 REVERT JUMPDEST JUMPDEST PUSH2 0x208C DUP5 PUSH2 0x207C DUP4 PUSH2 0x2142 JUMP JUMPDEST DUP8 PUSH2 0x218C SWAP1 SWAP3 SWAP2 SWAP1 PUSH4 0xFFFFFFFF AND JUMP JUMPDEST POP POP POP POP POP POP JUMP JUMPDEST PUSH1 0x0 PUSH2 0x20AC DUP3 DUP5 PUSH1 0x0 ADD PUSH2 0x21C7 SWAP1 SWAP2 SWAP1 PUSH4 0xFFFFFFFF AND JUMP JUMPDEST SWAP1 POP SWAP3 SWAP2 POP POP JUMP JUMPDEST PUSH1 0x0 PUSH2 0x20C2 DUP3 PUSH1 0x0 ADD PUSH2 0x21DE JUMP JUMPDEST SWAP1 POP SWAP2 SWAP1 POP JUMP JUMPDEST PUSH1 0x0 DUP1 PUSH1 0x0 PUSH2 0x20E4 DUP5 DUP7 PUSH1 0x0 ADD PUSH2 0x21F3 SWAP1 SWAP2 SWAP1 PUSH4 0xFFFFFFFF AND JUMP JUMPDEST SWAP1 POP DUP1 DUP6 PUSH1 0x2 ADD PUSH1 0x0 DUP4 DUP2 MSTORE PUSH1 0x20 ADD SWAP1 DUP2 MSTORE PUSH1 0x20 ADD PUSH1 0x0 KECCAK256 SLOAD SWAP3 POP SWAP3 POP POP SWAP3 POP SWAP3 SWAP1 POP JUMP JUMPDEST PUSH1 0x0 DUP3 PUSH1 0x2 ADD PUSH1 0x0 DUP4 DUP2 MSTORE PUSH1 0x20 ADD SWAP1 DUP2 MSTORE PUSH1 0x20 ADD PUSH1 0x0 KECCAK256 PUSH1 0x0 SWAP1 SSTORE PUSH2 0x213A DUP3 DUP5 PUSH1 0x0 ADD PUSH2 0x220A SWAP1 SWAP2 SWAP1 PUSH4 0xFFFFFFFF AND JUMP JUMPDEST SWAP1 POP SWAP3 SWAP2 POP POP JUMP JUMPDEST PUSH1 0x0 DUP1 DUP3 PUSH1 0x20 ADD MLOAD SWAP1 POP PUSH1 0x0 DUP2 PUSH16 0xFFFFFFFFFFFFFFFFFFFFFFFFFFFFFFFF AND PUSH1 0x80 DUP6 PUSH1 0x0 ADD MLOAD PUSH1 0x2 DUP2 GT ISZERO PUSH2 0x217A JUMPI PUSH2 0x2179 PUSH2 0x24FA JUMP JUMPDEST JUMPDEST SWAP1 SHL OR SWAP1 POP DUP1 PUSH1 0x0 SHL SWAP3 POP POP POP SWAP2 SWAP1 POP JUMP JUMPDEST PUSH1 0x0 DUP2 DUP5 PUSH1 0x2 ADD PUSH1 0x0 DUP6 DUP2 MSTORE PUSH1 0x20 ADD SWAP1 DUP2 MSTORE PUSH1 0x20 ADD PUSH1 0x0 KECCAK256 DUP2 SWAP1 SSTORE POP PUSH2 0x21BE DUP4 DUP6 PUSH1 0x0 ADD PUSH2 0x2221 SWAP1 SWAP2 SWAP1 PUSH4 0xFFFFFFFF AND JUMP JUMPDEST SWAP1 POP SWAP4 SWAP3 POP POP POP JUMP JUMPDEST PUSH1 0x0 PUSH2 0x21D6 DUP4 PUSH1 0x0 ADD DUP4 PUSH2 0x2238 JUMP JUMPDEST SWAP1 POP SWAP3 SWAP2 POP POP JUMP JUMPDEST PUSH1 0x0 PUSH2 0x21EC DUP3 PUSH1 0x0 ADD PUSH2 0x225B JUMP JUMPDEST SWAP1 POP SWAP2 SWAP1 POP JUMP JUMPDEST PUSH1 0x0 PUSH2 0x2202 DUP4 PUSH1 0x0 ADD DUP4 PUSH2 0x226C JUMP JUMPDEST SWAP1 POP SWAP3 SWAP2 POP POP JUMP JUMPDEST PUSH1 0x0 PUSH2 0x2219 DUP4 PUSH1 0x0 ADD DUP4 PUSH2 0x2297 JUMP JUMPDEST SWAP1 POP SWAP3 SWAP2 POP POP JUMP JUMPDEST PUSH1 0x0 PUSH2 0x2230 DUP4 PUSH1 0x0 ADD DUP4 PUSH2 0x23AB JUMP JUMPDEST SWAP1 POP SWAP3 SWAP2 POP POP JUMP JUMPDEST PUSH1 0x0 DUP1 DUP4 PUSH1 0x1 ADD PUSH1 0x0 DUP5 DUP2 MSTORE PUSH1 0x20 ADD SWAP1 DUP2 MSTORE PUSH1 0x20 ADD PUSH1 0x0 KECCAK256 SLOAD EQ ISZERO SWAP1 POP SWAP3 SWAP2 POP POP JUMP JUMPDEST PUSH1 0x0 DUP2 PUSH1 0x0 ADD DUP1 SLOAD SWAP1 POP SWAP1 POP SWAP2 SWAP1 POP JUMP JUMPDEST PUSH1 0x0 DUP3 PUSH1 0x0 ADD DUP3 DUP2 SLOAD DUP2 LT PUSH2 0x2284 JUMPI PUSH2 0x2283 PUSH2 0x31CB JUMP JUMPDEST JUMPDEST SWAP1 PUSH1 0x0 MSTORE PUSH1 0x20 PUSH1 0x0 KECCAK256 ADD SLOAD SWAP1 POP SWAP3 SWAP2 POP POP JUMP JUMPDEST PUSH1 0x0 DUP1 DUP4 PUSH1 0x1 ADD PUSH1 0x0 DUP5 DUP2 MSTORE PUSH1 0x20 ADD SWAP1 DUP2 MSTORE PUSH1 0x20 ADD PUSH1 0x0 KECCAK256 SLOAD SWAP1 POP PUSH1 0x0 DUP2 EQ PUSH2 0x239F JUMPI PUSH1 0x0 PUSH1 0x1 DUP3 PUSH2 0x22C9 SWAP2 SWAP1 PUSH2 0x2FE8 JUMP JUMPDEST SWAP1 POP PUSH1 0x0 PUSH1 0x1 DUP7 PUSH1 0x0 ADD DUP1 SLOAD SWAP1 POP PUSH2 0x22E1 SWAP2 SWAP1 PUSH2 0x2FE8 JUMP JUMPDEST SWAP1 POP DUP1 DUP3 EQ PUSH2 0x2350 JUMPI PUSH1 0x0 DUP7 PUSH1 0x0 ADD DUP3 DUP2 SLOAD DUP2 LT PUSH2 0x2302 JUMPI PUSH2 0x2301 PUSH2 0x31CB JUMP JUMPDEST JUMPDEST SWAP1 PUSH1 0x0 MSTORE PUSH1 0x20 PUSH1 0x0 KECCAK256 ADD SLOAD SWAP1 POP DUP1 DUP8 PUSH1 0x0 ADD DUP5 DUP2 SLOAD DUP2 LT PUSH2 0x2326 JUMPI PUSH2 0x2325 PUSH2 0x31CB JUMP JUMPDEST JUMPDEST SWAP1 PUSH1 0x0 MSTORE PUSH1 0x20 PUSH1 0x0 KECCAK256 ADD DUP2 SWAP1 SSTORE POP DUP4 DUP8 PUSH1 0x1 ADD PUSH1 0x0 DUP4 DUP2 MSTORE PUSH1 0x20 ADD SWAP1 DUP2 MSTORE PUSH1 0x20 ADD PUSH1 0x0 KECCAK256 DUP2 SWAP1 SSTORE POP POP JUMPDEST DUP6 PUSH1 0x0 ADD DUP1 SLOAD DUP1 PUSH2 0x2364 JUMPI PUSH2 0x2363 PUSH2 0x322E JUMP JUMPDEST JUMPDEST PUSH1 0x1 SWAP1 SUB DUP2 DUP2 SWAP1 PUSH1 0x0 MSTORE PUSH1 0x20 PUSH1 0x0 KECCAK256 ADD PUSH1 0x0 SWAP1 SSTORE SWAP1 SSTORE DUP6 PUSH1 0x1 ADD PUSH1 0x0 DUP7 DUP2 MSTORE PUSH1 0x20 ADD SWAP1 DUP2 MSTORE PUSH1 0x20 ADD PUSH1 0x0 KECCAK256 PUSH1 0x0 SWAP1 SSTORE PUSH1 0x1 SWAP4 POP POP POP POP PUSH2 0x23A5 JUMP JUMPDEST PUSH1 0x0 SWAP2 POP POP JUMPDEST SWAP3 SWAP2 POP POP JUMP JUMPDEST PUSH1 0x0 PUSH2 0x23B7 DUP4 DUP4 PUSH2 0x2238 JUMP JUMPDEST PUSH2 0x2410 JUMPI DUP3 PUSH1 0x0 ADD DUP3 SWAP1 DUP1 PUSH1 0x1 DUP2 SLOAD ADD DUP1 DUP3 SSTORE DUP1 SWAP2 POP POP PUSH1 0x1 SWAP1 SUB SWAP1 PUSH1 0x0 MSTORE PUSH1 0x20 PUSH1 0x0 KECCAK256 ADD PUSH1 0x0 SWAP1 SWAP2 SWAP1 SWAP2 SWAP1 SWAP2 POP SSTORE DUP3 PUSH1 0x0 ADD DUP1 SLOAD SWAP1 POP DUP4 PUSH1 0x1 ADD PUSH1 0x0 DUP5 DUP2 MSTORE PUSH1 0x20 ADD SWAP1 DUP2 MSTORE PUSH1 0x20 ADD PUSH1 0x0 KECCAK256 DUP2 SWAP1 SSTORE POP PUSH1 0x1 SWAP1 POP PUSH2 0x2415 JUMP JUMPDEST PUSH1 0x0 SWAP1 POP JUMPDEST SWAP3 SWAP2 POP POP JUMP JUMPDEST PUSH1 0x40 MLOAD DUP1 PUSH1 0x40 ADD PUSH1 0x40 MSTORE DUP1 PUSH1 0x0 PUSH1 0x2 DUP2 GT ISZERO PUSH2 0x243A JUMPI PUSH2 0x2439 PUSH2 0x24FA JUMP JUMPDEST JUMPDEST DUP2 MSTORE PUSH1 0x20 ADD PUSH1 0x0 PUSH16 0xFFFFFFFFFFFFFFFFFFFFFFFFFFFFFFFF AND DUP2 MSTORE POP SWAP1 JUMP JUMPDEST PUSH1 0x0 DUP2 SWAP1 POP SWAP2 SWAP1 POP JUMP JUMPDEST PUSH2 0x246C DUP2 PUSH2 0x2459 JUMP JUMPDEST DUP3 MSTORE POP POP JUMP JUMPDEST PUSH1 0x0 PUSH1 0x20 DUP3 ADD SWAP1 POP PUSH2 0x2487 PUSH1 0x0 DUP4 ADD DUP5 PUSH2 0x2463 JUMP JUMPDEST SWAP3 SWAP2 POP POP JUMP JUMPDEST PUSH1 0x0 DUP1 REVERT JUMPDEST PUSH1 0x0 DUP1 REVERT JUMPDEST PUSH1 0x0 DUP2 SWAP1 POP SWAP2 SWAP1 POP JUMP JUMPDEST PUSH2 0x24AA DUP2 PUSH2 0x2497 JUMP JUMPDEST DUP2 EQ PUSH2 0x24B5 JUMPI PUSH1 0x0 DUP1 REVERT JUMPDEST POP JUMP JUMPDEST PUSH1 0x0 DUP2 CALLDATALOAD SWAP1 POP PUSH2 0x24C7 DUP2 PUSH2 0x24A1 JUMP JUMPDEST SWAP3 SWAP2 POP POP JUMP JUMPDEST PUSH1 0x0 PUSH1 0x20 DUP3 DUP5 SUB SLT ISZERO PUSH2 0x24E3 JUMPI PUSH2 0x24E2 PUSH2 0x248D JUMP JUMPDEST JUMPDEST PUSH1 0x0 PUSH2 0x24F1 DUP5 DUP3 DUP6 ADD PUSH2 0x24B8 JUMP JUMPDEST SWAP2 POP POP SWAP3 SWAP2 POP POP JUMP JUMPDEST PUSH32 0x4E487B7100000000000000000000000000000000000000000000000000000000 PUSH1 0x0 MSTORE PUSH1 0x21 PUSH1 0x4 MSTORE PUSH1 0x24 PUSH1 0x0 REVERT JUMPDEST PUSH1 0x4 DUP2 LT PUSH2 0x253A JUMPI PUSH2 0x2539 PUSH2 0x24FA JUMP JUMPDEST JUMPDEST POP JUMP JUMPDEST PUSH1 0x0 DUP2 SWAP1 POP PUSH2 0x254B DUP3 PUSH2 0x2529 JUMP JUMPDEST SWAP2 SWAP1 POP JUMP JUMPDEST PUSH1 0x0 PUSH2 0x255B DUP3 PUSH2 0x253D JUMP JUMPDEST SWAP1 POP SWAP2 SWAP1 POP JUMP JUMPDEST PUSH2 0x256B DUP2 PUSH2 0x2550 JUMP JUMPDEST DUP3 MSTORE POP POP JUMP JUMPDEST PUSH1 0x0 PUSH1 0x20 DUP3 ADD SWAP1 POP PUSH2 0x2586 PUSH1 0x0 DUP4 ADD DUP5 PUSH2 0x2562 JUMP JUMPDEST SWAP3 SWAP2 POP POP JUMP JUMPDEST PUSH1 0x0 PUSH8 0xFFFFFFFFFFFFFFFF DUP3 AND SWAP1 POP SWAP2 SWAP1 POP JUMP JUMPDEST PUSH2 0x25A9 DUP2 PUSH2 0x258C JUMP JUMPDEST DUP3 MSTORE POP POP JUMP JUMPDEST PUSH1 0x0 PUSH1 0x20 DUP3 ADD SWAP1 POP PUSH2 0x25C4 PUSH1 0x0 DUP4 ADD DUP5 PUSH2 0x25A0 JUMP JUMPDEST SWAP3 SWAP2 POP POP JUMP JUMPDEST PUSH1 0x0 DUP2 ISZERO ISZERO SWAP1 POP SWAP2 SWAP1 POP JUMP JUMPDEST PUSH2 0x25DF DUP2 PUSH2 0x25CA JUMP JUMPDEST DUP3 MSTORE POP POP JUMP JUMPDEST PUSH1 0x0 PUSH1 0x20 DUP3 ADD SWAP1 POP PUSH2 0x25FA PUSH1 0x0 DUP4 ADD DUP5 PUSH2 0x25D6 JUMP JUMPDEST SWAP3 SWAP2 POP POP JUMP JUMPDEST PUSH1 0x0 PUSH1 0xFF DUP3 AND SWAP1 POP SWAP2 SWAP1 POP JUMP JUMPDEST PUSH2 0x2616 DUP2 PUSH2 0x2600 JUMP JUMPDEST DUP2 EQ PUSH2 0x2621 JUMPI PUSH1 0x0 DUP1 REVERT JUMPDEST POP JUMP JUMPDEST PUSH1 0x0 DUP2 CALLDATALOAD SWAP1 POP PUSH2 0x2633 DUP2 PUSH2 0x260D JUMP JUMPDEST SWAP3 SWAP2 POP POP JUMP JUMPDEST PUSH1 0x0 DUP1 REVERT JUMPDEST PUSH1 0x0 DUP1 REVERT JUMPDEST PUSH1 0x0 DUP1 REVERT JUMPDEST PUSH1 0x0 DUP1 DUP4 PUSH1 0x1F DUP5 ADD SLT PUSH2 0x265E JUMPI PUSH2 0x265D PUSH2 0x2639 JUMP JUMPDEST JUMPDEST DUP3 CALLDATALOAD SWAP1 POP PUSH8 0xFFFFFFFFFFFFFFFF DUP2 GT ISZERO PUSH2 0x267B JUMPI PUSH2 0x267A PUSH2 0x263E JUMP JUMPDEST JUMPDEST PUSH1 0x20 DUP4 ADD SWAP2 POP DUP4 PUSH1 0x1 DUP3 MUL DUP4 ADD GT ISZERO PUSH2 0x2697 JUMPI PUSH2 0x2696 PUSH2 0x2643 JUMP JUMPDEST JUMPDEST SWAP3 POP SWAP3 SWAP1 POP JUMP JUMPDEST PUSH1 0x0 DUP1 PUSH1 0x0 PUSH1 0x40 DUP5 DUP7 SUB SLT ISZERO PUSH2 0x26B7 JUMPI PUSH2 0x26B6 PUSH2 0x248D JUMP JUMPDEST JUMPDEST PUSH1 0x0 PUSH2 0x26C5 DUP7 DUP3 DUP8 ADD PUSH2 0x2624 JUMP JUMPDEST SWAP4 POP POP PUSH1 0x20 DUP5 ADD CALLDATALOAD PUSH8 0xFFFFFFFFFFFFFFFF DUP2 GT ISZERO PUSH2 0x26E6 JUMPI PUSH2 0x26E5 PUSH2 0x2492 JUMP JUMPDEST JUMPDEST PUSH2 0x26F2 DUP7 DUP3 DUP8 ADD PUSH2 0x2648 JUMP JUMPDEST SWAP3 POP SWAP3 POP POP SWAP3 POP SWAP3 POP SWAP3 JUMP JUMPDEST PUSH2 0x2707 DUP2 PUSH2 0x2459 JUMP JUMPDEST DUP2 EQ PUSH2 0x2712 JUMPI PUSH1 0x0 DUP1 REVERT JUMPDEST POP JUMP JUMPDEST PUSH1 0x0 DUP2 CALLDATALOAD SWAP1 POP PUSH2 0x2724 DUP2 PUSH2 0x26FE JUMP JUMPDEST SWAP3 SWAP2 POP POP JUMP JUMPDEST PUSH1 0x0 PUSH1 0x20 DUP3 DUP5 SUB SLT ISZERO PUSH2 0x2740 JUMPI PUSH2 0x273F PUSH2 0x248D JUMP JUMPDEST JUMPDEST PUSH1 0x0 PUSH2 0x274E DUP5 DUP3 DUP6 ADD PUSH2 0x2715 JUMP JUMPDEST SWAP2 POP POP SWAP3 SWAP2 POP POP JUMP JUMPDEST PUSH1 0x0 PUSH1 0x60 DUP3 ADD SWAP1 POP PUSH2 0x276C PUSH1 0x0 DUP4 ADD DUP7 PUSH2 0x2463 JUMP JUMPDEST PUSH2 0x2779 PUSH1 0x20 DUP4 ADD DUP6 PUSH2 0x2463 JUMP JUMPDEST PUSH2 0x2786 PUSH1 0x40 DUP4 ADD DUP5 PUSH2 0x2463 JUMP JUMPDEST SWAP5 SWAP4 POP POP POP POP JUMP JUMPDEST PUSH1 0x0 PUSH20 0xFFFFFFFFFFFFFFFFFFFFFFFFFFFFFFFFFFFFFFFF DUP3 AND SWAP1 POP SWAP2 SWAP1 POP JUMP JUMPDEST PUSH1 0x0 PUSH2 0x27B9 DUP3 PUSH2 0x278E JUMP JUMPDEST SWAP1 POP SWAP2 SWAP1 POP JUMP JUMPDEST PUSH2 0x27C9 DUP2 PUSH2 0x27AE JUMP JUMPDEST DUP2 EQ PUSH2 0x27D4 JUMPI PUSH1 0x0 DUP1 REVERT JUMPDEST POP JUMP JUMPDEST PUSH1 0x0 DUP2 CALLDATALOAD SWAP1 POP PUSH2 0x27E6 DUP2 PUSH2 0x27C0 JUMP JUMPDEST SWAP3 SWAP2 POP POP JUMP JUMPDEST PUSH1 0x0 DUP1 PUSH1 0x40 DUP4 DUP6 SUB SLT ISZERO PUSH2 0x2803 JUMPI PUSH2 0x2802 PUSH2 0x248D JUMP JUMPDEST JUMPDEST PUSH1 0x0 PUSH2 0x2811 DUP6 DUP3 DUP7 ADD PUSH2 0x24B8 JUMP JUMPDEST SWAP3 POP POP PUSH1 0x20 PUSH2 0x2822 DUP6 DUP3 DUP7 ADD PUSH2 0x27D7 JUMP JUMPDEST SWAP2 POP POP SWAP3 POP SWAP3 SWAP1 POP JUMP JUMPDEST PUSH1 0x3 DUP2 LT PUSH2 0x283D JUMPI PUSH2 0x283C PUSH2 0x24FA JUMP JUMPDEST JUMPDEST POP JUMP JUMPDEST PUSH1 0x0 DUP2 SWAP1 POP PUSH2 0x284E DUP3 PUSH2 0x282C JUMP JUMPDEST SWAP2 SWAP1 POP JUMP JUMPDEST PUSH1 0x0 PUSH2 0x285E DUP3 PUSH2 0x2840 JUMP JUMPDEST SWAP1 POP SWAP2 SWAP1 POP JUMP JUMPDEST PUSH2 0x286E DUP2 PUSH2 0x2853 JUMP JUMPDEST DUP3 MSTORE POP POP JUMP JUMPDEST PUSH1 0x0 PUSH16 0xFFFFFFFFFFFFFFFFFFFFFFFFFFFFFFFF DUP3 AND SWAP1 POP SWAP2 SWAP1 POP JUMP JUMPDEST PUSH1 0x0 DUP2 SWAP1 POP SWAP2 SWAP1 POP JUMP JUMPDEST PUSH1 0x0 PUSH2 0x28B5 PUSH2 0x28B0 PUSH2 0x28AB DUP5 PUSH2 0x2874 JUMP JUMPDEST PUSH2 0x2890 JUMP JUMPDEST PUSH2 0x2874 JUMP JUMPDEST SWAP1 POP SWAP2 SWAP1 POP JUMP JUMPDEST PUSH2 0x28C5 DUP2 PUSH2 0x289A JUMP JUMPDEST DUP3 MSTORE POP POP JUMP JUMPDEST PUSH1 0x40 DUP3 ADD PUSH1 0x0 DUP3 ADD MLOAD PUSH2 0x28E1 PUSH1 0x0 DUP6 ADD DUP3 PUSH2 0x2865 JUMP JUMPDEST POP PUSH1 0x20 DUP3 ADD MLOAD PUSH2 0x28F4 PUSH1 0x20 DUP6 ADD DUP3 PUSH2 0x28BC JUMP JUMPDEST POP POP POP POP JUMP JUMPDEST PUSH1 0x0 PUSH1 0x40 DUP3 ADD SWAP1 POP PUSH2 0x290F PUSH1 0x0 DUP4 ADD DUP5 PUSH2 0x28CB JUMP JUMPDEST SWAP3 SWAP2 POP POP JUMP JUMPDEST PUSH1 0x0 PUSH1 0x20 DUP3 DUP5 SUB SLT ISZERO PUSH2 0x292B JUMPI PUSH2 0x292A PUSH2 0x248D JUMP JUMPDEST JUMPDEST PUSH1 0x0 PUSH2 0x2939 DUP5 DUP3 DUP6 ADD PUSH2 0x27D7 JUMP JUMPDEST SWAP2 POP POP SWAP3 SWAP2 POP POP JUMP JUMPDEST PUSH1 0x0 DUP1 REVERT JUMPDEST PUSH1 0x0 PUSH1 0x60 DUP3 DUP5 SUB SLT ISZERO PUSH2 0x295D JUMPI PUSH2 0x295C PUSH2 0x2942 JUMP JUMPDEST JUMPDEST DUP2 SWAP1 POP SWAP3 SWAP2 POP POP JUMP JUMPDEST PUSH1 0x0 PUSH1 0x20 DUP3 DUP5 SUB SLT ISZERO PUSH2 0x297C JUMPI PUSH2 0x297B PUSH2 0x248D JUMP JUMPDEST JUMPDEST PUSH1 0x0 DUP3 ADD CALLDATALOAD PUSH8 0xFFFFFFFFFFFFFFFF DUP2 GT ISZERO PUSH2 0x299A JUMPI PUSH2 0x2999 PUSH2 0x2492 JUMP JUMPDEST JUMPDEST PUSH2 0x29A6 DUP5 DUP3 DUP6 ADD PUSH2 0x2947 JUMP JUMPDEST SWAP2 POP POP SWAP3 SWAP2 POP POP JUMP JUMPDEST PUSH1 0x0 PUSH2 0x29BA DUP3 PUSH2 0x2497 JUMP JUMPDEST SWAP1 POP SWAP2 SWAP1 POP JUMP JUMPDEST PUSH2 0x29CA DUP2 PUSH2 0x29AF JUMP JUMPDEST DUP3 MSTORE POP POP JUMP JUMPDEST PUSH1 0x0 PUSH1 0x20 DUP3 ADD SWAP1 POP PUSH2 0x29E5 PUSH1 0x0 DUP4 ADD DUP5 PUSH2 0x29C1 JUMP JUMPDEST SWAP3 SWAP2 POP POP JUMP JUMPDEST PUSH2 0x29F4 DUP2 PUSH2 0x289A JUMP JUMPDEST DUP3 MSTORE POP POP JUMP JUMPDEST PUSH1 0x0 PUSH1 0x20 DUP3 ADD SWAP1 POP PUSH2 0x2A0F PUSH1 0x0 DUP4 ADD DUP5 PUSH2 0x29EB JUMP JUMPDEST SWAP3 SWAP2 POP POP JUMP JUMPDEST PUSH2 0x2A1E DUP2 PUSH2 0x2600 JUMP JUMPDEST DUP3 MSTORE POP POP JUMP JUMPDEST PUSH1 0x0 PUSH1 0x20 DUP3 ADD SWAP1 POP PUSH2 0x2A39 PUSH1 0x0 DUP4 ADD DUP5 PUSH2 0x2A15 JUMP JUMPDEST SWAP3 SWAP2 POP POP JUMP JUMPDEST PUSH1 0x0 PUSH2 0x2A4A DUP3 PUSH2 0x27AE JUMP JUMPDEST SWAP1 POP SWAP2 SWAP1 POP JUMP JUMPDEST PUSH2 0x2A5A DUP2 PUSH2 0x2A3F JUMP JUMPDEST DUP2 EQ PUSH2 0x2A65 JUMPI PUSH1 0x0 DUP1 REVERT JUMPDEST POP JUMP JUMPDEST PUSH1 0x0 DUP2 CALLDATALOAD SWAP1 POP PUSH2 0x2A77 DUP2 PUSH2 0x2A51 JUMP JUMPDEST SWAP3 SWAP2 POP POP JUMP JUMPDEST PUSH1 0x0 PUSH1 0x20 DUP3 DUP5 SUB SLT ISZERO PUSH2 0x2A93 JUMPI PUSH2 0x2A92 PUSH2 0x248D JUMP JUMPDEST JUMPDEST PUSH1 0x0 PUSH2 0x2AA1 DUP5 DUP3 DUP6 ADD PUSH2 0x2A68 JUMP JUMPDEST SWAP2 POP POP SWAP3 SWAP2 POP POP JUMP JUMPDEST PUSH2 0x2AB3 DUP2 PUSH2 0x27AE JUMP JUMPDEST DUP3 MSTORE POP POP JUMP JUMPDEST PUSH1 0x0 PUSH1 0x20 DUP3 ADD SWAP1 POP PUSH2 0x2ACE PUSH1 0x0 DUP4 ADD DUP5 PUSH2 0x2AAA JUMP JUMPDEST SWAP3 SWAP2 POP POP JUMP JUMPDEST PUSH1 0x4 DUP2 LT PUSH2 0x2AE5 JUMPI PUSH2 0x2AE4 PUSH2 0x24FA JUMP JUMPDEST JUMPDEST POP JUMP JUMPDEST PUSH1 0x0 DUP2 SWAP1 POP PUSH2 0x2AF6 DUP3 PUSH2 0x2AD4 JUMP JUMPDEST SWAP2 SWAP1 POP JUMP JUMPDEST PUSH1 0x0 PUSH2 0x2B06 DUP3 PUSH2 0x2AE8 JUMP JUMPDEST SWAP1 POP SWAP2 SWAP1 POP JUMP JUMPDEST PUSH2 0x2B16 DUP2 PUSH2 0x2AFB JUMP JUMPDEST DUP3 MSTORE POP POP JUMP JUMPDEST PUSH1 0x0 PUSH1 0x20 DUP3 ADD SWAP1 POP PUSH2 0x2B31 PUSH1 0x0 DUP4 ADD DUP5 PUSH2 0x2B0D JUMP JUMPDEST SWAP3 SWAP2 POP POP JUMP JUMPDEST PUSH2 0x2B40 DUP2 PUSH2 0x258C JUMP JUMPDEST DUP2 EQ PUSH2 0x2B4B JUMPI PUSH1 0x0 DUP1 REVERT JUMPDEST POP JUMP JUMPDEST PUSH1 0x0 DUP2 CALLDATALOAD SWAP1 POP PUSH2 0x2B5D DUP2 PUSH2 0x2B37 JUMP JUMPDEST SWAP3 SWAP2 POP POP JUMP JUMPDEST PUSH1 0x0 PUSH1 0x20 DUP3 DUP5 SUB SLT ISZERO PUSH2 0x2B79 JUMPI PUSH2 0x2B78 PUSH2 0x248D JUMP JUMPDEST JUMPDEST PUSH1 0x0 PUSH2 0x2B87 DUP5 DUP3 DUP6 ADD PUSH2 0x2B4E JUMP JUMPDEST SWAP2 POP POP SWAP3 SWAP2 POP POP JUMP JUMPDEST PUSH1 0x3 DUP2 LT PUSH2 0x2B9D JUMPI PUSH1 0x0 DUP1 REVERT JUMPDEST POP JUMP JUMPDEST PUSH1 0x0 DUP2 CALLDATALOAD SWAP1 POP PUSH2 0x2BAF DUP2 PUSH2 0x2B90 JUMP JUMPDEST SWAP3 SWAP2 POP POP JUMP JUMPDEST PUSH1 0x0 DUP1 PUSH1 0x0 DUP1 PUSH1 0x60 DUP6 DUP8 SUB SLT ISZERO PUSH2 0x2BCF JUMPI PUSH2 0x2BCE PUSH2 0x248D JUMP JUMPDEST JUMPDEST PUSH1 0x0 PUSH2 0x2BDD DUP8 DUP3 DUP9 ADD PUSH2 0x24B8 JUMP JUMPDEST SWAP5 POP POP PUSH1 0x20 PUSH2 0x2BEE DUP8 DUP3 DUP9 ADD PUSH2 0x2BA0 JUMP JUMPDEST SWAP4 POP POP PUSH1 0x40 DUP6 ADD CALLDATALOAD PUSH8 0xFFFFFFFFFFFFFFFF DUP2 GT ISZERO PUSH2 0x2C0F JUMPI PUSH2 0x2C0E PUSH2 0x2492 JUMP JUMPDEST JUMPDEST PUSH2 0x2C1B DUP8 DUP3 DUP9 ADD PUSH2 0x2648 JUMP JUMPDEST SWAP3 POP SWAP3 POP POP SWAP3 SWAP6 SWAP2 SWAP5 POP SWAP3 POP JUMP JUMPDEST PUSH1 0x0 PUSH1 0x20 DUP3 DUP5 SUB SLT ISZERO PUSH2 0x2C3F JUMPI PUSH2 0x2C3E PUSH2 0x248D JUMP JUMPDEST JUMPDEST PUSH1 0x0 PUSH2 0x2C4D DUP5 DUP3 DUP6 ADD PUSH2 0x2624 JUMP JUMPDEST SWAP2 POP POP SWAP3 SWAP2 POP POP JUMP JUMPDEST PUSH1 0x0 DUP3 DUP3 MSTORE PUSH1 0x20 DUP3 ADD SWAP1 POP SWAP3 SWAP2 POP POP JUMP JUMPDEST DUP3 DUP2 DUP4 CALLDATACOPY PUSH1 0x0 DUP4 DUP4 ADD MSTORE POP POP POP JUMP JUMPDEST PUSH1 0x0 PUSH1 0x1F NOT PUSH1 0x1F DUP4 ADD AND SWAP1 POP SWAP2 SWAP1 POP JUMP JUMPDEST PUSH1 0x0 PUSH2 0x2C93 DUP4 DUP6 PUSH2 0x2C56 JUMP JUMPDEST SWAP4 POP PUSH2 0x2CA0 DUP4 DUP6 DUP5 PUSH2 0x2C67 JUMP JUMPDEST PUSH2 0x2CA9 DUP4 PUSH2 0x2C76 JUMP JUMPDEST DUP5 ADD SWAP1 POP SWAP4 SWAP3 POP POP POP JUMP JUMPDEST PUSH1 0x0 PUSH1 0x20 DUP3 ADD SWAP1 POP DUP2 DUP2 SUB PUSH1 0x0 DUP4 ADD MSTORE PUSH2 0x2CCF DUP2 DUP5 DUP7 PUSH2 0x2C87 JUMP JUMPDEST SWAP1 POP SWAP4 SWAP3 POP POP POP JUMP JUMPDEST PUSH1 0x0 DUP2 MLOAD SWAP1 POP PUSH2 0x2CE7 DUP2 PUSH2 0x26FE JUMP JUMPDEST SWAP3 SWAP2 POP POP JUMP JUMPDEST PUSH1 0x0 PUSH1 0x20 DUP3 DUP5 SUB SLT ISZERO PUSH2 0x2D03 JUMPI PUSH2 0x2D02 PUSH2 0x248D JUMP JUMPDEST JUMPDEST PUSH1 0x0 PUSH2 0x2D11 DUP5 DUP3 DUP6 ADD PUSH2 0x2CD8 JUMP JUMPDEST SWAP2 POP POP SWAP3 SWAP2 POP POP JUMP JUMPDEST PUSH1 0x0 DUP1 REVERT JUMPDEST PUSH1 0x0 DUP1 REVERT JUMPDEST PUSH1 0x0 DUP1 REVERT JUMPDEST PUSH1 0x0 DUP1 DUP4 CALLDATALOAD PUSH1 0x1 PUSH1 0x20 SUB DUP5 CALLDATASIZE SUB SUB DUP2 SLT PUSH2 0x2D46 JUMPI PUSH2 0x2D45 PUSH2 0x2D1A JUMP JUMPDEST JUMPDEST DUP1 DUP5 ADD SWAP3 POP DUP3 CALLDATALOAD SWAP2 POP PUSH8 0xFFFFFFFFFFFFFFFF DUP3 GT ISZERO PUSH2 0x2D68 JUMPI PUSH2 0x2D67 PUSH2 0x2D1F JUMP JUMPDEST JUMPDEST PUSH1 0x20 DUP4 ADD SWAP3 POP PUSH1 0x1 DUP3 MUL CALLDATASIZE SUB DUP4 SGT ISZERO PUSH2 0x2D84 JUMPI PUSH2 0x2D83 PUSH2 0x2D24 JUMP JUMPDEST JUMPDEST POP SWAP3 POP SWAP3 SWAP1 POP JUMP JUMPDEST PUSH1 0x0 DUP2 PUSH1 0x60 SHL SWAP1 POP SWAP2 SWAP1 POP JUMP JUMPDEST PUSH1 0x0 PUSH2 0x2DA4 DUP3 PUSH2 0x2D8C JUMP JUMPDEST SWAP1 POP SWAP2 SWAP1 POP JUMP JUMPDEST PUSH1 0x0 PUSH2 0x2DB6 DUP3 PUSH2 0x2D99 JUMP JUMPDEST SWAP1 POP SWAP2 SWAP1 POP JUMP JUMPDEST PUSH2 0x2DCE PUSH2 0x2DC9 DUP3 PUSH2 0x27AE JUMP JUMPDEST PUSH2 0x2DAB JUMP JUMPDEST DUP3 MSTORE POP POP JUMP JUMPDEST PUSH1 0x0 DUP2 SWAP1 POP SWAP3 SWAP2 POP POP JUMP JUMPDEST PUSH1 0x0 PUSH2 0x2DEB DUP4 DUP6 PUSH2 0x2DD4 JUMP JUMPDEST SWAP4 POP PUSH2 0x2DF8 DUP4 DUP6 DUP5 PUSH2 0x2C67 JUMP JUMPDEST DUP3 DUP5 ADD SWAP1 POP SWAP4 SWAP3 POP POP POP JUMP JUMPDEST PUSH1 0x0 PUSH2 0x2E10 DUP3 DUP9 PUSH2 0x2DBD JUMP JUMPDEST PUSH1 0x14 DUP3 ADD SWAP2 POP PUSH2 0x2E21 DUP3 DUP7 DUP9 PUSH2 0x2DDF JUMP JUMPDEST SWAP2 POP PUSH2 0x2E2E DUP3 DUP5 DUP7 PUSH2 0x2DDF JUMP JUMPDEST SWAP2 POP DUP2 SWAP1 POP SWAP7 SWAP6 POP POP POP POP POP POP JUMP JUMPDEST PUSH32 0x4E487B7100000000000000000000000000000000000000000000000000000000 PUSH1 0x0 MSTORE PUSH1 0x11 PUSH1 0x4 MSTORE PUSH1 0x24 PUSH1 0x0 REVERT JUMPDEST PUSH1 0x0 PUSH2 0x2E77 DUP3 PUSH2 0x2874 JUMP JUMPDEST SWAP2 POP PUSH2 0x2E82 DUP4 PUSH2 0x2874 JUMP JUMPDEST SWAP3 POP DUP3 DUP3 SUB SWAP1 POP PUSH16 0xFFFFFFFFFFFFFFFFFFFFFFFFFFFFFFFF DUP2 GT ISZERO PUSH2 0x2EAA JUMPI PUSH2 0x2EA9 PUSH2 0x2E3D JUMP JUMPDEST JUMPDEST SWAP3 SWAP2 POP POP JUMP JUMPDEST PUSH32 0x4E487B7100000000000000000000000000000000000000000000000000000000 PUSH1 0x0 MSTORE PUSH1 0x1 PUSH1 0x4 MSTORE PUSH1 0x24 PUSH1 0x0 REVERT JUMPDEST PUSH1 0x0 PUSH2 0x2EEC DUP3 DUP5 DUP7 PUSH2 0x2DDF JUMP JUMPDEST SWAP2 POP DUP2 SWAP1 POP SWAP4 SWAP3 POP POP POP JUMP JUMPDEST PUSH1 0x0 DUP2 MLOAD SWAP1 POP SWAP2 SWAP1 POP JUMP JUMPDEST PUSH1 0x0 JUMPDEST DUP4 DUP2 LT ISZERO PUSH2 0x2F21 JUMPI DUP1 DUP3 ADD MLOAD DUP2 DUP5 ADD MSTORE PUSH1 0x20 DUP2 ADD SWAP1 POP PUSH2 0x2F06 JUMP JUMPDEST PUSH1 0x0 DUP5 DUP5 ADD MSTORE POP POP POP POP JUMP JUMPDEST PUSH1 0x0 PUSH2 0x2F38 DUP3 PUSH2 0x2EF8 JUMP JUMPDEST PUSH2 0x2F42 DUP2 DUP6 PUSH2 0x2C56 JUMP JUMPDEST SWAP4 POP PUSH2 0x2F52 DUP2 DUP6 PUSH1 0x20 DUP7 ADD PUSH2 0x2F03 JUMP JUMPDEST PUSH2 0x2F5B DUP2 PUSH2 0x2C76 JUMP JUMPDEST DUP5 ADD SWAP2 POP POP SWAP3 SWAP2 POP POP JUMP JUMPDEST PUSH1 0x0 PUSH1 0x20 DUP3 ADD SWAP1 POP DUP2 DUP2 SUB PUSH1 0x0 DUP4 ADD MSTORE PUSH2 0x2F80 DUP2 DUP5 PUSH2 0x2F2D JUMP JUMPDEST SWAP1 POP SWAP3 SWAP2 POP POP JUMP JUMPDEST PUSH32 0x4E487B7100000000000000000000000000000000000000000000000000000000 PUSH1 0x0 MSTORE PUSH1 0x12 PUSH1 0x4 MSTORE PUSH1 0x24 PUSH1 0x0 REVERT JUMPDEST PUSH1 0x0 PUSH2 0x2FC2 DUP3 PUSH2 0x2459 JUMP JUMPDEST SWAP2 POP PUSH2 0x2FCD DUP4 PUSH2 0x2459 JUMP JUMPDEST SWAP3 POP DUP3 PUSH2 0x2FDD JUMPI PUSH2 0x2FDC PUSH2 0x2F88 JUMP JUMPDEST JUMPDEST DUP3 DUP3 DIV SWAP1 POP SWAP3 SWAP2 POP POP JUMP JUMPDEST PUSH1 0x0 PUSH2 0x2FF3 DUP3 PUSH2 0x2459 JUMP JUMPDEST SWAP2 POP PUSH2 0x2FFE DUP4 PUSH2 0x2459 JUMP JUMPDEST SWAP3 POP DUP3 DUP3 SUB SWAP1 POP DUP2 DUP2 GT ISZERO PUSH2 0x3016 JUMPI PUSH2 0x3015 PUSH2 0x2E3D JUMP JUMPDEST JUMPDEST SWAP3 SWAP2 POP POP JUMP JUMPDEST PUSH1 0x0 PUSH2 0x3027 DUP3 PUSH2 0x258C JUMP JUMPDEST SWAP2 POP PUSH2 0x3032 DUP4 PUSH2 0x258C JUMP JUMPDEST SWAP3 POP DUP3 DUP3 ADD SWAP1 POP PUSH8 0xFFFFFFFFFFFFFFFF DUP2 GT ISZERO PUSH2 0x3052 JUMPI PUSH2 0x3051 PUSH2 0x2E3D JUMP JUMPDEST JUMPDEST SWAP3 SWAP2 POP POP JUMP JUMPDEST PUSH1 0x0 PUSH32 0xFFFFFFFF00000000000000000000000000000000000000000000000000000000 DUP3 AND SWAP1 POP SWAP2 SWAP1 POP JUMP JUMPDEST PUSH2 0x308D DUP2 PUSH2 0x3058 JUMP JUMPDEST DUP3 MSTORE POP POP JUMP JUMPDEST PUSH1 0x0 PUSH1 0x20 DUP3 ADD SWAP1 POP PUSH2 0x30A8 PUSH1 0x0 DUP4 ADD DUP5 PUSH2 0x3084 JUMP JUMPDEST SWAP3 SWAP2 POP POP JUMP JUMPDEST PUSH2 0x30B7 DUP2 PUSH2 0x25CA JUMP JUMPDEST DUP2 EQ PUSH2 0x30C2 JUMPI PUSH1 0x0 DUP1 REVERT JUMPDEST POP JUMP JUMPDEST PUSH1 0x0 DUP2 MLOAD SWAP1 POP PUSH2 0x30D4 DUP2 PUSH2 0x30AE JUMP JUMPDEST SWAP3 SWAP2 POP POP JUMP JUMPDEST PUSH1 0x0 PUSH1 0x20 DUP3 DUP5 SUB SLT ISZERO PUSH2 0x30F0 JUMPI PUSH2 0x30EF PUSH2 0x248D JUMP JUMPDEST JUMPDEST PUSH1 0x0 PUSH2 0x30FE DUP5 DUP3 DUP6 ADD PUSH2 0x30C5 JUMP JUMPDEST SWAP2 POP POP SWAP3 SWAP2 POP POP JUMP JUMPDEST PUSH2 0x3110 DUP2 PUSH2 0x2853 JUMP JUMPDEST DUP3 MSTORE POP POP JUMP JUMPDEST PUSH1 0x0 PUSH1 0x40 DUP3 ADD SWAP1 POP PUSH2 0x312B PUSH1 0x0 DUP4 ADD DUP6 PUSH2 0x3107 JUMP JUMPDEST PUSH2 0x3138 PUSH1 0x20 DUP4 ADD DUP5 PUSH2 0x3107 JUMP JUMPDEST SWAP4 SWAP3 POP POP POP JUMP JUMPDEST PUSH1 0x0 PUSH1 0x20 DUP3 ADD SWAP1 POP PUSH2 0x3154 PUSH1 0x0 DUP4 ADD DUP5 PUSH2 0x3107 JUMP JUMPDEST SWAP3 SWAP2 POP POP JUMP JUMPDEST PUSH1 0x0 PUSH2 0x3165 DUP3 PUSH2 0x2459 JUMP JUMPDEST SWAP2 POP PUSH2 0x3170 DUP4 PUSH2 0x2459 JUMP JUMPDEST SWAP3 POP DUP3 DUP3 MUL PUSH2 0x317E DUP2 PUSH2 0x2459 JUMP JUMPDEST SWAP2 POP DUP3 DUP3 DIV DUP5 EQ DUP4 ISZERO OR PUSH2 0x3195 JUMPI PUSH2 0x3194 PUSH2 0x2E3D JUMP JUMPDEST JUMPDEST POP SWAP3 SWAP2 POP POP JUMP JUMPDEST PUSH32 0x4E487B7100000000000000000000000000000000000000000000000000000000 PUSH1 0x0 MSTORE PUSH1 0x41 PUSH1 0x4 MSTORE PUSH1 0x24 PUSH1 0x0 REVERT JUMPDEST PUSH32 0x4E487B7100000000000000000000000000000000000000000000000000000000 PUSH1 0x0 MSTORE PUSH1 0x32 PUSH1 0x4 MSTORE PUSH1 0x24 PUSH1 0x0 REVERT JUMPDEST PUSH1 0x0 PUSH2 0x3205 DUP3 PUSH2 0x2459 JUMP JUMPDEST SWAP2 POP PUSH2 0x3210 DUP4 PUSH2 0x2459 JUMP JUMPDEST SWAP3 POP DUP3 DUP3 ADD SWAP1 POP DUP1 DUP3 GT ISZERO PUSH2 0x3228 JUMPI PUSH2 0x3227 PUSH2 0x2E3D JUMP JUMPDEST JUMPDEST SWAP3 SWAP2 POP POP JUMP JUMPDEST PUSH32 0x4E487B7100000000000000000000000000000000000000000000000000000000 PUSH1 0x0 MSTORE PUSH1 0x31 PUSH1 0x4 MSTORE PUSH1 0x24 PUSH1 0x0 REVERT INVALID LOG2 PUSH5 0x6970667358 0x22 SLT KECCAK256 0xDA CALL EXTCODEHASH 0xAF 0xE8 DUP16 EQ 0xDC 0xD7 0x23 0xEF 0x28 PUSH4 0x52ED9FF7 SWAP13 JUMPI PUSH9 0x99AF80714F4AEE6176 SWAP5 PUSH20 0x9664736F6C634300081800330000000000000000 "},"methodIdentifiers":{"cancelProposal(bytes32)":"37376ca8","execute((address,bytes,bytes))":"fd165a73","getLiveVote(bytes32,address)":"4cc74011","getStage(bytes32)":"ae844f74","getVoteStatus(bytes32)":"0cfe734d","isLive(bytes32)":"cedd3a0e","isVetoOrVotePeriod(bytes32)":"d8cf3528","isVetoPeriod(bytes32)":"272d16f2","isVoteActive(bytes32)":"40a27abc","isVotePeriod(bytes32)":"12007fc9","maxLiveYesVotes()":"87c5cbbb","minWeight()":"0c2ee55e","owner()":"8da5cb5b","proposalExists(bytes32)":"4410a944","proposalId((address,bytes,bytes))":"5b4654a9","proposals(bytes32)":"32ed5b12","propose(bytes32)":"99882cdb","renounceOwnership()":"715018a6","respectContract()":"be142264","respectOf(address)":"58970ca8","setMaxLiveVotes(uint8)":"e89075c7","setMinWeight(uint256)":"20cea51a","setRespectContract(address)":"8c7ecf8d","setVetoLen(uint64)":"ce5b3b39","setVoteLen(uint64)":"bd5ab94f","signal(uint8,bytes)":"141d51cb","transferOwnership(address)":"f2fde38b","vetoLen()":"0ee572fd","vote(bytes32,uint8,bytes)":"d50b2843","voteLen()":"cb156a4a","voteWeightOf(address)":"7fb8b61e"}}}}}