{"contracts/Orec.sol":{"Orec":{"abi":[{"inputs":[{"internalType":"contract IERC165","name":"respectContract_","type":"address"},{"internalType":"uint64","name":"voteLenSeconds_","type":"uint64"},{"internalType":"uint64","name":"vetoLenSeconds_","type":"uint64"},{"internalType":"uint256","name":"minWeight_","type":"uint256"},{"internalType":"uint8","name":"maxLiveYesVotes_","type":"uint8"}],"stateMutability":"nonpayable","type":"constructor"},{"inputs":[{"internalType":"enum Orec.VoteType","name":"prevVote","type":"uint8"},{"internalType":"enum Orec.VoteType","name":"newVote","type":"uint8"}],"name":"AlreadyVoted","type":"error"},{"inputs":[],"name":"InvalidVote","type":"error"},{"inputs":[],"name":"MaxLiveYesVotesExceeded","type":"error"},{"inputs":[],"name":"OutOfGas","type":"error"},{"inputs":[{"internalType":"address","name":"owner","type":"address"}],"name":"OwnableInvalidOwner","type":"error"},{"inputs":[{"internalType":"address","name":"account","type":"address"}],"name":"OwnableUnauthorizedAccount","type":"error"},{"inputs":[],"name":"ProposalAlreadyExecuted","type":"error"},{"inputs":[],"name":"ProposalAlreadyExists","type":"error"},{"inputs":[],"name":"ProposalDoesNotExist","type":"error"},{"inputs":[],"name":"ProposalNotExpired","type":"error"},{"inputs":[],"name":"ProposalNotPassed","type":"error"},{"inputs":[],"name":"ProposalVoteInactive","type":"error"},{"inputs":[],"name":"UnsupportedRespectContract","type":"error"},{"inputs":[],"name":"VoteEnded","type":"error"},{"inputs":[],"name":"VotePeriodOver","type":"error"},{"anonymous":false,"inputs":[{"indexed":true,"internalType":"Orec.PropId","name":"propId","type":"bytes32"},{"indexed":true,"internalType":"address","name":"voter","type":"address"},{"indexed":false,"internalType":"enum Orec.VoteType","name":"vtype","type":"uint8"}],"name":"EmptyVoteIn","type":"event"},{"anonymous":false,"inputs":[{"indexed":true,"internalType":"Orec.PropId","name":"propId","type":"bytes32"},{"indexed":false,"internalType":"bytes","name":"retVal","type":"bytes"}],"name":"Executed","type":"event"},{"anonymous":false,"inputs":[{"indexed":true,"internalType":"Orec.PropId","name":"propId","type":"bytes32"},{"indexed":false,"internalType":"bytes","name":"retVal","type":"bytes"}],"name":"ExecutionFailed","type":"event"},{"anonymous":false,"inputs":[{"indexed":true,"internalType":"address","name":"previousOwner","type":"address"},{"indexed":true,"internalType":"address","name":"newOwner","type":"address"}],"name":"OwnershipTransferred","type":"event"},{"anonymous":false,"inputs":[{"indexed":true,"internalType":"Orec.PropId","name":"propId","type":"bytes32"}],"name":"ProposalCreated","type":"event"},{"anonymous":false,"inputs":[{"indexed":true,"internalType":"uint8","name":"signalType","type":"uint8"},{"indexed":false,"internalType":"bytes","name":"data","type":"bytes"}],"name":"Signal","type":"event"},{"anonymous":false,"inputs":[{"indexed":true,"internalType":"Orec.PropId","name":"propId","type":"bytes32"},{"indexed":true,"internalType":"address","name":"voter","type":"address"},{"components":[{"internalType":"enum Orec.VoteType","name":"vtype","type":"uint8"},{"internalType":"Orec.VoteWeight","name":"weight","type":"uint128"}],"indexed":false,"internalType":"struct Orec.Vote","name":"vote","type":"tuple"}],"name":"WeightedVoteIn","type":"event"},{"inputs":[{"components":[{"internalType":"address","name":"addr","type":"address"},{"internalType":"bytes","name":"cdata","type":"bytes"},{"internalType":"bytes","name":"memo","type":"bytes"}],"internalType":"struct Orec.Message","name":"message","type":"tuple"}],"name":"execute","outputs":[{"internalType":"bool","name":"","type":"bool"}],"stateMutability":"nonpayable","type":"function"},{"inputs":[{"internalType":"Orec.PropId","name":"propId","type":"bytes32"},{"internalType":"address","name":"voter","type":"address"}],"name":"getLiveVote","outputs":[{"components":[{"internalType":"enum Orec.VoteType","name":"vtype","type":"uint8"},{"internalType":"Orec.VoteWeight","name":"weight","type":"uint128"}],"internalType":"struct Orec.Vote","name":"","type":"tuple"}],"stateMutability":"view","type":"function"},{"inputs":[{"internalType":"Orec.PropId","name":"propId","type":"bytes32"}],"name":"getStage","outputs":[{"internalType":"enum Orec.Stage","name":"","type":"uint8"}],"stateMutability":"view","type":"function"},{"inputs":[{"internalType":"Orec.PropId","name":"propId","type":"bytes32"}],"name":"getVoteStatus","outputs":[{"internalType":"enum Orec.VoteStatus","name":"","type":"uint8"}],"stateMutability":"view","type":"function"},{"inputs":[{"internalType":"Orec.PropId","name":"propId","type":"bytes32"}],"name":"isLive","outputs":[{"internalType":"bool","name":"","type":"bool"}],"stateMutability":"view","type":"function"},{"inputs":[{"internalType":"Orec.PropId","name":"propId","type":"bytes32"}],"name":"isVetoOrVotePeriod","outputs":[{"internalType":"bool","name":"","type":"bool"}],"stateMutability":"view","type":"function"},{"inputs":[{"internalType":"Orec.PropId","name":"propId","type":"bytes32"}],"name":"isVetoPeriod","outputs":[{"internalType":"bool","name":"","type":"bool"}],"stateMutability":"view","type":"function"},{"inputs":[{"internalType":"Orec.PropId","name":"propId","type":"bytes32"}],"name":"isVoteActive","outputs":[{"internalType":"bool","name":"","type":"bool"}],"stateMutability":"view","type":"function"},{"inputs":[{"internalType":"Orec.PropId","name":"propId","type":"bytes32"}],"name":"isVotePeriod","outputs":[{"internalType":"bool","name":"","type":"bool"}],"stateMutability":"view","type":"function"},{"inputs":[],"name":"maxLiveYesVotes","outputs":[{"internalType":"uint8","name":"","type":"uint8"}],"stateMutability":"view","type":"function"},{"inputs":[],"name":"minWeight","outputs":[{"internalType":"uint256","name":"","type":"uint256"}],"stateMutability":"view","type":"function"},{"inputs":[],"name":"owner","outputs":[{"internalType":"address","name":"","type":"address"}],"stateMutability":"view","type":"function"},{"inputs":[{"internalType":"Orec.PropId","name":"propId","type":"bytes32"}],"name":"proposalExists","outputs":[{"internalType":"bool","name":"","type":"bool"}],"stateMutability":"view","type":"function"},{"inputs":[{"components":[{"internalType":"address","name":"addr","type":"address"},{"internalType":"bytes","name":"cdata","type":"bytes"},{"internalType":"bytes","name":"memo","type":"bytes"}],"internalType":"struct Orec.Message","name":"message","type":"tuple"}],"name":"proposalId","outputs":[{"internalType":"Orec.PropId","name":"","type":"bytes32"}],"stateMutability":"pure","type":"function"},{"inputs":[{"internalType":"Orec.PropId","name":"","type":"bytes32"}],"name":"proposals","outputs":[{"internalType":"uint256","name":"createTime","type":"uint256"},{"internalType":"uint256","name":"yesWeight","type":"uint256"},{"internalType":"uint256","name":"noWeight","type":"uint256"}],"stateMutability":"view","type":"function"},{"inputs":[{"internalType":"Orec.PropId","name":"propId","type":"bytes32"}],"name":"propose","outputs":[],"stateMutability":"nonpayable","type":"function"},{"inputs":[],"name":"renounceOwnership","outputs":[],"stateMutability":"nonpayable","type":"function"},{"inputs":[],"name":"respectContract","outputs":[{"internalType":"address","name":"","type":"address"}],"stateMutability":"view","type":"function"},{"inputs":[{"internalType":"address","name":"account","type":"address"}],"name":"respectOf","outputs":[{"internalType":"uint256","name":"","type":"uint256"}],"stateMutability":"view","type":"function"},{"inputs":[{"internalType":"uint8","name":"newMaxLiveVotes","type":"uint8"}],"name":"setMaxLiveVotes","outputs":[],"stateMutability":"nonpayable","type":"function"},{"inputs":[{"internalType":"uint256","name":"newMinWeigth","type":"uint256"}],"name":"setMinWeight","outputs":[],"stateMutability":"nonpayable","type":"function"},{"inputs":[{"internalType":"contract IERC165","name":"respect","type":"address"}],"name":"setRespectContract","outputs":[],"stateMutability":"nonpayable","type":"function"},{"inputs":[{"internalType":"uint64","name":"newVetoLen","type":"uint64"}],"name":"setVetoLen","outputs":[],"stateMutability":"nonpayable","type":"function"},{"inputs":[{"internalType":"uint64","name":"newVoteLen","type":"uint64"}],"name":"setVoteLen","outputs":[],"stateMutability":"nonpayable","type":"function"},{"inputs":[{"internalType":"uint8","name":"signalType","type":"uint8"},{"internalType":"bytes","name":"data","type":"bytes"}],"name":"signal","outputs":[],"stateMutability":"nonpayable","type":"function"},{"inputs":[{"internalType":"address","name":"newOwner","type":"address"}],"name":"transferOwnership","outputs":[],"stateMutability":"nonpayable","type":"function"},{"inputs":[],"name":"vetoLen","outputs":[{"internalType":"uint64","name":"","type":"uint64"}],"stateMutability":"view","type":"function"},{"inputs":[{"internalType":"Orec.PropId","name":"propId","type":"bytes32"},{"internalType":"enum Orec.VoteType","name":"voteType","type":"uint8"},{"internalType":"bytes","name":"","type":"bytes"}],"name":"vote","outputs":[],"stateMutability":"nonpayable","type":"function"},{"inputs":[],"name":"voteLen","outputs":[{"internalType":"uint64","name":"","type":"uint64"}],"stateMutability":"view","type":"function"},{"inputs":[{"internalType":"address","name":"account","type":"address"}],"name":"voteWeightOf","outputs":[{"internalType":"Orec.VoteWeight","name":"","type":"uint128"}],"stateMutability":"view","type":"function"}],"evm":{"bytecode":{"linkReferences":{},"object":"60806040523480156200001157600080fd5b5060405162003c8a38038062003c8a83398181016040528101906200003791906200058e565b30600073ffffffffffffffffffffffffffffffffffffffff168173ffffffffffffffffffffffffffffffffffffffff1603620000ad5760006040517f1e4fbdf7000000000000000000000000000000000000000000000000000000008152600401620000a4919062000627565b60405180910390fd5b620000be816200014f60201b60201c565b50620000d0856200021360201b60201c565b83600060146101000a81548167ffffffffffffffff021916908367ffffffffffffffff16021790555082600160006101000a81548167ffffffffffffffff021916908367ffffffffffffffff1602179055508160028190555080600360156101000a81548160ff021916908360ff16021790555050505050506200076e565b60008060009054906101000a900473ffffffffffffffffffffffffffffffffffffffff169050816000806101000a81548173ffffffffffffffffffffffffffffffffffffffff021916908373ffffffffffffffffffffffffffffffffffffffff1602179055508173ffffffffffffffffffffffffffffffffffffffff168173ffffffffffffffffffffffffffffffffffffffff167f8be0079c531659141344cd1fd0a4f28419497f9722a3daafe3b4186f6b6457e060405160405180910390a35050565b60008190508173ffffffffffffffffffffffffffffffffffffffff166301ffc9a77f58970ca8000000000000000000000000000000000000000000000000000000006040518263ffffffff1660e01b815260040162000273919062000681565b602060405180830381865afa15801562000291573d6000803e3d6000fd5b505050506040513d601f19601f82011682018060405250810190620002b79190620006db565b15620002f1576000600360146101000a81548160ff02191690836001811115620002e657620002e56200070d565b5b02179055506200040d565b60008173ffffffffffffffffffffffffffffffffffffffff166370a08231306040518263ffffffff1660e01b81526004016200032e919062000627565b602060405180830381865afa1580156200034c573d6000803e3d6000fd5b505050506040513d601f19601f820116820180604052508101906200037291906200073c565b905060008110158015620003a657507fffffffffffffffffffffffffffffffffffffffffffffffffffffffffffffffff8111155b620003dd576040517fadd3c86f00000000000000000000000000000000000000000000000000000000815260040160405180910390fd5b6001600360146101000a81548160ff021916908360018111156200040657620004056200070d565b5b0217905550505b80600360006101000a81548173ffffffffffffffffffffffffffffffffffffffff021916908373ffffffffffffffffffffffffffffffffffffffff1602179055505050565b600080fd5b600073ffffffffffffffffffffffffffffffffffffffff82169050919050565b6000620004848262000457565b9050919050565b6000620004988262000477565b9050919050565b620004aa816200048b565b8114620004b657600080fd5b50565b600081519050620004ca816200049f565b92915050565b600067ffffffffffffffff82169050919050565b620004ef81620004d0565b8114620004fb57600080fd5b50565b6000815190506200050f81620004e4565b92915050565b6000819050919050565b6200052a8162000515565b81146200053657600080fd5b50565b6000815190506200054a816200051f565b92915050565b600060ff82169050919050565b620005688162000550565b81146200057457600080fd5b50565b60008151905062000588816200055d565b92915050565b600080600080600060a08688031215620005ad57620005ac62000452565b5b6000620005bd88828901620004b9565b9550506020620005d088828901620004fe565b9450506040620005e388828901620004fe565b9350506060620005f68882890162000539565b9250506080620006098882890162000577565b9150509295509295909350565b620006218162000477565b82525050565b60006020820190506200063e600083018462000616565b92915050565b60007fffffffff0000000000000000000000000000000000000000000000000000000082169050919050565b6200067b8162000644565b82525050565b600060208201905062000698600083018462000670565b92915050565b60008115159050919050565b620006b5816200069e565b8114620006c157600080fd5b50565b600081519050620006d581620006aa565b92915050565b600060208284031215620006f457620006f362000452565b5b60006200070484828501620006c4565b91505092915050565b7f4e487b7100000000000000000000000000000000000000000000000000000000600052602160045260246000fd5b60006020828403121562000755576200075462000452565b5b6000620007658482850162000539565b91505092915050565b61350c806200077e6000396000f3fe608060405234801561001057600080fd5b50600436106101da5760003560e01c806387c5cbbb11610104578063cb156a4a116100a2578063d8cf352811610071578063d8cf3528146105a3578063e89075c7146105d3578063f2fde38b146105ef578063fd165a731461060b576101da565b8063cb156a4a1461051d578063ce5b3b391461053b578063cedd3a0e14610557578063d50b284314610587576101da565b806399882cdb116100de57806399882cdb14610497578063ae844f74146104b3578063bd5ab94f146104e3578063be142264146104ff576101da565b806387c5cbbb1461043f5780638c7ecf8d1461045d5780638da5cb5b14610479576101da565b806332ed5b121161017c57806358970ca81161014b57806358970ca8146103a55780635b4654a9146103d5578063715018a6146104055780637fb8b61e1461040f576101da565b806332ed5b12146102e357806340a27abc146103155780634410a944146103455780634cc7401114610375576101da565b806312007fc9116101b857806312007fc91461024b578063141d51cb1461027b57806320cea51a14610297578063272d16f2146102b3576101da565b80630c2ee55e146101df5780630cfe734d146101fd5780630ee572fd1461022d575b600080fd5b6101e761063b565b6040516101f491906125e4565b60405180910390f35b6102176004803603810190610212919061263f565b610641565b60405161022491906126e3565b60405180910390f35b610235610660565b6040516102429190612721565b60405180910390f35b6102656004803603810190610260919061263f565b61067a565b6040516102729190612757565b60405180910390f35b61029560048036038101906102909190612810565b610699565b005b6102b160048036038101906102ac919061289c565b6106e3565b005b6102cd60048036038101906102c8919061263f565b6106f5565b6040516102da9190612757565b60405180910390f35b6102fd60048036038101906102f8919061263f565b610714565b60405161030c939291906128c9565b60405180910390f35b61032f600480360381019061032a919061263f565b61073e565b60405161033c9190612757565b60405180910390f35b61035f600480360381019061035a919061263f565b61075d565b60405161036c9190612757565b60405180910390f35b61038f600480360381019061038a919061295e565b610786565b60405161039c9190612a6c565b60405180910390f35b6103bf60048036038101906103ba9190612a87565b6107e4565b6040516103cc91906125e4565b60405180910390f35b6103ef60048036038101906103ea9190612ad8565b610967565b6040516103fc9190612b42565b60405180910390f35b61040d6109d2565b005b61042960048036038101906104249190612a87565b6109e6565b6040516104369190612b6c565b60405180910390f35b610447610a3a565b6040516104549190612b96565b60405180910390f35b61047760048036038101906104729190612bef565b610a4d565b005b610481610a61565b60405161048e9190612c2b565b60405180910390f35b6104b160048036038101906104ac919061263f565b610a8a565b005b6104cd60048036038101906104c8919061263f565b610aef565b6040516104da9190612c8e565b60405180910390f35b6104fd60048036038101906104f89190612cd5565b610bb2565b005b610507610be6565b6040516105149190612c2b565b60405180910390f35b610525610c0c565b6040516105329190612721565b60405180910390f35b61055560048036038101906105509190612cd5565b610c26565b005b610571600480360381019061056c919061263f565b610c5a565b60405161057e9190612757565b60405180910390f35b6105a1600480360381019061059c9190612d27565b610c83565b005b6105bd60048036038101906105b8919061263f565b610cc4565b6040516105ca9190612757565b60405180910390f35b6105ed60048036038101906105e89190612d9b565b610ce3565b005b61060960048036038101906106049190612a87565b610d09565b005b61062560048036038101906106209190612ad8565b610d8f565b6040516106329190612757565b60405180910390f35b60025481565b60008061064d8361105f565b9050610658816110bf565b915050919050565b600160009054906101000a900467ffffffffffffffff1681565b6000806106868361105f565b90506106918161110c565b915050919050565b6106a161114c565b8260ff167f294d62780e868235e85aee4277a92857d52a196987e2a5bbb9fffe4f08b4567a83836040516106d6929190612e26565b60405180910390a2505050565b6106eb61114c565b8060028190555050565b6000806107018361105f565b905061070c816111d3565b915050919050565b60046020528060005260406000206000915090508060000154908060010154908060020154905083565b60008061074a8361105f565b905061075581611260565b915050919050565b60008060046000848152602001908152602001600020905061077e816112cd565b915050919050565b61078e612583565b6000600560008473ffffffffffffffffffffffffffffffffffffffff1673ffffffffffffffffffffffffffffffffffffffff16815260200190815260200160002090506107db81856112de565b91505092915050565b60008060018111156107f9576107f861266c565b5b600360149054906101000a900460ff16600181111561081b5761081a61266c565b5b036108c357600360009054906101000a900473ffffffffffffffffffffffffffffffffffffffff1673ffffffffffffffffffffffffffffffffffffffff166358970ca8836040518263ffffffff1660e01b815260040161087b9190612c2b565b602060405180830381865afa158015610898573d6000803e3d6000fd5b505050506040513d601f19601f820116820180604052508101906108bc9190612e5f565b9050610962565b600360009054906101000a900473ffffffffffffffffffffffffffffffffffffffff1673ffffffffffffffffffffffffffffffffffffffff166370a08231836040518263ffffffff1660e01b815260040161091e9190612c2b565b602060405180830381865afa15801561093b573d6000803e3d6000fd5b505050506040513d601f19601f8201168201806040525081019061095f9190612e5f565b90505b919050565b60008082600001602081019061097d9190612a87565b83806020019061098d9190612e9b565b85806040019061099d9190612e9b565b6040516020016109b1959493929190612f76565b60405160208183030381529060405290508080519060200120915050919050565b6109da61114c565b6109e4600061135d565b565b6000806109f2836107e4565b90506000610a2e8260016fffffffffffffffffffffffffffffffff610a179190612fde565b6fffffffffffffffffffffffffffffffff16611421565b90508092505050919050565b600360159054906101000a900460ff1681565b610a5561114c565b610a5e8161143a565b50565b60008060009054906101000a900473ffffffffffffffffffffffffffffffffffffffff16905090565b6000600460008381526020019081526020016000209050610aaa816112cd565b15610ae1576040517fb8c39e6200000000000000000000000000000000000000000000000000000000815260040160405180910390fd5b610aeb8282611665565b5050565b600080610afb8361105f565b90506000610b08826110bf565b9050600380811115610b1d57610b1c61266c565b5b816003811115610b3057610b2f61266c565b5b03610b4057600392505050610bad565b60026003811115610b5457610b5361266c565b5b816003811115610b6757610b6661266c565b5b03610b7757600292505050610bad565b610b808261110c565b15610b9057600092505050610bad565b610b99826111d3565b610ba657610ba5613022565b5b6001925050505b919050565b610bba61114c565b80600060146101000a81548167ffffffffffffffff021916908367ffffffffffffffff16021790555050565b600360009054906101000a900473ffffffffffffffffffffffffffffffffffffffff1681565b600060149054906101000a900467ffffffffffffffff1681565b610c2e61114c565b80600160006101000a81548167ffffffffffffffff021916908367ffffffffffffffff16021790555050565b600080600460008481526020019081526020016000209050610c7b816116c4565b915050919050565b6000600460008681526020019081526020016000209050610ca3816112cd565b610cb257610cb18582611665565b5b610cbd818686611713565b5050505050565b600080610cd08361105f565b9050610cdb81611a4a565b915050919050565b610ceb61114c565b80600360156101000a81548160ff021916908360ff16021790555050565b610d1161114c565b600073ffffffffffffffffffffffffffffffffffffffff168173ffffffffffffffffffffffffffffffffffffffff1603610d835760006040517f1e4fbdf7000000000000000000000000000000000000000000000000000000008152600401610d7a9190612c2b565b60405180910390fd5b610d8c8161135d565b50565b600080610d9b83610967565b90506000610da88261105f565b905060026003811115610dbe57610dbd61266c565b5b610dc7826110bf565b6003811115610dd957610dd861266c565b5b14610e10576040517fc8c93ba300000000000000000000000000000000000000000000000000000000815260040160405180910390fd5b6004600083815260200190815260200160002060008082016000905560018201600090556002820160009055505060005a9050600080866000016020810190610e599190612a87565b73ffffffffffffffffffffffffffffffffffffffff16878060200190610e7f9190612e9b565b604051610e8d929190613051565b6000604051808303816000865af19150503d8060008114610eca576040519150601f19603f3d011682016040523d82523d6000602084013e610ecf565b606091505b509150915060005a9050610f4f6040518060400160405280600b81526020017f6761734265666f72653a20000000000000000000000000000000000000000000815250856040518060400160405280600b81526020017f6761732061667465723a2000000000000000000000000000000000000000000081525084611aab565b8215610f9257857fda66fcfe5711520a570ced34d4cdebbe652fe74713bf2bc9db4ba54357e5a96f83604051610f8591906130d8565b60405180910390a2611051565b604084610f9f9190613129565b811015610fd8576040517f77ebef4d00000000000000000000000000000000000000000000000000000000815260040160405180910390fd5b6110186040518060400160405280600881526020017f72657456616c3a200000000000000000000000000000000000000000000000008152508351611b4d565b857fd255d8a333980d77af4f9179384057def133983cb02db3e1fdb70c4dc14102e88360405161104891906130d8565b60405180910390a25b829650505050505050919050565b600080600460008481526020019081526020016000209050611080816112cd565b6110b6576040517fd9c78e0200000000000000000000000000000000000000000000000000000000815260040160405180910390fd5b80915050919050565b60006110ca82611be9565b156110ed576110d882611a4a565b6110e35760026110e6565b60005b9050611107565b6110f68261110c565b611101576003611104565b60015b90505b919050565b60008082600001544261111f919061315a565b9050600060149054906101000a900467ffffffffffffffff1667ffffffffffffffff168110915050919050565b611154611c1b565b73ffffffffffffffffffffffffffffffffffffffff16611172610a61565b73ffffffffffffffffffffffffffffffffffffffff16146111d157611195611c1b565b6040517f118cdaa70000000000000000000000000000000000000000000000000000000081526004016111c89190612c2b565b60405180910390fd5b565b6000808260000154426111e6919061315a565b9050600060149054906101000a900467ffffffffffffffff1667ffffffffffffffff1681101580156112585750600160009054906101000a900467ffffffffffffffff16600060149054906101000a900467ffffffffffffffff1661124b919061318e565b67ffffffffffffffff1681105b915050919050565b60008061126c836110bf565b9050600060038111156112825761128161266c565b5b8160038111156112955761129461266c565b5b14806112c55750600160038111156112b0576112af61266c565b5b8160038111156112c3576112c261266c565b5b145b915050919050565b600080826000015414159050919050565b6112e6612583565b6000806112fc8486611c2390919063ffffffff16565b9150915081611349576040518060400160405280600060028111156113245761132361266c565b5b815260200160006fffffffffffffffffffffffffffffffff1681525092505050611357565b61135281611c72565b925050505b92915050565b60008060009054906101000a900473ffffffffffffffffffffffffffffffffffffffff169050816000806101000a81548173ffffffffffffffffffffffffffffffffffffffff021916908373ffffffffffffffffffffffffffffffffffffffff1602179055508173ffffffffffffffffffffffffffffffffffffffff168173ffffffffffffffffffffffffffffffffffffffff167f8be0079c531659141344cd1fd0a4f28419497f9722a3daafe3b4186f6b6457e060405160405180910390a35050565b60008183106114305781611432565b825b905092915050565b60008190508173ffffffffffffffffffffffffffffffffffffffff166301ffc9a77f58970ca8000000000000000000000000000000000000000000000000000000006040518263ffffffff1660e01b81526004016114989190613205565b602060405180830381865afa1580156114b5573d6000803e3d6000fd5b505050506040513d601f19601f820116820180604052508101906114d9919061324c565b1561150e576000600360146101000a81548160ff021916908360018111156115045761150361266c565b5b0217905550611620565b60008173ffffffffffffffffffffffffffffffffffffffff166370a08231306040518263ffffffff1660e01b81526004016115499190612c2b565b602060405180830381865afa158015611566573d6000803e3d6000fd5b505050506040513d601f19601f8201168201806040525081019061158a9190612e5f565b9050600081101580156115bd57507fffffffffffffffffffffffffffffffffffffffffffffffffffffffffffffffff8111155b6115f3576040517fadd3c86f00000000000000000000000000000000000000000000000000000000815260040160405180910390fd5b6001600360146101000a81548160ff021916908360018111156116195761161861266c565b5b0217905550505b80600360006101000a81548173ffffffffffffffffffffffffffffffffffffffff021916908373ffffffffffffffffffffffffffffffffffffffff1602179055505050565b6000816001015414801561167d575060008160020154145b61168a57611689613022565b5b428160000181905550817f288a29bca04edb18fcdb2c76d6e3b03b8a137c85c70d1a4cb8aacfa868d6051060405160405180910390a25050565b6000806116d0836112cd565b905080801561170b57506003808111156116ed576116ec61266c565b5b6116f6846110bf565b60038111156117085761170761266c565b5b14155b915050919050565b6000600560003373ffffffffffffffffffffffffffffffffffffffff1673ffffffffffffffffffffffffffffffffffffffff1681526020019081526020016000209050600061176282856112de565b9050600060405180604001604052808560028111156117845761178361266c565b5b8152602001611792336109e6565b6fffffffffffffffffffffffffffffffff1681525090506117b38282611d99565b156117fb578160000151846040517f03ddd2790000000000000000000000000000000000000000000000000000000081526004016117f2929190613288565b60405180910390fd5b60006118078487611e09565b90506001600281111561181d5761181c61266c565b5b826000015160028111156118345761183361266c565b5b036118c8576118428761110c565b611878576040517f6d47005400000000000000000000000000000000000000000000000000000000815260040160405180910390fd5b600360159054906101000a900460ff1660ff1681106118c3576040517f48d8fc9400000000000000000000000000000000000000000000000000000000815260040160405180910390fd5b61196e565b6002808111156118db576118da61266c565b5b826000015160028111156118f2576118f161266c565b5b0361193b5761190087611260565b611936576040517f0de09f8100000000000000000000000000000000000000000000000000000000815260040160405180910390fd5b61196d565b6040517fd5dd0c6600000000000000000000000000000000000000000000000000000000815260040160405180910390fd5b5b61197b8487898686611fab565b600082602001516fffffffffffffffffffffffffffffffff16036119f1573373ffffffffffffffffffffffffffffffffffffffff16867f60921de1a934e80af973d90edbca67a078f0dc03d7385b9031ff925b3a2ab82084600001516040516119e491906132b1565b60405180910390a3611a41565b3373ffffffffffffffffffffffffffffffffffffffff16867fcd907020340d41d9b3fb53725f52264110fc156b0059b7817f4fe29f25a96cef84604051611a389190612a6c565b60405180910390a35b50505050505050565b600080826000015442611a5d919061315a565b9050600160009054906101000a900467ffffffffffffffff16600060149054906101000a900467ffffffffffffffff16611a97919061318e565b67ffffffffffffffff168110915050919050565b611b4784848484604051602401611ac59493929190613321565b6040516020818303038152906040527fc67ea9d1000000000000000000000000000000000000000000000000000000007bffffffffffffffffffffffffffffffffffffffffffffffffffffffff19166020820180517bffffffffffffffffffffffffffffffffffffffffffffffffffffffff83818316178352505050506121b6565b50505050565b611be58282604051602401611b63929190613374565b6040516020818303038152906040527fb60e72cc000000000000000000000000000000000000000000000000000000007bffffffffffffffffffffffffffffffffffffffffffffffffffffffff19166020820180517bffffffffffffffffffffffffffffffffffffffffffffffffffffffff83818316178352505050506121b6565b5050565b6000816001015460028360020154611c0191906133a4565b108015611c145750600254826001015410155b9050919050565b600033905090565b60008060008460020160008581526020019081526020016000205490506000801b8103611c6257611c5485856121d0565b6000801b9250925050611c6b565b60018192509250505b9250929050565b611c7a612583565b60008260001c905060016fffffffffffffffffffffffffffffffff611c9f9190612fde565b6fffffffffffffffffffffffffffffffff16816fffffffffffffffffffffffffffffffff161115611cd357611cd2613022565b5b600060808460001c901c60ff166002811115611cf257611cf161266c565b5b905060016002811115611d0857611d0761266c565b5b816002811115611d1b57611d1a61266c565b5b1480611d4a5750600280811115611d3557611d3461266c565b5b816002811115611d4857611d4761266c565b5b145b611d5757611d56613022565b5b6040518060400160405280826002811115611d7557611d7461266c565b5b8152602001836fffffffffffffffffffffffffffffffff1681525092505050919050565b600081600001516002811115611db257611db161266c565b5b83600001516002811115611dc957611dc861266c565b5b148015611e01575081602001516fffffffffffffffffffffffffffffffff1683602001516fffffffffffffffffffffffffffffffff16145b905092915050565b600080611e15846121f0565b905060008167ffffffffffffffff811115611e3357611e326133e6565b5b604051908082528060200260200182016040528015611e615781602001602082028036833780820191505090505b50905060008060005b84811015611f5657600080611e88838b61220590919063ffffffff16565b9150915060008290506000600460008381526020019081526020016000209050611eb1816116c4565b611ee95781888881518110611ec957611ec8613415565b5b602002602001018181525050600187611ee29190613444565b9650611f45565b6000611ef484611c72565b905060016002811115611f0a57611f0961266c565b5b81600001516002811115611f2157611f2061266c565b5b148015611f2e57508b8314155b15611f4357600187611f409190613444565b96505b505b505050508080600101915050611e6a565b5060005b82811015611f9d57611f8f848281518110611f7857611f77613415565b5b60200260200101518961224590919063ffffffff16565b508080600101915050611f5a565b508094505050505092915050565b600082602001516fffffffffffffffffffffffffffffffff1611156120935760016002811115611fde57611fdd61266c565b5b82600001516002811115611ff557611ff461266c565b5b036120305781602001516fffffffffffffffffffffffffffffffff16836001016000828254612024919061315a565b92505081905550612092565b6002808111156120435761204261266c565b5b8260000151600281111561205a5761205961266c565b5b036120915781602001516fffffffffffffffffffffffffffffffff16836002016000828254612089919061315a565b925050819055505b5b5b600160028111156120a7576120a661266c565b5b816000015160028111156120be576120bd61266c565b5b036120f95780602001516fffffffffffffffffffffffffffffffff168360010160008282546120ed9190613444565b92505081905550612191565b60028081111561210c5761210b61266c565b5b816000015160028111156121235761212261266c565b5b0361215e5780602001516fffffffffffffffffffffffffffffffff168360020160008282546121529190613444565b92505081905550612190565b6040517fd5dd0c6600000000000000000000000000000000000000000000000000000000815260040160405180910390fd5b5b6121ae8461219e8361227e565b876122c89092919063ffffffff16565b505050505050565b6121cd816121c5612303612324565b63ffffffff16565b50565b60006121e8828460000161232f90919063ffffffff16565b905092915050565b60006121fe82600001612346565b9050919050565b6000806000612220848660000161235b90919063ffffffff16565b9050808560020160008381526020019081526020016000205492509250509250929050565b600082600201600083815260200190815260200160002060009055612276828460000161237290919063ffffffff16565b905092915050565b600080826020015190506000816fffffffffffffffffffffffffffffffff166080856000015160028111156122b6576122b561266c565b5b901b1790508060001b92505050919050565b600081846002016000858152602001908152602001600020819055506122fa838560000161238990919063ffffffff16565b90509392505050565b60006a636f6e736f6c652e6c6f679050600080835160208501845afa505050565b6125c1819050919050565b600061233e83600001836123a0565b905092915050565b6000612354826000016123c3565b9050919050565b600061236a83600001836123d4565b905092915050565b600061238183600001836123ff565b905092915050565b60006123988360000183612513565b905092915050565b600080836001016000848152602001908152602001600020541415905092915050565b600081600001805490509050919050565b60008260000182815481106123ec576123eb613415565b5b9060005260206000200154905092915050565b60008083600101600084815260200190815260200160002054905060008114612507576000600182612431919061315a565b9050600060018660000180549050612449919061315a565b90508082146124b857600086600001828154811061246a57612469613415565b5b906000526020600020015490508087600001848154811061248e5761248d613415565b5b90600052602060002001819055508387600101600083815260200190815260200160002081905550505b856000018054806124cc576124cb613478565b5b60019003818190600052602060002001600090559055856001016000868152602001908152602001600020600090556001935050505061250d565b60009150505b92915050565b600061251f83836123a0565b61257857826000018290806001815401808255809150506001900390600052602060002001600090919091909150558260000180549050836001016000848152602001908152602001600020819055506001905061257d565b600090505b92915050565b6040518060400160405280600060028111156125a2576125a161266c565b5b815260200160006fffffffffffffffffffffffffffffffff1681525090565b6125c96134a7565b565b6000819050919050565b6125de816125cb565b82525050565b60006020820190506125f960008301846125d5565b92915050565b600080fd5b600080fd5b6000819050919050565b61261c81612609565b811461262757600080fd5b50565b60008135905061263981612613565b92915050565b600060208284031215612655576126546125ff565b5b60006126638482850161262a565b91505092915050565b7f4e487b7100000000000000000000000000000000000000000000000000000000600052602160045260246000fd5b600481106126ac576126ab61266c565b5b50565b60008190506126bd8261269b565b919050565b60006126cd826126af565b9050919050565b6126dd816126c2565b82525050565b60006020820190506126f860008301846126d4565b92915050565b600067ffffffffffffffff82169050919050565b61271b816126fe565b82525050565b60006020820190506127366000830184612712565b92915050565b60008115159050919050565b6127518161273c565b82525050565b600060208201905061276c6000830184612748565b92915050565b600060ff82169050919050565b61278881612772565b811461279357600080fd5b50565b6000813590506127a58161277f565b92915050565b600080fd5b600080fd5b600080fd5b60008083601f8401126127d0576127cf6127ab565b5b8235905067ffffffffffffffff8111156127ed576127ec6127b0565b5b602083019150836001820283011115612809576128086127b5565b5b9250929050565b600080600060408486031215612829576128286125ff565b5b600061283786828701612796565b935050602084013567ffffffffffffffff81111561285857612857612604565b5b612864868287016127ba565b92509250509250925092565b612879816125cb565b811461288457600080fd5b50565b60008135905061289681612870565b92915050565b6000602082840312156128b2576128b16125ff565b5b60006128c084828501612887565b91505092915050565b60006060820190506128de60008301866125d5565b6128eb60208301856125d5565b6128f860408301846125d5565b949350505050565b600073ffffffffffffffffffffffffffffffffffffffff82169050919050565b600061292b82612900565b9050919050565b61293b81612920565b811461294657600080fd5b50565b60008135905061295881612932565b92915050565b60008060408385031215612975576129746125ff565b5b60006129838582860161262a565b925050602061299485828601612949565b9150509250929050565b600381106129af576129ae61266c565b5b50565b60008190506129c08261299e565b919050565b60006129d0826129b2565b9050919050565b6129e0816129c5565b82525050565b60006fffffffffffffffffffffffffffffffff82169050919050565b6000819050919050565b6000612a27612a22612a1d846129e6565b612a02565b6129e6565b9050919050565b612a3781612a0c565b82525050565b604082016000820151612a5360008501826129d7565b506020820151612a666020850182612a2e565b50505050565b6000604082019050612a816000830184612a3d565b92915050565b600060208284031215612a9d57612a9c6125ff565b5b6000612aab84828501612949565b91505092915050565b600080fd5b600060608284031215612acf57612ace612ab4565b5b81905092915050565b600060208284031215612aee57612aed6125ff565b5b600082013567ffffffffffffffff811115612b0c57612b0b612604565b5b612b1884828501612ab9565b91505092915050565b6000612b2c82612609565b9050919050565b612b3c81612b21565b82525050565b6000602082019050612b576000830184612b33565b92915050565b612b6681612a0c565b82525050565b6000602082019050612b816000830184612b5d565b92915050565b612b9081612772565b82525050565b6000602082019050612bab6000830184612b87565b92915050565b6000612bbc82612920565b9050919050565b612bcc81612bb1565b8114612bd757600080fd5b50565b600081359050612be981612bc3565b92915050565b600060208284031215612c0557612c046125ff565b5b6000612c1384828501612bda565b91505092915050565b612c2581612920565b82525050565b6000602082019050612c406000830184612c1c565b92915050565b60048110612c5757612c5661266c565b5b50565b6000819050612c6882612c46565b919050565b6000612c7882612c5a565b9050919050565b612c8881612c6d565b82525050565b6000602082019050612ca36000830184612c7f565b92915050565b612cb2816126fe565b8114612cbd57600080fd5b50565b600081359050612ccf81612ca9565b92915050565b600060208284031215612ceb57612cea6125ff565b5b6000612cf984828501612cc0565b91505092915050565b60038110612d0f57600080fd5b50565b600081359050612d2181612d02565b92915050565b60008060008060608587031215612d4157612d406125ff565b5b6000612d4f8782880161262a565b9450506020612d6087828801612d12565b935050604085013567ffffffffffffffff811115612d8157612d80612604565b5b612d8d878288016127ba565b925092505092959194509250565b600060208284031215612db157612db06125ff565b5b6000612dbf84828501612796565b91505092915050565b600082825260208201905092915050565b82818337600083830152505050565b6000601f19601f8301169050919050565b6000612e058385612dc8565b9350612e12838584612dd9565b612e1b83612de8565b840190509392505050565b60006020820190508181036000830152612e41818486612df9565b90509392505050565b600081519050612e5981612870565b92915050565b600060208284031215612e7557612e746125ff565b5b6000612e8384828501612e4a565b91505092915050565b600080fd5b600080fd5b600080fd5b60008083356001602003843603038112612eb857612eb7612e8c565b5b80840192508235915067ffffffffffffffff821115612eda57612ed9612e91565b5b602083019250600182023603831315612ef657612ef5612e96565b5b509250929050565b60008160601b9050919050565b6000612f1682612efe565b9050919050565b6000612f2882612f0b565b9050919050565b612f40612f3b82612920565b612f1d565b82525050565b600081905092915050565b6000612f5d8385612f46565b9350612f6a838584612dd9565b82840190509392505050565b6000612f828288612f2f565b601482019150612f93828688612f51565b9150612fa0828486612f51565b91508190509695505050505050565b7f4e487b7100000000000000000000000000000000000000000000000000000000600052601160045260246000fd5b6000612fe9826129e6565b9150612ff4836129e6565b925082820390506fffffffffffffffffffffffffffffffff81111561301c5761301b612faf565b5b92915050565b7f4e487b7100000000000000000000000000000000000000000000000000000000600052600160045260246000fd5b600061305e828486612f51565b91508190509392505050565b600081519050919050565b60005b83811015613093578082015181840152602081019050613078565b60008484015250505050565b60006130aa8261306a565b6130b48185612dc8565b93506130c4818560208601613075565b6130cd81612de8565b840191505092915050565b600060208201905081810360008301526130f2818461309f565b905092915050565b7f4e487b7100000000000000000000000000000000000000000000000000000000600052601260045260246000fd5b6000613134826125cb565b915061313f836125cb565b92508261314f5761314e6130fa565b5b828204905092915050565b6000613165826125cb565b9150613170836125cb565b925082820390508181111561318857613187612faf565b5b92915050565b6000613199826126fe565b91506131a4836126fe565b9250828201905067ffffffffffffffff8111156131c4576131c3612faf565b5b92915050565b60007fffffffff0000000000000000000000000000000000000000000000000000000082169050919050565b6131ff816131ca565b82525050565b600060208201905061321a60008301846131f6565b92915050565b6132298161273c565b811461323457600080fd5b50565b60008151905061324681613220565b92915050565b600060208284031215613262576132616125ff565b5b600061327084828501613237565b91505092915050565b613282816129c5565b82525050565b600060408201905061329d6000830185613279565b6132aa6020830184613279565b9392505050565b60006020820190506132c66000830184613279565b92915050565b600081519050919050565b600082825260208201905092915050565b60006132f3826132cc565b6132fd81856132d7565b935061330d818560208601613075565b61331681612de8565b840191505092915050565b6000608082019050818103600083015261333b81876132e8565b905061334a60208301866125d5565b818103604083015261335c81856132e8565b905061336b60608301846125d5565b95945050505050565b6000604082019050818103600083015261338e81856132e8565b905061339d60208301846125d5565b9392505050565b60006133af826125cb565b91506133ba836125cb565b92508282026133c8816125cb565b915082820484148315176133df576133de612faf565b5b5092915050565b7f4e487b7100000000000000000000000000000000000000000000000000000000600052604160045260246000fd5b7f4e487b7100000000000000000000000000000000000000000000000000000000600052603260045260246000fd5b600061344f826125cb565b915061345a836125cb565b925082820190508082111561347257613471612faf565b5b92915050565b7f4e487b7100000000000000000000000000000000000000000000000000000000600052603160045260246000fd5b7f4e487b7100000000000000000000000000000000000000000000000000000000600052605160045260246000fdfea2646970667358221220625efb913fe85810df1203888db42ac8595dc855cde3b55c6b94cf749306430364736f6c63430008180033","opcodes":"PUSH1 0x80 PUSH1 0x40 MSTORE CALLVALUE DUP1 ISZERO PUSH3 0x11 JUMPI PUSH1 0x0 DUP1 REVERT JUMPDEST POP PUSH1 0x40 MLOAD PUSH3 0x3C8A CODESIZE SUB DUP1 PUSH3 0x3C8A DUP4 CODECOPY DUP2 DUP2 ADD PUSH1 0x40 MSTORE DUP2 ADD SWAP1 PUSH3 0x37 SWAP2 SWAP1 PUSH3 0x58E JUMP JUMPDEST ADDRESS PUSH1 0x0 PUSH20 0xFFFFFFFFFFFFFFFFFFFFFFFFFFFFFFFFFFFFFFFF AND DUP2 PUSH20 0xFFFFFFFFFFFFFFFFFFFFFFFFFFFFFFFFFFFFFFFF AND SUB PUSH3 0xAD JUMPI PUSH1 0x0 PUSH1 0x40 MLOAD PUSH32 0x1E4FBDF700000000000000000000000000000000000000000000000000000000 DUP2 MSTORE PUSH1 0x4 ADD PUSH3 0xA4 SWAP2 SWAP1 PUSH3 0x627 JUMP JUMPDEST PUSH1 0x40 MLOAD DUP1 SWAP2 SUB SWAP1 REVERT JUMPDEST PUSH3 0xBE DUP2 PUSH3 0x14F PUSH1 0x20 SHL PUSH1 0x20 SHR JUMP JUMPDEST POP PUSH3 0xD0 DUP6 PUSH3 0x213 PUSH1 0x20 SHL PUSH1 0x20 SHR JUMP JUMPDEST DUP4 PUSH1 0x0 PUSH1 0x14 PUSH2 0x100 EXP DUP2 SLOAD DUP2 PUSH8 0xFFFFFFFFFFFFFFFF MUL NOT AND SWAP1 DUP4 PUSH8 0xFFFFFFFFFFFFFFFF AND MUL OR SWAP1 SSTORE POP DUP3 PUSH1 0x1 PUSH1 0x0 PUSH2 0x100 EXP DUP2 SLOAD DUP2 PUSH8 0xFFFFFFFFFFFFFFFF MUL NOT AND SWAP1 DUP4 PUSH8 0xFFFFFFFFFFFFFFFF AND MUL OR SWAP1 SSTORE POP DUP2 PUSH1 0x2 DUP2 SWAP1 SSTORE POP DUP1 PUSH1 0x3 PUSH1 0x15 PUSH2 0x100 EXP DUP2 SLOAD DUP2 PUSH1 0xFF MUL NOT AND SWAP1 DUP4 PUSH1 0xFF AND MUL OR SWAP1 SSTORE POP POP POP POP POP POP PUSH3 0x76E JUMP JUMPDEST PUSH1 0x0 DUP1 PUSH1 0x0 SWAP1 SLOAD SWAP1 PUSH2 0x100 EXP SWAP1 DIV PUSH20 0xFFFFFFFFFFFFFFFFFFFFFFFFFFFFFFFFFFFFFFFF AND SWAP1 POP DUP2 PUSH1 0x0 DUP1 PUSH2 0x100 EXP DUP2 SLOAD DUP2 PUSH20 0xFFFFFFFFFFFFFFFFFFFFFFFFFFFFFFFFFFFFFFFF MUL NOT AND SWAP1 DUP4 PUSH20 0xFFFFFFFFFFFFFFFFFFFFFFFFFFFFFFFFFFFFFFFF AND MUL OR SWAP1 SSTORE POP DUP2 PUSH20 0xFFFFFFFFFFFFFFFFFFFFFFFFFFFFFFFFFFFFFFFF AND DUP2 PUSH20 0xFFFFFFFFFFFFFFFFFFFFFFFFFFFFFFFFFFFFFFFF AND PUSH32 0x8BE0079C531659141344CD1FD0A4F28419497F9722A3DAAFE3B4186F6B6457E0 PUSH1 0x40 MLOAD PUSH1 0x40 MLOAD DUP1 SWAP2 SUB SWAP1 LOG3 POP POP JUMP JUMPDEST PUSH1 0x0 DUP2 SWAP1 POP DUP2 PUSH20 0xFFFFFFFFFFFFFFFFFFFFFFFFFFFFFFFFFFFFFFFF AND PUSH4 0x1FFC9A7 PUSH32 0x58970CA800000000000000000000000000000000000000000000000000000000 PUSH1 0x40 MLOAD DUP3 PUSH4 0xFFFFFFFF AND PUSH1 0xE0 SHL DUP2 MSTORE PUSH1 0x4 ADD PUSH3 0x273 SWAP2 SWAP1 PUSH3 0x681 JUMP JUMPDEST PUSH1 0x20 PUSH1 0x40 MLOAD DUP1 DUP4 SUB DUP2 DUP7 GAS STATICCALL ISZERO DUP1 ISZERO PUSH3 0x291 JUMPI RETURNDATASIZE PUSH1 0x0 DUP1 RETURNDATACOPY RETURNDATASIZE PUSH1 0x0 REVERT JUMPDEST POP POP POP POP PUSH1 0x40 MLOAD RETURNDATASIZE PUSH1 0x1F NOT PUSH1 0x1F DUP3 ADD AND DUP3 ADD DUP1 PUSH1 0x40 MSTORE POP DUP2 ADD SWAP1 PUSH3 0x2B7 SWAP2 SWAP1 PUSH3 0x6DB JUMP JUMPDEST ISZERO PUSH3 0x2F1 JUMPI PUSH1 0x0 PUSH1 0x3 PUSH1 0x14 PUSH2 0x100 EXP DUP2 SLOAD DUP2 PUSH1 0xFF MUL NOT AND SWAP1 DUP4 PUSH1 0x1 DUP2 GT ISZERO PUSH3 0x2E6 JUMPI PUSH3 0x2E5 PUSH3 0x70D JUMP JUMPDEST JUMPDEST MUL OR SWAP1 SSTORE POP PUSH3 0x40D JUMP JUMPDEST PUSH1 0x0 DUP2 PUSH20 0xFFFFFFFFFFFFFFFFFFFFFFFFFFFFFFFFFFFFFFFF AND PUSH4 0x70A08231 ADDRESS PUSH1 0x40 MLOAD DUP3 PUSH4 0xFFFFFFFF AND PUSH1 0xE0 SHL DUP2 MSTORE PUSH1 0x4 ADD PUSH3 0x32E SWAP2 SWAP1 PUSH3 0x627 JUMP JUMPDEST PUSH1 0x20 PUSH1 0x40 MLOAD DUP1 DUP4 SUB DUP2 DUP7 GAS STATICCALL ISZERO DUP1 ISZERO PUSH3 0x34C JUMPI RETURNDATASIZE PUSH1 0x0 DUP1 RETURNDATACOPY RETURNDATASIZE PUSH1 0x0 REVERT JUMPDEST POP POP POP POP PUSH1 0x40 MLOAD RETURNDATASIZE PUSH1 0x1F NOT PUSH1 0x1F DUP3 ADD AND DUP3 ADD DUP1 PUSH1 0x40 MSTORE POP DUP2 ADD SWAP1 PUSH3 0x372 SWAP2 SWAP1 PUSH3 0x73C JUMP JUMPDEST SWAP1 POP PUSH1 0x0 DUP2 LT ISZERO DUP1 ISZERO PUSH3 0x3A6 JUMPI POP PUSH32 0xFFFFFFFFFFFFFFFFFFFFFFFFFFFFFFFFFFFFFFFFFFFFFFFFFFFFFFFFFFFFFFFF DUP2 GT ISZERO JUMPDEST PUSH3 0x3DD JUMPI PUSH1 0x40 MLOAD PUSH32 0xADD3C86F00000000000000000000000000000000000000000000000000000000 DUP2 MSTORE PUSH1 0x4 ADD PUSH1 0x40 MLOAD DUP1 SWAP2 SUB SWAP1 REVERT JUMPDEST PUSH1 0x1 PUSH1 0x3 PUSH1 0x14 PUSH2 0x100 EXP DUP2 SLOAD DUP2 PUSH1 0xFF MUL NOT AND SWAP1 DUP4 PUSH1 0x1 DUP2 GT ISZERO PUSH3 0x406 JUMPI PUSH3 0x405 PUSH3 0x70D JUMP JUMPDEST JUMPDEST MUL OR SWAP1 SSTORE POP POP JUMPDEST DUP1 PUSH1 0x3 PUSH1 0x0 PUSH2 0x100 EXP DUP2 SLOAD DUP2 PUSH20 0xFFFFFFFFFFFFFFFFFFFFFFFFFFFFFFFFFFFFFFFF MUL NOT AND SWAP1 DUP4 PUSH20 0xFFFFFFFFFFFFFFFFFFFFFFFFFFFFFFFFFFFFFFFF AND MUL OR SWAP1 SSTORE POP POP POP JUMP JUMPDEST PUSH1 0x0 DUP1 REVERT JUMPDEST PUSH1 0x0 PUSH20 0xFFFFFFFFFFFFFFFFFFFFFFFFFFFFFFFFFFFFFFFF DUP3 AND SWAP1 POP SWAP2 SWAP1 POP JUMP JUMPDEST PUSH1 0x0 PUSH3 0x484 DUP3 PUSH3 0x457 JUMP JUMPDEST SWAP1 POP SWAP2 SWAP1 POP JUMP JUMPDEST PUSH1 0x0 PUSH3 0x498 DUP3 PUSH3 0x477 JUMP JUMPDEST SWAP1 POP SWAP2 SWAP1 POP JUMP JUMPDEST PUSH3 0x4AA DUP2 PUSH3 0x48B JUMP JUMPDEST DUP2 EQ PUSH3 0x4B6 JUMPI PUSH1 0x0 DUP1 REVERT JUMPDEST POP JUMP JUMPDEST PUSH1 0x0 DUP2 MLOAD SWAP1 POP PUSH3 0x4CA DUP2 PUSH3 0x49F JUMP JUMPDEST SWAP3 SWAP2 POP POP JUMP JUMPDEST PUSH1 0x0 PUSH8 0xFFFFFFFFFFFFFFFF DUP3 AND SWAP1 POP SWAP2 SWAP1 POP JUMP JUMPDEST PUSH3 0x4EF DUP2 PUSH3 0x4D0 JUMP JUMPDEST DUP2 EQ PUSH3 0x4FB JUMPI PUSH1 0x0 DUP1 REVERT JUMPDEST POP JUMP JUMPDEST PUSH1 0x0 DUP2 MLOAD SWAP1 POP PUSH3 0x50F DUP2 PUSH3 0x4E4 JUMP JUMPDEST SWAP3 SWAP2 POP POP JUMP JUMPDEST PUSH1 0x0 DUP2 SWAP1 POP SWAP2 SWAP1 POP JUMP JUMPDEST PUSH3 0x52A DUP2 PUSH3 0x515 JUMP JUMPDEST DUP2 EQ PUSH3 0x536 JUMPI PUSH1 0x0 DUP1 REVERT JUMPDEST POP JUMP JUMPDEST PUSH1 0x0 DUP2 MLOAD SWAP1 POP PUSH3 0x54A DUP2 PUSH3 0x51F JUMP JUMPDEST SWAP3 SWAP2 POP POP JUMP JUMPDEST PUSH1 0x0 PUSH1 0xFF DUP3 AND SWAP1 POP SWAP2 SWAP1 POP JUMP JUMPDEST PUSH3 0x568 DUP2 PUSH3 0x550 JUMP JUMPDEST DUP2 EQ PUSH3 0x574 JUMPI PUSH1 0x0 DUP1 REVERT JUMPDEST POP JUMP JUMPDEST PUSH1 0x0 DUP2 MLOAD SWAP1 POP PUSH3 0x588 DUP2 PUSH3 0x55D JUMP JUMPDEST SWAP3 SWAP2 POP POP JUMP JUMPDEST PUSH1 0x0 DUP1 PUSH1 0x0 DUP1 PUSH1 0x0 PUSH1 0xA0 DUP7 DUP9 SUB SLT ISZERO PUSH3 0x5AD JUMPI PUSH3 0x5AC PUSH3 0x452 JUMP JUMPDEST JUMPDEST PUSH1 0x0 PUSH3 0x5BD DUP9 DUP3 DUP10 ADD PUSH3 0x4B9 JUMP JUMPDEST SWAP6 POP POP PUSH1 0x20 PUSH3 0x5D0 DUP9 DUP3 DUP10 ADD PUSH3 0x4FE JUMP JUMPDEST SWAP5 POP POP PUSH1 0x40 PUSH3 0x5E3 DUP9 DUP3 DUP10 ADD PUSH3 0x4FE JUMP JUMPDEST SWAP4 POP POP PUSH1 0x60 PUSH3 0x5F6 DUP9 DUP3 DUP10 ADD PUSH3 0x539 JUMP JUMPDEST SWAP3 POP POP PUSH1 0x80 PUSH3 0x609 DUP9 DUP3 DUP10 ADD PUSH3 0x577 JUMP JUMPDEST SWAP2 POP POP SWAP3 SWAP6 POP SWAP3 SWAP6 SWAP1 SWAP4 POP JUMP JUMPDEST PUSH3 0x621 DUP2 PUSH3 0x477 JUMP JUMPDEST DUP3 MSTORE POP POP JUMP JUMPDEST PUSH1 0x0 PUSH1 0x20 DUP3 ADD SWAP1 POP PUSH3 0x63E PUSH1 0x0 DUP4 ADD DUP5 PUSH3 0x616 JUMP JUMPDEST SWAP3 SWAP2 POP POP JUMP JUMPDEST PUSH1 0x0 PUSH32 0xFFFFFFFF00000000000000000000000000000000000000000000000000000000 DUP3 AND SWAP1 POP SWAP2 SWAP1 POP JUMP JUMPDEST PUSH3 0x67B DUP2 PUSH3 0x644 JUMP JUMPDEST DUP3 MSTORE POP POP JUMP JUMPDEST PUSH1 0x0 PUSH1 0x20 DUP3 ADD SWAP1 POP PUSH3 0x698 PUSH1 0x0 DUP4 ADD DUP5 PUSH3 0x670 JUMP JUMPDEST SWAP3 SWAP2 POP POP JUMP JUMPDEST PUSH1 0x0 DUP2 ISZERO ISZERO SWAP1 POP SWAP2 SWAP1 POP JUMP JUMPDEST PUSH3 0x6B5 DUP2 PUSH3 0x69E JUMP JUMPDEST DUP2 EQ PUSH3 0x6C1 JUMPI PUSH1 0x0 DUP1 REVERT JUMPDEST POP JUMP JUMPDEST PUSH1 0x0 DUP2 MLOAD SWAP1 POP PUSH3 0x6D5 DUP2 PUSH3 0x6AA JUMP JUMPDEST SWAP3 SWAP2 POP POP JUMP JUMPDEST PUSH1 0x0 PUSH1 0x20 DUP3 DUP5 SUB SLT ISZERO PUSH3 0x6F4 JUMPI PUSH3 0x6F3 PUSH3 0x452 JUMP JUMPDEST JUMPDEST PUSH1 0x0 PUSH3 0x704 DUP5 DUP3 DUP6 ADD PUSH3 0x6C4 JUMP JUMPDEST SWAP2 POP POP SWAP3 SWAP2 POP POP JUMP JUMPDEST PUSH32 0x4E487B7100000000000000000000000000000000000000000000000000000000 PUSH1 0x0 MSTORE PUSH1 0x21 PUSH1 0x4 MSTORE PUSH1 0x24 PUSH1 0x0 REVERT JUMPDEST PUSH1 0x0 PUSH1 0x20 DUP3 DUP5 SUB SLT ISZERO PUSH3 0x755 JUMPI PUSH3 0x754 PUSH3 0x452 JUMP JUMPDEST JUMPDEST PUSH1 0x0 PUSH3 0x765 DUP5 DUP3 DUP6 ADD PUSH3 0x539 JUMP JUMPDEST SWAP2 POP POP SWAP3 SWAP2 POP POP JUMP JUMPDEST PUSH2 0x350C DUP1 PUSH3 0x77E PUSH1 0x0 CODECOPY PUSH1 0x0 RETURN INVALID PUSH1 0x80 PUSH1 0x40 MSTORE CALLVALUE DUP1 ISZERO PUSH2 0x10 JUMPI PUSH1 0x0 DUP1 REVERT JUMPDEST POP PUSH1 0x4 CALLDATASIZE LT PUSH2 0x1DA JUMPI PUSH1 0x0 CALLDATALOAD PUSH1 0xE0 SHR DUP1 PUSH4 0x87C5CBBB GT PUSH2 0x104 JUMPI DUP1 PUSH4 0xCB156A4A GT PUSH2 0xA2 JUMPI DUP1 PUSH4 0xD8CF3528 GT PUSH2 0x71 JUMPI DUP1 PUSH4 0xD8CF3528 EQ PUSH2 0x5A3 JUMPI DUP1 PUSH4 0xE89075C7 EQ PUSH2 0x5D3 JUMPI DUP1 PUSH4 0xF2FDE38B EQ PUSH2 0x5EF JUMPI DUP1 PUSH4 0xFD165A73 EQ PUSH2 0x60B JUMPI PUSH2 0x1DA JUMP JUMPDEST DUP1 PUSH4 0xCB156A4A EQ PUSH2 0x51D JUMPI DUP1 PUSH4 0xCE5B3B39 EQ PUSH2 0x53B JUMPI DUP1 PUSH4 0xCEDD3A0E EQ PUSH2 0x557 JUMPI DUP1 PUSH4 0xD50B2843 EQ PUSH2 0x587 JUMPI PUSH2 0x1DA JUMP JUMPDEST DUP1 PUSH4 0x99882CDB GT PUSH2 0xDE JUMPI DUP1 PUSH4 0x99882CDB EQ PUSH2 0x497 JUMPI DUP1 PUSH4 0xAE844F74 EQ PUSH2 0x4B3 JUMPI DUP1 PUSH4 0xBD5AB94F EQ PUSH2 0x4E3 JUMPI DUP1 PUSH4 0xBE142264 EQ PUSH2 0x4FF JUMPI PUSH2 0x1DA JUMP JUMPDEST DUP1 PUSH4 0x87C5CBBB EQ PUSH2 0x43F JUMPI DUP1 PUSH4 0x8C7ECF8D EQ PUSH2 0x45D JUMPI DUP1 PUSH4 0x8DA5CB5B EQ PUSH2 0x479 JUMPI PUSH2 0x1DA JUMP JUMPDEST DUP1 PUSH4 0x32ED5B12 GT PUSH2 0x17C JUMPI DUP1 PUSH4 0x58970CA8 GT PUSH2 0x14B JUMPI DUP1 PUSH4 0x58970CA8 EQ PUSH2 0x3A5 JUMPI DUP1 PUSH4 0x5B4654A9 EQ PUSH2 0x3D5 JUMPI DUP1 PUSH4 0x715018A6 EQ PUSH2 0x405 JUMPI DUP1 PUSH4 0x7FB8B61E EQ PUSH2 0x40F JUMPI PUSH2 0x1DA JUMP JUMPDEST DUP1 PUSH4 0x32ED5B12 EQ PUSH2 0x2E3 JUMPI DUP1 PUSH4 0x40A27ABC EQ PUSH2 0x315 JUMPI DUP1 PUSH4 0x4410A944 EQ PUSH2 0x345 JUMPI DUP1 PUSH4 0x4CC74011 EQ PUSH2 0x375 JUMPI PUSH2 0x1DA JUMP JUMPDEST DUP1 PUSH4 0x12007FC9 GT PUSH2 0x1B8 JUMPI DUP1 PUSH4 0x12007FC9 EQ PUSH2 0x24B JUMPI DUP1 PUSH4 0x141D51CB EQ PUSH2 0x27B JUMPI DUP1 PUSH4 0x20CEA51A EQ PUSH2 0x297 JUMPI DUP1 PUSH4 0x272D16F2 EQ PUSH2 0x2B3 JUMPI PUSH2 0x1DA JUMP JUMPDEST DUP1 PUSH4 0xC2EE55E EQ PUSH2 0x1DF JUMPI DUP1 PUSH4 0xCFE734D EQ PUSH2 0x1FD JUMPI DUP1 PUSH4 0xEE572FD EQ PUSH2 0x22D JUMPI JUMPDEST PUSH1 0x0 DUP1 REVERT JUMPDEST PUSH2 0x1E7 PUSH2 0x63B JUMP JUMPDEST PUSH1 0x40 MLOAD PUSH2 0x1F4 SWAP2 SWAP1 PUSH2 0x25E4 JUMP JUMPDEST PUSH1 0x40 MLOAD DUP1 SWAP2 SUB SWAP1 RETURN JUMPDEST PUSH2 0x217 PUSH1 0x4 DUP1 CALLDATASIZE SUB DUP2 ADD SWAP1 PUSH2 0x212 SWAP2 SWAP1 PUSH2 0x263F JUMP JUMPDEST PUSH2 0x641 JUMP JUMPDEST PUSH1 0x40 MLOAD PUSH2 0x224 SWAP2 SWAP1 PUSH2 0x26E3 JUMP JUMPDEST PUSH1 0x40 MLOAD DUP1 SWAP2 SUB SWAP1 RETURN JUMPDEST PUSH2 0x235 PUSH2 0x660 JUMP JUMPDEST PUSH1 0x40 MLOAD PUSH2 0x242 SWAP2 SWAP1 PUSH2 0x2721 JUMP JUMPDEST PUSH1 0x40 MLOAD DUP1 SWAP2 SUB SWAP1 RETURN JUMPDEST PUSH2 0x265 PUSH1 0x4 DUP1 CALLDATASIZE SUB DUP2 ADD SWAP1 PUSH2 0x260 SWAP2 SWAP1 PUSH2 0x263F JUMP JUMPDEST PUSH2 0x67A JUMP JUMPDEST PUSH1 0x40 MLOAD PUSH2 0x272 SWAP2 SWAP1 PUSH2 0x2757 JUMP JUMPDEST PUSH1 0x40 MLOAD DUP1 SWAP2 SUB SWAP1 RETURN JUMPDEST PUSH2 0x295 PUSH1 0x4 DUP1 CALLDATASIZE SUB DUP2 ADD SWAP1 PUSH2 0x290 SWAP2 SWAP1 PUSH2 0x2810 JUMP JUMPDEST PUSH2 0x699 JUMP JUMPDEST STOP JUMPDEST PUSH2 0x2B1 PUSH1 0x4 DUP1 CALLDATASIZE SUB DUP2 ADD SWAP1 PUSH2 0x2AC SWAP2 SWAP1 PUSH2 0x289C JUMP JUMPDEST PUSH2 0x6E3 JUMP JUMPDEST STOP JUMPDEST PUSH2 0x2CD PUSH1 0x4 DUP1 CALLDATASIZE SUB DUP2 ADD SWAP1 PUSH2 0x2C8 SWAP2 SWAP1 PUSH2 0x263F JUMP JUMPDEST PUSH2 0x6F5 JUMP JUMPDEST PUSH1 0x40 MLOAD PUSH2 0x2DA SWAP2 SWAP1 PUSH2 0x2757 JUMP JUMPDEST PUSH1 0x40 MLOAD DUP1 SWAP2 SUB SWAP1 RETURN JUMPDEST PUSH2 0x2FD PUSH1 0x4 DUP1 CALLDATASIZE SUB DUP2 ADD SWAP1 PUSH2 0x2F8 SWAP2 SWAP1 PUSH2 0x263F JUMP JUMPDEST PUSH2 0x714 JUMP JUMPDEST PUSH1 0x40 MLOAD PUSH2 0x30C SWAP4 SWAP3 SWAP2 SWAP1 PUSH2 0x28C9 JUMP JUMPDEST PUSH1 0x40 MLOAD DUP1 SWAP2 SUB SWAP1 RETURN JUMPDEST PUSH2 0x32F PUSH1 0x4 DUP1 CALLDATASIZE SUB DUP2 ADD SWAP1 PUSH2 0x32A SWAP2 SWAP1 PUSH2 0x263F JUMP JUMPDEST PUSH2 0x73E JUMP JUMPDEST PUSH1 0x40 MLOAD PUSH2 0x33C SWAP2 SWAP1 PUSH2 0x2757 JUMP JUMPDEST PUSH1 0x40 MLOAD DUP1 SWAP2 SUB SWAP1 RETURN JUMPDEST PUSH2 0x35F PUSH1 0x4 DUP1 CALLDATASIZE SUB DUP2 ADD SWAP1 PUSH2 0x35A SWAP2 SWAP1 PUSH2 0x263F JUMP JUMPDEST PUSH2 0x75D JUMP JUMPDEST PUSH1 0x40 MLOAD PUSH2 0x36C SWAP2 SWAP1 PUSH2 0x2757 JUMP JUMPDEST PUSH1 0x40 MLOAD DUP1 SWAP2 SUB SWAP1 RETURN JUMPDEST PUSH2 0x38F PUSH1 0x4 DUP1 CALLDATASIZE SUB DUP2 ADD SWAP1 PUSH2 0x38A SWAP2 SWAP1 PUSH2 0x295E JUMP JUMPDEST PUSH2 0x786 JUMP JUMPDEST PUSH1 0x40 MLOAD PUSH2 0x39C SWAP2 SWAP1 PUSH2 0x2A6C JUMP JUMPDEST PUSH1 0x40 MLOAD DUP1 SWAP2 SUB SWAP1 RETURN JUMPDEST PUSH2 0x3BF PUSH1 0x4 DUP1 CALLDATASIZE SUB DUP2 ADD SWAP1 PUSH2 0x3BA SWAP2 SWAP1 PUSH2 0x2A87 JUMP JUMPDEST PUSH2 0x7E4 JUMP JUMPDEST PUSH1 0x40 MLOAD PUSH2 0x3CC SWAP2 SWAP1 PUSH2 0x25E4 JUMP JUMPDEST PUSH1 0x40 MLOAD DUP1 SWAP2 SUB SWAP1 RETURN JUMPDEST PUSH2 0x3EF PUSH1 0x4 DUP1 CALLDATASIZE SUB DUP2 ADD SWAP1 PUSH2 0x3EA SWAP2 SWAP1 PUSH2 0x2AD8 JUMP JUMPDEST PUSH2 0x967 JUMP JUMPDEST PUSH1 0x40 MLOAD PUSH2 0x3FC SWAP2 SWAP1 PUSH2 0x2B42 JUMP JUMPDEST PUSH1 0x40 MLOAD DUP1 SWAP2 SUB SWAP1 RETURN JUMPDEST PUSH2 0x40D PUSH2 0x9D2 JUMP JUMPDEST STOP JUMPDEST PUSH2 0x429 PUSH1 0x4 DUP1 CALLDATASIZE SUB DUP2 ADD SWAP1 PUSH2 0x424 SWAP2 SWAP1 PUSH2 0x2A87 JUMP JUMPDEST PUSH2 0x9E6 JUMP JUMPDEST PUSH1 0x40 MLOAD PUSH2 0x436 SWAP2 SWAP1 PUSH2 0x2B6C JUMP JUMPDEST PUSH1 0x40 MLOAD DUP1 SWAP2 SUB SWAP1 RETURN JUMPDEST PUSH2 0x447 PUSH2 0xA3A JUMP JUMPDEST PUSH1 0x40 MLOAD PUSH2 0x454 SWAP2 SWAP1 PUSH2 0x2B96 JUMP JUMPDEST PUSH1 0x40 MLOAD DUP1 SWAP2 SUB SWAP1 RETURN JUMPDEST PUSH2 0x477 PUSH1 0x4 DUP1 CALLDATASIZE SUB DUP2 ADD SWAP1 PUSH2 0x472 SWAP2 SWAP1 PUSH2 0x2BEF JUMP JUMPDEST PUSH2 0xA4D JUMP JUMPDEST STOP JUMPDEST PUSH2 0x481 PUSH2 0xA61 JUMP JUMPDEST PUSH1 0x40 MLOAD PUSH2 0x48E SWAP2 SWAP1 PUSH2 0x2C2B JUMP JUMPDEST PUSH1 0x40 MLOAD DUP1 SWAP2 SUB SWAP1 RETURN JUMPDEST PUSH2 0x4B1 PUSH1 0x4 DUP1 CALLDATASIZE SUB DUP2 ADD SWAP1 PUSH2 0x4AC SWAP2 SWAP1 PUSH2 0x263F JUMP JUMPDEST PUSH2 0xA8A JUMP JUMPDEST STOP JUMPDEST PUSH2 0x4CD PUSH1 0x4 DUP1 CALLDATASIZE SUB DUP2 ADD SWAP1 PUSH2 0x4C8 SWAP2 SWAP1 PUSH2 0x263F JUMP JUMPDEST PUSH2 0xAEF JUMP JUMPDEST PUSH1 0x40 MLOAD PUSH2 0x4DA SWAP2 SWAP1 PUSH2 0x2C8E JUMP JUMPDEST PUSH1 0x40 MLOAD DUP1 SWAP2 SUB SWAP1 RETURN JUMPDEST PUSH2 0x4FD PUSH1 0x4 DUP1 CALLDATASIZE SUB DUP2 ADD SWAP1 PUSH2 0x4F8 SWAP2 SWAP1 PUSH2 0x2CD5 JUMP JUMPDEST PUSH2 0xBB2 JUMP JUMPDEST STOP JUMPDEST PUSH2 0x507 PUSH2 0xBE6 JUMP JUMPDEST PUSH1 0x40 MLOAD PUSH2 0x514 SWAP2 SWAP1 PUSH2 0x2C2B JUMP JUMPDEST PUSH1 0x40 MLOAD DUP1 SWAP2 SUB SWAP1 RETURN JUMPDEST PUSH2 0x525 PUSH2 0xC0C JUMP JUMPDEST PUSH1 0x40 MLOAD PUSH2 0x532 SWAP2 SWAP1 PUSH2 0x2721 JUMP JUMPDEST PUSH1 0x40 MLOAD DUP1 SWAP2 SUB SWAP1 RETURN JUMPDEST PUSH2 0x555 PUSH1 0x4 DUP1 CALLDATASIZE SUB DUP2 ADD SWAP1 PUSH2 0x550 SWAP2 SWAP1 PUSH2 0x2CD5 JUMP JUMPDEST PUSH2 0xC26 JUMP JUMPDEST STOP JUMPDEST PUSH2 0x571 PUSH1 0x4 DUP1 CALLDATASIZE SUB DUP2 ADD SWAP1 PUSH2 0x56C SWAP2 SWAP1 PUSH2 0x263F JUMP JUMPDEST PUSH2 0xC5A JUMP JUMPDEST PUSH1 0x40 MLOAD PUSH2 0x57E SWAP2 SWAP1 PUSH2 0x2757 JUMP JUMPDEST PUSH1 0x40 MLOAD DUP1 SWAP2 SUB SWAP1 RETURN JUMPDEST PUSH2 0x5A1 PUSH1 0x4 DUP1 CALLDATASIZE SUB DUP2 ADD SWAP1 PUSH2 0x59C SWAP2 SWAP1 PUSH2 0x2D27 JUMP JUMPDEST PUSH2 0xC83 JUMP JUMPDEST STOP JUMPDEST PUSH2 0x5BD PUSH1 0x4 DUP1 CALLDATASIZE SUB DUP2 ADD SWAP1 PUSH2 0x5B8 SWAP2 SWAP1 PUSH2 0x263F JUMP JUMPDEST PUSH2 0xCC4 JUMP JUMPDEST PUSH1 0x40 MLOAD PUSH2 0x5CA SWAP2 SWAP1 PUSH2 0x2757 JUMP JUMPDEST PUSH1 0x40 MLOAD DUP1 SWAP2 SUB SWAP1 RETURN JUMPDEST PUSH2 0x5ED PUSH1 0x4 DUP1 CALLDATASIZE SUB DUP2 ADD SWAP1 PUSH2 0x5E8 SWAP2 SWAP1 PUSH2 0x2D9B JUMP JUMPDEST PUSH2 0xCE3 JUMP JUMPDEST STOP JUMPDEST PUSH2 0x609 PUSH1 0x4 DUP1 CALLDATASIZE SUB DUP2 ADD SWAP1 PUSH2 0x604 SWAP2 SWAP1 PUSH2 0x2A87 JUMP JUMPDEST PUSH2 0xD09 JUMP JUMPDEST STOP JUMPDEST PUSH2 0x625 PUSH1 0x4 DUP1 CALLDATASIZE SUB DUP2 ADD SWAP1 PUSH2 0x620 SWAP2 SWAP1 PUSH2 0x2AD8 JUMP JUMPDEST PUSH2 0xD8F JUMP JUMPDEST PUSH1 0x40 MLOAD PUSH2 0x632 SWAP2 SWAP1 PUSH2 0x2757 JUMP JUMPDEST PUSH1 0x40 MLOAD DUP1 SWAP2 SUB SWAP1 RETURN JUMPDEST PUSH1 0x2 SLOAD DUP2 JUMP JUMPDEST PUSH1 0x0 DUP1 PUSH2 0x64D DUP4 PUSH2 0x105F JUMP JUMPDEST SWAP1 POP PUSH2 0x658 DUP2 PUSH2 0x10BF JUMP JUMPDEST SWAP2 POP POP SWAP2 SWAP1 POP JUMP JUMPDEST PUSH1 0x1 PUSH1 0x0 SWAP1 SLOAD SWAP1 PUSH2 0x100 EXP SWAP1 DIV PUSH8 0xFFFFFFFFFFFFFFFF AND DUP2 JUMP JUMPDEST PUSH1 0x0 DUP1 PUSH2 0x686 DUP4 PUSH2 0x105F JUMP JUMPDEST SWAP1 POP PUSH2 0x691 DUP2 PUSH2 0x110C JUMP JUMPDEST SWAP2 POP POP SWAP2 SWAP1 POP JUMP JUMPDEST PUSH2 0x6A1 PUSH2 0x114C JUMP JUMPDEST DUP3 PUSH1 0xFF AND PUSH32 0x294D62780E868235E85AEE4277A92857D52A196987E2A5BBB9FFFE4F08B4567A DUP4 DUP4 PUSH1 0x40 MLOAD PUSH2 0x6D6 SWAP3 SWAP2 SWAP1 PUSH2 0x2E26 JUMP JUMPDEST PUSH1 0x40 MLOAD DUP1 SWAP2 SUB SWAP1 LOG2 POP POP POP JUMP JUMPDEST PUSH2 0x6EB PUSH2 0x114C JUMP JUMPDEST DUP1 PUSH1 0x2 DUP2 SWAP1 SSTORE POP POP JUMP JUMPDEST PUSH1 0x0 DUP1 PUSH2 0x701 DUP4 PUSH2 0x105F JUMP JUMPDEST SWAP1 POP PUSH2 0x70C DUP2 PUSH2 0x11D3 JUMP JUMPDEST SWAP2 POP POP SWAP2 SWAP1 POP JUMP JUMPDEST PUSH1 0x4 PUSH1 0x20 MSTORE DUP1 PUSH1 0x0 MSTORE PUSH1 0x40 PUSH1 0x0 KECCAK256 PUSH1 0x0 SWAP2 POP SWAP1 POP DUP1 PUSH1 0x0 ADD SLOAD SWAP1 DUP1 PUSH1 0x1 ADD SLOAD SWAP1 DUP1 PUSH1 0x2 ADD SLOAD SWAP1 POP DUP4 JUMP JUMPDEST PUSH1 0x0 DUP1 PUSH2 0x74A DUP4 PUSH2 0x105F JUMP JUMPDEST SWAP1 POP PUSH2 0x755 DUP2 PUSH2 0x1260 JUMP JUMPDEST SWAP2 POP POP SWAP2 SWAP1 POP JUMP JUMPDEST PUSH1 0x0 DUP1 PUSH1 0x4 PUSH1 0x0 DUP5 DUP2 MSTORE PUSH1 0x20 ADD SWAP1 DUP2 MSTORE PUSH1 0x20 ADD PUSH1 0x0 KECCAK256 SWAP1 POP PUSH2 0x77E DUP2 PUSH2 0x12CD JUMP JUMPDEST SWAP2 POP POP SWAP2 SWAP1 POP JUMP JUMPDEST PUSH2 0x78E PUSH2 0x2583 JUMP JUMPDEST PUSH1 0x0 PUSH1 0x5 PUSH1 0x0 DUP5 PUSH20 0xFFFFFFFFFFFFFFFFFFFFFFFFFFFFFFFFFFFFFFFF AND PUSH20 0xFFFFFFFFFFFFFFFFFFFFFFFFFFFFFFFFFFFFFFFF AND DUP2 MSTORE PUSH1 0x20 ADD SWAP1 DUP2 MSTORE PUSH1 0x20 ADD PUSH1 0x0 KECCAK256 SWAP1 POP PUSH2 0x7DB DUP2 DUP6 PUSH2 0x12DE JUMP JUMPDEST SWAP2 POP POP SWAP3 SWAP2 POP POP JUMP JUMPDEST PUSH1 0x0 DUP1 PUSH1 0x1 DUP2 GT ISZERO PUSH2 0x7F9 JUMPI PUSH2 0x7F8 PUSH2 0x266C JUMP JUMPDEST JUMPDEST PUSH1 0x3 PUSH1 0x14 SWAP1 SLOAD SWAP1 PUSH2 0x100 EXP SWAP1 DIV PUSH1 0xFF AND PUSH1 0x1 DUP2 GT ISZERO PUSH2 0x81B JUMPI PUSH2 0x81A PUSH2 0x266C JUMP JUMPDEST JUMPDEST SUB PUSH2 0x8C3 JUMPI PUSH1 0x3 PUSH1 0x0 SWAP1 SLOAD SWAP1 PUSH2 0x100 EXP SWAP1 DIV PUSH20 0xFFFFFFFFFFFFFFFFFFFFFFFFFFFFFFFFFFFFFFFF AND PUSH20 0xFFFFFFFFFFFFFFFFFFFFFFFFFFFFFFFFFFFFFFFF AND PUSH4 0x58970CA8 DUP4 PUSH1 0x40 MLOAD DUP3 PUSH4 0xFFFFFFFF AND PUSH1 0xE0 SHL DUP2 MSTORE PUSH1 0x4 ADD PUSH2 0x87B SWAP2 SWAP1 PUSH2 0x2C2B JUMP JUMPDEST PUSH1 0x20 PUSH1 0x40 MLOAD DUP1 DUP4 SUB DUP2 DUP7 GAS STATICCALL ISZERO DUP1 ISZERO PUSH2 0x898 JUMPI RETURNDATASIZE PUSH1 0x0 DUP1 RETURNDATACOPY RETURNDATASIZE PUSH1 0x0 REVERT JUMPDEST POP POP POP POP PUSH1 0x40 MLOAD RETURNDATASIZE PUSH1 0x1F NOT PUSH1 0x1F DUP3 ADD AND DUP3 ADD DUP1 PUSH1 0x40 MSTORE POP DUP2 ADD SWAP1 PUSH2 0x8BC SWAP2 SWAP1 PUSH2 0x2E5F JUMP JUMPDEST SWAP1 POP PUSH2 0x962 JUMP JUMPDEST PUSH1 0x3 PUSH1 0x0 SWAP1 SLOAD SWAP1 PUSH2 0x100 EXP SWAP1 DIV PUSH20 0xFFFFFFFFFFFFFFFFFFFFFFFFFFFFFFFFFFFFFFFF AND PUSH20 0xFFFFFFFFFFFFFFFFFFFFFFFFFFFFFFFFFFFFFFFF AND PUSH4 0x70A08231 DUP4 PUSH1 0x40 MLOAD DUP3 PUSH4 0xFFFFFFFF AND PUSH1 0xE0 SHL DUP2 MSTORE PUSH1 0x4 ADD PUSH2 0x91E SWAP2 SWAP1 PUSH2 0x2C2B JUMP JUMPDEST PUSH1 0x20 PUSH1 0x40 MLOAD DUP1 DUP4 SUB DUP2 DUP7 GAS STATICCALL ISZERO DUP1 ISZERO PUSH2 0x93B JUMPI RETURNDATASIZE PUSH1 0x0 DUP1 RETURNDATACOPY RETURNDATASIZE PUSH1 0x0 REVERT JUMPDEST POP POP POP POP PUSH1 0x40 MLOAD RETURNDATASIZE PUSH1 0x1F NOT PUSH1 0x1F DUP3 ADD AND DUP3 ADD DUP1 PUSH1 0x40 MSTORE POP DUP2 ADD SWAP1 PUSH2 0x95F SWAP2 SWAP1 PUSH2 0x2E5F JUMP JUMPDEST SWAP1 POP JUMPDEST SWAP2 SWAP1 POP JUMP JUMPDEST PUSH1 0x0 DUP1 DUP3 PUSH1 0x0 ADD PUSH1 0x20 DUP2 ADD SWAP1 PUSH2 0x97D SWAP2 SWAP1 PUSH2 0x2A87 JUMP JUMPDEST DUP4 DUP1 PUSH1 0x20 ADD SWAP1 PUSH2 0x98D SWAP2 SWAP1 PUSH2 0x2E9B JUMP JUMPDEST DUP6 DUP1 PUSH1 0x40 ADD SWAP1 PUSH2 0x99D SWAP2 SWAP1 PUSH2 0x2E9B JUMP JUMPDEST PUSH1 0x40 MLOAD PUSH1 0x20 ADD PUSH2 0x9B1 SWAP6 SWAP5 SWAP4 SWAP3 SWAP2 SWAP1 PUSH2 0x2F76 JUMP JUMPDEST PUSH1 0x40 MLOAD PUSH1 0x20 DUP2 DUP4 SUB SUB DUP2 MSTORE SWAP1 PUSH1 0x40 MSTORE SWAP1 POP DUP1 DUP1 MLOAD SWAP1 PUSH1 0x20 ADD KECCAK256 SWAP2 POP POP SWAP2 SWAP1 POP JUMP JUMPDEST PUSH2 0x9DA PUSH2 0x114C JUMP JUMPDEST PUSH2 0x9E4 PUSH1 0x0 PUSH2 0x135D JUMP JUMPDEST JUMP JUMPDEST PUSH1 0x0 DUP1 PUSH2 0x9F2 DUP4 PUSH2 0x7E4 JUMP JUMPDEST SWAP1 POP PUSH1 0x0 PUSH2 0xA2E DUP3 PUSH1 0x1 PUSH16 0xFFFFFFFFFFFFFFFFFFFFFFFFFFFFFFFF PUSH2 0xA17 SWAP2 SWAP1 PUSH2 0x2FDE JUMP JUMPDEST PUSH16 0xFFFFFFFFFFFFFFFFFFFFFFFFFFFFFFFF AND PUSH2 0x1421 JUMP JUMPDEST SWAP1 POP DUP1 SWAP3 POP POP POP SWAP2 SWAP1 POP JUMP JUMPDEST PUSH1 0x3 PUSH1 0x15 SWAP1 SLOAD SWAP1 PUSH2 0x100 EXP SWAP1 DIV PUSH1 0xFF AND DUP2 JUMP JUMPDEST PUSH2 0xA55 PUSH2 0x114C JUMP JUMPDEST PUSH2 0xA5E DUP2 PUSH2 0x143A JUMP JUMPDEST POP JUMP JUMPDEST PUSH1 0x0 DUP1 PUSH1 0x0 SWAP1 SLOAD SWAP1 PUSH2 0x100 EXP SWAP1 DIV PUSH20 0xFFFFFFFFFFFFFFFFFFFFFFFFFFFFFFFFFFFFFFFF AND SWAP1 POP SWAP1 JUMP JUMPDEST PUSH1 0x0 PUSH1 0x4 PUSH1 0x0 DUP4 DUP2 MSTORE PUSH1 0x20 ADD SWAP1 DUP2 MSTORE PUSH1 0x20 ADD PUSH1 0x0 KECCAK256 SWAP1 POP PUSH2 0xAAA DUP2 PUSH2 0x12CD JUMP JUMPDEST ISZERO PUSH2 0xAE1 JUMPI PUSH1 0x40 MLOAD PUSH32 0xB8C39E6200000000000000000000000000000000000000000000000000000000 DUP2 MSTORE PUSH1 0x4 ADD PUSH1 0x40 MLOAD DUP1 SWAP2 SUB SWAP1 REVERT JUMPDEST PUSH2 0xAEB DUP3 DUP3 PUSH2 0x1665 JUMP JUMPDEST POP POP JUMP JUMPDEST PUSH1 0x0 DUP1 PUSH2 0xAFB DUP4 PUSH2 0x105F JUMP JUMPDEST SWAP1 POP PUSH1 0x0 PUSH2 0xB08 DUP3 PUSH2 0x10BF JUMP JUMPDEST SWAP1 POP PUSH1 0x3 DUP1 DUP2 GT ISZERO PUSH2 0xB1D JUMPI PUSH2 0xB1C PUSH2 0x266C JUMP JUMPDEST JUMPDEST DUP2 PUSH1 0x3 DUP2 GT ISZERO PUSH2 0xB30 JUMPI PUSH2 0xB2F PUSH2 0x266C JUMP JUMPDEST JUMPDEST SUB PUSH2 0xB40 JUMPI PUSH1 0x3 SWAP3 POP POP POP PUSH2 0xBAD JUMP JUMPDEST PUSH1 0x2 PUSH1 0x3 DUP2 GT ISZERO PUSH2 0xB54 JUMPI PUSH2 0xB53 PUSH2 0x266C JUMP JUMPDEST JUMPDEST DUP2 PUSH1 0x3 DUP2 GT ISZERO PUSH2 0xB67 JUMPI PUSH2 0xB66 PUSH2 0x266C JUMP JUMPDEST JUMPDEST SUB PUSH2 0xB77 JUMPI PUSH1 0x2 SWAP3 POP POP POP PUSH2 0xBAD JUMP JUMPDEST PUSH2 0xB80 DUP3 PUSH2 0x110C JUMP JUMPDEST ISZERO PUSH2 0xB90 JUMPI PUSH1 0x0 SWAP3 POP POP POP PUSH2 0xBAD JUMP JUMPDEST PUSH2 0xB99 DUP3 PUSH2 0x11D3 JUMP JUMPDEST PUSH2 0xBA6 JUMPI PUSH2 0xBA5 PUSH2 0x3022 JUMP JUMPDEST JUMPDEST PUSH1 0x1 SWAP3 POP POP POP JUMPDEST SWAP2 SWAP1 POP JUMP JUMPDEST PUSH2 0xBBA PUSH2 0x114C JUMP JUMPDEST DUP1 PUSH1 0x0 PUSH1 0x14 PUSH2 0x100 EXP DUP2 SLOAD DUP2 PUSH8 0xFFFFFFFFFFFFFFFF MUL NOT AND SWAP1 DUP4 PUSH8 0xFFFFFFFFFFFFFFFF AND MUL OR SWAP1 SSTORE POP POP JUMP JUMPDEST PUSH1 0x3 PUSH1 0x0 SWAP1 SLOAD SWAP1 PUSH2 0x100 EXP SWAP1 DIV PUSH20 0xFFFFFFFFFFFFFFFFFFFFFFFFFFFFFFFFFFFFFFFF AND DUP2 JUMP JUMPDEST PUSH1 0x0 PUSH1 0x14 SWAP1 SLOAD SWAP1 PUSH2 0x100 EXP SWAP1 DIV PUSH8 0xFFFFFFFFFFFFFFFF AND DUP2 JUMP JUMPDEST PUSH2 0xC2E PUSH2 0x114C JUMP JUMPDEST DUP1 PUSH1 0x1 PUSH1 0x0 PUSH2 0x100 EXP DUP2 SLOAD DUP2 PUSH8 0xFFFFFFFFFFFFFFFF MUL NOT AND SWAP1 DUP4 PUSH8 0xFFFFFFFFFFFFFFFF AND MUL OR SWAP1 SSTORE POP POP JUMP JUMPDEST PUSH1 0x0 DUP1 PUSH1 0x4 PUSH1 0x0 DUP5 DUP2 MSTORE PUSH1 0x20 ADD SWAP1 DUP2 MSTORE PUSH1 0x20 ADD PUSH1 0x0 KECCAK256 SWAP1 POP PUSH2 0xC7B DUP2 PUSH2 0x16C4 JUMP JUMPDEST SWAP2 POP POP SWAP2 SWAP1 POP JUMP JUMPDEST PUSH1 0x0 PUSH1 0x4 PUSH1 0x0 DUP7 DUP2 MSTORE PUSH1 0x20 ADD SWAP1 DUP2 MSTORE PUSH1 0x20 ADD PUSH1 0x0 KECCAK256 SWAP1 POP PUSH2 0xCA3 DUP2 PUSH2 0x12CD JUMP JUMPDEST PUSH2 0xCB2 JUMPI PUSH2 0xCB1 DUP6 DUP3 PUSH2 0x1665 JUMP JUMPDEST JUMPDEST PUSH2 0xCBD DUP2 DUP7 DUP7 PUSH2 0x1713 JUMP JUMPDEST POP POP POP POP POP JUMP JUMPDEST PUSH1 0x0 DUP1 PUSH2 0xCD0 DUP4 PUSH2 0x105F JUMP JUMPDEST SWAP1 POP PUSH2 0xCDB DUP2 PUSH2 0x1A4A JUMP JUMPDEST SWAP2 POP POP SWAP2 SWAP1 POP JUMP JUMPDEST PUSH2 0xCEB PUSH2 0x114C JUMP JUMPDEST DUP1 PUSH1 0x3 PUSH1 0x15 PUSH2 0x100 EXP DUP2 SLOAD DUP2 PUSH1 0xFF MUL NOT AND SWAP1 DUP4 PUSH1 0xFF AND MUL OR SWAP1 SSTORE POP POP JUMP JUMPDEST PUSH2 0xD11 PUSH2 0x114C JUMP JUMPDEST PUSH1 0x0 PUSH20 0xFFFFFFFFFFFFFFFFFFFFFFFFFFFFFFFFFFFFFFFF AND DUP2 PUSH20 0xFFFFFFFFFFFFFFFFFFFFFFFFFFFFFFFFFFFFFFFF AND SUB PUSH2 0xD83 JUMPI PUSH1 0x0 PUSH1 0x40 MLOAD PUSH32 0x1E4FBDF700000000000000000000000000000000000000000000000000000000 DUP2 MSTORE PUSH1 0x4 ADD PUSH2 0xD7A SWAP2 SWAP1 PUSH2 0x2C2B JUMP JUMPDEST PUSH1 0x40 MLOAD DUP1 SWAP2 SUB SWAP1 REVERT JUMPDEST PUSH2 0xD8C DUP2 PUSH2 0x135D JUMP JUMPDEST POP JUMP JUMPDEST PUSH1 0x0 DUP1 PUSH2 0xD9B DUP4 PUSH2 0x967 JUMP JUMPDEST SWAP1 POP PUSH1 0x0 PUSH2 0xDA8 DUP3 PUSH2 0x105F JUMP JUMPDEST SWAP1 POP PUSH1 0x2 PUSH1 0x3 DUP2 GT ISZERO PUSH2 0xDBE JUMPI PUSH2 0xDBD PUSH2 0x266C JUMP JUMPDEST JUMPDEST PUSH2 0xDC7 DUP3 PUSH2 0x10BF JUMP JUMPDEST PUSH1 0x3 DUP2 GT ISZERO PUSH2 0xDD9 JUMPI PUSH2 0xDD8 PUSH2 0x266C JUMP JUMPDEST JUMPDEST EQ PUSH2 0xE10 JUMPI PUSH1 0x40 MLOAD PUSH32 0xC8C93BA300000000000000000000000000000000000000000000000000000000 DUP2 MSTORE PUSH1 0x4 ADD PUSH1 0x40 MLOAD DUP1 SWAP2 SUB SWAP1 REVERT JUMPDEST PUSH1 0x4 PUSH1 0x0 DUP4 DUP2 MSTORE PUSH1 0x20 ADD SWAP1 DUP2 MSTORE PUSH1 0x20 ADD PUSH1 0x0 KECCAK256 PUSH1 0x0 DUP1 DUP3 ADD PUSH1 0x0 SWAP1 SSTORE PUSH1 0x1 DUP3 ADD PUSH1 0x0 SWAP1 SSTORE PUSH1 0x2 DUP3 ADD PUSH1 0x0 SWAP1 SSTORE POP POP PUSH1 0x0 GAS SWAP1 POP PUSH1 0x0 DUP1 DUP7 PUSH1 0x0 ADD PUSH1 0x20 DUP2 ADD SWAP1 PUSH2 0xE59 SWAP2 SWAP1 PUSH2 0x2A87 JUMP JUMPDEST PUSH20 0xFFFFFFFFFFFFFFFFFFFFFFFFFFFFFFFFFFFFFFFF AND DUP8 DUP1 PUSH1 0x20 ADD SWAP1 PUSH2 0xE7F SWAP2 SWAP1 PUSH2 0x2E9B JUMP JUMPDEST PUSH1 0x40 MLOAD PUSH2 0xE8D SWAP3 SWAP2 SWAP1 PUSH2 0x3051 JUMP JUMPDEST PUSH1 0x0 PUSH1 0x40 MLOAD DUP1 DUP4 SUB DUP2 PUSH1 0x0 DUP7 GAS CALL SWAP2 POP POP RETURNDATASIZE DUP1 PUSH1 0x0 DUP2 EQ PUSH2 0xECA JUMPI PUSH1 0x40 MLOAD SWAP2 POP PUSH1 0x1F NOT PUSH1 0x3F RETURNDATASIZE ADD AND DUP3 ADD PUSH1 0x40 MSTORE RETURNDATASIZE DUP3 MSTORE RETURNDATASIZE PUSH1 0x0 PUSH1 0x20 DUP5 ADD RETURNDATACOPY PUSH2 0xECF JUMP JUMPDEST PUSH1 0x60 SWAP2 POP JUMPDEST POP SWAP2 POP SWAP2 POP PUSH1 0x0 GAS SWAP1 POP PUSH2 0xF4F PUSH1 0x40 MLOAD DUP1 PUSH1 0x40 ADD PUSH1 0x40 MSTORE DUP1 PUSH1 0xB DUP2 MSTORE PUSH1 0x20 ADD PUSH32 0x6761734265666F72653A20000000000000000000000000000000000000000000 DUP2 MSTORE POP DUP6 PUSH1 0x40 MLOAD DUP1 PUSH1 0x40 ADD PUSH1 0x40 MSTORE DUP1 PUSH1 0xB DUP2 MSTORE PUSH1 0x20 ADD PUSH32 0x6761732061667465723A20000000000000000000000000000000000000000000 DUP2 MSTORE POP DUP5 PUSH2 0x1AAB JUMP JUMPDEST DUP3 ISZERO PUSH2 0xF92 JUMPI DUP6 PUSH32 0xDA66FCFE5711520A570CED34D4CDEBBE652FE74713BF2BC9DB4BA54357E5A96F DUP4 PUSH1 0x40 MLOAD PUSH2 0xF85 SWAP2 SWAP1 PUSH2 0x30D8 JUMP JUMPDEST PUSH1 0x40 MLOAD DUP1 SWAP2 SUB SWAP1 LOG2 PUSH2 0x1051 JUMP JUMPDEST PUSH1 0x40 DUP5 PUSH2 0xF9F SWAP2 SWAP1 PUSH2 0x3129 JUMP JUMPDEST DUP2 LT ISZERO PUSH2 0xFD8 JUMPI PUSH1 0x40 MLOAD PUSH32 0x77EBEF4D00000000000000000000000000000000000000000000000000000000 DUP2 MSTORE PUSH1 0x4 ADD PUSH1 0x40 MLOAD DUP1 SWAP2 SUB SWAP1 REVERT JUMPDEST PUSH2 0x1018 PUSH1 0x40 MLOAD DUP1 PUSH1 0x40 ADD PUSH1 0x40 MSTORE DUP1 PUSH1 0x8 DUP2 MSTORE PUSH1 0x20 ADD PUSH32 0x72657456616C3A20000000000000000000000000000000000000000000000000 DUP2 MSTORE POP DUP4 MLOAD PUSH2 0x1B4D JUMP JUMPDEST DUP6 PUSH32 0xD255D8A333980D77AF4F9179384057DEF133983CB02DB3E1FDB70C4DC14102E8 DUP4 PUSH1 0x40 MLOAD PUSH2 0x1048 SWAP2 SWAP1 PUSH2 0x30D8 JUMP JUMPDEST PUSH1 0x40 MLOAD DUP1 SWAP2 SUB SWAP1 LOG2 JUMPDEST DUP3 SWAP7 POP POP POP POP POP POP POP SWAP2 SWAP1 POP JUMP JUMPDEST PUSH1 0x0 DUP1 PUSH1 0x4 PUSH1 0x0 DUP5 DUP2 MSTORE PUSH1 0x20 ADD SWAP1 DUP2 MSTORE PUSH1 0x20 ADD PUSH1 0x0 KECCAK256 SWAP1 POP PUSH2 0x1080 DUP2 PUSH2 0x12CD JUMP JUMPDEST PUSH2 0x10B6 JUMPI PUSH1 0x40 MLOAD PUSH32 0xD9C78E0200000000000000000000000000000000000000000000000000000000 DUP2 MSTORE PUSH1 0x4 ADD PUSH1 0x40 MLOAD DUP1 SWAP2 SUB SWAP1 REVERT JUMPDEST DUP1 SWAP2 POP POP SWAP2 SWAP1 POP JUMP JUMPDEST PUSH1 0x0 PUSH2 0x10CA DUP3 PUSH2 0x1BE9 JUMP JUMPDEST ISZERO PUSH2 0x10ED JUMPI PUSH2 0x10D8 DUP3 PUSH2 0x1A4A JUMP JUMPDEST PUSH2 0x10E3 JUMPI PUSH1 0x2 PUSH2 0x10E6 JUMP JUMPDEST PUSH1 0x0 JUMPDEST SWAP1 POP PUSH2 0x1107 JUMP JUMPDEST PUSH2 0x10F6 DUP3 PUSH2 0x110C JUMP JUMPDEST PUSH2 0x1101 JUMPI PUSH1 0x3 PUSH2 0x1104 JUMP JUMPDEST PUSH1 0x1 JUMPDEST SWAP1 POP JUMPDEST SWAP2 SWAP1 POP JUMP JUMPDEST PUSH1 0x0 DUP1 DUP3 PUSH1 0x0 ADD SLOAD TIMESTAMP PUSH2 0x111F SWAP2 SWAP1 PUSH2 0x315A JUMP JUMPDEST SWAP1 POP PUSH1 0x0 PUSH1 0x14 SWAP1 SLOAD SWAP1 PUSH2 0x100 EXP SWAP1 DIV PUSH8 0xFFFFFFFFFFFFFFFF AND PUSH8 0xFFFFFFFFFFFFFFFF AND DUP2 LT SWAP2 POP POP SWAP2 SWAP1 POP JUMP JUMPDEST PUSH2 0x1154 PUSH2 0x1C1B JUMP JUMPDEST PUSH20 0xFFFFFFFFFFFFFFFFFFFFFFFFFFFFFFFFFFFFFFFF AND PUSH2 0x1172 PUSH2 0xA61 JUMP JUMPDEST PUSH20 0xFFFFFFFFFFFFFFFFFFFFFFFFFFFFFFFFFFFFFFFF AND EQ PUSH2 0x11D1 JUMPI PUSH2 0x1195 PUSH2 0x1C1B JUMP JUMPDEST PUSH1 0x40 MLOAD PUSH32 0x118CDAA700000000000000000000000000000000000000000000000000000000 DUP2 MSTORE PUSH1 0x4 ADD PUSH2 0x11C8 SWAP2 SWAP1 PUSH2 0x2C2B JUMP JUMPDEST PUSH1 0x40 MLOAD DUP1 SWAP2 SUB SWAP1 REVERT JUMPDEST JUMP JUMPDEST PUSH1 0x0 DUP1 DUP3 PUSH1 0x0 ADD SLOAD TIMESTAMP PUSH2 0x11E6 SWAP2 SWAP1 PUSH2 0x315A JUMP JUMPDEST SWAP1 POP PUSH1 0x0 PUSH1 0x14 SWAP1 SLOAD SWAP1 PUSH2 0x100 EXP SWAP1 DIV PUSH8 0xFFFFFFFFFFFFFFFF AND PUSH8 0xFFFFFFFFFFFFFFFF AND DUP2 LT ISZERO DUP1 ISZERO PUSH2 0x1258 JUMPI POP PUSH1 0x1 PUSH1 0x0 SWAP1 SLOAD SWAP1 PUSH2 0x100 EXP SWAP1 DIV PUSH8 0xFFFFFFFFFFFFFFFF AND PUSH1 0x0 PUSH1 0x14 SWAP1 SLOAD SWAP1 PUSH2 0x100 EXP SWAP1 DIV PUSH8 0xFFFFFFFFFFFFFFFF AND PUSH2 0x124B SWAP2 SWAP1 PUSH2 0x318E JUMP JUMPDEST PUSH8 0xFFFFFFFFFFFFFFFF AND DUP2 LT JUMPDEST SWAP2 POP POP SWAP2 SWAP1 POP JUMP JUMPDEST PUSH1 0x0 DUP1 PUSH2 0x126C DUP4 PUSH2 0x10BF JUMP JUMPDEST SWAP1 POP PUSH1 0x0 PUSH1 0x3 DUP2 GT ISZERO PUSH2 0x1282 JUMPI PUSH2 0x1281 PUSH2 0x266C JUMP JUMPDEST JUMPDEST DUP2 PUSH1 0x3 DUP2 GT ISZERO PUSH2 0x1295 JUMPI PUSH2 0x1294 PUSH2 0x266C JUMP JUMPDEST JUMPDEST EQ DUP1 PUSH2 0x12C5 JUMPI POP PUSH1 0x1 PUSH1 0x3 DUP2 GT ISZERO PUSH2 0x12B0 JUMPI PUSH2 0x12AF PUSH2 0x266C JUMP JUMPDEST JUMPDEST DUP2 PUSH1 0x3 DUP2 GT ISZERO PUSH2 0x12C3 JUMPI PUSH2 0x12C2 PUSH2 0x266C JUMP JUMPDEST JUMPDEST EQ JUMPDEST SWAP2 POP POP SWAP2 SWAP1 POP JUMP JUMPDEST PUSH1 0x0 DUP1 DUP3 PUSH1 0x0 ADD SLOAD EQ ISZERO SWAP1 POP SWAP2 SWAP1 POP JUMP JUMPDEST PUSH2 0x12E6 PUSH2 0x2583 JUMP JUMPDEST PUSH1 0x0 DUP1 PUSH2 0x12FC DUP5 DUP7 PUSH2 0x1C23 SWAP1 SWAP2 SWAP1 PUSH4 0xFFFFFFFF AND JUMP JUMPDEST SWAP2 POP SWAP2 POP DUP2 PUSH2 0x1349 JUMPI PUSH1 0x40 MLOAD DUP1 PUSH1 0x40 ADD PUSH1 0x40 MSTORE DUP1 PUSH1 0x0 PUSH1 0x2 DUP2 GT ISZERO PUSH2 0x1324 JUMPI PUSH2 0x1323 PUSH2 0x266C JUMP JUMPDEST JUMPDEST DUP2 MSTORE PUSH1 0x20 ADD PUSH1 0x0 PUSH16 0xFFFFFFFFFFFFFFFFFFFFFFFFFFFFFFFF AND DUP2 MSTORE POP SWAP3 POP POP POP PUSH2 0x1357 JUMP JUMPDEST PUSH2 0x1352 DUP2 PUSH2 0x1C72 JUMP JUMPDEST SWAP3 POP POP POP JUMPDEST SWAP3 SWAP2 POP POP JUMP JUMPDEST PUSH1 0x0 DUP1 PUSH1 0x0 SWAP1 SLOAD SWAP1 PUSH2 0x100 EXP SWAP1 DIV PUSH20 0xFFFFFFFFFFFFFFFFFFFFFFFFFFFFFFFFFFFFFFFF AND SWAP1 POP DUP2 PUSH1 0x0 DUP1 PUSH2 0x100 EXP DUP2 SLOAD DUP2 PUSH20 0xFFFFFFFFFFFFFFFFFFFFFFFFFFFFFFFFFFFFFFFF MUL NOT AND SWAP1 DUP4 PUSH20 0xFFFFFFFFFFFFFFFFFFFFFFFFFFFFFFFFFFFFFFFF AND MUL OR SWAP1 SSTORE POP DUP2 PUSH20 0xFFFFFFFFFFFFFFFFFFFFFFFFFFFFFFFFFFFFFFFF AND DUP2 PUSH20 0xFFFFFFFFFFFFFFFFFFFFFFFFFFFFFFFFFFFFFFFF AND PUSH32 0x8BE0079C531659141344CD1FD0A4F28419497F9722A3DAAFE3B4186F6B6457E0 PUSH1 0x40 MLOAD PUSH1 0x40 MLOAD DUP1 SWAP2 SUB SWAP1 LOG3 POP POP JUMP JUMPDEST PUSH1 0x0 DUP2 DUP4 LT PUSH2 0x1430 JUMPI DUP2 PUSH2 0x1432 JUMP JUMPDEST DUP3 JUMPDEST SWAP1 POP SWAP3 SWAP2 POP POP JUMP JUMPDEST PUSH1 0x0 DUP2 SWAP1 POP DUP2 PUSH20 0xFFFFFFFFFFFFFFFFFFFFFFFFFFFFFFFFFFFFFFFF AND PUSH4 0x1FFC9A7 PUSH32 0x58970CA800000000000000000000000000000000000000000000000000000000 PUSH1 0x40 MLOAD DUP3 PUSH4 0xFFFFFFFF AND PUSH1 0xE0 SHL DUP2 MSTORE PUSH1 0x4 ADD PUSH2 0x1498 SWAP2 SWAP1 PUSH2 0x3205 JUMP JUMPDEST PUSH1 0x20 PUSH1 0x40 MLOAD DUP1 DUP4 SUB DUP2 DUP7 GAS STATICCALL ISZERO DUP1 ISZERO PUSH2 0x14B5 JUMPI RETURNDATASIZE PUSH1 0x0 DUP1 RETURNDATACOPY RETURNDATASIZE PUSH1 0x0 REVERT JUMPDEST POP POP POP POP PUSH1 0x40 MLOAD RETURNDATASIZE PUSH1 0x1F NOT PUSH1 0x1F DUP3 ADD AND DUP3 ADD DUP1 PUSH1 0x40 MSTORE POP DUP2 ADD SWAP1 PUSH2 0x14D9 SWAP2 SWAP1 PUSH2 0x324C JUMP JUMPDEST ISZERO PUSH2 0x150E JUMPI PUSH1 0x0 PUSH1 0x3 PUSH1 0x14 PUSH2 0x100 EXP DUP2 SLOAD DUP2 PUSH1 0xFF MUL NOT AND SWAP1 DUP4 PUSH1 0x1 DUP2 GT ISZERO PUSH2 0x1504 JUMPI PUSH2 0x1503 PUSH2 0x266C JUMP JUMPDEST JUMPDEST MUL OR SWAP1 SSTORE POP PUSH2 0x1620 JUMP JUMPDEST PUSH1 0x0 DUP2 PUSH20 0xFFFFFFFFFFFFFFFFFFFFFFFFFFFFFFFFFFFFFFFF AND PUSH4 0x70A08231 ADDRESS PUSH1 0x40 MLOAD DUP3 PUSH4 0xFFFFFFFF AND PUSH1 0xE0 SHL DUP2 MSTORE PUSH1 0x4 ADD PUSH2 0x1549 SWAP2 SWAP1 PUSH2 0x2C2B JUMP JUMPDEST PUSH1 0x20 PUSH1 0x40 MLOAD DUP1 DUP4 SUB DUP2 DUP7 GAS STATICCALL ISZERO DUP1 ISZERO PUSH2 0x1566 JUMPI RETURNDATASIZE PUSH1 0x0 DUP1 RETURNDATACOPY RETURNDATASIZE PUSH1 0x0 REVERT JUMPDEST POP POP POP POP PUSH1 0x40 MLOAD RETURNDATASIZE PUSH1 0x1F NOT PUSH1 0x1F DUP3 ADD AND DUP3 ADD DUP1 PUSH1 0x40 MSTORE POP DUP2 ADD SWAP1 PUSH2 0x158A SWAP2 SWAP1 PUSH2 0x2E5F JUMP JUMPDEST SWAP1 POP PUSH1 0x0 DUP2 LT ISZERO DUP1 ISZERO PUSH2 0x15BD JUMPI POP PUSH32 0xFFFFFFFFFFFFFFFFFFFFFFFFFFFFFFFFFFFFFFFFFFFFFFFFFFFFFFFFFFFFFFFF DUP2 GT ISZERO JUMPDEST PUSH2 0x15F3 JUMPI PUSH1 0x40 MLOAD PUSH32 0xADD3C86F00000000000000000000000000000000000000000000000000000000 DUP2 MSTORE PUSH1 0x4 ADD PUSH1 0x40 MLOAD DUP1 SWAP2 SUB SWAP1 REVERT JUMPDEST PUSH1 0x1 PUSH1 0x3 PUSH1 0x14 PUSH2 0x100 EXP DUP2 SLOAD DUP2 PUSH1 0xFF MUL NOT AND SWAP1 DUP4 PUSH1 0x1 DUP2 GT ISZERO PUSH2 0x1619 JUMPI PUSH2 0x1618 PUSH2 0x266C JUMP JUMPDEST JUMPDEST MUL OR SWAP1 SSTORE POP POP JUMPDEST DUP1 PUSH1 0x3 PUSH1 0x0 PUSH2 0x100 EXP DUP2 SLOAD DUP2 PUSH20 0xFFFFFFFFFFFFFFFFFFFFFFFFFFFFFFFFFFFFFFFF MUL NOT AND SWAP1 DUP4 PUSH20 0xFFFFFFFFFFFFFFFFFFFFFFFFFFFFFFFFFFFFFFFF AND MUL OR SWAP1 SSTORE POP POP POP JUMP JUMPDEST PUSH1 0x0 DUP2 PUSH1 0x1 ADD SLOAD EQ DUP1 ISZERO PUSH2 0x167D JUMPI POP PUSH1 0x0 DUP2 PUSH1 0x2 ADD SLOAD EQ JUMPDEST PUSH2 0x168A JUMPI PUSH2 0x1689 PUSH2 0x3022 JUMP JUMPDEST JUMPDEST TIMESTAMP DUP2 PUSH1 0x0 ADD DUP2 SWAP1 SSTORE POP DUP2 PUSH32 0x288A29BCA04EDB18FCDB2C76D6E3B03B8A137C85C70D1A4CB8AACFA868D60510 PUSH1 0x40 MLOAD PUSH1 0x40 MLOAD DUP1 SWAP2 SUB SWAP1 LOG2 POP POP JUMP JUMPDEST PUSH1 0x0 DUP1 PUSH2 0x16D0 DUP4 PUSH2 0x12CD JUMP JUMPDEST SWAP1 POP DUP1 DUP1 ISZERO PUSH2 0x170B JUMPI POP PUSH1 0x3 DUP1 DUP2 GT ISZERO PUSH2 0x16ED JUMPI PUSH2 0x16EC PUSH2 0x266C JUMP JUMPDEST JUMPDEST PUSH2 0x16F6 DUP5 PUSH2 0x10BF JUMP JUMPDEST PUSH1 0x3 DUP2 GT ISZERO PUSH2 0x1708 JUMPI PUSH2 0x1707 PUSH2 0x266C JUMP JUMPDEST JUMPDEST EQ ISZERO JUMPDEST SWAP2 POP POP SWAP2 SWAP1 POP JUMP JUMPDEST PUSH1 0x0 PUSH1 0x5 PUSH1 0x0 CALLER PUSH20 0xFFFFFFFFFFFFFFFFFFFFFFFFFFFFFFFFFFFFFFFF AND PUSH20 0xFFFFFFFFFFFFFFFFFFFFFFFFFFFFFFFFFFFFFFFF AND DUP2 MSTORE PUSH1 0x20 ADD SWAP1 DUP2 MSTORE PUSH1 0x20 ADD PUSH1 0x0 KECCAK256 SWAP1 POP PUSH1 0x0 PUSH2 0x1762 DUP3 DUP6 PUSH2 0x12DE JUMP JUMPDEST SWAP1 POP PUSH1 0x0 PUSH1 0x40 MLOAD DUP1 PUSH1 0x40 ADD PUSH1 0x40 MSTORE DUP1 DUP6 PUSH1 0x2 DUP2 GT ISZERO PUSH2 0x1784 JUMPI PUSH2 0x1783 PUSH2 0x266C JUMP JUMPDEST JUMPDEST DUP2 MSTORE PUSH1 0x20 ADD PUSH2 0x1792 CALLER PUSH2 0x9E6 JUMP JUMPDEST PUSH16 0xFFFFFFFFFFFFFFFFFFFFFFFFFFFFFFFF AND DUP2 MSTORE POP SWAP1 POP PUSH2 0x17B3 DUP3 DUP3 PUSH2 0x1D99 JUMP JUMPDEST ISZERO PUSH2 0x17FB JUMPI DUP2 PUSH1 0x0 ADD MLOAD DUP5 PUSH1 0x40 MLOAD PUSH32 0x3DDD27900000000000000000000000000000000000000000000000000000000 DUP2 MSTORE PUSH1 0x4 ADD PUSH2 0x17F2 SWAP3 SWAP2 SWAP1 PUSH2 0x3288 JUMP JUMPDEST PUSH1 0x40 MLOAD DUP1 SWAP2 SUB SWAP1 REVERT JUMPDEST PUSH1 0x0 PUSH2 0x1807 DUP5 DUP8 PUSH2 0x1E09 JUMP JUMPDEST SWAP1 POP PUSH1 0x1 PUSH1 0x2 DUP2 GT ISZERO PUSH2 0x181D JUMPI PUSH2 0x181C PUSH2 0x266C JUMP JUMPDEST JUMPDEST DUP3 PUSH1 0x0 ADD MLOAD PUSH1 0x2 DUP2 GT ISZERO PUSH2 0x1834 JUMPI PUSH2 0x1833 PUSH2 0x266C JUMP JUMPDEST JUMPDEST SUB PUSH2 0x18C8 JUMPI PUSH2 0x1842 DUP8 PUSH2 0x110C JUMP JUMPDEST PUSH2 0x1878 JUMPI PUSH1 0x40 MLOAD PUSH32 0x6D47005400000000000000000000000000000000000000000000000000000000 DUP2 MSTORE PUSH1 0x4 ADD PUSH1 0x40 MLOAD DUP1 SWAP2 SUB SWAP1 REVERT JUMPDEST PUSH1 0x3 PUSH1 0x15 SWAP1 SLOAD SWAP1 PUSH2 0x100 EXP SWAP1 DIV PUSH1 0xFF AND PUSH1 0xFF AND DUP2 LT PUSH2 0x18C3 JUMPI PUSH1 0x40 MLOAD PUSH32 0x48D8FC9400000000000000000000000000000000000000000000000000000000 DUP2 MSTORE PUSH1 0x4 ADD PUSH1 0x40 MLOAD DUP1 SWAP2 SUB SWAP1 REVERT JUMPDEST PUSH2 0x196E JUMP JUMPDEST PUSH1 0x2 DUP1 DUP2 GT ISZERO PUSH2 0x18DB JUMPI PUSH2 0x18DA PUSH2 0x266C JUMP JUMPDEST JUMPDEST DUP3 PUSH1 0x0 ADD MLOAD PUSH1 0x2 DUP2 GT ISZERO PUSH2 0x18F2 JUMPI PUSH2 0x18F1 PUSH2 0x266C JUMP JUMPDEST JUMPDEST SUB PUSH2 0x193B JUMPI PUSH2 0x1900 DUP8 PUSH2 0x1260 JUMP JUMPDEST PUSH2 0x1936 JUMPI PUSH1 0x40 MLOAD PUSH32 0xDE09F8100000000000000000000000000000000000000000000000000000000 DUP2 MSTORE PUSH1 0x4 ADD PUSH1 0x40 MLOAD DUP1 SWAP2 SUB SWAP1 REVERT JUMPDEST PUSH2 0x196D JUMP JUMPDEST PUSH1 0x40 MLOAD PUSH32 0xD5DD0C6600000000000000000000000000000000000000000000000000000000 DUP2 MSTORE PUSH1 0x4 ADD PUSH1 0x40 MLOAD DUP1 SWAP2 SUB SWAP1 REVERT JUMPDEST JUMPDEST PUSH2 0x197B DUP5 DUP8 DUP10 DUP7 DUP7 PUSH2 0x1FAB JUMP JUMPDEST PUSH1 0x0 DUP3 PUSH1 0x20 ADD MLOAD PUSH16 0xFFFFFFFFFFFFFFFFFFFFFFFFFFFFFFFF AND SUB PUSH2 0x19F1 JUMPI CALLER PUSH20 0xFFFFFFFFFFFFFFFFFFFFFFFFFFFFFFFFFFFFFFFF AND DUP7 PUSH32 0x60921DE1A934E80AF973D90EDBCA67A078F0DC03D7385B9031FF925B3A2AB820 DUP5 PUSH1 0x0 ADD MLOAD PUSH1 0x40 MLOAD PUSH2 0x19E4 SWAP2 SWAP1 PUSH2 0x32B1 JUMP JUMPDEST PUSH1 0x40 MLOAD DUP1 SWAP2 SUB SWAP1 LOG3 PUSH2 0x1A41 JUMP JUMPDEST CALLER PUSH20 0xFFFFFFFFFFFFFFFFFFFFFFFFFFFFFFFFFFFFFFFF AND DUP7 PUSH32 0xCD907020340D41D9B3FB53725F52264110FC156B0059B7817F4FE29F25A96CEF DUP5 PUSH1 0x40 MLOAD PUSH2 0x1A38 SWAP2 SWAP1 PUSH2 0x2A6C JUMP JUMPDEST PUSH1 0x40 MLOAD DUP1 SWAP2 SUB SWAP1 LOG3 JUMPDEST POP POP POP POP POP POP POP JUMP JUMPDEST PUSH1 0x0 DUP1 DUP3 PUSH1 0x0 ADD SLOAD TIMESTAMP PUSH2 0x1A5D SWAP2 SWAP1 PUSH2 0x315A JUMP JUMPDEST SWAP1 POP PUSH1 0x1 PUSH1 0x0 SWAP1 SLOAD SWAP1 PUSH2 0x100 EXP SWAP1 DIV PUSH8 0xFFFFFFFFFFFFFFFF AND PUSH1 0x0 PUSH1 0x14 SWAP1 SLOAD SWAP1 PUSH2 0x100 EXP SWAP1 DIV PUSH8 0xFFFFFFFFFFFFFFFF AND PUSH2 0x1A97 SWAP2 SWAP1 PUSH2 0x318E JUMP JUMPDEST PUSH8 0xFFFFFFFFFFFFFFFF AND DUP2 LT SWAP2 POP POP SWAP2 SWAP1 POP JUMP JUMPDEST PUSH2 0x1B47 DUP5 DUP5 DUP5 DUP5 PUSH1 0x40 MLOAD PUSH1 0x24 ADD PUSH2 0x1AC5 SWAP5 SWAP4 SWAP3 SWAP2 SWAP1 PUSH2 0x3321 JUMP JUMPDEST PUSH1 0x40 MLOAD PUSH1 0x20 DUP2 DUP4 SUB SUB DUP2 MSTORE SWAP1 PUSH1 0x40 MSTORE PUSH32 0xC67EA9D100000000000000000000000000000000000000000000000000000000 PUSH28 0xFFFFFFFFFFFFFFFFFFFFFFFFFFFFFFFFFFFFFFFFFFFFFFFFFFFFFFFF NOT AND PUSH1 0x20 DUP3 ADD DUP1 MLOAD PUSH28 0xFFFFFFFFFFFFFFFFFFFFFFFFFFFFFFFFFFFFFFFFFFFFFFFFFFFFFFFF DUP4 DUP2 DUP4 AND OR DUP4 MSTORE POP POP POP POP PUSH2 0x21B6 JUMP JUMPDEST POP POP POP POP JUMP JUMPDEST PUSH2 0x1BE5 DUP3 DUP3 PUSH1 0x40 MLOAD PUSH1 0x24 ADD PUSH2 0x1B63 SWAP3 SWAP2 SWAP1 PUSH2 0x3374 JUMP JUMPDEST PUSH1 0x40 MLOAD PUSH1 0x20 DUP2 DUP4 SUB SUB DUP2 MSTORE SWAP1 PUSH1 0x40 MSTORE PUSH32 0xB60E72CC00000000000000000000000000000000000000000000000000000000 PUSH28 0xFFFFFFFFFFFFFFFFFFFFFFFFFFFFFFFFFFFFFFFFFFFFFFFFFFFFFFFF NOT AND PUSH1 0x20 DUP3 ADD DUP1 MLOAD PUSH28 0xFFFFFFFFFFFFFFFFFFFFFFFFFFFFFFFFFFFFFFFFFFFFFFFFFFFFFFFF DUP4 DUP2 DUP4 AND OR DUP4 MSTORE POP POP POP POP PUSH2 0x21B6 JUMP JUMPDEST POP POP JUMP JUMPDEST PUSH1 0x0 DUP2 PUSH1 0x1 ADD SLOAD PUSH1 0x2 DUP4 PUSH1 0x2 ADD SLOAD PUSH2 0x1C01 SWAP2 SWAP1 PUSH2 0x33A4 JUMP JUMPDEST LT DUP1 ISZERO PUSH2 0x1C14 JUMPI POP PUSH1 0x2 SLOAD DUP3 PUSH1 0x1 ADD SLOAD LT ISZERO JUMPDEST SWAP1 POP SWAP2 SWAP1 POP JUMP JUMPDEST PUSH1 0x0 CALLER SWAP1 POP SWAP1 JUMP JUMPDEST PUSH1 0x0 DUP1 PUSH1 0x0 DUP5 PUSH1 0x2 ADD PUSH1 0x0 DUP6 DUP2 MSTORE PUSH1 0x20 ADD SWAP1 DUP2 MSTORE PUSH1 0x20 ADD PUSH1 0x0 KECCAK256 SLOAD SWAP1 POP PUSH1 0x0 DUP1 SHL DUP2 SUB PUSH2 0x1C62 JUMPI PUSH2 0x1C54 DUP6 DUP6 PUSH2 0x21D0 JUMP JUMPDEST PUSH1 0x0 DUP1 SHL SWAP3 POP SWAP3 POP POP PUSH2 0x1C6B JUMP JUMPDEST PUSH1 0x1 DUP2 SWAP3 POP SWAP3 POP POP JUMPDEST SWAP3 POP SWAP3 SWAP1 POP JUMP JUMPDEST PUSH2 0x1C7A PUSH2 0x2583 JUMP JUMPDEST PUSH1 0x0 DUP3 PUSH1 0x0 SHR SWAP1 POP PUSH1 0x1 PUSH16 0xFFFFFFFFFFFFFFFFFFFFFFFFFFFFFFFF PUSH2 0x1C9F SWAP2 SWAP1 PUSH2 0x2FDE JUMP JUMPDEST PUSH16 0xFFFFFFFFFFFFFFFFFFFFFFFFFFFFFFFF AND DUP2 PUSH16 0xFFFFFFFFFFFFFFFFFFFFFFFFFFFFFFFF AND GT ISZERO PUSH2 0x1CD3 JUMPI PUSH2 0x1CD2 PUSH2 0x3022 JUMP JUMPDEST JUMPDEST PUSH1 0x0 PUSH1 0x80 DUP5 PUSH1 0x0 SHR SWAP1 SHR PUSH1 0xFF AND PUSH1 0x2 DUP2 GT ISZERO PUSH2 0x1CF2 JUMPI PUSH2 0x1CF1 PUSH2 0x266C JUMP JUMPDEST JUMPDEST SWAP1 POP PUSH1 0x1 PUSH1 0x2 DUP2 GT ISZERO PUSH2 0x1D08 JUMPI PUSH2 0x1D07 PUSH2 0x266C JUMP JUMPDEST JUMPDEST DUP2 PUSH1 0x2 DUP2 GT ISZERO PUSH2 0x1D1B JUMPI PUSH2 0x1D1A PUSH2 0x266C JUMP JUMPDEST JUMPDEST EQ DUP1 PUSH2 0x1D4A JUMPI POP PUSH1 0x2 DUP1 DUP2 GT ISZERO PUSH2 0x1D35 JUMPI PUSH2 0x1D34 PUSH2 0x266C JUMP JUMPDEST JUMPDEST DUP2 PUSH1 0x2 DUP2 GT ISZERO PUSH2 0x1D48 JUMPI PUSH2 0x1D47 PUSH2 0x266C JUMP JUMPDEST JUMPDEST EQ JUMPDEST PUSH2 0x1D57 JUMPI PUSH2 0x1D56 PUSH2 0x3022 JUMP JUMPDEST JUMPDEST PUSH1 0x40 MLOAD DUP1 PUSH1 0x40 ADD PUSH1 0x40 MSTORE DUP1 DUP3 PUSH1 0x2 DUP2 GT ISZERO PUSH2 0x1D75 JUMPI PUSH2 0x1D74 PUSH2 0x266C JUMP JUMPDEST JUMPDEST DUP2 MSTORE PUSH1 0x20 ADD DUP4 PUSH16 0xFFFFFFFFFFFFFFFFFFFFFFFFFFFFFFFF AND DUP2 MSTORE POP SWAP3 POP POP POP SWAP2 SWAP1 POP JUMP JUMPDEST PUSH1 0x0 DUP2 PUSH1 0x0 ADD MLOAD PUSH1 0x2 DUP2 GT ISZERO PUSH2 0x1DB2 JUMPI PUSH2 0x1DB1 PUSH2 0x266C JUMP JUMPDEST JUMPDEST DUP4 PUSH1 0x0 ADD MLOAD PUSH1 0x2 DUP2 GT ISZERO PUSH2 0x1DC9 JUMPI PUSH2 0x1DC8 PUSH2 0x266C JUMP JUMPDEST JUMPDEST EQ DUP1 ISZERO PUSH2 0x1E01 JUMPI POP DUP2 PUSH1 0x20 ADD MLOAD PUSH16 0xFFFFFFFFFFFFFFFFFFFFFFFFFFFFFFFF AND DUP4 PUSH1 0x20 ADD MLOAD PUSH16 0xFFFFFFFFFFFFFFFFFFFFFFFFFFFFFFFF AND EQ JUMPDEST SWAP1 POP SWAP3 SWAP2 POP POP JUMP JUMPDEST PUSH1 0x0 DUP1 PUSH2 0x1E15 DUP5 PUSH2 0x21F0 JUMP JUMPDEST SWAP1 POP PUSH1 0x0 DUP2 PUSH8 0xFFFFFFFFFFFFFFFF DUP2 GT ISZERO PUSH2 0x1E33 JUMPI PUSH2 0x1E32 PUSH2 0x33E6 JUMP JUMPDEST JUMPDEST PUSH1 0x40 MLOAD SWAP1 DUP1 DUP3 MSTORE DUP1 PUSH1 0x20 MUL PUSH1 0x20 ADD DUP3 ADD PUSH1 0x40 MSTORE DUP1 ISZERO PUSH2 0x1E61 JUMPI DUP2 PUSH1 0x20 ADD PUSH1 0x20 DUP3 MUL DUP1 CALLDATASIZE DUP4 CALLDATACOPY DUP1 DUP3 ADD SWAP2 POP POP SWAP1 POP JUMPDEST POP SWAP1 POP PUSH1 0x0 DUP1 PUSH1 0x0 JUMPDEST DUP5 DUP2 LT ISZERO PUSH2 0x1F56 JUMPI PUSH1 0x0 DUP1 PUSH2 0x1E88 DUP4 DUP12 PUSH2 0x2205 SWAP1 SWAP2 SWAP1 PUSH4 0xFFFFFFFF AND JUMP JUMPDEST SWAP2 POP SWAP2 POP PUSH1 0x0 DUP3 SWAP1 POP PUSH1 0x0 PUSH1 0x4 PUSH1 0x0 DUP4 DUP2 MSTORE PUSH1 0x20 ADD SWAP1 DUP2 MSTORE PUSH1 0x20 ADD PUSH1 0x0 KECCAK256 SWAP1 POP PUSH2 0x1EB1 DUP2 PUSH2 0x16C4 JUMP JUMPDEST PUSH2 0x1EE9 JUMPI DUP2 DUP9 DUP9 DUP2 MLOAD DUP2 LT PUSH2 0x1EC9 JUMPI PUSH2 0x1EC8 PUSH2 0x3415 JUMP JUMPDEST JUMPDEST PUSH1 0x20 MUL PUSH1 0x20 ADD ADD DUP2 DUP2 MSTORE POP POP PUSH1 0x1 DUP8 PUSH2 0x1EE2 SWAP2 SWAP1 PUSH2 0x3444 JUMP JUMPDEST SWAP7 POP PUSH2 0x1F45 JUMP JUMPDEST PUSH1 0x0 PUSH2 0x1EF4 DUP5 PUSH2 0x1C72 JUMP JUMPDEST SWAP1 POP PUSH1 0x1 PUSH1 0x2 DUP2 GT ISZERO PUSH2 0x1F0A JUMPI PUSH2 0x1F09 PUSH2 0x266C JUMP JUMPDEST JUMPDEST DUP2 PUSH1 0x0 ADD MLOAD PUSH1 0x2 DUP2 GT ISZERO PUSH2 0x1F21 JUMPI PUSH2 0x1F20 PUSH2 0x266C JUMP JUMPDEST JUMPDEST EQ DUP1 ISZERO PUSH2 0x1F2E JUMPI POP DUP12 DUP4 EQ ISZERO JUMPDEST ISZERO PUSH2 0x1F43 JUMPI PUSH1 0x1 DUP8 PUSH2 0x1F40 SWAP2 SWAP1 PUSH2 0x3444 JUMP JUMPDEST SWAP7 POP JUMPDEST POP JUMPDEST POP POP POP POP DUP1 DUP1 PUSH1 0x1 ADD SWAP2 POP POP PUSH2 0x1E6A JUMP JUMPDEST POP PUSH1 0x0 JUMPDEST DUP3 DUP2 LT ISZERO PUSH2 0x1F9D JUMPI PUSH2 0x1F8F DUP5 DUP3 DUP2 MLOAD DUP2 LT PUSH2 0x1F78 JUMPI PUSH2 0x1F77 PUSH2 0x3415 JUMP JUMPDEST JUMPDEST PUSH1 0x20 MUL PUSH1 0x20 ADD ADD MLOAD DUP10 PUSH2 0x2245 SWAP1 SWAP2 SWAP1 PUSH4 0xFFFFFFFF AND JUMP JUMPDEST POP DUP1 DUP1 PUSH1 0x1 ADD SWAP2 POP POP PUSH2 0x1F5A JUMP JUMPDEST POP DUP1 SWAP5 POP POP POP POP POP SWAP3 SWAP2 POP POP JUMP JUMPDEST PUSH1 0x0 DUP3 PUSH1 0x20 ADD MLOAD PUSH16 0xFFFFFFFFFFFFFFFFFFFFFFFFFFFFFFFF AND GT ISZERO PUSH2 0x2093 JUMPI PUSH1 0x1 PUSH1 0x2 DUP2 GT ISZERO PUSH2 0x1FDE JUMPI PUSH2 0x1FDD PUSH2 0x266C JUMP JUMPDEST JUMPDEST DUP3 PUSH1 0x0 ADD MLOAD PUSH1 0x2 DUP2 GT ISZERO PUSH2 0x1FF5 JUMPI PUSH2 0x1FF4 PUSH2 0x266C JUMP JUMPDEST JUMPDEST SUB PUSH2 0x2030 JUMPI DUP2 PUSH1 0x20 ADD MLOAD PUSH16 0xFFFFFFFFFFFFFFFFFFFFFFFFFFFFFFFF AND DUP4 PUSH1 0x1 ADD PUSH1 0x0 DUP3 DUP3 SLOAD PUSH2 0x2024 SWAP2 SWAP1 PUSH2 0x315A JUMP JUMPDEST SWAP3 POP POP DUP2 SWAP1 SSTORE POP PUSH2 0x2092 JUMP JUMPDEST PUSH1 0x2 DUP1 DUP2 GT ISZERO PUSH2 0x2043 JUMPI PUSH2 0x2042 PUSH2 0x266C JUMP JUMPDEST JUMPDEST DUP3 PUSH1 0x0 ADD MLOAD PUSH1 0x2 DUP2 GT ISZERO PUSH2 0x205A JUMPI PUSH2 0x2059 PUSH2 0x266C JUMP JUMPDEST JUMPDEST SUB PUSH2 0x2091 JUMPI DUP2 PUSH1 0x20 ADD MLOAD PUSH16 0xFFFFFFFFFFFFFFFFFFFFFFFFFFFFFFFF AND DUP4 PUSH1 0x2 ADD PUSH1 0x0 DUP3 DUP3 SLOAD PUSH2 0x2089 SWAP2 SWAP1 PUSH2 0x315A JUMP JUMPDEST SWAP3 POP POP DUP2 SWAP1 SSTORE POP JUMPDEST JUMPDEST JUMPDEST PUSH1 0x1 PUSH1 0x2 DUP2 GT ISZERO PUSH2 0x20A7 JUMPI PUSH2 0x20A6 PUSH2 0x266C JUMP JUMPDEST JUMPDEST DUP2 PUSH1 0x0 ADD MLOAD PUSH1 0x2 DUP2 GT ISZERO PUSH2 0x20BE JUMPI PUSH2 0x20BD PUSH2 0x266C JUMP JUMPDEST JUMPDEST SUB PUSH2 0x20F9 JUMPI DUP1 PUSH1 0x20 ADD MLOAD PUSH16 0xFFFFFFFFFFFFFFFFFFFFFFFFFFFFFFFF AND DUP4 PUSH1 0x1 ADD PUSH1 0x0 DUP3 DUP3 SLOAD PUSH2 0x20ED SWAP2 SWAP1 PUSH2 0x3444 JUMP JUMPDEST SWAP3 POP POP DUP2 SWAP1 SSTORE POP PUSH2 0x2191 JUMP JUMPDEST PUSH1 0x2 DUP1 DUP2 GT ISZERO PUSH2 0x210C JUMPI PUSH2 0x210B PUSH2 0x266C JUMP JUMPDEST JUMPDEST DUP2 PUSH1 0x0 ADD MLOAD PUSH1 0x2 DUP2 GT ISZERO PUSH2 0x2123 JUMPI PUSH2 0x2122 PUSH2 0x266C JUMP JUMPDEST JUMPDEST SUB PUSH2 0x215E JUMPI DUP1 PUSH1 0x20 ADD MLOAD PUSH16 0xFFFFFFFFFFFFFFFFFFFFFFFFFFFFFFFF AND DUP4 PUSH1 0x2 ADD PUSH1 0x0 DUP3 DUP3 SLOAD PUSH2 0x2152 SWAP2 SWAP1 PUSH2 0x3444 JUMP JUMPDEST SWAP3 POP POP DUP2 SWAP1 SSTORE POP PUSH2 0x2190 JUMP JUMPDEST PUSH1 0x40 MLOAD PUSH32 0xD5DD0C6600000000000000000000000000000000000000000000000000000000 DUP2 MSTORE PUSH1 0x4 ADD PUSH1 0x40 MLOAD DUP1 SWAP2 SUB SWAP1 REVERT JUMPDEST JUMPDEST PUSH2 0x21AE DUP5 PUSH2 0x219E DUP4 PUSH2 0x227E JUMP JUMPDEST DUP8 PUSH2 0x22C8 SWAP1 SWAP3 SWAP2 SWAP1 PUSH4 0xFFFFFFFF AND JUMP JUMPDEST POP POP POP POP POP POP JUMP JUMPDEST PUSH2 0x21CD DUP2 PUSH2 0x21C5 PUSH2 0x2303 PUSH2 0x2324 JUMP JUMPDEST PUSH4 0xFFFFFFFF AND JUMP JUMPDEST POP JUMP JUMPDEST PUSH1 0x0 PUSH2 0x21E8 DUP3 DUP5 PUSH1 0x0 ADD PUSH2 0x232F SWAP1 SWAP2 SWAP1 PUSH4 0xFFFFFFFF AND JUMP JUMPDEST SWAP1 POP SWAP3 SWAP2 POP POP JUMP JUMPDEST PUSH1 0x0 PUSH2 0x21FE DUP3 PUSH1 0x0 ADD PUSH2 0x2346 JUMP JUMPDEST SWAP1 POP SWAP2 SWAP1 POP JUMP JUMPDEST PUSH1 0x0 DUP1 PUSH1 0x0 PUSH2 0x2220 DUP5 DUP7 PUSH1 0x0 ADD PUSH2 0x235B SWAP1 SWAP2 SWAP1 PUSH4 0xFFFFFFFF AND JUMP JUMPDEST SWAP1 POP DUP1 DUP6 PUSH1 0x2 ADD PUSH1 0x0 DUP4 DUP2 MSTORE PUSH1 0x20 ADD SWAP1 DUP2 MSTORE PUSH1 0x20 ADD PUSH1 0x0 KECCAK256 SLOAD SWAP3 POP SWAP3 POP POP SWAP3 POP SWAP3 SWAP1 POP JUMP JUMPDEST PUSH1 0x0 DUP3 PUSH1 0x2 ADD PUSH1 0x0 DUP4 DUP2 MSTORE PUSH1 0x20 ADD SWAP1 DUP2 MSTORE PUSH1 0x20 ADD PUSH1 0x0 KECCAK256 PUSH1 0x0 SWAP1 SSTORE PUSH2 0x2276 DUP3 DUP5 PUSH1 0x0 ADD PUSH2 0x2372 SWAP1 SWAP2 SWAP1 PUSH4 0xFFFFFFFF AND JUMP JUMPDEST SWAP1 POP SWAP3 SWAP2 POP POP JUMP JUMPDEST PUSH1 0x0 DUP1 DUP3 PUSH1 0x20 ADD MLOAD SWAP1 POP PUSH1 0x0 DUP2 PUSH16 0xFFFFFFFFFFFFFFFFFFFFFFFFFFFFFFFF AND PUSH1 0x80 DUP6 PUSH1 0x0 ADD MLOAD PUSH1 0x2 DUP2 GT ISZERO PUSH2 0x22B6 JUMPI PUSH2 0x22B5 PUSH2 0x266C JUMP JUMPDEST JUMPDEST SWAP1 SHL OR SWAP1 POP DUP1 PUSH1 0x0 SHL SWAP3 POP POP POP SWAP2 SWAP1 POP JUMP JUMPDEST PUSH1 0x0 DUP2 DUP5 PUSH1 0x2 ADD PUSH1 0x0 DUP6 DUP2 MSTORE PUSH1 0x20 ADD SWAP1 DUP2 MSTORE PUSH1 0x20 ADD PUSH1 0x0 KECCAK256 DUP2 SWAP1 SSTORE POP PUSH2 0x22FA DUP4 DUP6 PUSH1 0x0 ADD PUSH2 0x2389 SWAP1 SWAP2 SWAP1 PUSH4 0xFFFFFFFF AND JUMP JUMPDEST SWAP1 POP SWAP4 SWAP3 POP POP POP JUMP JUMPDEST PUSH1 0x0 PUSH11 0x636F6E736F6C652E6C6F67 SWAP1 POP PUSH1 0x0 DUP1 DUP4 MLOAD PUSH1 0x20 DUP6 ADD DUP5 GAS STATICCALL POP POP POP JUMP JUMPDEST PUSH2 0x25C1 DUP2 SWAP1 POP SWAP2 SWAP1 POP JUMP JUMPDEST PUSH1 0x0 PUSH2 0x233E DUP4 PUSH1 0x0 ADD DUP4 PUSH2 0x23A0 JUMP JUMPDEST SWAP1 POP SWAP3 SWAP2 POP POP JUMP JUMPDEST PUSH1 0x0 PUSH2 0x2354 DUP3 PUSH1 0x0 ADD PUSH2 0x23C3 JUMP JUMPDEST SWAP1 POP SWAP2 SWAP1 POP JUMP JUMPDEST PUSH1 0x0 PUSH2 0x236A DUP4 PUSH1 0x0 ADD DUP4 PUSH2 0x23D4 JUMP JUMPDEST SWAP1 POP SWAP3 SWAP2 POP POP JUMP JUMPDEST PUSH1 0x0 PUSH2 0x2381 DUP4 PUSH1 0x0 ADD DUP4 PUSH2 0x23FF JUMP JUMPDEST SWAP1 POP SWAP3 SWAP2 POP POP JUMP JUMPDEST PUSH1 0x0 PUSH2 0x2398 DUP4 PUSH1 0x0 ADD DUP4 PUSH2 0x2513 JUMP JUMPDEST SWAP1 POP SWAP3 SWAP2 POP POP JUMP JUMPDEST PUSH1 0x0 DUP1 DUP4 PUSH1 0x1 ADD PUSH1 0x0 DUP5 DUP2 MSTORE PUSH1 0x20 ADD SWAP1 DUP2 MSTORE PUSH1 0x20 ADD PUSH1 0x0 KECCAK256 SLOAD EQ ISZERO SWAP1 POP SWAP3 SWAP2 POP POP JUMP JUMPDEST PUSH1 0x0 DUP2 PUSH1 0x0 ADD DUP1 SLOAD SWAP1 POP SWAP1 POP SWAP2 SWAP1 POP JUMP JUMPDEST PUSH1 0x0 DUP3 PUSH1 0x0 ADD DUP3 DUP2 SLOAD DUP2 LT PUSH2 0x23EC JUMPI PUSH2 0x23EB PUSH2 0x3415 JUMP JUMPDEST JUMPDEST SWAP1 PUSH1 0x0 MSTORE PUSH1 0x20 PUSH1 0x0 KECCAK256 ADD SLOAD SWAP1 POP SWAP3 SWAP2 POP POP JUMP JUMPDEST PUSH1 0x0 DUP1 DUP4 PUSH1 0x1 ADD PUSH1 0x0 DUP5 DUP2 MSTORE PUSH1 0x20 ADD SWAP1 DUP2 MSTORE PUSH1 0x20 ADD PUSH1 0x0 KECCAK256 SLOAD SWAP1 POP PUSH1 0x0 DUP2 EQ PUSH2 0x2507 JUMPI PUSH1 0x0 PUSH1 0x1 DUP3 PUSH2 0x2431 SWAP2 SWAP1 PUSH2 0x315A JUMP JUMPDEST SWAP1 POP PUSH1 0x0 PUSH1 0x1 DUP7 PUSH1 0x0 ADD DUP1 SLOAD SWAP1 POP PUSH2 0x2449 SWAP2 SWAP1 PUSH2 0x315A JUMP JUMPDEST SWAP1 POP DUP1 DUP3 EQ PUSH2 0x24B8 JUMPI PUSH1 0x0 DUP7 PUSH1 0x0 ADD DUP3 DUP2 SLOAD DUP2 LT PUSH2 0x246A JUMPI PUSH2 0x2469 PUSH2 0x3415 JUMP JUMPDEST JUMPDEST SWAP1 PUSH1 0x0 MSTORE PUSH1 0x20 PUSH1 0x0 KECCAK256 ADD SLOAD SWAP1 POP DUP1 DUP8 PUSH1 0x0 ADD DUP5 DUP2 SLOAD DUP2 LT PUSH2 0x248E JUMPI PUSH2 0x248D PUSH2 0x3415 JUMP JUMPDEST JUMPDEST SWAP1 PUSH1 0x0 MSTORE PUSH1 0x20 PUSH1 0x0 KECCAK256 ADD DUP2 SWAP1 SSTORE POP DUP4 DUP8 PUSH1 0x1 ADD PUSH1 0x0 DUP4 DUP2 MSTORE PUSH1 0x20 ADD SWAP1 DUP2 MSTORE PUSH1 0x20 ADD PUSH1 0x0 KECCAK256 DUP2 SWAP1 SSTORE POP POP JUMPDEST DUP6 PUSH1 0x0 ADD DUP1 SLOAD DUP1 PUSH2 0x24CC JUMPI PUSH2 0x24CB PUSH2 0x3478 JUMP JUMPDEST JUMPDEST PUSH1 0x1 SWAP1 SUB DUP2 DUP2 SWAP1 PUSH1 0x0 MSTORE PUSH1 0x20 PUSH1 0x0 KECCAK256 ADD PUSH1 0x0 SWAP1 SSTORE SWAP1 SSTORE DUP6 PUSH1 0x1 ADD PUSH1 0x0 DUP7 DUP2 MSTORE PUSH1 0x20 ADD SWAP1 DUP2 MSTORE PUSH1 0x20 ADD PUSH1 0x0 KECCAK256 PUSH1 0x0 SWAP1 SSTORE PUSH1 0x1 SWAP4 POP POP POP POP PUSH2 0x250D JUMP JUMPDEST PUSH1 0x0 SWAP2 POP POP JUMPDEST SWAP3 SWAP2 POP POP JUMP JUMPDEST PUSH1 0x0 PUSH2 0x251F DUP4 DUP4 PUSH2 0x23A0 JUMP JUMPDEST PUSH2 0x2578 JUMPI DUP3 PUSH1 0x0 ADD DUP3 SWAP1 DUP1 PUSH1 0x1 DUP2 SLOAD ADD DUP1 DUP3 SSTORE DUP1 SWAP2 POP POP PUSH1 0x1 SWAP1 SUB SWAP1 PUSH1 0x0 MSTORE PUSH1 0x20 PUSH1 0x0 KECCAK256 ADD PUSH1 0x0 SWAP1 SWAP2 SWAP1 SWAP2 SWAP1 SWAP2 POP SSTORE DUP3 PUSH1 0x0 ADD DUP1 SLOAD SWAP1 POP DUP4 PUSH1 0x1 ADD PUSH1 0x0 DUP5 DUP2 MSTORE PUSH1 0x20 ADD SWAP1 DUP2 MSTORE PUSH1 0x20 ADD PUSH1 0x0 KECCAK256 DUP2 SWAP1 SSTORE POP PUSH1 0x1 SWAP1 POP PUSH2 0x257D JUMP JUMPDEST PUSH1 0x0 SWAP1 POP JUMPDEST SWAP3 SWAP2 POP POP JUMP JUMPDEST PUSH1 0x40 MLOAD DUP1 PUSH1 0x40 ADD PUSH1 0x40 MSTORE DUP1 PUSH1 0x0 PUSH1 0x2 DUP2 GT ISZERO PUSH2 0x25A2 JUMPI PUSH2 0x25A1 PUSH2 0x266C JUMP JUMPDEST JUMPDEST DUP2 MSTORE PUSH1 0x20 ADD PUSH1 0x0 PUSH16 0xFFFFFFFFFFFFFFFFFFFFFFFFFFFFFFFF AND DUP2 MSTORE POP SWAP1 JUMP JUMPDEST PUSH2 0x25C9 PUSH2 0x34A7 JUMP JUMPDEST JUMP JUMPDEST PUSH1 0x0 DUP2 SWAP1 POP SWAP2 SWAP1 POP JUMP JUMPDEST PUSH2 0x25DE DUP2 PUSH2 0x25CB JUMP JUMPDEST DUP3 MSTORE POP POP JUMP JUMPDEST PUSH1 0x0 PUSH1 0x20 DUP3 ADD SWAP1 POP PUSH2 0x25F9 PUSH1 0x0 DUP4 ADD DUP5 PUSH2 0x25D5 JUMP JUMPDEST SWAP3 SWAP2 POP POP JUMP JUMPDEST PUSH1 0x0 DUP1 REVERT JUMPDEST PUSH1 0x0 DUP1 REVERT JUMPDEST PUSH1 0x0 DUP2 SWAP1 POP SWAP2 SWAP1 POP JUMP JUMPDEST PUSH2 0x261C DUP2 PUSH2 0x2609 JUMP JUMPDEST DUP2 EQ PUSH2 0x2627 JUMPI PUSH1 0x0 DUP1 REVERT JUMPDEST POP JUMP JUMPDEST PUSH1 0x0 DUP2 CALLDATALOAD SWAP1 POP PUSH2 0x2639 DUP2 PUSH2 0x2613 JUMP JUMPDEST SWAP3 SWAP2 POP POP JUMP JUMPDEST PUSH1 0x0 PUSH1 0x20 DUP3 DUP5 SUB SLT ISZERO PUSH2 0x2655 JUMPI PUSH2 0x2654 PUSH2 0x25FF JUMP JUMPDEST JUMPDEST PUSH1 0x0 PUSH2 0x2663 DUP5 DUP3 DUP6 ADD PUSH2 0x262A JUMP JUMPDEST SWAP2 POP POP SWAP3 SWAP2 POP POP JUMP JUMPDEST PUSH32 0x4E487B7100000000000000000000000000000000000000000000000000000000 PUSH1 0x0 MSTORE PUSH1 0x21 PUSH1 0x4 MSTORE PUSH1 0x24 PUSH1 0x0 REVERT JUMPDEST PUSH1 0x4 DUP2 LT PUSH2 0x26AC JUMPI PUSH2 0x26AB PUSH2 0x266C JUMP JUMPDEST JUMPDEST POP JUMP JUMPDEST PUSH1 0x0 DUP2 SWAP1 POP PUSH2 0x26BD DUP3 PUSH2 0x269B JUMP JUMPDEST SWAP2 SWAP1 POP JUMP JUMPDEST PUSH1 0x0 PUSH2 0x26CD DUP3 PUSH2 0x26AF JUMP JUMPDEST SWAP1 POP SWAP2 SWAP1 POP JUMP JUMPDEST PUSH2 0x26DD DUP2 PUSH2 0x26C2 JUMP JUMPDEST DUP3 MSTORE POP POP JUMP JUMPDEST PUSH1 0x0 PUSH1 0x20 DUP3 ADD SWAP1 POP PUSH2 0x26F8 PUSH1 0x0 DUP4 ADD DUP5 PUSH2 0x26D4 JUMP JUMPDEST SWAP3 SWAP2 POP POP JUMP JUMPDEST PUSH1 0x0 PUSH8 0xFFFFFFFFFFFFFFFF DUP3 AND SWAP1 POP SWAP2 SWAP1 POP JUMP JUMPDEST PUSH2 0x271B DUP2 PUSH2 0x26FE JUMP JUMPDEST DUP3 MSTORE POP POP JUMP JUMPDEST PUSH1 0x0 PUSH1 0x20 DUP3 ADD SWAP1 POP PUSH2 0x2736 PUSH1 0x0 DUP4 ADD DUP5 PUSH2 0x2712 JUMP JUMPDEST SWAP3 SWAP2 POP POP JUMP JUMPDEST PUSH1 0x0 DUP2 ISZERO ISZERO SWAP1 POP SWAP2 SWAP1 POP JUMP JUMPDEST PUSH2 0x2751 DUP2 PUSH2 0x273C JUMP JUMPDEST DUP3 MSTORE POP POP JUMP JUMPDEST PUSH1 0x0 PUSH1 0x20 DUP3 ADD SWAP1 POP PUSH2 0x276C PUSH1 0x0 DUP4 ADD DUP5 PUSH2 0x2748 JUMP JUMPDEST SWAP3 SWAP2 POP POP JUMP JUMPDEST PUSH1 0x0 PUSH1 0xFF DUP3 AND SWAP1 POP SWAP2 SWAP1 POP JUMP JUMPDEST PUSH2 0x2788 DUP2 PUSH2 0x2772 JUMP JUMPDEST DUP2 EQ PUSH2 0x2793 JUMPI PUSH1 0x0 DUP1 REVERT JUMPDEST POP JUMP JUMPDEST PUSH1 0x0 DUP2 CALLDATALOAD SWAP1 POP PUSH2 0x27A5 DUP2 PUSH2 0x277F JUMP JUMPDEST SWAP3 SWAP2 POP POP JUMP JUMPDEST PUSH1 0x0 DUP1 REVERT JUMPDEST PUSH1 0x0 DUP1 REVERT JUMPDEST PUSH1 0x0 DUP1 REVERT JUMPDEST PUSH1 0x0 DUP1 DUP4 PUSH1 0x1F DUP5 ADD SLT PUSH2 0x27D0 JUMPI PUSH2 0x27CF PUSH2 0x27AB JUMP JUMPDEST JUMPDEST DUP3 CALLDATALOAD SWAP1 POP PUSH8 0xFFFFFFFFFFFFFFFF DUP2 GT ISZERO PUSH2 0x27ED JUMPI PUSH2 0x27EC PUSH2 0x27B0 JUMP JUMPDEST JUMPDEST PUSH1 0x20 DUP4 ADD SWAP2 POP DUP4 PUSH1 0x1 DUP3 MUL DUP4 ADD GT ISZERO PUSH2 0x2809 JUMPI PUSH2 0x2808 PUSH2 0x27B5 JUMP JUMPDEST JUMPDEST SWAP3 POP SWAP3 SWAP1 POP JUMP JUMPDEST PUSH1 0x0 DUP1 PUSH1 0x0 PUSH1 0x40 DUP5 DUP7 SUB SLT ISZERO PUSH2 0x2829 JUMPI PUSH2 0x2828 PUSH2 0x25FF JUMP JUMPDEST JUMPDEST PUSH1 0x0 PUSH2 0x2837 DUP7 DUP3 DUP8 ADD PUSH2 0x2796 JUMP JUMPDEST SWAP4 POP POP PUSH1 0x20 DUP5 ADD CALLDATALOAD PUSH8 0xFFFFFFFFFFFFFFFF DUP2 GT ISZERO PUSH2 0x2858 JUMPI PUSH2 0x2857 PUSH2 0x2604 JUMP JUMPDEST JUMPDEST PUSH2 0x2864 DUP7 DUP3 DUP8 ADD PUSH2 0x27BA JUMP JUMPDEST SWAP3 POP SWAP3 POP POP SWAP3 POP SWAP3 POP SWAP3 JUMP JUMPDEST PUSH2 0x2879 DUP2 PUSH2 0x25CB JUMP JUMPDEST DUP2 EQ PUSH2 0x2884 JUMPI PUSH1 0x0 DUP1 REVERT JUMPDEST POP JUMP JUMPDEST PUSH1 0x0 DUP2 CALLDATALOAD SWAP1 POP PUSH2 0x2896 DUP2 PUSH2 0x2870 JUMP JUMPDEST SWAP3 SWAP2 POP POP JUMP JUMPDEST PUSH1 0x0 PUSH1 0x20 DUP3 DUP5 SUB SLT ISZERO PUSH2 0x28B2 JUMPI PUSH2 0x28B1 PUSH2 0x25FF JUMP JUMPDEST JUMPDEST PUSH1 0x0 PUSH2 0x28C0 DUP5 DUP3 DUP6 ADD PUSH2 0x2887 JUMP JUMPDEST SWAP2 POP POP SWAP3 SWAP2 POP POP JUMP JUMPDEST PUSH1 0x0 PUSH1 0x60 DUP3 ADD SWAP1 POP PUSH2 0x28DE PUSH1 0x0 DUP4 ADD DUP7 PUSH2 0x25D5 JUMP JUMPDEST PUSH2 0x28EB PUSH1 0x20 DUP4 ADD DUP6 PUSH2 0x25D5 JUMP JUMPDEST PUSH2 0x28F8 PUSH1 0x40 DUP4 ADD DUP5 PUSH2 0x25D5 JUMP JUMPDEST SWAP5 SWAP4 POP POP POP POP JUMP JUMPDEST PUSH1 0x0 PUSH20 0xFFFFFFFFFFFFFFFFFFFFFFFFFFFFFFFFFFFFFFFF DUP3 AND SWAP1 POP SWAP2 SWAP1 POP JUMP JUMPDEST PUSH1 0x0 PUSH2 0x292B DUP3 PUSH2 0x2900 JUMP JUMPDEST SWAP1 POP SWAP2 SWAP1 POP JUMP JUMPDEST PUSH2 0x293B DUP2 PUSH2 0x2920 JUMP JUMPDEST DUP2 EQ PUSH2 0x2946 JUMPI PUSH1 0x0 DUP1 REVERT JUMPDEST POP JUMP JUMPDEST PUSH1 0x0 DUP2 CALLDATALOAD SWAP1 POP PUSH2 0x2958 DUP2 PUSH2 0x2932 JUMP JUMPDEST SWAP3 SWAP2 POP POP JUMP JUMPDEST PUSH1 0x0 DUP1 PUSH1 0x40 DUP4 DUP6 SUB SLT ISZERO PUSH2 0x2975 JUMPI PUSH2 0x2974 PUSH2 0x25FF JUMP JUMPDEST JUMPDEST PUSH1 0x0 PUSH2 0x2983 DUP6 DUP3 DUP7 ADD PUSH2 0x262A JUMP JUMPDEST SWAP3 POP POP PUSH1 0x20 PUSH2 0x2994 DUP6 DUP3 DUP7 ADD PUSH2 0x2949 JUMP JUMPDEST SWAP2 POP POP SWAP3 POP SWAP3 SWAP1 POP JUMP JUMPDEST PUSH1 0x3 DUP2 LT PUSH2 0x29AF JUMPI PUSH2 0x29AE PUSH2 0x266C JUMP JUMPDEST JUMPDEST POP JUMP JUMPDEST PUSH1 0x0 DUP2 SWAP1 POP PUSH2 0x29C0 DUP3 PUSH2 0x299E JUMP JUMPDEST SWAP2 SWAP1 POP JUMP JUMPDEST PUSH1 0x0 PUSH2 0x29D0 DUP3 PUSH2 0x29B2 JUMP JUMPDEST SWAP1 POP SWAP2 SWAP1 POP JUMP JUMPDEST PUSH2 0x29E0 DUP2 PUSH2 0x29C5 JUMP JUMPDEST DUP3 MSTORE POP POP JUMP JUMPDEST PUSH1 0x0 PUSH16 0xFFFFFFFFFFFFFFFFFFFFFFFFFFFFFFFF DUP3 AND SWAP1 POP SWAP2 SWAP1 POP JUMP JUMPDEST PUSH1 0x0 DUP2 SWAP1 POP SWAP2 SWAP1 POP JUMP JUMPDEST PUSH1 0x0 PUSH2 0x2A27 PUSH2 0x2A22 PUSH2 0x2A1D DUP5 PUSH2 0x29E6 JUMP JUMPDEST PUSH2 0x2A02 JUMP JUMPDEST PUSH2 0x29E6 JUMP JUMPDEST SWAP1 POP SWAP2 SWAP1 POP JUMP JUMPDEST PUSH2 0x2A37 DUP2 PUSH2 0x2A0C JUMP JUMPDEST DUP3 MSTORE POP POP JUMP JUMPDEST PUSH1 0x40 DUP3 ADD PUSH1 0x0 DUP3 ADD MLOAD PUSH2 0x2A53 PUSH1 0x0 DUP6 ADD DUP3 PUSH2 0x29D7 JUMP JUMPDEST POP PUSH1 0x20 DUP3 ADD MLOAD PUSH2 0x2A66 PUSH1 0x20 DUP6 ADD DUP3 PUSH2 0x2A2E JUMP JUMPDEST POP POP POP POP JUMP JUMPDEST PUSH1 0x0 PUSH1 0x40 DUP3 ADD SWAP1 POP PUSH2 0x2A81 PUSH1 0x0 DUP4 ADD DUP5 PUSH2 0x2A3D JUMP JUMPDEST SWAP3 SWAP2 POP POP JUMP JUMPDEST PUSH1 0x0 PUSH1 0x20 DUP3 DUP5 SUB SLT ISZERO PUSH2 0x2A9D JUMPI PUSH2 0x2A9C PUSH2 0x25FF JUMP JUMPDEST JUMPDEST PUSH1 0x0 PUSH2 0x2AAB DUP5 DUP3 DUP6 ADD PUSH2 0x2949 JUMP JUMPDEST SWAP2 POP POP SWAP3 SWAP2 POP POP JUMP JUMPDEST PUSH1 0x0 DUP1 REVERT JUMPDEST PUSH1 0x0 PUSH1 0x60 DUP3 DUP5 SUB SLT ISZERO PUSH2 0x2ACF JUMPI PUSH2 0x2ACE PUSH2 0x2AB4 JUMP JUMPDEST JUMPDEST DUP2 SWAP1 POP SWAP3 SWAP2 POP POP JUMP JUMPDEST PUSH1 0x0 PUSH1 0x20 DUP3 DUP5 SUB SLT ISZERO PUSH2 0x2AEE JUMPI PUSH2 0x2AED PUSH2 0x25FF JUMP JUMPDEST JUMPDEST PUSH1 0x0 DUP3 ADD CALLDATALOAD PUSH8 0xFFFFFFFFFFFFFFFF DUP2 GT ISZERO PUSH2 0x2B0C JUMPI PUSH2 0x2B0B PUSH2 0x2604 JUMP JUMPDEST JUMPDEST PUSH2 0x2B18 DUP5 DUP3 DUP6 ADD PUSH2 0x2AB9 JUMP JUMPDEST SWAP2 POP POP SWAP3 SWAP2 POP POP JUMP JUMPDEST PUSH1 0x0 PUSH2 0x2B2C DUP3 PUSH2 0x2609 JUMP JUMPDEST SWAP1 POP SWAP2 SWAP1 POP JUMP JUMPDEST PUSH2 0x2B3C DUP2 PUSH2 0x2B21 JUMP JUMPDEST DUP3 MSTORE POP POP JUMP JUMPDEST PUSH1 0x0 PUSH1 0x20 DUP3 ADD SWAP1 POP PUSH2 0x2B57 PUSH1 0x0 DUP4 ADD DUP5 PUSH2 0x2B33 JUMP JUMPDEST SWAP3 SWAP2 POP POP JUMP JUMPDEST PUSH2 0x2B66 DUP2 PUSH2 0x2A0C JUMP JUMPDEST DUP3 MSTORE POP POP JUMP JUMPDEST PUSH1 0x0 PUSH1 0x20 DUP3 ADD SWAP1 POP PUSH2 0x2B81 PUSH1 0x0 DUP4 ADD DUP5 PUSH2 0x2B5D JUMP JUMPDEST SWAP3 SWAP2 POP POP JUMP JUMPDEST PUSH2 0x2B90 DUP2 PUSH2 0x2772 JUMP JUMPDEST DUP3 MSTORE POP POP JUMP JUMPDEST PUSH1 0x0 PUSH1 0x20 DUP3 ADD SWAP1 POP PUSH2 0x2BAB PUSH1 0x0 DUP4 ADD DUP5 PUSH2 0x2B87 JUMP JUMPDEST SWAP3 SWAP2 POP POP JUMP JUMPDEST PUSH1 0x0 PUSH2 0x2BBC DUP3 PUSH2 0x2920 JUMP JUMPDEST SWAP1 POP SWAP2 SWAP1 POP JUMP JUMPDEST PUSH2 0x2BCC DUP2 PUSH2 0x2BB1 JUMP JUMPDEST DUP2 EQ PUSH2 0x2BD7 JUMPI PUSH1 0x0 DUP1 REVERT JUMPDEST POP JUMP JUMPDEST PUSH1 0x0 DUP2 CALLDATALOAD SWAP1 POP PUSH2 0x2BE9 DUP2 PUSH2 0x2BC3 JUMP JUMPDEST SWAP3 SWAP2 POP POP JUMP JUMPDEST PUSH1 0x0 PUSH1 0x20 DUP3 DUP5 SUB SLT ISZERO PUSH2 0x2C05 JUMPI PUSH2 0x2C04 PUSH2 0x25FF JUMP JUMPDEST JUMPDEST PUSH1 0x0 PUSH2 0x2C13 DUP5 DUP3 DUP6 ADD PUSH2 0x2BDA JUMP JUMPDEST SWAP2 POP POP SWAP3 SWAP2 POP POP JUMP JUMPDEST PUSH2 0x2C25 DUP2 PUSH2 0x2920 JUMP JUMPDEST DUP3 MSTORE POP POP JUMP JUMPDEST PUSH1 0x0 PUSH1 0x20 DUP3 ADD SWAP1 POP PUSH2 0x2C40 PUSH1 0x0 DUP4 ADD DUP5 PUSH2 0x2C1C JUMP JUMPDEST SWAP3 SWAP2 POP POP JUMP JUMPDEST PUSH1 0x4 DUP2 LT PUSH2 0x2C57 JUMPI PUSH2 0x2C56 PUSH2 0x266C JUMP JUMPDEST JUMPDEST POP JUMP JUMPDEST PUSH1 0x0 DUP2 SWAP1 POP PUSH2 0x2C68 DUP3 PUSH2 0x2C46 JUMP JUMPDEST SWAP2 SWAP1 POP JUMP JUMPDEST PUSH1 0x0 PUSH2 0x2C78 DUP3 PUSH2 0x2C5A JUMP JUMPDEST SWAP1 POP SWAP2 SWAP1 POP JUMP JUMPDEST PUSH2 0x2C88 DUP2 PUSH2 0x2C6D JUMP JUMPDEST DUP3 MSTORE POP POP JUMP JUMPDEST PUSH1 0x0 PUSH1 0x20 DUP3 ADD SWAP1 POP PUSH2 0x2CA3 PUSH1 0x0 DUP4 ADD DUP5 PUSH2 0x2C7F JUMP JUMPDEST SWAP3 SWAP2 POP POP JUMP JUMPDEST PUSH2 0x2CB2 DUP2 PUSH2 0x26FE JUMP JUMPDEST DUP2 EQ PUSH2 0x2CBD JUMPI PUSH1 0x0 DUP1 REVERT JUMPDEST POP JUMP JUMPDEST PUSH1 0x0 DUP2 CALLDATALOAD SWAP1 POP PUSH2 0x2CCF DUP2 PUSH2 0x2CA9 JUMP JUMPDEST SWAP3 SWAP2 POP POP JUMP JUMPDEST PUSH1 0x0 PUSH1 0x20 DUP3 DUP5 SUB SLT ISZERO PUSH2 0x2CEB JUMPI PUSH2 0x2CEA PUSH2 0x25FF JUMP JUMPDEST JUMPDEST PUSH1 0x0 PUSH2 0x2CF9 DUP5 DUP3 DUP6 ADD PUSH2 0x2CC0 JUMP JUMPDEST SWAP2 POP POP SWAP3 SWAP2 POP POP JUMP JUMPDEST PUSH1 0x3 DUP2 LT PUSH2 0x2D0F JUMPI PUSH1 0x0 DUP1 REVERT JUMPDEST POP JUMP JUMPDEST PUSH1 0x0 DUP2 CALLDATALOAD SWAP1 POP PUSH2 0x2D21 DUP2 PUSH2 0x2D02 JUMP JUMPDEST SWAP3 SWAP2 POP POP JUMP JUMPDEST PUSH1 0x0 DUP1 PUSH1 0x0 DUP1 PUSH1 0x60 DUP6 DUP8 SUB SLT ISZERO PUSH2 0x2D41 JUMPI PUSH2 0x2D40 PUSH2 0x25FF JUMP JUMPDEST JUMPDEST PUSH1 0x0 PUSH2 0x2D4F DUP8 DUP3 DUP9 ADD PUSH2 0x262A JUMP JUMPDEST SWAP5 POP POP PUSH1 0x20 PUSH2 0x2D60 DUP8 DUP3 DUP9 ADD PUSH2 0x2D12 JUMP JUMPDEST SWAP4 POP POP PUSH1 0x40 DUP6 ADD CALLDATALOAD PUSH8 0xFFFFFFFFFFFFFFFF DUP2 GT ISZERO PUSH2 0x2D81 JUMPI PUSH2 0x2D80 PUSH2 0x2604 JUMP JUMPDEST JUMPDEST PUSH2 0x2D8D DUP8 DUP3 DUP9 ADD PUSH2 0x27BA JUMP JUMPDEST SWAP3 POP SWAP3 POP POP SWAP3 SWAP6 SWAP2 SWAP5 POP SWAP3 POP JUMP JUMPDEST PUSH1 0x0 PUSH1 0x20 DUP3 DUP5 SUB SLT ISZERO PUSH2 0x2DB1 JUMPI PUSH2 0x2DB0 PUSH2 0x25FF JUMP JUMPDEST JUMPDEST PUSH1 0x0 PUSH2 0x2DBF DUP5 DUP3 DUP6 ADD PUSH2 0x2796 JUMP JUMPDEST SWAP2 POP POP SWAP3 SWAP2 POP POP JUMP JUMPDEST PUSH1 0x0 DUP3 DUP3 MSTORE PUSH1 0x20 DUP3 ADD SWAP1 POP SWAP3 SWAP2 POP POP JUMP JUMPDEST DUP3 DUP2 DUP4 CALLDATACOPY PUSH1 0x0 DUP4 DUP4 ADD MSTORE POP POP POP JUMP JUMPDEST PUSH1 0x0 PUSH1 0x1F NOT PUSH1 0x1F DUP4 ADD AND SWAP1 POP SWAP2 SWAP1 POP JUMP JUMPDEST PUSH1 0x0 PUSH2 0x2E05 DUP4 DUP6 PUSH2 0x2DC8 JUMP JUMPDEST SWAP4 POP PUSH2 0x2E12 DUP4 DUP6 DUP5 PUSH2 0x2DD9 JUMP JUMPDEST PUSH2 0x2E1B DUP4 PUSH2 0x2DE8 JUMP JUMPDEST DUP5 ADD SWAP1 POP SWAP4 SWAP3 POP POP POP JUMP JUMPDEST PUSH1 0x0 PUSH1 0x20 DUP3 ADD SWAP1 POP DUP2 DUP2 SUB PUSH1 0x0 DUP4 ADD MSTORE PUSH2 0x2E41 DUP2 DUP5 DUP7 PUSH2 0x2DF9 JUMP JUMPDEST SWAP1 POP SWAP4 SWAP3 POP POP POP JUMP JUMPDEST PUSH1 0x0 DUP2 MLOAD SWAP1 POP PUSH2 0x2E59 DUP2 PUSH2 0x2870 JUMP JUMPDEST SWAP3 SWAP2 POP POP JUMP JUMPDEST PUSH1 0x0 PUSH1 0x20 DUP3 DUP5 SUB SLT ISZERO PUSH2 0x2E75 JUMPI PUSH2 0x2E74 PUSH2 0x25FF JUMP JUMPDEST JUMPDEST PUSH1 0x0 PUSH2 0x2E83 DUP5 DUP3 DUP6 ADD PUSH2 0x2E4A JUMP JUMPDEST SWAP2 POP POP SWAP3 SWAP2 POP POP JUMP JUMPDEST PUSH1 0x0 DUP1 REVERT JUMPDEST PUSH1 0x0 DUP1 REVERT JUMPDEST PUSH1 0x0 DUP1 REVERT JUMPDEST PUSH1 0x0 DUP1 DUP4 CALLDATALOAD PUSH1 0x1 PUSH1 0x20 SUB DUP5 CALLDATASIZE SUB SUB DUP2 SLT PUSH2 0x2EB8 JUMPI PUSH2 0x2EB7 PUSH2 0x2E8C JUMP JUMPDEST JUMPDEST DUP1 DUP5 ADD SWAP3 POP DUP3 CALLDATALOAD SWAP2 POP PUSH8 0xFFFFFFFFFFFFFFFF DUP3 GT ISZERO PUSH2 0x2EDA JUMPI PUSH2 0x2ED9 PUSH2 0x2E91 JUMP JUMPDEST JUMPDEST PUSH1 0x20 DUP4 ADD SWAP3 POP PUSH1 0x1 DUP3 MUL CALLDATASIZE SUB DUP4 SGT ISZERO PUSH2 0x2EF6 JUMPI PUSH2 0x2EF5 PUSH2 0x2E96 JUMP JUMPDEST JUMPDEST POP SWAP3 POP SWAP3 SWAP1 POP JUMP JUMPDEST PUSH1 0x0 DUP2 PUSH1 0x60 SHL SWAP1 POP SWAP2 SWAP1 POP JUMP JUMPDEST PUSH1 0x0 PUSH2 0x2F16 DUP3 PUSH2 0x2EFE JUMP JUMPDEST SWAP1 POP SWAP2 SWAP1 POP JUMP JUMPDEST PUSH1 0x0 PUSH2 0x2F28 DUP3 PUSH2 0x2F0B JUMP JUMPDEST SWAP1 POP SWAP2 SWAP1 POP JUMP JUMPDEST PUSH2 0x2F40 PUSH2 0x2F3B DUP3 PUSH2 0x2920 JUMP JUMPDEST PUSH2 0x2F1D JUMP JUMPDEST DUP3 MSTORE POP POP JUMP JUMPDEST PUSH1 0x0 DUP2 SWAP1 POP SWAP3 SWAP2 POP POP JUMP JUMPDEST PUSH1 0x0 PUSH2 0x2F5D DUP4 DUP6 PUSH2 0x2F46 JUMP JUMPDEST SWAP4 POP PUSH2 0x2F6A DUP4 DUP6 DUP5 PUSH2 0x2DD9 JUMP JUMPDEST DUP3 DUP5 ADD SWAP1 POP SWAP4 SWAP3 POP POP POP JUMP JUMPDEST PUSH1 0x0 PUSH2 0x2F82 DUP3 DUP9 PUSH2 0x2F2F JUMP JUMPDEST PUSH1 0x14 DUP3 ADD SWAP2 POP PUSH2 0x2F93 DUP3 DUP7 DUP9 PUSH2 0x2F51 JUMP JUMPDEST SWAP2 POP PUSH2 0x2FA0 DUP3 DUP5 DUP7 PUSH2 0x2F51 JUMP JUMPDEST SWAP2 POP DUP2 SWAP1 POP SWAP7 SWAP6 POP POP POP POP POP POP JUMP JUMPDEST PUSH32 0x4E487B7100000000000000000000000000000000000000000000000000000000 PUSH1 0x0 MSTORE PUSH1 0x11 PUSH1 0x4 MSTORE PUSH1 0x24 PUSH1 0x0 REVERT JUMPDEST PUSH1 0x0 PUSH2 0x2FE9 DUP3 PUSH2 0x29E6 JUMP JUMPDEST SWAP2 POP PUSH2 0x2FF4 DUP4 PUSH2 0x29E6 JUMP JUMPDEST SWAP3 POP DUP3 DUP3 SUB SWAP1 POP PUSH16 0xFFFFFFFFFFFFFFFFFFFFFFFFFFFFFFFF DUP2 GT ISZERO PUSH2 0x301C JUMPI PUSH2 0x301B PUSH2 0x2FAF JUMP JUMPDEST JUMPDEST SWAP3 SWAP2 POP POP JUMP JUMPDEST PUSH32 0x4E487B7100000000000000000000000000000000000000000000000000000000 PUSH1 0x0 MSTORE PUSH1 0x1 PUSH1 0x4 MSTORE PUSH1 0x24 PUSH1 0x0 REVERT JUMPDEST PUSH1 0x0 PUSH2 0x305E DUP3 DUP5 DUP7 PUSH2 0x2F51 JUMP JUMPDEST SWAP2 POP DUP2 SWAP1 POP SWAP4 SWAP3 POP POP POP JUMP JUMPDEST PUSH1 0x0 DUP2 MLOAD SWAP1 POP SWAP2 SWAP1 POP JUMP JUMPDEST PUSH1 0x0 JUMPDEST DUP4 DUP2 LT ISZERO PUSH2 0x3093 JUMPI DUP1 DUP3 ADD MLOAD DUP2 DUP5 ADD MSTORE PUSH1 0x20 DUP2 ADD SWAP1 POP PUSH2 0x3078 JUMP JUMPDEST PUSH1 0x0 DUP5 DUP5 ADD MSTORE POP POP POP POP JUMP JUMPDEST PUSH1 0x0 PUSH2 0x30AA DUP3 PUSH2 0x306A JUMP JUMPDEST PUSH2 0x30B4 DUP2 DUP6 PUSH2 0x2DC8 JUMP JUMPDEST SWAP4 POP PUSH2 0x30C4 DUP2 DUP6 PUSH1 0x20 DUP7 ADD PUSH2 0x3075 JUMP JUMPDEST PUSH2 0x30CD DUP2 PUSH2 0x2DE8 JUMP JUMPDEST DUP5 ADD SWAP2 POP POP SWAP3 SWAP2 POP POP JUMP JUMPDEST PUSH1 0x0 PUSH1 0x20 DUP3 ADD SWAP1 POP DUP2 DUP2 SUB PUSH1 0x0 DUP4 ADD MSTORE PUSH2 0x30F2 DUP2 DUP5 PUSH2 0x309F JUMP JUMPDEST SWAP1 POP SWAP3 SWAP2 POP POP JUMP JUMPDEST PUSH32 0x4E487B7100000000000000000000000000000000000000000000000000000000 PUSH1 0x0 MSTORE PUSH1 0x12 PUSH1 0x4 MSTORE PUSH1 0x24 PUSH1 0x0 REVERT JUMPDEST PUSH1 0x0 PUSH2 0x3134 DUP3 PUSH2 0x25CB JUMP JUMPDEST SWAP2 POP PUSH2 0x313F DUP4 PUSH2 0x25CB JUMP JUMPDEST SWAP3 POP DUP3 PUSH2 0x314F JUMPI PUSH2 0x314E PUSH2 0x30FA JUMP JUMPDEST JUMPDEST DUP3 DUP3 DIV SWAP1 POP SWAP3 SWAP2 POP POP JUMP JUMPDEST PUSH1 0x0 PUSH2 0x3165 DUP3 PUSH2 0x25CB JUMP JUMPDEST SWAP2 POP PUSH2 0x3170 DUP4 PUSH2 0x25CB JUMP JUMPDEST SWAP3 POP DUP3 DUP3 SUB SWAP1 POP DUP2 DUP2 GT ISZERO PUSH2 0x3188 JUMPI PUSH2 0x3187 PUSH2 0x2FAF JUMP JUMPDEST JUMPDEST SWAP3 SWAP2 POP POP JUMP JUMPDEST PUSH1 0x0 PUSH2 0x3199 DUP3 PUSH2 0x26FE JUMP JUMPDEST SWAP2 POP PUSH2 0x31A4 DUP4 PUSH2 0x26FE JUMP JUMPDEST SWAP3 POP DUP3 DUP3 ADD SWAP1 POP PUSH8 0xFFFFFFFFFFFFFFFF DUP2 GT ISZERO PUSH2 0x31C4 JUMPI PUSH2 0x31C3 PUSH2 0x2FAF JUMP JUMPDEST JUMPDEST SWAP3 SWAP2 POP POP JUMP JUMPDEST PUSH1 0x0 PUSH32 0xFFFFFFFF00000000000000000000000000000000000000000000000000000000 DUP3 AND SWAP1 POP SWAP2 SWAP1 POP JUMP JUMPDEST PUSH2 0x31FF DUP2 PUSH2 0x31CA JUMP JUMPDEST DUP3 MSTORE POP POP JUMP JUMPDEST PUSH1 0x0 PUSH1 0x20 DUP3 ADD SWAP1 POP PUSH2 0x321A PUSH1 0x0 DUP4 ADD DUP5 PUSH2 0x31F6 JUMP JUMPDEST SWAP3 SWAP2 POP POP JUMP JUMPDEST PUSH2 0x3229 DUP2 PUSH2 0x273C JUMP JUMPDEST DUP2 EQ PUSH2 0x3234 JUMPI PUSH1 0x0 DUP1 REVERT JUMPDEST POP JUMP JUMPDEST PUSH1 0x0 DUP2 MLOAD SWAP1 POP PUSH2 0x3246 DUP2 PUSH2 0x3220 JUMP JUMPDEST SWAP3 SWAP2 POP POP JUMP JUMPDEST PUSH1 0x0 PUSH1 0x20 DUP3 DUP5 SUB SLT ISZERO PUSH2 0x3262 JUMPI PUSH2 0x3261 PUSH2 0x25FF JUMP JUMPDEST JUMPDEST PUSH1 0x0 PUSH2 0x3270 DUP5 DUP3 DUP6 ADD PUSH2 0x3237 JUMP JUMPDEST SWAP2 POP POP SWAP3 SWAP2 POP POP JUMP JUMPDEST PUSH2 0x3282 DUP2 PUSH2 0x29C5 JUMP JUMPDEST DUP3 MSTORE POP POP JUMP JUMPDEST PUSH1 0x0 PUSH1 0x40 DUP3 ADD SWAP1 POP PUSH2 0x329D PUSH1 0x0 DUP4 ADD DUP6 PUSH2 0x3279 JUMP JUMPDEST PUSH2 0x32AA PUSH1 0x20 DUP4 ADD DUP5 PUSH2 0x3279 JUMP JUMPDEST SWAP4 SWAP3 POP POP POP JUMP JUMPDEST PUSH1 0x0 PUSH1 0x20 DUP3 ADD SWAP1 POP PUSH2 0x32C6 PUSH1 0x0 DUP4 ADD DUP5 PUSH2 0x3279 JUMP JUMPDEST SWAP3 SWAP2 POP POP JUMP JUMPDEST PUSH1 0x0 DUP2 MLOAD SWAP1 POP SWAP2 SWAP1 POP JUMP JUMPDEST PUSH1 0x0 DUP3 DUP3 MSTORE PUSH1 0x20 DUP3 ADD SWAP1 POP SWAP3 SWAP2 POP POP JUMP JUMPDEST PUSH1 0x0 PUSH2 0x32F3 DUP3 PUSH2 0x32CC JUMP JUMPDEST PUSH2 0x32FD DUP2 DUP6 PUSH2 0x32D7 JUMP JUMPDEST SWAP4 POP PUSH2 0x330D DUP2 DUP6 PUSH1 0x20 DUP7 ADD PUSH2 0x3075 JUMP JUMPDEST PUSH2 0x3316 DUP2 PUSH2 0x2DE8 JUMP JUMPDEST DUP5 ADD SWAP2 POP POP SWAP3 SWAP2 POP POP JUMP JUMPDEST PUSH1 0x0 PUSH1 0x80 DUP3 ADD SWAP1 POP DUP2 DUP2 SUB PUSH1 0x0 DUP4 ADD MSTORE PUSH2 0x333B DUP2 DUP8 PUSH2 0x32E8 JUMP JUMPDEST SWAP1 POP PUSH2 0x334A PUSH1 0x20 DUP4 ADD DUP7 PUSH2 0x25D5 JUMP JUMPDEST DUP2 DUP2 SUB PUSH1 0x40 DUP4 ADD MSTORE PUSH2 0x335C DUP2 DUP6 PUSH2 0x32E8 JUMP JUMPDEST SWAP1 POP PUSH2 0x336B PUSH1 0x60 DUP4 ADD DUP5 PUSH2 0x25D5 JUMP JUMPDEST SWAP6 SWAP5 POP POP POP POP POP JUMP JUMPDEST PUSH1 0x0 PUSH1 0x40 DUP3 ADD SWAP1 POP DUP2 DUP2 SUB PUSH1 0x0 DUP4 ADD MSTORE PUSH2 0x338E DUP2 DUP6 PUSH2 0x32E8 JUMP JUMPDEST SWAP1 POP PUSH2 0x339D PUSH1 0x20 DUP4 ADD DUP5 PUSH2 0x25D5 JUMP JUMPDEST SWAP4 SWAP3 POP POP POP JUMP JUMPDEST PUSH1 0x0 PUSH2 0x33AF DUP3 PUSH2 0x25CB JUMP JUMPDEST SWAP2 POP PUSH2 0x33BA DUP4 PUSH2 0x25CB JUMP JUMPDEST SWAP3 POP DUP3 DUP3 MUL PUSH2 0x33C8 DUP2 PUSH2 0x25CB JUMP JUMPDEST SWAP2 POP DUP3 DUP3 DIV DUP5 EQ DUP4 ISZERO OR PUSH2 0x33DF JUMPI PUSH2 0x33DE PUSH2 0x2FAF JUMP JUMPDEST JUMPDEST POP SWAP3 SWAP2 POP POP JUMP JUMPDEST PUSH32 0x4E487B7100000000000000000000000000000000000000000000000000000000 PUSH1 0x0 MSTORE PUSH1 0x41 PUSH1 0x4 MSTORE PUSH1 0x24 PUSH1 0x0 REVERT JUMPDEST PUSH32 0x4E487B7100000000000000000000000000000000000000000000000000000000 PUSH1 0x0 MSTORE PUSH1 0x32 PUSH1 0x4 MSTORE PUSH1 0x24 PUSH1 0x0 REVERT JUMPDEST PUSH1 0x0 PUSH2 0x344F DUP3 PUSH2 0x25CB JUMP JUMPDEST SWAP2 POP PUSH2 0x345A DUP4 PUSH2 0x25CB JUMP JUMPDEST SWAP3 POP DUP3 DUP3 ADD SWAP1 POP DUP1 DUP3 GT ISZERO PUSH2 0x3472 JUMPI PUSH2 0x3471 PUSH2 0x2FAF JUMP JUMPDEST JUMPDEST SWAP3 SWAP2 POP POP JUMP JUMPDEST PUSH32 0x4E487B7100000000000000000000000000000000000000000000000000000000 PUSH1 0x0 MSTORE PUSH1 0x31 PUSH1 0x4 MSTORE PUSH1 0x24 PUSH1 0x0 REVERT JUMPDEST PUSH32 0x4E487B7100000000000000000000000000000000000000000000000000000000 PUSH1 0x0 MSTORE PUSH1 0x51 PUSH1 0x4 MSTORE PUSH1 0x24 PUSH1 0x0 REVERT INVALID LOG2 PUSH5 0x6970667358 0x22 SLT KECCAK256 PUSH3 0x5EFB91 EXTCODEHASH 0xE8 PC LT 0xDF SLT SUB DUP9 DUP14 0xB4 0x2A 0xC8 MSIZE TSTORE 0xC8 SSTORE 0xCD 0xE3 0xB5 TLOAD PUSH12 0x94CF749306430364736F6C63 NUMBER STOP ADDMOD XOR STOP CALLER "},"methodIdentifiers":{"execute((address,bytes,bytes))":"fd165a73","getLiveVote(bytes32,address)":"4cc74011","getStage(bytes32)":"ae844f74","getVoteStatus(bytes32)":"0cfe734d","isLive(bytes32)":"cedd3a0e","isVetoOrVotePeriod(bytes32)":"d8cf3528","isVetoPeriod(bytes32)":"272d16f2","isVoteActive(bytes32)":"40a27abc","isVotePeriod(bytes32)":"12007fc9","maxLiveYesVotes()":"87c5cbbb","minWeight()":"0c2ee55e","owner()":"8da5cb5b","proposalExists(bytes32)":"4410a944","proposalId((address,bytes,bytes))":"5b4654a9","proposals(bytes32)":"32ed5b12","propose(bytes32)":"99882cdb","renounceOwnership()":"715018a6","respectContract()":"be142264","respectOf(address)":"58970ca8","setMaxLiveVotes(uint8)":"e89075c7","setMinWeight(uint256)":"20cea51a","setRespectContract(address)":"8c7ecf8d","setVetoLen(uint64)":"ce5b3b39","setVoteLen(uint64)":"bd5ab94f","signal(uint8,bytes)":"141d51cb","transferOwnership(address)":"f2fde38b","vetoLen()":"0ee572fd","vote(bytes32,uint8,bytes)":"d50b2843","voteLen()":"cb156a4a","voteWeightOf(address)":"7fb8b61e"}}}}}