{
  "_format": "hh3-artifact-1",
  "contractName": "Orec",
  "sourceName": "src/orec/Orec.sol",
  "abi": [
    {
      "inputs": [
        {
          "internalType": "contract IERC165",
          "name": "respectContract_",
          "type": "address"
        },
        {
          "internalType": "uint64",
          "name": "voteLenSeconds_",
          "type": "uint64"
        },
        {
          "internalType": "uint64",
          "name": "vetoLenSeconds_",
          "type": "uint64"
        },
        {
          "internalType": "uint256",
          "name": "minWeight_",
          "type": "uint256"
        },
        {
          "internalType": "uint8",
          "name": "maxLiveYesVotes_",
          "type": "uint8"
        }
      ],
      "stateMutability": "nonpayable",
      "type": "constructor"
    },
    {
      "inputs": [
        {
          "internalType": "enum Orec.VoteType",
          "name": "prevVote",
          "type": "uint8"
        },
        {
          "internalType": "enum Orec.VoteType",
          "name": "newVote",
          "type": "uint8"
        }
      ],
      "name": "AlreadyVoted",
      "type": "error"
    },
    {
      "inputs": [],
      "name": "InvalidVote",
      "type": "error"
    },
    {
      "inputs": [],
      "name": "MaxLiveYesVotesExceeded",
      "type": "error"
    },
    {
      "inputs": [],
      "name": "OutOfGas",
      "type": "error"
    },
    {
      "inputs": [
        {
          "internalType": "address",
          "name": "owner",
          "type": "address"
        }
      ],
      "name": "OwnableInvalidOwner",
      "type": "error"
    },
    {
      "inputs": [
        {
          "internalType": "address",
          "name": "account",
          "type": "address"
        }
      ],
      "name": "OwnableUnauthorizedAccount",
      "type": "error"
    },
    {
      "inputs": [],
      "name": "ProposalAlreadyExecuted",
      "type": "error"
    },
    {
      "inputs": [],
      "name": "ProposalAlreadyExists",
      "type": "error"
    },
    {
      "inputs": [],
      "name": "ProposalDoesNotExist",
      "type": "error"
    },
    {
      "inputs": [],
      "name": "ProposalNotExpired",
      "type": "error"
    },
    {
      "inputs": [],
      "name": "ProposalNotPassed",
      "type": "error"
    },
    {
      "inputs": [],
      "name": "ProposalVoteInactive",
      "type": "error"
    },
    {
      "inputs": [],
      "name": "UnsupportedRespectContract",
      "type": "error"
    },
    {
      "inputs": [],
      "name": "VotePeriodOver",
      "type": "error"
    },
    {
      "anonymous": false,
      "inputs": [
        {
          "indexed": true,
          "internalType": "Orec.PropId",
          "name": "propId",
          "type": "bytes32"
        },
        {
          "indexed": true,
          "internalType": "address",
          "name": "voter",
          "type": "address"
        },
        {
          "indexed": false,
          "internalType": "enum Orec.VoteType",
          "name": "vtype",
          "type": "uint8"
        }
      ],
      "name": "EmptyVoteIn",
      "type": "event"
    },
    {
      "anonymous": false,
      "inputs": [
        {
          "indexed": true,
          "internalType": "Orec.PropId",
          "name": "propId",
          "type": "bytes32"
        },
        {
          "indexed": false,
          "internalType": "bytes",
          "name": "retVal",
          "type": "bytes"
        }
      ],
      "name": "Executed",
      "type": "event"
    },
    {
      "anonymous": false,
      "inputs": [
        {
          "indexed": true,
          "internalType": "Orec.PropId",
          "name": "propId",
          "type": "bytes32"
        },
        {
          "indexed": false,
          "internalType": "bytes",
          "name": "retVal",
          "type": "bytes"
        }
      ],
      "name": "ExecutionFailed",
      "type": "event"
    },
    {
      "anonymous": false,
      "inputs": [
        {
          "indexed": true,
          "internalType": "address",
          "name": "previousOwner",
          "type": "address"
        },
        {
          "indexed": true,
          "internalType": "address",
          "name": "newOwner",
          "type": "address"
        }
      ],
      "name": "OwnershipTransferred",
      "type": "event"
    },
    {
      "anonymous": false,
      "inputs": [
        {
          "indexed": true,
          "internalType": "Orec.PropId",
          "name": "propId",
          "type": "bytes32"
        }
      ],
      "name": "ProposalCanceled",
      "type": "event"
    },
    {
      "anonymous": false,
      "inputs": [
        {
          "indexed": true,
          "internalType": "Orec.PropId",
          "name": "propId",
          "type": "bytes32"
        }
      ],
      "name": "ProposalCreated",
      "type": "event"
    },
    {
      "anonymous": false,
      "inputs": [
        {
          "indexed": true,
          "internalType": "uint8",
          "name": "signalType",
          "type": "uint8"
        },
        {
          "indexed": false,
          "internalType": "bytes",
          "name": "data",
          "type": "bytes"
        }
      ],
      "name": "Signal",
      "type": "event"
    },
    {
      "anonymous": false,
      "inputs": [
        {
          "indexed": true,
          "internalType": "Orec.PropId",
          "name": "propId",
          "type": "bytes32"
        },
        {
          "indexed": true,
          "internalType": "address",
          "name": "voter",
          "type": "address"
        },
        {
          "components": [
            {
              "internalType": "enum Orec.VoteType",
              "name": "vtype",
              "type": "uint8"
            },
            {
              "internalType": "Orec.VoteWeight",
              "name": "weight",
              "type": "uint128"
            }
          ],
          "indexed": false,
          "internalType": "struct Orec.Vote",
          "name": "vote",
          "type": "tuple"
        }
      ],
      "name": "WeightedVoteIn",
      "type": "event"
    },
    {
      "inputs": [
        {
          "internalType": "Orec.PropId",
          "name": "propId",
          "type": "bytes32"
        }
      ],
      "name": "cancelProposal",
      "outputs": [],
      "stateMutability": "nonpayable",
      "type": "function"
    },
    {
      "inputs": [
        {
          "components": [
            {
              "internalType": "address",
              "name": "addr",
              "type": "address"
            },
            {
              "internalType": "bytes",
              "name": "cdata",
              "type": "bytes"
            },
            {
              "internalType": "bytes",
              "name": "memo",
              "type": "bytes"
            }
          ],
          "internalType": "struct Orec.Message",
          "name": "message",
          "type": "tuple"
        }
      ],
      "name": "execute",
      "outputs": [
        {
          "internalType": "bool",
          "name": "",
          "type": "bool"
        }
      ],
      "stateMutability": "nonpayable",
      "type": "function"
    },
    {
      "inputs": [
        {
          "internalType": "Orec.PropId",
          "name": "propId",
          "type": "bytes32"
        },
        {
          "internalType": "address",
          "name": "voter",
          "type": "address"
        }
      ],
      "name": "getLiveVote",
      "outputs": [
        {
          "components": [
            {
              "internalType": "enum Orec.VoteType",
              "name": "vtype",
              "type": "uint8"
            },
            {
              "internalType": "Orec.VoteWeight",
              "name": "weight",
              "type": "uint128"
            }
          ],
          "internalType": "struct Orec.Vote",
          "name": "",
          "type": "tuple"
        }
      ],
      "stateMutability": "view",
      "type": "function"
    },
    {
      "inputs": [
        {
          "internalType": "Orec.PropId",
          "name": "propId",
          "type": "bytes32"
        }
      ],
      "name": "getStage",
      "outputs": [
        {
          "internalType": "enum Orec.Stage",
          "name": "",
          "type": "uint8"
        }
      ],
      "stateMutability": "view",
      "type": "function"
    },
    {
      "inputs": [
        {
          "internalType": "Orec.PropId",
          "name": "propId",
          "type": "bytes32"
        }
      ],
      "name": "getVoteStatus",
      "outputs": [
        {
          "internalType": "enum Orec.VoteStatus",
          "name": "",
          "type": "uint8"
        }
      ],
      "stateMutability": "view",
      "type": "function"
    },
    {
      "inputs": [
        {
          "internalType": "Orec.PropId",
          "name": "propId",
          "type": "bytes32"
        }
      ],
      "name": "isLive",
      "outputs": [
        {
          "internalType": "bool",
          "name": "",
          "type": "bool"
        }
      ],
      "stateMutability": "view",
      "type": "function"
    },
    {
      "inputs": [
        {
          "internalType": "Orec.PropId",
          "name": "propId",
          "type": "bytes32"
        }
      ],
      "name": "isVetoOrVotePeriod",
      "outputs": [
        {
          "internalType": "bool",
          "name": "",
          "type": "bool"
        }
      ],
      "stateMutability": "view",
      "type": "function"
    },
    {
      "inputs": [
        {
          "internalType": "Orec.PropId",
          "name": "propId",
          "type": "bytes32"
        }
      ],
      "name": "isVetoPeriod",
      "outputs": [
        {
          "internalType": "bool",
          "name": "",
          "type": "bool"
        }
      ],
      "stateMutability": "view",
      "type": "function"
    },
    {
      "inputs": [
        {
          "internalType": "Orec.PropId",
          "name": "propId",
          "type": "bytes32"
        }
      ],
      "name": "isVoteActive",
      "outputs": [
        {
          "internalType": "bool",
          "name": "",
          "type": "bool"
        }
      ],
      "stateMutability": "view",
      "type": "function"
    },
    {
      "inputs": [
        {
          "internalType": "Orec.PropId",
          "name": "propId",
          "type": "bytes32"
        }
      ],
      "name": "isVotePeriod",
      "outputs": [
        {
          "internalType": "bool",
          "name": "",
          "type": "bool"
        }
      ],
      "stateMutability": "view",
      "type": "function"
    },
    {
      "inputs": [],
      "name": "maxLiveYesVotes",
      "outputs": [
        {
          "internalType": "uint8",
          "name": "",
          "type": "uint8"
        }
      ],
      "stateMutability": "view",
      "type": "function"
    },
    {
      "inputs": [],
      "name": "minWeight",
      "outputs": [
        {
          "internalType": "uint256",
          "name": "",
          "type": "uint256"
        }
      ],
      "stateMutability": "view",
      "type": "function"
    },
    {
      "inputs": [],
      "name": "owner",
      "outputs": [
        {
          "internalType": "address",
          "name": "",
          "type": "address"
        }
      ],
      "stateMutability": "view",
      "type": "function"
    },
    {
      "inputs": [
        {
          "internalType": "Orec.PropId",
          "name": "propId",
          "type": "bytes32"
        }
      ],
      "name": "proposalExists",
      "outputs": [
        {
          "internalType": "bool",
          "name": "",
          "type": "bool"
        }
      ],
      "stateMutability": "view",
      "type": "function"
    },
    {
      "inputs": [
        {
          "components": [
            {
              "internalType": "address",
              "name": "addr",
              "type": "address"
            },
            {
              "internalType": "bytes",
              "name": "cdata",
              "type": "bytes"
            },
            {
              "internalType": "bytes",
              "name": "memo",
              "type": "bytes"
            }
          ],
          "internalType": "struct Orec.Message",
          "name": "message",
          "type": "tuple"
        }
      ],
      "name": "proposalId",
      "outputs": [
        {
          "internalType": "Orec.PropId",
          "name": "",
          "type": "bytes32"
        }
      ],
      "stateMutability": "pure",
      "type": "function"
    },
    {
      "inputs": [
        {
          "internalType": "Orec.PropId",
          "name": "",
          "type": "bytes32"
        }
      ],
      "name": "proposals",
      "outputs": [
        {
          "internalType": "uint256",
          "name": "createTime",
          "type": "uint256"
        },
        {
          "internalType": "uint256",
          "name": "yesWeight",
          "type": "uint256"
        },
        {
          "internalType": "uint256",
          "name": "noWeight",
          "type": "uint256"
        }
      ],
      "stateMutability": "view",
      "type": "function"
    },
    {
      "inputs": [
        {
          "internalType": "Orec.PropId",
          "name": "propId",
          "type": "bytes32"
        }
      ],
      "name": "propose",
      "outputs": [],
      "stateMutability": "nonpayable",
      "type": "function"
    },
    {
      "inputs": [],
      "name": "renounceOwnership",
      "outputs": [],
      "stateMutability": "nonpayable",
      "type": "function"
    },
    {
      "inputs": [],
      "name": "respectContract",
      "outputs": [
        {
          "internalType": "address",
          "name": "",
          "type": "address"
        }
      ],
      "stateMutability": "view",
      "type": "function"
    },
    {
      "inputs": [
        {
          "internalType": "address",
          "name": "account",
          "type": "address"
        }
      ],
      "name": "respectOf",
      "outputs": [
        {
          "internalType": "uint256",
          "name": "",
          "type": "uint256"
        }
      ],
      "stateMutability": "view",
      "type": "function"
    },
    {
      "inputs": [
        {
          "internalType": "uint8",
          "name": "newMaxLiveVotes",
          "type": "uint8"
        }
      ],
      "name": "setMaxLiveVotes",
      "outputs": [],
      "stateMutability": "nonpayable",
      "type": "function"
    },
    {
      "inputs": [
        {
          "internalType": "uint256",
          "name": "newMinWeigth",
          "type": "uint256"
        }
      ],
      "name": "setMinWeight",
      "outputs": [],
      "stateMutability": "nonpayable",
      "type": "function"
    },
    {
      "inputs": [
        {
          "internalType": "uint64",
          "name": "newVoteLen",
          "type": "uint64"
        },
        {
          "internalType": "uint64",
          "name": "newVetoLen",
          "type": "uint64"
        }
      ],
      "name": "setPeriodLengths",
      "outputs": [],
      "stateMutability": "nonpayable",
      "type": "function"
    },
    {
      "inputs": [
        {
          "internalType": "contract IERC165",
          "name": "respect",
          "type": "address"
        }
      ],
      "name": "setRespectContract",
      "outputs": [],
      "stateMutability": "nonpayable",
      "type": "function"
    },
    {
      "inputs": [
        {
          "internalType": "uint8",
          "name": "signalType",
          "type": "uint8"
        },
        {
          "internalType": "bytes",
          "name": "data",
          "type": "bytes"
        }
      ],
      "name": "signal",
      "outputs": [],
      "stateMutability": "nonpayable",
      "type": "function"
    },
    {
      "inputs": [
        {
          "internalType": "address",
          "name": "newOwner",
          "type": "address"
        }
      ],
      "name": "transferOwnership",
      "outputs": [],
      "stateMutability": "nonpayable",
      "type": "function"
    },
    {
      "inputs": [],
      "name": "vetoLen",
      "outputs": [
        {
          "internalType": "uint64",
          "name": "",
          "type": "uint64"
        }
      ],
      "stateMutability": "view",
      "type": "function"
    },
    {
      "inputs": [
        {
          "internalType": "Orec.PropId",
          "name": "propId",
          "type": "bytes32"
        },
        {
          "internalType": "enum Orec.VoteType",
          "name": "voteType",
          "type": "uint8"
        },
        {
          "internalType": "bytes",
          "name": "",
          "type": "bytes"
        }
      ],
      "name": "vote",
      "outputs": [],
      "stateMutability": "nonpayable",
      "type": "function"
    },
    {
      "inputs": [],
      "name": "voteLen",
      "outputs": [
        {
          "internalType": "uint64",
          "name": "",
          "type": "uint64"
        }
      ],
      "stateMutability": "view",
      "type": "function"
    },
    {
      "inputs": [
        {
          "internalType": "address",
          "name": "account",
          "type": "address"
        }
      ],
      "name": "voteWeightOf",
      "outputs": [
        {
          "internalType": "Orec.VoteWeight",
          "name": "",
          "type": "uint128"
        }
      ],
      "stateMutability": "view",
      "type": "function"
    }
  ],
  "bytecode": "0x608060405234801561000f575f5ffd5b50604051611fc3380380611fc383398101604081905261002e9161025f565b308061005357604051631e4fbdf760e01b81525f600482015260240160405180910390fd5b61005c816100ce565b506100668561011d565b5f8054600160a01b600160e01b031916600160a01b6001600160401b0396871602179055600180546001600160401b03191693909416929092179092556002919091556003805460ff60a81b1916600160a81b60ff909316929092029190911790555061030d565b5f80546001600160a01b038381166001600160a01b0319831681178455604051919092169283917f8be0079c531659141344cd1fd0a4f28419497f9722a3daafe3b4186f6b6457e09190a35050565b6040516301ffc9a760e01b8152630b12e19560e31b600482015281906001600160a01b038216906301ffc9a790602401602060405180830381865afa158015610168573d5f5f3e3d5ffd5b505050506040513d601f19601f8201168201806040525081019061018c91906102d0565b156101a3576003805460ff60a01b19169055610221565b6040516370a0823160e01b81523060048201525f906001600160a01b038316906370a0823190602401602060405180830381865afa1580156101e7573d5f5f3e3d5ffd5b505050506040513d601f19601f8201168201806040525081019061020b91906102f6565b50506003805460ff60a01b1916600160a01b1790555b600380546001600160a01b0319166001600160a01b039290921691909117905550565b80516001600160401b038116811461025a575f5ffd5b919050565b5f5f5f5f5f60a08688031215610273575f5ffd5b85516001600160a01b0381168114610289575f5ffd5b945061029760208701610244565b93506102a560408701610244565b60608701516080880151919450925060ff811681146102c2575f5ffd5b809150509295509295909350565b5f602082840312156102e0575f5ffd5b815180151581146102ef575f5ffd5b9392505050565b5f60208284031215610306575f5ffd5b5051919050565b611ca98061031a5f395ff3fe608060405234801561000f575f5ffd5b50600436106101d1575f3560e01c80637fb8b61e116100fe578063cb156a4a1161009e578063dfb40ded1161006e578063dfb40ded1461047d578063e89075c714610490578063f2fde38b146104a3578063fd165a73146104b6575f5ffd5b8063cb156a4a1461042b578063cedd3a0e14610444578063d50b284314610457578063d8cf35281461046a575f5ffd5b80638da5cb5b116100d95780638da5cb5b146103ce57806399882cdb146103f2578063ae844f7414610405578063be14226414610418575f5ffd5b80637fb8b61e1461036a57806387c5cbbb146103955780638c7ecf8d146103bb575f5ffd5b806332ed5b12116101745780634cc74011116101445780634cc740111461031c57806358970ca81461033c5780635b4654a91461034f578063715018a614610362575f5ffd5b806332ed5b121461029a57806337376ca8146102e357806340a27abc146102f65780634410a94414610309575f5ffd5b806312007fc9116101af57806312007fc91461023c578063141d51cb1461025f57806320cea51a14610274578063272d16f214610287575f5ffd5b80630c2ee55e146101d55780630cfe734d146101f15780630ee572fd14610211575b5f5ffd5b6101de60025481565b6040519081526020015b60405180910390f35b6102046101ff3660046117af565b6104c9565b6040516101e891906117ea565b600154610224906001600160401b031681565b6040516001600160401b0390911681526020016101e8565b61024f61024a3660046117af565b6104e6565b60405190151581526020016101e8565b61027261026d36600461184a565b6104fc565b005b6102726102823660046117af565b610546565b61024f6102953660046117af565b610553565b6102c86102a83660046117af565b60046020525f908152604090208054600182015460029092015490919083565b604080519384526020840192909252908201526060016101e8565b6102726102f13660046117af565b610569565b61024f6103043660046117af565b6105e2565b61024f6103173660046117af565b6105f8565b61032f61032a3660046118ac565b61060e565b6040516101e891906118ee565b6101de61034a366004611917565b61064c565b6101de61035d366004611932565b610715565b610272610771565b61037d610378366004611917565b610784565b6040516001600160801b0390911681526020016101e8565b6003546103a990600160a81b900460ff1681565b60405160ff90911681526020016101e8565b6102726103c9366004611917565b6107be565b5f546001600160a01b03165b6040516001600160a01b0390911681526020016101e8565b6102726104003660046117af565b6107cf565b6102046104133660046117af565b61080a565b6003546103da906001600160a01b031681565b5f5461022490600160a01b90046001600160401b031681565b61024f6104523660046117af565b61089f565b610272610465366004611968565b6108b5565b61024f6104783660046117af565b6108e4565b61027261048b3660046119d8565b6108fa565b61027261049e366004611a09565b61093f565b6102726104b1366004611917565b610967565b61024f6104c4366004611932565b6109a6565b5f5f6104d483610b45565b90506104df81610b71565b9392505050565b5f5f6104f183610b45565b90506104df81610bb7565b610504610be1565b8260ff167f294d62780e868235e85aee4277a92857d52a196987e2a5bbb9fffe4f08b4567a8383604051610539929190611a22565b60405180910390a2505050565b61054e610be1565b600255565b5f5f61055e83610b45565b90506104df81610c0d565b610571610be1565b61057a816105f8565b156105c6575f81815260046020526040808220828155600181018390556002018290555182917f88ae8321c96cee88d802409f3677f889d8a6743c4631b069fe600a3a9b07e02091a250565b604051636ce3c70160e11b815260040160405180910390fd5b50565b5f5f6105ed83610b45565b90506104df81610c6e565b5f818152600460205260408120805415156104df565b604080518082019091525f80825260208201526001600160a01b0382165f9081526005602052604090206106428185610cb1565b9150505b92915050565b5f80600354600160a01b900460ff16600181111561066c5761066c6117c6565b036106de57600354604051630b12e19560e31b81526001600160a01b038481166004830152909116906358970ca8906024015b602060405180830381865afa1580156106ba573d5f5f3e3d5ffd5b505050506040513d601f19601f820116820180604052508101906106469190611a50565b6003546040516370a0823160e01b81526001600160a01b038481166004830152909116906370a082319060240161069f565b919050565b5f806107246020840184611917565b6107316020850185611a67565b61073e6040870187611a67565b604051602001610752959493929190611aa9565b60408051601f1981840301815291905280516020909101209392505050565b610779610be1565b6107825f610d07565b565b5f5f61078f8361064c565b90505f6107b6826107a860016001600160801b03611afd565b6001600160801b0316610d56565b949350505050565b6107c6610be1565b6105df81610d65565b5f8181526004602052604090208054156107fc57604051635c61cf3160e11b815260040160405180910390fd5b6108068282610e8c565b5050565b5f5f61081583610b45565b90505f61082182610b71565b90506003816003811115610837576108376117c6565b03610846575060039392505050565b600281600381111561085a5761085a6117c6565b03610869575060029392505050565b61087282610bb7565b1561088057505f9392505050565b61088982610c0d565b61089557610895611b1c565b5060019392505050565b5f8181526004602052604081206104df81610edd565b5f84815260046020526040902080546108d2576108d28582610e8c565b6108dd818686610f18565b5050505050565b5f5f6108ef83610b45565b90506104df8161111e565b610902610be1565b5f805467ffffffffffffffff60a01b1916600160a01b6001600160401b03948516021790556001805467ffffffffffffffff191691909216179055565b610947610be1565b6003805460ff909216600160a81b0260ff60a81b19909216919091179055565b61096f610be1565b6001600160a01b03811661099d57604051631e4fbdf760e01b81525f60048201526024015b60405180910390fd5b6105df81610d07565b5f5f6109b183610715565b90505f6109bd82610b45565b905060026109ca82610b71565b60038111156109db576109db6117c6565b146109f95760405163c8c93ba360e01b815260040160405180910390fd5b5f828152600460205260408120818155600181018290556002018190555a90505f80610a286020880188611917565b6001600160a01b0316610a3e6020890189611a67565b604051610a4c929190611b30565b5f604051808303815f865af19150503d805f8114610a85576040519150601f19603f3d011682016040523d82523d5f602084013e610a8a565b606091505b50915091508115610ad257847fda66fcfe5711520a570ced34d4cdebbe652fe74713bf2bc9db4ba54357e5a96f82604051610ac59190611b3f565b60405180910390a2610b3b565b5f5a9050610ae1604085611b74565b811015610b01576040516377ebef4d60e01b815260040160405180910390fd5b857fd255d8a333980d77af4f9179384057def133983cb02db3e1fdb70c4dc14102e883604051610b319190611b3f565b60405180910390a2505b5095945050505050565b5f818152600460205260408120805461064657604051636ce3c70160e11b815260040160405180910390fd5b5f610b7b82611154565b15610b9b57610b898261111e565b610b94576002610646565b5f92915050565b610ba482610bb7565b610baf576003610646565b600192915050565b80545f908190610bc79042611b93565b5f54600160a01b90046001600160401b0316119392505050565b5f546001600160a01b031633146107825760405163118cdaa760e01b8152336004820152602401610994565b80545f908190610c1d9042611b93565b5f54909150600160a01b90046001600160401b031681108015906104df57506001545f54610c5e916001600160401b0390811691600160a01b900416611ba6565b6001600160401b03161192915050565b5f5f610c7983610b71565b90505f816003811115610c8e57610c8e6117c6565b14806104df57506001816003811115610ca957610ca96117c6565b149392505050565b604080518082019091525f80825260208201525f80610cd08585611182565b9150915081610cf5575050604080518082019091525f80825260208201529050610646565b610cfe816111bd565b92505050610646565b5f80546001600160a01b038381166001600160a01b0319831681178455604051919092169283917f8be0079c531659141344cd1fd0a4f28419497f9722a3daafe3b4186f6b6457e09190a35050565b5f8282188284100282186104df565b6040516301ffc9a760e01b8152630b12e19560e31b600482015281906001600160a01b038216906301ffc9a790602401602060405180830381865afa158015610db0573d5f5f3e3d5ffd5b505050506040513d601f19601f82011682018060405250810190610dd49190611bc5565b15610deb576003805460ff60a01b19169055610e69565b6040516370a0823160e01b81523060048201525f906001600160a01b038316906370a0823190602401602060405180830381865afa158015610e2f573d5f5f3e3d5ffd5b505050506040513d601f19601f82011682018060405250810190610e539190611a50565b50506003805460ff60a01b1916600160a01b1790555b600380546001600160a01b0319166001600160a01b039290921691909117905550565b6001810154158015610ea057506002810154155b610eac57610eac611b1c565b42815560405182907f288a29bca04edb18fcdb2c76d6e3b03b8a137c85c70d1a4cb8aacfa868d60510905f90a25050565b5f5f610ee98354151590565b90508080156104df57506003610efe84610b71565b6003811115610f0f57610f0f6117c6565b14159392505050565b335f90815260056020526040812090610f318285610cb1565b90505f6040518060400160405280856002811115610f5157610f516117c6565b8152602001610f5f33610784565b6001600160801b031690529050610f768282611295565b15610f995781516040516303ddd27960e01b815261099491908690600401611be4565b5f610fa484876112e0565b9050600182516002811115610fbb57610fbb6117c6565b0361101757610fc987610bb7565b610fe657604051631b51c01560e21b815260040160405180910390fd5b600354600160a81b900460ff168110611012576040516312363f2560e21b815260040160405180910390fd5b611070565b60028251600281111561102c5761102c6117c6565b036110575761103a87610c6e565b61101257604051630de09f8160e01b815260040160405180910390fd5b604051636aee863360e11b815260040160405180910390fd5b61107d8487898686611439565b81602001516001600160801b03165f036110d2578151604051339188917f60921de1a934e80af973d90edbca67a078f0dc03d7385b9031ff925b3a2ab820916110c591611bff565b60405180910390a3611115565b336001600160a01b0316867fcd907020340d41d9b3fb53725f52264110fc156b0059b7817f4fe29f25a96cef8460405161110c91906118ee565b60405180910390a35b50505050505050565b80545f90819061112e9042611b93565b6001545f54919250610c5e916001600160401b0391821691600160a01b90910416611ba6565b5f81600101548260020154600261116b9190611c0d565b108015610646575050600254600190910154101590565b5f8181526002830160205260408120548190806111af576111a3858561156d565b92505f91506111b69050565b6001925090505b9250929050565b604080518082019091525f8082526020820152816111e360016001600160801b03611afd565b6001600160801b0316816001600160801b0316111561120457611204611b1c565b5f60ff608085901c16600281111561121e5761121e6117c6565b90506001816002811115611234576112346117c6565b14806112515750600281600281111561124f5761124f6117c6565b145b61125d5761125d611b1c565b604051806040016040528082600281111561127a5761127a6117c6565b8152602001836001600160801b031681525092505050919050565b80515f9060028111156112aa576112aa6117c6565b835160028111156112bd576112bd6117c6565b1480156104df5750506020908101519101516001600160801b0390811691161490565b5f5f6112eb84611578565b90505f816001600160401b0381111561130657611306611c24565b60405190808252806020026020018201604052801561132f578160200160208202803683370190505b5090505f80805b848110156113ee575f8061134a8a84611582565b5f8281526004602052604090209193509150829061136781610edd565b61139b578188888151811061137e5761137e611c38565b6020908102919091010152611394600188611c4c565b96506113de565b5f6113a5846111bd565b90506001815160028111156113bc576113bc6117c6565b1480156113c957508b8314155b156113dc576113d9600188611c4c565b96505b505b5050600190920191506113369050565b505f5b8281101561142e5761142584828151811061140e5761140e611c38565b6020026020010151896115ab90919063ffffffff16565b506001016113f1565b509695505050505050565b60208201516001600160801b0316156114d157600182516002811115611461576114616117c6565b036114915781602001516001600160801b0316836001015f8282546114869190611b93565b909155506114d19050565b6002825160028111156114a6576114a66117c6565b036114d15781602001516001600160801b0316836002015f8282546114cb9190611b93565b90915550505b6001815160028111156114e6576114e66117c6565b036115165780602001516001600160801b0316836001015f82825461150b9190611c4c565b909155506115509050565b60028151600281111561152b5761152b6117c6565b036110575780602001516001600160801b0316836002015f82825461150b9190611c4c565b6115658461155d836115c7565b8791906115fd565b505050505050565b5f6104df8383611619565b5f61064682611630565b5f808061158f8585611639565b5f81815260029690960160205260409095205494959350505050565b5f81815260028301602052604081208190556104df8383611644565b5f5f826020015190505f816001600160801b03166080855f015160028111156115f2576115f26117c6565b901b17949350505050565b5f82815260028401602052604081208290556107b6848461164f565b5f81815260018301602052604081205415156104df565b5f610646825490565b5f6104df838361165a565b5f6104df8383611680565b5f6104df8383611763565b5f825f01828154811061166f5761166f611c38565b905f5260205f200154905092915050565b5f818152600183016020526040812054801561175a575f6116a2600183611b93565b85549091505f906116b590600190611b93565b9050808214611714575f865f0182815481106116d3576116d3611c38565b905f5260205f200154905080875f0184815481106116f3576116f3611c38565b5f918252602080832090910192909255918252600188019052604090208390555b855486908061172557611725611c5f565b600190038181905f5260205f20015f90559055856001015f8681526020019081526020015f205f905560019350505050610646565b5f915050610646565b5f8181526001830160205260408120546117a857508154600181810184555f848152602080822090930184905584548482528286019093526040902091909155610646565b505f610646565b5f602082840312156117bf575f5ffd5b5035919050565b634e487b7160e01b5f52602160045260245ffd5b600481106105df576105df6117c6565b602081016117f7836117da565b91905290565b803560ff81168114610710575f5ffd5b5f5f83601f84011261181d575f5ffd5b5081356001600160401b03811115611833575f5ffd5b6020830191508360208285010111156111b6575f5ffd5b5f5f5f6040848603121561185c575f5ffd5b611865846117fd565b925060208401356001600160401b0381111561187f575f5ffd5b61188b8682870161180d565b9497909650939450505050565b6001600160a01b03811681146105df575f5ffd5b5f5f604083850312156118bd575f5ffd5b8235915060208301356118cf81611898565b809150509250929050565b600381106118ea576118ea6117c6565b9052565b5f6040820190506119008284516118da565b6020928301516001600160801b0316919092015290565b5f60208284031215611927575f5ffd5b81356104df81611898565b5f60208284031215611942575f5ffd5b81356001600160401b03811115611957575f5ffd5b8201606081850312156104df575f5ffd5b5f5f5f5f6060858703121561197b575f5ffd5b84359350602085013560038110611990575f5ffd5b925060408501356001600160401b038111156119aa575f5ffd5b6119b68782880161180d565b95989497509550505050565b80356001600160401b0381168114610710575f5ffd5b5f5f604083850312156119e9575f5ffd5b6119f2836119c2565b9150611a00602084016119c2565b90509250929050565b5f60208284031215611a19575f5ffd5b6104df826117fd565b60208152816020820152818360408301375f818301604090810191909152601f909201601f19160101919050565b5f60208284031215611a60575f5ffd5b5051919050565b5f5f8335601e19843603018112611a7c575f5ffd5b8301803591506001600160401b03821115611a95575f5ffd5b6020019150368190038213156111b6575f5ffd5b6bffffffffffffffffffffffff198660601b168152838560148301375f848201601481015f815284868237505f9301601401928352509095945050505050565b634e487b7160e01b5f52601160045260245ffd5b6001600160801b03828116828216039081111561064657610646611ae9565b634e487b7160e01b5f52600160045260245ffd5b818382375f9101908152919050565b602081525f82518060208401528060208501604085015e5f604082850101526040601f19601f83011684010191505092915050565b5f82611b8e57634e487b7160e01b5f52601260045260245ffd5b500490565b8181038181111561064657610646611ae9565b6001600160401b03818116838216019081111561064657610646611ae9565b5f60208284031215611bd5575f5ffd5b815180151581146104df575f5ffd5b60408101611bf282856118da565b6104df60208301846118da565b6020810161064682846118da565b808202811582820484141761064657610646611ae9565b634e487b7160e01b5f52604160045260245ffd5b634e487b7160e01b5f52603260045260245ffd5b8082018082111561064657610646611ae9565b634e487b7160e01b5f52603160045260245ffdfea26469706673582212207bd1b13e06c2d9ff639a8e0461e2248dfd74519d0afed7bb3837335c3b91432964736f6c634300081c0033",
  "linkReferences": {},
  "deployedLinkReferences": {},
  "immutableReferences": {},
  "inputSourceName": "project/src/orec/Orec.sol",
  "buildInfoId": "solc-0_8_28-4a0d56a45b4618077c16dd3bf3d662b92c5af080"
}