{
  "_format": "hh-sol-artifact-1",
  "contractName": "Respect1155",
  "sourceName": "src/respect1155/Respect1155.sol",
  "abi": [
    {
      "inputs": [
        {
          "internalType": "address",
          "name": "owner",
          "type": "address"
        },
        {
          "internalType": "string",
          "name": "uri_",
          "type": "string"
        },
        {
          "internalType": "string",
          "name": "contractURI_",
          "type": "string"
        }
      ],
      "stateMutability": "nonpayable",
      "type": "constructor"
    },
    {
      "inputs": [
        {
          "internalType": "address",
          "name": "sender",
          "type": "address"
        },
        {
          "internalType": "uint256",
          "name": "balance",
          "type": "uint256"
        },
        {
          "internalType": "uint256",
          "name": "needed",
          "type": "uint256"
        },
        {
          "internalType": "uint256",
          "name": "tokenId",
          "type": "uint256"
        }
      ],
      "name": "ERC1155InsufficientBalance",
      "type": "error"
    },
    {
      "inputs": [
        {
          "internalType": "address",
          "name": "approver",
          "type": "address"
        }
      ],
      "name": "ERC1155InvalidApprover",
      "type": "error"
    },
    {
      "inputs": [
        {
          "internalType": "uint256",
          "name": "idsLength",
          "type": "uint256"
        },
        {
          "internalType": "uint256",
          "name": "valuesLength",
          "type": "uint256"
        }
      ],
      "name": "ERC1155InvalidArrayLength",
      "type": "error"
    },
    {
      "inputs": [
        {
          "internalType": "address",
          "name": "operator",
          "type": "address"
        }
      ],
      "name": "ERC1155InvalidOperator",
      "type": "error"
    },
    {
      "inputs": [
        {
          "internalType": "address",
          "name": "receiver",
          "type": "address"
        }
      ],
      "name": "ERC1155InvalidReceiver",
      "type": "error"
    },
    {
      "inputs": [
        {
          "internalType": "address",
          "name": "receiver",
          "type": "address"
        },
        {
          "internalType": "bytes4",
          "name": "response",
          "type": "bytes4"
        }
      ],
      "name": "ERC1155InvalidReceiverResponse",
      "type": "error"
    },
    {
      "inputs": [
        {
          "internalType": "address",
          "name": "sender",
          "type": "address"
        }
      ],
      "name": "ERC1155InvalidSender",
      "type": "error"
    },
    {
      "inputs": [
        {
          "internalType": "address",
          "name": "operator",
          "type": "address"
        },
        {
          "internalType": "address",
          "name": "owner",
          "type": "address"
        }
      ],
      "name": "ERC1155MissingApprovalForAll",
      "type": "error"
    },
    {
      "inputs": [
        {
          "internalType": "address",
          "name": "receiver",
          "type": "address"
        },
        {
          "internalType": "bytes",
          "name": "reason",
          "type": "bytes"
        }
      ],
      "name": "ERC1155TransferRejected",
      "type": "error"
    },
    {
      "inputs": [
        {
          "internalType": "uint256",
          "name": "tokenId",
          "type": "uint256"
        }
      ],
      "name": "InvalidTokenId",
      "type": "error"
    },
    {
      "inputs": [
        {
          "internalType": "uint256",
          "name": "tokenId",
          "type": "uint256"
        }
      ],
      "name": "NoValueField",
      "type": "error"
    },
    {
      "inputs": [],
      "name": "OpNotSupported",
      "type": "error"
    },
    {
      "inputs": [
        {
          "internalType": "address",
          "name": "owner",
          "type": "address"
        }
      ],
      "name": "OwnableInvalidOwner",
      "type": "error"
    },
    {
      "inputs": [
        {
          "internalType": "address",
          "name": "account",
          "type": "address"
        }
      ],
      "name": "OwnableUnauthorizedAccount",
      "type": "error"
    },
    {
      "inputs": [
        {
          "internalType": "uint256",
          "name": "tokenId",
          "type": "uint256"
        }
      ],
      "name": "TokenAlreadyExists",
      "type": "error"
    },
    {
      "inputs": [
        {
          "internalType": "uint256",
          "name": "tokenId",
          "type": "uint256"
        }
      ],
      "name": "TokenDoesNotExist",
      "type": "error"
    },
    {
      "anonymous": false,
      "inputs": [
        {
          "indexed": true,
          "internalType": "address",
          "name": "account",
          "type": "address"
        },
        {
          "indexed": true,
          "internalType": "address",
          "name": "operator",
          "type": "address"
        },
        {
          "indexed": false,
          "internalType": "bool",
          "name": "approved",
          "type": "bool"
        }
      ],
      "name": "ApprovalForAll",
      "type": "event"
    },
    {
      "anonymous": false,
      "inputs": [],
      "name": "ContractURIUpdated",
      "type": "event"
    },
    {
      "anonymous": false,
      "inputs": [
        {
          "indexed": true,
          "internalType": "address",
          "name": "previousOwner",
          "type": "address"
        },
        {
          "indexed": true,
          "internalType": "address",
          "name": "newOwner",
          "type": "address"
        }
      ],
      "name": "OwnershipTransferred",
      "type": "event"
    },
    {
      "anonymous": false,
      "inputs": [
        {
          "indexed": true,
          "internalType": "address",
          "name": "operator",
          "type": "address"
        },
        {
          "indexed": true,
          "internalType": "address",
          "name": "from",
          "type": "address"
        },
        {
          "indexed": true,
          "internalType": "address",
          "name": "to",
          "type": "address"
        },
        {
          "indexed": false,
          "internalType": "uint256[]",
          "name": "ids",
          "type": "uint256[]"
        },
        {
          "indexed": false,
          "internalType": "uint256[]",
          "name": "values",
          "type": "uint256[]"
        }
      ],
      "name": "TransferBatch",
      "type": "event"
    },
    {
      "anonymous": false,
      "inputs": [
        {
          "indexed": true,
          "internalType": "address",
          "name": "operator",
          "type": "address"
        },
        {
          "indexed": true,
          "internalType": "address",
          "name": "from",
          "type": "address"
        },
        {
          "indexed": true,
          "internalType": "address",
          "name": "to",
          "type": "address"
        },
        {
          "indexed": false,
          "internalType": "uint256",
          "name": "id",
          "type": "uint256"
        },
        {
          "indexed": false,
          "internalType": "uint256",
          "name": "value",
          "type": "uint256"
        }
      ],
      "name": "TransferSingle",
      "type": "event"
    },
    {
      "anonymous": false,
      "inputs": [
        {
          "indexed": false,
          "internalType": "string",
          "name": "value",
          "type": "string"
        },
        {
          "indexed": true,
          "internalType": "uint256",
          "name": "id",
          "type": "uint256"
        }
      ],
      "name": "URI",
      "type": "event"
    },
    {
      "inputs": [
        {
          "internalType": "address",
          "name": "account",
          "type": "address"
        },
        {
          "internalType": "uint256",
          "name": "tokenId",
          "type": "uint256"
        }
      ],
      "name": "balanceOf",
      "outputs": [
        {
          "internalType": "uint256",
          "name": "",
          "type": "uint256"
        }
      ],
      "stateMutability": "view",
      "type": "function"
    },
    {
      "inputs": [
        {
          "internalType": "address[]",
          "name": "accounts",
          "type": "address[]"
        },
        {
          "internalType": "uint256[]",
          "name": "ids",
          "type": "uint256[]"
        }
      ],
      "name": "balanceOfBatch",
      "outputs": [
        {
          "internalType": "uint256[]",
          "name": "",
          "type": "uint256[]"
        }
      ],
      "stateMutability": "view",
      "type": "function"
    },
    {
      "inputs": [
        {
          "internalType": "uint256",
          "name": "tokenId",
          "type": "uint256"
        },
        {
          "internalType": "bytes",
          "name": "",
          "type": "bytes"
        }
      ],
      "name": "burnRespect",
      "outputs": [],
      "stateMutability": "nonpayable",
      "type": "function"
    },
    {
      "inputs": [
        {
          "internalType": "uint256[]",
          "name": "ids",
          "type": "uint256[]"
        },
        {
          "internalType": "bytes",
          "name": "",
          "type": "bytes"
        }
      ],
      "name": "burnRespectGroup",
      "outputs": [],
      "stateMutability": "nonpayable",
      "type": "function"
    },
    {
      "inputs": [],
      "name": "contractURI",
      "outputs": [
        {
          "internalType": "string",
          "name": "",
          "type": "string"
        }
      ],
      "stateMutability": "view",
      "type": "function"
    },
    {
      "inputs": [],
      "name": "fungibleId",
      "outputs": [
        {
          "internalType": "uint256",
          "name": "",
          "type": "uint256"
        }
      ],
      "stateMutability": "view",
      "type": "function"
    },
    {
      "inputs": [
        {
          "internalType": "address",
          "name": "",
          "type": "address"
        },
        {
          "internalType": "address",
          "name": "",
          "type": "address"
        }
      ],
      "name": "isApprovedForAll",
      "outputs": [
        {
          "internalType": "bool",
          "name": "",
          "type": "bool"
        }
      ],
      "stateMutability": "pure",
      "type": "function"
    },
    {
      "inputs": [
        {
          "components": [
            {
              "internalType": "uint256",
              "name": "id",
              "type": "uint256"
            },
            {
              "internalType": "uint64",
              "name": "value",
              "type": "uint64"
            }
          ],
          "internalType": "struct Respect1155.MintRequest",
          "name": "request",
          "type": "tuple"
        },
        {
          "internalType": "bytes",
          "name": "data",
          "type": "bytes"
        }
      ],
      "name": "mintRespect",
      "outputs": [],
      "stateMutability": "nonpayable",
      "type": "function"
    },
    {
      "inputs": [
        {
          "components": [
            {
              "internalType": "uint256",
              "name": "id",
              "type": "uint256"
            },
            {
              "internalType": "uint64",
              "name": "value",
              "type": "uint64"
            }
          ],
          "internalType": "struct Respect1155.MintRequest[]",
          "name": "requests",
          "type": "tuple[]"
        },
        {
          "internalType": "bytes",
          "name": "data",
          "type": "bytes"
        }
      ],
      "name": "mintRespectGroup",
      "outputs": [],
      "stateMutability": "nonpayable",
      "type": "function"
    },
    {
      "inputs": [],
      "name": "owner",
      "outputs": [
        {
          "internalType": "address",
          "name": "",
          "type": "address"
        }
      ],
      "stateMutability": "view",
      "type": "function"
    },
    {
      "inputs": [
        {
          "internalType": "uint256",
          "name": "tokenId",
          "type": "uint256"
        }
      ],
      "name": "ownerOf",
      "outputs": [
        {
          "internalType": "address",
          "name": "",
          "type": "address"
        }
      ],
      "stateMutability": "pure",
      "type": "function"
    },
    {
      "inputs": [],
      "name": "renounceOwnership",
      "outputs": [],
      "stateMutability": "nonpayable",
      "type": "function"
    },
    {
      "inputs": [
        {
          "internalType": "address",
          "name": "account",
          "type": "address"
        }
      ],
      "name": "respectOf",
      "outputs": [
        {
          "internalType": "uint256",
          "name": "",
          "type": "uint256"
        }
      ],
      "stateMutability": "view",
      "type": "function"
    },
    {
      "inputs": [
        {
          "internalType": "address[]",
          "name": "accounts",
          "type": "address[]"
        }
      ],
      "name": "respectOfBatch",
      "outputs": [
        {
          "internalType": "uint256[]",
          "name": "",
          "type": "uint256[]"
        }
      ],
      "stateMutability": "view",
      "type": "function"
    },
    {
      "inputs": [
        {
          "internalType": "address",
          "name": "",
          "type": "address"
        },
        {
          "internalType": "address",
          "name": "",
          "type": "address"
        },
        {
          "internalType": "uint256[]",
          "name": "",
          "type": "uint256[]"
        },
        {
          "internalType": "uint256[]",
          "name": "",
          "type": "uint256[]"
        },
        {
          "internalType": "bytes",
          "name": "",
          "type": "bytes"
        }
      ],
      "name": "safeBatchTransferFrom",
      "outputs": [],
      "stateMutability": "pure",
      "type": "function"
    },
    {
      "inputs": [
        {
          "internalType": "address",
          "name": "",
          "type": "address"
        },
        {
          "internalType": "address",
          "name": "",
          "type": "address"
        },
        {
          "internalType": "uint256",
          "name": "",
          "type": "uint256"
        },
        {
          "internalType": "uint256",
          "name": "",
          "type": "uint256"
        },
        {
          "internalType": "bytes",
          "name": "",
          "type": "bytes"
        }
      ],
      "name": "safeTransferFrom",
      "outputs": [],
      "stateMutability": "pure",
      "type": "function"
    },
    {
      "inputs": [
        {
          "internalType": "address",
          "name": "",
          "type": "address"
        },
        {
          "internalType": "bool",
          "name": "",
          "type": "bool"
        }
      ],
      "name": "setApprovalForAll",
      "outputs": [],
      "stateMutability": "pure",
      "type": "function"
    },
    {
      "inputs": [
        {
          "internalType": "string",
          "name": "uri",
          "type": "string"
        }
      ],
      "name": "setContractURI",
      "outputs": [],
      "stateMutability": "nonpayable",
      "type": "function"
    },
    {
      "inputs": [
        {
          "internalType": "string",
          "name": "uri",
          "type": "string"
        }
      ],
      "name": "setURI",
      "outputs": [],
      "stateMutability": "nonpayable",
      "type": "function"
    },
    {
      "inputs": [
        {
          "internalType": "address[]",
          "name": "accounts",
          "type": "address[]"
        }
      ],
      "name": "sumRespectOf",
      "outputs": [
        {
          "internalType": "uint256",
          "name": "",
          "type": "uint256"
        }
      ],
      "stateMutability": "view",
      "type": "function"
    },
    {
      "inputs": [
        {
          "internalType": "bytes4",
          "name": "interfaceId",
          "type": "bytes4"
        }
      ],
      "name": "supportsInterface",
      "outputs": [
        {
          "internalType": "bool",
          "name": "",
          "type": "bool"
        }
      ],
      "stateMutability": "view",
      "type": "function"
    },
    {
      "inputs": [
        {
          "internalType": "uint256",
          "name": "tokenId",
          "type": "uint256"
        }
      ],
      "name": "tokenExists",
      "outputs": [
        {
          "internalType": "bool",
          "name": "",
          "type": "bool"
        }
      ],
      "stateMutability": "view",
      "type": "function"
    },
    {
      "inputs": [],
      "name": "totalRespect",
      "outputs": [
        {
          "internalType": "uint256",
          "name": "",
          "type": "uint256"
        }
      ],
      "stateMutability": "view",
      "type": "function"
    },
    {
      "inputs": [
        {
          "internalType": "address",
          "name": "newOwner",
          "type": "address"
        }
      ],
      "name": "transferOwnership",
      "outputs": [],
      "stateMutability": "nonpayable",
      "type": "function"
    },
    {
      "inputs": [
        {
          "internalType": "uint256",
          "name": "",
          "type": "uint256"
        }
      ],
      "name": "uri",
      "outputs": [
        {
          "internalType": "string",
          "name": "",
          "type": "string"
        }
      ],
      "stateMutability": "view",
      "type": "function"
    },
    {
      "inputs": [
        {
          "internalType": "uint256",
          "name": "tokenId",
          "type": "uint256"
        }
      ],
      "name": "valueOfToken",
      "outputs": [
        {
          "internalType": "uint64",
          "name": "",
          "type": "uint64"
        }
      ],
      "stateMutability": "view",
      "type": "function"
    }
  ],
  "bytecode": "0x608060405234801561001057600080fd5b506040516134c73803806134c7833981810160405281019061003291906103ca565b828282610044826100df60201b60201c565b610053816100f260201b60201c565b5050600073ffffffffffffffffffffffffffffffffffffffff168173ffffffffffffffffffffffffffffffffffffffff16036100c75760006040517f1e4fbdf70000000000000000000000000000000000000000000000000000000081526004016100be9190610464565b60405180910390fd5b6100d68161013160201b60201c565b50505050610772565b80600390816100ee91906106a0565b5050565b806004908161010191906106a0565b507fa5d4097edda6d87cb9329af83fb3712ef77eeb13738ffe43cc35a4ce305ad96260405160405180910390a150565b6000600560009054906101000a900473ffffffffffffffffffffffffffffffffffffffff16905081600560006101000a81548173ffffffffffffffffffffffffffffffffffffffff021916908373ffffffffffffffffffffffffffffffffffffffff1602179055508173ffffffffffffffffffffffffffffffffffffffff168173ffffffffffffffffffffffffffffffffffffffff167f8be0079c531659141344cd1fd0a4f28419497f9722a3daafe3b4186f6b6457e060405160405180910390a35050565b6000604051905090565b600080fd5b600080fd5b600073ffffffffffffffffffffffffffffffffffffffff82169050919050565b60006102368261020b565b9050919050565b6102468161022b565b811461025157600080fd5b50565b6000815190506102638161023d565b92915050565b600080fd5b600080fd5b6000601f19601f8301169050919050565b7f4e487b7100000000000000000000000000000000000000000000000000000000600052604160045260246000fd5b6102bc82610273565b810181811067ffffffffffffffff821117156102db576102da610284565b5b80604052505050565b60006102ee6101f7565b90506102fa82826102b3565b919050565b600067ffffffffffffffff82111561031a57610319610284565b5b61032382610273565b9050602081019050919050565b60005b8381101561034e578082015181840152602081019050610333565b60008484015250505050565b600061036d610368846102ff565b6102e4565b9050828152602081018484840111156103895761038861026e565b5b610394848285610330565b509392505050565b600082601f8301126103b1576103b0610269565b5b81516103c184826020860161035a565b91505092915050565b6000806000606084860312156103e3576103e2610201565b5b60006103f186828701610254565b935050602084015167ffffffffffffffff81111561041257610411610206565b5b61041e8682870161039c565b925050604084015167ffffffffffffffff81111561043f5761043e610206565b5b61044b8682870161039c565b9150509250925092565b61045e8161022b565b82525050565b60006020820190506104796000830184610455565b92915050565b600081519050919050565b7f4e487b7100000000000000000000000000000000000000000000000000000000600052602260045260246000fd5b600060028204905060018216806104d157607f821691505b6020821081036104e4576104e361048a565b5b50919050565b60008190508160005260206000209050919050565b60006020601f8301049050919050565b600082821b905092915050565b60006008830261054c7fffffffffffffffffffffffffffffffffffffffffffffffffffffffffffffffff8261050f565b610556868361050f565b95508019841693508086168417925050509392505050565b6000819050919050565b6000819050919050565b600061059d6105986105938461056e565b610578565b61056e565b9050919050565b6000819050919050565b6105b783610582565b6105cb6105c3826105a4565b84845461051c565b825550505050565b600090565b6105e06105d3565b6105eb8184846105ae565b505050565b5b8181101561060f576106046000826105d8565b6001810190506105f1565b5050565b601f82111561065457610625816104ea565b61062e846104ff565b8101602085101561063d578190505b610651610649856104ff565b8301826105f0565b50505b505050565b600082821c905092915050565b600061067760001984600802610659565b1980831691505092915050565b60006106908383610666565b9150826002028217905092915050565b6106a98261047f565b67ffffffffffffffff8111156106c2576106c1610284565b5b6106cc82546104b9565b6106d7828285610613565b600060209050601f83116001811461070a57600084156106f8578287015190505b6107028582610684565b86555061076a565b601f198416610718866104ea565b60005b828110156107405784890151825560018201915060208501945060208101905061071b565b8683101561075d5784890151610759601f891682610666565b8355505b6001600288020188555050505b505050505050565b612d46806107816000396000f3fe608060405234801561001057600080fd5b506004361061018c5760003560e01c80636352211e116100de578063b4de12ce11610097578063e8a3d48511610071578063e8a3d485146104b5578063e985e9c5146104d3578063f242432a14610503578063f2fde38b1461051f5761018c565b8063b4de12ce14610461578063d8b947d01461047d578063dfd469ed146104995761018c565b80636352211e146103b3578063715018a6146103e3578063854a6dbb146103ed5780638da5cb5b1461040b578063938e3d7b14610429578063a22cb465146104455761018c565b80631fb221be1161014b5780632eb2c2d6116101255780632eb2c2d61461031b5780634e1273f41461033757806358970ca8146103675780635da7e1d4146103975761018c565b80631fb221be1461029d5780632363b4aa146102cd57806325a11bab146102fd5761018c565b8062923f9e14610191578062fdd58e146101c157806301ffc9a7146101f157806302fe5305146102215780630e89341c1461023d57806314e51b5d1461026d575b600080fd5b6101ab60048036038101906101a69190611ab2565b61053b565b6040516101b89190611afa565b60405180910390f35b6101db60048036038101906101d69190611b73565b610560565b6040516101e89190611bc2565b60405180910390f35b61020b60048036038101906102069190611c35565b6105ee565b6040516102189190611afa565b60405180910390f35b61023b60048036038101906102369190611cc7565b6107a0565b005b61025760048036038101906102529190611ab2565b6107f9565b6040516102649190611da4565b60405180910390f35b61028760048036038101906102829190611e1c565b61088d565b6040516102949190611f27565b60405180910390f35b6102b760048036038101906102b29190611e1c565b61097e565b6040516102c49190611bc2565b60405180910390f35b6102e760048036038101906102e29190611ab2565b610a14565b6040516102f49190611f6c565b60405180910390f35b610305610a6a565b6040516103129190611bc2565b60405180910390f35b6103356004803603810190610330919061217a565b610a6f565b005b610351600480360381019061034c919061229f565b610aa1565b60405161035e9190611f27565b60405180910390f35b610381600480360381019061037c9190612320565b610c3a565b60405161038e9190611bc2565b60405180910390f35b6103b160048036038101906103ac91906123f9565b610c4c565b005b6103cd60048036038101906103c89190611ab2565b610cf8565b6040516103da9190612489565b60405180910390f35b6103eb610d80565b005b6103f5610d94565b6040516104029190611bc2565b60405180910390f35b610413610d9e565b6040516104209190612489565b60405180910390f35b610443600480360381019061043e9190611cc7565b610dc8565b005b61045f600480360381019061045a91906124d0565b610e21565b005b61047b60048036038101906104769190612510565b610e53565b005b61049760048036038101906104929190612591565b610e9f565b005b6104b360048036038101906104ae9190612615565b610eb5565b005b6104bd610f27565b6040516104ca9190611da4565b60405180910390f35b6104ed60048036038101906104e89190612675565b610fb9565b6040516104fa9190611afa565b60405180910390f35b61051d600480360381019061051891906126b5565b610fed565b005b61053960048036038101906105349190612320565b61101f565b005b600080610547836110a5565b905060008167ffffffffffffffff161415915050919050565b600080820361057957610572836110d6565b90506105e8565b600061058483610cf8565b90508373ffffffffffffffffffffffffffffffffffffffff168173ffffffffffffffffffffffffffffffffffffffff161415806105d3575060006105c7846110a5565b67ffffffffffffffff16145b156105e25760009150506105e8565b60019150505b92915050565b60007f58970ca8000000000000000000000000000000000000000000000000000000007bffffffffffffffffffffffffffffffffffffffffffffffffffffffff1916827bffffffffffffffffffffffffffffffffffffffffffffffffffffffff191614806106b957507f624de688000000000000000000000000000000000000000000000000000000007bffffffffffffffffffffffffffffffffffffffffffffffffffffffff1916827bffffffffffffffffffffffffffffffffffffffffffffffffffffffff1916145b8061072157507fd9b67a26000000000000000000000000000000000000000000000000000000007bffffffffffffffffffffffffffffffffffffffffffffffffffffffff1916827bffffffffffffffffffffffffffffffffffffffffffffffffffffffff1916145b8061078957507f0e89341c000000000000000000000000000000000000000000000000000000007bffffffffffffffffffffffffffffffffffffffffffffffffffffffff1916827bffffffffffffffffffffffffffffffffffffffffffffffffffffffff1916145b8061079957506107988261111e565b5b9050919050565b6107a8611188565b6107f582828080601f016020809104026020016040519081016040528093929190818152602001838380828437600081840152601f19601f8201169050808301925050505050505061120f565b5050565b6060600380546108089061277b565b80601f01602080910402602001604051908101604052809291908181526020018280546108349061277b565b80156108815780601f1061085657610100808354040283529160200191610881565b820191906000526020600020905b81548152906001019060200180831161086457829003601f168201915b50505050509050919050565b606060008383905067ffffffffffffffff8111156108ae576108ad611f87565b5b6040519080825280602002602001820160405280156108dc5781602001602082028036833780820191505090505b50905060005b848490508110156109735761094961094482878780806020026020016040519081016040528093929190818152602001838360200280828437600081840152601f19601f8201169050808301925050505050505061122290919063ffffffff16565b610c3a565b82828151811061095c5761095b6127ac565b5b6020026020010181815250508060010190506108e2565b508091505092915050565b6000806000905060005b84849050811015610a09576109ef6109ea82878780806020026020016040519081016040528093929190818152602001838360200280828437600081840152601f19601f8201169050808301925050505050505061122290919063ffffffff16565b610c3a565b826109fa919061280a565b91508080600101915050610988565b508091505092915050565b6000808203610a5a57816040517f71174861000000000000000000000000000000000000000000000000000000008152600401610a519190611bc2565b60405180910390fd5b610a63826110a5565b9050919050565b600081565b6040517f5f0ac46800000000000000000000000000000000000000000000000000000000815260040160405180910390fd5b6060828290508585905014610af55782829050858590506040517f5b059991000000000000000000000000000000000000000000000000000000008152600401610aec92919061283e565b60405180910390fd5b60008585905067ffffffffffffffff811115610b1457610b13611f87565b5b604051908082528060200260200182016040528015610b425781602001602082028036833780820191505090505b50905060005b86869050811015610c2d57610c03610baa82898980806020026020016040519081016040528093929190818152602001838360200280828437600081840152601f19601f8201169050808301925050505050505061122290919063ffffffff16565b610bfe83888880806020026020016040519081016040528093929190818152602001838360200280828437600081840152601f19601f8201169050808301925050505050505061123690919063ffffffff16565b610560565b828281518110610c1657610c156127ac565b5b602002602001018181525050806001019050610b48565b5080915050949350505050565b6000610c45826110d6565b9050919050565b610c54611188565b60005b84849050811015610cf15736858583818110610c7657610c756127ac565b5b9050604002019050610ce38160000135826020016020810190610c999190612893565b86868080601f016020809104026020016040519081016040528093929190818152602001838380828437600081840152601f19601f8201169050808301925050505050505061124a565b508080600101915050610c57565b5050505050565b600080610d0483611472565b9050600073ffffffffffffffffffffffffffffffffffffffff168173ffffffffffffffffffffffffffffffffffffffff1603610d7757826040517fed15e6cf000000000000000000000000000000000000000000000000000000008152600401610d6e9190611bc2565b60405180910390fd5b80915050919050565b610d88611188565b610d926000611484565b565b6000600254905090565b6000600560009054906101000a900473ffffffffffffffffffffffffffffffffffffffff16905090565b610dd0611188565b610e1d82828080601f016020809104026020016040519081016040528093929190818152602001838380828437600081840152601f19601f8201169050808301925050505050505061154a565b5050565b6040517f5f0ac46800000000000000000000000000000000000000000000000000000000815260040160405180910390fd5b610e5b611188565b60005b84849050811015610e9857610e8b858583818110610e7f57610e7e6127ac565b5b90506020020135611589565b8080600101915050610e5e565b5050505050565b610ea7611188565b610eb083611589565b505050565b610ebd611188565b610f228360000135846020016020810190610ed89190612893565b84848080601f016020809104026020016040519081016040528093929190818152602001838380828437600081840152601f19601f8201169050808301925050505050505061124a565b505050565b606060048054610f369061277b565b80601f0160208091040260200160405190810160405280929190818152602001828054610f629061277b565b8015610faf5780601f10610f8457610100808354040283529160200191610faf565b820191906000526020600020905b815481529060010190602001808311610f9257829003601f168201915b5050505050905090565b60006040517f5f0ac46800000000000000000000000000000000000000000000000000000000815260040160405180910390fd5b6040517f5f0ac46800000000000000000000000000000000000000000000000000000000815260040160405180910390fd5b611027611188565b600073ffffffffffffffffffffffffffffffffffffffff168173ffffffffffffffffffffffffffffffffffffffff16036110995760006040517f1e4fbdf70000000000000000000000000000000000000000000000000000000081526004016110909190612489565b60405180910390fd5b6110a281611484565b50565b60006001600083815260200190815260200160002060009054906101000a900467ffffffffffffffff169050919050565b60008060008373ffffffffffffffffffffffffffffffffffffffff1673ffffffffffffffffffffffffffffffffffffffff168152602001908152602001600020549050919050565b60007f01ffc9a7000000000000000000000000000000000000000000000000000000007bffffffffffffffffffffffffffffffffffffffffffffffffffffffff1916827bffffffffffffffffffffffffffffffffffffffffffffffffffffffff1916149050919050565b611190611778565b73ffffffffffffffffffffffffffffffffffffffff166111ae610d9e565b73ffffffffffffffffffffffffffffffffffffffff161461120d576111d1611778565b6040517f118cdaa70000000000000000000000000000000000000000000000000000000081526004016112049190612489565b60405180910390fd5b565b806003908161121e9190612a6c565b5050565b600060208202602084010151905092915050565b600060208202602084010151905092915050565b600061125584611472565b90506000339050600073ffffffffffffffffffffffffffffffffffffffff168273ffffffffffffffffffffffffffffffffffffffff16036112ce5760006040517f57f447ce0000000000000000000000000000000000000000000000000000000081526004016112c59190612489565b60405180910390fd5b6112d78561053b565b1561131957846040517f6025413b0000000000000000000000000000000000000000000000000000000081526004016113109190611bc2565b60405180910390fd5b836001600087815260200190815260200160002060006101000a81548167ffffffffffffffff021916908367ffffffffffffffff1602179055508367ffffffffffffffff166002600082825461136f919061280a565b925050819055508367ffffffffffffffff166000808473ffffffffffffffffffffffffffffffffffffffff1673ffffffffffffffffffffffffffffffffffffffff168152602001908152602001600020600082825401925050819055506000806113d98787611780565b915091508373ffffffffffffffffffffffffffffffffffffffff16600073ffffffffffffffffffffffffffffffffffffffff168473ffffffffffffffffffffffffffffffffffffffff167f4a39dc06d4c0dbc64b70af90fd698a233a518aa5d07e595d983b8c0526c8f7fb8585604051611454929190612b3e565b60405180910390a461146983858484896118b2565b50505050505050565b600061147d82611a59565b9050919050565b6000600560009054906101000a900473ffffffffffffffffffffffffffffffffffffffff16905081600560006101000a81548173ffffffffffffffffffffffffffffffffffffffff021916908373ffffffffffffffffffffffffffffffffffffffff1602179055508173ffffffffffffffffffffffffffffffffffffffff168173ffffffffffffffffffffffffffffffffffffffff167f8be0079c531659141344cd1fd0a4f28419497f9722a3daafe3b4186f6b6457e060405160405180910390a35050565b80600490816115599190612a6c565b507fa5d4097edda6d87cb9329af83fb3712ef77eeb13738ffe43cc35a4ce305ad96260405160405180910390a150565b600061159482610cf8565b905060006115a1836110a5565b905060008167ffffffffffffffff16036115f257826040517fc927e5bf0000000000000000000000000000000000000000000000000000000081526004016115e99190611bc2565b60405180910390fd5b6001600084815260200190815260200160002060006101000a81549067ffffffffffffffff021916905560008060008473ffffffffffffffffffffffffffffffffffffffff1673ffffffffffffffffffffffffffffffffffffffff1681526020019081526020016000205490508167ffffffffffffffff16816116759190612b75565b6000808573ffffffffffffffffffffffffffffffffffffffff1673ffffffffffffffffffffffffffffffffffffffff168152602001908152602001600020819055508167ffffffffffffffff16600260008282546116d39190612b75565b925050819055506000806116e78685611780565b915091506000339050600073ffffffffffffffffffffffffffffffffffffffff168673ffffffffffffffffffffffffffffffffffffffff168273ffffffffffffffffffffffffffffffffffffffff167f4a39dc06d4c0dbc64b70af90fd698a233a518aa5d07e595d983b8c0526c8f7fb8686604051611767929190612b3e565b60405180910390a450505050505050565b600033905090565b606080600267ffffffffffffffff81111561179e5761179d611f87565b5b6040519080825280602002602001820160405280156117cc5781602001602082028036833780820191505090505b5091506000826000815181106117e5576117e46127ac565b5b6020026020010181815250508382600181518110611806576118056127ac565b5b602002602001018181525050600267ffffffffffffffff81111561182d5761182c611f87565b5b60405190808252806020026020018201604052801561185b5781602001602082028036833780820191505090505b5090508267ffffffffffffffff168160008151811061187d5761187c6127ac565b5b60200260200101818152505060018160018151811061189f5761189e6127ac565b5b6020026020010181815250509250929050565b60008473ffffffffffffffffffffffffffffffffffffffff163b1115611a52578373ffffffffffffffffffffffffffffffffffffffff1663bc197c818660008686866040518663ffffffff1660e01b8152600401611914959493929190612bfe565b6020604051808303816000875af192505050801561195057506040513d601f19601f8201168201806040525081019061194d9190612c7b565b60015b6119c5573d8060008114611980576040519150601f19603f3d011682016040523d82523d6000602084013e611985565b606091505b5084816040517f6cb329180000000000000000000000000000000000000000000000000000000081526004016119bc929190612ca8565b60405180910390fd5b63bc197c8160e01b7bffffffffffffffffffffffffffffffffffffffffffffffffffffffff1916817bffffffffffffffffffffffffffffffffffffffffffffffffffffffff191614611a505784816040517f07e34740000000000000000000000000000000000000000000000000000000008152600401611a47929190612ce7565b60405180910390fd5b505b5050505050565b60008082905080915050919050565b6000604051905090565b600080fd5b600080fd5b6000819050919050565b611a8f81611a7c565b8114611a9a57600080fd5b50565b600081359050611aac81611a86565b92915050565b600060208284031215611ac857611ac7611a72565b5b6000611ad684828501611a9d565b91505092915050565b60008115159050919050565b611af481611adf565b82525050565b6000602082019050611b0f6000830184611aeb565b92915050565b600073ffffffffffffffffffffffffffffffffffffffff82169050919050565b6000611b4082611b15565b9050919050565b611b5081611b35565b8114611b5b57600080fd5b50565b600081359050611b6d81611b47565b92915050565b60008060408385031215611b8a57611b89611a72565b5b6000611b9885828601611b5e565b9250506020611ba985828601611a9d565b9150509250929050565b611bbc81611a7c565b82525050565b6000602082019050611bd76000830184611bb3565b92915050565b60007fffffffff0000000000000000000000000000000000000000000000000000000082169050919050565b611c1281611bdd565b8114611c1d57600080fd5b50565b600081359050611c2f81611c09565b92915050565b600060208284031215611c4b57611c4a611a72565b5b6000611c5984828501611c20565b91505092915050565b600080fd5b600080fd5b600080fd5b60008083601f840112611c8757611c86611c62565b5b8235905067ffffffffffffffff811115611ca457611ca3611c67565b5b602083019150836001820283011115611cc057611cbf611c6c565b5b9250929050565b60008060208385031215611cde57611cdd611a72565b5b600083013567ffffffffffffffff811115611cfc57611cfb611a77565b5b611d0885828601611c71565b92509250509250929050565b600081519050919050565b600082825260208201905092915050565b60005b83811015611d4e578082015181840152602081019050611d33565b60008484015250505050565b6000601f19601f8301169050919050565b6000611d7682611d14565b611d808185611d1f565b9350611d90818560208601611d30565b611d9981611d5a565b840191505092915050565b60006020820190508181036000830152611dbe8184611d6b565b905092915050565b60008083601f840112611ddc57611ddb611c62565b5b8235905067ffffffffffffffff811115611df957611df8611c67565b5b602083019150836020820283011115611e1557611e14611c6c565b5b9250929050565b60008060208385031215611e3357611e32611a72565b5b600083013567ffffffffffffffff811115611e5157611e50611a77565b5b611e5d85828601611dc6565b92509250509250929050565b600081519050919050565b600082825260208201905092915050565b6000819050602082019050919050565b611e9e81611a7c565b82525050565b6000611eb08383611e95565b60208301905092915050565b6000602082019050919050565b6000611ed482611e69565b611ede8185611e74565b9350611ee983611e85565b8060005b83811015611f1a578151611f018882611ea4565b9750611f0c83611ebc565b925050600181019050611eed565b5085935050505092915050565b60006020820190508181036000830152611f418184611ec9565b905092915050565b600067ffffffffffffffff82169050919050565b611f6681611f49565b82525050565b6000602082019050611f816000830184611f5d565b92915050565b7f4e487b7100000000000000000000000000000000000000000000000000000000600052604160045260246000fd5b611fbf82611d5a565b810181811067ffffffffffffffff82111715611fde57611fdd611f87565b5b80604052505050565b6000611ff1611a68565b9050611ffd8282611fb6565b919050565b600067ffffffffffffffff82111561201d5761201c611f87565b5b602082029050602081019050919050565b600061204161203c84612002565b611fe7565b9050808382526020820190506020840283018581111561206457612063611c6c565b5b835b8181101561208d57806120798882611a9d565b845260208401935050602081019050612066565b5050509392505050565b600082601f8301126120ac576120ab611c62565b5b81356120bc84826020860161202e565b91505092915050565b600080fd5b600067ffffffffffffffff8211156120e5576120e4611f87565b5b6120ee82611d5a565b9050602081019050919050565b82818337600083830152505050565b600061211d612118846120ca565b611fe7565b905082815260208101848484011115612139576121386120c5565b5b6121448482856120fb565b509392505050565b600082601f83011261216157612160611c62565b5b813561217184826020860161210a565b91505092915050565b600080600080600060a0868803121561219657612195611a72565b5b60006121a488828901611b5e565b95505060206121b588828901611b5e565b945050604086013567ffffffffffffffff8111156121d6576121d5611a77565b5b6121e288828901612097565b935050606086013567ffffffffffffffff81111561220357612202611a77565b5b61220f88828901612097565b925050608086013567ffffffffffffffff8111156122305761222f611a77565b5b61223c8882890161214c565b9150509295509295909350565b60008083601f84011261225f5761225e611c62565b5b8235905067ffffffffffffffff81111561227c5761227b611c67565b5b60208301915083602082028301111561229857612297611c6c565b5b9250929050565b600080600080604085870312156122b9576122b8611a72565b5b600085013567ffffffffffffffff8111156122d7576122d6611a77565b5b6122e387828801611dc6565b9450945050602085013567ffffffffffffffff81111561230657612305611a77565b5b61231287828801612249565b925092505092959194509250565b60006020828403121561233657612335611a72565b5b600061234484828501611b5e565b91505092915050565b60008083601f84011261236357612362611c62565b5b8235905067ffffffffffffffff8111156123805761237f611c67565b5b60208301915083604082028301111561239c5761239b611c6c565b5b9250929050565b60008083601f8401126123b9576123b8611c62565b5b8235905067ffffffffffffffff8111156123d6576123d5611c67565b5b6020830191508360018202830111156123f2576123f1611c6c565b5b9250929050565b6000806000806040858703121561241357612412611a72565b5b600085013567ffffffffffffffff81111561243157612430611a77565b5b61243d8782880161234d565b9450945050602085013567ffffffffffffffff8111156124605761245f611a77565b5b61246c878288016123a3565b925092505092959194509250565b61248381611b35565b82525050565b600060208201905061249e600083018461247a565b92915050565b6124ad81611adf565b81146124b857600080fd5b50565b6000813590506124ca816124a4565b92915050565b600080604083850312156124e7576124e6611a72565b5b60006124f585828601611b5e565b9250506020612506858286016124bb565b9150509250929050565b6000806000806040858703121561252a57612529611a72565b5b600085013567ffffffffffffffff81111561254857612547611a77565b5b61255487828801612249565b9450945050602085013567ffffffffffffffff81111561257757612576611a77565b5b612583878288016123a3565b925092505092959194509250565b6000806000604084860312156125aa576125a9611a72565b5b60006125b886828701611a9d565b935050602084013567ffffffffffffffff8111156125d9576125d8611a77565b5b6125e5868287016123a3565b92509250509250925092565b600080fd5b60006040828403121561260c5761260b6125f1565b5b81905092915050565b60008060006060848603121561262e5761262d611a72565b5b600061263c868287016125f6565b935050604084013567ffffffffffffffff81111561265d5761265c611a77565b5b612669868287016123a3565b92509250509250925092565b6000806040838503121561268c5761268b611a72565b5b600061269a85828601611b5e565b92505060206126ab85828601611b5e565b9150509250929050565b600080600080600060a086880312156126d1576126d0611a72565b5b60006126df88828901611b5e565b95505060206126f088828901611b5e565b945050604061270188828901611a9d565b935050606061271288828901611a9d565b925050608086013567ffffffffffffffff81111561273357612732611a77565b5b61273f8882890161214c565b9150509295509295909350565b7f4e487b7100000000000000000000000000000000000000000000000000000000600052602260045260246000fd5b6000600282049050600182168061279357607f821691505b6020821081036127a6576127a561274c565b5b50919050565b7f4e487b7100000000000000000000000000000000000000000000000000000000600052603260045260246000fd5b7f4e487b7100000000000000000000000000000000000000000000000000000000600052601160045260246000fd5b600061281582611a7c565b915061282083611a7c565b9250828201905080821115612838576128376127db565b5b92915050565b60006040820190506128536000830185611bb3565b6128606020830184611bb3565b9392505050565b61287081611f49565b811461287b57600080fd5b50565b60008135905061288d81612867565b92915050565b6000602082840312156128a9576128a8611a72565b5b60006128b78482850161287e565b91505092915050565b60008190508160005260206000209050919050565b60006020601f8301049050919050565b600082821b905092915050565b6000600883026129227fffffffffffffffffffffffffffffffffffffffffffffffffffffffffffffffff826128e5565b61292c86836128e5565b95508019841693508086168417925050509392505050565b6000819050919050565b600061296961296461295f84611a7c565b612944565b611a7c565b9050919050565b6000819050919050565b6129838361294e565b61299761298f82612970565b8484546128f2565b825550505050565b600090565b6129ac61299f565b6129b781848461297a565b505050565b5b818110156129db576129d06000826129a4565b6001810190506129bd565b5050565b601f821115612a20576129f1816128c0565b6129fa846128d5565b81016020851015612a09578190505b612a1d612a15856128d5565b8301826129bc565b50505b505050565b600082821c905092915050565b6000612a4360001984600802612a25565b1980831691505092915050565b6000612a5c8383612a32565b9150826002028217905092915050565b612a7582611d14565b67ffffffffffffffff811115612a8e57612a8d611f87565b5b612a98825461277b565b612aa38282856129df565b600060209050601f831160018114612ad65760008415612ac4578287015190505b612ace8582612a50565b865550612b36565b601f198416612ae4866128c0565b60005b82811015612b0c57848901518255600182019150602085019450602081019050612ae7565b86831015612b295784890151612b25601f891682612a32565b8355505b6001600288020188555050505b505050505050565b60006040820190508181036000830152612b588185611ec9565b90508181036020830152612b6c8184611ec9565b90509392505050565b6000612b8082611a7c565b9150612b8b83611a7c565b9250828203905081811115612ba357612ba26127db565b5b92915050565b600081519050919050565b600082825260208201905092915050565b6000612bd082612ba9565b612bda8185612bb4565b9350612bea818560208601611d30565b612bf381611d5a565b840191505092915050565b600060a082019050612c13600083018861247a565b612c20602083018761247a565b8181036040830152612c328186611ec9565b90508181036060830152612c468185611ec9565b90508181036080830152612c5a8184612bc5565b90509695505050505050565b600081519050612c7581611c09565b92915050565b600060208284031215612c9157612c90611a72565b5b6000612c9f84828501612c66565b91505092915050565b6000604082019050612cbd600083018561247a565b8181036020830152612ccf8184612bc5565b90509392505050565b612ce181611bdd565b82525050565b6000604082019050612cfc600083018561247a565b612d096020830184612cd8565b939250505056fea264697066735822122094b98b4e84b267fd032a6ad8ffaeae7f96b9d26cc8c864411bbbb23b01a5a19b64736f6c634300081c0033",
  "linkReferences": {},
  "deployedLinkReferences": {}
}