{
  "_format": "hh-sol-artifact-1",
  "contractName": "Respect1155",
  "sourceName": "contracts/Respect1155.sol",
  "abi": [
    {
      "inputs": [
        {
          "internalType": "address",
          "name": "owner",
          "type": "address"
        },
        {
          "internalType": "string",
          "name": "uri_",
          "type": "string"
        }
      ],
      "stateMutability": "nonpayable",
      "type": "constructor"
    },
    {
      "inputs": [
        {
          "internalType": "address",
          "name": "sender",
          "type": "address"
        },
        {
          "internalType": "uint256",
          "name": "balance",
          "type": "uint256"
        },
        {
          "internalType": "uint256",
          "name": "needed",
          "type": "uint256"
        },
        {
          "internalType": "uint256",
          "name": "tokenId",
          "type": "uint256"
        }
      ],
      "name": "ERC1155InsufficientBalance",
      "type": "error"
    },
    {
      "inputs": [
        {
          "internalType": "address",
          "name": "approver",
          "type": "address"
        }
      ],
      "name": "ERC1155InvalidApprover",
      "type": "error"
    },
    {
      "inputs": [
        {
          "internalType": "uint256",
          "name": "idsLength",
          "type": "uint256"
        },
        {
          "internalType": "uint256",
          "name": "valuesLength",
          "type": "uint256"
        }
      ],
      "name": "ERC1155InvalidArrayLength",
      "type": "error"
    },
    {
      "inputs": [
        {
          "internalType": "address",
          "name": "operator",
          "type": "address"
        }
      ],
      "name": "ERC1155InvalidOperator",
      "type": "error"
    },
    {
      "inputs": [
        {
          "internalType": "address",
          "name": "receiver",
          "type": "address"
        }
      ],
      "name": "ERC1155InvalidReceiver",
      "type": "error"
    },
    {
      "inputs": [
        {
          "internalType": "address",
          "name": "sender",
          "type": "address"
        }
      ],
      "name": "ERC1155InvalidSender",
      "type": "error"
    },
    {
      "inputs": [
        {
          "internalType": "address",
          "name": "operator",
          "type": "address"
        },
        {
          "internalType": "address",
          "name": "owner",
          "type": "address"
        }
      ],
      "name": "ERC1155MissingApprovalForAll",
      "type": "error"
    },
    {
      "inputs": [],
      "name": "OpNotSupported",
      "type": "error"
    },
    {
      "inputs": [
        {
          "internalType": "address",
          "name": "owner",
          "type": "address"
        }
      ],
      "name": "OwnableInvalidOwner",
      "type": "error"
    },
    {
      "inputs": [
        {
          "internalType": "address",
          "name": "account",
          "type": "address"
        }
      ],
      "name": "OwnableUnauthorizedAccount",
      "type": "error"
    },
    {
      "anonymous": false,
      "inputs": [
        {
          "indexed": true,
          "internalType": "address",
          "name": "account",
          "type": "address"
        },
        {
          "indexed": true,
          "internalType": "address",
          "name": "operator",
          "type": "address"
        },
        {
          "indexed": false,
          "internalType": "bool",
          "name": "approved",
          "type": "bool"
        }
      ],
      "name": "ApprovalForAll",
      "type": "event"
    },
    {
      "anonymous": false,
      "inputs": [
        {
          "indexed": true,
          "internalType": "address",
          "name": "previousOwner",
          "type": "address"
        },
        {
          "indexed": true,
          "internalType": "address",
          "name": "newOwner",
          "type": "address"
        }
      ],
      "name": "OwnershipTransferred",
      "type": "event"
    },
    {
      "anonymous": false,
      "inputs": [
        {
          "indexed": true,
          "internalType": "address",
          "name": "operator",
          "type": "address"
        },
        {
          "indexed": true,
          "internalType": "address",
          "name": "from",
          "type": "address"
        },
        {
          "indexed": true,
          "internalType": "address",
          "name": "to",
          "type": "address"
        },
        {
          "indexed": false,
          "internalType": "uint256[]",
          "name": "ids",
          "type": "uint256[]"
        },
        {
          "indexed": false,
          "internalType": "uint256[]",
          "name": "values",
          "type": "uint256[]"
        }
      ],
      "name": "TransferBatch",
      "type": "event"
    },
    {
      "anonymous": false,
      "inputs": [
        {
          "indexed": true,
          "internalType": "address",
          "name": "operator",
          "type": "address"
        },
        {
          "indexed": true,
          "internalType": "address",
          "name": "from",
          "type": "address"
        },
        {
          "indexed": true,
          "internalType": "address",
          "name": "to",
          "type": "address"
        },
        {
          "indexed": false,
          "internalType": "uint256",
          "name": "id",
          "type": "uint256"
        },
        {
          "indexed": false,
          "internalType": "uint256",
          "name": "value",
          "type": "uint256"
        }
      ],
      "name": "TransferSingle",
      "type": "event"
    },
    {
      "anonymous": false,
      "inputs": [
        {
          "indexed": false,
          "internalType": "string",
          "name": "value",
          "type": "string"
        },
        {
          "indexed": true,
          "internalType": "uint256",
          "name": "id",
          "type": "uint256"
        }
      ],
      "name": "URI",
      "type": "event"
    },
    {
      "inputs": [
        {
          "internalType": "address",
          "name": "account",
          "type": "address"
        },
        {
          "internalType": "uint256",
          "name": "tokenId",
          "type": "uint256"
        }
      ],
      "name": "balanceOf",
      "outputs": [
        {
          "internalType": "uint256",
          "name": "",
          "type": "uint256"
        }
      ],
      "stateMutability": "view",
      "type": "function"
    },
    {
      "inputs": [
        {
          "internalType": "address[]",
          "name": "accounts",
          "type": "address[]"
        },
        {
          "internalType": "uint256[]",
          "name": "ids",
          "type": "uint256[]"
        }
      ],
      "name": "balanceOfBatch",
      "outputs": [
        {
          "internalType": "uint256[]",
          "name": "",
          "type": "uint256[]"
        }
      ],
      "stateMutability": "view",
      "type": "function"
    },
    {
      "inputs": [
        {
          "internalType": "uint256",
          "name": "tokenId",
          "type": "uint256"
        },
        {
          "internalType": "bytes",
          "name": "",
          "type": "bytes"
        }
      ],
      "name": "burnRespect",
      "outputs": [],
      "stateMutability": "nonpayable",
      "type": "function"
    },
    {
      "inputs": [
        {
          "internalType": "uint256[]",
          "name": "ids",
          "type": "uint256[]"
        },
        {
          "internalType": "bytes",
          "name": "",
          "type": "bytes"
        }
      ],
      "name": "burnRespectGroup",
      "outputs": [],
      "stateMutability": "nonpayable",
      "type": "function"
    },
    {
      "inputs": [],
      "name": "fungibleId",
      "outputs": [
        {
          "internalType": "uint256",
          "name": "",
          "type": "uint256"
        }
      ],
      "stateMutability": "view",
      "type": "function"
    },
    {
      "inputs": [
        {
          "internalType": "address",
          "name": "",
          "type": "address"
        },
        {
          "internalType": "address",
          "name": "",
          "type": "address"
        }
      ],
      "name": "isApprovedForAll",
      "outputs": [
        {
          "internalType": "bool",
          "name": "",
          "type": "bool"
        }
      ],
      "stateMutability": "pure",
      "type": "function"
    },
    {
      "inputs": [
        {
          "components": [
            {
              "internalType": "uint256",
              "name": "id",
              "type": "uint256"
            },
            {
              "internalType": "uint64",
              "name": "value",
              "type": "uint64"
            }
          ],
          "internalType": "struct Respect1155.MintRequest",
          "name": "request",
          "type": "tuple"
        },
        {
          "internalType": "bytes",
          "name": "data",
          "type": "bytes"
        }
      ],
      "name": "mintRespect",
      "outputs": [],
      "stateMutability": "nonpayable",
      "type": "function"
    },
    {
      "inputs": [
        {
          "components": [
            {
              "internalType": "uint256",
              "name": "id",
              "type": "uint256"
            },
            {
              "internalType": "uint64",
              "name": "value",
              "type": "uint64"
            }
          ],
          "internalType": "struct Respect1155.MintRequest[]",
          "name": "requests",
          "type": "tuple[]"
        },
        {
          "internalType": "bytes",
          "name": "data",
          "type": "bytes"
        }
      ],
      "name": "mintRespectGroup",
      "outputs": [],
      "stateMutability": "nonpayable",
      "type": "function"
    },
    {
      "inputs": [],
      "name": "owner",
      "outputs": [
        {
          "internalType": "address",
          "name": "",
          "type": "address"
        }
      ],
      "stateMutability": "view",
      "type": "function"
    },
    {
      "inputs": [
        {
          "internalType": "uint256",
          "name": "tokenId",
          "type": "uint256"
        }
      ],
      "name": "ownerOf",
      "outputs": [
        {
          "internalType": "address",
          "name": "",
          "type": "address"
        }
      ],
      "stateMutability": "pure",
      "type": "function"
    },
    {
      "inputs": [],
      "name": "renounceOwnership",
      "outputs": [],
      "stateMutability": "nonpayable",
      "type": "function"
    },
    {
      "inputs": [
        {
          "internalType": "address",
          "name": "account",
          "type": "address"
        }
      ],
      "name": "respectOf",
      "outputs": [
        {
          "internalType": "uint256",
          "name": "",
          "type": "uint256"
        }
      ],
      "stateMutability": "view",
      "type": "function"
    },
    {
      "inputs": [
        {
          "internalType": "address[]",
          "name": "accounts",
          "type": "address[]"
        }
      ],
      "name": "respectOfBatch",
      "outputs": [
        {
          "internalType": "uint256[]",
          "name": "",
          "type": "uint256[]"
        }
      ],
      "stateMutability": "view",
      "type": "function"
    },
    {
      "inputs": [
        {
          "internalType": "address",
          "name": "",
          "type": "address"
        },
        {
          "internalType": "address",
          "name": "",
          "type": "address"
        },
        {
          "internalType": "uint256[]",
          "name": "",
          "type": "uint256[]"
        },
        {
          "internalType": "uint256[]",
          "name": "",
          "type": "uint256[]"
        },
        {
          "internalType": "bytes",
          "name": "",
          "type": "bytes"
        }
      ],
      "name": "safeBatchTransferFrom",
      "outputs": [],
      "stateMutability": "pure",
      "type": "function"
    },
    {
      "inputs": [
        {
          "internalType": "address",
          "name": "",
          "type": "address"
        },
        {
          "internalType": "address",
          "name": "",
          "type": "address"
        },
        {
          "internalType": "uint256",
          "name": "",
          "type": "uint256"
        },
        {
          "internalType": "uint256",
          "name": "",
          "type": "uint256"
        },
        {
          "internalType": "bytes",
          "name": "",
          "type": "bytes"
        }
      ],
      "name": "safeTransferFrom",
      "outputs": [],
      "stateMutability": "pure",
      "type": "function"
    },
    {
      "inputs": [
        {
          "internalType": "address",
          "name": "",
          "type": "address"
        },
        {
          "internalType": "bool",
          "name": "",
          "type": "bool"
        }
      ],
      "name": "setApprovalForAll",
      "outputs": [],
      "stateMutability": "pure",
      "type": "function"
    },
    {
      "inputs": [
        {
          "internalType": "string",
          "name": "uri",
          "type": "string"
        }
      ],
      "name": "setURI",
      "outputs": [],
      "stateMutability": "nonpayable",
      "type": "function"
    },
    {
      "inputs": [
        {
          "internalType": "address[]",
          "name": "accounts",
          "type": "address[]"
        }
      ],
      "name": "sumRespectOf",
      "outputs": [
        {
          "internalType": "uint256",
          "name": "",
          "type": "uint256"
        }
      ],
      "stateMutability": "view",
      "type": "function"
    },
    {
      "inputs": [
        {
          "internalType": "bytes4",
          "name": "interfaceId",
          "type": "bytes4"
        }
      ],
      "name": "supportsInterface",
      "outputs": [
        {
          "internalType": "bool",
          "name": "",
          "type": "bool"
        }
      ],
      "stateMutability": "view",
      "type": "function"
    },
    {
      "inputs": [
        {
          "internalType": "uint256",
          "name": "tokenId",
          "type": "uint256"
        }
      ],
      "name": "tokenExists",
      "outputs": [
        {
          "internalType": "bool",
          "name": "",
          "type": "bool"
        }
      ],
      "stateMutability": "view",
      "type": "function"
    },
    {
      "inputs": [],
      "name": "totalRespect",
      "outputs": [
        {
          "internalType": "uint256",
          "name": "",
          "type": "uint256"
        }
      ],
      "stateMutability": "view",
      "type": "function"
    },
    {
      "inputs": [
        {
          "internalType": "address",
          "name": "newOwner",
          "type": "address"
        }
      ],
      "name": "transferOwnership",
      "outputs": [],
      "stateMutability": "nonpayable",
      "type": "function"
    },
    {
      "inputs": [
        {
          "internalType": "uint256",
          "name": "",
          "type": "uint256"
        }
      ],
      "name": "uri",
      "outputs": [
        {
          "internalType": "string",
          "name": "",
          "type": "string"
        }
      ],
      "stateMutability": "view",
      "type": "function"
    },
    {
      "inputs": [
        {
          "internalType": "uint256",
          "name": "tokenId",
          "type": "uint256"
        }
      ],
      "name": "valueOfToken",
      "outputs": [
        {
          "internalType": "uint64",
          "name": "",
          "type": "uint64"
        }
      ],
      "stateMutability": "view",
      "type": "function"
    }
  ],
  "bytecode": "0x60806040523480156200001157600080fd5b506040516200347c3803806200347c8339818101604052810190620000379190620003ad565b81816200004a81620000da60201b60201c565b50600073ffffffffffffffffffffffffffffffffffffffff168173ffffffffffffffffffffffffffffffffffffffff1603620000c05760006040517f1e4fbdf7000000000000000000000000000000000000000000000000000000008152600401620000b7919062000424565b60405180910390fd5b620000d181620000ef60201b60201c565b50505062000773565b8060039081620000eb91906200068c565b5050565b6000600460009054906101000a900473ffffffffffffffffffffffffffffffffffffffff16905081600460006101000a81548173ffffffffffffffffffffffffffffffffffffffff021916908373ffffffffffffffffffffffffffffffffffffffff1602179055508173ffffffffffffffffffffffffffffffffffffffff168173ffffffffffffffffffffffffffffffffffffffff167f8be0079c531659141344cd1fd0a4f28419497f9722a3daafe3b4186f6b6457e060405160405180910390a35050565b6000604051905090565b600080fd5b600080fd5b600073ffffffffffffffffffffffffffffffffffffffff82169050919050565b6000620001f682620001c9565b9050919050565b6200020881620001e9565b81146200021457600080fd5b50565b6000815190506200022881620001fd565b92915050565b600080fd5b600080fd5b6000601f19601f8301169050919050565b7f4e487b7100000000000000000000000000000000000000000000000000000000600052604160045260246000fd5b620002838262000238565b810181811067ffffffffffffffff82111715620002a557620002a462000249565b5b80604052505050565b6000620002ba620001b5565b9050620002c8828262000278565b919050565b600067ffffffffffffffff821115620002eb57620002ea62000249565b5b620002f68262000238565b9050602081019050919050565b60005b838110156200032357808201518184015260208101905062000306565b60008484015250505050565b6000620003466200034084620002cd565b620002ae565b90508281526020810184848401111562000365576200036462000233565b5b6200037284828562000303565b509392505050565b600082601f8301126200039257620003916200022e565b5b8151620003a48482602086016200032f565b91505092915050565b60008060408385031215620003c757620003c6620001bf565b5b6000620003d78582860162000217565b925050602083015167ffffffffffffffff811115620003fb57620003fa620001c4565b5b62000409858286016200037a565b9150509250929050565b6200041e81620001e9565b82525050565b60006020820190506200043b600083018462000413565b92915050565b600081519050919050565b7f4e487b7100000000000000000000000000000000000000000000000000000000600052602260045260246000fd5b600060028204905060018216806200049457607f821691505b602082108103620004aa57620004a96200044c565b5b50919050565b60008190508160005260206000209050919050565b60006020601f8301049050919050565b600082821b905092915050565b600060088302620005147fffffffffffffffffffffffffffffffffffffffffffffffffffffffffffffffff82620004d5565b620005208683620004d5565b95508019841693508086168417925050509392505050565b6000819050919050565b6000819050919050565b60006200056d62000567620005618462000538565b62000542565b62000538565b9050919050565b6000819050919050565b62000589836200054c565b620005a1620005988262000574565b848454620004e2565b825550505050565b600090565b620005b8620005a9565b620005c58184846200057e565b505050565b5b81811015620005ed57620005e1600082620005ae565b600181019050620005cb565b5050565b601f8211156200063c576200060681620004b0565b6200061184620004c5565b8101602085101562000621578190505b620006396200063085620004c5565b830182620005ca565b50505b505050565b600082821c905092915050565b6000620006616000198460080262000641565b1980831691505092915050565b60006200067c83836200064e565b9150826002028217905092915050565b620006978262000441565b67ffffffffffffffff811115620006b357620006b262000249565b5b620006bf82546200047b565b620006cc828285620005f1565b600060209050601f831160018114620007045760008415620006ef578287015190505b620006fb85826200066e565b8655506200076b565b601f1984166200071486620004b0565b60005b828110156200073e5784890151825560018201915060208501945060208101905062000717565b868310156200075e57848901516200075a601f8916826200064e565b8355505b6001600288020188555050505b505050505050565b612cf980620007836000396000f3fe608060405234801561001057600080fd5b50600436106101565760003560e01c80635da7e1d4116100c3578063b4de12ce1161007c578063b4de12ce1461040f578063d8b947d01461042b578063dfd469ed14610447578063e985e9c514610463578063f242432a14610493578063f2fde38b146104af57610156565b80635da7e1d4146103615780636352211e1461037d578063715018a6146103ad578063854a6dbb146103b75780638da5cb5b146103d5578063a22cb465146103f357610156565b80631fb221be116101155780631fb221be146102675780632363b4aa1461029757806325a11bab146102c75780632eb2c2d6146102e55780634e1273f41461030157806358970ca81461033157610156565b8062923f9e1461015b578062fdd58e1461018b57806301ffc9a7146101bb57806302fe5305146101eb5780630e89341c1461020757806314e51b5d14610237575b600080fd5b6101756004803603810190610170919061191d565b6104cb565b6040516101829190611965565b60405180910390f35b6101a560048036038101906101a091906119de565b6104f0565b6040516101b29190611a2d565b60405180910390f35b6101d560048036038101906101d09190611aa0565b61057e565b6040516101e29190611965565b60405180910390f35b61020560048036038101906102009190611b32565b610730565b005b610221600480360381019061021c919061191d565b610789565b60405161022e9190611c0f565b60405180910390f35b610251600480360381019061024c9190611c87565b61081d565b60405161025e9190611d92565b60405180910390f35b610281600480360381019061027c9190611c87565b61090e565b60405161028e9190611a2d565b60405180910390f35b6102b160048036038101906102ac919061191d565b6109a4565b6040516102be9190611dd7565b60405180910390f35b6102cf6109f8565b6040516102dc9190611a2d565b60405180910390f35b6102ff60048036038101906102fa9190611fe5565b6109fd565b005b61031b6004803603810190610316919061210a565b610a2f565b6040516103289190611d92565b60405180910390f35b61034b6004803603810190610346919061218b565b610bc8565b6040516103589190611a2d565b60405180910390f35b61037b60048036038101906103769190612264565b610bda565b005b6103976004803603810190610392919061191d565b610c86565b6040516103a491906122f4565b60405180910390f35b6103b5610d0c565b005b6103bf610d20565b6040516103cc9190611a2d565b60405180910390f35b6103dd610d2a565b6040516103ea91906122f4565b60405180910390f35b61040d6004803603810190610408919061233b565b610d54565b005b6104296004803603810190610424919061237b565b610d86565b005b610445600480360381019061044091906123fc565b610dd2565b005b610461600480360381019061045c9190612480565b610de8565b005b61047d600480360381019061047891906124e0565b610e5a565b60405161048a9190611965565b60405180910390f35b6104ad60048036038101906104a89190612520565b610e8e565b005b6104c960048036038101906104c4919061218b565b610ec0565b005b6000806104d783610f46565b905060008167ffffffffffffffff161415915050919050565b60008082036105095761050283610f77565b9050610578565b600061051483610c86565b90508373ffffffffffffffffffffffffffffffffffffffff168173ffffffffffffffffffffffffffffffffffffffff161415806105635750600061055784610f46565b67ffffffffffffffff16145b15610572576000915050610578565b60019150505b92915050565b60007f58970ca8000000000000000000000000000000000000000000000000000000007bffffffffffffffffffffffffffffffffffffffffffffffffffffffff1916827bffffffffffffffffffffffffffffffffffffffffffffffffffffffff1916148061064957507f624de688000000000000000000000000000000000000000000000000000000007bffffffffffffffffffffffffffffffffffffffffffffffffffffffff1916827bffffffffffffffffffffffffffffffffffffffffffffffffffffffff1916145b806106b157507fd9b67a26000000000000000000000000000000000000000000000000000000007bffffffffffffffffffffffffffffffffffffffffffffffffffffffff1916827bffffffffffffffffffffffffffffffffffffffffffffffffffffffff1916145b8061071957507f0e89341c000000000000000000000000000000000000000000000000000000007bffffffffffffffffffffffffffffffffffffffffffffffffffffffff1916827bffffffffffffffffffffffffffffffffffffffffffffffffffffffff1916145b80610729575061072882610fbf565b5b9050919050565b610738611029565b61078582828080601f016020809104026020016040519081016040528093929190818152602001838380828437600081840152601f19601f820116905080830192505050505050506110b0565b5050565b606060038054610798906125e6565b80601f01602080910402602001604051908101604052809291908181526020018280546107c4906125e6565b80156108115780601f106107e657610100808354040283529160200191610811565b820191906000526020600020905b8154815290600101906020018083116107f457829003601f168201915b50505050509050919050565b606060008383905067ffffffffffffffff81111561083e5761083d611df2565b5b60405190808252806020026020018201604052801561086c5781602001602082028036833780820191505090505b50905060005b84849050811015610903576108d96108d482878780806020026020016040519081016040528093929190818152602001838360200280828437600081840152601f19601f820116905080830192505050505050506110c390919063ffffffff16565b610bc8565b8282815181106108ec576108eb612617565b5b602002602001018181525050806001019050610872565b508091505092915050565b6000806000905060005b848490508110156109995761097f61097a82878780806020026020016040519081016040528093929190818152602001838360200280828437600081840152601f19601f820116905080830192505050505050506110c390919063ffffffff16565b610bc8565b8261098a9190612675565b91508080600101915050610918565b508091505092915050565b60008082036109e8576040517f08c379a00000000000000000000000000000000000000000000000000000000081526004016109df906126f5565b60405180910390fd5b6109f182610f46565b9050919050565b600081565b6040517f5f0ac46800000000000000000000000000000000000000000000000000000000815260040160405180910390fd5b6060828290508585905014610a835782829050858590506040517f5b059991000000000000000000000000000000000000000000000000000000008152600401610a7a929190612715565b60405180910390fd5b60008585905067ffffffffffffffff811115610aa257610aa1611df2565b5b604051908082528060200260200182016040528015610ad05781602001602082028036833780820191505090505b50905060005b86869050811015610bbb57610b91610b3882898980806020026020016040519081016040528093929190818152602001838360200280828437600081840152601f19601f820116905080830192505050505050506110c390919063ffffffff16565b610b8c83888880806020026020016040519081016040528093929190818152602001838360200280828437600081840152601f19601f820116905080830192505050505050506110d790919063ffffffff16565b6104f0565b828281518110610ba457610ba3612617565b5b602002602001018181525050806001019050610ad6565b5080915050949350505050565b6000610bd382610f77565b9050919050565b610be2611029565b60005b84849050811015610c7f5736858583818110610c0457610c03612617565b5b9050604002019050610c718160000135826020016020810190610c27919061276a565b86868080601f016020809104026020016040519081016040528093929190818152602001838380828437600081840152601f19601f820116905080830192505050505050506110eb565b508080600101915050610be5565b5050505050565b600080610c9283611311565b9050600073ffffffffffffffffffffffffffffffffffffffff168173ffffffffffffffffffffffffffffffffffffffff1603610d03576040517f08c379a0000000000000000000000000000000000000000000000000000000008152600401610cfa906127e3565b60405180910390fd5b80915050919050565b610d14611029565b610d1e6000611323565b565b6000600254905090565b6000600460009054906101000a900473ffffffffffffffffffffffffffffffffffffffff16905090565b6040517f5f0ac46800000000000000000000000000000000000000000000000000000000815260040160405180910390fd5b610d8e611029565b60005b84849050811015610dcb57610dbe858583818110610db257610db1612617565b5b905060200201356113e9565b8080600101915050610d91565b5050505050565b610dda611029565b610de3836113e9565b505050565b610df0611029565b610e558360000135846020016020810190610e0b919061276a565b84848080601f016020809104026020016040519081016040528093929190818152602001838380828437600081840152601f19601f820116905080830192505050505050506110eb565b505050565b60006040517f5f0ac46800000000000000000000000000000000000000000000000000000000815260040160405180910390fd5b6040517f5f0ac46800000000000000000000000000000000000000000000000000000000815260040160405180910390fd5b610ec8611029565b600073ffffffffffffffffffffffffffffffffffffffff168173ffffffffffffffffffffffffffffffffffffffff1603610f3a5760006040517f1e4fbdf7000000000000000000000000000000000000000000000000000000008152600401610f3191906122f4565b60405180910390fd5b610f4381611323565b50565b60006001600083815260200190815260200160002060009054906101000a900467ffffffffffffffff169050919050565b60008060008373ffffffffffffffffffffffffffffffffffffffff1673ffffffffffffffffffffffffffffffffffffffff168152602001908152602001600020549050919050565b60007f01ffc9a7000000000000000000000000000000000000000000000000000000007bffffffffffffffffffffffffffffffffffffffffffffffffffffffff1916827bffffffffffffffffffffffffffffffffffffffffffffffffffffffff1916149050919050565b6110316115d6565b73ffffffffffffffffffffffffffffffffffffffff1661104f610d2a565b73ffffffffffffffffffffffffffffffffffffffff16146110ae576110726115d6565b6040517f118cdaa70000000000000000000000000000000000000000000000000000000081526004016110a591906122f4565b60405180910390fd5b565b80600390816110bf91906129af565b5050565b600060208202602084010151905092915050565b600060208202602084010151905092915050565b60006110f684611311565b90506000339050600073ffffffffffffffffffffffffffffffffffffffff168273ffffffffffffffffffffffffffffffffffffffff160361116f5760006040517f57f447ce00000000000000000000000000000000000000000000000000000000815260040161116691906122f4565b60405180910390fd5b611178856104cb565b156111b8576040517f08c379a00000000000000000000000000000000000000000000000000000000081526004016111af90612acd565b60405180910390fd5b836001600087815260200190815260200160002060006101000a81548167ffffffffffffffff021916908367ffffffffffffffff1602179055508367ffffffffffffffff166002600082825461120e9190612675565b925050819055508367ffffffffffffffff166000808473ffffffffffffffffffffffffffffffffffffffff1673ffffffffffffffffffffffffffffffffffffffff1681526020019081526020016000206000828254019250508190555060008061127887876115de565b915091508373ffffffffffffffffffffffffffffffffffffffff16600073ffffffffffffffffffffffffffffffffffffffff168473ffffffffffffffffffffffffffffffffffffffff167f4a39dc06d4c0dbc64b70af90fd698a233a518aa5d07e595d983b8c0526c8f7fb85856040516112f3929190612aed565b60405180910390a46113088385848489611710565b50505050505050565b600061131c826118c4565b9050919050565b6000600460009054906101000a900473ffffffffffffffffffffffffffffffffffffffff16905081600460006101000a81548173ffffffffffffffffffffffffffffffffffffffff021916908373ffffffffffffffffffffffffffffffffffffffff1602179055508173ffffffffffffffffffffffffffffffffffffffff168173ffffffffffffffffffffffffffffffffffffffff167f8be0079c531659141344cd1fd0a4f28419497f9722a3daafe3b4186f6b6457e060405160405180910390a35050565b60006113f482610c86565b9050600061140183610f46565b905060008167ffffffffffffffff1603611450576040517f08c379a000000000000000000000000000000000000000000000000000000000815260040161144790612b70565b60405180910390fd5b6001600084815260200190815260200160002060006101000a81549067ffffffffffffffff021916905560008060008473ffffffffffffffffffffffffffffffffffffffff1673ffffffffffffffffffffffffffffffffffffffff1681526020019081526020016000205490508167ffffffffffffffff16816114d39190612b90565b6000808573ffffffffffffffffffffffffffffffffffffffff1673ffffffffffffffffffffffffffffffffffffffff168152602001908152602001600020819055508167ffffffffffffffff16600260008282546115319190612b90565b9250508190555060008061154586856115de565b915091506000339050600073ffffffffffffffffffffffffffffffffffffffff168673ffffffffffffffffffffffffffffffffffffffff168273ffffffffffffffffffffffffffffffffffffffff167f4a39dc06d4c0dbc64b70af90fd698a233a518aa5d07e595d983b8c0526c8f7fb86866040516115c5929190612aed565b60405180910390a450505050505050565b600033905090565b606080600267ffffffffffffffff8111156115fc576115fb611df2565b5b60405190808252806020026020018201604052801561162a5781602001602082028036833780820191505090505b50915060008260008151811061164357611642612617565b5b602002602001018181525050838260018151811061166457611663612617565b5b602002602001018181525050600267ffffffffffffffff81111561168b5761168a611df2565b5b6040519080825280602002602001820160405280156116b95781602001602082028036833780820191505090505b5090508267ffffffffffffffff16816000815181106116db576116da612617565b5b6020026020010181815250506001816001815181106116fd576116fc612617565b5b6020026020010181815250509250929050565b60008473ffffffffffffffffffffffffffffffffffffffff163b11156118bd578373ffffffffffffffffffffffffffffffffffffffff1663bc197c818660008686866040518663ffffffff1660e01b8152600401611772959493929190612c19565b6020604051808303816000875af19250505080156117ae57506040513d601f19601f820116820180604052508101906117ab9190612c96565b60015b611832573d80600081146117de576040519150601f19603f3d011682016040523d82523d6000602084013e6117e3565b606091505b50600081510361182a57846040517f57f447ce00000000000000000000000000000000000000000000000000000000815260040161182191906122f4565b60405180910390fd5b805181602001fd5b63bc197c8160e01b7bffffffffffffffffffffffffffffffffffffffffffffffffffffffff1916817bffffffffffffffffffffffffffffffffffffffffffffffffffffffff1916146118bb57846040517f57f447ce0000000000000000000000000000000000000000000000000000000081526004016118b291906122f4565b60405180910390fd5b505b5050505050565b60008082905080915050919050565b6000604051905090565b600080fd5b600080fd5b6000819050919050565b6118fa816118e7565b811461190557600080fd5b50565b600081359050611917816118f1565b92915050565b600060208284031215611933576119326118dd565b5b600061194184828501611908565b91505092915050565b60008115159050919050565b61195f8161194a565b82525050565b600060208201905061197a6000830184611956565b92915050565b600073ffffffffffffffffffffffffffffffffffffffff82169050919050565b60006119ab82611980565b9050919050565b6119bb816119a0565b81146119c657600080fd5b50565b6000813590506119d8816119b2565b92915050565b600080604083850312156119f5576119f46118dd565b5b6000611a03858286016119c9565b9250506020611a1485828601611908565b9150509250929050565b611a27816118e7565b82525050565b6000602082019050611a426000830184611a1e565b92915050565b60007fffffffff0000000000000000000000000000000000000000000000000000000082169050919050565b611a7d81611a48565b8114611a8857600080fd5b50565b600081359050611a9a81611a74565b92915050565b600060208284031215611ab657611ab56118dd565b5b6000611ac484828501611a8b565b91505092915050565b600080fd5b600080fd5b600080fd5b60008083601f840112611af257611af1611acd565b5b8235905067ffffffffffffffff811115611b0f57611b0e611ad2565b5b602083019150836001820283011115611b2b57611b2a611ad7565b5b9250929050565b60008060208385031215611b4957611b486118dd565b5b600083013567ffffffffffffffff811115611b6757611b666118e2565b5b611b7385828601611adc565b92509250509250929050565b600081519050919050565b600082825260208201905092915050565b60005b83811015611bb9578082015181840152602081019050611b9e565b60008484015250505050565b6000601f19601f8301169050919050565b6000611be182611b7f565b611beb8185611b8a565b9350611bfb818560208601611b9b565b611c0481611bc5565b840191505092915050565b60006020820190508181036000830152611c298184611bd6565b905092915050565b60008083601f840112611c4757611c46611acd565b5b8235905067ffffffffffffffff811115611c6457611c63611ad2565b5b602083019150836020820283011115611c8057611c7f611ad7565b5b9250929050565b60008060208385031215611c9e57611c9d6118dd565b5b600083013567ffffffffffffffff811115611cbc57611cbb6118e2565b5b611cc885828601611c31565b92509250509250929050565b600081519050919050565b600082825260208201905092915050565b6000819050602082019050919050565b611d09816118e7565b82525050565b6000611d1b8383611d00565b60208301905092915050565b6000602082019050919050565b6000611d3f82611cd4565b611d498185611cdf565b9350611d5483611cf0565b8060005b83811015611d85578151611d6c8882611d0f565b9750611d7783611d27565b925050600181019050611d58565b5085935050505092915050565b60006020820190508181036000830152611dac8184611d34565b905092915050565b600067ffffffffffffffff82169050919050565b611dd181611db4565b82525050565b6000602082019050611dec6000830184611dc8565b92915050565b7f4e487b7100000000000000000000000000000000000000000000000000000000600052604160045260246000fd5b611e2a82611bc5565b810181811067ffffffffffffffff82111715611e4957611e48611df2565b5b80604052505050565b6000611e5c6118d3565b9050611e688282611e21565b919050565b600067ffffffffffffffff821115611e8857611e87611df2565b5b602082029050602081019050919050565b6000611eac611ea784611e6d565b611e52565b90508083825260208201905060208402830185811115611ecf57611ece611ad7565b5b835b81811015611ef85780611ee48882611908565b845260208401935050602081019050611ed1565b5050509392505050565b600082601f830112611f1757611f16611acd565b5b8135611f27848260208601611e99565b91505092915050565b600080fd5b600067ffffffffffffffff821115611f5057611f4f611df2565b5b611f5982611bc5565b9050602081019050919050565b82818337600083830152505050565b6000611f88611f8384611f35565b611e52565b905082815260208101848484011115611fa457611fa3611f30565b5b611faf848285611f66565b509392505050565b600082601f830112611fcc57611fcb611acd565b5b8135611fdc848260208601611f75565b91505092915050565b600080600080600060a08688031215612001576120006118dd565b5b600061200f888289016119c9565b9550506020612020888289016119c9565b945050604086013567ffffffffffffffff811115612041576120406118e2565b5b61204d88828901611f02565b935050606086013567ffffffffffffffff81111561206e5761206d6118e2565b5b61207a88828901611f02565b925050608086013567ffffffffffffffff81111561209b5761209a6118e2565b5b6120a788828901611fb7565b9150509295509295909350565b60008083601f8401126120ca576120c9611acd565b5b8235905067ffffffffffffffff8111156120e7576120e6611ad2565b5b60208301915083602082028301111561210357612102611ad7565b5b9250929050565b60008060008060408587031215612124576121236118dd565b5b600085013567ffffffffffffffff811115612142576121416118e2565b5b61214e87828801611c31565b9450945050602085013567ffffffffffffffff811115612171576121706118e2565b5b61217d878288016120b4565b925092505092959194509250565b6000602082840312156121a1576121a06118dd565b5b60006121af848285016119c9565b91505092915050565b60008083601f8401126121ce576121cd611acd565b5b8235905067ffffffffffffffff8111156121eb576121ea611ad2565b5b60208301915083604082028301111561220757612206611ad7565b5b9250929050565b60008083601f84011261222457612223611acd565b5b8235905067ffffffffffffffff81111561224157612240611ad2565b5b60208301915083600182028301111561225d5761225c611ad7565b5b9250929050565b6000806000806040858703121561227e5761227d6118dd565b5b600085013567ffffffffffffffff81111561229c5761229b6118e2565b5b6122a8878288016121b8565b9450945050602085013567ffffffffffffffff8111156122cb576122ca6118e2565b5b6122d78782880161220e565b925092505092959194509250565b6122ee816119a0565b82525050565b600060208201905061230960008301846122e5565b92915050565b6123188161194a565b811461232357600080fd5b50565b6000813590506123358161230f565b92915050565b60008060408385031215612352576123516118dd565b5b6000612360858286016119c9565b925050602061237185828601612326565b9150509250929050565b60008060008060408587031215612395576123946118dd565b5b600085013567ffffffffffffffff8111156123b3576123b26118e2565b5b6123bf878288016120b4565b9450945050602085013567ffffffffffffffff8111156123e2576123e16118e2565b5b6123ee8782880161220e565b925092505092959194509250565b600080600060408486031215612415576124146118dd565b5b600061242386828701611908565b935050602084013567ffffffffffffffff811115612444576124436118e2565b5b6124508682870161220e565b92509250509250925092565b600080fd5b6000604082840312156124775761247661245c565b5b81905092915050565b600080600060608486031215612499576124986118dd565b5b60006124a786828701612461565b935050604084013567ffffffffffffffff8111156124c8576124c76118e2565b5b6124d48682870161220e565b92509250509250925092565b600080604083850312156124f7576124f66118dd565b5b6000612505858286016119c9565b9250506020612516858286016119c9565b9150509250929050565b600080600080600060a0868803121561253c5761253b6118dd565b5b600061254a888289016119c9565b955050602061255b888289016119c9565b945050604061256c88828901611908565b935050606061257d88828901611908565b925050608086013567ffffffffffffffff81111561259e5761259d6118e2565b5b6125aa88828901611fb7565b9150509295509295909350565b7f4e487b7100000000000000000000000000000000000000000000000000000000600052602260045260246000fd5b600060028204905060018216806125fe57607f821691505b602082108103612611576126106125b7565b5b50919050565b7f4e487b7100000000000000000000000000000000000000000000000000000000600052603260045260246000fd5b7f4e487b7100000000000000000000000000000000000000000000000000000000600052601160045260246000fd5b6000612680826118e7565b915061268b836118e7565b92508282019050808211156126a3576126a2612646565b5b92915050565b7f4f6e6c79204e54547320686176652076616c7565206669656c64000000000000600082015250565b60006126df601a83611b8a565b91506126ea826126a9565b602082019050919050565b6000602082019050818103600083015261270e816126d2565b9050919050565b600060408201905061272a6000830185611a1e565b6127376020830184611a1e565b9392505050565b61274781611db4565b811461275257600080fd5b50565b6000813590506127648161273e565b92915050565b6000602082840312156127805761277f6118dd565b5b600061278e84828501612755565b91505092915050565b7f696e76616c696420746f6b656e20494400000000000000000000000000000000600082015250565b60006127cd601083611b8a565b91506127d882612797565b602082019050919050565b600060208201905081810360008301526127fc816127c0565b9050919050565b60008190508160005260206000209050919050565b60006020601f8301049050919050565b600082821b905092915050565b6000600883026128657fffffffffffffffffffffffffffffffffffffffffffffffffffffffffffffffff82612828565b61286f8683612828565b95508019841693508086168417925050509392505050565b6000819050919050565b60006128ac6128a76128a2846118e7565b612887565b6118e7565b9050919050565b6000819050919050565b6128c683612891565b6128da6128d2826128b3565b848454612835565b825550505050565b600090565b6128ef6128e2565b6128fa8184846128bd565b505050565b5b8181101561291e576129136000826128e7565b600181019050612900565b5050565b601f8211156129635761293481612803565b61293d84612818565b8101602085101561294c578190505b61296061295885612818565b8301826128ff565b50505b505050565b600082821c905092915050565b600061298660001984600802612968565b1980831691505092915050565b600061299f8383612975565b9150826002028217905092915050565b6129b882611b7f565b67ffffffffffffffff8111156129d1576129d0611df2565b5b6129db82546125e6565b6129e6828285612922565b600060209050601f831160018114612a195760008415612a07578287015190505b612a118582612993565b865550612a79565b601f198416612a2786612803565b60005b82811015612a4f57848901518255600182019150602085019450602081019050612a2a565b86831015612a6c5784890151612a68601f891682612975565b8355505b6001600288020188555050505b505050505050565b7f546f6b656e20616c726561647920657869737473000000000000000000000000600082015250565b6000612ab7601483611b8a565b9150612ac282612a81565b602082019050919050565b60006020820190508181036000830152612ae681612aaa565b9050919050565b60006040820190508181036000830152612b078185611d34565b90508181036020830152612b1b8184611d34565b90509392505050565b7f546f6b656e20646f6573206e6f74206578697374000000000000000000000000600082015250565b6000612b5a601483611b8a565b9150612b6582612b24565b602082019050919050565b60006020820190508181036000830152612b8981612b4d565b9050919050565b6000612b9b826118e7565b9150612ba6836118e7565b9250828203905081811115612bbe57612bbd612646565b5b92915050565b600081519050919050565b600082825260208201905092915050565b6000612beb82612bc4565b612bf58185612bcf565b9350612c05818560208601611b9b565b612c0e81611bc5565b840191505092915050565b600060a082019050612c2e60008301886122e5565b612c3b60208301876122e5565b8181036040830152612c4d8186611d34565b90508181036060830152612c618185611d34565b90508181036080830152612c758184612be0565b90509695505050505050565b600081519050612c9081611a74565b92915050565b600060208284031215612cac57612cab6118dd565b5b6000612cba84828501612c81565b9150509291505056fea2646970667358221220845d3a116b3224d91964b6c3b402bcd2fb60483ff0cea69ac449b0495644a73364736f6c63430008180033",
  "linkReferences": {},
  "deployedLinkReferences": {}
}